{
  "abi": [
    {
      "inputs": [
        {
          "internalType": "string",
          "name": "_name",
          "type": "string"
        },
        {
          "internalType": "string",
          "name": "_symbol",
          "type": "string"
        }
      ],
      "stateMutability": "nonpayable",
      "type": "constructor"
    },
    {
      "anonymous": false,
      "inputs": [
        {
          "indexed": true,
          "internalType": "address",
          "name": "owner",
          "type": "address"
        },
        {
          "indexed": true,
          "internalType": "address",
          "name": "spender",
          "type": "address"
        },
        {
          "indexed": false,
          "internalType": "uint256",
          "name": "value",
          "type": "uint256"
        }
      ],
      "name": "Approval",
      "type": "event"
    },
    {
      "anonymous": false,
      "inputs": [
        {
          "indexed": true,
          "internalType": "address",
          "name": "from",
          "type": "address"
        },
        {
          "indexed": true,
          "internalType": "address",
          "name": "to",
          "type": "address"
        },
        {
          "indexed": false,
          "internalType": "uint256",
          "name": "value",
          "type": "uint256"
        }
      ],
      "name": "Transfer",
      "type": "event"
    },
    {
      "inputs": [
        {
          "internalType": "address",
          "name": "owner",
          "type": "address"
        },
        {
          "internalType": "address",
          "name": "spender",
          "type": "address"
        }
      ],
      "name": "allowance",
      "outputs": [
        {
          "internalType": "uint256",
          "name": "",
          "type": "uint256"
        }
      ],
      "stateMutability": "view",
      "type": "function"
    },
    {
      "inputs": [
        {
          "internalType": "address",
          "name": "spender",
          "type": "address"
        },
        {
          "internalType": "uint256",
          "name": "amount",
          "type": "uint256"
        }
      ],
      "name": "approve",
      "outputs": [
        {
          "internalType": "bool",
          "name": "",
          "type": "bool"
        }
      ],
      "stateMutability": "nonpayable",
      "type": "function"
    },
    {
      "inputs": [
        {
          "internalType": "bool",
          "name": "_approveDisable",
          "type": "bool"
        }
      ],
      "name": "approveDisable",
      "outputs": [],
      "stateMutability": "nonpayable",
      "type": "function"
    },
    {
      "inputs": [],
      "name": "approveDisableFlag",
      "outputs": [
        {
          "internalType": "bool",
          "name": "",
          "type": "bool"
        }
      ],
      "stateMutability": "view",
      "type": "function"
    },
    {
      "inputs": [
        {
          "internalType": "bool",
          "name": "_approveZeroDisable",
          "type": "bool"
        }
      ],
      "name": "approveZeroDisable",
      "outputs": [],
      "stateMutability": "nonpayable",
      "type": "function"
    },
    {
      "inputs": [],
      "name": "approveZeroDisableFlag",
      "outputs": [
        {
          "internalType": "bool",
          "name": "",
          "type": "bool"
        }
      ],
      "stateMutability": "view",
      "type": "function"
    },
    {
      "inputs": [],
      "name": "badTransferFlag",
      "outputs": [
        {
          "internalType": "bool",
          "name": "",
          "type": "bool"
        }
      ],
      "stateMutability": "view",
      "type": "function"
    },
    {
      "inputs": [
        {
          "internalType": "address",
          "name": "account",
          "type": "address"
        }
      ],
      "name": "balanceOf",
      "outputs": [
        {
          "internalType": "uint256",
          "name": "",
          "type": "uint256"
        }
      ],
      "stateMutability": "view",
      "type": "function"
    },
    {
      "inputs": [],
      "name": "decimals",
      "outputs": [
        {
          "internalType": "uint8",
          "name": "",
          "type": "uint8"
        }
      ],
      "stateMutability": "view",
      "type": "function"
    },
    {
      "inputs": [
        {
          "internalType": "address",
          "name": "spender",
          "type": "address"
        },
        {
          "internalType": "uint256",
          "name": "subtractedValue",
          "type": "uint256"
        }
      ],
      "name": "decreaseAllowance",
      "outputs": [
        {
          "internalType": "bool",
          "name": "",
          "type": "bool"
        }
      ],
      "stateMutability": "nonpayable",
      "type": "function"
    },
    {
      "inputs": [
        {
          "internalType": "address",
          "name": "delegatee",
          "type": "address"
        }
      ],
      "name": "delegate",
      "outputs": [],
      "stateMutability": "nonpayable",
      "type": "function"
    },
    {
      "inputs": [
        {
          "internalType": "address",
          "name": "",
          "type": "address"
        }
      ],
      "name": "delegates",
      "outputs": [
        {
          "internalType": "address",
          "name": "",
          "type": "address"
        }
      ],
      "stateMutability": "view",
      "type": "function"
    },
    {
      "inputs": [
        {
          "internalType": "address",
          "name": "spender",
          "type": "address"
        },
        {
          "internalType": "uint256",
          "name": "addedValue",
          "type": "uint256"
        }
      ],
      "name": "increaseAllowance",
      "outputs": [
        {
          "internalType": "bool",
          "name": "",
          "type": "bool"
        }
      ],
      "stateMutability": "nonpayable",
      "type": "function"
    },
    {
      "inputs": [
        {
          "internalType": "address",
          "name": "_to",
          "type": "address"
        },
        {
          "internalType": "uint256",
          "name": "_amount",
          "type": "uint256"
        }
      ],
      "name": "mint",
      "outputs": [],
      "stateMutability": "nonpayable",
      "type": "function"
    },
    {
      "inputs": [],
      "name": "name",
      "outputs": [
        {
          "internalType": "string",
          "name": "",
          "type": "string"
        }
      ],
      "stateMutability": "view",
      "type": "function"
    },
    {
      "inputs": [
        {
          "internalType": "bool",
          "name": "_badTransferFlag",
          "type": "bool"
        }
      ],
      "name": "setBadTransferFlag",
      "outputs": [],
      "stateMutability": "nonpayable",
      "type": "function"
    },
    {
      "inputs": [],
      "name": "symbol",
      "outputs": [
        {
          "internalType": "string",
          "name": "",
          "type": "string"
        }
      ],
      "stateMutability": "view",
      "type": "function"
    },
    {
      "inputs": [],
      "name": "totalSupply",
      "outputs": [
        {
          "internalType": "uint256",
          "name": "",
          "type": "uint256"
        }
      ],
      "stateMutability": "view",
      "type": "function"
    },
    {
      "inputs": [
        {
          "internalType": "address",
          "name": "to",
          "type": "address"
        },
        {
          "internalType": "uint256",
          "name": "amount",
          "type": "uint256"
        }
      ],
      "name": "transfer",
      "outputs": [
        {
          "internalType": "bool",
          "name": "",
          "type": "bool"
        }
      ],
      "stateMutability": "nonpayable",
      "type": "function"
    },
    {
      "inputs": [
        {
          "internalType": "address",
          "name": "from",
          "type": "address"
        },
        {
          "internalType": "address",
          "name": "to",
          "type": "address"
        },
        {
          "internalType": "uint256",
          "name": "amount",
          "type": "uint256"
        }
      ],
      "name": "transferFrom",
      "outputs": [
        {
          "internalType": "bool",
          "name": "",
          "type": "bool"
        }
      ],
      "stateMutability": "nonpayable",
      "type": "function"
    }
  ],
  "bytecode": {
    "object": "0x60806040523480156200001157600080fd5b5060405162000ed938038062000ed9833981016040819052620000349162000130565b8181600362000044838262000229565b50600462000053828262000229565b50506006805462ffffff1916905550620002f5915050565b634e487b7160e01b600052604160045260246000fd5b600082601f8301126200009357600080fd5b81516001600160401b0380821115620000b057620000b06200006b565b604051601f8301601f19908116603f01168101908282118183101715620000db57620000db6200006b565b81604052838152602092508683858801011115620000f857600080fd5b600091505b838210156200011c5785820183015181830184015290820190620000fd565b600093810190920192909252949350505050565b600080604083850312156200014457600080fd5b82516001600160401b03808211156200015c57600080fd5b6200016a8683870162000081565b935060208501519150808211156200018157600080fd5b50620001908582860162000081565b9150509250929050565b600181811c90821680620001af57607f821691505b602082108103620001d057634e487b7160e01b600052602260045260246000fd5b50919050565b601f8211156200022457600081815260208120601f850160051c81016020861015620001ff5750805b601f850160051c820191505b8181101562000220578281556001016200020b565b5050505b505050565b81516001600160401b038111156200024557620002456200006b565b6200025d816200025684546200019a565b84620001d6565b602080601f8311600181146200029557600084156200027c5750858301515b600019600386901b1c1916600185901b17855562000220565b600085815260208120601f198616915b82811015620002c657888601518255948401946001909101908401620002a5565b5085821015620002e55787850151600019600388901b60f8161c191681555b5050505050600190811b01905550565b610bd480620003056000396000f3fe608060405234801561001057600080fd5b506004361061012c5760003560e01c8063587cde1e116100ad578063a457c2d711610071578063a457c2d7146102f4578063a9059cbb14610307578063afe75bd11461031a578063dd62ed3e1461033b578063eb3cdded1461034e57600080fd5b8063587cde1e146102325780635c19a95c1461027357806370a08231146102b057806395d89b41146102d95780639cd98a76146102e157600080fd5b8063313ce567116100f4578063313ce567146101a957806337f202b8146101b857806339509351146101e457806340c10f19146101f757806345d550e51461020a57600080fd5b806306fdde0314610131578063095ea7b31461014f5780630fcc5bd71461017257806318160ddd1461018457806323b872dd14610196575b600080fd5b61013961035b565b60405161014691906109da565b60405180910390f35b61016261015d366004610a44565b6103ed565b6040519015158152602001610146565b60065461016290610100900460ff1681565b6002545b604051908152602001610146565b6101626101a4366004610a6e565b610433565b60405160128152602001610146565b6101e26101c6366004610aaa565b60068054911515620100000262ff000019909216919091179055565b005b6101626101f2366004610a44565b610457565b6101e2610205366004610a44565b610483565b6101e2610218366004610aaa565b600680549115156101000261ff0019909216919091179055565b61025b610240366004610ad3565b6005602052600090815260409020546001600160a01b031681565b6040516001600160a01b039091168152602001610146565b6101e2610281366004610ad3565b33600090815260056020526040902080546001600160a01b0319166001600160a01b0392909216919091179055565b6101886102be366004610ad3565b6001600160a01b031660009081526020819052604090205490565b610139610491565b6006546101629062010000900460ff1681565b610162610302366004610a44565b6104a0565b610162610315366004610a44565b610520565b6101e2610328366004610aaa565b6006805460ff1916911515919091179055565b610188610349366004610aee565b61052e565b6006546101629060ff1681565b60606003805461036a90610b21565b80601f016020809104026020016040519081016040528092919081815260200182805461039690610b21565b80156103e35780601f106103b8576101008083540402835291602001916103e3565b820191906000526020600020905b8154815290600101906020018083116103c657829003601f168201915b5050505050905090565b60065460009060ff16806104115750600654610100900460ff168015610411575081155b1561041e5750600061042d565b610429338484610559565b5060015b92915050565b60003361044185828561067d565b61044c8585856106f7565b506001949350505050565b60003361047981858561046a838361052e565b6104749190610b5b565b610559565b5060019392505050565b61048d828261072d565b5050565b60606004805461036a90610b21565b600033816104ae828661052e565b9050838110156105135760405162461bcd60e51b815260206004820152602560248201527f45524332303a2064656372656173656420616c6c6f77616e63652062656c6f77604482015264207a65726f60d81b60648201526084015b60405180910390fd5b61044c8286868403610559565b6000336104798185856106f7565b6001600160a01b03918216600090815260016020908152604080832093909416825291909152205490565b6001600160a01b0383166105bb5760405162461bcd60e51b8152602060048201526024808201527f45524332303a20617070726f76652066726f6d20746865207a65726f206164646044820152637265737360e01b606482015260840161050a565b6001600160a01b03821661061c5760405162461bcd60e51b815260206004820152602260248201527f45524332303a20617070726f766520746f20746865207a65726f206164647265604482015261737360f01b606482015260840161050a565b6001600160a01b0383811660008181526001602090815260408083209487168084529482529182902085905590518481527f8c5be1e5ebec7d5bd14f71427d1e84f3dd0314c0f7b2291e5b200ac8c7c3b925910160405180910390a3505050565b6000610689848461052e565b905060001981146106f157818110156106e45760405162461bcd60e51b815260206004820152601d60248201527f45524332303a20696e73756666696369656e7420616c6c6f77616e6365000000604482015260640161050a565b6106f18484848403610559565b50505050565b60065462010000900460ff16156107225761071d8383610718600285610b7c565b61080c565b505050565b61071d83838361080c565b6001600160a01b0382166107835760405162461bcd60e51b815260206004820152601f60248201527f45524332303a206d696e7420746f20746865207a65726f206164647265737300604482015260640161050a565b80600260008282546107959190610b5b565b90915550506001600160a01b038216600090815260208190526040812080548392906107c2908490610b5b565b90915550506040518181526001600160a01b038316906000907fddf252ad1be2c89b69c2b068fc378daa952ba7f163c4a11628f55a4df523b3ef9060200160405180910390a35050565b6001600160a01b0383166108705760405162461bcd60e51b815260206004820152602560248201527f45524332303a207472616e736665722066726f6d20746865207a65726f206164604482015264647265737360d81b606482015260840161050a565b6001600160a01b0382166108d25760405162461bcd60e51b815260206004820152602360248201527f45524332303a207472616e7366657220746f20746865207a65726f206164647260448201526265737360e81b606482015260840161050a565b6001600160a01b0383166000908152602081905260409020548181101561094a5760405162461bcd60e51b815260206004820152602660248201527f45524332303a207472616e7366657220616d6f756e7420657863656564732062604482015265616c616e636560d01b606482015260840161050a565b6001600160a01b03808516600090815260208190526040808220858503905591851681529081208054849290610981908490610b5b565b92505081905550826001600160a01b0316846001600160a01b03167fddf252ad1be2c89b69c2b068fc378daa952ba7f163c4a11628f55a4df523b3ef846040516109cd91815260200190565b60405180910390a36106f1565b600060208083528351808285015260005b81811015610a07578581018301518582016040015282016109eb565b506000604082860101526040601f19601f8301168501019250505092915050565b80356001600160a01b0381168114610a3f57600080fd5b919050565b60008060408385031215610a5757600080fd5b610a6083610a28565b946020939093013593505050565b600080600060608486031215610a8357600080fd5b610a8c84610a28565b9250610a9a60208501610a28565b9150604084013590509250925092565b600060208284031215610abc57600080fd5b81358015158114610acc57600080fd5b9392505050565b600060208284031215610ae557600080fd5b610acc82610a28565b60008060408385031215610b0157600080fd5b610b0a83610a28565b9150610b1860208401610a28565b90509250929050565b600181811c90821680610b3557607f821691505b602082108103610b5557634e487b7160e01b600052602260045260246000fd5b50919050565b8082018082111561042d57634e487b7160e01b600052601160045260246000fd5b600082610b9957634e487b7160e01b600052601260045260246000fd5b50049056fea26469706673582212201f819c53e967d1ccc11b9a7788752429619d9b84db14d3e263e5553fb1b5f09f64736f6c63430008100033",
    "linkReferences": {}
  },
  "methodIdentifiers": {
    "allowance(address,address)": "dd62ed3e",
    "approve(address,uint256)": "095ea7b3",
    "approveDisable(bool)": "afe75bd1",
    "approveDisableFlag()": "eb3cdded",
    "approveZeroDisable(bool)": "45d550e5",
    "approveZeroDisableFlag()": "0fcc5bd7",
    "badTransferFlag()": "9cd98a76",
    "balanceOf(address)": "70a08231",
    "decimals()": "313ce567",
    "decreaseAllowance(address,uint256)": "a457c2d7",
    "delegate(address)": "5c19a95c",
    "delegates(address)": "587cde1e",
    "increaseAllowance(address,uint256)": "39509351",
    "mint(address,uint256)": "40c10f19",
    "name()": "06fdde03",
    "setBadTransferFlag(bool)": "37f202b8",
    "symbol()": "95d89b41",
    "totalSupply()": "18160ddd",
    "transfer(address,uint256)": "a9059cbb",
    "transferFrom(address,address,uint256)": "23b872dd"
  },
  "id": 11
}