{
  "abi": [
    {
      "inputs": [],
      "name": "ActiveClaimExists",
      "type": "error"
    },
    {
      "inputs": [],
      "name": "AmountCannotBeZero",
      "type": "error"
    },
    {
      "inputs": [],
      "name": "BountyPercentageHigherThanMaxBounty",
      "type": "error"
    },
    {
      "inputs": [],
      "name": "CannotSetToPerviousRewardController",
      "type": "error"
    },
    {
      "inputs": [],
      "name": "CannotTransferToAnotherUserWithActiveWithdrawRequest",
      "type": "error"
    },
    {
      "inputs": [],
      "name": "CannotTransferToSelf",
      "type": "error"
    },
    {
      "inputs": [],
      "name": "ChallengePeriodEnded",
      "type": "error"
    },
    {
      "inputs": [],
      "name": "ChallengedClaimCanOnlyBeApprovedByArbitratorUntilChallengeTimeoutPeriod",
      "type": "error"
    },
    {
      "inputs": [],
      "name": "ClaimAlreadyChallenged",
      "type": "error"
    },
    {
      "inputs": [],
      "name": "ClaimExpired",
      "type": "error"
    },
    {
      "inputs": [],
      "name": "ClaimIdIsNotActive",
      "type": "error"
    },
    {
      "inputs": [],
      "name": "CommitteeAlreadyCheckedIn",
      "type": "error"
    },
    {
      "inputs": [],
      "name": "CommitteeBountyCannotBeMoreThanMax",
      "type": "error"
    },
    {
      "inputs": [],
      "name": "CommitteeNotCheckedInYet",
      "type": "error"
    },
    {
      "inputs": [],
      "name": "DelayPeriodForSettingMaxBountyHadNotPassed",
      "type": "error"
    },
    {
      "inputs": [],
      "name": "MaxBountyCannotBeMoreThanMaxBountyLimit",
      "type": "error"
    },
    {
      "inputs": [],
      "name": "NoActiveClaimExists",
      "type": "error"
    },
    {
      "inputs": [],
      "name": "NoPendingMaxBounty",
      "type": "error"
    },
    {
      "inputs": [],
      "name": "NotEnoughFeePaid",
      "type": "error"
    },
    {
      "inputs": [],
      "name": "NotEnoughUserBalance",
      "type": "error"
    },
    {
      "inputs": [],
      "name": "NotSafetyPeriod",
      "type": "error"
    },
    {
      "inputs": [],
      "name": "OnlyArbitratorOrRegistryOwner",
      "type": "error"
    },
    {
      "inputs": [],
      "name": "OnlyCallableByArbitratorOrAfterChallengeTimeOutPeriod",
      "type": "error"
    },
    {
      "inputs": [],
      "name": "OnlyCallableIfChallenged",
      "type": "error"
    },
    {
      "inputs": [],
      "name": "OnlyCommittee",
      "type": "error"
    },
    {
      "inputs": [],
      "name": "OnlyFeeSetter",
      "type": "error"
    },
    {
      "inputs": [],
      "name": "OnlyRegistryOwner",
      "type": "error"
    },
    {
      "inputs": [],
      "name": "RedeemMoreThanMax",
      "type": "error"
    },
    {
      "inputs": [],
      "name": "SafetyPeriod",
      "type": "error"
    },
    {
      "inputs": [],
      "name": "SetSharesArraysMustHaveSameLength",
      "type": "error"
    },
    {
      "inputs": [],
      "name": "SystemInEmergencyPause",
      "type": "error"
    },
    {
      "inputs": [],
      "name": "TotalSplitPercentageShouldBeHundredPercent",
      "type": "error"
    },
    {
      "inputs": [],
      "name": "UnchallengedClaimCanOnlyBeApprovedAfterChallengePeriod",
      "type": "error"
    },
    {
      "inputs": [],
      "name": "VestingDurationSmallerThanPeriods",
      "type": "error"
    },
    {
      "inputs": [],
      "name": "VestingDurationTooLong",
      "type": "error"
    },
    {
      "inputs": [],
      "name": "VestingPeriodsCannotBeZero",
      "type": "error"
    },
    {
      "inputs": [],
      "name": "WithdrawMustBeGreaterThanZero",
      "type": "error"
    },
    {
      "inputs": [],
      "name": "WithdrawalFeeTooBig",
      "type": "error"
    },
    {
      "anonymous": false,
      "inputs": [
        {
          "indexed": true,
          "internalType": "address",
          "name": "owner",
          "type": "address"
        },
        {
          "indexed": true,
          "internalType": "address",
          "name": "spender",
          "type": "address"
        },
        {
          "indexed": false,
          "internalType": "uint256",
          "name": "value",
          "type": "uint256"
        }
      ],
      "name": "Approval",
      "type": "event"
    },
    {
      "anonymous": false,
      "inputs": [
        {
          "indexed": true,
          "internalType": "bytes32",
          "name": "_claimId",
          "type": "bytes32"
        },
        {
          "indexed": true,
          "internalType": "address",
          "name": "_committee",
          "type": "address"
        },
        {
          "indexed": true,
          "internalType": "address",
          "name": "_beneficiary",
          "type": "address"
        },
        {
          "indexed": false,
          "internalType": "uint256",
          "name": "_bountyPercentage",
          "type": "uint256"
        },
        {
          "indexed": false,
          "internalType": "address",
          "name": "_tokenLock",
          "type": "address"
        },
        {
          "components": [
            {
              "internalType": "uint256",
              "name": "hacker",
              "type": "uint256"
            },
            {
              "internalType": "uint256",
              "name": "hackerVested",
              "type": "uint256"
            },
            {
              "internalType": "uint256",
              "name": "committee",
              "type": "uint256"
            },
            {
              "internalType": "uint256",
              "name": "hackerHatVested",
              "type": "uint256"
            },
            {
              "internalType": "uint256",
              "name": "governanceHat",
              "type": "uint256"
            }
          ],
          "indexed": false,
          "internalType": "struct IHATVault.ClaimBounty",
          "name": "_claimBounty",
          "type": "tuple"
        }
      ],
      "name": "ApproveClaim",
      "type": "event"
    },
    {
      "anonymous": false,
      "inputs": [
        {
          "indexed": true,
          "internalType": "bytes32",
          "name": "_claimId",
          "type": "bytes32"
        }
      ],
      "name": "ChallengeClaim",
      "type": "event"
    },
    {
      "anonymous": false,
      "inputs": [],
      "name": "CommitteeCheckedIn",
      "type": "event"
    },
    {
      "anonymous": false,
      "inputs": [
        {
          "indexed": true,
          "internalType": "address",
          "name": "caller",
          "type": "address"
        },
        {
          "indexed": true,
          "internalType": "address",
          "name": "owner",
          "type": "address"
        },
        {
          "indexed": false,
          "internalType": "uint256",
          "name": "assets",
          "type": "uint256"
        },
        {
          "indexed": false,
          "internalType": "uint256",
          "name": "shares",
          "type": "uint256"
        }
      ],
      "name": "Deposit",
      "type": "event"
    },
    {
      "anonymous": false,
      "inputs": [
        {
          "indexed": true,
          "internalType": "bytes32",
          "name": "_claimId",
          "type": "bytes32"
        }
      ],
      "name": "DismissClaim",
      "type": "event"
    },
    {
      "anonymous": false,
      "inputs": [
        {
          "indexed": false,
          "internalType": "uint8",
          "name": "version",
          "type": "uint8"
        }
      ],
      "name": "Initialized",
      "type": "event"
    },
    {
      "anonymous": false,
      "inputs": [
        {
          "indexed": true,
          "internalType": "address",
          "name": "previousOwner",
          "type": "address"
        },
        {
          "indexed": true,
          "internalType": "address",
          "name": "newOwner",
          "type": "address"
        }
      ],
      "name": "OwnershipTransferred",
      "type": "event"
    },
    {
      "anonymous": false,
      "inputs": [
        {
          "indexed": true,
          "internalType": "address",
          "name": "_arbitrator",
          "type": "address"
        }
      ],
      "name": "SetArbitrator",
      "type": "event"
    },
    {
      "anonymous": false,
      "inputs": [
        {
          "indexed": false,
          "internalType": "enum IHATVault.ArbitratorCanChangeBounty",
          "name": "_arbitratorCanChangeBounty",
          "type": "uint8"
        }
      ],
      "name": "SetArbitratorCanChangeBounty",
      "type": "event"
    },
    {
      "anonymous": false,
      "inputs": [
        {
          "components": [
            {
              "internalType": "uint256",
              "name": "hackerVested",
              "type": "uint256"
            },
            {
              "internalType": "uint256",
              "name": "hacker",
              "type": "uint256"
            },
            {
              "internalType": "uint256",
              "name": "committee",
              "type": "uint256"
            }
          ],
          "indexed": false,
          "internalType": "struct IHATVault.BountySplit",
          "name": "_bountySplit",
          "type": "tuple"
        }
      ],
      "name": "SetBountySplit",
      "type": "event"
    },
    {
      "anonymous": false,
      "inputs": [
        {
          "indexed": false,
          "internalType": "uint256",
          "name": "_challengePeriod",
          "type": "uint256"
        }
      ],
      "name": "SetChallengePeriod",
      "type": "event"
    },
    {
      "anonymous": false,
      "inputs": [
        {
          "indexed": false,
          "internalType": "uint256",
          "name": "_challengeTimeOutPeriod",
          "type": "uint256"
        }
      ],
      "name": "SetChallengeTimeOutPeriod",
      "type": "event"
    },
    {
      "anonymous": false,
      "inputs": [
        {
          "indexed": true,
          "internalType": "address",
          "name": "_committee",
          "type": "address"
        }
      ],
      "name": "SetCommittee",
      "type": "event"
    },
    {
      "anonymous": false,
      "inputs": [
        {
          "indexed": false,
          "internalType": "bool",
          "name": "_depositPause",
          "type": "bool"
        }
      ],
      "name": "SetDepositPause",
      "type": "event"
    },
    {
      "anonymous": false,
      "inputs": [
        {
          "indexed": false,
          "internalType": "uint256",
          "name": "_bountyGovernanceHAT",
          "type": "uint256"
        },
        {
          "indexed": false,
          "internalType": "uint256",
          "name": "_bountyHackerHATVested",
          "type": "uint256"
        }
      ],
      "name": "SetHATBountySplit",
      "type": "event"
    },
    {
      "anonymous": false,
      "inputs": [
        {
          "indexed": false,
          "internalType": "uint256",
          "name": "_maxBounty",
          "type": "uint256"
        }
      ],
      "name": "SetMaxBounty",
      "type": "event"
    },
    {
      "anonymous": false,
      "inputs": [
        {
          "indexed": false,
          "internalType": "uint256",
          "name": "_maxBounty",
          "type": "uint256"
        },
        {
          "indexed": false,
          "internalType": "uint256",
          "name": "_timeStamp",
          "type": "uint256"
        }
      ],
      "name": "SetPendingMaxBounty",
      "type": "event"
    },
    {
      "anonymous": false,
      "inputs": [
        {
          "indexed": true,
          "internalType": "contract IRewardController",
          "name": "_newRewardController",
          "type": "address"
        }
      ],
      "name": "SetRewardController",
      "type": "event"
    },
    {
      "anonymous": false,
      "inputs": [
        {
          "indexed": false,
          "internalType": "string",
          "name": "_descriptionHash",
          "type": "string"
        }
      ],
      "name": "SetVaultDescription",
      "type": "event"
    },
    {
      "anonymous": false,
      "inputs": [
        {
          "indexed": false,
          "internalType": "uint256",
          "name": "_duration",
          "type": "uint256"
        },
        {
          "indexed": false,
          "internalType": "uint256",
          "name": "_periods",
          "type": "uint256"
        }
      ],
      "name": "SetVestingParams",
      "type": "event"
    },
    {
      "anonymous": false,
      "inputs": [
        {
          "indexed": false,
          "internalType": "uint256",
          "name": "_newFee",
          "type": "uint256"
        }
      ],
      "name": "SetWithdrawalFee",
      "type": "event"
    },
    {
      "anonymous": false,
      "inputs": [
        {
          "indexed": true,
          "internalType": "bytes32",
          "name": "_claimId",
          "type": "bytes32"
        },
        {
          "indexed": true,
          "internalType": "address",
          "name": "_committee",
          "type": "address"
        },
        {
          "indexed": true,
          "internalType": "address",
          "name": "_beneficiary",
          "type": "address"
        },
        {
          "indexed": false,
          "internalType": "uint256",
          "name": "_bountyPercentage",
          "type": "uint256"
        },
        {
          "indexed": false,
          "internalType": "string",
          "name": "_descriptionHash",
          "type": "string"
        }
      ],
      "name": "SubmitClaim",
      "type": "event"
    },
    {
      "anonymous": false,
      "inputs": [
        {
          "indexed": true,
          "internalType": "address",
          "name": "from",
          "type": "address"
        },
        {
          "indexed": true,
          "internalType": "address",
          "name": "to",
          "type": "address"
        },
        {
          "indexed": false,
          "internalType": "uint256",
          "name": "value",
          "type": "uint256"
        }
      ],
      "name": "Transfer",
      "type": "event"
    },
    {
      "anonymous": false,
      "inputs": [
        {
          "indexed": true,
          "internalType": "address",
          "name": "caller",
          "type": "address"
        },
        {
          "indexed": true,
          "internalType": "address",
          "name": "receiver",
          "type": "address"
        },
        {
          "indexed": true,
          "internalType": "address",
          "name": "owner",
          "type": "address"
        },
        {
          "indexed": false,
          "internalType": "uint256",
          "name": "assets",
          "type": "uint256"
        },
        {
          "indexed": false,
          "internalType": "uint256",
          "name": "shares",
          "type": "uint256"
        }
      ],
      "name": "Withdraw",
      "type": "event"
    },
    {
      "anonymous": false,
      "inputs": [
        {
          "indexed": true,
          "internalType": "address",
          "name": "_beneficiary",
          "type": "address"
        },
        {
          "indexed": false,
          "internalType": "uint256",
          "name": "_withdrawEnableTime",
          "type": "uint256"
        }
      ],
      "name": "WithdrawRequest",
      "type": "event"
    },
    {
      "inputs": [],
      "name": "HUNDRED_PERCENT",
      "outputs": [
        {
          "internalType": "uint256",
          "name": "",
          "type": "uint256"
        }
      ],
      "stateMutability": "view",
      "type": "function"
    },
    {
      "inputs": [],
      "name": "HUNDRED_PERCENT_SQRD",
      "outputs": [
        {
          "internalType": "uint256",
          "name": "",
          "type": "uint256"
        }
      ],
      "stateMutability": "view",
      "type": "function"
    },
    {
      "inputs": [],
      "name": "MAX_BOUNTY_LIMIT",
      "outputs": [
        {
          "internalType": "uint256",
          "name": "",
          "type": "uint256"
        }
      ],
      "stateMutability": "view",
      "type": "function"
    },
    {
      "inputs": [],
      "name": "MAX_COMMITTEE_BOUNTY",
      "outputs": [
        {
          "internalType": "uint256",
          "name": "",
          "type": "uint256"
        }
      ],
      "stateMutability": "view",
      "type": "function"
    },
    {
      "inputs": [],
      "name": "MAX_WITHDRAWAL_FEE",
      "outputs": [
        {
          "internalType": "uint256",
          "name": "",
          "type": "uint256"
        }
      ],
      "stateMutability": "view",
      "type": "function"
    },
    {
      "inputs": [],
      "name": "NULL_ADDRESS",
      "outputs": [
        {
          "internalType": "address",
          "name": "",
          "type": "address"
        }
      ],
      "stateMutability": "view",
      "type": "function"
    },
    {
      "inputs": [],
      "name": "NULL_UINT",
      "outputs": [
        {
          "internalType": "uint256",
          "name": "",
          "type": "uint256"
        }
      ],
      "stateMutability": "view",
      "type": "function"
    },
    {
      "inputs": [],
      "name": "activeClaim",
      "outputs": [
        {
          "internalType": "bytes32",
          "name": "claimId",
          "type": "bytes32"
        },
        {
          "internalType": "address",
          "name": "beneficiary",
          "type": "address"
        },
        {
          "internalType": "uint256",
          "name": "bountyPercentage",
          "type": "uint256"
        },
        {
          "internalType": "address",
          "name": "committee",
          "type": "address"
        },
        {
          "internalType": "uint256",
          "name": "createdAt",
          "type": "uint256"
        },
        {
          "internalType": "uint256",
          "name": "challengedAt",
          "type": "uint256"
        },
        {
          "internalType": "uint256",
          "name": "bountyGovernanceHAT",
          "type": "uint256"
        },
        {
          "internalType": "uint256",
          "name": "bountyHackerHATVested",
          "type": "uint256"
        },
        {
          "internalType": "address",
          "name": "arbitrator",
          "type": "address"
        },
        {
          "internalType": "uint256",
          "name": "challengePeriod",
          "type": "uint256"
        },
        {
          "internalType": "uint256",
          "name": "challengeTimeOutPeriod",
          "type": "uint256"
        },
        {
          "internalType": "bool",
          "name": "arbitratorCanChangeBounty",
          "type": "bool"
        }
      ],
      "stateMutability": "view",
      "type": "function"
    },
    {
      "inputs": [
        {
          "internalType": "address",
          "name": "owner",
          "type": "address"
        },
        {
          "internalType": "address",
          "name": "spender",
          "type": "address"
        }
      ],
      "name": "allowance",
      "outputs": [
        {
          "internalType": "uint256",
          "name": "",
          "type": "uint256"
        }
      ],
      "stateMutability": "view",
      "type": "function"
    },
    {
      "inputs": [
        {
          "internalType": "address",
          "name": "spender",
          "type": "address"
        },
        {
          "internalType": "uint256",
          "name": "amount",
          "type": "uint256"
        }
      ],
      "name": "approve",
      "outputs": [
        {
          "internalType": "bool",
          "name": "",
          "type": "bool"
        }
      ],
      "stateMutability": "nonpayable",
      "type": "function"
    },
    {
      "inputs": [
        {
          "internalType": "bytes32",
          "name": "_claimId",
          "type": "bytes32"
        },
        {
          "internalType": "uint256",
          "name": "_bountyPercentage",
          "type": "uint256"
        }
      ],
      "name": "approveClaim",
      "outputs": [],
      "stateMutability": "nonpayable",
      "type": "function"
    },
    {
      "inputs": [],
      "name": "asset",
      "outputs": [
        {
          "internalType": "address",
          "name": "",
          "type": "address"
        }
      ],
      "stateMutability": "view",
      "type": "function"
    },
    {
      "inputs": [
        {
          "internalType": "address",
          "name": "account",
          "type": "address"
        }
      ],
      "name": "balanceOf",
      "outputs": [
        {
          "internalType": "uint256",
          "name": "",
          "type": "uint256"
        }
      ],
      "stateMutability": "view",
      "type": "function"
    },
    {
      "inputs": [],
      "name": "bountySplit",
      "outputs": [
        {
          "internalType": "uint256",
          "name": "hackerVested",
          "type": "uint256"
        },
        {
          "internalType": "uint256",
          "name": "hacker",
          "type": "uint256"
        },
        {
          "internalType": "uint256",
          "name": "committee",
          "type": "uint256"
        }
      ],
      "stateMutability": "view",
      "type": "function"
    },
    {
      "inputs": [
        {
          "internalType": "bytes32",
          "name": "_claimId",
          "type": "bytes32"
        }
      ],
      "name": "challengeClaim",
      "outputs": [],
      "stateMutability": "nonpayable",
      "type": "function"
    },
    {
      "inputs": [],
      "name": "committee",
      "outputs": [
        {
          "internalType": "address",
          "name": "",
          "type": "address"
        }
      ],
      "stateMutability": "view",
      "type": "function"
    },
    {
      "inputs": [],
      "name": "committeeCheckIn",
      "outputs": [],
      "stateMutability": "nonpayable",
      "type": "function"
    },
    {
      "inputs": [],
      "name": "committeeCheckedIn",
      "outputs": [
        {
          "internalType": "bool",
          "name": "",
          "type": "bool"
        }
      ],
      "stateMutability": "view",
      "type": "function"
    },
    {
      "inputs": [
        {
          "internalType": "uint256",
          "name": "shares",
          "type": "uint256"
        }
      ],
      "name": "convertToAssets",
      "outputs": [
        {
          "internalType": "uint256",
          "name": "assets",
          "type": "uint256"
        }
      ],
      "stateMutability": "view",
      "type": "function"
    },
    {
      "inputs": [
        {
          "internalType": "uint256",
          "name": "assets",
          "type": "uint256"
        }
      ],
      "name": "convertToShares",
      "outputs": [
        {
          "internalType": "uint256",
          "name": "shares",
          "type": "uint256"
        }
      ],
      "stateMutability": "view",
      "type": "function"
    },
    {
      "inputs": [],
      "name": "decimals",
      "outputs": [
        {
          "internalType": "uint8",
          "name": "",
          "type": "uint8"
        }
      ],
      "stateMutability": "view",
      "type": "function"
    },
    {
      "inputs": [
        {
          "internalType": "address",
          "name": "spender",
          "type": "address"
        },
        {
          "internalType": "uint256",
          "name": "subtractedValue",
          "type": "uint256"
        }
      ],
      "name": "decreaseAllowance",
      "outputs": [
        {
          "internalType": "bool",
          "name": "",
          "type": "bool"
        }
      ],
      "stateMutability": "nonpayable",
      "type": "function"
    },
    {
      "inputs": [
        {
          "internalType": "uint256",
          "name": "assets",
          "type": "uint256"
        },
        {
          "internalType": "address",
          "name": "receiver",
          "type": "address"
        }
      ],
      "name": "deposit",
      "outputs": [
        {
          "internalType": "uint256",
          "name": "",
          "type": "uint256"
        }
      ],
      "stateMutability": "nonpayable",
      "type": "function"
    },
    {
      "inputs": [],
      "name": "depositPause",
      "outputs": [
        {
          "internalType": "bool",
          "name": "",
          "type": "bool"
        }
      ],
      "stateMutability": "view",
      "type": "function"
    },
    {
      "inputs": [
        {
          "internalType": "bytes32",
          "name": "_claimId",
          "type": "bytes32"
        }
      ],
      "name": "dismissClaim",
      "outputs": [],
      "stateMutability": "nonpayable",
      "type": "function"
    },
    {
      "inputs": [
        {
          "internalType": "address",
          "name": "receiver",
          "type": "address"
        }
      ],
      "name": "emergencyWithdraw",
      "outputs": [
        {
          "internalType": "uint256",
          "name": "assets",
          "type": "uint256"
        }
      ],
      "stateMutability": "nonpayable",
      "type": "function"
    },
    {
      "inputs": [],
      "name": "getArbitrator",
      "outputs": [
        {
          "internalType": "address",
          "name": "",
          "type": "address"
        }
      ],
      "stateMutability": "view",
      "type": "function"
    },
    {
      "inputs": [],
      "name": "getArbitratorCanChangeBounty",
      "outputs": [
        {
          "internalType": "bool",
          "name": "",
          "type": "bool"
        }
      ],
      "stateMutability": "view",
      "type": "function"
    },
    {
      "inputs": [],
      "name": "getBountyGovernanceHAT",
      "outputs": [
        {
          "internalType": "uint256",
          "name": "_bountyGovernanceHAT",
          "type": "uint256"
        }
      ],
      "stateMutability": "view",
      "type": "function"
    },
    {
      "inputs": [],
      "name": "getBountyHackerHATVested",
      "outputs": [
        {
          "internalType": "uint256",
          "name": "",
          "type": "uint256"
        }
      ],
      "stateMutability": "view",
      "type": "function"
    },
    {
      "inputs": [],
      "name": "getChallengePeriod",
      "outputs": [
        {
          "internalType": "uint256",
          "name": "",
          "type": "uint256"
        }
      ],
      "stateMutability": "view",
      "type": "function"
    },
    {
      "inputs": [],
      "name": "getChallengeTimeOutPeriod",
      "outputs": [
        {
          "internalType": "uint256",
          "name": "",
          "type": "uint256"
        }
      ],
      "stateMutability": "view",
      "type": "function"
    },
    {
      "inputs": [
        {
          "internalType": "address",
          "name": "spender",
          "type": "address"
        },
        {
          "internalType": "uint256",
          "name": "addedValue",
          "type": "uint256"
        }
      ],
      "name": "increaseAllowance",
      "outputs": [
        {
          "internalType": "bool",
          "name": "",
          "type": "bool"
        }
      ],
      "stateMutability": "nonpayable",
      "type": "function"
    },
    {
      "inputs": [
        {
          "components": [
            {
              "internalType": "contract IRewardController",
              "name": "rewardController",
              "type": "address"
            },
            {
              "internalType": "uint256",
              "name": "vestingDuration",
              "type": "uint256"
            },
            {
              "internalType": "uint256",
              "name": "vestingPeriods",
              "type": "uint256"
            },
            {
              "internalType": "uint256",
              "name": "maxBounty",
              "type": "uint256"
            },
            {
              "components": [
                {
                  "internalType": "uint256",
                  "name": "hackerVested",
                  "type": "uint256"
                },
                {
                  "internalType": "uint256",
                  "name": "hacker",
                  "type": "uint256"
                },
                {
                  "internalType": "uint256",
                  "name": "committee",
                  "type": "uint256"
                }
              ],
              "internalType": "struct IHATVault.BountySplit",
              "name": "bountySplit",
              "type": "tuple"
            },
            {
              "internalType": "contract IERC20",
              "name": "asset",
              "type": "address"
            },
            {
              "internalType": "address",
              "name": "owner",
              "type": "address"
            },
            {
              "internalType": "address",
              "name": "committee",
              "type": "address"
            },
            {
              "internalType": "bool",
              "name": "isPaused",
              "type": "bool"
            },
            {
              "internalType": "string",
              "name": "descriptionHash",
              "type": "string"
            }
          ],
          "internalType": "struct IHATVault.VaultInitParams",
          "name": "_params",
          "type": "tuple"
        }
      ],
      "name": "initialize",
      "outputs": [],
      "stateMutability": "nonpayable",
      "type": "function"
    },
    {
      "inputs": [],
      "name": "maxBounty",
      "outputs": [
        {
          "internalType": "uint256",
          "name": "",
          "type": "uint256"
        }
      ],
      "stateMutability": "view",
      "type": "function"
    },
    {
      "inputs": [
        {
          "internalType": "address",
          "name": "",
          "type": "address"
        }
      ],
      "name": "maxDeposit",
      "outputs": [
        {
          "internalType": "uint256",
          "name": "",
          "type": "uint256"
        }
      ],
      "stateMutability": "view",
      "type": "function"
    },
    {
      "inputs": [
        {
          "internalType": "address",
          "name": "",
          "type": "address"
        }
      ],
      "name": "maxMint",
      "outputs": [
        {
          "internalType": "uint256",
          "name": "",
          "type": "uint256"
        }
      ],
      "stateMutability": "view",
      "type": "function"
    },
    {
      "inputs": [
        {
          "internalType": "address",
          "name": "owner",
          "type": "address"
        }
      ],
      "name": "maxRedeem",
      "outputs": [
        {
          "internalType": "uint256",
          "name": "",
          "type": "uint256"
        }
      ],
      "stateMutability": "view",
      "type": "function"
    },
    {
      "inputs": [
        {
          "internalType": "address",
          "name": "owner",
          "type": "address"
        }
      ],
      "name": "maxWithdraw",
      "outputs": [
        {
          "internalType": "uint256",
          "name": "",
          "type": "uint256"
        }
      ],
      "stateMutability": "view",
      "type": "function"
    },
    {
      "inputs": [
        {
          "internalType": "uint256",
          "name": "shares",
          "type": "uint256"
        },
        {
          "internalType": "address",
          "name": "receiver",
          "type": "address"
        }
      ],
      "name": "mint",
      "outputs": [
        {
          "internalType": "uint256",
          "name": "",
          "type": "uint256"
        }
      ],
      "stateMutability": "nonpayable",
      "type": "function"
    },
    {
      "inputs": [],
      "name": "name",
      "outputs": [
        {
          "internalType": "string",
          "name": "",
          "type": "string"
        }
      ],
      "stateMutability": "view",
      "type": "function"
    },
    {
      "inputs": [],
      "name": "owner",
      "outputs": [
        {
          "internalType": "address",
          "name": "",
          "type": "address"
        }
      ],
      "stateMutability": "view",
      "type": "function"
    },
    {
      "inputs": [],
      "name": "pendingMaxBounty",
      "outputs": [
        {
          "internalType": "uint256",
          "name": "maxBounty",
          "type": "uint256"
        },
        {
          "internalType": "uint256",
          "name": "timestamp",
          "type": "uint256"
        }
      ],
      "stateMutability": "view",
      "type": "function"
    },
    {
      "inputs": [
        {
          "internalType": "uint256",
          "name": "assets",
          "type": "uint256"
        }
      ],
      "name": "previewDeposit",
      "outputs": [
        {
          "internalType": "uint256",
          "name": "",
          "type": "uint256"
        }
      ],
      "stateMutability": "view",
      "type": "function"
    },
    {
      "inputs": [
        {
          "internalType": "uint256",
          "name": "shares",
          "type": "uint256"
        }
      ],
      "name": "previewMint",
      "outputs": [
        {
          "internalType": "uint256",
          "name": "",
          "type": "uint256"
        }
      ],
      "stateMutability": "view",
      "type": "function"
    },
    {
      "inputs": [
        {
          "internalType": "uint256",
          "name": "shares",
          "type": "uint256"
        }
      ],
      "name": "previewRedeem",
      "outputs": [
        {
          "internalType": "uint256",
          "name": "assets",
          "type": "uint256"
        }
      ],
      "stateMutability": "view",
      "type": "function"
    },
    {
      "inputs": [
        {
          "internalType": "uint256",
          "name": "shares",
          "type": "uint256"
        }
      ],
      "name": "previewRedeemAndFee",
      "outputs": [
        {
          "internalType": "uint256",
          "name": "assets",
          "type": "uint256"
        },
        {
          "internalType": "uint256",
          "name": "fee",
          "type": "uint256"
        }
      ],
      "stateMutability": "view",
      "type": "function"
    },
    {
      "inputs": [
        {
          "internalType": "uint256",
          "name": "assets",
          "type": "uint256"
        }
      ],
      "name": "previewWithdraw",
      "outputs": [
        {
          "internalType": "uint256",
          "name": "shares",
          "type": "uint256"
        }
      ],
      "stateMutability": "view",
      "type": "function"
    },
    {
      "inputs": [
        {
          "internalType": "uint256",
          "name": "assets",
          "type": "uint256"
        }
      ],
      "name": "previewWithdrawAndFee",
      "outputs": [
        {
          "internalType": "uint256",
          "name": "shares",
          "type": "uint256"
        },
        {
          "internalType": "uint256",
          "name": "fee",
          "type": "uint256"
        }
      ],
      "stateMutability": "view",
      "type": "function"
    },
    {
      "inputs": [
        {
          "internalType": "uint256",
          "name": "shares",
          "type": "uint256"
        },
        {
          "internalType": "address",
          "name": "receiver",
          "type": "address"
        },
        {
          "internalType": "address",
          "name": "owner",
          "type": "address"
        }
      ],
      "name": "redeem",
      "outputs": [
        {
          "internalType": "uint256",
          "name": "",
          "type": "uint256"
        }
      ],
      "stateMutability": "nonpayable",
      "type": "function"
    },
    {
      "inputs": [
        {
          "internalType": "uint256",
          "name": "shares",
          "type": "uint256"
        },
        {
          "internalType": "address",
          "name": "receiver",
          "type": "address"
        },
        {
          "internalType": "address",
          "name": "owner",
          "type": "address"
        }
      ],
      "name": "redeemAndClaim",
      "outputs": [
        {
          "internalType": "uint256",
          "name": "assets",
          "type": "uint256"
        }
      ],
      "stateMutability": "nonpayable",
      "type": "function"
    },
    {
      "inputs": [],
      "name": "registry",
      "outputs": [
        {
          "internalType": "contract HATVaultsRegistry",
          "name": "",
          "type": "address"
        }
      ],
      "stateMutability": "view",
      "type": "function"
    },
    {
      "inputs": [],
      "name": "renounceOwnership",
      "outputs": [],
      "stateMutability": "nonpayable",
      "type": "function"
    },
    {
      "inputs": [],
      "name": "rewardController",
      "outputs": [
        {
          "internalType": "contract IRewardController",
          "name": "",
          "type": "address"
        }
      ],
      "stateMutability": "view",
      "type": "function"
    },
    {
      "inputs": [
        {
          "internalType": "address",
          "name": "",
          "type": "address"
        }
      ],
      "name": "rewardControllerRemoved",
      "outputs": [
        {
          "internalType": "bool",
          "name": "",
          "type": "bool"
        }
      ],
      "stateMutability": "view",
      "type": "function"
    },
    {
      "inputs": [
        {
          "internalType": "address",
          "name": "_arbitrator",
          "type": "address"
        }
      ],
      "name": "setArbitrator",
      "outputs": [],
      "stateMutability": "nonpayable",
      "type": "function"
    },
    {
      "inputs": [
        {
          "internalType": "enum IHATVault.ArbitratorCanChangeBounty",
          "name": "_arbitratorCanChangeBounty",
          "type": "uint8"
        }
      ],
      "name": "setArbitratorCanChangeBounty",
      "outputs": [],
      "stateMutability": "nonpayable",
      "type": "function"
    },
    {
      "inputs": [
        {
          "components": [
            {
              "internalType": "uint256",
              "name": "hackerVested",
              "type": "uint256"
            },
            {
              "internalType": "uint256",
              "name": "hacker",
              "type": "uint256"
            },
            {
              "internalType": "uint256",
              "name": "committee",
              "type": "uint256"
            }
          ],
          "internalType": "struct IHATVault.BountySplit",
          "name": "_bountySplit",
          "type": "tuple"
        }
      ],
      "name": "setBountySplit",
      "outputs": [],
      "stateMutability": "nonpayable",
      "type": "function"
    },
    {
      "inputs": [
        {
          "internalType": "uint256",
          "name": "_challengePeriod",
          "type": "uint256"
        }
      ],
      "name": "setChallengePeriod",
      "outputs": [],
      "stateMutability": "nonpayable",
      "type": "function"
    },
    {
      "inputs": [
        {
          "internalType": "uint256",
          "name": "_challengeTimeOutPeriod",
          "type": "uint256"
        }
      ],
      "name": "setChallengeTimeOutPeriod",
      "outputs": [],
      "stateMutability": "nonpayable",
      "type": "function"
    },
    {
      "inputs": [
        {
          "internalType": "address",
          "name": "_committee",
          "type": "address"
        }
      ],
      "name": "setCommittee",
      "outputs": [],
      "stateMutability": "nonpayable",
      "type": "function"
    },
    {
      "inputs": [
        {
          "internalType": "bool",
          "name": "_depositPause",
          "type": "bool"
        }
      ],
      "name": "setDepositPause",
      "outputs": [],
      "stateMutability": "nonpayable",
      "type": "function"
    },
    {
      "inputs": [
        {
          "internalType": "uint256",
          "name": "_bountyGovernanceHAT",
          "type": "uint256"
        },
        {
          "internalType": "uint256",
          "name": "_bountyHackerHATVested",
          "type": "uint256"
        }
      ],
      "name": "setHATBountySplit",
      "outputs": [],
      "stateMutability": "nonpayable",
      "type": "function"
    },
    {
      "inputs": [],
      "name": "setMaxBounty",
      "outputs": [],
      "stateMutability": "nonpayable",
      "type": "function"
    },
    {
      "inputs": [
        {
          "internalType": "uint256",
          "name": "_maxBounty",
          "type": "uint256"
        }
      ],
      "name": "setPendingMaxBounty",
      "outputs": [],
      "stateMutability": "nonpayable",
      "type": "function"
    },
    {
      "inputs": [
        {
          "internalType": "contract IRewardController",
          "name": "_rewardController",
          "type": "address"
        }
      ],
      "name": "setRewardController",
      "outputs": [],
      "stateMutability": "nonpayable",
      "type": "function"
    },
    {
      "inputs": [
        {
          "internalType": "string",
          "name": "_descriptionHash",
          "type": "string"
        }
      ],
      "name": "setVaultDescription",
      "outputs": [],
      "stateMutability": "nonpayable",
      "type": "function"
    },
    {
      "inputs": [
        {
          "internalType": "uint256",
          "name": "_duration",
          "type": "uint256"
        },
        {
          "internalType": "uint256",
          "name": "_periods",
          "type": "uint256"
        }
      ],
      "name": "setVestingParams",
      "outputs": [],
      "stateMutability": "nonpayable",
      "type": "function"
    },
    {
      "inputs": [
        {
          "internalType": "uint256",
          "name": "_fee",
          "type": "uint256"
        }
      ],
      "name": "setWithdrawalFee",
      "outputs": [],
      "stateMutability": "nonpayable",
      "type": "function"
    },
    {
      "inputs": [
        {
          "internalType": "address",
          "name": "_beneficiary",
          "type": "address"
        },
        {
          "internalType": "uint256",
          "name": "_bountyPercentage",
          "type": "uint256"
        },
        {
          "internalType": "string",
          "name": "_descriptionHash",
          "type": "string"
        }
      ],
      "name": "submitClaim",
      "outputs": [
        {
          "internalType": "bytes32",
          "name": "claimId",
          "type": "bytes32"
        }
      ],
      "stateMutability": "nonpayable",
      "type": "function"
    },
    {
      "inputs": [],
      "name": "symbol",
      "outputs": [
        {
          "internalType": "string",
          "name": "",
          "type": "string"
        }
      ],
      "stateMutability": "view",
      "type": "function"
    },
    {
      "inputs": [],
      "name": "tokenLockFactory",
      "outputs": [
        {
          "internalType": "contract ITokenLockFactory",
          "name": "",
          "type": "address"
        }
      ],
      "stateMutability": "view",
      "type": "function"
    },
    {
      "inputs": [],
      "name": "totalAssets",
      "outputs": [
        {
          "internalType": "uint256",
          "name": "",
          "type": "uint256"
        }
      ],
      "stateMutability": "view",
      "type": "function"
    },
    {
      "inputs": [],
      "name": "totalSupply",
      "outputs": [
        {
          "internalType": "uint256",
          "name": "",
          "type": "uint256"
        }
      ],
      "stateMutability": "view",
      "type": "function"
    },
    {
      "inputs": [
        {
          "internalType": "address",
          "name": "to",
          "type": "address"
        },
        {
          "internalType": "uint256",
          "name": "amount",
          "type": "uint256"
        }
      ],
      "name": "transfer",
      "outputs": [
        {
          "internalType": "bool",
          "name": "",
          "type": "bool"
        }
      ],
      "stateMutability": "nonpayable",
      "type": "function"
    },
    {
      "inputs": [
        {
          "internalType": "address",
          "name": "from",
          "type": "address"
        },
        {
          "internalType": "address",
          "name": "to",
          "type": "address"
        },
        {
          "internalType": "uint256",
          "name": "amount",
          "type": "uint256"
        }
      ],
      "name": "transferFrom",
      "outputs": [
        {
          "internalType": "bool",
          "name": "",
          "type": "bool"
        }
      ],
      "stateMutability": "nonpayable",
      "type": "function"
    },
    {
      "inputs": [
        {
          "internalType": "address",
          "name": "newOwner",
          "type": "address"
        }
      ],
      "name": "transferOwnership",
      "outputs": [],
      "stateMutability": "nonpayable",
      "type": "function"
    },
    {
      "inputs": [],
      "name": "vestingDuration",
      "outputs": [
        {
          "internalType": "uint256",
          "name": "",
          "type": "uint256"
        }
      ],
      "stateMutability": "view",
      "type": "function"
    },
    {
      "inputs": [],
      "name": "vestingPeriods",
      "outputs": [
        {
          "internalType": "uint256",
          "name": "",
          "type": "uint256"
        }
      ],
      "stateMutability": "view",
      "type": "function"
    },
    {
      "inputs": [
        {
          "internalType": "uint256",
          "name": "assets",
          "type": "uint256"
        },
        {
          "internalType": "address",
          "name": "receiver",
          "type": "address"
        },
        {
          "internalType": "address",
          "name": "owner",
          "type": "address"
        }
      ],
      "name": "withdraw",
      "outputs": [
        {
          "internalType": "uint256",
          "name": "",
          "type": "uint256"
        }
      ],
      "stateMutability": "nonpayable",
      "type": "function"
    },
    {
      "inputs": [
        {
          "internalType": "uint256",
          "name": "assets",
          "type": "uint256"
        },
        {
          "internalType": "address",
          "name": "receiver",
          "type": "address"
        },
        {
          "internalType": "address",
          "name": "owner",
          "type": "address"
        }
      ],
      "name": "withdrawAndClaim",
      "outputs": [
        {
          "internalType": "uint256",
          "name": "shares",
          "type": "uint256"
        }
      ],
      "stateMutability": "nonpayable",
      "type": "function"
    },
    {
      "inputs": [
        {
          "internalType": "address",
          "name": "",
          "type": "address"
        }
      ],
      "name": "withdrawEnableStartTime",
      "outputs": [
        {
          "internalType": "uint256",
          "name": "",
          "type": "uint256"
        }
      ],
      "stateMutability": "view",
      "type": "function"
    },
    {
      "inputs": [],
      "name": "withdrawRequest",
      "outputs": [],
      "stateMutability": "nonpayable",
      "type": "function"
    },
    {
      "inputs": [],
      "name": "withdrawalFee",
      "outputs": [
        {
          "internalType": "uint256",
          "name": "",
          "type": "uint256"
        }
      ],
      "stateMutability": "view",
      "type": "function"
    }
  ],
  "bytecode": {
    "object": "0x608060405234801561001057600080fd5b506152a3806100206000396000f3fe608060405234801561001057600080fd5b50600436106104ac5760003560e01c80638cc5ce991161026d578063c9e5552911610151578063dc5ba607116100ce578063ef8b30f711610092578063ef8b30f714610911578063f10284c614610acc578063f2fde38b14610ad4578063f4d0fb9914610ae7578063fb45153e14610afa578063fdc149ef14610b0257600080fd5b8063dc5ba60714610a6c578063dd62ed3e14610a90578063de0ce17d14610aa3578063eb65887814610ab1578063eb6ed33014610ac457600080fd5b8063d52d5ee711610115578063d52d5ee714610972578063d864e74014610985578063d8e3496014610999578063d905777e146109a1578063da6d1be9146109b457600080fd5b8063c9e5552914610924578063ce90930714610937578063ce96cb7714610942578063d085529314610955578063d261cfb01461096857600080fd5b8063a5aef6e1116101ea578063b460af94116101ae578063b460af94146108c5578063b5ff6d57146108d8578063ba087652146108eb578063bddae40e146108fe578063c63d75b614610601578063c6e6f5921461091157600080fd5b8063a5aef6e114610866578063a9059cbb14610879578063ac1e50251461088c578063b0eefabe1461089f578063b3d7f6b9146108b257600080fd5b80639d38e5eb116102315780639d38e5eb146107fa5780639da86a2914610808578063a397a63514610838578063a417e00c14610840578063a457c2d71461085357600080fd5b80638cc5ce99146107a75780638da5cb5b146107bb57806394bf804d146107cc57806395d89b41146107df57806399ab34e0146107e757600080fd5b806348723633116103945780636ed93dd0116103115780637864b77d116102d55780637864b77d146107495780637901808b146107515780637b103999146107645780637c9939611461077757806386d192e51461078a5780638bc7e8c41461079d57600080fd5b80636ed93dd0146106e95780636ff1c9bc146106f257806370a0823114610705578063715018a61461072e5780637278410d1461073657600080fd5b80635d475fdd116103585780635d475fdd14610688578063658fc2a61461069b5780636da9a3ec146106c05780636e22558d146106c85780636e553f65146106d657600080fd5b806348723633146106305780634b585a13146106515780634cdad5061461065a578063551bd4171461066d578063596733231461067557600080fd5b8063214621621161042d57806338d52e0f116103f157806338d52e0f146105d457806339509351146105e55780633db1807f146105f8578063402d267d14610601578063436b6c83146106145780634711db1f1461062757600080fd5b8063214621621461058457806323b872dd14610597578063313ce567146105aa57806334dc3c66146105b9578063380e687a146105cc57600080fd5b80630a28a477116104745780630a28a4771461052c5780630fceb7461461053f57806311c2aae31461055f5780631514617e1461057257806318160ddd1461057c57600080fd5b806301e1d114146104b157806304165db1146104cc57806306fdde03146104e157806307a2d13a146104f6578063095ea7b314610509575b600080fd5b6104b9610b0c565b6040519081526020015b60405180910390f35b6104df6104da3660046148c4565b610b7e565b005b6104e9610cf3565b6040516104c39190614901565b6104b96105043660046148c4565b610d85565b61051c610517366004614959565b610d98565b60405190151581526020016104c3565b6104b961053a3660046148c4565b610db0565b610547610dc2565b6040516001600160a01b0390911681526020016104c3565b60fc54610547906001600160a01b031681565b6104b961010e5481565b6035546104b9565b6104df610592366004614985565b610e61565b61051c6105a53660046149a7565b610fb5565b604051601281526020016104c3565b6104b96105c73660046149e8565b610fdb565b6104df611373565b6065546001600160a01b0316610547565b61051c6105f3366004614959565b61147a565b6104b96103e881565b6104b961060f366004614a71565b61149c565b6104df610622366004614a8e565b6114ba565b6104b961232881565b6104b961063e366004614a71565b6101176020526000908152604090205481565b6104b960001981565b6104b96106683660046148c4565b6115ad565b6104b96115b8565b6104df6106833660046148c4565b611621565b6104df6106963660046148c4565b611751565b61011454610115546106ab919082565b604080519283526020830191909152016104c3565b6104b9611881565b6101165461051c9060ff1681565b6104b96106e4366004614aaf565b6118ea565b6104b961271081565b6104b9610700366004614a71565b6118f6565b6104b9610713366004614a71565b6001600160a01b031660009081526033602052604090205490565b6104df61192e565b6104df610744366004614c21565b611942565b6104b9611c35565b6104b961075f366004614d1a565b611c9e565b60fb54610547906001600160a01b031681565b6104df610785366004614a71565b611d1a565b6104df610798366004614d5c565b611e6d565b6104b96101115481565b61010954610547906001600160a01b031681565b6097546001600160a01b0316610547565b6104b96107da366004614aaf565b611eb7565b6104e9611f2a565b6104df6107f5366004614985565b611f39565b6101105461051c9060ff1681565b61010a5461010b5461010c5461081d92919083565b604080519384526020840192909252908201526060016104c3565b6104df6124cf565b6104df61084e366004614d79565b612533565b61051c610861366004614959565b6125f6565b6104df6108743660046148c4565b61267c565b61051c610887366004614959565b61270d565b6104df61089a3660046148c4565b61271b565b6104df6108ad366004614a71565b612807565b6104b96108c03660046148c4565b6128e6565b6104b96108d3366004614d1a565b6128f3565b6104df6108e6366004614dae565b612922565b6104b96108f9366004614d1a565b612a5f565b6104df61090c366004614a71565b612a85565b6104b961091f3660046148c4565b612b50565b6106ab6109323660046148c4565b612b5d565b6104b96305f5e10081565b6104b9610950366004614a71565b612ba6565b6104b9610963366004614d1a565b612bef565b6104b961010d5481565b6104df6109803660046148c4565b612bfc565b61011354610547906001600160a01b031681565b61051c612dfe565b6104b96109af366004614a71565b612eb6565b60fd5460fe5460ff80546101005461010154610102546101035461010454610105546101065461010754610108546109fe9c9b6001600160a01b039081169b99811699941693168c565b604080519c8d526001600160a01b039b8c1660208e01528c019990995296891660608b015260808a019590955260a089019390935260c088019190915260e08701529093166101008501526101208401929092526101408301919091521515610160820152610180016104c3565b61051c610a7a366004614a71565b6101186020526000908152604090205460ff1681565b6104b9610a9e366004614dca565b612efb565b6105476001600160a01b0381565b6104df610abf366004614985565b612f26565b6104b960c881565b6104df612f38565b6104df610ae2366004614a71565b613073565b6106ab610af53660046148c4565b6130ec565b6104b961312e565b6104b961010f5481565b6065546040516370a0823160e01b81523060048201526000916001600160a01b0316906370a0823190602401602060405180830381865afa158015610b55573d6000803e3d6000fd5b505050506040513d601f19601f82011682018060405250810190610b799190614df8565b905090565b610101548190600003610ba457604051631a1437b360e11b815260040160405180910390fd5b60fd548114610bc65760405163068a522b60e31b815260040160405180910390fd5b60fb5460408051638da5cb5b60e01b8152905133926001600160a01b031691638da5cb5b9160048083019260209291908290030181865afa158015610c0f573d6000803e3d6000fd5b505050506040513d601f19601f82011682018060405250810190610c339190614e11565b6001600160a01b031614158015610c565750610105546001600160a01b03163314155b15610c745760405163311f43dd60e11b815260040160405180910390fd5b610106546101015401421115610c9d57604051631e188ee160e31b815260040160405180910390fd5b6101025415610cbf5760405163085c345b60e41b815260040160405180910390fd5b426101025560405182907f18cee768ef1c2d81fe153ce96ec56a038f24630c2a125dc04aa06e7765457b5690600090a25050565b606060368054610d0290614e2e565b80601f0160208091040260200160405190810160405280929190818152602001828054610d2e90614e2e565b8015610d7b5780601f10610d5057610100808354040283529160200191610d7b565b820191906000526020600020905b815481529060010190602001808311610d5e57829003601f168201915b5050505050905090565b6000610d92826000613197565b92915050565b600033610da681858561325d565b5060019392505050565b6000610dbb82612b5d565b5092915050565b61011b546000906001600160a01b0390811614610dea575061011b546001600160a01b031690565b60fb60009054906101000a90046001600160a01b03166001600160a01b031663db0f267b6040518163ffffffff1660e01b8152600401602060405180830381865afa158015610e3d573d6000803e3d6000fd5b505050506040513d601f19601f82011682018060405250810190610b799190614e11565b60fb5460408051638da5cb5b60e01b8152905133926001600160a01b031691638da5cb5b9160048083019260209291908290030181865afa158015610eaa573d6000803e3d6000fd5b505050506040513d601f19601f82011682018060405250810190610ece9190614e11565b6001600160a01b031614610ef55760405163d61d1ac760e01b815260040160405180910390fd5b61011982905561011a81905560fb546001600160a01b03166370cb13b5610f1a6115b8565b610f2261312e565b6040516001600160e01b031960e085901b1681526004810192909252602482015260440160006040518083038186803b158015610f5e57600080fd5b505afa158015610f72573d6000803e3d6000fd5b505060408051858152602081018590527fb76a01d39e1cd92db69e1fba6bbfdb5d5eaf198958bee0826162c3283ff7884893500190505b60405180910390a15050565b600033610fc3858285613381565b610fce8585856133fb565b60019150505b9392505050565b610113546000906001600160a01b031633146110095760405162d02c1d60e11b815260040160405180910390fd5b610101541561102b5760405163c50c0f9960e01b815260040160405180910390fd5b60fb60009054906101000a90046001600160a01b03166001600160a01b031663290d10c46040518163ffffffff1660e01b8152600401602060405180830381865afa15801561107e573d6000803e3d6000fd5b505050506040513d601f19601f820116820180604052508101906110a29190614e68565b156110c057604051635ed0818960e01b815260040160405180910390fd5b60fb5460408051632cc85f9760e01b815290516000926001600160a01b031691632cc85f97916004808301926101009291908290030181865afa15801561110b573d6000803e3d6000fd5b505050506040513d601f19601f8201168201806040525081019061112f9190614e85565b60408101516060820151919250908101428161114d5761114d614f15565b06101561116d5760405163b71c745b60e01b815260040160405180910390fd5b61010d548511156111915760405163c83039db60e01b815260040160405180910390fd5b30610112600081546111a290614f41565b918290555060405160609290921b6bffffffffffffffffffffffff191660208301526034820152605401604051602081830303815290604052805190602001209150604051806101800160405280838152602001876001600160a01b03168152602001868152602001336001600160a01b031681526020014281526020016000815260200161122f6115b8565b815260200161123c61312e565b8152602001611249610dc2565b6001600160a01b0316815260200161125f611c35565b815260200161126c611881565b8152602001611279612dfe565b15159052805160fd55602081015160fe80546001600160a01b03199081166001600160a01b039384161790915560408084015160ff5560608401516101008054841691851691909117815560808501516101015560a08501516101025560c08501516101035560e085015161010455840151610105805490931690841617909155610120830151610106556101408301516101075561016090920151610108805460ff1916911515919091179055905190871690339084907f74bacf5e8961b0e45e6d22a66fcc3de56c31e095386e2fd8dc43fde5c94bf79090611362908a908a908a90614f5a565b60405180910390a450949350505050565b600260c9540361139e5760405162461bcd60e51b815260040161139590614f90565b60405180910390fd5b600260c95560fb5460408051632cc85f9760e01b815290516000926001600160a01b031691632cc85f97916004808301926101009291908290030181865afa1580156113ee573d6000803e3d6000fd5b505050506040513d601f19601f820116820180604052508101906114129190614e85565b90508060a00151426114249190614fc7565b3360008181526101176020526040908190208390555190917f17040713250ec5f668a1c39e7939900e78558350dbaff0ebef34268dfa8ea4ac9161146a91815260200190565b60405180910390a250600160c955565b600033610da681858561148d8383612efb565b6114979190614fc7565b61325d565b6101165460009060ff166114b257600019610d92565b600092915050565b60fb5460408051638da5cb5b60e01b8152905133926001600160a01b031691638da5cb5b9160048083019260209291908290030181865afa158015611503573d6000803e3d6000fd5b505050506040513d601f19601f820116820180604052508101906115279190614e11565b6001600160a01b03161461154e5760405163d61d1ac760e01b815260040160405180910390fd5b61011e805482919060ff1916600183600281111561156e5761156e614fda565b02179055507fd7cb2841948eb09bee01cc782c1897111c723fd1c27026b478a73e6236f5601b816040516115a2919061500e565b60405180910390a150565b6000610dbb826130ec565b600060001961011954146115ce57506101195490565b60fb60009054906101000a90046001600160a01b03166001600160a01b031663544920786040518163ffffffff1660e01b8152600401602060405180830381865afa158015610b55573d6000803e3d6000fd5b60fb5460408051638da5cb5b60e01b8152905133926001600160a01b031691638da5cb5b9160048083019260209291908290030181865afa15801561166a573d6000803e3d6000fd5b505050506040513d601f19601f8201168201806040525081019061168e9190614e11565b6001600160a01b0316146116b55760405163d61d1ac760e01b815260040160405180910390fd5b600019811461171b5760fb54604051632ac60b7d60e01b8152600481018390526001600160a01b0390911690632ac60b7d9060240160006040518083038186803b15801561170257600080fd5b505afa158015611716573d6000803e3d6000fd5b505050505b61011d8190556040518181527f6e25891c35494d6a8dfde4ac9fd75a3c140431624a4af477a084736b09ed7afe906020016115a2565b60fb5460408051638da5cb5b60e01b8152905133926001600160a01b031691638da5cb5b9160048083019260209291908290030181865afa15801561179a573d6000803e3d6000fd5b505050506040513d601f19601f820116820180604052508101906117be9190614e11565b6001600160a01b0316146117e55760405163d61d1ac760e01b815260040160405180910390fd5b600019811461184b5760fb54604051633afde0c360e21b8152600481018390526001600160a01b039091169063ebf7830c9060240160006040518083038186803b15801561183257600080fd5b505afa158015611846573d6000803e3d6000fd5b505050505b61011c8190556040518181527f5024621f2175cab0e0a5ebc174679f1b57839cff38355e8b20ad16ef4ddb656b906020016115a2565b600060001961011d5414611897575061011d5490565b60fb60009054906101000a90046001600160a01b03166001600160a01b031663f51a90e46040518163ffffffff1660e01b8152600401602060405180830381865afa158015610b55573d6000803e3d6000fd5b6000610fd483836135d4565b61011e805461ff001916610100179055600061191c6119156107133390565b8333612a5f565b61011e805461ff001916905592915050565b611936613647565b61194060006136a1565b565b600054610100900460ff16158080156119625750600054600160ff909116105b8061197c5750303b15801561197c575060005460ff166001145b6119df5760405162461bcd60e51b815260206004820152602e60248201527f496e697469616c697a61626c653a20636f6e747261637420697320616c72656160448201526d191e481a5b9a5d1a585b1a5e995960921b6064820152608401611395565b6000805460ff191660011790558015611a02576000805461ff0019166101001790555b61232882606001511115611a2957604051633dfa47cb60e01b815260040160405180910390fd5b611a3682608001516136f3565b611a438260a0015161375f565b815161010980546001600160a01b0319166001600160a01b0390921691909117905560208201516040830151611a79919061378f565b606082015161010d556080820151805161010a55602081015161010b556040015161010c5560e082015161011380546001600160a01b03199081166001600160a01b03909316929092179055610100830151610116805460ff191691151591909117905560fb805433921682179055611af0613837565b611afd8360c001516136a1565b806001600160a01b03166311c2aae36040518163ffffffff1660e01b8152600401602060405180830381865afa158015611b3b573d6000803e3d6000fd5b505050506040513d601f19601f82011682018060405250810190611b5f9190614e11565b60fc80546001600160a01b03199081166001600160a01b039384161790915561011b8054909116909117905560001961011981905561011a81905561011e805460ff1916600217905561011c81905561011d556101208301516040517ff4c65ddb6aed78463fc27d79ccd85368bb0ecd80bd763b891a8b64ef41ac750b91611be691614901565b60405180910390a1508015611c31576000805461ff0019169055604051600181527f7f26b83ff96e1f2b6a682f133852f6798a09c465da95921460cefb384740249890602001610fa9565b5050565b600060001961011c5414611c4b575061011c5490565b60fb60009054906101000a90046001600160a01b03166001600160a01b03166311566d746040518163ffffffff1660e01b8152600401602060405180830381865afa158015610b55573d6000803e3d6000fd5b6000611cab848484612a5f565b610109546040516324a9e3c160e11b81523060048201526001600160a01b038581166024830152929350911690634953c78290604401600060405180830381600087803b158015611cfb57600080fd5b505af1158015611d0f573d6000803e3d6000fd5b505050509392505050565b60fb5460408051638da5cb5b60e01b8152905133926001600160a01b031691638da5cb5b9160048083019260209291908290030181865afa158015611d63573d6000803e3d6000fd5b505050506040513d601f19601f82011682018060405250810190611d879190614e11565b6001600160a01b031614611dae5760405163d61d1ac760e01b815260040160405180910390fd5b6101015415611dd05760405163c50c0f9960e01b815260040160405180910390fd5b610109546001600160a01b0390811660009081526101186020526040808220805460ff191660011790559183168152205460ff1615611e22576040516351254c1360e01b815260040160405180910390fd5b61010980546001600160a01b0319166001600160a01b0383169081179091556040517f06369d9752ae054ed57067b8fc5085615cbae5c52f23cfa482225d4c85cf157790600090a250565b611e75613647565b610116805460ff19168215159081179091556040519081527f0653e29fcca730c396a6099e174293ae6bd435437a5de4f8c461f7b5dc9e58f2906020016115a2565b6000611ec28261149c565b831115611f115760405162461bcd60e51b815260206004820152601b60248201527f455243343632363a206d696e74206d6f7265207468616e206d617800000000006044820152606401611395565b6000611f1c846128e6565b9050610fd433848387613866565b606060378054610d0290614e2e565b600260c95403611f5b5760405162461bcd60e51b815260040161139590614f90565b600260c955610101548290600003611f8657604051631a1437b360e11b815260040160405180910390fd5b60fd548114611fa85760405163068a522b60e31b815260040160405180910390fd5b600060fd60405180610180016040529081600082015481526020016001820160009054906101000a90046001600160a01b03166001600160a01b03166001600160a01b03168152602001600282015481526020016003820160009054906101000a90046001600160a01b03166001600160a01b03166001600160a01b03168152602001600482015481526020016005820154815260200160068201548152602001600782015481526020016008820160009054906101000a90046001600160a01b03166001600160a01b03166001600160a01b0316815260200160098201548152602001600a8201548152602001600b820160009054906101000a900460ff161515151581525050905060fd6000808201600090556001820160006101000a8154906001600160a01b03021916905560028201600090556003820160006101000a8154906001600160a01b03021916905560048201600090556005820160009055600682016000905560078201600090556008820160006101000a8154906001600160a01b0302191690556009820160009055600a820160009055600b820160006101000a81549060ff0219169055505080610140015181610120015182608001510101421061218b576040516341524ecf60e11b815260040160405180910390fd5b60a0810151156121fb578061010001516001600160a01b0316336001600160a01b03161415806121c557508061014001518160a001510142115b156121e3576040516315421c8960e01b815260040160405180910390fd5b806101600151156121f657604081018390525b612226565b806101200151816080015101421161222657604051631caf6c9560e21b815260040160405180910390fd5b60008061224083604001518460c001518560e00151613921565b905060006122566065546001600160a01b031690565b60208301519091501561232f5760fc546020808601519084015161010e546001600160a01b039093169263e95cd05192859260009242906122979082614fc7565b61010f54600080600260006040518c63ffffffff1660e01b81526004016122c89b9a99989796959493929190615021565b6020604051808303816000875af11580156122e7573d6000803e3d6000fd5b505050506040513d601f19601f8201168201806040525081019061230b9190614e11565b925061232f838360200151836001600160a01b0316613a9e9092919063ffffffff16565b6020840151825161234a916001600160a01b03841691613a9e565b60608401516040830151612368916001600160a01b03841691613a9e565b60fb546080830151606084015161239d926001600160a01b03169161238c91614fc7565b6001600160a01b0384169190613b06565b60fb54602085015160608401516080850151604051635dd1141560e01b81526001600160a01b038681166004830152938416602482015260448101929092526064820152911690635dd1141590608401600060405180830381600087803b15801561240757600080fd5b505af115801561241b573d6000803e3d6000fd5b505060fb5461243a92506001600160a01b038481169250166000613b06565b60208085015160408087015181519081526001600160a01b038781168286015286518284015293860151606080830191909152918601516080808301919091529186015160a08201529085015160c0820152911690339089907f4b22b0551b79e42d81d17d0700b5c56d1795c55d10922476f69ada51e794a5e99060e0015b60405180910390a45050600160c9555050505050565b610113546001600160a01b031633146124fa5760405162d02c1d60e11b815260040160405180910390fd5b610110805460ff191660011790556040517fda94dc4b788057a35879928f9ba97261fdb3a4371ba4aa7a1e7e34fae93b492190600090a1565b60fb5460408051638da5cb5b60e01b8152905133926001600160a01b031691638da5cb5b9160048083019260209291908290030181865afa15801561257c573d6000803e3d6000fd5b505050506040513d601f19601f820116820180604052508101906125a09190614e11565b6001600160a01b0316146125c75760405163d61d1ac760e01b815260040160405180910390fd5b7ff4c65ddb6aed78463fc27d79ccd85368bb0ecd80bd763b891a8b64ef41ac750b816040516115a29190614901565b600033816126048286612efb565b9050838110156126645760405162461bcd60e51b815260206004820152602560248201527f45524332303a2064656372656173656420616c6c6f77616e63652062656c6f77604482015264207a65726f60d81b6064820152608401611395565b612671828686840361325d565b506001949350505050565b612684613647565b61010154156126a65760405163c50c0f9960e01b815260040160405180910390fd5b6123288111156126c957604051633dfa47cb60e01b815260040160405180910390fd5b610114819055426101158190556040805183815260208101929092527f74e20f0cc669cb4ec8e83d6520717edb871c01698635816747e7f76eeaa217ed91016115a2565b600033610da68185856133fb565b60fb54604080516321f3cfbd60e21b8152905133926001600160a01b0316916387cf3ef49160048083019260209291908290030181865afa158015612764573d6000803e3d6000fd5b505050506040513d601f19601f820116820180604052508101906127889190614e11565b6001600160a01b0316146127af57604051637155bb1960e01b815260040160405180910390fd5b60c88111156127d1576040516369b91bc760e01b815260040160405180910390fd5b6101118190556040518181527f3aa4413905e8f015896ec5880bdde24088ccb19b578f9fcf6800354d5320d4af906020016115a2565b60fb5460408051638da5cb5b60e01b8152905133926001600160a01b031691638da5cb5b9160048083019260209291908290030181865afa158015612850573d6000803e3d6000fd5b505050506040513d601f19601f820116820180604052508101906128749190614e11565b6001600160a01b03161461289b5760405163d61d1ac760e01b815260040160405180910390fd5b61011b80546001600160a01b0319166001600160a01b0383169081179091556040517f53910d8ecf7b5b828433963dea4325f13b37cbdbfd212f83cb73ec179a60e12190600090a250565b6000610d92826001613197565b600080600061290186612b5d565b9150915061291961290f3390565b8686898686613c1b565b50949350505050565b61292a613647565b610101541561294c5760405163c50c0f9960e01b815260040160405180910390fd5b60fb5460408051632cc85f9760e01b815290516000926001600160a01b031691632cc85f97916004808301926101009291908290030181865afa158015612997573d6000803e3d6000fd5b505050506040513d601f19601f820116820180604052508101906129bb9190614e85565b60408101516060820151919250906129d39082614fc7565b6129dd9042615096565b106129fb57604051635a1c393760e11b815260040160405180910390fd5b612a04826136f3565b815161010a8190556020808401805161010b556040808601805161010c55815194855291519284019290925251908201527fce6cd6536e3935e94142325538fe79a5a027df1ea426892bdc1b424a7b09cce990606001610fa9565b6000806000612a6d866130ec565b91509150612919612a7b3390565b8686858a86613c1b565b6097546001600160a01b031633148015612aab5750610113546001600160a01b03163314155b15612ada576101105460ff1615612ad557604051633b343aa560e01b815260040160405180910390fd5b612b05565b610113546001600160a01b03163314612b055760405162d02c1d60e11b815260040160405180910390fd5b61011380546001600160a01b0319166001600160a01b0383169081179091556040517f22a3400c609e52ea781540daed872a0ff7b79a428f634be082c24c2faf06846390600090a250565b6000610d92826000613d9a565b60008061011154612710612b7191906150aa565b61011154612b7f90856150bd565b612b8991906150dc565b9050612b9f612b988285614fc7565b6001613d9a565b9150915091565b61010154600090151580612bc05750612bbe82613e49565b155b15612bcd57506000919050565b610d92610668836001600160a01b031660009081526033602052604090205490565b6000611cab8484846128f3565b610101548190600003612c2257604051631a1437b360e11b815260040160405180910390fd5b60fd548114612c445760405163068a522b60e31b815260040160405180910390fd5b604080516101808101825260fd54815260fe546001600160a01b03908116602083015260ff80549383019390935261010080548216606084015261010154608084018190526101025460a08501526101035460c08501526101045460e08501526101055490921690830152610106546101208301819052610107546101408401819052610108549094161515610160840152919291612ce291614fc7565b612cec9190614fc7565b421015612d70578060a00151600003612d18576040516332c7ab4360e01b815260040160405180910390fd5b8061014001518160a00151612d2d9190614fc7565b42108015612d5257508061010001516001600160a01b0316336001600160a01b031614155b15612d7057604051635f2d8d8360e01b815260040160405180910390fd5b600060fd81905560fe80546001600160a01b031990811690915560ff82905561010080548216905561010182905561010282905561010382905561010482905561010580549091169055610106819055610107819055610108805460ff1916905560405184917f940c35077c5ad047271f088696e713b44c4776cc8fa7665b0e81a421c91ec12991a2505050565b6000600261011e5460ff166002811115612e1a57612e1a614fda565b14612e3f57600161011e5460ff166002811115612e3957612e39614fda565b14905090565b60fb60009054906101000a90046001600160a01b03166001600160a01b031663116dbc936040518163ffffffff1660e01b8152600401602060405180830381865afa158015612e92573d6000803e3d6000fd5b505050506040513d601f19601f82011682018060405250810190610b799190614e68565b61010154600090151580612ed05750612ece82613e49565b155b15612edd57506000919050565b6001600160a01b038216600090815260336020526040902054610d92565b6001600160a01b03918216600090815260346020908152604080832093909416825291909152205490565b612f2e613647565b611c31828261378f565b612f40613647565b6101015415612f625760405163c50c0f9960e01b815260040160405180910390fd5b61011554600003612f8657604051630dc8342d60e31b815260040160405180910390fd5b60fb5460408051632cc85f9760e01b815290516000926001600160a01b031691632cc85f97916004808301926101009291908290030181865afa158015612fd1573d6000803e3d6000fd5b505050506040513d601f19601f82011682018060405250810190612ff59190614e85565b60c0810151610115549192509061300c90426150aa565b101561302b57604051632f99d23360e11b815260040160405180910390fd5b610114805461010d819055600091829055610115919091556040519081527ff3d8fc64f1ce0c8c9c7d0514708b8596de220e81860a8ceaf7c10737dcc3135a906020016115a2565b61307b613647565b6001600160a01b0381166130e05760405162461bcd60e51b815260206004820152602660248201527f4f776e61626c653a206e6577206f776e657220697320746865207a65726f206160448201526564647265737360d01b6064820152608401611395565b6130e9816136a1565b50565b60008060006130fc846000613197565b9050612710610111548261311091906150bd565b61311a91906150dc565b915061312682826150aa565b925050915091565b600060001961011a5414613144575061011a5490565b60fb60009054906101000a90046001600160a01b03166001600160a01b031663120c1a7e6040518163ffffffff1660e01b8152600401602060405180830381865afa158015610b55573d6000803e3d6000fd5b6000806131a360355490565b905080156131c4576131bf6131b6610b0c565b85908386613f4a565b613255565b6065546040805163313ce56760e01b81529051613255926001600160a01b03169163313ce5679160048083019260209291908290030181865afa15801561320f573d6000803e3d6000fd5b505050506040513d601f19601f8201168201806040525081019061323391906150f0565b61323e90600a6151f7565b60125b61324c90600a6151f7565b86919086613f4a565b949350505050565b6001600160a01b0383166132bf5760405162461bcd60e51b8152602060048201526024808201527f45524332303a20617070726f76652066726f6d20746865207a65726f206164646044820152637265737360e01b6064820152608401611395565b6001600160a01b0382166133205760405162461bcd60e51b815260206004820152602260248201527f45524332303a20617070726f766520746f20746865207a65726f206164647265604482015261737360f01b6064820152608401611395565b6001600160a01b0383811660008181526034602090815260408083209487168084529482529182902085905590518481527f8c5be1e5ebec7d5bd14f71427d1e84f3dd0314c0f7b2291e5b200ac8c7c3b925910160405180910390a3505050565b600061338d8484612efb565b905060001981146133f557818110156133e85760405162461bcd60e51b815260206004820152601d60248201527f45524332303a20696e73756666696369656e7420616c6c6f77616e63650000006044820152606401611395565b6133f5848484840361325d565b50505050565b6001600160a01b03831661345f5760405162461bcd60e51b815260206004820152602560248201527f45524332303a207472616e736665722066726f6d20746865207a65726f206164604482015264647265737360d81b6064820152608401611395565b6001600160a01b0382166134c15760405162461bcd60e51b815260206004820152602360248201527f45524332303a207472616e7366657220746f20746865207a65726f206164647260448201526265737360e81b6064820152608401611395565b6134cc838383613fa7565b6001600160a01b038316600090815260336020526040902054818110156135445760405162461bcd60e51b815260206004820152602660248201527f45524332303a207472616e7366657220616d6f756e7420657863656564732062604482015265616c616e636560d01b6064820152608401611395565b6001600160a01b0380851660009081526033602052604080822085850390559185168152908120805484929061357b908490614fc7565b92505081905550826001600160a01b0316846001600160a01b03167fddf252ad1be2c89b69c2b068fc378daa952ba7f163c4a11628f55a4df523b3ef846040516135c791815260200190565b60405180910390a36133f5565b60006135df8261149c565b83111561362e5760405162461bcd60e51b815260206004820152601e60248201527f455243343632363a206465706f736974206d6f7265207468616e206d617800006044820152606401611395565b600061363984612b50565b9050610fd433848684613866565b6097546001600160a01b031633146119405760405162461bcd60e51b815260206004820181905260248201527f4f776e61626c653a2063616c6c6572206973206e6f7420746865206f776e65726044820152606401611395565b609780546001600160a01b038381166001600160a01b0319831681179093556040519116919082907f8be0079c531659141344cd1fd0a4f28419497f9722a3daafe3b4186f6b6457e090600090a35050565b6103e88160400151111561371d5760405160016235400b60e01b0319815260040160405180910390fd5b604081015160208201518251612710929161373791614fc7565b6137419190614fc7565b146130e95760405163c7a89fed60e01b815260040160405180910390fd5b600054610100900460ff166137865760405162461bcd60e51b815260040161139590615206565b6130e9816142bd565b629e34008211156137b3576040516335e1b26b60e21b815260040160405180910390fd5b806000036137d457604051631f55114360e01b815260040160405180910390fd5b808210156137f557604051635c15b0b960e01b815260040160405180910390fd5b61010e82905561010f81905560408051838152602081018390527f509e2b99f648e75d75a54861aa7c1d4c011b4f62cb29c9f065712732e91f965c9101610fa9565b600054610100900460ff1661385e5760405162461bcd60e51b815260040161139590615206565b611940614306565b600260c954036138885760405162461bcd60e51b815260040161139590614f90565b600260c9556101105460ff166138b1576040516364197ab960e11b815260040160405180910390fd5b6001600160a01b03831660009081526101176020526040902054158015906138ea5750836001600160a01b0316836001600160a01b0316145b1561390a576001600160a01b038316600090815261011760205260408120555b61391684848484614334565b5050600160c9555050565b6139536040518060a0016040528060008152602001600081526020016000815260200160008152602001600081525090565b600061395d610b0c565b90508060000361396d5750610fd4565b61010d548511156139915760405163c83039db60e01b815260040160405180910390fd5b600061399d86836150bd565b905060006305f5e1006139b087846150bd565b6139ba91906150dc565b905060006305f5e1006139cd87856150bd565b6139d791906150dc565b90506127106139e68284614fc7565b6139f091906150bd565b6139fa90846150aa565b608086018390526060860182905261010a549093506000906305f5e10090613a2290866150bd565b613a2c91906150dc565b905060006305f5e10061010a6001015486613a4791906150bd565b613a5191906150dc565b9050612710613a608284614fc7565b613a6a91906150bd565b613a7490866150aa565b602088018390528188529450613a8c612710866150dc565b60408801525050505050509392505050565b6040516001600160a01b038316602482015260448101829052613b0190849063a9059cbb60e01b906064015b60408051601f198184030181529190526020810180516001600160e01b03166001600160e01b0319909316929092179091526143b2565b505050565b801580613b805750604051636eb1769f60e11b81523060048201526001600160a01b03838116602483015284169063dd62ed3e90604401602060405180830381865afa158015613b5a573d6000803e3d6000fd5b505050506040513d601f19601f82011682018060405250810190613b7e9190614df8565b155b613beb5760405162461bcd60e51b815260206004820152603660248201527f5361666545524332303a20617070726f76652066726f6d206e6f6e2d7a65726f60448201527520746f206e6f6e2d7a65726f20616c6c6f77616e636560501b6064820152608401611395565b6040516001600160a01b038316602482015260448101829052613b0190849063095ea7b360e01b90606401613aca565b600260c95403613c3d5760405162461bcd60e51b815260040161139590614f90565b600260c9556000839003613c6457604051630fbf08cb60e21b815260040160405180910390fd5b836001600160a01b0316866001600160a01b031614613c8857613c88848784613381565b613c928483614484565b6000613ca66065546001600160a01b031690565b90508115613d2e5760fb5460408051638da5cb5b60e01b81529051613d2e926001600160a01b031691638da5cb5b9160048083019260209291908290030181865afa158015613cf9573d6000803e3d6000fd5b505050506040513d601f19601f82011682018060405250810190613d1d9190614e11565b6001600160a01b0383169084613a9e565b613d426001600160a01b0382168786613a9e565b846001600160a01b0316866001600160a01b0316886001600160a01b03167ffbde797d201c681b91056529119e0b02407c7bb96a4a2c75c01fc9667232c8db87876040516124b9929190918252602082015260400190565b600080613da660355490565b9050831580613db3575080155b613dc3576131bf8161324c610b0c565b613255613dd26012600a6151f7565b606560009054906101000a90046001600160a01b03166001600160a01b031663313ce5676040518163ffffffff1660e01b8152600401602060405180830381865afa158015613e25573d6000803e3d6000fd5b505050506040513d601f19601f8201168201806040525081019061324191906150f0565b60008060fb60009054906101000a90046001600160a01b03166001600160a01b0316632cc85f976040518163ffffffff1660e01b815260040161010060405180830381865afa158015613ea0573d6000803e3d6000fd5b505050506040513d601f19601f82011682018060405250810190613ec49190614e85565b6040810151606082015191925090613edc9082614fc7565b613ee69042615096565b10613ef45750600092915050565b6001600160a01b038316600090815261011760205260409020544210801590610fd4575060808101516001600160a01b03841660009081526101176020526040902054613f419190614fc7565b42109392505050565b600080613f588686866145de565b90506001836002811115613f6e57613f6e614fda565b148015613f8b575060008480613f8657613f86614f15565b868809115b15613f9e57613f9b600182614fc7565b90505b95945050505050565b80600003613fc85760405163d11b25af60e01b815260040160405180910390fd5b816001600160a01b0316836001600160a01b031603613ffa57604051636d6c4ee560e11b815260040160405180910390fd5b6001600160a01b038216156141e85760fb60009054906101000a90046001600160a01b03166001600160a01b031663290d10c46040518163ffffffff1660e01b8152600401602060405180830381865afa15801561405c573d6000803e3d6000fd5b505050506040513d601f19601f820116820180604052508101906140809190614e68565b1561409e57604051635ed0818960e01b815260040160405180910390fd5b6001600160a01b03821660009081526101176020526040902054156141795760fb5460408051632cc85f9760e01b815290516000926001600160a01b031691632cc85f97916004808301926101009291908290030181865afa158015614108573d6000803e3d6000fd5b505050506040513d601f19601f8201168201806040525081019061412c9190614e85565b60808101516001600160a01b0385166000908152610117602052604090205491925061415791614fc7565b4210156141775760405163144229c360e01b815260040160405180910390fd5b505b610109546040516344d18cd960e01b81526001600160a01b0384811660048301526024820184905260016044830152909116906344d18cd990606401600060405180830381600087803b1580156141cf57600080fd5b505af11580156141e3573d6000803e3d6000fd5b505050505b6001600160a01b03831615613b015761420083612eb6565b8111156142205760405163232b212d60e11b815260040160405180910390fd5b6001600160a01b0383166000908152610117602052604081205561011e54610100900460ff16613b0157610109546040516344d18cd960e01b81526001600160a01b0385811660048301526024820184905260006044830152909116906344d18cd990606401600060405180830381600087803b1580156142a057600080fd5b505af11580156142b4573d6000803e3d6000fd5b50505050505050565b600054610100900460ff166142e45760405162461bcd60e51b815260040161139590615206565b606580546001600160a01b0319166001600160a01b0392909216919091179055565b600054610100900460ff1661432d5760405162461bcd60e51b815260040161139590615206565b600160c955565b60655461434c906001600160a01b031685308561468d565b61435683826146c5565b826001600160a01b0316846001600160a01b03167fdcbc1c05240f31ff3ad067ef1ee35ce4997762752e3a095284754544f4c709d784846040516143a4929190918252602082015260400190565b60405180910390a350505050565b6000614407826040518060400160405280602081526020017f5361666545524332303a206c6f772d6c6576656c2063616c6c206661696c6564815250856001600160a01b03166147b09092919063ffffffff16565b805190915015613b0157808060200190518101906144259190614e68565b613b015760405162461bcd60e51b815260206004820152602a60248201527f5361666545524332303a204552433230206f7065726174696f6e20646964206e6044820152691bdd081cdd58d8d9595960b21b6064820152608401611395565b6001600160a01b0382166144e45760405162461bcd60e51b815260206004820152602160248201527f45524332303a206275726e2066726f6d20746865207a65726f206164647265736044820152607360f81b6064820152608401611395565b6144f082600083613fa7565b6001600160a01b038216600090815260336020526040902054818110156145645760405162461bcd60e51b815260206004820152602260248201527f45524332303a206275726e20616d6f756e7420657863656564732062616c616e604482015261636560f01b6064820152608401611395565b6001600160a01b03831660009081526033602052604081208383039055603580548492906145939084906150aa565b90915550506040518281526000906001600160a01b038516907fddf252ad1be2c89b69c2b068fc378daa952ba7f163c4a11628f55a4df523b3ef9060200160405180910390a3505050565b60008080600019858709858702925082811083820303915050806000036146185783828161460e5761460e614f15565b0492505050610fd4565b80841161462457600080fd5b60008486880960026001871981018816978890046003810283188082028403028082028403028082028403028082028403028082028403029081029092039091026000889003889004909101858311909403939093029303949094049190911702949350505050565b6040516001600160a01b03808516602483015283166044820152606481018290526133f59085906323b872dd60e01b90608401613aca565b6001600160a01b03821661471b5760405162461bcd60e51b815260206004820152601f60248201527f45524332303a206d696e7420746f20746865207a65726f2061646472657373006044820152606401611395565b61472760008383613fa7565b80603560008282546147399190614fc7565b90915550506001600160a01b03821660009081526033602052604081208054839290614766908490614fc7565b90915550506040518181526001600160a01b038316906000907fddf252ad1be2c89b69c2b068fc378daa952ba7f163c4a11628f55a4df523b3ef9060200160405180910390a35050565b60606132558484600085856001600160a01b0385163b6148125760405162461bcd60e51b815260206004820152601d60248201527f416464726573733a2063616c6c20746f206e6f6e2d636f6e74726163740000006044820152606401611395565b600080866001600160a01b0316858760405161482e9190615251565b60006040518083038185875af1925050503d806000811461486b576040519150601f19603f3d011682016040523d82523d6000602084013e614870565b606091505b509150915061488082828661488b565b979650505050505050565b6060831561489a575081610fd4565b8251156148aa5782518084602001fd5b8160405162461bcd60e51b81526004016113959190614901565b6000602082840312156148d657600080fd5b5035919050565b60005b838110156148f85781810151838201526020016148e0565b50506000910152565b60208152600082518060208401526149208160408501602087016148dd565b601f01601f19169190910160400192915050565b6001600160a01b03811681146130e957600080fd5b803561495481614934565b919050565b6000806040838503121561496c57600080fd5b823561497781614934565b946020939093013593505050565b6000806040838503121561499857600080fd5b50508035926020909101359150565b6000806000606084860312156149bc57600080fd5b83356149c781614934565b925060208401356149d781614934565b929592945050506040919091013590565b600080600080606085870312156149fe57600080fd5b8435614a0981614934565b935060208501359250604085013567ffffffffffffffff80821115614a2d57600080fd5b818701915087601f830112614a4157600080fd5b813581811115614a5057600080fd5b886020828501011115614a6257600080fd5b95989497505060200194505050565b600060208284031215614a8357600080fd5b8135610fd481614934565b600060208284031215614aa057600080fd5b813560038110610fd457600080fd5b60008060408385031215614ac257600080fd5b823591506020830135614ad481614934565b809150509250929050565b634e487b7160e01b600052604160045260246000fd5b604051610140810167ffffffffffffffff81118282101715614b1957614b19614adf565b60405290565b600060608284031215614b3157600080fd5b6040516060810181811067ffffffffffffffff82111715614b5457614b54614adf565b80604052508091508235815260208301356020820152604083013560408201525092915050565b80151581146130e957600080fd5b803561495481614b7b565b600082601f830112614ba557600080fd5b813567ffffffffffffffff80821115614bc057614bc0614adf565b604051601f8301601f19908116603f01168101908282118183101715614be857614be8614adf565b81604052838152866020858801011115614c0157600080fd5b836020870160208301376000602085830101528094505050505092915050565b600060208284031215614c3357600080fd5b813567ffffffffffffffff80821115614c4b57600080fd5b908301906101808286031215614c6057600080fd5b614c68614af5565b614c7183614949565b8152602083013560208201526040830135604082015260608301356060820152614c9e8660808501614b1f565b6080820152614caf60e08401614949565b60a0820152610100614cc2818501614949565b60c0830152610120614cd5818601614949565b60e0840152614ce76101408601614b89565b82840152610160850135915083821115614d0057600080fd5b614d0c88838701614b94565b908301525095945050505050565b600080600060608486031215614d2f57600080fd5b833592506020840135614d4181614934565b91506040840135614d5181614934565b809150509250925092565b600060208284031215614d6e57600080fd5b8135610fd481614b7b565b600060208284031215614d8b57600080fd5b813567ffffffffffffffff811115614da257600080fd5b61325584828501614b94565b600060608284031215614dc057600080fd5b610fd48383614b1f565b60008060408385031215614ddd57600080fd5b8235614de881614934565b91506020830135614ad481614934565b600060208284031215614e0a57600080fd5b5051919050565b600060208284031215614e2357600080fd5b8151610fd481614934565b600181811c90821680614e4257607f821691505b602082108103614e6257634e487b7160e01b600052602260045260246000fd5b50919050565b600060208284031215614e7a57600080fd5b8151610fd481614b7b565b6000610100808385031215614e9957600080fd5b6040519081019067ffffffffffffffff82118183101715614ebc57614ebc614adf565b81604052835181526020840151602082015260408401516040820152606084015160608201526080840151608082015260a084015160a082015260c084015160c082015260e084015160e0820152809250505092915050565b634e487b7160e01b600052601260045260246000fd5b634e487b7160e01b600052601160045260246000fd5b600060018201614f5357614f53614f2b565b5060010190565b83815260406020820152816040820152818360608301376000818301606090810191909152601f909201601f1916010192915050565b6020808252601f908201527f5265656e7472616e637947756172643a207265656e7472616e742063616c6c00604082015260600190565b80820180821115610d9257610d92614f2b565b634e487b7160e01b600052602160045260246000fd5b600381106130e957634e487b7160e01b600052602160045260246000fd5b6020810161501b83614ff0565b91905290565b6001600160a01b038c811682528b811660208301528a166040820152606081018990526080810188905260a0810187905260c0810186905260e081018590526101008101849052610160810161507684614ff0565b836101208301528215156101408301529c9b505050505050505050505050565b6000826150a5576150a5614f15565b500690565b81810381811115610d9257610d92614f2b565b60008160001904831182151516156150d7576150d7614f2b565b500290565b6000826150eb576150eb614f15565b500490565b60006020828403121561510257600080fd5b815160ff81168114610fd457600080fd5b600181815b8085111561514e57816000190482111561513457615134614f2b565b8085161561514157918102915b93841c9390800290615118565b509250929050565b60008261516557506001610d92565b8161517257506000610d92565b81600181146151885760028114615192576151ae565b6001915050610d92565b60ff8411156151a3576151a3614f2b565b50506001821b610d92565b5060208310610133831016604e8410600b84101617156151d1575081810a610d92565b6151db8383615113565b80600019048211156151ef576151ef614f2b565b029392505050565b6000610fd460ff841683615156565b6020808252602b908201527f496e697469616c697a61626c653a20636f6e7472616374206973206e6f74206960408201526a6e697469616c697a696e6760a81b606082015260800190565b600082516152638184602087016148dd565b919091019291505056fea264697066735822122044fd6ad64f56e0cc71b4accc31b848aefc6fd37d667402b77d39af93d501cecf64736f6c63430008100033",
    "linkReferences": {}
  },
  "methodIdentifiers": {
    "HUNDRED_PERCENT()": "6ed93dd0",
    "HUNDRED_PERCENT_SQRD()": "ce909307",
    "MAX_BOUNTY_LIMIT()": "4711db1f",
    "MAX_COMMITTEE_BOUNTY()": "3db1807f",
    "MAX_WITHDRAWAL_FEE()": "eb6ed330",
    "NULL_ADDRESS()": "de0ce17d",
    "NULL_UINT()": "4b585a13",
    "activeClaim()": "da6d1be9",
    "allowance(address,address)": "dd62ed3e",
    "approve(address,uint256)": "095ea7b3",
    "approveClaim(bytes32,uint256)": "99ab34e0",
    "asset()": "38d52e0f",
    "balanceOf(address)": "70a08231",
    "bountySplit()": "9da86a29",
    "challengeClaim(bytes32)": "04165db1",
    "committee()": "d864e740",
    "committeeCheckIn()": "a397a635",
    "committeeCheckedIn()": "9d38e5eb",
    "convertToAssets(uint256)": "07a2d13a",
    "convertToShares(uint256)": "c6e6f592",
    "decimals()": "313ce567",
    "decreaseAllowance(address,uint256)": "a457c2d7",
    "deposit(uint256,address)": "6e553f65",
    "depositPause()": "6e22558d",
    "dismissClaim(bytes32)": "d52d5ee7",
    "emergencyWithdraw(address)": "6ff1c9bc",
    "getArbitrator()": "0fceb746",
    "getArbitratorCanChangeBounty()": "d8e34960",
    "getBountyGovernanceHAT()": "551bd417",
    "getBountyHackerHATVested()": "fb45153e",
    "getChallengePeriod()": "7864b77d",
    "getChallengeTimeOutPeriod()": "6da9a3ec",
    "increaseAllowance(address,uint256)": "39509351",
    "initialize((address,uint256,uint256,uint256,(uint256,uint256,uint256),address,address,address,bool,string))": "7278410d",
    "maxBounty()": "d261cfb0",
    "maxDeposit(address)": "402d267d",
    "maxMint(address)": "c63d75b6",
    "maxRedeem(address)": "d905777e",
    "maxWithdraw(address)": "ce96cb77",
    "mint(uint256,address)": "94bf804d",
    "name()": "06fdde03",
    "owner()": "8da5cb5b",
    "pendingMaxBounty()": "658fc2a6",
    "previewDeposit(uint256)": "ef8b30f7",
    "previewMint(uint256)": "b3d7f6b9",
    "previewRedeem(uint256)": "4cdad506",
    "previewRedeemAndFee(uint256)": "f4d0fb99",
    "previewWithdraw(uint256)": "0a28a477",
    "previewWithdrawAndFee(uint256)": "c9e55529",
    "redeem(uint256,address,address)": "ba087652",
    "redeemAndClaim(uint256,address,address)": "7901808b",
    "registry()": "7b103999",
    "renounceOwnership()": "715018a6",
    "rewardController()": "8cc5ce99",
    "rewardControllerRemoved(address)": "dc5ba607",
    "setArbitrator(address)": "b0eefabe",
    "setArbitratorCanChangeBounty(uint8)": "436b6c83",
    "setBountySplit((uint256,uint256,uint256))": "b5ff6d57",
    "setChallengePeriod(uint256)": "5d475fdd",
    "setChallengeTimeOutPeriod(uint256)": "59673323",
    "setCommittee(address)": "bddae40e",
    "setDepositPause(bool)": "86d192e5",
    "setHATBountySplit(uint256,uint256)": "21462162",
    "setMaxBounty()": "f10284c6",
    "setPendingMaxBounty(uint256)": "a5aef6e1",
    "setRewardController(address)": "7c993961",
    "setVaultDescription(string)": "a417e00c",
    "setVestingParams(uint256,uint256)": "eb658878",
    "setWithdrawalFee(uint256)": "ac1e5025",
    "submitClaim(address,uint256,string)": "34dc3c66",
    "symbol()": "95d89b41",
    "tokenLockFactory()": "11c2aae3",
    "totalAssets()": "01e1d114",
    "totalSupply()": "18160ddd",
    "transfer(address,uint256)": "a9059cbb",
    "transferFrom(address,address,uint256)": "23b872dd",
    "transferOwnership(address)": "f2fde38b",
    "vestingDuration()": "1514617e",
    "vestingPeriods()": "fdc149ef",
    "withdraw(uint256,address,address)": "b460af94",
    "withdrawAndClaim(uint256,address,address)": "d0855293",
    "withdrawEnableStartTime(address)": "48723633",
    "withdrawRequest()": "380e687a",
    "withdrawalFee()": "8bc7e8c4"
  },
  "id": 2
}