{
  "abi": [
    {
      "anonymous": false,
      "inputs": [
        {
          "indexed": true,
          "internalType": "address",
          "name": "_clone",
          "type": "address"
        }
      ],
      "name": "CloneCreated",
      "type": "event"
    },
    {
      "inputs": [
        {
          "internalType": "address",
          "name": "target",
          "type": "address"
        }
      ],
      "name": "createClone",
      "outputs": [
        {
          "internalType": "address",
          "name": "result",
          "type": "address"
        }
      ],
      "stateMutability": "nonpayable",
      "type": "function"
    }
  ],
  "bytecode": {
    "object": "0x608060405234801561001057600080fd5b5061014d806100206000396000f3fe608060405234801561001057600080fd5b506004361061002b5760003560e01c806357894c1b14610030575b600080fd5b61004361003e3660046100e7565b61005f565b6040516001600160a01b03909116815260200160405180910390f35b6000808260601b9050604051733d602d80600a3d3981f3363d3d373d3d3d363d7360601b81528160148201526e5af43d82803e903d91602b57fd5bf360881b60288201526037816000f06040519093506001600160a01b03841691507fbe2f3d28fdeb5839123d65fd47ec2f5915c715d2b527b9e229123706fdecfc8590600090a250919050565b6000602082840312156100f957600080fd5b81356001600160a01b038116811461011057600080fd5b939250505056fea2646970667358221220aa32e6b1636499baea36306b238daec3e796a62a5da719a0f1b8d3032f6f2b2364736f6c63430008100033",
    "linkReferences": {}
  },
  "methodIdentifiers": {
    "createClone(address)": "57894c1b"
  },
  "id": 10
}