{
  "abi": [
    {
      "inputs": [
        {
          "internalType": "enum UniSwapV3RouterMock.ReturnType",
          "name": "_returnType",
          "type": "uint8"
        },
        {
          "internalType": "address",
          "name": "_weth9",
          "type": "address"
        }
      ],
      "stateMutability": "nonpayable",
      "type": "constructor"
    },
    {
      "inputs": [],
      "name": "WETH9",
      "outputs": [
        {
          "internalType": "address",
          "name": "",
          "type": "address"
        }
      ],
      "stateMutability": "view",
      "type": "function"
    },
    {
      "inputs": [
        {
          "components": [
            {
              "internalType": "bytes",
              "name": "path",
              "type": "bytes"
            },
            {
              "internalType": "address",
              "name": "recipient",
              "type": "address"
            },
            {
              "internalType": "uint256",
              "name": "deadline",
              "type": "uint256"
            },
            {
              "internalType": "uint256",
              "name": "amountIn",
              "type": "uint256"
            },
            {
              "internalType": "uint256",
              "name": "amountOutMinimum",
              "type": "uint256"
            }
          ],
          "internalType": "struct ISwapRouter.ExactInputParams",
          "name": "_params",
          "type": "tuple"
        }
      ],
      "name": "exactInput",
      "outputs": [
        {
          "internalType": "uint256",
          "name": "amount",
          "type": "uint256"
        }
      ],
      "stateMutability": "nonpayable",
      "type": "function"
    },
    {
      "inputs": [],
      "name": "returnType",
      "outputs": [
        {
          "internalType": "enum UniSwapV3RouterMock.ReturnType",
          "name": "",
          "type": "uint8"
        }
      ],
      "stateMutability": "view",
      "type": "function"
    },
    {
      "inputs": [
        {
          "internalType": "bool",
          "name": "_usePartialAmountFlag",
          "type": "bool"
        }
      ],
      "name": "setUsePartialAmountFlag",
      "outputs": [],
      "stateMutability": "nonpayable",
      "type": "function"
    },
    {
      "inputs": [],
      "name": "usePartialAmountFlag",
      "outputs": [
        {
          "internalType": "bool",
          "name": "",
          "type": "bool"
        }
      ],
      "stateMutability": "view",
      "type": "function"
    }
  ],
  "bytecode": {
    "object": "0x60a060405234801561001057600080fd5b506040516107a23803806107a283398101604081905261002f91610065565b6000805483919060ff1916600183600281111561004e5761004e6100af565b02179055506001600160a01b0316608052506100c5565b6000806040838503121561007857600080fd5b82516003811061008757600080fd5b60208401519092506001600160a01b03811681146100a457600080fd5b809150509250929050565b634e487b7160e01b600052602160045260246000fd5b6080516106c36100df6000396000608401526106c36000f3fe608060405234801561001057600080fd5b50600436106100575760003560e01c80632d1a193d1461005c5780634aa4a4fc1461007f578063a2f1a78a146100be578063c04b8d59146100e8578063ee0f15e114610109575b600080fd5b6000546100699060ff1681565b604051610076919061041b565b60405180910390f35b6100a67f000000000000000000000000000000000000000000000000000000000000000081565b6040516001600160a01b039091168152602001610076565b6100e66100cc366004610454565b600080549115156101000261ff0019909216919091179055565b005b6100fb6100f6366004610504565b61012b565b604051908152602001610076565b60005461011b90610100900460ff1681565b6040519015158152602001610076565b600080548190610100900460ff1615610161576064836060015160506101519190610609565b61015b9190610628565b60608401525b6000805460ff16600281111561017957610179610405565b03610185575060608201515b600160005460ff16600281111561019e5761019e610405565b036101aa575060808201515b600260005460ff1660028111156101c3576101c3610405565b036101dc57600183608001516101d9919061064a565b90505b60006101ed84600001516000610320565b60608501516040516323b872dd60e01b815233600482015230602482015260448101919091529091506001600160a01b038216906323b872dd906064016020604051808303816000875af1158015610249573d6000803e3d6000fd5b505050506040513d601f19601f8201168201806040525081019061026d919061065d565b50835160009061029b90610280816103df565b61028c6003601461067a565b6102969190610609565b610320565b602086015160405163a9059cbb60e01b81526001600160a01b0391821660048201526024810186905291925082169063a9059cbb906044016020604051808303816000875af11580156102f2573d6000803e3d6000fd5b505050506040513d601f19601f82011682018060405250810190610316919061065d565b5091949350505050565b60008161032e81601461067a565b10156103765760405162461bcd60e51b8152602060048201526012602482015271746f416464726573735f6f766572666c6f7760701b60448201526064015b60405180910390fd5b61038182601461067a565b835110156103c95760405162461bcd60e51b8152602060048201526015602482015274746f416464726573735f6f75744f66426f756e647360581b604482015260640161036d565b5081810160200151600160601b90045b92915050565b60006103ed6003601461067a565b601483516103fb919061064a565b6103d99190610628565b634e487b7160e01b600052602160045260246000fd5b602081016003831061043d57634e487b7160e01b600052602160045260246000fd5b91905290565b801515811461045157600080fd5b50565b60006020828403121561046657600080fd5b813561047181610443565b9392505050565b634e487b7160e01b600052604160045260246000fd5b60405160a0810167ffffffffffffffff811182821017156104b1576104b1610478565b60405290565b604051601f8201601f1916810167ffffffffffffffff811182821017156104e0576104e0610478565b604052919050565b80356001600160a01b03811681146104ff57600080fd5b919050565b6000602080838503121561051757600080fd5b823567ffffffffffffffff8082111561052f57600080fd5b9084019060a0828703121561054357600080fd5b61054b61048e565b82358281111561055a57600080fd5b8301601f8101881361056b57600080fd5b80358381111561057d5761057d610478565b61058f601f8201601f191687016104b7565b935080845288868284010111156105a557600080fd5b80868301878601376000908401860152508181526105c48385016104e8565b848201526040830135604082015260608301356060820152608083013560808201528094505050505092915050565b634e487b7160e01b600052601160045260246000fd5b6000816000190483118215151615610623576106236105f3565b500290565b60008261064557634e487b7160e01b600052601260045260246000fd5b500490565b818103818111156103d9576103d96105f3565b60006020828403121561066f57600080fd5b815161047181610443565b808201808211156103d9576103d96105f356fea264697066735822122075ec21e5b835817d37185e42fb2ac357fa33cdfd58989c24f1e5e2b2bc40c1e764736f6c63430008100033",
    "linkReferences": {}
  },
  "methodIdentifiers": {
    "WETH9()": "4aa4a4fc",
    "exactInput((bytes,address,uint256,uint256,uint256))": "c04b8d59",
    "returnType()": "2d1a193d",
    "setUsePartialAmountFlag(bool)": "a2f1a78a",
    "usePartialAmountFlag()": "ee0f15e1"
  },
  "id": 14
}