{
  "abi": [
    {
      "inputs": [
        {
          "internalType": "contract RewardController",
          "name": "_target",
          "type": "address"
        },
        {
          "internalType": "address[]",
          "name": "_vaults",
          "type": "address[]"
        }
      ],
      "name": "claimDifferentPids",
      "outputs": [],
      "stateMutability": "nonpayable",
      "type": "function"
    },
    {
      "inputs": [
        {
          "internalType": "contract RewardController",
          "name": "target",
          "type": "address"
        },
        {
          "internalType": "address",
          "name": "_vault",
          "type": "address"
        }
      ],
      "name": "claimRewardTwice",
      "outputs": [],
      "stateMutability": "nonpayable",
      "type": "function"
    },
    {
      "inputs": [
        {
          "internalType": "contract HATVaultsRegistry",
          "name": "_hatVaults",
          "type": "address"
        },
        {
          "internalType": "contract IRewardController",
          "name": "_rewardController",
          "type": "address"
        },
        {
          "internalType": "uint256",
          "name": "_allocPoint",
          "type": "uint256"
        },
        {
          "internalType": "contract IERC20[]",
          "name": "_assets",
          "type": "address[]"
        },
        {
          "internalType": "address",
          "name": "_committee",
          "type": "address"
        },
        {
          "internalType": "uint256",
          "name": "_maxBounty",
          "type": "uint256"
        },
        {
          "components": [
            {
              "internalType": "uint256",
              "name": "hackerVested",
              "type": "uint256"
            },
            {
              "internalType": "uint256",
              "name": "hacker",
              "type": "uint256"
            },
            {
              "internalType": "uint256",
              "name": "committee",
              "type": "uint256"
            }
          ],
          "internalType": "struct IHATVault.BountySplit",
          "name": "_bountySplit",
          "type": "tuple"
        },
        {
          "internalType": "string",
          "name": "_descriptionHash",
          "type": "string"
        },
        {
          "internalType": "uint256",
          "name": "_bountyVestingDuration",
          "type": "uint256"
        },
        {
          "internalType": "uint256",
          "name": "_bountyVestingPeriods",
          "type": "uint256"
        }
      ],
      "name": "createVaults",
      "outputs": [],
      "stateMutability": "nonpayable",
      "type": "function"
    },
    {
      "inputs": [
        {
          "internalType": "contract HATVault",
          "name": "_target",
          "type": "address"
        },
        {
          "internalType": "contract IERC20",
          "name": "_asset",
          "type": "address"
        },
        {
          "internalType": "uint256",
          "name": "_amount",
          "type": "uint256"
        }
      ],
      "name": "deposit",
      "outputs": [],
      "stateMutability": "nonpayable",
      "type": "function"
    },
    {
      "inputs": [
        {
          "internalType": "contract HATVault",
          "name": "_target",
          "type": "address"
        },
        {
          "internalType": "contract IERC20",
          "name": "_asset",
          "type": "address"
        },
        {
          "internalType": "uint256",
          "name": "_amount",
          "type": "uint256"
        }
      ],
      "name": "depositTwice",
      "outputs": [],
      "stateMutability": "nonpayable",
      "type": "function"
    },
    {
      "inputs": [
        {
          "internalType": "contract HATVault[]",
          "name": "_hatVaults",
          "type": "address[]"
        },
        {
          "internalType": "contract IRewardController",
          "name": "_rewardController",
          "type": "address"
        },
        {
          "internalType": "uint256",
          "name": "_allocPoint",
          "type": "uint256"
        }
      ],
      "name": "setVaultsAllocPoint",
      "outputs": [],
      "stateMutability": "nonpayable",
      "type": "function"
    }
  ],
  "bytecode": {
    "object": "0x608060405234801561001057600080fd5b50610cc1806100206000396000f3fe608060405234801561001057600080fd5b50600436106100625760003560e01c8063209f3eaa146100675780633dd4aac71461007c5780637a01df421461008f5780638340f549146100a2578063ccced5a4146100b5578063d57d3ae0146100c8575b600080fd5b61007a61007536600461069b565b6100db565b005b61007a61008a36600461073f565b6101a1565b61007a61009d3660046107f9565b610253565b61007a6100b03660046108a8565b610302565b61007a6100c33660046108a8565b6103e7565b61007a6100d6366004610a24565b6104e3565b6040516324a9e3c160e11b81526001600160a01b038281166004830152306024830152831690634953c78290604401600060405180830381600087803b15801561012457600080fd5b505af1158015610138573d6000803e3d6000fd5b50506040516324a9e3c160e11b81526001600160a01b03848116600483015230602483015285169250634953c7829150604401600060405180830381600087803b15801561018557600080fd5b505af1158015610199573d6000803e3d6000fd5b505050505050565b60005b835181101561024d57826001600160a01b03166302b1720c8583815181106101ce576101ce610af5565b6020026020010151846040518363ffffffff1660e01b81526004016102089291906001600160a01b03929092168252602082015260400190565b600060405180830381600087803b15801561022257600080fd5b505af1158015610236573d6000803e3d6000fd5b50505050808061024590610b21565b9150506101a4565b50505050565b60005b81518110156102fd57826001600160a01b0316634953c78283838151811061028057610280610af5565b60209081029190910101516040516001600160e01b031960e084901b1681526001600160a01b039091166004820152306024820152604401600060405180830381600087803b1580156102d257600080fd5b505af11580156102e6573d6000803e3d6000fd5b5050505080806102f590610b21565b915050610256565b505050565b60405163095ea7b360e01b81526001600160a01b0384811660048301526024820183905283169063095ea7b3906044016020604051808303816000875af1158015610351573d6000803e3d6000fd5b505050506040513d601f19601f820116820180604052508101906103759190610b3a565b50604051636e553f6560e01b8152600481018290523060248201526001600160a01b03841690636e553f65906044016020604051808303816000875af11580156103c3573d6000803e3d6000fd5b505050506040513d601f19601f8201168201806040525081019061024d9190610b63565b6001600160a01b03821663095ea7b384610402846002610b7c565b6040516001600160e01b031960e085901b1681526001600160a01b03909216600483015260248201526044016020604051808303816000875af115801561044d573d6000803e3d6000fd5b505050506040513d601f19601f820116820180604052508101906104719190610b3a565b50604051636e553f6560e01b8152600481018290523060248201526001600160a01b03841690636e553f65906044016020604051808303816000875af11580156104bf573d6000803e3d6000fd5b505050506040513d601f19601f820116820180604052508101906103759190610b63565b60005b87518110156106665760008b6001600160a01b031663c99a02b08a848151811061051257610512610af5565b60200260200101518e6001600160a01b0316638da5cb5b6040518163ffffffff1660e01b8152600401602060405180830381865afa158015610558573d6000803e3d6000fd5b505050506040513d601f19601f8201168201806040525081019061057c9190610b9b565b8b8f8c8c8c8c8c60006040518b63ffffffff1660e01b81526004016105aa9a99989796959493929190610bfe565b6020604051808303816000875af11580156105c9573d6000803e3d6000fd5b505050506040513d601f19601f820116820180604052508101906105ed9190610b9b565b60405162ac5c8360e21b81526001600160a01b038083166004830152602482018d9052919250908c16906302b1720c90604401600060405180830381600087803b15801561063a57600080fd5b505af115801561064e573d6000803e3d6000fd5b5050505050808061065e90610b21565b9150506104e6565b5050505050505050505050565b6001600160a01b038116811461068857600080fd5b50565b803561069681610673565b919050565b600080604083850312156106ae57600080fd5b82356106b981610673565b915060208301356106c981610673565b809150509250929050565b634e487b7160e01b600052604160045260246000fd5b604051601f8201601f1916810167ffffffffffffffff81118282101715610713576107136106d4565b604052919050565b600067ffffffffffffffff821115610735576107356106d4565b5060051b60200190565b60008060006060848603121561075457600080fd5b833567ffffffffffffffff81111561076b57600080fd5b8401601f8101861361077c57600080fd5b8035602061079161078c8361071b565b6106ea565b82815260059290921b830181019181810190898411156107b057600080fd5b938201935b838510156107d75784356107c881610673565b825293820193908201906107b5565b96506107e6905087820161068b565b9450505050604084013590509250925092565b6000806040838503121561080c57600080fd5b823561081781610673565b915060208381013567ffffffffffffffff81111561083457600080fd5b8401601f8101861361084557600080fd5b803561085361078c8261071b565b81815260059190911b8201830190838101908883111561087257600080fd5b928401925b8284101561089957833561088a81610673565b82529284019290840190610877565b80955050505050509250929050565b6000806000606084860312156108bd57600080fd5b83356108c881610673565b925060208401356108d881610673565b929592945050506040919091013590565b600082601f8301126108fa57600080fd5b8135602061090a61078c8361071b565b82815260059290921b8401810191818101908684111561092957600080fd5b8286015b8481101561094d57803561094081610673565b835291830191830161092d565b509695505050505050565b60006060828403121561096a57600080fd5b6040516060810181811067ffffffffffffffff8211171561098d5761098d6106d4565b80604052508091508235815260208301356020820152604083013560408201525092915050565b600082601f8301126109c557600080fd5b813567ffffffffffffffff8111156109df576109df6106d4565b6109f2601f8201601f19166020016106ea565b818152846020838601011115610a0757600080fd5b816020850160208301376000918101602001919091529392505050565b6000806000806000806000806000806101808b8d031215610a4457600080fd5b610a4d8b61068b565b9950610a5b60208c0161068b565b985060408b0135975060608b013567ffffffffffffffff80821115610a7f57600080fd5b610a8b8e838f016108e9565b9850610a9960808e0161068b565b975060a08d01359650610aaf8e60c08f01610958565b95506101208d0135915080821115610ac657600080fd5b50610ad38d828e016109b4565b9350506101408b013591506101608b013590509295989b9194979a5092959850565b634e487b7160e01b600052603260045260246000fd5b634e487b7160e01b600052601160045260246000fd5b600060018201610b3357610b33610b0b565b5060010190565b600060208284031215610b4c57600080fd5b81518015158114610b5c57600080fd5b9392505050565b600060208284031215610b7557600080fd5b5051919050565b6000816000190483118215151615610b9657610b96610b0b565b500290565b600060208284031215610bad57600080fd5b8151610b5c81610673565b6000815180845260005b81811015610bde57602081850181015186830182015201610bc2565b506000602082860101526020601f19601f83011685010191505092915050565b600061018060018060a01b03808e168452808d166020850152808c166040850152808b16606085015250886080840152875160a0840152602088015160c0840152604088015160e084015280610100840152610c5c81840188610bb8565b9150508461012083015283610140830152610c7c61016083018415159052565b9b9a505050505050505050505056fea2646970667358221220ad744341a20307604c8a32e8e5d319344a5daadf0629ef17d7f06e2b9c07457064736f6c63430008100033",
    "linkReferences": {}
  },
  "methodIdentifiers": {
    "claimDifferentPids(address,address[])": "7a01df42",
    "claimRewardTwice(address,address)": "209f3eaa",
    "createVaults(address,address,uint256,address[],address,uint256,(uint256,uint256,uint256),string,uint256,uint256)": "d57d3ae0",
    "deposit(address,address,uint256)": "8340f549",
    "depositTwice(address,address,uint256)": "ccced5a4",
    "setVaultsAllocPoint(address[],address,uint256)": "3dd4aac7"
  },
  "id": 13
}