{
  "address": "0xcBe0b90bfe99f827B8BCB5C5Ac4b17107caEA814",
  "abi": [
    {
      "inputs": [],
      "stateMutability": "nonpayable",
      "type": "constructor"
    },
    {
      "anonymous": false,
      "inputs": [
        {
          "indexed": true,
          "internalType": "contract IERC20Upgradeable",
          "name": "token",
          "type": "address"
        },
        {
          "indexed": false,
          "internalType": "address",
          "name": "to",
          "type": "address"
        },
        {
          "indexed": false,
          "internalType": "uint256",
          "name": "amount",
          "type": "uint256"
        }
      ],
      "name": "ERC20PaymentReleased",
      "type": "event"
    },
    {
      "anonymous": false,
      "inputs": [
        {
          "indexed": false,
          "internalType": "uint8",
          "name": "version",
          "type": "uint8"
        }
      ],
      "name": "Initialized",
      "type": "event"
    },
    {
      "anonymous": false,
      "inputs": [
        {
          "indexed": false,
          "internalType": "address",
          "name": "account",
          "type": "address"
        },
        {
          "indexed": false,
          "internalType": "uint256",
          "name": "shares",
          "type": "uint256"
        }
      ],
      "name": "PayeeAdded",
      "type": "event"
    },
    {
      "anonymous": false,
      "inputs": [
        {
          "indexed": false,
          "internalType": "address",
          "name": "from",
          "type": "address"
        },
        {
          "indexed": false,
          "internalType": "uint256",
          "name": "amount",
          "type": "uint256"
        }
      ],
      "name": "PaymentReceived",
      "type": "event"
    },
    {
      "anonymous": false,
      "inputs": [
        {
          "indexed": false,
          "internalType": "address",
          "name": "to",
          "type": "address"
        },
        {
          "indexed": false,
          "internalType": "uint256",
          "name": "amount",
          "type": "uint256"
        }
      ],
      "name": "PaymentReleased",
      "type": "event"
    },
    {
      "inputs": [
        {
          "internalType": "address[]",
          "name": "_payees",
          "type": "address[]"
        },
        {
          "internalType": "uint256[]",
          "name": "_shares",
          "type": "uint256[]"
        }
      ],
      "name": "initialize",
      "outputs": [],
      "stateMutability": "nonpayable",
      "type": "function"
    },
    {
      "inputs": [
        {
          "internalType": "uint256",
          "name": "index",
          "type": "uint256"
        }
      ],
      "name": "payee",
      "outputs": [
        {
          "internalType": "address",
          "name": "",
          "type": "address"
        }
      ],
      "stateMutability": "view",
      "type": "function"
    },
    {
      "inputs": [
        {
          "internalType": "address",
          "name": "account",
          "type": "address"
        }
      ],
      "name": "releasable",
      "outputs": [
        {
          "internalType": "uint256",
          "name": "",
          "type": "uint256"
        }
      ],
      "stateMutability": "view",
      "type": "function"
    },
    {
      "inputs": [
        {
          "internalType": "contract IERC20Upgradeable",
          "name": "token",
          "type": "address"
        },
        {
          "internalType": "address",
          "name": "account",
          "type": "address"
        }
      ],
      "name": "releasable",
      "outputs": [
        {
          "internalType": "uint256",
          "name": "",
          "type": "uint256"
        }
      ],
      "stateMutability": "view",
      "type": "function"
    },
    {
      "inputs": [
        {
          "internalType": "address payable",
          "name": "account",
          "type": "address"
        }
      ],
      "name": "release",
      "outputs": [],
      "stateMutability": "nonpayable",
      "type": "function"
    },
    {
      "inputs": [
        {
          "internalType": "contract IERC20Upgradeable",
          "name": "token",
          "type": "address"
        },
        {
          "internalType": "address",
          "name": "account",
          "type": "address"
        }
      ],
      "name": "release",
      "outputs": [],
      "stateMutability": "nonpayable",
      "type": "function"
    },
    {
      "inputs": [
        {
          "internalType": "contract ITokenLock",
          "name": "_tokenLock",
          "type": "address"
        }
      ],
      "name": "releaseFromTokenLock",
      "outputs": [],
      "stateMutability": "nonpayable",
      "type": "function"
    },
    {
      "inputs": [
        {
          "internalType": "contract IERC20Upgradeable",
          "name": "token",
          "type": "address"
        },
        {
          "internalType": "address",
          "name": "account",
          "type": "address"
        }
      ],
      "name": "released",
      "outputs": [
        {
          "internalType": "uint256",
          "name": "",
          "type": "uint256"
        }
      ],
      "stateMutability": "view",
      "type": "function"
    },
    {
      "inputs": [
        {
          "internalType": "address",
          "name": "account",
          "type": "address"
        }
      ],
      "name": "released",
      "outputs": [
        {
          "internalType": "uint256",
          "name": "",
          "type": "uint256"
        }
      ],
      "stateMutability": "view",
      "type": "function"
    },
    {
      "inputs": [
        {
          "internalType": "address",
          "name": "account",
          "type": "address"
        }
      ],
      "name": "shares",
      "outputs": [
        {
          "internalType": "uint256",
          "name": "",
          "type": "uint256"
        }
      ],
      "stateMutability": "view",
      "type": "function"
    },
    {
      "inputs": [
        {
          "internalType": "contract ITokenLock",
          "name": "_tokenLock",
          "type": "address"
        },
        {
          "internalType": "contract IERC20",
          "name": "_token",
          "type": "address"
        }
      ],
      "name": "sweepTokenFromTokenLock",
      "outputs": [],
      "stateMutability": "nonpayable",
      "type": "function"
    },
    {
      "inputs": [
        {
          "internalType": "contract IERC20Upgradeable",
          "name": "token",
          "type": "address"
        }
      ],
      "name": "totalReleased",
      "outputs": [
        {
          "internalType": "uint256",
          "name": "",
          "type": "uint256"
        }
      ],
      "stateMutability": "view",
      "type": "function"
    },
    {
      "inputs": [],
      "name": "totalReleased",
      "outputs": [
        {
          "internalType": "uint256",
          "name": "",
          "type": "uint256"
        }
      ],
      "stateMutability": "view",
      "type": "function"
    },
    {
      "inputs": [],
      "name": "totalShares",
      "outputs": [
        {
          "internalType": "uint256",
          "name": "",
          "type": "uint256"
        }
      ],
      "stateMutability": "view",
      "type": "function"
    },
    {
      "inputs": [
        {
          "internalType": "contract ITokenLock",
          "name": "_tokenLock",
          "type": "address"
        },
        {
          "internalType": "uint256",
          "name": "_amount",
          "type": "uint256"
        }
      ],
      "name": "withdrawSurplusFromTokenLock",
      "outputs": [],
      "stateMutability": "nonpayable",
      "type": "function"
    },
    {
      "stateMutability": "payable",
      "type": "receive"
    }
  ],
  "transactionHash": "0xebab00ae9bf433221ec1a8543289b98d6d9bbd437218ecc5ead370e534630928",
  "args": [],
  "numDeployments": 1,
  "solcInputHash": "1e6e3235340659c712c12302d9f90199",
  "bytecode": "0x608080604052346100c1576000549060ff8260081c1661006f575060ff80821610610034575b60405161114f90816100c78239f35b60ff90811916176000557f7f26b83ff96e1f2b6a682f133852f6798a09c465da95921460cefb3847402498602060405160ff8152a138610025565b62461bcd60e51b815260206004820152602760248201527f496e697469616c697a61626c653a20636f6e747261637420697320696e697469604482015266616c697a696e6760c81b6064820152608490fd5b600080fdfe60406080815260048036101561004e575b50361561001c57600080fd5b513381523460208201527f6ef95f06320e7a25a04a175ca677b7052bdd97131872c2192525a629f51be77090604090a1005b600090813560e01c9081631916558714610b02578163262500c114610a995781632b4b9bb214610a3e5781633a98ef3914610a1f578163406072a9146109d157816348b75044146107cf5781637fbbe46f146102e55781638b83209b146102ac5781639852595c14610274578163a3f8eace1461024e578163c45ac05014610219578163c50abbd11461018e57508063ce7c2ac214610156578063d79779b21461011e5763e33b7de30361001057903461011a578160031936011261011a576020906034549051908152f35b5080fd5b50903461011a57602036600319011261011a5760209181906001600160a01b03610146610c6d565b1681526038845220549051908152f35b50903461011a57602036600319011261011a5760209181906001600160a01b0361017e610c6d565b1681526035845220549051908152f35b838380923461011a578260031936011261011a576101aa610c6d565b6001600160a01b03602435818116939290849003610215571691823b156102115760248492838751958694859362df0cab60e51b85528401525af18015610204576101f457505051f35b6101fd90610c99565b61011a5751f35b50505051903d90823e3d90fd5b8380fd5b8480fd5b82843461011a578060031936011261011a57602090610247610239610c6d565b610241610c83565b90610da0565b9051908152f35b82843461011a57602036600319011261011a5760209061024761026f610c6d565b610d6d565b82843461011a57602036600319011261011a5760209181906001600160a01b0361029c610c6d565b1681526036845220549051908152f35b8383346102e25760203660031901126102e257506102cc60209235610cfd565b905491519160018060a01b039160031b1c168152f35b80fd5b839150346107cb57816003193601126107cb57803567ffffffffffffffff918282116102155736602383011215610215578181013561032381610ce5565b9161033086519384610cc3565b8183526020938484016024809460051b8301019136831161079f578401905b8282106107a75750505081359485116107a357366023860112156107a357848101359461037b86610ce5565b9561038888519788610cc3565b808752838688019160051b8301019136831161079f5784879101915b83831061078f575050505086549460ff8660081c161593848095610782575b801561076b575b1561071257600196858860ff198316178b55610701575b506103fb60ff8a5460081c166103f6816110a5565b6110a5565b80518251036106a4578051156106625788875b610455575b505050505061042157505051f35b835461ff001916845582519182527f7f26b83ff96e1f2b6a682f133852f6798a09c465da95921460cefb384740249891a151f35b815181101561065d576001600160a01b03806104718385611105565b511661047d8386611105565b519181156106055782156105c2578c908282528c603592838d52205461056c57603780549068010000000000000000821015610559578f90938f92938f966104ee8682988b9a7f40c340f65e17194d14ddddb073d3c9f888e3cb52b5aae0c6c7706b4fbc905fac9c99019055610cfd565b909283549160031b90811b9283911b169119161790558482528d5220556033610518838254610d4a565b90558b516001600160a01b039190911681526020810191909152604090a160001981146105475787018761040e565b634e487b7160e01b8a5260118452848afd5b50634e487b7160e01b8f5260418952898ffd5b8c5162461bcd60e51b81528089018c9052602b818b01527f5061796d656e7453706c69747465723a206163636f756e7420616c726561647960448201526a206861732073686172657360a81b6064820152608490fd5b508a5162461bcd60e51b81528087018a9052601d818901527f5061796d656e7453706c69747465723a207368617265732061726520300000006044820152606490fd5b508a5162461bcd60e51b81528087018a9052602c818901527f5061796d656e7453706c69747465723a206163636f756e74206973207468652060448201526b7a65726f206164647265737360a01b6064820152608490fd5b610413565b875162461bcd60e51b8152808401879052601a818601527f5061796d656e7453706c69747465723a206e6f207061796565730000000000006044820152606490fd5b875162461bcd60e51b81528084018790526032818601527f5061796d656e7453706c69747465723a2070617965657320616e6420736861726044820152710cae640d8cadccee8d040dad2e6dac2e8c6d60731b6064820152608490fd5b61ffff1916610101178955896103e1565b875162461bcd60e51b8152808401879052602e818601527f496e697469616c697a61626c653a20636f6e747261637420697320616c72656160448201526d191e481a5b9a5d1a585b1a5e995960921b6064820152608490fd5b50303b1580156103ca5750600160ff8816146103ca565b50600160ff8816106103c3565b82358152918101918791016103a4565b8980fd5b8680fd5b81356001600160a01b03811681036107c657815290860190860161034f565b600080fd5b8280fd5b839150346107cb57816003193601126107cb576107ea610c6d565b6107f2610c83565b60018060a01b03928382169384875260209060358252610816878920541515610e55565b6108208486610da0565b9461082c861515610eb0565b169485885260388252868820610843868254610d4a565b90558588526039825286882060009182528252869020805485019055855163a9059cbb60e01b8183019081526001600160a01b038516602483015260448083018790528252610893606483610cc3565b87519188830183811067ffffffffffffffff8211176109bc5789528383527f5361666545524332303a206c6f772d6c6576656c2063616c6c206661696c656484840152516108f392918a918291828b5af16108ec610f91565b9088610fd1565b805180610940575b505085516001600160a01b03939093168352505060208101919091527f3be5b7a71e84ed12875d241991c70855ac5817d847039e17a9d895c1ceb0f18a90604090a251f35b818391810103126109b8578101518015908115036109b8576109635780806108fb565b855162461bcd60e51b815291820152602a60248201527f5361666545524332303a204552433230206f7065726174696f6e20646964206e6044820152691bdd081cdd58d8d9595960b21b606482015260849150fd5b8780fd5b604186634e487b7160e01b6000525260246000fd5b82843461011a578060031936011261011a576020916109ee610c6d565b826109f7610c83565b6001600160a01b03928316845260398652922091166000908152908352819020549051908152f35b82843461011a578160031936011261011a576020906033549051908152f35b838380923461011a578260031936011261011a576001600160a01b03610a62610c6d565b1690813b156107cb5782916024839286519485938492632c34606360e21b84528435908401525af18015610204576101f457505051f35b90503461011a57602036600319011261011a576001600160a01b03610abc610c6d565b1690813b156107cb5783516386d1a69f60e01b81529183918391829084905af18015610af857610aeb57509051f35b610af490610c99565b9051f35b83513d84823e3d90fd5b839150346107cb57602090816003193601126102115780356001600160a01b03811692908390036102155782855260358152610b42848620541515610e55565b610b4b83610d6d565b91610b57831515610eb0565b610b6383603454610d4a565b60345583865260368252848620838154019055824710610c2c57858080875186885af1610b8e610f91565b5015610bc5575083519283528201527fdf20fd1e76bc69d672e4814fafb2c449bba3a5369d8359adf9e05e6fde87b056908290a151f35b60849185519162461bcd60e51b8352820152603a60248201527f416464726573733a20756e61626c6520746f2073656e642076616c75652c207260448201527f6563697069656e74206d617920686176652072657665727465640000000000006064820152fd5b60649185519162461bcd60e51b8352820152601d60248201527f416464726573733a20696e73756666696369656e742062616c616e63650000006044820152fd5b600435906001600160a01b03821682036107c657565b602435906001600160a01b03821682036107c657565b67ffffffffffffffff8111610cad57604052565b634e487b7160e01b600052604160045260246000fd5b90601f8019910116810190811067ffffffffffffffff821117610cad57604052565b67ffffffffffffffff8111610cad5760051b60200190565b603754811015610d345760376000527f42a7b7dd785cd69714a189dffb3fd7d7174edc9ece837694ce50f7078f7c31ae0190600090565b634e487b7160e01b600052603260045260246000fd5b91908201809211610d5757565b634e487b7160e01b600052601160045260246000fd5b610d9d90610d7e4760345490610d4a565b6001600160a01b03821660009081526036602052604090205491610f10565b90565b6040516370a0823160e01b81523060048201529291906001600160a01b039081169060208086602481865afa958615610e4957600096610e18575b50610df8610d9d9596846000526038835260406000205490610d4a565b926000526039815260406000209184166000525260406000205491610f10565b958187813d8311610e42575b610e2e8183610cc3565b810103126102e25750945194610df8610ddb565b503d610e24565b6040513d6000823e3d90fd5b15610e5c57565b60405162461bcd60e51b815260206004820152602660248201527f5061796d656e7453706c69747465723a206163636f756e7420686173206e6f2060448201526573686172657360d01b6064820152608490fd5b15610eb757565b60405162461bcd60e51b815260206004820152602b60248201527f5061796d656e7453706c69747465723a206163636f756e74206973206e6f742060448201526a191d59481c185e5b595b9d60aa1b6064820152608490fd5b6001600160a01b0316600090815260356020526040812054909190811515600019839004821116610f7d57603354918215610f69570204918203918211610f55575090565b634e487b7160e01b81526011600452602490fd5b634e487b7160e01b84526012600452602484fd5b634e487b7160e01b83526011600452602483fd5b3d15610fcc573d9067ffffffffffffffff8211610cad5760405191610fc0601f8201601f191660200184610cc3565b82523d6000602084013e565b606090565b919290156110335750815115610fe5575090565b3b15610fee5790565b60405162461bcd60e51b815260206004820152601d60248201527f416464726573733a2063616c6c20746f206e6f6e2d636f6e74726163740000006044820152606490fd5b8251909150156110465750805190602001fd5b6040519062461bcd60e51b82528160208060048301528251908160248401526000935b82851061108c575050604492506000838284010152601f80199101168101030190fd5b8481018201518686016044015293810193859350611069565b156110ac57565b60405162461bcd60e51b815260206004820152602b60248201527f496e697469616c697a61626c653a20636f6e7472616374206973206e6f74206960448201526a6e697469616c697a696e6760a81b6064820152608490fd5b8051821015610d345760209160051b01019056fea26469706673582212209739e9cf0182bd7e53127304e37fd68abb665e729d7b3c1a25cf8d9fdb3916be64736f6c63430008100033",
  "devdoc": {
    "kind": "dev",
    "methods": {
      "payee(uint256)": {
        "details": "Getter for the address of the payee number `index`."
      },
      "releasable(address)": {
        "details": "Getter for the amount of payee's releasable Ether."
      },
      "releasable(address,address)": {
        "details": "Getter for the amount of payee's releasable `token` tokens. `token` should be the address of an IERC20 contract."
      },
      "release(address)": {
        "details": "Triggers a transfer to `account` of the amount of Ether they are owed, according to their percentage of the total shares and their previous withdrawals."
      },
      "release(address,address)": {
        "details": "Triggers a transfer to `account` of the amount of `token` tokens they are owed, according to their percentage of the total shares and their previous withdrawals. `token` must be the address of an IERC20 contract."
      },
      "releaseFromTokenLock(address)": {
        "params": {
          "_tokenLock": "The tokenlock to release from"
        }
      },
      "released(address)": {
        "details": "Getter for the amount of Ether already released to a payee."
      },
      "released(address,address)": {
        "details": "Getter for the amount of `token` tokens already released to a payee. `token` should be the address of an IERC20 contract."
      },
      "shares(address)": {
        "details": "Getter for the amount of shares held by an account."
      },
      "sweepTokenFromTokenLock(address,address)": {
        "params": {
          "_token": "Address of token to sweep",
          "_tokenLock": "The tokenlock to call sweepToken on"
        }
      },
      "totalReleased()": {
        "details": "Getter for the total amount of Ether already released."
      },
      "totalReleased(address)": {
        "details": "Getter for the total amount of `token` already released. `token` should be the address of an IERC20 contract."
      },
      "totalShares()": {
        "details": "Getter for the total shares held by payees."
      },
      "withdrawSurplusFromTokenLock(address,uint256)": {
        "params": {
          "_amount": "Amount of tokens to withdraw",
          "_tokenLock": "The tokenlock to withdraw surplus from"
        }
      }
    },
    "version": 1
  },
  "userdoc": {
    "kind": "user",
    "methods": {
      "releaseFromTokenLock(address)": {
        "notice": "Releases tokens from a tokenlock contract"
      },
      "sweepTokenFromTokenLock(address,address)": {
        "notice": "Sweeps out accidentally sent tokens from a tokenlock contract"
      },
      "withdrawSurplusFromTokenLock(address,uint256)": {
        "notice": "Withdraws surplus, unmanaged tokens from a tokenlock contract"
      }
    },
    "version": 1
  },
  "storageLayout": {
    "storage": [
      {
        "astId": 1092,
        "contract": "contracts/HATPaymentSplitter.sol:HATPaymentSplitter",
        "label": "_initialized",
        "offset": 0,
        "slot": "0",
        "type": "t_uint8"
      },
      {
        "astId": 1095,
        "contract": "contracts/HATPaymentSplitter.sol:HATPaymentSplitter",
        "label": "_initializing",
        "offset": 1,
        "slot": "0",
        "type": "t_bool"
      },
      {
        "astId": 3390,
        "contract": "contracts/HATPaymentSplitter.sol:HATPaymentSplitter",
        "label": "__gap",
        "offset": 0,
        "slot": "1",
        "type": "t_array(t_uint256)50_storage"
      },
      {
        "astId": 457,
        "contract": "contracts/HATPaymentSplitter.sol:HATPaymentSplitter",
        "label": "_totalShares",
        "offset": 0,
        "slot": "51",
        "type": "t_uint256"
      },
      {
        "astId": 459,
        "contract": "contracts/HATPaymentSplitter.sol:HATPaymentSplitter",
        "label": "_totalReleased",
        "offset": 0,
        "slot": "52",
        "type": "t_uint256"
      },
      {
        "astId": 463,
        "contract": "contracts/HATPaymentSplitter.sol:HATPaymentSplitter",
        "label": "_shares",
        "offset": 0,
        "slot": "53",
        "type": "t_mapping(t_address,t_uint256)"
      },
      {
        "astId": 467,
        "contract": "contracts/HATPaymentSplitter.sol:HATPaymentSplitter",
        "label": "_released",
        "offset": 0,
        "slot": "54",
        "type": "t_mapping(t_address,t_uint256)"
      },
      {
        "astId": 470,
        "contract": "contracts/HATPaymentSplitter.sol:HATPaymentSplitter",
        "label": "_payees",
        "offset": 0,
        "slot": "55",
        "type": "t_array(t_address)dyn_storage"
      },
      {
        "astId": 475,
        "contract": "contracts/HATPaymentSplitter.sol:HATPaymentSplitter",
        "label": "_erc20TotalReleased",
        "offset": 0,
        "slot": "56",
        "type": "t_mapping(t_contract(IERC20Upgradeable)2017,t_uint256)"
      },
      {
        "astId": 482,
        "contract": "contracts/HATPaymentSplitter.sol:HATPaymentSplitter",
        "label": "_erc20Released",
        "offset": 0,
        "slot": "57",
        "type": "t_mapping(t_contract(IERC20Upgradeable)2017,t_mapping(t_address,t_uint256))"
      },
      {
        "astId": 916,
        "contract": "contracts/HATPaymentSplitter.sol:HATPaymentSplitter",
        "label": "__gap",
        "offset": 0,
        "slot": "58",
        "type": "t_array(t_uint256)43_storage"
      }
    ],
    "types": {
      "t_address": {
        "encoding": "inplace",
        "label": "address",
        "numberOfBytes": "20"
      },
      "t_array(t_address)dyn_storage": {
        "base": "t_address",
        "encoding": "dynamic_array",
        "label": "address[]",
        "numberOfBytes": "32"
      },
      "t_array(t_uint256)43_storage": {
        "base": "t_uint256",
        "encoding": "inplace",
        "label": "uint256[43]",
        "numberOfBytes": "1376"
      },
      "t_array(t_uint256)50_storage": {
        "base": "t_uint256",
        "encoding": "inplace",
        "label": "uint256[50]",
        "numberOfBytes": "1600"
      },
      "t_bool": {
        "encoding": "inplace",
        "label": "bool",
        "numberOfBytes": "1"
      },
      "t_contract(IERC20Upgradeable)2017": {
        "encoding": "inplace",
        "label": "contract IERC20Upgradeable",
        "numberOfBytes": "20"
      },
      "t_mapping(t_address,t_uint256)": {
        "encoding": "mapping",
        "key": "t_address",
        "label": "mapping(address => uint256)",
        "numberOfBytes": "32",
        "value": "t_uint256"
      },
      "t_mapping(t_contract(IERC20Upgradeable)2017,t_mapping(t_address,t_uint256))": {
        "encoding": "mapping",
        "key": "t_contract(IERC20Upgradeable)2017",
        "label": "mapping(contract IERC20Upgradeable => mapping(address => uint256))",
        "numberOfBytes": "32",
        "value": "t_mapping(t_address,t_uint256)"
      },
      "t_mapping(t_contract(IERC20Upgradeable)2017,t_uint256)": {
        "encoding": "mapping",
        "key": "t_contract(IERC20Upgradeable)2017",
        "label": "mapping(contract IERC20Upgradeable => uint256)",
        "numberOfBytes": "32",
        "value": "t_uint256"
      },
      "t_uint256": {
        "encoding": "inplace",
        "label": "uint256",
        "numberOfBytes": "32"
      },
      "t_uint8": {
        "encoding": "inplace",
        "label": "uint8",
        "numberOfBytes": "1"
      }
    }
  }
}