{
  "abi": [
    {
      "inputs": [
        {
          "internalType": "address",
          "name": "_masterCopy",
          "type": "address"
        }
      ],
      "stateMutability": "nonpayable",
      "type": "constructor"
    },
    {
      "anonymous": false,
      "inputs": [
        {
          "indexed": true,
          "internalType": "address",
          "name": "masterCopy",
          "type": "address"
        }
      ],
      "name": "MasterCopyUpdated",
      "type": "event"
    },
    {
      "anonymous": false,
      "inputs": [
        {
          "indexed": true,
          "internalType": "address",
          "name": "previousOwner",
          "type": "address"
        },
        {
          "indexed": true,
          "internalType": "address",
          "name": "newOwner",
          "type": "address"
        }
      ],
      "name": "OwnershipTransferred",
      "type": "event"
    },
    {
      "anonymous": false,
      "inputs": [
        {
          "indexed": true,
          "internalType": "address",
          "name": "contractAddress",
          "type": "address"
        },
        {
          "indexed": true,
          "internalType": "bytes32",
          "name": "initHash",
          "type": "bytes32"
        },
        {
          "indexed": true,
          "internalType": "address",
          "name": "beneficiary",
          "type": "address"
        },
        {
          "indexed": false,
          "internalType": "address",
          "name": "token",
          "type": "address"
        },
        {
          "indexed": false,
          "internalType": "uint256",
          "name": "managedAmount",
          "type": "uint256"
        },
        {
          "indexed": false,
          "internalType": "uint256",
          "name": "startTime",
          "type": "uint256"
        },
        {
          "indexed": false,
          "internalType": "uint256",
          "name": "endTime",
          "type": "uint256"
        },
        {
          "indexed": false,
          "internalType": "uint256",
          "name": "periods",
          "type": "uint256"
        },
        {
          "indexed": false,
          "internalType": "uint256",
          "name": "releaseStartTime",
          "type": "uint256"
        },
        {
          "indexed": false,
          "internalType": "uint256",
          "name": "vestingCliffTime",
          "type": "uint256"
        },
        {
          "indexed": false,
          "internalType": "enum ITokenLock.Revocability",
          "name": "revocable",
          "type": "uint8"
        },
        {
          "indexed": false,
          "internalType": "bool",
          "name": "canDelegate",
          "type": "bool"
        }
      ],
      "name": "TokenLockCreated",
      "type": "event"
    },
    {
      "inputs": [
        {
          "internalType": "address",
          "name": "_token",
          "type": "address"
        },
        {
          "internalType": "address",
          "name": "_owner",
          "type": "address"
        },
        {
          "internalType": "address",
          "name": "_beneficiary",
          "type": "address"
        },
        {
          "internalType": "uint256",
          "name": "_managedAmount",
          "type": "uint256"
        },
        {
          "internalType": "uint256",
          "name": "_startTime",
          "type": "uint256"
        },
        {
          "internalType": "uint256",
          "name": "_endTime",
          "type": "uint256"
        },
        {
          "internalType": "uint256",
          "name": "_periods",
          "type": "uint256"
        },
        {
          "internalType": "uint256",
          "name": "_releaseStartTime",
          "type": "uint256"
        },
        {
          "internalType": "uint256",
          "name": "_vestingCliffTime",
          "type": "uint256"
        },
        {
          "internalType": "enum ITokenLock.Revocability",
          "name": "_revocable",
          "type": "uint8"
        },
        {
          "internalType": "bool",
          "name": "_canDelegate",
          "type": "bool"
        }
      ],
      "name": "createTokenLock",
      "outputs": [
        {
          "internalType": "address",
          "name": "contractAddress",
          "type": "address"
        }
      ],
      "stateMutability": "nonpayable",
      "type": "function"
    },
    {
      "inputs": [],
      "name": "masterCopy",
      "outputs": [
        {
          "internalType": "address",
          "name": "",
          "type": "address"
        }
      ],
      "stateMutability": "view",
      "type": "function"
    },
    {
      "inputs": [],
      "name": "owner",
      "outputs": [
        {
          "internalType": "address",
          "name": "",
          "type": "address"
        }
      ],
      "stateMutability": "view",
      "type": "function"
    },
    {
      "inputs": [],
      "name": "renounceOwnership",
      "outputs": [],
      "stateMutability": "nonpayable",
      "type": "function"
    },
    {
      "inputs": [
        {
          "internalType": "address",
          "name": "_masterCopy",
          "type": "address"
        }
      ],
      "name": "setMasterCopy",
      "outputs": [],
      "stateMutability": "nonpayable",
      "type": "function"
    },
    {
      "inputs": [
        {
          "internalType": "address",
          "name": "newOwner",
          "type": "address"
        }
      ],
      "name": "transferOwnership",
      "outputs": [],
      "stateMutability": "nonpayable",
      "type": "function"
    }
  ],
  "bytecode": {
    "object": "0x608060405234801561001057600080fd5b50604051610a59380380610a5983398101604081905261002f916101a0565b61003833610047565b61004181610097565b506101d0565b600080546001600160a01b038381166001600160a01b0319831681178455604051919092169283917f8be0079c531659141344cd1fd0a4f28419497f9722a3daafe3b4186f6b6457e09190a35050565b61009f610144565b6001600160a01b0381166100fa5760405162461bcd60e51b815260206004820152601960248201527f4d6173746572436f70792063616e6e6f74206265207a65726f0000000000000060448201526064015b60405180910390fd5b600180546001600160a01b0319166001600160a01b0383169081179091556040517f30909084afc859121ffc3a5aef7fe37c540a9a1ef60bd4d8dcdb76376fadf9de90600090a250565b6000546001600160a01b0316331461019e5760405162461bcd60e51b815260206004820181905260248201527f4f776e61626c653a2063616c6c6572206973206e6f7420746865206f776e657260448201526064016100f1565b565b6000602082840312156101b257600080fd5b81516001600160a01b03811681146101c957600080fd5b9392505050565b61087a806101df6000396000f3fe608060405234801561001057600080fd5b50600436106100625760003560e01c8063715018a6146100675780638da5cb5b14610071578063a619486e1461009a578063cf497e6c146100ad578063e95cd051146100c0578063f2fde38b146100d3575b600080fd5b61006f6100e6565b005b6000546001600160a01b03165b6040516001600160a01b03909116815260200160405180910390f35b60015461007e906001600160a01b031681565b61006f6100bb366004610611565b6100fa565b61007e6100ce36600461062c565b6101a7565b61006f6100e1366004610611565b61021f565b6100ee610298565b6100f860006102f2565b565b610102610298565b6001600160a01b03811661015d5760405162461bcd60e51b815260206004820152601960248201527f4d6173746572436f70792063616e6e6f74206265207a65726f0000000000000060448201526064015b60405180910390fd5b600180546001600160a01b0319166001600160a01b0383169081179091556040517f30909084afc859121ffc3a5aef7fe37c540a9a1ef60bd4d8dcdb76376fadf9de90600090a250565b6000808b8b8e8c8c8c8c8c8c8c8c6040516024016101cf9b9a999897969594939291906106ff565b60408051601f198184030181529190526020810180516001600160e01b0316630628fcd560e31b179052905061020e818c8f8d8d8d8d8d8d8d8d610342565b9d9c50505050505050505050505050565b610227610298565b6001600160a01b03811661028c5760405162461bcd60e51b815260206004820152602660248201527f4f776e61626c653a206e6577206f776e657220697320746865207a65726f206160448201526564647265737360d01b6064820152608401610154565b610295816102f2565b50565b6000546001600160a01b031633146100f85760405162461bcd60e51b815260206004820181905260248201527f4f776e61626c653a2063616c6c6572206973206e6f7420746865206f776e65726044820152606401610154565b600080546001600160a01b038381166001600160a01b0319831681178455604051919092169283917f8be0079c531659141344cd1fd0a4f28419497f9722a3daafe3b4186f6b6457e09190a35050565b60015460009061035a906001600160a01b03166103d9565b9050610366818d61042b565b508a6001600160a01b03168c80519060200120826001600160a01b03167f5dc8081a59af8558f066632d894f2447785b2967a1d042627a424360e5bb882e8d8d8d8d8d8d8d8d8d6040516103c299989796959493929190610772565b60405180910390a49b9a5050505050505050505050565b6000808260601b9050604051733d602d80600a3d3981f3363d3d373d3d3d363d7360601b81528160148201526e5af43d82803e903d91602b57fd5bf360881b60288201526037816000f0949350505050565b606061046d83836040518060400160405280601e81526020017f416464726573733a206c6f772d6c6576656c2063616c6c206661696c65640000815250610474565b9392505050565b6060610483848460008561048b565b949350505050565b6060824710156104ec5760405162461bcd60e51b815260206004820152602660248201527f416464726573733a20696e73756666696369656e742062616c616e636520666f6044820152651c8818d85b1b60d21b6064820152608401610154565b6001600160a01b0385163b6105435760405162461bcd60e51b815260206004820152601d60248201527f416464726573733a2063616c6c20746f206e6f6e2d636f6e74726163740000006044820152606401610154565b600080866001600160a01b0316858760405161055f91906107f5565b60006040518083038185875af1925050503d806000811461059c576040519150601f19603f3d011682016040523d82523d6000602084013e6105a1565b606091505b50915091506105b18282866105bc565b979650505050505050565b606083156105cb57508161046d565b8251156105db5782518084602001fd5b8160405162461bcd60e51b81526004016101549190610811565b80356001600160a01b038116811461060c57600080fd5b919050565b60006020828403121561062357600080fd5b61046d826105f5565b60008060008060008060008060008060006101608c8e03121561064e57600080fd5b6106578c6105f5565b9a5061066560208d016105f5565b995061067360408d016105f5565b985060608c0135975060808c0135965060a08c0135955060c08c0135945060e08c013593506101008c013592506101208c0135600381106106b357600080fd5b91506101408c013580151581146106c957600080fd5b809150509295989b509295989b9093969950565b600381106106fb57634e487b7160e01b600052602160045260246000fd5b9052565b6001600160a01b038c811682528b811660208301528a166040820152606081018990526080810188905260a0810187905260c0810186905260e08101859052610100810184905261016081016107596101208301856106dd565b8215156101408301529c9b505050505050505050505050565b6001600160a01b038a1681526020810189905260408101889052606081018790526080810186905260a0810185905260c0810184905261012081016107ba60e08301856106dd565b8215156101008301529a9950505050505050505050565b60005b838110156107ec5781810151838201526020016107d4565b50506000910152565b600082516108078184602087016107d1565b9190910192915050565b60208152600082518060208401526108308160408501602087016107d1565b601f01601f1916919091016040019291505056fea2646970667358221220595957faf527e8693a6fc8ffe2ec9917ce1de84edeb2645c56fc08cbcd6e245064736f6c63430008100033",
    "linkReferences": {}
  },
  "methodIdentifiers": {
    "createTokenLock(address,address,address,uint256,uint256,uint256,uint256,uint256,uint256,uint8,bool)": "e95cd051",
    "masterCopy()": "a619486e",
    "owner()": "8da5cb5b",
    "renounceOwnership()": "715018a6",
    "setMasterCopy(address)": "cf497e6c",
    "transferOwnership(address)": "f2fde38b"
  },
  "id": 22
}