{
  "abi": [
    {
      "inputs": [
        {
          "internalType": "address",
          "name": "_governance",
          "type": "address"
        }
      ],
      "stateMutability": "nonpayable",
      "type": "constructor"
    },
    {
      "inputs": [],
      "name": "ZeroAmount",
      "type": "error"
    },
    {
      "anonymous": false,
      "inputs": [
        {
          "indexed": true,
          "internalType": "address",
          "name": "owner",
          "type": "address"
        },
        {
          "indexed": true,
          "internalType": "address",
          "name": "spender",
          "type": "address"
        },
        {
          "indexed": false,
          "internalType": "uint256",
          "name": "value",
          "type": "uint256"
        }
      ],
      "name": "Approval",
      "type": "event"
    },
    {
      "anonymous": false,
      "inputs": [
        {
          "indexed": true,
          "internalType": "address",
          "name": "delegator",
          "type": "address"
        },
        {
          "indexed": true,
          "internalType": "address",
          "name": "fromDelegate",
          "type": "address"
        },
        {
          "indexed": true,
          "internalType": "address",
          "name": "toDelegate",
          "type": "address"
        }
      ],
      "name": "DelegateChanged",
      "type": "event"
    },
    {
      "anonymous": false,
      "inputs": [
        {
          "indexed": true,
          "internalType": "address",
          "name": "delegate",
          "type": "address"
        },
        {
          "indexed": false,
          "internalType": "uint256",
          "name": "previousBalance",
          "type": "uint256"
        },
        {
          "indexed": false,
          "internalType": "uint256",
          "name": "newBalance",
          "type": "uint256"
        }
      ],
      "name": "DelegateVotesChanged",
      "type": "event"
    },
    {
      "anonymous": false,
      "inputs": [
        {
          "indexed": true,
          "internalType": "address",
          "name": "minter",
          "type": "address"
        },
        {
          "indexed": false,
          "internalType": "uint256",
          "name": "seedAmount",
          "type": "uint256"
        }
      ],
      "name": "MinterSet",
      "type": "event"
    },
    {
      "anonymous": false,
      "inputs": [
        {
          "indexed": true,
          "internalType": "address",
          "name": "previousOwner",
          "type": "address"
        },
        {
          "indexed": true,
          "internalType": "address",
          "name": "newOwner",
          "type": "address"
        }
      ],
      "name": "OwnershipTransferred",
      "type": "event"
    },
    {
      "anonymous": false,
      "inputs": [
        {
          "indexed": true,
          "internalType": "address",
          "name": "from",
          "type": "address"
        },
        {
          "indexed": true,
          "internalType": "address",
          "name": "to",
          "type": "address"
        },
        {
          "indexed": false,
          "internalType": "uint256",
          "name": "value",
          "type": "uint256"
        }
      ],
      "name": "Transfer",
      "type": "event"
    },
    {
      "inputs": [],
      "name": "DOMAIN_SEPARATOR",
      "outputs": [
        {
          "internalType": "bytes32",
          "name": "",
          "type": "bytes32"
        }
      ],
      "stateMutability": "view",
      "type": "function"
    },
    {
      "inputs": [
        {
          "internalType": "address",
          "name": "owner",
          "type": "address"
        },
        {
          "internalType": "address",
          "name": "spender",
          "type": "address"
        }
      ],
      "name": "allowance",
      "outputs": [
        {
          "internalType": "uint256",
          "name": "",
          "type": "uint256"
        }
      ],
      "stateMutability": "view",
      "type": "function"
    },
    {
      "inputs": [
        {
          "internalType": "address",
          "name": "spender",
          "type": "address"
        },
        {
          "internalType": "uint256",
          "name": "amount",
          "type": "uint256"
        }
      ],
      "name": "approve",
      "outputs": [
        {
          "internalType": "bool",
          "name": "",
          "type": "bool"
        }
      ],
      "stateMutability": "nonpayable",
      "type": "function"
    },
    {
      "inputs": [
        {
          "internalType": "address",
          "name": "account",
          "type": "address"
        }
      ],
      "name": "balanceOf",
      "outputs": [
        {
          "internalType": "uint256",
          "name": "",
          "type": "uint256"
        }
      ],
      "stateMutability": "view",
      "type": "function"
    },
    {
      "inputs": [
        {
          "internalType": "uint256",
          "name": "_amount",
          "type": "uint256"
        }
      ],
      "name": "burn",
      "outputs": [],
      "stateMutability": "nonpayable",
      "type": "function"
    },
    {
      "inputs": [],
      "name": "cap",
      "outputs": [
        {
          "internalType": "uint256",
          "name": "",
          "type": "uint256"
        }
      ],
      "stateMutability": "view",
      "type": "function"
    },
    {
      "inputs": [
        {
          "internalType": "address",
          "name": "account",
          "type": "address"
        },
        {
          "internalType": "uint32",
          "name": "pos",
          "type": "uint32"
        }
      ],
      "name": "checkpoints",
      "outputs": [
        {
          "components": [
            {
              "internalType": "uint32",
              "name": "fromBlock",
              "type": "uint32"
            },
            {
              "internalType": "uint224",
              "name": "votes",
              "type": "uint224"
            }
          ],
          "internalType": "struct ERC20Votes.Checkpoint",
          "name": "",
          "type": "tuple"
        }
      ],
      "stateMutability": "view",
      "type": "function"
    },
    {
      "inputs": [],
      "name": "decimals",
      "outputs": [
        {
          "internalType": "uint8",
          "name": "",
          "type": "uint8"
        }
      ],
      "stateMutability": "view",
      "type": "function"
    },
    {
      "inputs": [
        {
          "internalType": "address",
          "name": "spender",
          "type": "address"
        },
        {
          "internalType": "uint256",
          "name": "subtractedValue",
          "type": "uint256"
        }
      ],
      "name": "decreaseAllowance",
      "outputs": [
        {
          "internalType": "bool",
          "name": "",
          "type": "bool"
        }
      ],
      "stateMutability": "nonpayable",
      "type": "function"
    },
    {
      "inputs": [
        {
          "internalType": "address",
          "name": "delegatee",
          "type": "address"
        }
      ],
      "name": "delegate",
      "outputs": [],
      "stateMutability": "nonpayable",
      "type": "function"
    },
    {
      "inputs": [
        {
          "internalType": "address",
          "name": "delegatee",
          "type": "address"
        },
        {
          "internalType": "uint256",
          "name": "nonce",
          "type": "uint256"
        },
        {
          "internalType": "uint256",
          "name": "expiry",
          "type": "uint256"
        },
        {
          "internalType": "uint8",
          "name": "v",
          "type": "uint8"
        },
        {
          "internalType": "bytes32",
          "name": "r",
          "type": "bytes32"
        },
        {
          "internalType": "bytes32",
          "name": "s",
          "type": "bytes32"
        }
      ],
      "name": "delegateBySig",
      "outputs": [],
      "stateMutability": "nonpayable",
      "type": "function"
    },
    {
      "inputs": [
        {
          "internalType": "address",
          "name": "account",
          "type": "address"
        }
      ],
      "name": "delegates",
      "outputs": [
        {
          "internalType": "address",
          "name": "",
          "type": "address"
        }
      ],
      "stateMutability": "view",
      "type": "function"
    },
    {
      "inputs": [
        {
          "internalType": "uint256",
          "name": "blockNumber",
          "type": "uint256"
        }
      ],
      "name": "getPastTotalSupply",
      "outputs": [
        {
          "internalType": "uint256",
          "name": "",
          "type": "uint256"
        }
      ],
      "stateMutability": "view",
      "type": "function"
    },
    {
      "inputs": [
        {
          "internalType": "address",
          "name": "account",
          "type": "address"
        },
        {
          "internalType": "uint256",
          "name": "blockNumber",
          "type": "uint256"
        }
      ],
      "name": "getPastVotes",
      "outputs": [
        {
          "internalType": "uint256",
          "name": "",
          "type": "uint256"
        }
      ],
      "stateMutability": "view",
      "type": "function"
    },
    {
      "inputs": [
        {
          "internalType": "address",
          "name": "account",
          "type": "address"
        }
      ],
      "name": "getVotes",
      "outputs": [
        {
          "internalType": "uint256",
          "name": "",
          "type": "uint256"
        }
      ],
      "stateMutability": "view",
      "type": "function"
    },
    {
      "inputs": [
        {
          "internalType": "address",
          "name": "spender",
          "type": "address"
        },
        {
          "internalType": "uint256",
          "name": "addedValue",
          "type": "uint256"
        }
      ],
      "name": "increaseAllowance",
      "outputs": [
        {
          "internalType": "bool",
          "name": "",
          "type": "bool"
        }
      ],
      "stateMutability": "nonpayable",
      "type": "function"
    },
    {
      "inputs": [
        {
          "internalType": "address",
          "name": "_account",
          "type": "address"
        },
        {
          "internalType": "uint256",
          "name": "_amount",
          "type": "uint256"
        }
      ],
      "name": "mint",
      "outputs": [],
      "stateMutability": "nonpayable",
      "type": "function"
    },
    {
      "inputs": [
        {
          "internalType": "address",
          "name": "",
          "type": "address"
        }
      ],
      "name": "minters",
      "outputs": [
        {
          "internalType": "uint256",
          "name": "",
          "type": "uint256"
        }
      ],
      "stateMutability": "view",
      "type": "function"
    },
    {
      "inputs": [],
      "name": "name",
      "outputs": [
        {
          "internalType": "string",
          "name": "",
          "type": "string"
        }
      ],
      "stateMutability": "view",
      "type": "function"
    },
    {
      "inputs": [
        {
          "internalType": "address",
          "name": "owner",
          "type": "address"
        }
      ],
      "name": "nonces",
      "outputs": [
        {
          "internalType": "uint256",
          "name": "",
          "type": "uint256"
        }
      ],
      "stateMutability": "view",
      "type": "function"
    },
    {
      "inputs": [
        {
          "internalType": "address",
          "name": "account",
          "type": "address"
        }
      ],
      "name": "numCheckpoints",
      "outputs": [
        {
          "internalType": "uint32",
          "name": "",
          "type": "uint32"
        }
      ],
      "stateMutability": "view",
      "type": "function"
    },
    {
      "inputs": [],
      "name": "owner",
      "outputs": [
        {
          "internalType": "address",
          "name": "",
          "type": "address"
        }
      ],
      "stateMutability": "view",
      "type": "function"
    },
    {
      "inputs": [
        {
          "internalType": "address",
          "name": "owner",
          "type": "address"
        },
        {
          "internalType": "address",
          "name": "spender",
          "type": "address"
        },
        {
          "internalType": "uint256",
          "name": "value",
          "type": "uint256"
        },
        {
          "internalType": "uint256",
          "name": "deadline",
          "type": "uint256"
        },
        {
          "internalType": "uint8",
          "name": "v",
          "type": "uint8"
        },
        {
          "internalType": "bytes32",
          "name": "r",
          "type": "bytes32"
        },
        {
          "internalType": "bytes32",
          "name": "s",
          "type": "bytes32"
        }
      ],
      "name": "permit",
      "outputs": [],
      "stateMutability": "nonpayable",
      "type": "function"
    },
    {
      "inputs": [],
      "name": "renounceOwnership",
      "outputs": [],
      "stateMutability": "nonpayable",
      "type": "function"
    },
    {
      "inputs": [
        {
          "internalType": "address",
          "name": "_minter",
          "type": "address"
        },
        {
          "internalType": "uint256",
          "name": "_seedAmount",
          "type": "uint256"
        }
      ],
      "name": "setMinter",
      "outputs": [],
      "stateMutability": "nonpayable",
      "type": "function"
    },
    {
      "inputs": [],
      "name": "symbol",
      "outputs": [
        {
          "internalType": "string",
          "name": "",
          "type": "string"
        }
      ],
      "stateMutability": "view",
      "type": "function"
    },
    {
      "inputs": [],
      "name": "totalSupply",
      "outputs": [
        {
          "internalType": "uint256",
          "name": "",
          "type": "uint256"
        }
      ],
      "stateMutability": "view",
      "type": "function"
    },
    {
      "inputs": [
        {
          "internalType": "address",
          "name": "to",
          "type": "address"
        },
        {
          "internalType": "uint256",
          "name": "amount",
          "type": "uint256"
        }
      ],
      "name": "transfer",
      "outputs": [
        {
          "internalType": "bool",
          "name": "",
          "type": "bool"
        }
      ],
      "stateMutability": "nonpayable",
      "type": "function"
    },
    {
      "inputs": [
        {
          "internalType": "address",
          "name": "from",
          "type": "address"
        },
        {
          "internalType": "address",
          "name": "to",
          "type": "address"
        },
        {
          "internalType": "uint256",
          "name": "amount",
          "type": "uint256"
        }
      ],
      "name": "transferFrom",
      "outputs": [
        {
          "internalType": "bool",
          "name": "",
          "type": "bool"
        }
      ],
      "stateMutability": "nonpayable",
      "type": "function"
    },
    {
      "inputs": [
        {
          "internalType": "address",
          "name": "newOwner",
          "type": "address"
        }
      ],
      "name": "transferOwnership",
      "outputs": [],
      "stateMutability": "nonpayable",
      "type": "function"
    }
  ],
  "bytecode": {
    "object": "0x6101606040523480156200001257600080fd5b50604051620025643803806200256483398101604081905262000035916200023a565b6a084595161401484a0000006040518060400160405280600c81526020016b686174732e66696e616e636560a01b81525080604051806040016040528060018152602001603160f81b8152506040518060400160405280600c81526020016b686174732e66696e616e636560a01b8152506040518060400160405280600381526020016212105560ea1b8152508160039081620000d3919062000311565b506004620000e2828262000311565b5050825160209384012082519284019290922060e08390526101008190524660a0818152604080517f8b73c3c69bb8fe3d512ecc4cf759cc79239f7b179b0ffacaa9a75d522b39400f818901819052818301979097526060810194909452608080850193909352308483018190528151808603909301835260c09485019091528151919096012090529290925261012052505080620001c75760405162461bcd60e51b815260206004820152601560248201527f45524332304361707065643a2063617020697320300000000000000000000000604482015260640160405180910390fd5b61014052620001d633620001e8565b620001e181620001e8565b50620003dd565b600a80546001600160a01b038381166001600160a01b0319831681179093556040519116919082907f8be0079c531659141344cd1fd0a4f28419497f9722a3daafe3b4186f6b6457e090600090a35050565b6000602082840312156200024d57600080fd5b81516001600160a01b03811681146200026557600080fd5b9392505050565b634e487b7160e01b600052604160045260246000fd5b600181811c908216806200029757607f821691505b602082108103620002b857634e487b7160e01b600052602260045260246000fd5b50919050565b601f8211156200030c57600081815260208120601f850160051c81016020861015620002e75750805b601f850160051c820191505b818110156200030857828155600101620002f3565b5050505b505050565b81516001600160401b038111156200032d576200032d6200026c565b62000345816200033e845462000282565b84620002be565b602080601f8311600181146200037d5760008415620003645750858301515b600019600386901b1c1916600185901b17855562000308565b600085815260208120601f198616915b82811015620003ae578886015182559484019460019091019084016200038d565b5085821015620003cd5787850151600019600388901b60f8161c191681555b5050505050600190811b01905550565b60805160a05160c05160e0516101005161012051610140516121256200043f600039600081816102560152611472015260006110ab015260006110fa015260006110d50152600061102e015260006110580152600061108201526121256000f3fe608060405234801561001057600080fd5b50600436106101da5760003560e01c8063715018a611610104578063a457c2d7116100a2578063dd62ed3e11610071578063dd62ed3e14610431578063f1127ed814610444578063f2fde38b14610481578063f46eccc41461049457600080fd5b8063a457c2d7146103e5578063a9059cbb146103f8578063c3cda5201461040b578063d505accf1461041e57600080fd5b80638e539e8c116100de5780638e539e8c146103a457806395d89b41146103b75780639ab24eb0146103bf5780639ce38998146103d257600080fd5b8063715018a6146103785780637ecebe00146103805780638da5cb5b1461039357600080fd5b8063395093511161017c578063587cde1e1161014b578063587cde1e146102d05780635c19a95c146103145780636fcfff451461032757806370a082311461034f57600080fd5b806339509351146102825780633a46b1a81461029557806340c10f19146102a857806342966c68146102bd57600080fd5b806323b872dd116101b857806323b872dd14610232578063313ce56714610245578063355274ea146102545780633644e5151461027a57600080fd5b806306fdde03146101df578063095ea7b3146101fd57806318160ddd14610220575b600080fd5b6101e76104b4565b6040516101f49190611de7565b60405180910390f35b61021061020b366004611e51565b610546565b60405190151581526020016101f4565b6002545b6040519081526020016101f4565b610210610240366004611e7b565b610560565b604051601281526020016101f4565b7f0000000000000000000000000000000000000000000000000000000000000000610224565b610224610584565b610210610290366004611e51565b610593565b6102246102a3366004611e51565b6105b5565b6102bb6102b6366004611e51565b610634565b005b6102bb6102cb366004611eb7565b610688565b6102fc6102de366004611ed0565b6001600160a01b039081166000908152600760205260409020541690565b6040516001600160a01b0390911681526020016101f4565b6102bb610322366004611ed0565b6106b6565b61033a610335366004611ed0565b6106c0565b60405163ffffffff90911681526020016101f4565b61022461035d366004611ed0565b6001600160a01b031660009081526020819052604090205490565b6102bb6106e2565b61022461038e366004611ed0565b6106f6565b600a546001600160a01b03166102fc565b6102246103b2366004611eb7565b610714565b6101e7610770565b6102246103cd366004611ed0565b61077f565b6102bb6103e0366004611e51565b610806565b6102106103f3366004611e51565b610867565b610210610406366004611e51565b6108e2565b6102bb610419366004611efc565b6108f0565b6102bb61042c366004611f54565b610a26565b61022461043f366004611fbe565b610b8a565b610457610452366004611ff1565b610bb5565b60408051825163ffffffff1681526020928301516001600160e01b031692810192909252016101f4565b6102bb61048f366004611ed0565b610c39565b6102246104a2366004611ed0565b600b6020526000908152604090205481565b6060600380546104c390612031565b80601f01602080910402602001604051908101604052809291908181526020018280546104ef90612031565b801561053c5780601f106105115761010080835404028352916020019161053c565b820191906000526020600020905b81548152906001019060200180831161051f57829003601f168201915b5050505050905090565b600033610554818585610caf565b60019150505b92915050565b60003361056e858285610dd3565b610579858585610e4d565b506001949350505050565b600061058e611021565b905090565b6000336105548185856105a68383610b8a565b6105b0919061207b565b610caf565b600043821061060b5760405162461bcd60e51b815260206004820152601f60248201527f4552433230566f7465733a20626c6f636b206e6f7420796574206d696e65640060448201526064015b60405180910390fd5b6001600160a01b038316600090815260086020526040902061062d9083611148565b9392505050565b8060000361065557604051631f2a200560e01b815260040160405180910390fd5b336000908152600b60205260408120805483929061067490849061208e565b9091555061068490508282611205565b5050565b806000036106a957604051631f2a200560e01b815260040160405180910390fd5b6106b3338261120f565b50565b6106b33382611219565b6001600160a01b03811660009081526008602052604081205461055a90611292565b6106ea6112fb565b6106f46000611355565b565b6001600160a01b03811660009081526005602052604081205461055a565b60004382106107655760405162461bcd60e51b815260206004820152601f60248201527f4552433230566f7465733a20626c6f636b206e6f7420796574206d696e6564006044820152606401610602565b61055a600983611148565b6060600480546104c390612031565b6001600160a01b03811660009081526008602052604081205480156107f3576001600160a01b03831660009081526008602052604090206107c160018361208e565b815481106107d1576107d16120a1565b60009182526020909120015464010000000090046001600160e01b03166107f6565b60005b6001600160e01b03169392505050565b61080e6112fb565b6001600160a01b0382166000818152600b602052604090819020839055517f7359df4a2ac9e38fb7388b0452d6e67f07baf2bb35b06645a940da3204a726fc9061085b9084815260200190565b60405180910390a25050565b600033816108758286610b8a565b9050838110156108d55760405162461bcd60e51b815260206004820152602560248201527f45524332303a2064656372656173656420616c6c6f77616e63652062656c6f77604482015264207a65726f60d81b6064820152608401610602565b6105798286868403610caf565b600033610554818585610e4d565b834211156109405760405162461bcd60e51b815260206004820152601d60248201527f4552433230566f7465733a207369676e617475726520657870697265640000006044820152606401610602565b604080517fe48329057bfd03d55e49b547132e39cffd9c1820ad7b9d4c5307691425d15adf60208201526001600160a01b0388169181019190915260608101869052608081018590526000906109ba906109b29060a001604051602081830303815290604052805190602001206113a7565b8585856113f5565b90506109c58161141d565b8614610a135760405162461bcd60e51b815260206004820152601960248201527f4552433230566f7465733a20696e76616c6964206e6f6e6365000000000000006044820152606401610602565b610a1d8188611219565b50505050505050565b83421115610a765760405162461bcd60e51b815260206004820152601d60248201527f45524332305065726d69743a206578706972656420646561646c696e650000006044820152606401610602565b60007f6e71edae12b1b97f4d1f60370fef10105fa2faae0126114a169c64845d6126c9888888610aa58c61141d565b6040805160208101969096526001600160a01b0394851690860152929091166060840152608083015260a082015260c0810186905260e0016040516020818303038152906040528051906020012090506000610b00826113a7565b90506000610b10828787876113f5565b9050896001600160a01b0316816001600160a01b031614610b735760405162461bcd60e51b815260206004820152601e60248201527f45524332305065726d69743a20696e76616c6964207369676e617475726500006044820152606401610602565b610b7e8a8a8a610caf565b50505050505050505050565b6001600160a01b03918216600090815260016020908152604080832093909416825291909152205490565b60408051808201909152600080825260208201526001600160a01b0383166000908152600860205260409020805463ffffffff8416908110610bf957610bf96120a1565b60009182526020918290206040805180820190915291015463ffffffff8116825264010000000090046001600160e01b0316918101919091529392505050565b610c416112fb565b6001600160a01b038116610ca65760405162461bcd60e51b815260206004820152602660248201527f4f776e61626c653a206e6577206f776e657220697320746865207a65726f206160448201526564647265737360d01b6064820152608401610602565b6106b381611355565b6001600160a01b038316610d115760405162461bcd60e51b8152602060048201526024808201527f45524332303a20617070726f76652066726f6d20746865207a65726f206164646044820152637265737360e01b6064820152608401610602565b6001600160a01b038216610d725760405162461bcd60e51b815260206004820152602260248201527f45524332303a20617070726f766520746f20746865207a65726f206164647265604482015261737360f01b6064820152608401610602565b6001600160a01b0383811660008181526001602090815260408083209487168084529482529182902085905590518481527f8c5be1e5ebec7d5bd14f71427d1e84f3dd0314c0f7b2291e5b200ac8c7c3b925910160405180910390a3505050565b6000610ddf8484610b8a565b90506000198114610e475781811015610e3a5760405162461bcd60e51b815260206004820152601d60248201527f45524332303a20696e73756666696369656e7420616c6c6f77616e63650000006044820152606401610602565b610e478484848403610caf565b50505050565b6001600160a01b038316610eb15760405162461bcd60e51b815260206004820152602560248201527f45524332303a207472616e736665722066726f6d20746865207a65726f206164604482015264647265737360d81b6064820152608401610602565b6001600160a01b038216610f135760405162461bcd60e51b815260206004820152602360248201527f45524332303a207472616e7366657220746f20746865207a65726f206164647260448201526265737360e81b6064820152608401610602565b6001600160a01b03831660009081526020819052604090205481811015610f8b5760405162461bcd60e51b815260206004820152602660248201527f45524332303a207472616e7366657220616d6f756e7420657863656564732062604482015265616c616e636560d01b6064820152608401610602565b6001600160a01b03808516600090815260208190526040808220858503905591851681529081208054849290610fc290849061207b565b92505081905550826001600160a01b0316846001600160a01b03167fddf252ad1be2c89b69c2b068fc378daa952ba7f163c4a11628f55a4df523b3ef8460405161100e91815260200190565b60405180910390a3610e4784848461144a565b6000306001600160a01b037f00000000000000000000000000000000000000000000000000000000000000001614801561107a57507f000000000000000000000000000000000000000000000000000000000000000046145b156110a457507f000000000000000000000000000000000000000000000000000000000000000090565b50604080517f00000000000000000000000000000000000000000000000000000000000000006020808301919091527f0000000000000000000000000000000000000000000000000000000000000000828401527f000000000000000000000000000000000000000000000000000000000000000060608301524660808301523060a0808401919091528351808403909101815260c0909201909252805191012090565b8154600090815b818110156111ac5760006111638284611455565b905084868281548110611178576111786120a1565b60009182526020909120015463ffffffff161115611198578092506111a6565b6111a381600161207b565b91505b5061114f565b81156111f057846111be60018461208e565b815481106111ce576111ce6120a1565b60009182526020909120015464010000000090046001600160e01b03166111f3565b60005b6001600160e01b031695945050505050565b6106848282611470565b61068482826114fd565b6001600160a01b038281166000818152600760208181526040808420805485845282862054949093528787166001600160a01b03198416811790915590519190951694919391928592917f3134e8a2e6d97e929a7e54011ea5485d7d196dd5f0ba4d4ef95803e8e3fc257f9190a4610e47828483611515565b600063ffffffff8211156112f75760405162461bcd60e51b815260206004820152602660248201527f53616665436173743a2076616c756520646f65736e27742066697420696e203360448201526532206269747360d01b6064820152608401610602565b5090565b600a546001600160a01b031633146106f45760405162461bcd60e51b815260206004820181905260248201527f4f776e61626c653a2063616c6c6572206973206e6f7420746865206f776e65726044820152606401610602565b600a80546001600160a01b038381166001600160a01b0319831681179093556040519116919082907f8be0079c531659141344cd1fd0a4f28419497f9722a3daafe3b4186f6b6457e090600090a35050565b600061055a6113b4611021565b8360405161190160f01b6020820152602281018390526042810182905260009060620160405160208183030381529060405280519060200120905092915050565b600080600061140687878787611652565b915091506114138161173f565b5095945050505050565b6001600160a01b03811660009081526005602052604090208054600181018255905b50919050565b505050565b6114458383836118f5565b600061146460028484186120b7565b61062d9084841661207b565b7f00000000000000000000000000000000000000000000000000000000000000008161149b60025490565b6114a5919061207b565b11156114f35760405162461bcd60e51b815260206004820152601960248201527f45524332304361707065643a20636170206578636565646564000000000000006044820152606401610602565b6106848282611927565b61150782826119b1565b610e476009611b0683611b12565b816001600160a01b0316836001600160a01b0316141580156115375750600081115b15611445576001600160a01b038316156115c5576001600160a01b0383166000908152600860205260408120819061157290611b0685611b12565b91509150846001600160a01b03167fdec2bacdd2f05b59de34da9b523dff8be42e5e38e818c82fdb0bae774387a72483836040516115ba929190918252602082015260400190565b60405180910390a250505b6001600160a01b03821615611445576001600160a01b038216600090815260086020526040812081906115fb90611c8b85611b12565b91509150836001600160a01b03167fdec2bacdd2f05b59de34da9b523dff8be42e5e38e818c82fdb0bae774387a7248383604051611643929190918252602082015260400190565b60405180910390a25050505050565b6000807f7fffffffffffffffffffffffffffffff5d576e7357a4501ddfe92f46681b20a08311156116895750600090506003611736565b8460ff16601b141580156116a157508460ff16601c14155b156116b25750600090506004611736565b6040805160008082526020820180845289905260ff881692820192909252606081018690526080810185905260019060a0016020604051602081039080840390855afa158015611706573d6000803e3d6000fd5b5050604051601f1901519150506001600160a01b03811661172f57600060019250925050611736565b9150600090505b94509492505050565b6000816004811115611753576117536120d9565b0361175b5750565b600181600481111561176f5761176f6120d9565b036117bc5760405162461bcd60e51b815260206004820152601860248201527f45434453413a20696e76616c6964207369676e617475726500000000000000006044820152606401610602565b60028160048111156117d0576117d06120d9565b0361181d5760405162461bcd60e51b815260206004820152601f60248201527f45434453413a20696e76616c6964207369676e6174757265206c656e677468006044820152606401610602565b6003816004811115611831576118316120d9565b036118895760405162461bcd60e51b815260206004820152602260248201527f45434453413a20696e76616c6964207369676e6174757265202773272076616c604482015261756560f01b6064820152608401610602565b600481600481111561189d5761189d6120d9565b036106b35760405162461bcd60e51b815260206004820152602260248201527f45434453413a20696e76616c6964207369676e6174757265202776272076616c604482015261756560f01b6064820152608401610602565b6001600160a01b0383811660009081526007602052604080822054858416835291205461144592918216911683611515565b6119318282611c97565b6002546001600160e01b0310156119a35760405162461bcd60e51b815260206004820152603060248201527f4552433230566f7465733a20746f74616c20737570706c79207269736b73206f60448201526f766572666c6f77696e6720766f74657360801b6064820152608401610602565b610e476009611c8b83611b12565b6001600160a01b038216611a115760405162461bcd60e51b815260206004820152602160248201527f45524332303a206275726e2066726f6d20746865207a65726f206164647265736044820152607360f81b6064820152608401610602565b6001600160a01b03821660009081526020819052604090205481811015611a855760405162461bcd60e51b815260206004820152602260248201527f45524332303a206275726e20616d6f756e7420657863656564732062616c616e604482015261636560f01b6064820152608401610602565b6001600160a01b0383166000908152602081905260408120838303905560028054849290611ab490849061208e565b90915550506040518281526000906001600160a01b038516907fddf252ad1be2c89b69c2b068fc378daa952ba7f163c4a11628f55a4df523b3ef9060200160405180910390a36114458360008461144a565b600061062d828461208e565b825460009081908015611b5d5785611b2b60018361208e565b81548110611b3b57611b3b6120a1565b60009182526020909120015464010000000090046001600160e01b0316611b60565b60005b6001600160e01b03169250611b7983858763ffffffff16565b9150600081118015611bb757504386611b9360018461208e565b81548110611ba357611ba36120a1565b60009182526020909120015463ffffffff16145b15611c1757611bc582611d7e565b86611bd160018461208e565b81548110611be157611be16120a1565b9060005260206000200160000160046101000a8154816001600160e01b0302191690836001600160e01b03160217905550611c82565b856040518060400160405280611c2c43611292565b63ffffffff168152602001611c4085611d7e565b6001600160e01b0390811690915282546001810184556000938452602093849020835194909301519091166401000000000263ffffffff909316929092179101555b50935093915050565b600061062d828461207b565b6001600160a01b038216611ced5760405162461bcd60e51b815260206004820152601f60248201527f45524332303a206d696e7420746f20746865207a65726f2061646472657373006044820152606401610602565b8060026000828254611cff919061207b565b90915550506001600160a01b03821660009081526020819052604081208054839290611d2c90849061207b565b90915550506040518181526001600160a01b038316906000907fddf252ad1be2c89b69c2b068fc378daa952ba7f163c4a11628f55a4df523b3ef9060200160405180910390a36106846000838361144a565b60006001600160e01b038211156112f75760405162461bcd60e51b815260206004820152602760248201527f53616665436173743a2076616c756520646f65736e27742066697420696e20326044820152663234206269747360c81b6064820152608401610602565b600060208083528351808285015260005b81811015611e1457858101830151858201604001528201611df8565b506000604082860101526040601f19601f8301168501019250505092915050565b80356001600160a01b0381168114611e4c57600080fd5b919050565b60008060408385031215611e6457600080fd5b611e6d83611e35565b946020939093013593505050565b600080600060608486031215611e9057600080fd5b611e9984611e35565b9250611ea760208501611e35565b9150604084013590509250925092565b600060208284031215611ec957600080fd5b5035919050565b600060208284031215611ee257600080fd5b61062d82611e35565b803560ff81168114611e4c57600080fd5b60008060008060008060c08789031215611f1557600080fd5b611f1e87611e35565b95506020870135945060408701359350611f3a60608801611eeb565b92506080870135915060a087013590509295509295509295565b600080600080600080600060e0888a031215611f6f57600080fd5b611f7888611e35565b9650611f8660208901611e35565b95506040880135945060608801359350611fa260808901611eeb565b925060a0880135915060c0880135905092959891949750929550565b60008060408385031215611fd157600080fd5b611fda83611e35565b9150611fe860208401611e35565b90509250929050565b6000806040838503121561200457600080fd5b61200d83611e35565b9150602083013563ffffffff8116811461202657600080fd5b809150509250929050565b600181811c9082168061204557607f821691505b60208210810361143f57634e487b7160e01b600052602260045260246000fd5b634e487b7160e01b600052601160045260246000fd5b8082018082111561055a5761055a612065565b8181038181111561055a5761055a612065565b634e487b7160e01b600052603260045260246000fd5b6000826120d457634e487b7160e01b600052601260045260246000fd5b500490565b634e487b7160e01b600052602160045260246000fdfea264697066735822122007fe1c495932cbaa3b674783c663f8ba0e7f175a2a96adf85352c8a838fcdb3264736f6c63430008100033",
    "linkReferences": {}
  },
  "methodIdentifiers": {
    "DOMAIN_SEPARATOR()": "3644e515",
    "allowance(address,address)": "dd62ed3e",
    "approve(address,uint256)": "095ea7b3",
    "balanceOf(address)": "70a08231",
    "burn(uint256)": "42966c68",
    "cap()": "355274ea",
    "checkpoints(address,uint32)": "f1127ed8",
    "decimals()": "313ce567",
    "decreaseAllowance(address,uint256)": "a457c2d7",
    "delegate(address)": "5c19a95c",
    "delegateBySig(address,uint256,uint256,uint8,bytes32,bytes32)": "c3cda520",
    "delegates(address)": "587cde1e",
    "getPastTotalSupply(uint256)": "8e539e8c",
    "getPastVotes(address,uint256)": "3a46b1a8",
    "getVotes(address)": "9ab24eb0",
    "increaseAllowance(address,uint256)": "39509351",
    "mint(address,uint256)": "40c10f19",
    "minters(address)": "f46eccc4",
    "name()": "06fdde03",
    "nonces(address)": "7ecebe00",
    "numCheckpoints(address)": "6fcfff45",
    "owner()": "8da5cb5b",
    "permit(address,address,uint256,uint256,uint8,bytes32,bytes32)": "d505accf",
    "renounceOwnership()": "715018a6",
    "setMinter(address,uint256)": "9ce38998",
    "symbol()": "95d89b41",
    "totalSupply()": "18160ddd",
    "transfer(address,uint256)": "a9059cbb",
    "transferFrom(address,address,uint256)": "23b872dd",
    "transferOwnership(address)": "f2fde38b"
  },
  "id": 1
}