{
  "address": "0x225A2A0Dea1357c808B4eb8BC423507dD4bbc401",
  "abi": [
    {
      "inputs": [],
      "name": "ActiveClaimExists",
      "type": "error"
    },
    {
      "inputs": [],
      "name": "BountyPercentageHigherThanMaxBounty",
      "type": "error"
    },
    {
      "inputs": [],
      "name": "CannotSetToPerviousRewardController",
      "type": "error"
    },
    {
      "inputs": [],
      "name": "ChallengePeriodEnded",
      "type": "error"
    },
    {
      "inputs": [],
      "name": "ChallengedClaimCanOnlyBeApprovedByArbitratorUntilChallengeTimeoutPeriod",
      "type": "error"
    },
    {
      "inputs": [],
      "name": "ClaimAlreadyChallenged",
      "type": "error"
    },
    {
      "inputs": [],
      "name": "ClaimExpired",
      "type": "error"
    },
    {
      "inputs": [],
      "name": "ClaimIdIsNotActive",
      "type": "error"
    },
    {
      "inputs": [],
      "name": "CommitteeAlreadyCheckedIn",
      "type": "error"
    },
    {
      "inputs": [],
      "name": "CommitteeBountyCannotBeMoreThanMax",
      "type": "error"
    },
    {
      "inputs": [],
      "name": "DelayPeriodForSettingMaxBountyHadNotPassed",
      "type": "error"
    },
    {
      "inputs": [],
      "name": "MaxBountyCannotBeMoreThanMaxBountyLimit",
      "type": "error"
    },
    {
      "inputs": [],
      "name": "NoActiveClaimExists",
      "type": "error"
    },
    {
      "inputs": [],
      "name": "NoPendingMaxBounty",
      "type": "error"
    },
    {
      "inputs": [],
      "name": "NotEnoughFeePaid",
      "type": "error"
    },
    {
      "inputs": [],
      "name": "NotEnoughUserBalance",
      "type": "error"
    },
    {
      "inputs": [],
      "name": "NotSafetyPeriod",
      "type": "error"
    },
    {
      "inputs": [],
      "name": "OnlyArbitratorOrRegistryOwner",
      "type": "error"
    },
    {
      "inputs": [],
      "name": "OnlyCallableByArbitratorOrAfterChallengeTimeOutPeriod",
      "type": "error"
    },
    {
      "inputs": [],
      "name": "OnlyCallableIfChallenged",
      "type": "error"
    },
    {
      "inputs": [],
      "name": "OnlyCommittee",
      "type": "error"
    },
    {
      "inputs": [],
      "name": "OnlyRegistryOwner",
      "type": "error"
    },
    {
      "inputs": [],
      "name": "PayoutMustBeUpToMaxBountyLimitOrHundredPercent",
      "type": "error"
    },
    {
      "inputs": [],
      "name": "SafetyPeriod",
      "type": "error"
    },
    {
      "inputs": [],
      "name": "SetSharesArraysMustHaveSameLength",
      "type": "error"
    },
    {
      "inputs": [],
      "name": "SystemInEmergencyPause",
      "type": "error"
    },
    {
      "inputs": [],
      "name": "TotalSplitPercentageShouldBeHundredPercent",
      "type": "error"
    },
    {
      "inputs": [],
      "name": "UnchallengedClaimCanOnlyBeApprovedAfterChallengePeriod",
      "type": "error"
    },
    {
      "inputs": [],
      "name": "VestingDurationSmallerThanPeriods",
      "type": "error"
    },
    {
      "inputs": [],
      "name": "VestingDurationTooLong",
      "type": "error"
    },
    {
      "inputs": [],
      "name": "VestingPeriodsCannotBeZero",
      "type": "error"
    },
    {
      "anonymous": false,
      "inputs": [
        {
          "indexed": true,
          "internalType": "bytes32",
          "name": "_claimId",
          "type": "bytes32"
        },
        {
          "indexed": false,
          "internalType": "address",
          "name": "_committee",
          "type": "address"
        },
        {
          "indexed": true,
          "internalType": "address",
          "name": "_approver",
          "type": "address"
        },
        {
          "indexed": true,
          "internalType": "address",
          "name": "_beneficiary",
          "type": "address"
        },
        {
          "indexed": false,
          "internalType": "uint256",
          "name": "_bountyPercentage",
          "type": "uint256"
        },
        {
          "indexed": false,
          "internalType": "address",
          "name": "_tokenLock",
          "type": "address"
        },
        {
          "components": [
            {
              "internalType": "uint256",
              "name": "hacker",
              "type": "uint256"
            },
            {
              "internalType": "uint256",
              "name": "hackerVested",
              "type": "uint256"
            },
            {
              "internalType": "uint256",
              "name": "committee",
              "type": "uint256"
            },
            {
              "internalType": "uint256",
              "name": "hackerHatVested",
              "type": "uint256"
            },
            {
              "internalType": "uint256",
              "name": "governanceHat",
              "type": "uint256"
            }
          ],
          "indexed": false,
          "internalType": "struct IHATClaimsManager.ClaimBounty",
          "name": "_claimBounty",
          "type": "tuple"
        }
      ],
      "name": "ApproveClaim",
      "type": "event"
    },
    {
      "anonymous": false,
      "inputs": [
        {
          "indexed": true,
          "internalType": "bytes32",
          "name": "_claimId",
          "type": "bytes32"
        }
      ],
      "name": "ChallengeClaim",
      "type": "event"
    },
    {
      "anonymous": false,
      "inputs": [],
      "name": "CommitteeCheckedIn",
      "type": "event"
    },
    {
      "anonymous": false,
      "inputs": [
        {
          "indexed": true,
          "internalType": "bytes32",
          "name": "_claimId",
          "type": "bytes32"
        }
      ],
      "name": "DismissClaim",
      "type": "event"
    },
    {
      "anonymous": false,
      "inputs": [
        {
          "indexed": false,
          "internalType": "uint8",
          "name": "version",
          "type": "uint8"
        }
      ],
      "name": "Initialized",
      "type": "event"
    },
    {
      "anonymous": false,
      "inputs": [
        {
          "indexed": true,
          "internalType": "address",
          "name": "previousOwner",
          "type": "address"
        },
        {
          "indexed": true,
          "internalType": "address",
          "name": "newOwner",
          "type": "address"
        }
      ],
      "name": "OwnershipTransferred",
      "type": "event"
    },
    {
      "anonymous": false,
      "inputs": [
        {
          "indexed": true,
          "internalType": "address",
          "name": "_arbitrator",
          "type": "address"
        }
      ],
      "name": "SetArbitrator",
      "type": "event"
    },
    {
      "anonymous": false,
      "inputs": [
        {
          "indexed": false,
          "internalType": "bool",
          "name": "_arbitratorCanChangeBounty",
          "type": "bool"
        },
        {
          "indexed": false,
          "internalType": "bool",
          "name": "_arbitratorCanChangeBeneficiary",
          "type": "bool"
        },
        {
          "indexed": false,
          "internalType": "bool",
          "name": "_arbitratorCanSubmitClaims",
          "type": "bool"
        }
      ],
      "name": "SetArbitratorOptions",
      "type": "event"
    },
    {
      "anonymous": false,
      "inputs": [
        {
          "components": [
            {
              "internalType": "uint16",
              "name": "hackerVested",
              "type": "uint16"
            },
            {
              "internalType": "uint16",
              "name": "hacker",
              "type": "uint16"
            },
            {
              "internalType": "uint16",
              "name": "committee",
              "type": "uint16"
            }
          ],
          "indexed": false,
          "internalType": "struct IHATClaimsManager.BountySplit",
          "name": "_bountySplit",
          "type": "tuple"
        }
      ],
      "name": "SetBountySplit",
      "type": "event"
    },
    {
      "anonymous": false,
      "inputs": [
        {
          "indexed": false,
          "internalType": "uint256",
          "name": "_challengePeriod",
          "type": "uint256"
        }
      ],
      "name": "SetChallengePeriod",
      "type": "event"
    },
    {
      "anonymous": false,
      "inputs": [
        {
          "indexed": false,
          "internalType": "uint256",
          "name": "_challengeTimeOutPeriod",
          "type": "uint256"
        }
      ],
      "name": "SetChallengeTimeOutPeriod",
      "type": "event"
    },
    {
      "anonymous": false,
      "inputs": [
        {
          "indexed": true,
          "internalType": "address",
          "name": "_committee",
          "type": "address"
        }
      ],
      "name": "SetCommittee",
      "type": "event"
    },
    {
      "anonymous": false,
      "inputs": [
        {
          "indexed": false,
          "internalType": "uint256",
          "name": "_bountyGovernanceHAT",
          "type": "uint256"
        },
        {
          "indexed": false,
          "internalType": "uint256",
          "name": "_bountyHackerHATVested",
          "type": "uint256"
        }
      ],
      "name": "SetHATBountySplit",
      "type": "event"
    },
    {
      "anonymous": false,
      "inputs": [
        {
          "indexed": false,
          "internalType": "uint256",
          "name": "_maxBounty",
          "type": "uint256"
        }
      ],
      "name": "SetMaxBounty",
      "type": "event"
    },
    {
      "anonymous": false,
      "inputs": [
        {
          "indexed": false,
          "internalType": "uint256",
          "name": "_maxBounty",
          "type": "uint256"
        }
      ],
      "name": "SetPendingMaxBounty",
      "type": "event"
    },
    {
      "anonymous": false,
      "inputs": [
        {
          "indexed": false,
          "internalType": "uint256",
          "name": "_duration",
          "type": "uint256"
        },
        {
          "indexed": false,
          "internalType": "uint256",
          "name": "_periods",
          "type": "uint256"
        }
      ],
      "name": "SetVestingParams",
      "type": "event"
    },
    {
      "anonymous": false,
      "inputs": [
        {
          "indexed": true,
          "internalType": "bytes32",
          "name": "_claimId",
          "type": "bytes32"
        },
        {
          "indexed": false,
          "internalType": "address",
          "name": "_committee",
          "type": "address"
        },
        {
          "indexed": true,
          "internalType": "address",
          "name": "_submitter",
          "type": "address"
        },
        {
          "indexed": true,
          "internalType": "address",
          "name": "_beneficiary",
          "type": "address"
        },
        {
          "indexed": false,
          "internalType": "uint256",
          "name": "_bountyPercentage",
          "type": "uint256"
        },
        {
          "indexed": false,
          "internalType": "string",
          "name": "_descriptionHash",
          "type": "string"
        }
      ],
      "name": "SubmitClaim",
      "type": "event"
    },
    {
      "inputs": [],
      "name": "HUNDRED_PERCENT",
      "outputs": [
        {
          "internalType": "uint256",
          "name": "",
          "type": "uint256"
        }
      ],
      "stateMutability": "view",
      "type": "function"
    },
    {
      "inputs": [],
      "name": "HUNDRED_PERCENT_SQRD",
      "outputs": [
        {
          "internalType": "uint256",
          "name": "",
          "type": "uint256"
        }
      ],
      "stateMutability": "view",
      "type": "function"
    },
    {
      "inputs": [],
      "name": "MAX_BOUNTY_LIMIT",
      "outputs": [
        {
          "internalType": "uint256",
          "name": "",
          "type": "uint256"
        }
      ],
      "stateMutability": "view",
      "type": "function"
    },
    {
      "inputs": [],
      "name": "MAX_COMMITTEE_BOUNTY",
      "outputs": [
        {
          "internalType": "uint256",
          "name": "",
          "type": "uint256"
        }
      ],
      "stateMutability": "view",
      "type": "function"
    },
    {
      "inputs": [],
      "name": "NULL_ADDRESS",
      "outputs": [
        {
          "internalType": "address",
          "name": "",
          "type": "address"
        }
      ],
      "stateMutability": "view",
      "type": "function"
    },
    {
      "inputs": [],
      "name": "NULL_UINT16",
      "outputs": [
        {
          "internalType": "uint16",
          "name": "",
          "type": "uint16"
        }
      ],
      "stateMutability": "view",
      "type": "function"
    },
    {
      "inputs": [],
      "name": "NULL_UINT32",
      "outputs": [
        {
          "internalType": "uint32",
          "name": "",
          "type": "uint32"
        }
      ],
      "stateMutability": "view",
      "type": "function"
    },
    {
      "inputs": [],
      "name": "VERSION",
      "outputs": [
        {
          "internalType": "string",
          "name": "",
          "type": "string"
        }
      ],
      "stateMutability": "view",
      "type": "function"
    },
    {
      "inputs": [],
      "name": "activeClaim",
      "outputs": [
        {
          "internalType": "bytes32",
          "name": "claimId",
          "type": "bytes32"
        },
        {
          "internalType": "address",
          "name": "beneficiary",
          "type": "address"
        },
        {
          "internalType": "uint16",
          "name": "bountyPercentage",
          "type": "uint16"
        },
        {
          "internalType": "address",
          "name": "committee",
          "type": "address"
        },
        {
          "internalType": "uint32",
          "name": "createdAt",
          "type": "uint32"
        },
        {
          "internalType": "uint32",
          "name": "challengedAt",
          "type": "uint32"
        },
        {
          "internalType": "uint256",
          "name": "bountyGovernanceHAT",
          "type": "uint256"
        },
        {
          "internalType": "uint256",
          "name": "bountyHackerHATVested",
          "type": "uint256"
        },
        {
          "internalType": "address",
          "name": "arbitrator",
          "type": "address"
        },
        {
          "internalType": "uint32",
          "name": "challengePeriod",
          "type": "uint32"
        },
        {
          "internalType": "uint32",
          "name": "challengeTimeOutPeriod",
          "type": "uint32"
        },
        {
          "internalType": "bool",
          "name": "arbitratorCanChangeBounty",
          "type": "bool"
        },
        {
          "internalType": "bool",
          "name": "arbitratorCanChangeBeneficiary",
          "type": "bool"
        }
      ],
      "stateMutability": "view",
      "type": "function"
    },
    {
      "inputs": [
        {
          "internalType": "bytes32",
          "name": "_claimId",
          "type": "bytes32"
        },
        {
          "internalType": "uint16",
          "name": "_bountyPercentage",
          "type": "uint16"
        },
        {
          "internalType": "address",
          "name": "_beneficiary",
          "type": "address"
        }
      ],
      "name": "approveClaim",
      "outputs": [],
      "stateMutability": "nonpayable",
      "type": "function"
    },
    {
      "inputs": [],
      "name": "arbitratorCanChangeBeneficiary",
      "outputs": [
        {
          "internalType": "bool",
          "name": "",
          "type": "bool"
        }
      ],
      "stateMutability": "view",
      "type": "function"
    },
    {
      "inputs": [],
      "name": "arbitratorCanChangeBounty",
      "outputs": [
        {
          "internalType": "bool",
          "name": "",
          "type": "bool"
        }
      ],
      "stateMutability": "view",
      "type": "function"
    },
    {
      "inputs": [],
      "name": "arbitratorCanSubmitClaims",
      "outputs": [
        {
          "internalType": "bool",
          "name": "",
          "type": "bool"
        }
      ],
      "stateMutability": "view",
      "type": "function"
    },
    {
      "inputs": [],
      "name": "bountySplit",
      "outputs": [
        {
          "internalType": "uint16",
          "name": "hackerVested",
          "type": "uint16"
        },
        {
          "internalType": "uint16",
          "name": "hacker",
          "type": "uint16"
        },
        {
          "internalType": "uint16",
          "name": "committee",
          "type": "uint16"
        }
      ],
      "stateMutability": "view",
      "type": "function"
    },
    {
      "inputs": [
        {
          "internalType": "bytes32",
          "name": "_claimId",
          "type": "bytes32"
        }
      ],
      "name": "challengeClaim",
      "outputs": [],
      "stateMutability": "nonpayable",
      "type": "function"
    },
    {
      "inputs": [],
      "name": "committee",
      "outputs": [
        {
          "internalType": "address",
          "name": "",
          "type": "address"
        }
      ],
      "stateMutability": "view",
      "type": "function"
    },
    {
      "inputs": [],
      "name": "committeeCheckIn",
      "outputs": [],
      "stateMutability": "nonpayable",
      "type": "function"
    },
    {
      "inputs": [],
      "name": "committeeCheckedIn",
      "outputs": [
        {
          "internalType": "bool",
          "name": "",
          "type": "bool"
        }
      ],
      "stateMutability": "view",
      "type": "function"
    },
    {
      "inputs": [
        {
          "internalType": "bytes32",
          "name": "_claimId",
          "type": "bytes32"
        }
      ],
      "name": "dismissClaim",
      "outputs": [],
      "stateMutability": "nonpayable",
      "type": "function"
    },
    {
      "inputs": [],
      "name": "getActiveClaim",
      "outputs": [
        {
          "components": [
            {
              "internalType": "bytes32",
              "name": "claimId",
              "type": "bytes32"
            },
            {
              "internalType": "address",
              "name": "beneficiary",
              "type": "address"
            },
            {
              "internalType": "uint16",
              "name": "bountyPercentage",
              "type": "uint16"
            },
            {
              "internalType": "address",
              "name": "committee",
              "type": "address"
            },
            {
              "internalType": "uint32",
              "name": "createdAt",
              "type": "uint32"
            },
            {
              "internalType": "uint32",
              "name": "challengedAt",
              "type": "uint32"
            },
            {
              "internalType": "uint256",
              "name": "bountyGovernanceHAT",
              "type": "uint256"
            },
            {
              "internalType": "uint256",
              "name": "bountyHackerHATVested",
              "type": "uint256"
            },
            {
              "internalType": "address",
              "name": "arbitrator",
              "type": "address"
            },
            {
              "internalType": "uint32",
              "name": "challengePeriod",
              "type": "uint32"
            },
            {
              "internalType": "uint32",
              "name": "challengeTimeOutPeriod",
              "type": "uint32"
            },
            {
              "internalType": "bool",
              "name": "arbitratorCanChangeBounty",
              "type": "bool"
            },
            {
              "internalType": "bool",
              "name": "arbitratorCanChangeBeneficiary",
              "type": "bool"
            }
          ],
          "internalType": "struct IHATClaimsManager.Claim",
          "name": "",
          "type": "tuple"
        }
      ],
      "stateMutability": "view",
      "type": "function"
    },
    {
      "inputs": [],
      "name": "getArbitrator",
      "outputs": [
        {
          "internalType": "address",
          "name": "",
          "type": "address"
        }
      ],
      "stateMutability": "view",
      "type": "function"
    },
    {
      "inputs": [],
      "name": "getBountyGovernanceHAT",
      "outputs": [
        {
          "internalType": "uint16",
          "name": "",
          "type": "uint16"
        }
      ],
      "stateMutability": "view",
      "type": "function"
    },
    {
      "inputs": [],
      "name": "getBountyHackerHATVested",
      "outputs": [
        {
          "internalType": "uint16",
          "name": "",
          "type": "uint16"
        }
      ],
      "stateMutability": "view",
      "type": "function"
    },
    {
      "inputs": [],
      "name": "getChallengePeriod",
      "outputs": [
        {
          "internalType": "uint32",
          "name": "",
          "type": "uint32"
        }
      ],
      "stateMutability": "view",
      "type": "function"
    },
    {
      "inputs": [],
      "name": "getChallengeTimeOutPeriod",
      "outputs": [
        {
          "internalType": "uint32",
          "name": "",
          "type": "uint32"
        }
      ],
      "stateMutability": "view",
      "type": "function"
    },
    {
      "inputs": [
        {
          "internalType": "contract IHATVault",
          "name": "_vault",
          "type": "address"
        },
        {
          "components": [
            {
              "internalType": "uint32",
              "name": "vestingDuration",
              "type": "uint32"
            },
            {
              "internalType": "uint32",
              "name": "vestingPeriods",
              "type": "uint32"
            },
            {
              "internalType": "uint16",
              "name": "maxBounty",
              "type": "uint16"
            },
            {
              "components": [
                {
                  "internalType": "uint16",
                  "name": "hackerVested",
                  "type": "uint16"
                },
                {
                  "internalType": "uint16",
                  "name": "hacker",
                  "type": "uint16"
                },
                {
                  "internalType": "uint16",
                  "name": "committee",
                  "type": "uint16"
                }
              ],
              "internalType": "struct IHATClaimsManager.BountySplit",
              "name": "bountySplit",
              "type": "tuple"
            },
            {
              "internalType": "address",
              "name": "owner",
              "type": "address"
            },
            {
              "internalType": "address",
              "name": "committee",
              "type": "address"
            },
            {
              "internalType": "address",
              "name": "arbitrator",
              "type": "address"
            },
            {
              "internalType": "bool",
              "name": "arbitratorCanChangeBounty",
              "type": "bool"
            },
            {
              "internalType": "bool",
              "name": "arbitratorCanChangeBeneficiary",
              "type": "bool"
            },
            {
              "internalType": "bool",
              "name": "arbitratorCanSubmitClaims",
              "type": "bool"
            },
            {
              "internalType": "bool",
              "name": "isTokenLockRevocable",
              "type": "bool"
            }
          ],
          "internalType": "struct IHATClaimsManager.ClaimsManagerInitParams",
          "name": "_params",
          "type": "tuple"
        }
      ],
      "name": "initialize",
      "outputs": [],
      "stateMutability": "nonpayable",
      "type": "function"
    },
    {
      "inputs": [],
      "name": "isTokenLockRevocable",
      "outputs": [
        {
          "internalType": "bool",
          "name": "",
          "type": "bool"
        }
      ],
      "stateMutability": "view",
      "type": "function"
    },
    {
      "inputs": [],
      "name": "maxBounty",
      "outputs": [
        {
          "internalType": "uint16",
          "name": "",
          "type": "uint16"
        }
      ],
      "stateMutability": "view",
      "type": "function"
    },
    {
      "inputs": [],
      "name": "owner",
      "outputs": [
        {
          "internalType": "address",
          "name": "",
          "type": "address"
        }
      ],
      "stateMutability": "view",
      "type": "function"
    },
    {
      "inputs": [],
      "name": "pendingMaxBounty",
      "outputs": [
        {
          "internalType": "uint16",
          "name": "maxBounty",
          "type": "uint16"
        },
        {
          "internalType": "uint32",
          "name": "timestamp",
          "type": "uint32"
        }
      ],
      "stateMutability": "view",
      "type": "function"
    },
    {
      "inputs": [],
      "name": "registry",
      "outputs": [
        {
          "internalType": "contract IHATVaultsRegistry",
          "name": "",
          "type": "address"
        }
      ],
      "stateMutability": "view",
      "type": "function"
    },
    {
      "inputs": [],
      "name": "renounceOwnership",
      "outputs": [],
      "stateMutability": "nonpayable",
      "type": "function"
    },
    {
      "inputs": [
        {
          "internalType": "address",
          "name": "_arbitrator",
          "type": "address"
        }
      ],
      "name": "setArbitrator",
      "outputs": [],
      "stateMutability": "nonpayable",
      "type": "function"
    },
    {
      "inputs": [
        {
          "internalType": "bool",
          "name": "_arbitratorCanChangeBounty",
          "type": "bool"
        },
        {
          "internalType": "bool",
          "name": "_arbitratorCanChangeBeneficiary",
          "type": "bool"
        },
        {
          "internalType": "bool",
          "name": "_arbitratorCanSubmitClaims",
          "type": "bool"
        }
      ],
      "name": "setArbitratorOptions",
      "outputs": [],
      "stateMutability": "nonpayable",
      "type": "function"
    },
    {
      "inputs": [
        {
          "components": [
            {
              "internalType": "uint16",
              "name": "hackerVested",
              "type": "uint16"
            },
            {
              "internalType": "uint16",
              "name": "hacker",
              "type": "uint16"
            },
            {
              "internalType": "uint16",
              "name": "committee",
              "type": "uint16"
            }
          ],
          "internalType": "struct IHATClaimsManager.BountySplit",
          "name": "_bountySplit",
          "type": "tuple"
        }
      ],
      "name": "setBountySplit",
      "outputs": [],
      "stateMutability": "nonpayable",
      "type": "function"
    },
    {
      "inputs": [
        {
          "internalType": "uint32",
          "name": "_challengePeriod",
          "type": "uint32"
        }
      ],
      "name": "setChallengePeriod",
      "outputs": [],
      "stateMutability": "nonpayable",
      "type": "function"
    },
    {
      "inputs": [
        {
          "internalType": "uint32",
          "name": "_challengeTimeOutPeriod",
          "type": "uint32"
        }
      ],
      "name": "setChallengeTimeOutPeriod",
      "outputs": [],
      "stateMutability": "nonpayable",
      "type": "function"
    },
    {
      "inputs": [
        {
          "internalType": "address",
          "name": "_committee",
          "type": "address"
        }
      ],
      "name": "setCommittee",
      "outputs": [],
      "stateMutability": "nonpayable",
      "type": "function"
    },
    {
      "inputs": [
        {
          "internalType": "uint16",
          "name": "_bountyGovernanceHAT",
          "type": "uint16"
        },
        {
          "internalType": "uint16",
          "name": "_bountyHackerHATVested",
          "type": "uint16"
        }
      ],
      "name": "setHATBountySplit",
      "outputs": [],
      "stateMutability": "nonpayable",
      "type": "function"
    },
    {
      "inputs": [],
      "name": "setMaxBounty",
      "outputs": [],
      "stateMutability": "nonpayable",
      "type": "function"
    },
    {
      "inputs": [
        {
          "internalType": "uint16",
          "name": "_maxBounty",
          "type": "uint16"
        }
      ],
      "name": "setPendingMaxBounty",
      "outputs": [],
      "stateMutability": "nonpayable",
      "type": "function"
    },
    {
      "inputs": [
        {
          "internalType": "uint32",
          "name": "_duration",
          "type": "uint32"
        },
        {
          "internalType": "uint32",
          "name": "_periods",
          "type": "uint32"
        }
      ],
      "name": "setVestingParams",
      "outputs": [],
      "stateMutability": "nonpayable",
      "type": "function"
    },
    {
      "inputs": [
        {
          "internalType": "address",
          "name": "_beneficiary",
          "type": "address"
        },
        {
          "internalType": "uint16",
          "name": "_bountyPercentage",
          "type": "uint16"
        },
        {
          "internalType": "string",
          "name": "_descriptionHash",
          "type": "string"
        }
      ],
      "name": "submitClaim",
      "outputs": [
        {
          "internalType": "bytes32",
          "name": "claimId",
          "type": "bytes32"
        }
      ],
      "stateMutability": "nonpayable",
      "type": "function"
    },
    {
      "inputs": [],
      "name": "tokenLockFactory",
      "outputs": [
        {
          "internalType": "contract ITokenLockFactory",
          "name": "",
          "type": "address"
        }
      ],
      "stateMutability": "view",
      "type": "function"
    },
    {
      "inputs": [
        {
          "internalType": "address",
          "name": "newOwner",
          "type": "address"
        }
      ],
      "name": "transferOwnership",
      "outputs": [],
      "stateMutability": "nonpayable",
      "type": "function"
    },
    {
      "inputs": [],
      "name": "vault",
      "outputs": [
        {
          "internalType": "contract IHATVault",
          "name": "",
          "type": "address"
        }
      ],
      "stateMutability": "view",
      "type": "function"
    },
    {
      "inputs": [],
      "name": "vestingDuration",
      "outputs": [
        {
          "internalType": "uint32",
          "name": "",
          "type": "uint32"
        }
      ],
      "stateMutability": "view",
      "type": "function"
    },
    {
      "inputs": [],
      "name": "vestingPeriods",
      "outputs": [
        {
          "internalType": "uint32",
          "name": "",
          "type": "uint32"
        }
      ],
      "stateMutability": "view",
      "type": "function"
    }
  ],
  "transactionHash": "0x449824c1ba1f4fb43e3c956546bef989d289f8560bf24f44fdb818606552e100",
  "args": [],
  "numDeployments": 1,
  "solcInputHash": "a88478e553c00767a3b8551e3701da57",
  "bytecode": "0x6080806040523461001657613385908161001c8239f35b600080fdfe608080604052600436101561001357600080fd5b600090813560e01c908163014cac971461288f5750806304165db11461274e5780630a6bbcd8146126ae5780630fceb7461461268157806311c2aae3146126585780631514617e1461263157806316c75a9214611e3357806318a34ea614611df85780632764c95b14611cdb5780632ce569cb14611cb55780632d672fa01461174c57806335704b0f1461160a5780633db1807f146115ed5780634711db1f146115d0578063551bd417146115b557806361d71cc614611592578063658fc2a6146115625780636da9a3ec146115475780636ed93dd01461152a578063715018a6146114c9578063730e34cd146113ac5780637864b77d146113835780637b1039991461135a5780637faec71a14611189578063806f7f5714610d6d5780638da5cb5b14610d445780638ee70cbd14610c3f57806397ef1b1014610c195780639d38e5eb14610bf35780639da86a2914610bba578063a397a63514610b0e578063b0eefabe14610a18578063bb5a0794146109f2578063bddae40e14610907578063c1972f8b146108ea578063c1dbca63146107cf578063ce909307146107b0578063d261cfb01461078e578063d52d5ee7146105f8578063d864e740146105cb578063da6d1be914610517578063de0ce17d146104f4578063f10284c61461037d578063f2fde38b146102ea578063fb45153e146102c3578063fbfa77cf1461029a578063fdc149ef146102735763ffa1ad741461023157600080fd5b3461027057806003193601126102705761026c60405161025081612929565b60038152620332e360ec1b602082015260405191829182612967565b0390f35b80fd5b5034610270578060031936011261027057602063ffffffff60a15460301c16604051908152f35b50346102705780600319360112610270576098546040516001600160a01b039091168152602090f35b503461027057806003193601126102705760206102de612eab565b61ffff60405191168152f35b5034610270576020366003190112610270576103046128cf565b61030c6129b0565b6001600160a01b038116156103295761032490612a08565b604051f35b60405162461bcd60e51b815260206004820152602660248201527f4f776e61626c653a206e6577206f776e657220697320746865207a65726f206160448201526564647265737360d01b6064820152608490fd5b50346102705780600319360112610270576103966129b0565b63ffffffff80609c5460a01c166104e2576040516040810181811067ffffffffffffffff8211176104cc5760405260a354918061ffff84169384845260101c16602080930190808252156104ba576004916103f391511642612e0d565b609754604051631df2736360e21b815292849184919082906001600160a01b03165afa9182156104af57859261047b575b501061046957817ff3d8fc64f1ce0c8c9c7d0514708b8596de220e81860a8ceaf7c10737dcc3135a9261ffff1960a154161760a1558360a355604051908152a1604051f35b604051632f99d23360e11b8152600490fd5b9091508281813d83116104a8575b6104938183612945565b810103126104a357519038610424565b600080fd5b503d610489565b6040513d87823e3d90fd5b604051630dc8342d60e31b8152600490fd5b634e487b7160e01b600052604160045260246000fd5b60405163c50c0f9960e01b8152600490fd5b50346102705780600319360112610270576040516001600160a01b038152602090f35b50346102705780600319360112610270576101a0609a5460ff609b54609c54609d5491609e54609f549360405196875261ffff60018060a01b039384811660208a015260a01c166040880152828416606088015263ffffffff8481809660a01c1660808a015260c01c1660a088015260c087015260e08601528216610100850152808260a01c166101208501528160c01c16610140840152818160e01c16151561016084015260e81c161515610180820152f35b503461027057806003193601126102705760a15460405160509190911c6001600160a01b03168152602090f35b503461027057602036600319011261027057600435609c5463ffffffff808260a01c1690811561077c5783609a540361076a57610656609f549382610650818760c01c1694859360c01c1695828860a01c1690612b43565b16612ae1565b42111561070c575b50505061067f600080609a5580609b5580609c5580609d5580609e55609f55565b60985482906001600160a01b0316803b156106fd578180916024604051809481936337d1513960e01b83528160048401525af18015610701576106e9575b5050604051907f940c35077c5ad047271f088696e713b44c4776cc8fa7665b0e81a421c91ec1298383a2f35b6106f2906128f8565b6106fd5781386106bd565b5080fd5b6040513d84823e3d90fd5b81156107585761071b91612ae1565b4211159081610744575b506107325738808061065e565b604051635f2d8d8360e01b8152600490fd5b6001600160a01b0316331415905038610725565b6040516332c7ab4360e01b8152600490fd5b60405163068a522b60e31b8152600490fd5b604051631a1437b360e11b8152600490fd5b5034610270578060031936011261027057602061ffff60a15416604051908152f35b503461027057806003193601126102705760206040516305f5e1008152f35b50346102705780600319360112610270576040516101a0916107f08261290c565b8082528060208301528060408301528060608301528060808301528060a08301528060c08301528060e08301526101009181838201526101209282848301526101408381840152610160908482850152610180948580950152610851612b5b565b92604051968451885260018060a01b03918260208701511660208a015261ffff60408701511660408a01528260608701511660608a015263ffffffff928360808801511660808b01528360a08801511660a08b015260c087015160c08b015260e087015160e08b015281870151169089015281818601511690880152818401511690860152808201511515908501520151151590820152f35b5034610270578060031936011261027057602060405161ffff8152f35b5034610270576020366003190112610270576109216128cf565b6033546001600160a01b039081163314806109e1575b156109c15760ff60a15460f01c166109af575b60a180547fffff0000000000000000000000000000000000000000ffffffffffffffffffff16605084901b600160501b600160f01b031617905560405191167f22a3400c609e52ea781540daed872a0ff7b79a428f634be082c24c2faf0684638383a2f35b604051633b343aa560e01b8152600490fd5b60a15460501c8116331461094a575b60405162d02c1d60e11b8152600490fd5b50338160a15460501c161415610937565b5034610270578060031936011261027057602060ff60a55460181c166040519015158152f35b503461027057602036600319011261027057610a326128cf565b609754604051638da5cb5b60e01b81526001600160a01b03916020908290600490829086165afa908115610b03578491610ad5575b508133911603610ac35760a48054640100000000600160c01b031916602084901b640100000000600160c01b031617905560405191167f53910d8ecf7b5b828433963dea4325f13b37cbdbfd212f83cb73ec179a60e1218383a2f35b60405163d61d1ac760e01b8152600490fd5b610af6915060203d8111610afc575b610aee8183612945565b810190612b24565b38610a67565b503d610ae4565b6040513d86823e3d90fd5b503461027057806003193601126102705760a1546001600160a01b0333605083901c8216036109d05760ff60f01b19909116600160f01b1760a155609854829116803b15610bb757818091600460405180948193635d1c236d60e01b83525af1801561070157610ba3575b506040517fda94dc4b788057a35879928f9ba97261fdb3a4371ba4aa7a1e7e34fae93b49218282a1f35b610bac906128f8565b610270578038610b79565b50fd5b5034610270578060031936011261027057606060a0546040519061ffff908181168352818160101c16602084015260201c166040820152f35b5034610270578060031936011261027057602060ff60a15460f01c166040519015158152f35b5034610270578060031936011261027057602060ff60a55460081c166040519015158152f35b5034610270576060366003190112610270576004358015158091036104a3576024358015158091036104a357604435918215158093036104a357609754604051638da5cb5b60e01b8152906001600160a01b03906020908390600490829085165afa918215610d39578692610d19575b5033911603610ac3577fc87b6de11184bc0dde6b0620d62dd094ce9f2efe3ce2fe73ea1006a65f7c39449260609260a55462ff00008360101b169060ff85169062ffffff19161761ff008360081b16171760a55560405192835260208301526040820152a1604051f35b610d3291925060203d8111610afc57610aee8183612945565b9038610caf565b6040513d88823e3d90fd5b50346102705780600319360112610270576033546040516001600160a01b039091168152602090f35b5034610270576101c0366003190112610270576004356001600160a01b0381811691829003611185576101a03660231901126111855782549060ff8260081c161591828093611178575b8015611161575b156111055760ff1981166001178555826110f4575b5061ffff9061232882610de4612a58565b1611806110df575b6110cd5760c435938285168086036104a3576103e8106110b8576084358381168082036104a35760a4359185831683036104a35785610e3789610e328661271095613339565b613339565b16036110a65760243563ffffffff80821682036104a35760443590811681036104a357610e6391613042565b84610e6c612a58565b169060a1549263ffff000060a0549265ffff0000000060209b8c1b169365ffffffffffff1916179160101b16171760a0556101043584811681036104a3577fffff0000000000000000000000000000000000000000ffffffffffffffff00009092161760509190911b600160501b600160f01b03161760a155609780546001600160a01b031990811633179091556098805482169092179091558554610f209060081c60ff16610f1b81612a69565b612a69565b600160655560e43582811681036104a357610f3a90612a08565b6040516311c2aae360e01b81528581600481335afa801561109b578391889161105d575b50169060995416176099556101243590811681036104a35760a45491610144358015158091036104a35760a55461016435908115158092036104a35761018435918215158093036104a3576101a4358015158091036104a35762ff00009260ff63ff00000061ff009360181b1696169063ffffffff1916179160081b16179160101b16171760a55563ffff0001600160c01b0319928363ffff0001600160c01b0393640100000000600160c01b0390881b1691161717161760a455611024575b50604051f35b7f7f26b83ff96e1f2b6a682f133852f6798a09c465da95921460cefb38474024989061ff0019835416835560405160018152a13861101e565b809250878092503d8311611094575b6110768183612945565b810103126110905751828116810361109057829038610f5e565b8680fd5b503d61106c565b6040513d89823e3d90fd5b60405163c7a89fed60e01b8152600490fd5b60405160016235400b60e01b03198152600490fd5b604051633dfa47cb60e01b8152600490fd5b50612710826110ec612a58565b161415610dec565b61ffff191661010117845538610dd3565b60405162461bcd60e51b815260206004820152602e60248201527f496e697469616c697a61626c653a20636f6e747261637420697320616c72656160448201526d191e481a5b9a5d1a585b1a5e995960921b6064820152608490fd5b50303b158015610dbe5750600160ff821614610dbe565b50600160ff821610610db7565b8280fd5b5034610270576060366003190112610270576111a36129b0565b63ffffffff609c5460a01c166104e2576097546040516302ea7f2560e41b81526020916001600160a01b0316908281600481855afa908115610b03578390859261132c575b5060405163eeb3388760e01b81529192829060049082905afa908115610b035784916112fd575b5061121d6112239183612ae1565b42612b04565b10156112eb5760443561ffff8082168083036104a3576103e881116110b85760043593828516938486036104a3576024359584871687036104a3578461127083610e328a61271095613339565b16036110a6577fa786f776fdae97acbbd2724bdf252aeb3fafdec6d2e98e41a22f0b480744eaf39563ffff000060609665ffff0000000060a05494861b169365ffffffffffff1916179160101b16171760a05560405192806112d06128ad565b1684526112db6128be565b16908301526040820152a1604051f35b604051635a1c393760e11b8152600490fd5b90508281813d8311611325575b6113148183612945565b810103126104a3575161121d61120f565b503d61130a565b809250813d8311611353575b6113428183612945565b810103126104a357518260046111e8565b503d611338565b50346102705780600319360112610270576097546040516001600160a01b039091168152602090f35b5034610270578060031936011261027057602061139e612f7c565b63ffffffff60405191168152f35b5034610270576020366003190112610270576113c66128e5565b609754604051638da5cb5b60e01b81526001600160a01b039182169291602082600481875afa9182156104af5785926114a9575b5033911603610ac3578263ffffffff92838316938403611466575b5060a480546001600160e01b031660e084901b6001600160e01b0319161790556040518381527f6e25891c35494d6a8dfde4ac9fd75a3c140431624a4af477a084736b09ed7afe90602090a1604051f35b803b156106fd57816024916040519283809263891ce46760e01b82528860048301525afa801561070157156114155761149e906128f8565b611185578238611415565b6114c291925060203d8111610afc57610aee8183612945565b90386113fa565b50346102705780600319360112610270576114e26129b0565b603380546001600160a01b03198116909155604051906000906001600160a01b03167f8be0079c531659141344cd1fd0a4f28419497f9722a3daafe3b4186f6b6457e08284a3f35b503461027057806003193601126102705760206040516127108152f35b5034610270578060031936011261027057602061139e612ff5565b5034610270578060031936011261027057604060a35463ffffffff82519161ffff8116835260101c166020820152f35b5034610270578060031936011261027057602060ff60a554166040519015158152f35b503461027057806003193601126102705760206102de612e34565b503461027057806003193601126102705760206040516123288152f35b503461027057806003193601126102705760206040516103e88152f35b5034610270576040366003190112610270576116246128ad565b61162c6128be565b609754604051638da5cb5b60e01b81526001600160a01b039182169291602082600481875afa918215610d3957869261172c575b5033911603610ac3578361ffff8094169260a4548463ffff00008560101b169163ffffffff1916171760a455611694612e34565b9061169d612eab565b91813b15611728576040516303ee6a1d60e61b8152908716600482015291861660248301528290829060449082905afa801561070157611710575b507fb76a01d39e1cd92db69e1fba6bbfdb5d5eaf198958bee0826162c3283ff7884860408486858351928352166020820152a1604051f35b61171c909392936128f8565b611728579083386116d8565b8380fd5b61174591925060203d8111610afc57610aee8183612945565b9038611660565b5034610270576060366003190112610270576117666128cf565b61176e6128be565b67ffffffffffffffff60443511611185573660236044350112156111855767ffffffffffffffff6044356004013511611185573660246044356004013560443501011161118557609c549163ffffffff8360a01c166104e257609754604051630a43443160e21b81526001600160a01b0390911690602081600481855afa908115610d39578691611c86575b50611c7457611807612efa565b9360a5549160ff8360101c16158015611c61575b611c38575b6040516302ea7f2560e41b815290602082600481845afa918215611bf8578892611c03575b5060206004916040519283809263eeb3388760e01b82525afa908115611bf8578891611bc4575b5061121d61187a9183612ae1565b10611bb25760a1549061ffff82168061ffff871611611ba0576127108091149081611b91575b5080611b82575b611b705760a2546000198114611b5c57600101908160a255604051913060601b602084015260348301526034825281606081011067ffffffffffffffff6060840111176104cc5785886101809484606089960160405260208151910120998a9161190f612e34565b9061ffff8061191c612eab565b9381611926612f7c565b9961192f612ff5565b9c6040519961193d8b61290c565b8a5260018060a01b031660208a015216604088015260018060a01b038460501c16606088015263ffffffff421660808801528760a088015216928360c087015216928360e086015260018060a01b0316938461010082015263ffffffff871661012082015263ffffffff891661014082015260ff808c1615159b8c61016084015260081c161515998a9101528c609a55609b5461ffff60a01b8d60a01b169060018060a01b038d169069ffffffffffffffffffff60b01b161717609b5563ffffffff60c01b968763ffffffff60a01b9660c01b169160018060a01b039060501c169063ffffffff60e01b1617854260a01b161717609c55609d55609e55609f549560ff60e81b9060e81b169660ff60e01b9060e01b169561ffff60f01b16179160a01b16179160c01b16171717609f558360018060a01b0360985416803b156106fd5781906024604051809481936337d1513960e01b8352600160048401525af180156104af57611b48575b5060209361ffff60018060a01b0360a15460501c16936040519485521685840152606060408401526044356004013560608401526044356004013560246044350160808501376080604435600401358401015260018060a01b031690827f706a87457549c0195c5152ebe8756235beb8fcf8a3822051a81af0832515d2a13392608081601f19601f6044356004013501168101030190a4604051908152f35b611b5285916128f8565b6117285738611aa9565b634e487b7160e01b88526011600452602488fd5b604051630705f17f60e41b8152600490fd5b5061232861ffff8616116118a7565b905061ffff86161415386118a0565b60405163c83039db60e01b8152600490fd5b60405163b71c745b60e01b8152600490fd5b90506020813d602011611bf0575b81611bdf60209383612945565b810103126104a3575161121d61186c565b3d9150611bd2565b6040513d8a823e3d90fd5b9091506020813d602011611c30575b81611c1f60209383612945565b810103126104a35751906020611845565b3d9150611c12565b60a1543360509190911c6001600160a01b0316146118205760405162d02c1d60e11b8152600490fd5b506001600160a01b03861633141561181b565b604051635ed0818960e01b8152600490fd5b611ca8915060203d602011611cae575b611ca08183612945565b810190612ac9565b386117fa565b503d611c96565b5034610270578060031936011261027057602060ff60a55460101c166040519015158152f35b503461027057602036600319011261027057611cf56128e5565b609754604051638da5cb5b60e01b81526001600160a01b039182169291602082600481875afa9182156104af578592611dd8575b5033911603610ac3578263ffffffff92838316938403611d95575b5060a4805463ffffffff60c01b191660c084901b63ffffffff60c01b161790556040518381527f5024621f2175cab0e0a5ebc174679f1b57839cff38355e8b20ad16ef4ddb656b90602090a1604051f35b803b156106fd57816024916040519283809263165db9a960e01b82528860048301525afa80156107015715611d4457611dcd906128f8565b611185578238611d44565b611df191925060203d8111610afc57610aee8183612945565b9038611d29565b503461027057604036600319011261027057611e126128e5565b60243563ffffffff811681036104a35761032491611e2e6129b0565b613042565b503461027057606036600319011261027057611e4d6128be565b906044356001600160a01b038116908190036106fd576002606554146125ec57600260655563ffffffff609c5460a01c161561077c57600435609a540361076a57611e96612b5b565b92611eb5600080609a5580609b5580609c5580609d5580609e55609f55565b6080840163ffffffff815116611ed861012087019163ffffffff83511690612b43565b9063ffffffff611ef16101408901938285511690612b43565b164210156125da5760a08701805190939063ffffffff16156125a55750506101008601516001600160a01b0316331480159290612581575b505061256f57610160840151151580612562575b612553575b5061018083015115158061254a575b61253f575b505b6098546001600160a01b0316803b156106fd578180916024604051809481936337d1513960e01b83528160048401525af1801561070157612530575b509061271061ffff604083015116146124dd575b81611fc561ffff60408401511660c084015160e085015191613116565b8360018060a01b036098541661200b612000611ff5611fed6040870151608088015190612ae1565b865190612ae1565b606086015190612ae1565b602085015190612ae1565b813b15611185578291602483926040519485938492637778114560e01b845260048401525af18015610701576124c9575b50506098546040516338d52e0f60e01b81529190602090839060049082906001600160a01b03165afa9182156104af5785926124a8575b50602081015180612389575b506020840151815161209e916001600160a01b03908116908516612c04565b606084015160408201516120bf916001600160a01b03908116908516612c04565b60018060a01b0360975416916120de6060830151608084015190612ae1565b80158015612308575b156122a45760405163095ea7b360e01b60208201526001600160a01b038516602482015260448082019290925290815261213590612126606482612945565b6001600160a01b038316612c47565b60208501516060830151608084015188926001600160a01b031691863b1561172857604051635dd1141560e01b81526001600160a01b0386166004820152602481019390935260448301526064820152818160848183895af180156107015761228c575b50506040519263095ea7b360e01b60208501526024840152600060448401526044835282608081011067ffffffffffffffff6080850111176104cc576080808401604052926121f0916001600160a01b0316612c47565b60018060a01b036060850151169261ffff604060018060a01b0360208801511696015116604051948552602085015260018060a01b0316604084015280516060840152602081015182840152604081015160a0840152606081015160c0840152015160e082015233907f52392ef133bdd7ea94cbac75a6e6cbd59aba73f83a57963263cb58426fbcdbea61010060043592a46001606555604051f35b612295906128f8565b6122a0578538612199565b8580fd5b60405162461bcd60e51b815260206004820152603660248201527f5361666545524332303a20617070726f76652066726f6d206e6f6e2d7a65726f60448201527520746f206e6f6e2d7a65726f20616c6c6f77616e636560501b6064820152608490fd5b50604051636eb1769f60e11b8152306004820152602481018590526020816044816001600160a01b0387165afa90811561237d5760009161234b575b50156120e7565b906020823d602011612375575b8161236560209383612945565b8101031261027057505138612344565b3d9150612358565b6040513d6000823e3d90fd5b60995460a5549194506001600160a01b03169060209060181c60ff16801561249c5760a15460501c6001600160a01b0316926101649086908a905b60018060a01b03868c0151169463ffffffff60a1546123e8828260101c1642612ae1565b6040519d8e998a98631112d5bd60e11b8a5260018060a01b03169c8d60048b015260018060a01b031660248a01526044890152606488015242608488015260a487015260301c1660c48501528260e4850152826101048501521515610124840152816101448401525af1938415610d39578694612477575b506124719084602084015191612c04565b3861207f565b6124719194506124959060203d602011610afc57610aee8183612945565b9390612460565b610164858980956123c4565b6124c291925060203d602011610afc57610aee8183612945565b9038612073565b6124d2906128f8565b61172857833861203c565b60985482906001600160a01b0316803b156106fd57818091600460405180948193630d74562960e31b83525af180156107015761251c575b5050611fa8565b612525906128f8565b6106fd578138612515565b612539906128f8565b38611f94565b602083015238611f56565b50801515611f51565b61ffff16604084015238611f42565b5061ffff81161515611f3d565b6040516315421c8960e01b8152600490fd5b63ffffffff8080945061259a9392511691511690612b43565b164210153880611f29565b51905163ffffffff95506125c194508516925084169050612b43565b164211611f5857604051631caf6c9560e21b8152600490fd5b6040516341524ecf60e11b8152600490fd5b60405162461bcd60e51b815260206004820152601f60248201527f5265656e7472616e637947756172643a207265656e7472616e742063616c6c006044820152606490fd5b5034610270578060031936011261027057602063ffffffff60a15460101c16604051908152f35b50346102705780600319360112610270576099546040516001600160a01b039091168152602090f35b5034610270578060031936011261027057602061269c612efa565b6040516001600160a01b039091168152f35b5034610270576020366003190112610270576126c86128ad565b6126d06129b0565b63ffffffff609c5460a01c166104e25761ffff16612328811180612742575b6110cd5760207f9d9d28b01b74ce9cf83d0252bb9cee9fc2ac3a651a277b6a254b7a824342d0c49160a3548165ffffffff00004260101b169165ffffffffffff1916171760a355604051908152a1604051f35b506127108114156126ef565b503461027057602036600319011261027057600435609c5463ffffffff808260a01c16801561077c5783609a540361076a57609f546001600160a01b03808216331415908161283a575b50612828578291826127ae9260a01c1690612b43565b16421015612816578160c01c166128045763ffffffff60c01b19164260c01b63ffffffff60c01b1617609c55604051907f18cee768ef1c2d81fe153ce96ec56a038f24630c2a125dc04aa06e7765457b568383a2f35b60405163085c345b60e41b8152600490fd5b604051631e188ee160e31b8152600490fd5b60405163311f43dd60e11b8152600490fd5b905060046020826097541660405192838092638da5cb5b60e01b82525afa908115611bf8578891612871575b501633141538612798565b612889915060203d8111610afc57610aee8183612945565b38612866565b9050346106fd57816003193601126106fd578063ffffffff60209252f35b6004359061ffff821682036104a357565b6024359061ffff821682036104a357565b600435906001600160a01b03821682036104a357565b6004359063ffffffff821682036104a357565b67ffffffffffffffff81116104cc57604052565b6101a0810190811067ffffffffffffffff8211176104cc57604052565b6040810190811067ffffffffffffffff8211176104cc57604052565b90601f8019910116810190811067ffffffffffffffff8211176104cc57604052565b6020808252825181830181905290939260005b82811061299c57505060409293506000838284010152601f8019910116010190565b81810186015184820160400152850161297a565b6033546001600160a01b031633036129c457565b606460405162461bcd60e51b815260206004820152602060248201527f4f776e61626c653a2063616c6c6572206973206e6f7420746865206f776e65726044820152fd5b6033549060018060a01b0380911691826bffffffffffffffffffffffff60a01b821617603355167f8be0079c531659141344cd1fd0a4f28419497f9722a3daafe3b4186f6b6457e06000604051a3565b60643561ffff811681036104a35790565b15612a7057565b60405162461bcd60e51b815260206004820152602b60248201527f496e697469616c697a61626c653a20636f6e7472616374206973206e6f74206960448201526a6e697469616c697a696e6760a81b6064820152608490fd5b908160209103126104a3575180151581036104a35790565b91908201809211612aee57565b634e487b7160e01b600052601160045260246000fd5b8115612b0e570690565b634e487b7160e01b600052601260045260246000fd5b908160209103126104a357516001600160a01b03811681036104a35790565b91909163ffffffff80809416911601918211612aee57565b60405190612b688261290c565b81609a54815261018060ff609b5461ffff60018060a01b0391828116602087015260a01c166040850152609c54818116606086015263ffffffff8181809360a01c16608088015260c01c1660a0860152609d5460c0860152609e5460e0860152609f54918216610100860152808260a01c166101208601528160c01c16610140850152818160e01c16151561016085015260e81c161515910152565b60405163a9059cbb60e01b60208201526001600160a01b03929092166024830152604480830193909352918152612c4591612c40606483612945565b612c47565b565b6040516001600160a01b03909116929190612c6181612929565b6020918282527f5361666545524332303a206c6f772d6c6576656c2063616c6c206661696c6564838301526000808285829451910182895af13d15612d6c573d9567ffffffffffffffff8711612d5857612cdc94959660405190612cce88601f19601f8401160183612945565b81528093873d92013e612d78565b80519081612ce957505050565b8280612cf9938301019101612ac9565b15612d015750565b6084906040519062461bcd60e51b82526004820152602a60248201527f5361666545524332303a204552433230206f7065726174696f6e20646964206e6044820152691bdd081cdd58d8d9595960b21b6064820152fd5b634e487b7160e01b83526041600452602483fd5b612cdc93949591506060915b91929015612dda5750815115612d8c575090565b3b15612d955790565b60405162461bcd60e51b815260206004820152601d60248201527f416464726573733a2063616c6c20746f206e6f6e2d636f6e74726163740000006044820152606490fd5b825190915015612ded5750805190602001fd5b60405162461bcd60e51b8152908190612e099060048301612967565b0390fd5b91908203918211612aee57565b908160209103126104a3575161ffff811681036104a35790565b60a45461ffff908116908114612e475790565b50609754604051630a89240f60e31b815290602090829060049082906001600160a01b03165afa90811561237d57600091612e80575090565b612ea1915060203d8111612ea4575b612e998183612945565b810190612e1a565b90565b503d612e8f565b60a45460101c61ffff908116908114612ec15790565b506097546040516309060d3f60e11b815290602090829060049082906001600160a01b03165afa90811561237d57600091612e80575090565b60a45460201c6001600160a01b0390811690818114612f17575090565b60975460405163db0f267b60e01b8152925060209183916004918391165afa90811561237d57600091612f48575090565b612ea1915060203d8111610afc57610aee8183612945565b908160209103126104a3575163ffffffff811681036104a35790565b60a45460c01c63ffffffff908116908114612f945790565b506097546040516304559b5d60e21b815290602090829060049082906001600160a01b03165afa90811561237d57600091612fcd575090565b612ea1915060203d8111612fee575b612fe68183612945565b810190612f60565b503d612fdc565b60a45460e01c63ffffffff81146130095790565b50609754604051633d46a43960e21b815290602090829060049082906001600160a01b03165afa90811561237d57600091612fcd575090565b9063ffffffff80831690629e340082116130ed57821680156130db578082106130c9577f509e2b99f648e75d75a54861aa7c1d4c011b4f62cb29c9f065712732e91f965c9360409365ffffffff000069ffffffff00000000000060a1549260301b169260101b169069ffffffffffffffff00001916171760a15582519182526020820152a1565b604051635c15b0b960e01b8152600490fd5b604051631f55114360e01b8152600490fd5b6040516335e1b26b60e21b8152600490fd5b612710908060001904821181151516612aee570290565b9092919260409182519460a0860186811067ffffffffffffffff8211176104cc578452600460009384885260209385858a015285878a01528560608a01528560808a0152888560018060a01b03609854168951958680926278744560e21b82525afa9384156132c3578794613294575b508315613289575061ffff928360a1541696878311613278576127108098148061326e575b80613263575b613252578160001904831160011661323e57506131d76131f7926131de920293846132cd565b94836132cd565b916131f16131ec8487612ae1565b6130ff565b90612e0d565b926080890152606088015261323161322360a05492613218818516866132cd565b9360101c16846132cd565b926131f16131ec8585612ae1565b9287015285520490830152565b634e487b7160e01b81526011600452602490fd5b8851630705f17f60e41b8152600490fd5b5061232883116131b1565b50878314156131ab565b885163c83039db60e01b8152600490fd5b985050505050505050565b9093508581813d83116132bc575b6132ac8183612945565b8101031261109057519238613186565b503d6132a2565b88513d89823e3d90fd5b906000198183098183029182808310920391808303921461332c576305f5e10090828211156104a3577facbe0e98f503f8881186e60dbb7f727bf36b7213ee9f5a78c767074b22e90e21940990828211900360f81b910360081c170290565b50506305f5e10091500490565b91909161ffff80809416911601918211612aee5756fea26469706673582212200f5b8dd3b8631aa53467dc8f91801c9e2b6f54b2a92b56c306a6a7123ad4c80264736f6c63430008100033",
  "devdoc": {
    "author": "Hats.finance",
    "kind": "dev",
    "methods": {
      "challengeClaim(bytes32)": {
        "params": {
          "_claimId": "The claim ID"
        }
      },
      "owner()": {
        "details": "Returns the address of the current owner."
      },
      "renounceOwnership()": {
        "details": "Leaves the contract without owner. It will not be possible to call `onlyOwner` functions anymore. Can only be called by the current owner. NOTE: Renouncing ownership will leave the contract without an owner, thereby removing any functionality that is only available to the owner."
      },
      "transferOwnership(address)": {
        "details": "Transfers ownership of the contract to a new account (`newOwner`). Can only be called by the current owner."
      }
    },
    "stateVariables": {
      "VERSION": {
        "return": "The claims manager's version",
        "returns": {
          "_0": "The claims manager's version"
        }
      },
      "committeeCheckedIn": {
        "return": "Whether the committee has checked in",
        "returns": {
          "_0": "Whether the committee has checked in"
        }
      },
      "maxBounty": {
        "return": "The max bounty",
        "returns": {
          "_0": "The max bounty"
        }
      },
      "registry": {
        "return": "The registry's address",
        "returns": {
          "_0": "The registry's address"
        }
      }
    },
    "title": "A Hats.finance claims manager which manages claims for a specific project's HATVault",
    "version": 1
  },
  "userdoc": {
    "kind": "user",
    "methods": {
      "VERSION()": {
        "notice": "Returns the claims manager's version"
      },
      "approveClaim(bytes32,uint16,address)": {
        "notice": "See {IHATClaimsManager-approveClaim}. "
      },
      "challengeClaim(bytes32)": {
        "notice": "Called by the arbitrator or governance to challenge a claim for a bounty payout that had been previously submitted by the committee. Can only be called during the challenge period after submission of the claim."
      },
      "committeeCheckIn()": {
        "notice": "See {IHATClaimsManager-committeeCheckIn}. "
      },
      "committeeCheckedIn()": {
        "notice": "Returns whether the committee has checked in"
      },
      "dismissClaim(bytes32)": {
        "notice": "See {IHATClaimsManager-dismissClaim}. "
      },
      "getActiveClaim()": {
        "notice": "See {IHATClaimsManager-getActiveClaim}. "
      },
      "getArbitrator()": {
        "notice": "See {IHATClaimsManager-getArbitrator}. "
      },
      "getBountyGovernanceHAT()": {
        "notice": "See {IHATClaimsManager-getBountyGovernanceHAT}. "
      },
      "getBountyHackerHATVested()": {
        "notice": "See {IHATClaimsManager-getBountyHackerHATVested}. "
      },
      "getChallengePeriod()": {
        "notice": "See {IHATClaimsManager-getChallengePeriod}. "
      },
      "getChallengeTimeOutPeriod()": {
        "notice": "See {IHATClaimsManager-getChallengeTimeOutPeriod}. "
      },
      "initialize(address,(uint32,uint32,uint16,(uint16,uint16,uint16),address,address,address,bool,bool,bool,bool))": {
        "notice": "See {IHATClaimsManager-initialize}. "
      },
      "maxBounty()": {
        "notice": "Returns the max bounty that can be paid from the vault in percentages out of HUNDRED_PERCENT"
      },
      "registry()": {
        "notice": "Returns the vault's registry"
      },
      "setArbitrator(address)": {
        "notice": "See {IHATClaimsManager-setArbitrator}. "
      },
      "setArbitratorOptions(bool,bool,bool)": {
        "notice": "See {IHATClaimsManager-setArbitratorOptions}. "
      },
      "setBountySplit((uint16,uint16,uint16))": {
        "notice": "See {IHATClaimsManager-setBountySplit}. "
      },
      "setChallengePeriod(uint32)": {
        "notice": "See {IHATClaimsManager-setChallengePeriod}. "
      },
      "setChallengeTimeOutPeriod(uint32)": {
        "notice": "See {IHATClaimsManager-setChallengeTimeOutPeriod}. "
      },
      "setCommittee(address)": {
        "notice": "See {IHATClaimsManager-setCommittee}. "
      },
      "setHATBountySplit(uint16,uint16)": {
        "notice": "See {IHATClaimsManager-setHATBountySplit}. "
      },
      "setMaxBounty()": {
        "notice": "See {IHATClaimsManager-setMaxBounty}. "
      },
      "setPendingMaxBounty(uint16)": {
        "notice": "See {IHATClaimsManager-setPendingMaxBounty}. "
      },
      "setVestingParams(uint32,uint32)": {
        "notice": "See {IHATClaimsManager-setVestingParams}. "
      },
      "submitClaim(address,uint16,string)": {
        "notice": "See {IHATClaimsManager-submitClaim}. "
      }
    },
    "notice": "The HATClaimsManager manages the bounty payouts from the HATVault of a project. When a bug is submitted and approved, the bounty is paid out using the funds in the project's HATVault. Bounties are paid out as a percentage of the vault. The percentage is set according to the severity of the bug. Vaults have regular safety periods (typically for an hour twice a day) which are time for the committee to submit a new claim. Bounties are payed out distributed between a few channels, and that  distribution is set upon creation (the hacker gets part in direct transfer, part in vested reward and part in vested HAT token, part gets rewarded to the committee, part gets swapped to HAT token and burned and/or sent to Hats governance). This project is open-source and can be found at: https://github.com/hats-finance/hats-contracts",
    "version": 1
  },
  "storageLayout": {
    "storage": [
      {
        "astId": 1092,
        "contract": "contracts/HATClaimsManager.sol:HATClaimsManager",
        "label": "_initialized",
        "offset": 0,
        "slot": "0",
        "type": "t_uint8"
      },
      {
        "astId": 1095,
        "contract": "contracts/HATClaimsManager.sol:HATClaimsManager",
        "label": "_initializing",
        "offset": 1,
        "slot": "0",
        "type": "t_bool"
      },
      {
        "astId": 3390,
        "contract": "contracts/HATClaimsManager.sol:HATClaimsManager",
        "label": "__gap",
        "offset": 0,
        "slot": "1",
        "type": "t_array(t_uint256)50_storage"
      },
      {
        "astId": 296,
        "contract": "contracts/HATClaimsManager.sol:HATClaimsManager",
        "label": "_owner",
        "offset": 0,
        "slot": "51",
        "type": "t_address"
      },
      {
        "astId": 416,
        "contract": "contracts/HATClaimsManager.sol:HATClaimsManager",
        "label": "__gap",
        "offset": 0,
        "slot": "52",
        "type": "t_array(t_uint256)49_storage"
      },
      {
        "astId": 1268,
        "contract": "contracts/HATClaimsManager.sol:HATClaimsManager",
        "label": "_status",
        "offset": 0,
        "slot": "101",
        "type": "t_uint256"
      },
      {
        "astId": 1326,
        "contract": "contracts/HATClaimsManager.sol:HATClaimsManager",
        "label": "__gap",
        "offset": 0,
        "slot": "102",
        "type": "t_array(t_uint256)49_storage"
      },
      {
        "astId": 14714,
        "contract": "contracts/HATClaimsManager.sol:HATClaimsManager",
        "label": "registry",
        "offset": 0,
        "slot": "151",
        "type": "t_contract(IHATVaultsRegistry)24026"
      },
      {
        "astId": 14717,
        "contract": "contracts/HATClaimsManager.sol:HATClaimsManager",
        "label": "vault",
        "offset": 0,
        "slot": "152",
        "type": "t_contract(IHATVault)23536"
      },
      {
        "astId": 14720,
        "contract": "contracts/HATClaimsManager.sol:HATClaimsManager",
        "label": "tokenLockFactory",
        "offset": 0,
        "slot": "153",
        "type": "t_contract(ITokenLockFactory)28039"
      },
      {
        "astId": 14723,
        "contract": "contracts/HATClaimsManager.sol:HATClaimsManager",
        "label": "activeClaim",
        "offset": 0,
        "slot": "154",
        "type": "t_struct(Claim)22771_storage"
      },
      {
        "astId": 14726,
        "contract": "contracts/HATClaimsManager.sol:HATClaimsManager",
        "label": "bountySplit",
        "offset": 0,
        "slot": "160",
        "type": "t_struct(BountySplit)22733_storage"
      },
      {
        "astId": 14728,
        "contract": "contracts/HATClaimsManager.sol:HATClaimsManager",
        "label": "maxBounty",
        "offset": 0,
        "slot": "161",
        "type": "t_uint16"
      },
      {
        "astId": 14730,
        "contract": "contracts/HATClaimsManager.sol:HATClaimsManager",
        "label": "vestingDuration",
        "offset": 2,
        "slot": "161",
        "type": "t_uint32"
      },
      {
        "astId": 14732,
        "contract": "contracts/HATClaimsManager.sol:HATClaimsManager",
        "label": "vestingPeriods",
        "offset": 6,
        "slot": "161",
        "type": "t_uint32"
      },
      {
        "astId": 14734,
        "contract": "contracts/HATClaimsManager.sol:HATClaimsManager",
        "label": "committee",
        "offset": 10,
        "slot": "161",
        "type": "t_address"
      },
      {
        "astId": 14736,
        "contract": "contracts/HATClaimsManager.sol:HATClaimsManager",
        "label": "committeeCheckedIn",
        "offset": 30,
        "slot": "161",
        "type": "t_bool"
      },
      {
        "astId": 14738,
        "contract": "contracts/HATClaimsManager.sol:HATClaimsManager",
        "label": "nonce",
        "offset": 0,
        "slot": "162",
        "type": "t_uint256"
      },
      {
        "astId": 14741,
        "contract": "contracts/HATClaimsManager.sol:HATClaimsManager",
        "label": "pendingMaxBounty",
        "offset": 0,
        "slot": "163",
        "type": "t_struct(PendingMaxBounty)22776_storage"
      },
      {
        "astId": 14743,
        "contract": "contracts/HATClaimsManager.sol:HATClaimsManager",
        "label": "bountyGovernanceHAT",
        "offset": 0,
        "slot": "164",
        "type": "t_uint16"
      },
      {
        "astId": 14745,
        "contract": "contracts/HATClaimsManager.sol:HATClaimsManager",
        "label": "bountyHackerHATVested",
        "offset": 2,
        "slot": "164",
        "type": "t_uint16"
      },
      {
        "astId": 14747,
        "contract": "contracts/HATClaimsManager.sol:HATClaimsManager",
        "label": "arbitrator",
        "offset": 4,
        "slot": "164",
        "type": "t_address"
      },
      {
        "astId": 14749,
        "contract": "contracts/HATClaimsManager.sol:HATClaimsManager",
        "label": "challengePeriod",
        "offset": 24,
        "slot": "164",
        "type": "t_uint32"
      },
      {
        "astId": 14751,
        "contract": "contracts/HATClaimsManager.sol:HATClaimsManager",
        "label": "challengeTimeOutPeriod",
        "offset": 28,
        "slot": "164",
        "type": "t_uint32"
      },
      {
        "astId": 14753,
        "contract": "contracts/HATClaimsManager.sol:HATClaimsManager",
        "label": "arbitratorCanChangeBounty",
        "offset": 0,
        "slot": "165",
        "type": "t_bool"
      },
      {
        "astId": 14755,
        "contract": "contracts/HATClaimsManager.sol:HATClaimsManager",
        "label": "arbitratorCanChangeBeneficiary",
        "offset": 1,
        "slot": "165",
        "type": "t_bool"
      },
      {
        "astId": 14757,
        "contract": "contracts/HATClaimsManager.sol:HATClaimsManager",
        "label": "arbitratorCanSubmitClaims",
        "offset": 2,
        "slot": "165",
        "type": "t_bool"
      },
      {
        "astId": 14759,
        "contract": "contracts/HATClaimsManager.sol:HATClaimsManager",
        "label": "isTokenLockRevocable",
        "offset": 3,
        "slot": "165",
        "type": "t_bool"
      }
    ],
    "types": {
      "t_address": {
        "encoding": "inplace",
        "label": "address",
        "numberOfBytes": "20"
      },
      "t_array(t_uint256)49_storage": {
        "base": "t_uint256",
        "encoding": "inplace",
        "label": "uint256[49]",
        "numberOfBytes": "1568"
      },
      "t_array(t_uint256)50_storage": {
        "base": "t_uint256",
        "encoding": "inplace",
        "label": "uint256[50]",
        "numberOfBytes": "1600"
      },
      "t_bool": {
        "encoding": "inplace",
        "label": "bool",
        "numberOfBytes": "1"
      },
      "t_bytes32": {
        "encoding": "inplace",
        "label": "bytes32",
        "numberOfBytes": "32"
      },
      "t_contract(IHATVault)23536": {
        "encoding": "inplace",
        "label": "contract IHATVault",
        "numberOfBytes": "20"
      },
      "t_contract(IHATVaultsRegistry)24026": {
        "encoding": "inplace",
        "label": "contract IHATVaultsRegistry",
        "numberOfBytes": "20"
      },
      "t_contract(ITokenLockFactory)28039": {
        "encoding": "inplace",
        "label": "contract ITokenLockFactory",
        "numberOfBytes": "20"
      },
      "t_struct(BountySplit)22733_storage": {
        "encoding": "inplace",
        "label": "struct IHATClaimsManager.BountySplit",
        "members": [
          {
            "astId": 22728,
            "contract": "contracts/HATClaimsManager.sol:HATClaimsManager",
            "label": "hackerVested",
            "offset": 0,
            "slot": "0",
            "type": "t_uint16"
          },
          {
            "astId": 22730,
            "contract": "contracts/HATClaimsManager.sol:HATClaimsManager",
            "label": "hacker",
            "offset": 2,
            "slot": "0",
            "type": "t_uint16"
          },
          {
            "astId": 22732,
            "contract": "contracts/HATClaimsManager.sol:HATClaimsManager",
            "label": "committee",
            "offset": 4,
            "slot": "0",
            "type": "t_uint16"
          }
        ],
        "numberOfBytes": "32"
      },
      "t_struct(Claim)22771_storage": {
        "encoding": "inplace",
        "label": "struct IHATClaimsManager.Claim",
        "members": [
          {
            "astId": 22746,
            "contract": "contracts/HATClaimsManager.sol:HATClaimsManager",
            "label": "claimId",
            "offset": 0,
            "slot": "0",
            "type": "t_bytes32"
          },
          {
            "astId": 22748,
            "contract": "contracts/HATClaimsManager.sol:HATClaimsManager",
            "label": "beneficiary",
            "offset": 0,
            "slot": "1",
            "type": "t_address"
          },
          {
            "astId": 22750,
            "contract": "contracts/HATClaimsManager.sol:HATClaimsManager",
            "label": "bountyPercentage",
            "offset": 20,
            "slot": "1",
            "type": "t_uint16"
          },
          {
            "astId": 22752,
            "contract": "contracts/HATClaimsManager.sol:HATClaimsManager",
            "label": "committee",
            "offset": 0,
            "slot": "2",
            "type": "t_address"
          },
          {
            "astId": 22754,
            "contract": "contracts/HATClaimsManager.sol:HATClaimsManager",
            "label": "createdAt",
            "offset": 20,
            "slot": "2",
            "type": "t_uint32"
          },
          {
            "astId": 22756,
            "contract": "contracts/HATClaimsManager.sol:HATClaimsManager",
            "label": "challengedAt",
            "offset": 24,
            "slot": "2",
            "type": "t_uint32"
          },
          {
            "astId": 22758,
            "contract": "contracts/HATClaimsManager.sol:HATClaimsManager",
            "label": "bountyGovernanceHAT",
            "offset": 0,
            "slot": "3",
            "type": "t_uint256"
          },
          {
            "astId": 22760,
            "contract": "contracts/HATClaimsManager.sol:HATClaimsManager",
            "label": "bountyHackerHATVested",
            "offset": 0,
            "slot": "4",
            "type": "t_uint256"
          },
          {
            "astId": 22762,
            "contract": "contracts/HATClaimsManager.sol:HATClaimsManager",
            "label": "arbitrator",
            "offset": 0,
            "slot": "5",
            "type": "t_address"
          },
          {
            "astId": 22764,
            "contract": "contracts/HATClaimsManager.sol:HATClaimsManager",
            "label": "challengePeriod",
            "offset": 20,
            "slot": "5",
            "type": "t_uint32"
          },
          {
            "astId": 22766,
            "contract": "contracts/HATClaimsManager.sol:HATClaimsManager",
            "label": "challengeTimeOutPeriod",
            "offset": 24,
            "slot": "5",
            "type": "t_uint32"
          },
          {
            "astId": 22768,
            "contract": "contracts/HATClaimsManager.sol:HATClaimsManager",
            "label": "arbitratorCanChangeBounty",
            "offset": 28,
            "slot": "5",
            "type": "t_bool"
          },
          {
            "astId": 22770,
            "contract": "contracts/HATClaimsManager.sol:HATClaimsManager",
            "label": "arbitratorCanChangeBeneficiary",
            "offset": 29,
            "slot": "5",
            "type": "t_bool"
          }
        ],
        "numberOfBytes": "192"
      },
      "t_struct(PendingMaxBounty)22776_storage": {
        "encoding": "inplace",
        "label": "struct IHATClaimsManager.PendingMaxBounty",
        "members": [
          {
            "astId": 22773,
            "contract": "contracts/HATClaimsManager.sol:HATClaimsManager",
            "label": "maxBounty",
            "offset": 0,
            "slot": "0",
            "type": "t_uint16"
          },
          {
            "astId": 22775,
            "contract": "contracts/HATClaimsManager.sol:HATClaimsManager",
            "label": "timestamp",
            "offset": 2,
            "slot": "0",
            "type": "t_uint32"
          }
        ],
        "numberOfBytes": "32"
      },
      "t_uint16": {
        "encoding": "inplace",
        "label": "uint16",
        "numberOfBytes": "2"
      },
      "t_uint256": {
        "encoding": "inplace",
        "label": "uint256",
        "numberOfBytes": "32"
      },
      "t_uint32": {
        "encoding": "inplace",
        "label": "uint32",
        "numberOfBytes": "4"
      },
      "t_uint8": {
        "encoding": "inplace",
        "label": "uint8",
        "numberOfBytes": "1"
      }
    }
  }
}