{
  "address": "0xadd155731473A9501881234A865FF79668F1B6cF",
  "abi": [
    {
      "anonymous": false,
      "inputs": [
        {
          "indexed": true,
          "internalType": "address",
          "name": "previousOwner",
          "type": "address"
        },
        {
          "indexed": true,
          "internalType": "address",
          "name": "newOwner",
          "type": "address"
        }
      ],
      "name": "OwnershipTransferred",
      "type": "event"
    },
    {
      "inputs": [
        {
          "internalType": "contract IHATClaimsManager",
          "name": "_vault",
          "type": "address"
        },
        {
          "internalType": "bytes32",
          "name": "_claimId",
          "type": "bytes32"
        }
      ],
      "name": "approveClaim",
      "outputs": [],
      "stateMutability": "nonpayable",
      "type": "function"
    },
    {
      "inputs": [
        {
          "internalType": "contract IHATClaimsManager",
          "name": "_vault",
          "type": "address"
        },
        {
          "internalType": "bytes32",
          "name": "_claimId",
          "type": "bytes32"
        }
      ],
      "name": "dismissClaim",
      "outputs": [],
      "stateMutability": "nonpayable",
      "type": "function"
    },
    {
      "inputs": [],
      "name": "owner",
      "outputs": [
        {
          "internalType": "address",
          "name": "",
          "type": "address"
        }
      ],
      "stateMutability": "view",
      "type": "function"
    },
    {
      "inputs": [],
      "name": "renounceOwnership",
      "outputs": [],
      "stateMutability": "nonpayable",
      "type": "function"
    },
    {
      "inputs": [
        {
          "internalType": "address",
          "name": "newOwner",
          "type": "address"
        }
      ],
      "name": "transferOwnership",
      "outputs": [],
      "stateMutability": "nonpayable",
      "type": "function"
    }
  ],
  "transactionHash": "0x3265fd85e7cb0742cd49429f13f172c9a720e823329b1e8bfe7d3d7e69abeede",
  "args": [],
  "numDeployments": 1,
  "solcInputHash": "a88478e553c00767a3b8551e3701da57",
  "bytecode": "0x6080806040523461005b5760008054336001600160a01b0319821681178355916001600160a01b03909116907f8be0079c531659141344cd1fd0a4f28419497f9722a3daafe3b4186f6b6457e09084a361041590816100618239f35b600080fdfe6040608081526004908136101561001557600080fd5b600091823560e01c8063715018a6146102d55780638da5cb5b146102ad5780639fabcdae1461020657838163e16e7ef21461012f575063f2fde38b1461005a57600080fd5b3461012b57602036600319011261012b576001600160a01b03813581811692908390036101275761008961035d565b82156100d5575060005492826bffffffffffffffffffffffff60a01b8516176000555192167f8be0079c531659141344cd1fd0a4f28419497f9722a3daafe3b4186f6b6457e0600084a3f35b608490602085519162461bcd60e51b8352820152602660248201527f4f776e61626c653a206e6577206f776e657220697320746865207a65726f206160448201526564647265737360d01b6064820152fd5b8480fd5b8280fd5b919050346101d35761014036610332565b919061014a61035d565b6001600160a01b031691823b156101e45784516304165db160e01b8152828101829052848160248183885af19081156101fc5785916101e8575b5050823b156101e457606484928387519586948593630b63ad4960e11b85528401528160248401528160448401525af180156101d7576101c357505051f35b6101cc906103b5565b6101d35751f35b5080fd5b50505051903d90823e3d90fd5b8380fd5b6101f1906103b5565b6101e4578338610184565b86513d87823e3d90fd5b503461012b5761021536610332565b919061021f61035d565b6001600160a01b031691823b156101275783516304165db160e01b8152828101829052858160248183885af180156102a35761028c575b5090829185933b156101e45760248492838751958694859363d52d5ee760e01b85528401525af180156101d7576101c357505051f35b61029a9095919392956103b5565b93909138610256565b85513d88823e3d90fd5b5050346101d357816003193601126101d357905490516001600160a01b039091168152602090f35b5050346101d357816003193601126101d3576102ef61035d565b81546001600160a01b03198116835590519082906001600160a01b03167f8be0079c531659141344cd1fd0a4f28419497f9722a3daafe3b4186f6b6457e08284a3f35b6040906003190112610358576004356001600160a01b0381168103610358579060243590565b600080fd5b6000546001600160a01b0316330361037157565b606460405162461bcd60e51b815260206004820152602060248201527f4f776e61626c653a2063616c6c6572206973206e6f7420746865206f776e65726044820152fd5b67ffffffffffffffff81116103c957604052565b634e487b7160e01b600052604160045260246000fdfea2646970667358221220dc510cfc777084b91c9cb7899c09732d1a7f6ddce7de3deb6f3c1e1a3c79da4d64736f6c63430008100033",
  "devdoc": {
    "kind": "dev",
    "methods": {
      "owner()": {
        "details": "Returns the address of the current owner."
      },
      "renounceOwnership()": {
        "details": "Leaves the contract without owner. It will not be possible to call `onlyOwner` functions anymore. Can only be called by the current owner. NOTE: Renouncing ownership will leave the contract without an owner, thereby removing any functionality that is only available to the owner."
      },
      "transferOwnership(address)": {
        "details": "Transfers ownership of the contract to a new account (`newOwner`). Can only be called by the current owner."
      }
    },
    "version": 1
  },
  "userdoc": {
    "kind": "user",
    "methods": {},
    "version": 1
  },
  "storageLayout": {
    "storage": [
      {
        "astId": 4653,
        "contract": "contracts/HATGovernanceArbitrator.sol:HATGovernanceArbitrator",
        "label": "_owner",
        "offset": 0,
        "slot": "0",
        "type": "t_address"
      }
    ],
    "types": {
      "t_address": {
        "encoding": "inplace",
        "label": "address",
        "numberOfBytes": "20"
      }
    }
  }
}