{
  "address": "0xF3BF063B1cCd2ef12b760327cf4E1E3a34475E46",
  "abi": [
    {
      "inputs": [
        {
          "internalType": "address",
          "name": "_governance",
          "type": "address"
        }
      ],
      "stateMutability": "nonpayable",
      "type": "constructor"
    },
    {
      "inputs": [],
      "name": "TransfersDisabled",
      "type": "error"
    },
    {
      "inputs": [],
      "name": "ZeroAmount",
      "type": "error"
    },
    {
      "anonymous": false,
      "inputs": [
        {
          "indexed": true,
          "internalType": "address",
          "name": "owner",
          "type": "address"
        },
        {
          "indexed": true,
          "internalType": "address",
          "name": "spender",
          "type": "address"
        },
        {
          "indexed": false,
          "internalType": "uint256",
          "name": "value",
          "type": "uint256"
        }
      ],
      "name": "Approval",
      "type": "event"
    },
    {
      "anonymous": false,
      "inputs": [
        {
          "indexed": true,
          "internalType": "address",
          "name": "delegator",
          "type": "address"
        },
        {
          "indexed": true,
          "internalType": "address",
          "name": "fromDelegate",
          "type": "address"
        },
        {
          "indexed": true,
          "internalType": "address",
          "name": "toDelegate",
          "type": "address"
        }
      ],
      "name": "DelegateChanged",
      "type": "event"
    },
    {
      "anonymous": false,
      "inputs": [
        {
          "indexed": true,
          "internalType": "address",
          "name": "delegate",
          "type": "address"
        },
        {
          "indexed": false,
          "internalType": "uint256",
          "name": "previousBalance",
          "type": "uint256"
        },
        {
          "indexed": false,
          "internalType": "uint256",
          "name": "newBalance",
          "type": "uint256"
        }
      ],
      "name": "DelegateVotesChanged",
      "type": "event"
    },
    {
      "anonymous": false,
      "inputs": [
        {
          "indexed": true,
          "internalType": "address",
          "name": "minter",
          "type": "address"
        },
        {
          "indexed": false,
          "internalType": "uint256",
          "name": "seedAmount",
          "type": "uint256"
        }
      ],
      "name": "MinterSet",
      "type": "event"
    },
    {
      "anonymous": false,
      "inputs": [
        {
          "indexed": true,
          "internalType": "address",
          "name": "previousOwner",
          "type": "address"
        },
        {
          "indexed": true,
          "internalType": "address",
          "name": "newOwner",
          "type": "address"
        }
      ],
      "name": "OwnershipTransferred",
      "type": "event"
    },
    {
      "anonymous": false,
      "inputs": [
        {
          "indexed": true,
          "internalType": "address",
          "name": "from",
          "type": "address"
        },
        {
          "indexed": true,
          "internalType": "address",
          "name": "to",
          "type": "address"
        },
        {
          "indexed": false,
          "internalType": "uint256",
          "name": "value",
          "type": "uint256"
        }
      ],
      "name": "Transfer",
      "type": "event"
    },
    {
      "anonymous": false,
      "inputs": [],
      "name": "TransferableSet",
      "type": "event"
    },
    {
      "inputs": [],
      "name": "DOMAIN_SEPARATOR",
      "outputs": [
        {
          "internalType": "bytes32",
          "name": "",
          "type": "bytes32"
        }
      ],
      "stateMutability": "view",
      "type": "function"
    },
    {
      "inputs": [
        {
          "internalType": "address",
          "name": "owner",
          "type": "address"
        },
        {
          "internalType": "address",
          "name": "spender",
          "type": "address"
        }
      ],
      "name": "allowance",
      "outputs": [
        {
          "internalType": "uint256",
          "name": "",
          "type": "uint256"
        }
      ],
      "stateMutability": "view",
      "type": "function"
    },
    {
      "inputs": [
        {
          "internalType": "address",
          "name": "spender",
          "type": "address"
        },
        {
          "internalType": "uint256",
          "name": "amount",
          "type": "uint256"
        }
      ],
      "name": "approve",
      "outputs": [
        {
          "internalType": "bool",
          "name": "",
          "type": "bool"
        }
      ],
      "stateMutability": "nonpayable",
      "type": "function"
    },
    {
      "inputs": [
        {
          "internalType": "address",
          "name": "account",
          "type": "address"
        }
      ],
      "name": "balanceOf",
      "outputs": [
        {
          "internalType": "uint256",
          "name": "",
          "type": "uint256"
        }
      ],
      "stateMutability": "view",
      "type": "function"
    },
    {
      "inputs": [
        {
          "internalType": "uint256",
          "name": "_amount",
          "type": "uint256"
        }
      ],
      "name": "burn",
      "outputs": [],
      "stateMutability": "nonpayable",
      "type": "function"
    },
    {
      "inputs": [],
      "name": "cap",
      "outputs": [
        {
          "internalType": "uint256",
          "name": "",
          "type": "uint256"
        }
      ],
      "stateMutability": "view",
      "type": "function"
    },
    {
      "inputs": [
        {
          "internalType": "address",
          "name": "account",
          "type": "address"
        },
        {
          "internalType": "uint32",
          "name": "pos",
          "type": "uint32"
        }
      ],
      "name": "checkpoints",
      "outputs": [
        {
          "components": [
            {
              "internalType": "uint32",
              "name": "fromBlock",
              "type": "uint32"
            },
            {
              "internalType": "uint224",
              "name": "votes",
              "type": "uint224"
            }
          ],
          "internalType": "struct ERC20Votes.Checkpoint",
          "name": "",
          "type": "tuple"
        }
      ],
      "stateMutability": "view",
      "type": "function"
    },
    {
      "inputs": [],
      "name": "decimals",
      "outputs": [
        {
          "internalType": "uint8",
          "name": "",
          "type": "uint8"
        }
      ],
      "stateMutability": "view",
      "type": "function"
    },
    {
      "inputs": [
        {
          "internalType": "address",
          "name": "spender",
          "type": "address"
        },
        {
          "internalType": "uint256",
          "name": "subtractedValue",
          "type": "uint256"
        }
      ],
      "name": "decreaseAllowance",
      "outputs": [
        {
          "internalType": "bool",
          "name": "",
          "type": "bool"
        }
      ],
      "stateMutability": "nonpayable",
      "type": "function"
    },
    {
      "inputs": [
        {
          "internalType": "address",
          "name": "delegatee",
          "type": "address"
        }
      ],
      "name": "delegate",
      "outputs": [],
      "stateMutability": "nonpayable",
      "type": "function"
    },
    {
      "inputs": [
        {
          "internalType": "address",
          "name": "delegatee",
          "type": "address"
        },
        {
          "internalType": "uint256",
          "name": "nonce",
          "type": "uint256"
        },
        {
          "internalType": "uint256",
          "name": "expiry",
          "type": "uint256"
        },
        {
          "internalType": "uint8",
          "name": "v",
          "type": "uint8"
        },
        {
          "internalType": "bytes32",
          "name": "r",
          "type": "bytes32"
        },
        {
          "internalType": "bytes32",
          "name": "s",
          "type": "bytes32"
        }
      ],
      "name": "delegateBySig",
      "outputs": [],
      "stateMutability": "nonpayable",
      "type": "function"
    },
    {
      "inputs": [
        {
          "internalType": "address",
          "name": "account",
          "type": "address"
        }
      ],
      "name": "delegates",
      "outputs": [
        {
          "internalType": "address",
          "name": "",
          "type": "address"
        }
      ],
      "stateMutability": "view",
      "type": "function"
    },
    {
      "inputs": [
        {
          "internalType": "uint256",
          "name": "blockNumber",
          "type": "uint256"
        }
      ],
      "name": "getPastTotalSupply",
      "outputs": [
        {
          "internalType": "uint256",
          "name": "",
          "type": "uint256"
        }
      ],
      "stateMutability": "view",
      "type": "function"
    },
    {
      "inputs": [
        {
          "internalType": "address",
          "name": "account",
          "type": "address"
        },
        {
          "internalType": "uint256",
          "name": "blockNumber",
          "type": "uint256"
        }
      ],
      "name": "getPastVotes",
      "outputs": [
        {
          "internalType": "uint256",
          "name": "",
          "type": "uint256"
        }
      ],
      "stateMutability": "view",
      "type": "function"
    },
    {
      "inputs": [
        {
          "internalType": "address",
          "name": "account",
          "type": "address"
        }
      ],
      "name": "getVotes",
      "outputs": [
        {
          "internalType": "uint256",
          "name": "",
          "type": "uint256"
        }
      ],
      "stateMutability": "view",
      "type": "function"
    },
    {
      "inputs": [
        {
          "internalType": "address",
          "name": "spender",
          "type": "address"
        },
        {
          "internalType": "uint256",
          "name": "addedValue",
          "type": "uint256"
        }
      ],
      "name": "increaseAllowance",
      "outputs": [
        {
          "internalType": "bool",
          "name": "",
          "type": "bool"
        }
      ],
      "stateMutability": "nonpayable",
      "type": "function"
    },
    {
      "inputs": [
        {
          "internalType": "address",
          "name": "_account",
          "type": "address"
        },
        {
          "internalType": "uint256",
          "name": "_amount",
          "type": "uint256"
        }
      ],
      "name": "mint",
      "outputs": [],
      "stateMutability": "nonpayable",
      "type": "function"
    },
    {
      "inputs": [
        {
          "internalType": "address",
          "name": "",
          "type": "address"
        }
      ],
      "name": "minters",
      "outputs": [
        {
          "internalType": "uint256",
          "name": "",
          "type": "uint256"
        }
      ],
      "stateMutability": "view",
      "type": "function"
    },
    {
      "inputs": [],
      "name": "name",
      "outputs": [
        {
          "internalType": "string",
          "name": "",
          "type": "string"
        }
      ],
      "stateMutability": "view",
      "type": "function"
    },
    {
      "inputs": [
        {
          "internalType": "address",
          "name": "owner",
          "type": "address"
        }
      ],
      "name": "nonces",
      "outputs": [
        {
          "internalType": "uint256",
          "name": "",
          "type": "uint256"
        }
      ],
      "stateMutability": "view",
      "type": "function"
    },
    {
      "inputs": [
        {
          "internalType": "address",
          "name": "account",
          "type": "address"
        }
      ],
      "name": "numCheckpoints",
      "outputs": [
        {
          "internalType": "uint32",
          "name": "",
          "type": "uint32"
        }
      ],
      "stateMutability": "view",
      "type": "function"
    },
    {
      "inputs": [],
      "name": "owner",
      "outputs": [
        {
          "internalType": "address",
          "name": "",
          "type": "address"
        }
      ],
      "stateMutability": "view",
      "type": "function"
    },
    {
      "inputs": [
        {
          "internalType": "address",
          "name": "owner",
          "type": "address"
        },
        {
          "internalType": "address",
          "name": "spender",
          "type": "address"
        },
        {
          "internalType": "uint256",
          "name": "value",
          "type": "uint256"
        },
        {
          "internalType": "uint256",
          "name": "deadline",
          "type": "uint256"
        },
        {
          "internalType": "uint8",
          "name": "v",
          "type": "uint8"
        },
        {
          "internalType": "bytes32",
          "name": "r",
          "type": "bytes32"
        },
        {
          "internalType": "bytes32",
          "name": "s",
          "type": "bytes32"
        }
      ],
      "name": "permit",
      "outputs": [],
      "stateMutability": "nonpayable",
      "type": "function"
    },
    {
      "inputs": [],
      "name": "renounceOwnership",
      "outputs": [],
      "stateMutability": "nonpayable",
      "type": "function"
    },
    {
      "inputs": [
        {
          "internalType": "address",
          "name": "_minter",
          "type": "address"
        },
        {
          "internalType": "uint256",
          "name": "_seedAmount",
          "type": "uint256"
        }
      ],
      "name": "setMinter",
      "outputs": [],
      "stateMutability": "nonpayable",
      "type": "function"
    },
    {
      "inputs": [],
      "name": "setTransferable",
      "outputs": [],
      "stateMutability": "nonpayable",
      "type": "function"
    },
    {
      "inputs": [],
      "name": "symbol",
      "outputs": [
        {
          "internalType": "string",
          "name": "",
          "type": "string"
        }
      ],
      "stateMutability": "view",
      "type": "function"
    },
    {
      "inputs": [],
      "name": "totalSupply",
      "outputs": [
        {
          "internalType": "uint256",
          "name": "",
          "type": "uint256"
        }
      ],
      "stateMutability": "view",
      "type": "function"
    },
    {
      "inputs": [
        {
          "internalType": "address",
          "name": "to",
          "type": "address"
        },
        {
          "internalType": "uint256",
          "name": "amount",
          "type": "uint256"
        }
      ],
      "name": "transfer",
      "outputs": [
        {
          "internalType": "bool",
          "name": "",
          "type": "bool"
        }
      ],
      "stateMutability": "nonpayable",
      "type": "function"
    },
    {
      "inputs": [
        {
          "internalType": "address",
          "name": "from",
          "type": "address"
        },
        {
          "internalType": "address",
          "name": "to",
          "type": "address"
        },
        {
          "internalType": "uint256",
          "name": "amount",
          "type": "uint256"
        }
      ],
      "name": "transferFrom",
      "outputs": [
        {
          "internalType": "bool",
          "name": "",
          "type": "bool"
        }
      ],
      "stateMutability": "nonpayable",
      "type": "function"
    },
    {
      "inputs": [
        {
          "internalType": "address",
          "name": "newOwner",
          "type": "address"
        }
      ],
      "name": "transferOwnership",
      "outputs": [],
      "stateMutability": "nonpayable",
      "type": "function"
    },
    {
      "inputs": [],
      "name": "transferable",
      "outputs": [
        {
          "internalType": "bool",
          "name": "",
          "type": "bool"
        }
      ],
      "stateMutability": "view",
      "type": "function"
    }
  ],
  "transactionHash": "0x6e8e07f31d437dc5988a209a8ef78e0205a81b114d211a164862d36aa6d44ccd",
  "args": [
    "0xC0b302726Dd8f0c33360183C10793c33DafB5284"
  ],
  "numDeployments": 2,
  "solcInputHash": "3e75d66dc328845d122f563ba0a6807c",
  "bytecode": "0x6101606040523480156200001257600080fd5b50604051620026bf380380620026bf83398101604081905262000035916200023a565b6a52b7d2dcc80cd2e40000006040518060400160405280600c81526020016b686174732e66696e616e636560a01b81525080604051806040016040528060018152602001603160f81b8152506040518060400160405280600c81526020016b686174732e66696e616e636560a01b8152506040518060400160405280600381526020016212105560ea1b8152508160039081620000d3919062000311565b506004620000e2828262000311565b5050825160209384012082519284019290922060e08390526101008190524660a0818152604080517f8b73c3c69bb8fe3d512ecc4cf759cc79239f7b179b0ffacaa9a75d522b39400f818901819052818301979097526060810194909452608080850193909352308483018190528151808603909301835260c09485019091528151919096012090529290925261012052505080620001c75760405162461bcd60e51b815260206004820152601560248201527f45524332304361707065643a2063617020697320300000000000000000000000604482015260640160405180910390fd5b61014052620001d633620001e8565b620001e181620001e8565b50620003dd565b600a80546001600160a01b038381166001600160a01b0319831681179093556040519116919082907f8be0079c531659141344cd1fd0a4f28419497f9722a3daafe3b4186f6b6457e090600090a35050565b6000602082840312156200024d57600080fd5b81516001600160a01b03811681146200026557600080fd5b9392505050565b634e487b7160e01b600052604160045260246000fd5b600181811c908216806200029757607f821691505b602082108103620002b857634e487b7160e01b600052602260045260246000fd5b50919050565b601f8211156200030c57600081815260208120601f850160051c81016020861015620002e75750805b601f850160051c820191505b818110156200030857828155600101620002f3565b5050505b505050565b81516001600160401b038111156200032d576200032d6200026c565b62000345816200033e845462000282565b84620002be565b602080601f8311600181146200037d5760008415620003645750858301515b600019600386901b1c1916600185901b17855562000308565b600085815260208120601f198616915b82811015620003ae578886015182559484019460019091019084016200038d565b5085821015620003cd5787850151600019600388901b60f8161c191681555b5050505050600190811b01905550565b60805160a05160c05160e0516101005161012051610140516122806200043f6000396000818161026c01526115f801526000610f7501526000610fc401526000610f9f01526000610ef801526000610f2201526000610f4c01526122806000f3fe608060405234801561001057600080fd5b50600436106101f05760003560e01c8063715018a61161010f578063a457c2d7116100a2578063dd62ed3e11610071578063dd62ed3e1461045c578063f1127ed81461046f578063f2fde38b146104ac578063f46eccc4146104bf57600080fd5b8063a457c2d714610410578063a9059cbb14610423578063c3cda52014610436578063d505accf1461044957600080fd5b806392ff0d31116100de57806392ff0d31146103d557806395d89b41146103e25780639ab24eb0146103ea5780639ce38998146103fd57600080fd5b8063715018a6146103965780637ecebe001461039e5780638da5cb5b146103b15780638e539e8c146103c257600080fd5b80633950935111610187578063587cde1e11610156578063587cde1e146102ee5780635c19a95c146103325780636fcfff451461034557806370a082311461036d57600080fd5b806339509351146102a25780633a46b1a8146102b557806340c10f19146102c857806342966c68146102db57600080fd5b8063313ce567116101c3578063313ce5671461025b578063355274ea1461026a5780633644e5151461029057806337d8b9951461029857600080fd5b806306fdde03146101f5578063095ea7b31461021357806318160ddd1461023657806323b872dd14610248575b600080fd5b6101fd6104df565b60405161020a9190611f2c565b60405180910390f35b610226610221366004611f96565b610571565b604051901515815260200161020a565b6002545b60405190815260200161020a565b610226610256366004611fc0565b61058b565b6040516012815260200161020a565b7f000000000000000000000000000000000000000000000000000000000000000061023a565b61023a6105af565b6102a06105be565b005b6102266102b0366004611f96565b6105fe565b61023a6102c3366004611f96565b610620565b6102a06102d6366004611f96565b61069f565b6102a06102e9366004611ffc565b6106f3565b61031a6102fc366004612015565b6001600160a01b039081166000908152600760205260409020541690565b6040516001600160a01b03909116815260200161020a565b6102a0610340366004612015565b610721565b610358610353366004612015565b61072b565b60405163ffffffff909116815260200161020a565b61023a61037b366004612015565b6001600160a01b031660009081526020819052604090205490565b6102a061074d565b61023a6103ac366004612015565b610761565b600a546001600160a01b031661031a565b61023a6103d0366004611ffc565b61077f565b600c546102269060ff1681565b6101fd6107db565b61023a6103f8366004612015565b6107ea565b6102a061040b366004611f96565b610871565b61022661041e366004611f96565b6108d2565b610226610431366004611f96565b61094d565b6102a0610444366004612041565b61095b565b6102a0610457366004612099565b610a91565b61023a61046a366004612103565b610bf5565b61048261047d366004612136565b610c20565b60408051825163ffffffff1681526020928301516001600160e01b0316928101929092520161020a565b6102a06104ba366004612015565b610ca4565b61023a6104cd366004612015565b600b6020526000908152604090205481565b6060600380546104ee90612176565b80601f016020809104026020016040519081016040528092919081815260200182805461051a90612176565b80156105675780601f1061053c57610100808354040283529160200191610567565b820191906000526020600020905b81548152906001019060200180831161054a57829003601f168201915b5050505050905090565b60003361057f818585610d1a565b60019150505b92915050565b600033610599858285610e3e565b6105a4858585610eb8565b506001949350505050565b60006105b9610eeb565b905090565b6105c6611012565b600c805460ff191660011790556040517fe0350eaf35cd59b2c0d211459b9603c2d2959655973e6bc767ca825b3383263090600090a1565b60003361057f8185856106118383610bf5565b61061b91906121c0565b610d1a565b60004382106106765760405162461bcd60e51b815260206004820152601f60248201527f4552433230566f7465733a20626c6f636b206e6f7420796574206d696e65640060448201526064015b60405180910390fd5b6001600160a01b0383166000908152600860205260409020610698908361106c565b9392505050565b806000036106c057604051631f2a200560e01b815260040160405180910390fd5b336000908152600b6020526040812080548392906106df9084906121d3565b909155506106ef90508282611163565b5050565b8060000361071457604051631f2a200560e01b815260040160405180910390fd5b61071e338261116d565b50565b61071e3382611177565b6001600160a01b038116600090815260086020526040812054610585906111f0565b610755611012565b61075f6000611259565b565b6001600160a01b038116600090815260056020526040812054610585565b60004382106107d05760405162461bcd60e51b815260206004820152601f60248201527f4552433230566f7465733a20626c6f636b206e6f7420796574206d696e656400604482015260640161066d565b61058560098361106c565b6060600480546104ee90612176565b6001600160a01b038116600090815260086020526040812054801561085e576001600160a01b038316600090815260086020526040902061082c6001836121d3565b8154811061083c5761083c6121e6565b60009182526020909120015464010000000090046001600160e01b0316610861565b60005b6001600160e01b03169392505050565b610879611012565b6001600160a01b0382166000818152600b602052604090819020839055517f7359df4a2ac9e38fb7388b0452d6e67f07baf2bb35b06645a940da3204a726fc906108c69084815260200190565b60405180910390a25050565b600033816108e08286610bf5565b9050838110156109405760405162461bcd60e51b815260206004820152602560248201527f45524332303a2064656372656173656420616c6c6f77616e63652062656c6f77604482015264207a65726f60d81b606482015260840161066d565b6105a48286868403610d1a565b60003361057f818585610eb8565b834211156109ab5760405162461bcd60e51b815260206004820152601d60248201527f4552433230566f7465733a207369676e61747572652065787069726564000000604482015260640161066d565b604080517fe48329057bfd03d55e49b547132e39cffd9c1820ad7b9d4c5307691425d15adf60208201526001600160a01b038816918101919091526060810186905260808101859052600090610a2590610a1d9060a001604051602081830303815290604052805190602001206112ab565b8585856112f9565b9050610a3081611321565b8614610a7e5760405162461bcd60e51b815260206004820152601960248201527f4552433230566f7465733a20696e76616c6964206e6f6e636500000000000000604482015260640161066d565b610a888188611177565b50505050505050565b83421115610ae15760405162461bcd60e51b815260206004820152601d60248201527f45524332305065726d69743a206578706972656420646561646c696e65000000604482015260640161066d565b60007f6e71edae12b1b97f4d1f60370fef10105fa2faae0126114a169c64845d6126c9888888610b108c611321565b6040805160208101969096526001600160a01b0394851690860152929091166060840152608083015260a082015260c0810186905260e0016040516020818303038152906040528051906020012090506000610b6b826112ab565b90506000610b7b828787876112f9565b9050896001600160a01b0316816001600160a01b031614610bde5760405162461bcd60e51b815260206004820152601e60248201527f45524332305065726d69743a20696e76616c6964207369676e61747572650000604482015260640161066d565b610be98a8a8a610d1a565b50505050505050505050565b6001600160a01b03918216600090815260016020908152604080832093909416825291909152205490565b60408051808201909152600080825260208201526001600160a01b0383166000908152600860205260409020805463ffffffff8416908110610c6457610c646121e6565b60009182526020918290206040805180820190915291015463ffffffff8116825264010000000090046001600160e01b0316918101919091529392505050565b610cac611012565b6001600160a01b038116610d115760405162461bcd60e51b815260206004820152602660248201527f4f776e61626c653a206e6577206f776e657220697320746865207a65726f206160448201526564647265737360d01b606482015260840161066d565b61071e81611259565b6001600160a01b038316610d7c5760405162461bcd60e51b8152602060048201526024808201527f45524332303a20617070726f76652066726f6d20746865207a65726f206164646044820152637265737360e01b606482015260840161066d565b6001600160a01b038216610ddd5760405162461bcd60e51b815260206004820152602260248201527f45524332303a20617070726f766520746f20746865207a65726f206164647265604482015261737360f01b606482015260840161066d565b6001600160a01b0383811660008181526001602090815260408083209487168084529482529182902085905590518481527f8c5be1e5ebec7d5bd14f71427d1e84f3dd0314c0f7b2291e5b200ac8c7c3b925910160405180910390a3505050565b6000610e4a8484610bf5565b90506000198114610eb25781811015610ea55760405162461bcd60e51b815260206004820152601d60248201527f45524332303a20696e73756666696369656e7420616c6c6f77616e6365000000604482015260640161066d565b610eb28484848403610d1a565b50505050565b600c5460ff16610edb57604051638574adcf60e01b815260040160405180910390fd5b610ee6838383611349565b505050565b6000306001600160a01b037f000000000000000000000000000000000000000000000000000000000000000016148015610f4457507f000000000000000000000000000000000000000000000000000000000000000046145b15610f6e57507f000000000000000000000000000000000000000000000000000000000000000090565b50604080517f00000000000000000000000000000000000000000000000000000000000000006020808301919091527f0000000000000000000000000000000000000000000000000000000000000000828401527f000000000000000000000000000000000000000000000000000000000000000060608301524660808301523060a0808401919091528351808403909101815260c0909201909252805191012090565b600a546001600160a01b0316331461075f5760405162461bcd60e51b815260206004820181905260248201527f4f776e61626c653a2063616c6c6572206973206e6f7420746865206f776e6572604482015260640161066d565b8154600090818160058111156110c6576000611087846114f3565b61109190856121d3565b600088815260209020909150869082015463ffffffff1611156110b6578091506110c4565b6110c18160016121c0565b92505b505b808210156111135760006110da83836115db565b600088815260209020909150869082015463ffffffff1611156110ff5780915061110d565b61110a8160016121c0565b92505b506110c6565b801561114d57611136866111286001846121d3565b600091825260209091200190565b5464010000000090046001600160e01b0316611150565b60005b6001600160e01b03169695505050505050565b6106ef82826115f6565b6106ef8282611683565b6001600160a01b038281166000818152600760208181526040808420805485845282862054949093528787166001600160a01b03198416811790915590519190951694919391928592917f3134e8a2e6d97e929a7e54011ea5485d7d196dd5f0ba4d4ef95803e8e3fc257f9190a4610eb282848361169b565b600063ffffffff8211156112555760405162461bcd60e51b815260206004820152602660248201527f53616665436173743a2076616c756520646f65736e27742066697420696e203360448201526532206269747360d01b606482015260840161066d565b5090565b600a80546001600160a01b038381166001600160a01b0319831681179093556040519116919082907f8be0079c531659141344cd1fd0a4f28419497f9722a3daafe3b4186f6b6457e090600090a35050565b60006105856112b8610eeb565b8360405161190160f01b6020820152602281018390526042810182905260009060620160405160208183030381529060405280519060200120905092915050565b600080600061130a878787876117d8565b915091506113178161189c565b5095945050505050565b6001600160a01b03811660009081526005602052604090208054600181018255905b50919050565b6001600160a01b0383166113ad5760405162461bcd60e51b815260206004820152602560248201527f45524332303a207472616e736665722066726f6d20746865207a65726f206164604482015264647265737360d81b606482015260840161066d565b6001600160a01b03821661140f5760405162461bcd60e51b815260206004820152602360248201527f45524332303a207472616e7366657220746f20746865207a65726f206164647260448201526265737360e81b606482015260840161066d565b6001600160a01b038316600090815260208190526040902054818110156114875760405162461bcd60e51b815260206004820152602660248201527f45524332303a207472616e7366657220616d6f756e7420657863656564732062604482015265616c616e636560d01b606482015260840161066d565b6001600160a01b03848116600081815260208181526040808320878703905593871680835291849020805487019055925185815290927fddf252ad1be2c89b69c2b068fc378daa952ba7f163c4a11628f55a4df523b3ef910160405180910390a3610eb28484846119e6565b60008160000361150557506000919050565b60006001611512846119f1565b901c6001901b9050600181848161152b5761152b6121fc565b048201901c90506001818481611543576115436121fc565b048201901c9050600181848161155b5761155b6121fc565b048201901c90506001818481611573576115736121fc565b048201901c9050600181848161158b5761158b6121fc565b048201901c905060018184816115a3576115a36121fc565b048201901c905060018184816115bb576115bb6121fc565b048201901c9050610698818285816115d5576115d56121fc565b04611a85565b60006115ea6002848418612212565b610698908484166121c0565b7f00000000000000000000000000000000000000000000000000000000000000008161162160025490565b61162b91906121c0565b11156116795760405162461bcd60e51b815260206004820152601960248201527f45524332304361707065643a2063617020657863656564656400000000000000604482015260640161066d565b6106ef8282611a9b565b61168d8282611b25565b610eb26009611c5e83611c6a565b816001600160a01b0316836001600160a01b0316141580156116bd5750600081115b15610ee6576001600160a01b0383161561174b576001600160a01b038316600090815260086020526040812081906116f890611c5e85611c6a565b91509150846001600160a01b03167fdec2bacdd2f05b59de34da9b523dff8be42e5e38e818c82fdb0bae774387a7248383604051611740929190918252602082015260400190565b60405180910390a250505b6001600160a01b03821615610ee6576001600160a01b0382166000908152600860205260408120819061178190611dbe85611c6a565b91509150836001600160a01b03167fdec2bacdd2f05b59de34da9b523dff8be42e5e38e818c82fdb0bae774387a72483836040516117c9929190918252602082015260400190565b60405180910390a25050505050565b6000807f7fffffffffffffffffffffffffffffff5d576e7357a4501ddfe92f46681b20a083111561180f5750600090506003611893565b6040805160008082526020820180845289905260ff881692820192909252606081018690526080810185905260019060a0016020604051602081039080840390855afa158015611863573d6000803e3d6000fd5b5050604051601f1901519150506001600160a01b03811661188c57600060019250925050611893565b9150600090505b94509492505050565b60008160048111156118b0576118b0612234565b036118b85750565b60018160048111156118cc576118cc612234565b036119195760405162461bcd60e51b815260206004820152601860248201527f45434453413a20696e76616c6964207369676e61747572650000000000000000604482015260640161066d565b600281600481111561192d5761192d612234565b0361197a5760405162461bcd60e51b815260206004820152601f60248201527f45434453413a20696e76616c6964207369676e6174757265206c656e67746800604482015260640161066d565b600381600481111561198e5761198e612234565b0361071e5760405162461bcd60e51b815260206004820152602260248201527f45434453413a20696e76616c6964207369676e6174757265202773272076616c604482015261756560f01b606482015260840161066d565b610ee6838383611dca565b600080608083901c15611a0657608092831c92015b604083901c15611a1857604092831c92015b602083901c15611a2a57602092831c92015b601083901c15611a3c57601092831c92015b600883901c15611a4e57600892831c92015b600483901c15611a6057600492831c92015b600283901c15611a7257600292831c92015b600183901c156105855760010192915050565b6000818310611a945781610698565b5090919050565b611aa58282611dfc565b6002546001600160e01b031015611b175760405162461bcd60e51b815260206004820152603060248201527f4552433230566f7465733a20746f74616c20737570706c79207269736b73206f60448201526f766572666c6f77696e6720766f74657360801b606482015260840161066d565b610eb26009611dbe83611c6a565b6001600160a01b038216611b855760405162461bcd60e51b815260206004820152602160248201527f45524332303a206275726e2066726f6d20746865207a65726f206164647265736044820152607360f81b606482015260840161066d565b6001600160a01b03821660009081526020819052604090205481811015611bf95760405162461bcd60e51b815260206004820152602260248201527f45524332303a206275726e20616d6f756e7420657863656564732062616c616e604482015261636560f01b606482015260840161066d565b6001600160a01b0383166000818152602081815260408083208686039055600280548790039055518581529192917fddf252ad1be2c89b69c2b068fc378daa952ba7f163c4a11628f55a4df523b3ef910160405180910390a3610ee6836000846119e6565b600061069882846121d3565b82546000908190818115611cb757611c87876111286001856121d3565b60408051808201909152905463ffffffff8116825264010000000090046001600160e01b03166020820152611ccc565b60408051808201909152600080825260208201525b905080602001516001600160e01b03169350611cec84868863ffffffff16565b9250600082118015611d045750805163ffffffff1643145b15611d4957611d1283611ec3565b611d21886111286001866121d3565b80546001600160e01b03929092166401000000000263ffffffff909216919091179055611db4565b866040518060400160405280611d5e436111f0565b63ffffffff168152602001611d7286611ec3565b6001600160e01b0390811690915282546001810184556000938452602093849020835194909301519091166401000000000263ffffffff909316929092179101555b5050935093915050565b600061069882846121c0565b6001600160a01b03838116600090815260076020526040808220548584168352912054610ee69291821691168361169b565b6001600160a01b038216611e525760405162461bcd60e51b815260206004820152601f60248201527f45524332303a206d696e7420746f20746865207a65726f206164647265737300604482015260640161066d565b8060026000828254611e6491906121c0565b90915550506001600160a01b038216600081815260208181526040808320805486019055518481527fddf252ad1be2c89b69c2b068fc378daa952ba7f163c4a11628f55a4df523b3ef910160405180910390a36106ef600083836119e6565b60006001600160e01b038211156112555760405162461bcd60e51b815260206004820152602760248201527f53616665436173743a2076616c756520646f65736e27742066697420696e20326044820152663234206269747360c81b606482015260840161066d565b600060208083528351808285015260005b81811015611f5957858101830151858201604001528201611f3d565b506000604082860101526040601f19601f8301168501019250505092915050565b80356001600160a01b0381168114611f9157600080fd5b919050565b60008060408385031215611fa957600080fd5b611fb283611f7a565b946020939093013593505050565b600080600060608486031215611fd557600080fd5b611fde84611f7a565b9250611fec60208501611f7a565b9150604084013590509250925092565b60006020828403121561200e57600080fd5b5035919050565b60006020828403121561202757600080fd5b61069882611f7a565b803560ff81168114611f9157600080fd5b60008060008060008060c0878903121561205a57600080fd5b61206387611f7a565b9550602087013594506040870135935061207f60608801612030565b92506080870135915060a087013590509295509295509295565b600080600080600080600060e0888a0312156120b457600080fd5b6120bd88611f7a565b96506120cb60208901611f7a565b955060408801359450606088013593506120e760808901612030565b925060a0880135915060c0880135905092959891949750929550565b6000806040838503121561211657600080fd5b61211f83611f7a565b915061212d60208401611f7a565b90509250929050565b6000806040838503121561214957600080fd5b61215283611f7a565b9150602083013563ffffffff8116811461216b57600080fd5b809150509250929050565b600181811c9082168061218a57607f821691505b60208210810361134357634e487b7160e01b600052602260045260246000fd5b634e487b7160e01b600052601160045260246000fd5b80820180821115610585576105856121aa565b81810381811115610585576105856121aa565b634e487b7160e01b600052603260045260246000fd5b634e487b7160e01b600052601260045260246000fd5b60008261222f57634e487b7160e01b600052601260045260246000fd5b500490565b634e487b7160e01b600052602160045260246000fdfea2646970667358221220c22e420011a179e9cfe218a48483476e7eb7ee6904b020a79a53f3158079f45364736f6c63430008100033",
  "devdoc": {
    "kind": "dev",
    "methods": {
      "DOMAIN_SEPARATOR()": {
        "details": "See {IERC20Permit-DOMAIN_SEPARATOR}."
      },
      "allowance(address,address)": {
        "details": "See {IERC20-allowance}."
      },
      "approve(address,uint256)": {
        "details": "See {IERC20-approve}. NOTE: If `amount` is the maximum `uint256`, the allowance is not updated on `transferFrom`. This is semantically equivalent to an infinite approval. Requirements: - `spender` cannot be the zero address."
      },
      "balanceOf(address)": {
        "details": "See {IERC20-balanceOf}."
      },
      "cap()": {
        "details": "Returns the cap on the token's total supply."
      },
      "checkpoints(address,uint32)": {
        "details": "Get the `pos`-th checkpoint for `account`."
      },
      "constructor": {
        "params": {
          "_governance": "The owner of the token"
        }
      },
      "decimals()": {
        "details": "Returns the number of decimals used to get its user representation. For example, if `decimals` equals `2`, a balance of `505` tokens should be displayed to a user as `5.05` (`505 / 10 ** 2`). Tokens usually opt for a value of 18, imitating the relationship between Ether and Wei. This is the value {ERC20} uses, unless this function is overridden; NOTE: This information is only used for _display_ purposes: it in no way affects any of the arithmetic of the contract, including {IERC20-balanceOf} and {IERC20-transfer}."
      },
      "decreaseAllowance(address,uint256)": {
        "details": "Atomically decreases the allowance granted to `spender` by the caller. This is an alternative to {approve} that can be used as a mitigation for problems described in {IERC20-approve}. Emits an {Approval} event indicating the updated allowance. Requirements: - `spender` cannot be the zero address. - `spender` must have allowance for the caller of at least `subtractedValue`."
      },
      "delegate(address)": {
        "details": "Delegate votes from the sender to `delegatee`."
      },
      "delegateBySig(address,uint256,uint256,uint8,bytes32,bytes32)": {
        "details": "Delegates votes from signer to `delegatee`"
      },
      "delegates(address)": {
        "details": "Get the address `account` is currently delegating to."
      },
      "getPastTotalSupply(uint256)": {
        "details": "Retrieve the `totalSupply` at the end of `blockNumber`. Note, this value is the sum of all balances. It is but NOT the sum of all the delegated votes! Requirements: - `blockNumber` must have been already mined"
      },
      "getPastVotes(address,uint256)": {
        "details": "Retrieve the number of votes for `account` at the end of `blockNumber`. Requirements: - `blockNumber` must have been already mined"
      },
      "getVotes(address)": {
        "details": "Gets the current votes balance for `account`"
      },
      "increaseAllowance(address,uint256)": {
        "details": "Atomically increases the allowance granted to `spender` by the caller. This is an alternative to {approve} that can be used as a mitigation for problems described in {IERC20-approve}. Emits an {Approval} event indicating the updated allowance. Requirements: - `spender` cannot be the zero address."
      },
      "name()": {
        "details": "Returns the name of the token."
      },
      "nonces(address)": {
        "details": "See {IERC20Permit-nonces}."
      },
      "numCheckpoints(address)": {
        "details": "Get number of checkpoints for `account`."
      },
      "owner()": {
        "details": "Returns the address of the current owner."
      },
      "permit(address,address,uint256,uint256,uint8,bytes32,bytes32)": {
        "details": "See {IERC20Permit-permit}."
      },
      "renounceOwnership()": {
        "details": "Leaves the contract without owner. It will not be possible to call `onlyOwner` functions anymore. Can only be called by the current owner. NOTE: Renouncing ownership will leave the contract without an owner, thereby removing any functionality that is only available to the owner."
      },
      "setMinter(address,uint256)": {
        "params": {
          "_minter": "The address of the minter",
          "_seedAmount": "The amount of tokens to seed the minter with"
        }
      },
      "symbol()": {
        "details": "Returns the symbol of the token, usually a shorter version of the name."
      },
      "totalSupply()": {
        "details": "See {IERC20-totalSupply}."
      },
      "transfer(address,uint256)": {
        "details": "See {IERC20-transfer}. Requirements: - `to` cannot be the zero address. - the caller must have a balance of at least `amount`."
      },
      "transferFrom(address,address,uint256)": {
        "details": "See {IERC20-transferFrom}. Emits an {Approval} event indicating the updated allowance. This is not required by the EIP. See the note at the beginning of {ERC20}. NOTE: Does not update the allowance if the current allowance is the maximum `uint256`. Requirements: - `from` and `to` cannot be the zero address. - `from` must have a balance of at least `amount`. - the caller must have allowance for ``from``'s tokens of at least `amount`."
      },
      "transferOwnership(address)": {
        "details": "Transfers ownership of the contract to a new account (`newOwner`). Can only be called by the current owner."
      }
    },
    "stateVariables": {
      "transferable": {
        "details": "Set to false on deployment, and can only be set to true by the owner and cannot be set back to false"
      }
    },
    "version": 1
  },
  "userdoc": {
    "events": {
      "MinterSet(address,uint256)": {
        "notice": "An event thats emitted when the minter address is set"
      },
      "TransferableSet()": {
        "notice": "An event thats emitted when the token is set to transferable"
      }
    },
    "kind": "user",
    "methods": {
      "constructor": {
        "notice": "Construct a new HAT token"
      },
      "minters(address)": {
        "notice": "Address which may mint new tokens minter -> minting seedAmount"
      },
      "setMinter(address,uint256)": {
        "notice": "Set the minter address, can only be called by the owner (governance)"
      },
      "transferable()": {
        "notice": "Whether the token is transferable or not"
      }
    },
    "version": 1
  },
  "storageLayout": {
    "storage": [
      {
        "astId": 6461,
        "contract": "contracts/HATToken.sol:HATToken",
        "label": "_balances",
        "offset": 0,
        "slot": "0",
        "type": "t_mapping(t_address,t_uint256)"
      },
      {
        "astId": 6467,
        "contract": "contracts/HATToken.sol:HATToken",
        "label": "_allowances",
        "offset": 0,
        "slot": "1",
        "type": "t_mapping(t_address,t_mapping(t_address,t_uint256))"
      },
      {
        "astId": 6469,
        "contract": "contracts/HATToken.sol:HATToken",
        "label": "_totalSupply",
        "offset": 0,
        "slot": "2",
        "type": "t_uint256"
      },
      {
        "astId": 6471,
        "contract": "contracts/HATToken.sol:HATToken",
        "label": "_name",
        "offset": 0,
        "slot": "3",
        "type": "t_string_storage"
      },
      {
        "astId": 6473,
        "contract": "contracts/HATToken.sol:HATToken",
        "label": "_symbol",
        "offset": 0,
        "slot": "4",
        "type": "t_string_storage"
      },
      {
        "astId": 7921,
        "contract": "contracts/HATToken.sol:HATToken",
        "label": "_nonces",
        "offset": 0,
        "slot": "5",
        "type": "t_mapping(t_address,t_struct(Counter)8763_storage)"
      },
      {
        "astId": 7929,
        "contract": "contracts/HATToken.sol:HATToken",
        "label": "_PERMIT_TYPEHASH_DEPRECATED_SLOT",
        "offset": 0,
        "slot": "6",
        "type": "t_bytes32"
      },
      {
        "astId": 7201,
        "contract": "contracts/HATToken.sol:HATToken",
        "label": "_delegates",
        "offset": 0,
        "slot": "7",
        "type": "t_mapping(t_address,t_address)"
      },
      {
        "astId": 7207,
        "contract": "contracts/HATToken.sol:HATToken",
        "label": "_checkpoints",
        "offset": 0,
        "slot": "8",
        "type": "t_mapping(t_address,t_array(t_struct(Checkpoint)7192_storage)dyn_storage)"
      },
      {
        "astId": 7211,
        "contract": "contracts/HATToken.sol:HATToken",
        "label": "_totalSupplyCheckpoints",
        "offset": 0,
        "slot": "9",
        "type": "t_array(t_struct(Checkpoint)7192_storage)dyn_storage"
      },
      {
        "astId": 3867,
        "contract": "contracts/HATToken.sol:HATToken",
        "label": "_owner",
        "offset": 0,
        "slot": "10",
        "type": "t_address"
      },
      {
        "astId": 12762,
        "contract": "contracts/HATToken.sol:HATToken",
        "label": "minters",
        "offset": 0,
        "slot": "11",
        "type": "t_mapping(t_address,t_uint256)"
      },
      {
        "astId": 12765,
        "contract": "contracts/HATToken.sol:HATToken",
        "label": "transferable",
        "offset": 0,
        "slot": "12",
        "type": "t_bool"
      }
    ],
    "types": {
      "t_address": {
        "encoding": "inplace",
        "label": "address",
        "numberOfBytes": "20"
      },
      "t_array(t_struct(Checkpoint)7192_storage)dyn_storage": {
        "base": "t_struct(Checkpoint)7192_storage",
        "encoding": "dynamic_array",
        "label": "struct ERC20Votes.Checkpoint[]",
        "numberOfBytes": "32"
      },
      "t_bool": {
        "encoding": "inplace",
        "label": "bool",
        "numberOfBytes": "1"
      },
      "t_bytes32": {
        "encoding": "inplace",
        "label": "bytes32",
        "numberOfBytes": "32"
      },
      "t_mapping(t_address,t_address)": {
        "encoding": "mapping",
        "key": "t_address",
        "label": "mapping(address => address)",
        "numberOfBytes": "32",
        "value": "t_address"
      },
      "t_mapping(t_address,t_array(t_struct(Checkpoint)7192_storage)dyn_storage)": {
        "encoding": "mapping",
        "key": "t_address",
        "label": "mapping(address => struct ERC20Votes.Checkpoint[])",
        "numberOfBytes": "32",
        "value": "t_array(t_struct(Checkpoint)7192_storage)dyn_storage"
      },
      "t_mapping(t_address,t_mapping(t_address,t_uint256))": {
        "encoding": "mapping",
        "key": "t_address",
        "label": "mapping(address => mapping(address => uint256))",
        "numberOfBytes": "32",
        "value": "t_mapping(t_address,t_uint256)"
      },
      "t_mapping(t_address,t_struct(Counter)8763_storage)": {
        "encoding": "mapping",
        "key": "t_address",
        "label": "mapping(address => struct Counters.Counter)",
        "numberOfBytes": "32",
        "value": "t_struct(Counter)8763_storage"
      },
      "t_mapping(t_address,t_uint256)": {
        "encoding": "mapping",
        "key": "t_address",
        "label": "mapping(address => uint256)",
        "numberOfBytes": "32",
        "value": "t_uint256"
      },
      "t_string_storage": {
        "encoding": "bytes",
        "label": "string",
        "numberOfBytes": "32"
      },
      "t_struct(Checkpoint)7192_storage": {
        "encoding": "inplace",
        "label": "struct ERC20Votes.Checkpoint",
        "members": [
          {
            "astId": 7189,
            "contract": "contracts/HATToken.sol:HATToken",
            "label": "fromBlock",
            "offset": 0,
            "slot": "0",
            "type": "t_uint32"
          },
          {
            "astId": 7191,
            "contract": "contracts/HATToken.sol:HATToken",
            "label": "votes",
            "offset": 4,
            "slot": "0",
            "type": "t_uint224"
          }
        ],
        "numberOfBytes": "32"
      },
      "t_struct(Counter)8763_storage": {
        "encoding": "inplace",
        "label": "struct Counters.Counter",
        "members": [
          {
            "astId": 8762,
            "contract": "contracts/HATToken.sol:HATToken",
            "label": "_value",
            "offset": 0,
            "slot": "0",
            "type": "t_uint256"
          }
        ],
        "numberOfBytes": "32"
      },
      "t_uint224": {
        "encoding": "inplace",
        "label": "uint224",
        "numberOfBytes": "28"
      },
      "t_uint256": {
        "encoding": "inplace",
        "label": "uint256",
        "numberOfBytes": "32"
      },
      "t_uint32": {
        "encoding": "inplace",
        "label": "uint32",
        "numberOfBytes": "4"
      }
    }
  }
}