{
  "address": "0x186f38f12Ba0321A1997EF933015421e5cbF5832",
  "abi": [
    {
      "inputs": [
        {
          "internalType": "uint256",
          "name": "_minDelay",
          "type": "uint256"
        },
        {
          "internalType": "address[]",
          "name": "_proposers",
          "type": "address[]"
        },
        {
          "internalType": "address[]",
          "name": "_executors",
          "type": "address[]"
        }
      ],
      "stateMutability": "nonpayable",
      "type": "constructor"
    },
    {
      "anonymous": false,
      "inputs": [
        {
          "indexed": true,
          "internalType": "bytes32",
          "name": "id",
          "type": "bytes32"
        },
        {
          "indexed": true,
          "internalType": "uint256",
          "name": "index",
          "type": "uint256"
        },
        {
          "indexed": false,
          "internalType": "address",
          "name": "target",
          "type": "address"
        },
        {
          "indexed": false,
          "internalType": "uint256",
          "name": "value",
          "type": "uint256"
        },
        {
          "indexed": false,
          "internalType": "bytes",
          "name": "data",
          "type": "bytes"
        }
      ],
      "name": "CallExecuted",
      "type": "event"
    },
    {
      "anonymous": false,
      "inputs": [
        {
          "indexed": true,
          "internalType": "bytes32",
          "name": "id",
          "type": "bytes32"
        },
        {
          "indexed": true,
          "internalType": "uint256",
          "name": "index",
          "type": "uint256"
        },
        {
          "indexed": false,
          "internalType": "address",
          "name": "target",
          "type": "address"
        },
        {
          "indexed": false,
          "internalType": "uint256",
          "name": "value",
          "type": "uint256"
        },
        {
          "indexed": false,
          "internalType": "bytes",
          "name": "data",
          "type": "bytes"
        },
        {
          "indexed": false,
          "internalType": "bytes32",
          "name": "predecessor",
          "type": "bytes32"
        },
        {
          "indexed": false,
          "internalType": "uint256",
          "name": "delay",
          "type": "uint256"
        }
      ],
      "name": "CallScheduled",
      "type": "event"
    },
    {
      "anonymous": false,
      "inputs": [
        {
          "indexed": true,
          "internalType": "bytes32",
          "name": "id",
          "type": "bytes32"
        }
      ],
      "name": "Cancelled",
      "type": "event"
    },
    {
      "anonymous": false,
      "inputs": [
        {
          "indexed": false,
          "internalType": "uint256",
          "name": "oldDuration",
          "type": "uint256"
        },
        {
          "indexed": false,
          "internalType": "uint256",
          "name": "newDuration",
          "type": "uint256"
        }
      ],
      "name": "MinDelayChange",
      "type": "event"
    },
    {
      "anonymous": false,
      "inputs": [
        {
          "indexed": true,
          "internalType": "bytes32",
          "name": "role",
          "type": "bytes32"
        },
        {
          "indexed": true,
          "internalType": "bytes32",
          "name": "previousAdminRole",
          "type": "bytes32"
        },
        {
          "indexed": true,
          "internalType": "bytes32",
          "name": "newAdminRole",
          "type": "bytes32"
        }
      ],
      "name": "RoleAdminChanged",
      "type": "event"
    },
    {
      "anonymous": false,
      "inputs": [
        {
          "indexed": true,
          "internalType": "bytes32",
          "name": "role",
          "type": "bytes32"
        },
        {
          "indexed": true,
          "internalType": "address",
          "name": "account",
          "type": "address"
        },
        {
          "indexed": true,
          "internalType": "address",
          "name": "sender",
          "type": "address"
        }
      ],
      "name": "RoleGranted",
      "type": "event"
    },
    {
      "anonymous": false,
      "inputs": [
        {
          "indexed": true,
          "internalType": "bytes32",
          "name": "role",
          "type": "bytes32"
        },
        {
          "indexed": true,
          "internalType": "address",
          "name": "account",
          "type": "address"
        },
        {
          "indexed": true,
          "internalType": "address",
          "name": "sender",
          "type": "address"
        }
      ],
      "name": "RoleRevoked",
      "type": "event"
    },
    {
      "inputs": [],
      "name": "CANCELLER_ROLE",
      "outputs": [
        {
          "internalType": "bytes32",
          "name": "",
          "type": "bytes32"
        }
      ],
      "stateMutability": "view",
      "type": "function"
    },
    {
      "inputs": [],
      "name": "DEFAULT_ADMIN_ROLE",
      "outputs": [
        {
          "internalType": "bytes32",
          "name": "",
          "type": "bytes32"
        }
      ],
      "stateMutability": "view",
      "type": "function"
    },
    {
      "inputs": [],
      "name": "EXECUTOR_ROLE",
      "outputs": [
        {
          "internalType": "bytes32",
          "name": "",
          "type": "bytes32"
        }
      ],
      "stateMutability": "view",
      "type": "function"
    },
    {
      "inputs": [],
      "name": "PROPOSER_ROLE",
      "outputs": [
        {
          "internalType": "bytes32",
          "name": "",
          "type": "bytes32"
        }
      ],
      "stateMutability": "view",
      "type": "function"
    },
    {
      "inputs": [],
      "name": "TIMELOCK_ADMIN_ROLE",
      "outputs": [
        {
          "internalType": "bytes32",
          "name": "",
          "type": "bytes32"
        }
      ],
      "stateMutability": "view",
      "type": "function"
    },
    {
      "inputs": [
        {
          "internalType": "contract HATGovernanceArbitrator",
          "name": "_arbitrator",
          "type": "address"
        },
        {
          "internalType": "contract IHATClaimsManager",
          "name": "_claimsManager",
          "type": "address"
        },
        {
          "internalType": "bytes32",
          "name": "_claimId",
          "type": "bytes32"
        }
      ],
      "name": "approveClaim",
      "outputs": [],
      "stateMutability": "nonpayable",
      "type": "function"
    },
    {
      "inputs": [
        {
          "internalType": "bytes32",
          "name": "id",
          "type": "bytes32"
        }
      ],
      "name": "cancel",
      "outputs": [],
      "stateMutability": "nonpayable",
      "type": "function"
    },
    {
      "inputs": [
        {
          "internalType": "contract HATGovernanceArbitrator",
          "name": "_arbitrator",
          "type": "address"
        },
        {
          "internalType": "contract IHATClaimsManager",
          "name": "_claimsManager",
          "type": "address"
        },
        {
          "internalType": "bytes32",
          "name": "_claimId",
          "type": "bytes32"
        }
      ],
      "name": "dismissClaim",
      "outputs": [],
      "stateMutability": "nonpayable",
      "type": "function"
    },
    {
      "inputs": [
        {
          "internalType": "address",
          "name": "target",
          "type": "address"
        },
        {
          "internalType": "uint256",
          "name": "value",
          "type": "uint256"
        },
        {
          "internalType": "bytes",
          "name": "payload",
          "type": "bytes"
        },
        {
          "internalType": "bytes32",
          "name": "predecessor",
          "type": "bytes32"
        },
        {
          "internalType": "bytes32",
          "name": "salt",
          "type": "bytes32"
        }
      ],
      "name": "execute",
      "outputs": [],
      "stateMutability": "payable",
      "type": "function"
    },
    {
      "inputs": [
        {
          "internalType": "address[]",
          "name": "targets",
          "type": "address[]"
        },
        {
          "internalType": "uint256[]",
          "name": "values",
          "type": "uint256[]"
        },
        {
          "internalType": "bytes[]",
          "name": "payloads",
          "type": "bytes[]"
        },
        {
          "internalType": "bytes32",
          "name": "predecessor",
          "type": "bytes32"
        },
        {
          "internalType": "bytes32",
          "name": "salt",
          "type": "bytes32"
        }
      ],
      "name": "executeBatch",
      "outputs": [],
      "stateMutability": "payable",
      "type": "function"
    },
    {
      "inputs": [],
      "name": "getMinDelay",
      "outputs": [
        {
          "internalType": "uint256",
          "name": "duration",
          "type": "uint256"
        }
      ],
      "stateMutability": "view",
      "type": "function"
    },
    {
      "inputs": [
        {
          "internalType": "bytes32",
          "name": "role",
          "type": "bytes32"
        }
      ],
      "name": "getRoleAdmin",
      "outputs": [
        {
          "internalType": "bytes32",
          "name": "",
          "type": "bytes32"
        }
      ],
      "stateMutability": "view",
      "type": "function"
    },
    {
      "inputs": [
        {
          "internalType": "bytes32",
          "name": "id",
          "type": "bytes32"
        }
      ],
      "name": "getTimestamp",
      "outputs": [
        {
          "internalType": "uint256",
          "name": "timestamp",
          "type": "uint256"
        }
      ],
      "stateMutability": "view",
      "type": "function"
    },
    {
      "inputs": [
        {
          "internalType": "bytes32",
          "name": "role",
          "type": "bytes32"
        },
        {
          "internalType": "address",
          "name": "account",
          "type": "address"
        }
      ],
      "name": "grantRole",
      "outputs": [],
      "stateMutability": "nonpayable",
      "type": "function"
    },
    {
      "inputs": [
        {
          "internalType": "bytes32",
          "name": "role",
          "type": "bytes32"
        },
        {
          "internalType": "address",
          "name": "account",
          "type": "address"
        }
      ],
      "name": "hasRole",
      "outputs": [
        {
          "internalType": "bool",
          "name": "",
          "type": "bool"
        }
      ],
      "stateMutability": "view",
      "type": "function"
    },
    {
      "inputs": [
        {
          "internalType": "address",
          "name": "target",
          "type": "address"
        },
        {
          "internalType": "uint256",
          "name": "value",
          "type": "uint256"
        },
        {
          "internalType": "bytes",
          "name": "data",
          "type": "bytes"
        },
        {
          "internalType": "bytes32",
          "name": "predecessor",
          "type": "bytes32"
        },
        {
          "internalType": "bytes32",
          "name": "salt",
          "type": "bytes32"
        }
      ],
      "name": "hashOperation",
      "outputs": [
        {
          "internalType": "bytes32",
          "name": "hash",
          "type": "bytes32"
        }
      ],
      "stateMutability": "pure",
      "type": "function"
    },
    {
      "inputs": [
        {
          "internalType": "address[]",
          "name": "targets",
          "type": "address[]"
        },
        {
          "internalType": "uint256[]",
          "name": "values",
          "type": "uint256[]"
        },
        {
          "internalType": "bytes[]",
          "name": "payloads",
          "type": "bytes[]"
        },
        {
          "internalType": "bytes32",
          "name": "predecessor",
          "type": "bytes32"
        },
        {
          "internalType": "bytes32",
          "name": "salt",
          "type": "bytes32"
        }
      ],
      "name": "hashOperationBatch",
      "outputs": [
        {
          "internalType": "bytes32",
          "name": "hash",
          "type": "bytes32"
        }
      ],
      "stateMutability": "pure",
      "type": "function"
    },
    {
      "inputs": [
        {
          "internalType": "bytes32",
          "name": "id",
          "type": "bytes32"
        }
      ],
      "name": "isOperation",
      "outputs": [
        {
          "internalType": "bool",
          "name": "registered",
          "type": "bool"
        }
      ],
      "stateMutability": "view",
      "type": "function"
    },
    {
      "inputs": [
        {
          "internalType": "bytes32",
          "name": "id",
          "type": "bytes32"
        }
      ],
      "name": "isOperationDone",
      "outputs": [
        {
          "internalType": "bool",
          "name": "done",
          "type": "bool"
        }
      ],
      "stateMutability": "view",
      "type": "function"
    },
    {
      "inputs": [
        {
          "internalType": "bytes32",
          "name": "id",
          "type": "bytes32"
        }
      ],
      "name": "isOperationPending",
      "outputs": [
        {
          "internalType": "bool",
          "name": "pending",
          "type": "bool"
        }
      ],
      "stateMutability": "view",
      "type": "function"
    },
    {
      "inputs": [
        {
          "internalType": "bytes32",
          "name": "id",
          "type": "bytes32"
        }
      ],
      "name": "isOperationReady",
      "outputs": [
        {
          "internalType": "bool",
          "name": "ready",
          "type": "bool"
        }
      ],
      "stateMutability": "view",
      "type": "function"
    },
    {
      "inputs": [
        {
          "internalType": "address",
          "name": "",
          "type": "address"
        },
        {
          "internalType": "address",
          "name": "",
          "type": "address"
        },
        {
          "internalType": "uint256[]",
          "name": "",
          "type": "uint256[]"
        },
        {
          "internalType": "uint256[]",
          "name": "",
          "type": "uint256[]"
        },
        {
          "internalType": "bytes",
          "name": "",
          "type": "bytes"
        }
      ],
      "name": "onERC1155BatchReceived",
      "outputs": [
        {
          "internalType": "bytes4",
          "name": "",
          "type": "bytes4"
        }
      ],
      "stateMutability": "nonpayable",
      "type": "function"
    },
    {
      "inputs": [
        {
          "internalType": "address",
          "name": "",
          "type": "address"
        },
        {
          "internalType": "address",
          "name": "",
          "type": "address"
        },
        {
          "internalType": "uint256",
          "name": "",
          "type": "uint256"
        },
        {
          "internalType": "uint256",
          "name": "",
          "type": "uint256"
        },
        {
          "internalType": "bytes",
          "name": "",
          "type": "bytes"
        }
      ],
      "name": "onERC1155Received",
      "outputs": [
        {
          "internalType": "bytes4",
          "name": "",
          "type": "bytes4"
        }
      ],
      "stateMutability": "nonpayable",
      "type": "function"
    },
    {
      "inputs": [
        {
          "internalType": "address",
          "name": "",
          "type": "address"
        },
        {
          "internalType": "address",
          "name": "",
          "type": "address"
        },
        {
          "internalType": "uint256",
          "name": "",
          "type": "uint256"
        },
        {
          "internalType": "bytes",
          "name": "",
          "type": "bytes"
        }
      ],
      "name": "onERC721Received",
      "outputs": [
        {
          "internalType": "bytes4",
          "name": "",
          "type": "bytes4"
        }
      ],
      "stateMutability": "nonpayable",
      "type": "function"
    },
    {
      "inputs": [
        {
          "internalType": "bytes32",
          "name": "role",
          "type": "bytes32"
        },
        {
          "internalType": "address",
          "name": "account",
          "type": "address"
        }
      ],
      "name": "renounceRole",
      "outputs": [],
      "stateMutability": "nonpayable",
      "type": "function"
    },
    {
      "inputs": [
        {
          "internalType": "bytes32",
          "name": "role",
          "type": "bytes32"
        },
        {
          "internalType": "address",
          "name": "account",
          "type": "address"
        }
      ],
      "name": "revokeRole",
      "outputs": [],
      "stateMutability": "nonpayable",
      "type": "function"
    },
    {
      "inputs": [
        {
          "internalType": "address",
          "name": "target",
          "type": "address"
        },
        {
          "internalType": "uint256",
          "name": "value",
          "type": "uint256"
        },
        {
          "internalType": "bytes",
          "name": "data",
          "type": "bytes"
        },
        {
          "internalType": "bytes32",
          "name": "predecessor",
          "type": "bytes32"
        },
        {
          "internalType": "bytes32",
          "name": "salt",
          "type": "bytes32"
        },
        {
          "internalType": "uint256",
          "name": "delay",
          "type": "uint256"
        }
      ],
      "name": "schedule",
      "outputs": [],
      "stateMutability": "nonpayable",
      "type": "function"
    },
    {
      "inputs": [
        {
          "internalType": "address[]",
          "name": "targets",
          "type": "address[]"
        },
        {
          "internalType": "uint256[]",
          "name": "values",
          "type": "uint256[]"
        },
        {
          "internalType": "bytes[]",
          "name": "payloads",
          "type": "bytes[]"
        },
        {
          "internalType": "bytes32",
          "name": "predecessor",
          "type": "bytes32"
        },
        {
          "internalType": "bytes32",
          "name": "salt",
          "type": "bytes32"
        },
        {
          "internalType": "uint256",
          "name": "delay",
          "type": "uint256"
        }
      ],
      "name": "scheduleBatch",
      "outputs": [],
      "stateMutability": "nonpayable",
      "type": "function"
    },
    {
      "inputs": [
        {
          "internalType": "contract IHATVault",
          "name": "_vault",
          "type": "address"
        },
        {
          "internalType": "contract IRewardController",
          "name": "_rewardController",
          "type": "address"
        },
        {
          "internalType": "uint256",
          "name": "_allocPoint",
          "type": "uint256"
        }
      ],
      "name": "setAllocPoint",
      "outputs": [],
      "stateMutability": "nonpayable",
      "type": "function"
    },
    {
      "inputs": [
        {
          "internalType": "contract IHATClaimsManager",
          "name": "_claimsManager",
          "type": "address"
        },
        {
          "internalType": "address",
          "name": "_committee",
          "type": "address"
        }
      ],
      "name": "setCommittee",
      "outputs": [],
      "stateMutability": "nonpayable",
      "type": "function"
    },
    {
      "inputs": [
        {
          "internalType": "contract IHATVault",
          "name": "_vault",
          "type": "address"
        },
        {
          "internalType": "bool",
          "name": "_depositPause",
          "type": "bool"
        }
      ],
      "name": "setDepositPause",
      "outputs": [],
      "stateMutability": "nonpayable",
      "type": "function"
    },
    {
      "inputs": [
        {
          "internalType": "contract IHATVaultsRegistry",
          "name": "_registry",
          "type": "address"
        },
        {
          "internalType": "bool",
          "name": "_isEmergencyPaused",
          "type": "bool"
        }
      ],
      "name": "setEmergencyPaused",
      "outputs": [],
      "stateMutability": "nonpayable",
      "type": "function"
    },
    {
      "inputs": [
        {
          "internalType": "contract IHATVault",
          "name": "_vault",
          "type": "address"
        },
        {
          "internalType": "string",
          "name": "_descriptionHash",
          "type": "string"
        }
      ],
      "name": "setVaultDescription",
      "outputs": [],
      "stateMutability": "nonpayable",
      "type": "function"
    },
    {
      "inputs": [
        {
          "internalType": "contract IHATVault",
          "name": "_vault",
          "type": "address"
        },
        {
          "internalType": "bool",
          "name": "_visible",
          "type": "bool"
        }
      ],
      "name": "setVaultVisibility",
      "outputs": [],
      "stateMutability": "nonpayable",
      "type": "function"
    },
    {
      "inputs": [
        {
          "internalType": "bytes4",
          "name": "interfaceId",
          "type": "bytes4"
        }
      ],
      "name": "supportsInterface",
      "outputs": [
        {
          "internalType": "bool",
          "name": "",
          "type": "bool"
        }
      ],
      "stateMutability": "view",
      "type": "function"
    },
    {
      "inputs": [
        {
          "internalType": "contract IHATVaultsRegistry",
          "name": "_registry",
          "type": "address"
        },
        {
          "internalType": "address",
          "name": "_asset",
          "type": "address"
        },
        {
          "internalType": "address[]",
          "name": "_beneficiaries",
          "type": "address[]"
        },
        {
          "internalType": "uint256",
          "name": "_amountOutMinimum",
          "type": "uint256"
        },
        {
          "internalType": "address",
          "name": "_routingContract",
          "type": "address"
        },
        {
          "internalType": "bytes",
          "name": "_routingPayload",
          "type": "bytes"
        }
      ],
      "name": "swapAndSend",
      "outputs": [],
      "stateMutability": "nonpayable",
      "type": "function"
    },
    {
      "inputs": [
        {
          "internalType": "uint256",
          "name": "newDelay",
          "type": "uint256"
        }
      ],
      "name": "updateDelay",
      "outputs": [],
      "stateMutability": "nonpayable",
      "type": "function"
    },
    {
      "stateMutability": "payable",
      "type": "receive"
    }
  ],
  "transactionHash": "0xbd760cac12739989ffda17e97b348abb806d61b7360a4cc52588d9366aada3ab",
  "args": [
    300,
    [
      "0xFc9F1d127f8047B0F41e9eAC2Adc2e5279C568B7"
    ],
    [
      "0xFc9F1d127f8047B0F41e9eAC2Adc2e5279C568B7"
    ]
  ],
  "numDeployments": 3,
  "solcInputHash": "e2dd19fbd28890679930fe6b1d01ee82",
  "bytecode": "0x60406080815234620003ff5762002811803803806200001e8162000404565b928339810190606081830312620003ff5780516020808301516001600160401b03949293919290858111620003ff57816200005b91840162000440565b9486830151908111620003ff5762000074920162000440565b7f5f58e3a2316349923ce3780f8d587db2d72378aed66a8261c916544fa6846ca5938560009580875286855260019283888185822001548483878420015584865191817fbd79b86ffe0ab8e8776151514217cd7cacd52c909f66475c3af44e129f0b00ff809585a48a7fb09aa5aeb3702cfd50b6b62bc4532604938f21248a27a1d5ca736082b6819cc1918282528685898420015481878b8620015584868585a47fd8aa0f3194971a2a116679f7c2090f6939c8d4e01a2a8d7e41d55e5351469e639687835280868a8520015481888c8720015589878686a480897ffd643c72710c63c0180259aba6b2d05451e3591a24e58b62239378085726f7838097818752838a80858a20015494892001558686a48083528883203084528c5260ff9889818520541615620003c6575b9c9a9d9b999897969592915050905b620002ab575b505050508286905b62000205575b505050507f11c24f4ead16507c69ac467fbd5e4eed5fb5c699626d2cc6d66421df253886d59450816002558351928352820152a1516122e690816200050b8239f35b909192939597949685518210156200029f57849162000257916001600160a01b0362000232838a620004df565b5116858c528b8a52818c20818d528a5286828d2054161562000266575b5050620004b9565b899795989694939291620001bd565b858c528b8a52818c20818d528a52818c208560ff1982541617905585600080516020620027f18339815191528d339451a48a386200024f565b969488969450620001c3565b8697999b989a50839495969351811015620003b65762000331908d8d858d6001600160a01b0380620002de878d620004df565b511688855284835285852081865283528d8686205416156200037d575b5062000308868c620004df565b51169282815280825284812084825282528c85822054161562000341575b5050505050620004b9565b8c9a989b999796959493620001af565b600080516020620027f18339815191529183825281815285822090858352528481208a60ff19825416179055339451a48d38858f8e9062000326565b88855284835285852081865283528585208b60ff19825416179055339089600080516020620027f1833981519152878951a438620002fb565b8c9a989b999796959450620001b5565b818452838d528084203085528d5283208660ff19825416179055600080516020620027f183398151915233933093a48a38808e620001a0565b600080fd5b6040519190601f01601f191682016001600160401b038111838210176200042a57604052565b634e487b7160e01b600052604160045260246000fd5b81601f82011215620003ff578051916001600160401b0383116200042a578260051b60209283806200047481850162000404565b809781520192820101928311620003ff578301905b82821062000498575050505090565b81516001600160a01b0381168103620003ff57815290830190830162000489565b6000198114620004c95760010190565b634e487b7160e01b600052601160045260246000fd5b8051821015620004f45760209160051b010190565b634e487b7160e01b600052603260045260246000fdfe60406080815260049081361015610020575b5050361561001e57600080fd5b005b600091823560e01c83816301d5062a146113195750806301ffc9a7146112a757806307bd02651461127e5780630d3cf6fc14611243578063134008d31461119757806313bc9f2014611177578063150b7a02146111225780631ff550dd1461109e578063248a9ca3146110755783816324a8ae8414611010578163252ca2b514610fa5575080632ab0f52914610f765780632f2ff15d14610ecd57806331d5075014610e9f57806336568abe14610e0f578381633d2f895c14610d9a57508063584b153e14610d6257806364d6235314610cb75780638065657f14610c95578381638643778514610c30575080638f2a0bb014610b0c5780638f61f4f514610ad157806391d1485414610a8d578063a217fddf14610a7257838163aec1d1081461099257508063b08e51c014610957578063b1c5f4271461092b578063bc197c81146108a5578063c4d252f5146105dc57838163ca8001511461056c578163cdb76136146104e657508063d45c4435146104bf578063d547741f14610483578063e38335e51461036f578063f23a6e6114610317578063f27a0c92146102f85763f2e615e4146101d05750610011565b346102f45760031960c0368201126102f0576101ea6113bb565b6101f26113d1565b926001600160401b03926044358481116102ec57610213903690840161157b565b9490916084359660018060a01b03938489168099036102e7578a9860a4359485116102e3576102468695369089016113e7565b969098610252336116c1565b1695863b156102df578a98899561028f6102ab958f519d8e9c8d9b8c9a63e2b001bf60e01b8c5216908a015260a060248a015260a4890191611c18565b9360643560448801526064870152858403016084860152611ba2565b03925af180156102d2576102be57505051f35b6102c790611462565b6102ce5751f35b5080fd5b50505051903d90823e3d90fd5b8a80fd5b8980fd5b600080fd5b8780fd5b8380fd5b8280fd5b5050346102ce57816003193601126102ce576020906002549051908152f35b50913461036c5760a036600319011261036c576103326113bb565b5061033b6113d1565b50608435906001600160401b03821161036c575060209261035e91369101611519565b505163f23a6e6160e01b8152f35b80fd5b6103df84846103d8610380366115ab565b6000805160206122918339815191528b9c939c999299979497528a602052898b206000805260205260ff8a600020541615610475575b6103c1858514611da3565b6103cc8c8514611da3565b888c888789888d611c61565b96876120bd565b875b8181106103f65788886103f389612153565b51f35b8080887fc2617efa69bab66782fa219543714338489c4e9e178271560a91b82c3f612b5888888f8e610451878f9361044a828f8f6104709f61043f90610444926104689b611e20565b611e46565b98611e20565b3596611e5a565b9161045e83838888611faf565b5194859485611f8b565b0390a3611dfb565b6103e1565b61047e336118b5565b6103b6565b50346102f457816003193601126102f4576103f390356104a16113d1565b90808552846020526104ba6001858720015433906119f4565b611b08565b50346102f45760203660031901126102f45760209282913581526001845220549051908152f35b919050346102ce57826003193601126102ce576105016113bb565b906024356001600160401b0381116102f057366023820112156102f05761053190369060248185013591016114e2565b9161053b336116c1565b6001600160a01b031691823b156102f0576102ab928492838751809681958294632905f80360e21b84528301611695565b919050346102ce57826003193601126102ce576105876113bb565b61058f6113d1565b90610599336116c1565b6001600160a01b03908116803b156105d85784928360249288519687958694635eed720760e11b865216908401525af180156102d2576102be57505051f35b8480fd5b5090346102f4576020806003193601126102f0578235927ffd643c72710c63c0180259aba6b2d05451e3591a24e58b62239378085726f78380600052600083528360002033600052835260ff846000205416156106e1575061064c84600052600160205260016040600020541190565b15610686575060019083855252828181205551907fbaa1eb22f2a492ba1a5fea61b8df4d27c6c8b5f3971e63bb58fa14ff72eedb708383a2f35b915162461bcd60e51b815291820152603160248201527f54696d656c6f636b436f6e74726f6c6c65723a206f7065726174696f6e2063616044820152701b9b9bdd0818994818d85b98d95b1b1959607a1b6064820152608490fd5b6106ed92919233612182565b8451906106f98261148b565b604282528382019260603685378251156108905760308453825160019081101561087b57607860218501536041905b80821161080e5750506107cc576107c89386936107b4936107a560489461077c9a519a8576020b1b1b2b9b9a1b7b73a3937b61d1030b1b1b7bab73a1604d1b8d978801528251928391603789019101611672565b8401917001034b99036b4b9b9b4b733903937b6329607d1b603784015251809386840190611672565b010360288101875201856114a6565b5162461bcd60e51b81529283928301611695565b0390fd5b50505080606493519262461bcd60e51b845283015260248201527f537472696e67733a20686578206c656e67746820696e73756666696369656e746044820152fd5b9091600f81166010811015610866576f181899199a1a9b1b9c1cb0b131b232b360811b901a61083d8487612171565b53871c918015610851576000190190610728565b601188634e487b7160e01b6000525260246000fd5b603289634e487b7160e01b6000525260246000fd5b603287634e487b7160e01b6000525260246000fd5b603286634e487b7160e01b6000525260246000fd5b50913461036c5760a036600319011261036c576108c06113bb565b506108c96113d1565b506001600160401b03906044358281116102ce576108ea903690860161160c565b506064358281116102ce57610902903690860161160c565b5060843591821161036c575060209261091d91369101611519565b505163bc197c8160e01b8152f35b5050346102ce57602090610950610941366115ab565b96959095949194939293611c61565b9051908152f35b5050346102ce57816003193601126102ce57602090517ffd643c72710c63c0180259aba6b2d05451e3591a24e58b62239378085726f7838152f35b919050346102ce57826003193601126102ce576109ad6113bb565b906109b6611537565b916109c0336116c1565b8451637b10399960e01b81526001600160a01b0391821691906020818581865afa908115610a68578691610a2a575b5016803b156105d857849283604492885196879586946315d83a2160e31b8652850152151560248401525af180156102d2576102be57505051f35b90506020813d8211610a60575b81610a44602093836114a6565b81010312610a5c57518181168103610a5c57386109ef565b8580fd5b3d9150610a37565b87513d88823e3d90fd5b5050346102ce57816003193601126102ce5751908152602090f35b50346102f457816003193601126102f45781602093610aaa6113d1565b92358152808552209060018060a01b0316600052825260ff81600020541690519015158152f35b5050346102ce57816003193601126102ce57602090517fb09aa5aeb3702cfd50b6b62bc4532604938f21248a27a1d5ca736082b6819cc18152f35b50346102f45760c03660031901126102f4576001600160401b0381358181116105d857610b3c903690840161157b565b919092602435828111610c2c57610b56903690830161157b565b9290916044359182116102ec57610b6f9136910161157b565b909260a4359160643591610b82336116c1565b610b8d818814611da3565b610b98828814611da3565b610baa608435848489858a8d8f611c61565b96610bb58589611e9b565b898b5b828110610bc4578c8251f35b808a7f4cf4410cc57040e44862ef0f45f3dd5a5e02db8eb8add648d4b0e236f1d07dca8b8b8f8c8c610c2599610c1a898f8f8f610c1391610c0d61043f8680946104689d611e20565b9a611e20565b3598611e5a565b915196879687611d6b565b8a90610bb8565b8680fd5b919050346102ce57610c4136611546565b909291610c4d336116c1565b6001600160a01b0316803b156105d8578551634fd5e6d760e11b81526001600160a01b03909416928401928352602083019190915283918391908290849082906040016102ab565b5050346102ce57602090610950610cab36611414565b94939093929192611bc3565b50346102f45760203660031901126102f457803590303303610d0b57507f11c24f4ead16507c69ac467fbd5e4eed5fb5c699626d2cc6d66421df253886d5826002548151908152836020820152a160025551f35b608490602084519162461bcd60e51b8352820152602b60248201527f54696d656c6f636b436f6e74726f6c6c65723a2063616c6c6572206d7573742060448201526a62652074696d656c6f636b60a81b6064820152fd5b50913461036c57602036600319011261036c5750610d9160209235600052600160205260016040600020541190565b90519015158152f35b919050346102ce5760603660031901126102ce57610db66113bb565b6001600160a01b03602435818116908190036105d857610dd5336116c1565b803b156105d8578492836044928851968795869462ac5c8360e21b86521690840152833560248401525af180156102d2576102be57505051f35b50346102f457816003193601126102f457610e286113d1565b90336001600160a01b03831603610e4457906103f39135611b08565b608490602084519162461bcd60e51b8352820152602f60248201527f416363657373436f6e74726f6c3a2063616e206f6e6c792072656e6f756e636560448201526e103937b632b9903337b91039b2b63360891b6064820152fd5b50913461036c57602036600319011261036c5750610d91602092356000526001602052604060002054151590565b50346102f457816003193601126102f45735610ee76113d1565b81845283602052610eff6001848620015433906119f4565b818452836020528284209060018060a01b0316908160005260205260ff83600020541615610f2c57505051f35b818452836020528284208160005260205282600020600160ff1982541617905533917f2f8788117e7eff1d82e926ec794901d17c78024a50270940304540a733656f0d858551a451f35b50913461036c57602036600319011261036c5750610d9160209235600052600160205260016040600020541490565b919050346102ce57826003193601126102ce57610fc06113bb565b610fc8611537565b90610fd2336116c1565b6001600160a01b031691823b156102f0576024849283875195869485936386d192e560e01b85521515908401525af180156102d2576102be57505051f35b919050346102ce5761102136611546565b90929161102d336116c1565b6001600160a01b0316803b156105d85785516370b73f7960e11b81526001600160a01b03909416928401928352602083019190915283918391908290849082906040016102ab565b50346102f45760203660031901126102f457816020936001923581528085522001549051908152f35b508290346102ce57826003193601126102ce576110b96113bb565b906110c2611537565b916110cc336116c1565b6001600160a01b031691823b156102f05790602484928387519586948593639d0ab89f60e01b85521515908401525af180156111185761110b57509051f35b61111490611462565b9051f35b83513d84823e3d90fd5b50913461036c57608036600319011261036c5761113d6113bb565b506111466113d1565b50606435906001600160401b03821161036c575060209261116991369101611519565b5051630a85bd0160e11b8152f35b50913461036c57602036600319011261036c5750610d9160209235611b7e565b50506103f36112168361122d7fc2617efa69bab66782fa219543714338489c4e9e178271560a91b82c3f612b5861120d6111d036611414565b6000805160206122918339815191528a999597929994939452896020528c8a208a805260205260ff8d8b20541615611235575b8884848989611bc3565b988997886120bd565b61122282828787611faf565b8a5194859485611f8b565b0390a3612153565b61123e336118b5565b611203565b5050346102ce57816003193601126102ce57602090517f5f58e3a2316349923ce3780f8d587db2d72378aed66a8261c916544fa6846ca58152f35b5050346102ce57816003193601126102ce57602090516000805160206122918339815191528152f35b50346102f45760203660031901126102f457359063ffffffff60e01b82168092036102f45760209250630271189760e51b82149182156112eb575b50519015158152f35b909150637965db0b60e01b8114908115611308575b5090386112e2565b6301ffc9a760e01b14905038611300565b919050346102ce5760c03660031901126102ce576113356113bb565b90602435604435926001600160401b0384116105d85761137c7f4cf4410cc57040e44862ef0f45f3dd5a5e02db8eb8add648d4b0e236f1d07dca936113b5953691016113e7565b60649591953560a4359161138f336116c1565b61139f60843583838b8a8a611bc3565b976113aa848a611e9b565b8a5196879687611d6b565b0390a351f35b600435906001600160a01b03821682036102e757565b602435906001600160a01b03821682036102e757565b9181601f840112156102e7578235916001600160401b0383116102e757602083818601950101116102e757565b60a06003198201126102e7576004356001600160a01b03811681036102e7579160243591604435906001600160401b0382116102e757611456916004016113e7565b90916064359060843590565b6001600160401b03811161147557604052565b634e487b7160e01b600052604160045260246000fd5b608081019081106001600160401b0382111761147557604052565b90601f801991011681019081106001600160401b0382111761147557604052565b6001600160401b03811161147557601f01601f191660200190565b9291926114ee826114c7565b916114fc60405193846114a6565b8294818452818301116102e7578281602093846000960137010152565b9080601f830112156102e757816020611534933591016114e2565b90565b6024359081151582036102e757565b60609060031901126102e7576001600160a01b039060043582811681036102e7579160243590811681036102e7579060443590565b9181601f840112156102e7578235916001600160401b0383116102e7576020808501948460051b0101116102e757565b9060a06003198301126102e7576001600160401b036004358181116102e757836115d79160040161157b565b939093926024358381116102e757826115f29160040161157b565b939093926044359182116102e7576114569160040161157b565b9080601f830112156102e7578135906001600160401b038211611475578160051b60405193602093611640858401876114a6565b855283808601928201019283116102e7578301905b828210611663575050505090565b81358152908301908301611655565b60005b8381106116855750506000910152565b8181015183820152602001611675565b604091602082526116b58151809281602086015260208686019101611672565b601f01601f1916010190565b6001600160a01b031660008181527f3412d5605ac6cd444957cedb533e5dacad6378b4bc819ebe3652188a665066d5602090815260408083205490939192917fb09aa5aeb3702cfd50b6b62bc4532604938f21248a27a1d5ca736082b6819cc19160ff1615611731575050505050565b61173a90612182565b8451916117468361148b565b604283528483019360603686378351156118a157603085538351906001918210156118a15790607860218601536041915b818311611833575050506117f15761077c9385936117db936117cc6048946107c89951988576020b1b1b2b9b9a1b7b73a3937b61d1030b1b1b7bab73a1604d1b8b978801528251928391603789019101611672565b010360288101855201836114a6565b5162461bcd60e51b815291829160048301611695565b60648486519062461bcd60e51b825280600483015260248201527f537472696e67733a20686578206c656e67746820696e73756666696369656e746044820152fd5b909192600f8116601081101561188d576f181899199a1a9b1b9c1cb0b131b232b360811b901a6118638588612171565b5360041c92801561187957600019019190611777565b634e487b7160e01b82526011600452602482fd5b634e487b7160e01b83526032600452602483fd5b634e487b7160e01b81526032600452602490fd5b6001600160a01b031660008181527fdae2aa361dfd1ca020a396615627d436107c35eff9fe7738a3512819782d7069602090815260408083205490939192916000805160206122918339815191529160ff1615611913575050505050565b61191c90612182565b8451916119288361148b565b604283528483019360603686378351156118a157603085538351906001918210156118a15790607860218601536041915b8183116119ae575050506117f15761077c9385936117db936117cc6048946107c89951988576020b1b1b2b9b9a1b7b73a3937b61d1030b1b1b7bab73a1604d1b8b978801528251928391603789019101611672565b909192600f8116601081101561188d576f181899199a1a9b1b9c1cb0b131b232b360811b901a6119de8588612171565b5360041c92801561187957600019019190611959565b60008181526020918183526040938483209060018060a01b031690818452845260ff858420541615611a27575050505050565b611a3090612182565b845191611a3c8361148b565b604283528483019360603686378351156118a157603085538351906001918210156118a15790607860218601536041915b818311611ac2575050506117f15761077c9385936117db936117cc6048946107c89951988576020b1b1b2b9b9a1b7b73a3937b61d1030b1b1b7bab73a1604d1b8b978801528251928391603789019101611672565b909192600f8116601081101561188d576f181899199a1a9b1b9c1cb0b131b232b360811b901a611af28588612171565b5360041c92801561187957600019019190611a6d565b9060009180835282602052604083209160018060a01b03169182845260205260ff604084205416611b3857505050565b80835282602052604083208284526020526040832060ff1981541690557ff6391f5c32d9c69d2a47ea670b442974b53935d1edc7fd64eb21e047a839171b3393604051a4565b6000526001602052604060002054600181119081611b9a575090565b905042101590565b908060209392818452848401376000828201840152601f01601f1916010190565b94611bf9611c1294959293604051968795602087019960018060a01b03168a52604087015260a0606087015260c0860191611ba2565b91608084015260a083015203601f1981018352826114a6565b51902090565b9190808252602080920192916000805b838210611c3757505050505090565b9091929394853560018060a01b0381168091036102f4578152830194830193929160010190611c28565b969294909695919560405196611c85602092838a019a60a08c5260c08b0191611c18565b601f19898203810160408b0152888252976001600160fb1b0381116102e7579089969495939897929160051b80928a830137019380888601878703606089015252604085019460408260051b82010195836000925b848410611d0257505050505050611c129550608084015260a0830152039081018352826114a6565b9193969850919398999496603f198282030184528935601e19843603018112156102e75783018681019190356001600160401b0381116102e75780360383136102e757611d5488928392600195611ba2565b9b0194019401918b98969394919a9997959a611cda565b929093611d99926080959897969860018060a01b03168552602085015260a0604085015260a0840191611ba2565b9460608201520152565b15611daa57565b60405162461bcd60e51b815260206004820152602360248201527f54696d656c6f636b436f6e74726f6c6c65723a206c656e677468206d69736d616044820152620e8c6d60eb1b6064820152608490fd5b6000198114611e0a5760010190565b634e487b7160e01b600052601160045260246000fd5b9190811015611e305760051b0190565b634e487b7160e01b600052603260045260246000fd5b356001600160a01b03811681036102e75790565b9190811015611e305760051b81013590601e19813603018212156102e75701908135916001600160401b0383116102e75760200182360381136102e7579190565b90611eb3826000526001602052604060002054151590565b611f2e576002548110611eda57420190814211611e0a576000526001602052604060002055565b60405162461bcd60e51b815260206004820152602660248201527f54696d656c6f636b436f6e74726f6c6c65723a20696e73756666696369656e746044820152652064656c617960d01b6064820152608490fd5b60405162461bcd60e51b815260206004820152602f60248201527f54696d656c6f636b436f6e74726f6c6c65723a206f7065726174696f6e20616c60448201526e1c9958591e481cd8da19591d5b1959608a1b6064820152608490fd5b611534949260609260018060a01b0316825260208201528160408201520191611ba2565b90926000938493826040519384928337810185815203925af13d15612059573d611fd8816114c7565b90611fe660405192836114a6565b8152600060203d92013e5b15611ff857565b60405162461bcd60e51b815260206004820152603360248201527f54696d656c6f636b436f6e74726f6c6c65723a20756e6465726c79696e6720746044820152721c985b9cd858dd1a5bdb881c995d995c9d1959606a1b6064820152608490fd5b611ff1565b1561206557565b60405162461bcd60e51b815260206004820152602a60248201527f54696d656c6f636b436f6e74726f6c6c65723a206f7065726174696f6e206973604482015269206e6f7420726561647960b01b6064820152608490fd5b6120c96120ce91611b7e565b61205e565b8015908115612134575b50156120e057565b60405162461bcd60e51b815260206004820152602660248201527f54696d656c6f636b436f6e74726f6c6c65723a206d697373696e6720646570656044820152656e64656e637960d01b6064820152608490fd5b61214d9150600052600160205260016040600020541490565b386120d8565b61215f6120c982611b7e565b60005260016020526001604060002055565b908151811015611e30570160200190565b60405190606082018281106001600160401b0382111761147557604052602a8252602082016040368237825115611e3057603090538151600190811015611e3057607860218401536029905b8082116122225750506121de5790565b606460405162461bcd60e51b815260206004820152602060248201527f537472696e67733a20686578206c656e67746820696e73756666696369656e746044820152fd5b9091600f8116601081101561227b576f181899199a1a9b1b9c1cb0b131b232b360811b901a6122518486612171565b5360041c9180156122665760001901906121ce565b60246000634e487b7160e01b81526011600452fd5b60246000634e487b7160e01b81526032600452fdfed8aa0f3194971a2a116679f7c2090f6939c8d4e01a2a8d7e41d55e5351469e63a26469706673582212207f805d3e918c4805e07c9dc4dba61dc42894670c3fde922a6cf18227bec00f2264736f6c634300081000332f8788117e7eff1d82e926ec794901d17c78024a50270940304540a733656f0d",
  "devdoc": {
    "kind": "dev",
    "methods": {
      "cancel(bytes32)": {
        "details": "Cancel an operation. Requirements: - the caller must have the 'canceller' role."
      },
      "execute(address,uint256,bytes,bytes32,bytes32)": {
        "details": "Execute an (ready) operation containing a single transaction. Emits a {CallExecuted} event. Requirements: - the caller must have the 'executor' role."
      },
      "executeBatch(address[],uint256[],bytes[],bytes32,bytes32)": {
        "details": "Execute an (ready) operation containing a batch of transactions. Emits one {CallExecuted} event per transaction in the batch. Requirements: - the caller must have the 'executor' role."
      },
      "getMinDelay()": {
        "details": "Returns the minimum delay for an operation to become valid. This value can be changed by executing an operation that calls `updateDelay`."
      },
      "getRoleAdmin(bytes32)": {
        "details": "Returns the admin role that controls `role`. See {grantRole} and {revokeRole}. To change a role's admin, use {_setRoleAdmin}."
      },
      "getTimestamp(bytes32)": {
        "details": "Returns the timestamp at with an operation becomes ready (0 for unset operations, 1 for done operations)."
      },
      "grantRole(bytes32,address)": {
        "details": "Grants `role` to `account`. If `account` had not been already granted `role`, emits a {RoleGranted} event. Requirements: - the caller must have ``role``'s admin role. May emit a {RoleGranted} event."
      },
      "hasRole(bytes32,address)": {
        "details": "Returns `true` if `account` has been granted `role`."
      },
      "hashOperation(address,uint256,bytes,bytes32,bytes32)": {
        "details": "Returns the identifier of an operation containing a single transaction."
      },
      "hashOperationBatch(address[],uint256[],bytes[],bytes32,bytes32)": {
        "details": "Returns the identifier of an operation containing a batch of transactions."
      },
      "isOperation(bytes32)": {
        "details": "Returns whether an id correspond to a registered operation. This includes both Pending, Ready and Done operations."
      },
      "isOperationDone(bytes32)": {
        "details": "Returns whether an operation is done or not."
      },
      "isOperationPending(bytes32)": {
        "details": "Returns whether an operation is pending or not."
      },
      "isOperationReady(bytes32)": {
        "details": "Returns whether an operation is ready or not."
      },
      "onERC1155BatchReceived(address,address,uint256[],uint256[],bytes)": {
        "details": "See {IERC1155Receiver-onERC1155BatchReceived}."
      },
      "onERC1155Received(address,address,uint256,uint256,bytes)": {
        "details": "See {IERC1155Receiver-onERC1155Received}."
      },
      "onERC721Received(address,address,uint256,bytes)": {
        "details": "See {IERC721Receiver-onERC721Received}."
      },
      "renounceRole(bytes32,address)": {
        "details": "Revokes `role` from the calling account. Roles are often managed via {grantRole} and {revokeRole}: this function's purpose is to provide a mechanism for accounts to lose their privileges if they are compromised (such as when a trusted device is misplaced). If the calling account had been revoked `role`, emits a {RoleRevoked} event. Requirements: - the caller must be `account`. May emit a {RoleRevoked} event."
      },
      "revokeRole(bytes32,address)": {
        "details": "Revokes `role` from `account`. If `account` had been granted `role`, emits a {RoleRevoked} event. Requirements: - the caller must have ``role``'s admin role. May emit a {RoleRevoked} event."
      },
      "schedule(address,uint256,bytes,bytes32,bytes32,uint256)": {
        "details": "Schedule an operation containing a single transaction. Emits a {CallScheduled} event. Requirements: - the caller must have the 'proposer' role."
      },
      "scheduleBatch(address[],uint256[],bytes[],bytes32,bytes32,uint256)": {
        "details": "Schedule an operation containing a batch of transactions. Emits one {CallScheduled} event per transaction in the batch. Requirements: - the caller must have the 'proposer' role."
      },
      "supportsInterface(bytes4)": {
        "details": "See {IERC165-supportsInterface}."
      },
      "updateDelay(uint256)": {
        "details": "Changes the minimum timelock duration for future operations. Emits a {MinDelayChange} event. Requirements: - the caller must be the timelock itself. This can only be achieved by scheduling and later executing an operation where the timelock is the target and the data is the ABI-encoded call to this function."
      }
    },
    "version": 1
  },
  "userdoc": {
    "kind": "user",
    "methods": {},
    "version": 1
  },
  "storageLayout": {
    "storage": [
      {
        "astId": 4783,
        "contract": "contracts/HATTimelockController.sol:HATTimelockController",
        "label": "_roles",
        "offset": 0,
        "slot": "0",
        "type": "t_mapping(t_bytes32,t_struct(RoleData)4778_storage)"
      },
      {
        "astId": 5303,
        "contract": "contracts/HATTimelockController.sol:HATTimelockController",
        "label": "_timestamps",
        "offset": 0,
        "slot": "1",
        "type": "t_mapping(t_bytes32,t_uint256)"
      },
      {
        "astId": 5305,
        "contract": "contracts/HATTimelockController.sol:HATTimelockController",
        "label": "_minDelay",
        "offset": 0,
        "slot": "2",
        "type": "t_uint256"
      }
    ],
    "types": {
      "t_address": {
        "encoding": "inplace",
        "label": "address",
        "numberOfBytes": "20"
      },
      "t_bool": {
        "encoding": "inplace",
        "label": "bool",
        "numberOfBytes": "1"
      },
      "t_bytes32": {
        "encoding": "inplace",
        "label": "bytes32",
        "numberOfBytes": "32"
      },
      "t_mapping(t_address,t_bool)": {
        "encoding": "mapping",
        "key": "t_address",
        "label": "mapping(address => bool)",
        "numberOfBytes": "32",
        "value": "t_bool"
      },
      "t_mapping(t_bytes32,t_struct(RoleData)4778_storage)": {
        "encoding": "mapping",
        "key": "t_bytes32",
        "label": "mapping(bytes32 => struct AccessControl.RoleData)",
        "numberOfBytes": "32",
        "value": "t_struct(RoleData)4778_storage"
      },
      "t_mapping(t_bytes32,t_uint256)": {
        "encoding": "mapping",
        "key": "t_bytes32",
        "label": "mapping(bytes32 => uint256)",
        "numberOfBytes": "32",
        "value": "t_uint256"
      },
      "t_struct(RoleData)4778_storage": {
        "encoding": "inplace",
        "label": "struct AccessControl.RoleData",
        "members": [
          {
            "astId": 4775,
            "contract": "contracts/HATTimelockController.sol:HATTimelockController",
            "label": "members",
            "offset": 0,
            "slot": "0",
            "type": "t_mapping(t_address,t_bool)"
          },
          {
            "astId": 4777,
            "contract": "contracts/HATTimelockController.sol:HATTimelockController",
            "label": "adminRole",
            "offset": 0,
            "slot": "1",
            "type": "t_bytes32"
          }
        ],
        "numberOfBytes": "64"
      },
      "t_uint256": {
        "encoding": "inplace",
        "label": "uint256",
        "numberOfBytes": "32"
      }
    }
  }
}