{
  "address": "0x878Cab06E6f4a85D90E5f236d326a41Ef6f44F9f",
  "abi": [
    {
      "inputs": [
        {
          "internalType": "address",
          "name": "_governance",
          "type": "address"
        }
      ],
      "stateMutability": "nonpayable",
      "type": "constructor"
    },
    {
      "inputs": [],
      "name": "TransfersDisabled",
      "type": "error"
    },
    {
      "inputs": [],
      "name": "ZeroAmount",
      "type": "error"
    },
    {
      "anonymous": false,
      "inputs": [
        {
          "indexed": true,
          "internalType": "address",
          "name": "owner",
          "type": "address"
        },
        {
          "indexed": true,
          "internalType": "address",
          "name": "spender",
          "type": "address"
        },
        {
          "indexed": false,
          "internalType": "uint256",
          "name": "value",
          "type": "uint256"
        }
      ],
      "name": "Approval",
      "type": "event"
    },
    {
      "anonymous": false,
      "inputs": [
        {
          "indexed": true,
          "internalType": "address",
          "name": "delegator",
          "type": "address"
        },
        {
          "indexed": true,
          "internalType": "address",
          "name": "fromDelegate",
          "type": "address"
        },
        {
          "indexed": true,
          "internalType": "address",
          "name": "toDelegate",
          "type": "address"
        }
      ],
      "name": "DelegateChanged",
      "type": "event"
    },
    {
      "anonymous": false,
      "inputs": [
        {
          "indexed": true,
          "internalType": "address",
          "name": "delegate",
          "type": "address"
        },
        {
          "indexed": false,
          "internalType": "uint256",
          "name": "previousBalance",
          "type": "uint256"
        },
        {
          "indexed": false,
          "internalType": "uint256",
          "name": "newBalance",
          "type": "uint256"
        }
      ],
      "name": "DelegateVotesChanged",
      "type": "event"
    },
    {
      "anonymous": false,
      "inputs": [
        {
          "indexed": true,
          "internalType": "address",
          "name": "minter",
          "type": "address"
        },
        {
          "indexed": false,
          "internalType": "uint256",
          "name": "seedAmount",
          "type": "uint256"
        }
      ],
      "name": "MinterSet",
      "type": "event"
    },
    {
      "anonymous": false,
      "inputs": [
        {
          "indexed": true,
          "internalType": "address",
          "name": "previousOwner",
          "type": "address"
        },
        {
          "indexed": true,
          "internalType": "address",
          "name": "newOwner",
          "type": "address"
        }
      ],
      "name": "OwnershipTransferred",
      "type": "event"
    },
    {
      "anonymous": false,
      "inputs": [
        {
          "indexed": true,
          "internalType": "address",
          "name": "from",
          "type": "address"
        },
        {
          "indexed": true,
          "internalType": "address",
          "name": "to",
          "type": "address"
        },
        {
          "indexed": false,
          "internalType": "uint256",
          "name": "value",
          "type": "uint256"
        }
      ],
      "name": "Transfer",
      "type": "event"
    },
    {
      "anonymous": false,
      "inputs": [],
      "name": "TransferableSet",
      "type": "event"
    },
    {
      "inputs": [],
      "name": "DOMAIN_SEPARATOR",
      "outputs": [
        {
          "internalType": "bytes32",
          "name": "",
          "type": "bytes32"
        }
      ],
      "stateMutability": "view",
      "type": "function"
    },
    {
      "inputs": [
        {
          "internalType": "address",
          "name": "owner",
          "type": "address"
        },
        {
          "internalType": "address",
          "name": "spender",
          "type": "address"
        }
      ],
      "name": "allowance",
      "outputs": [
        {
          "internalType": "uint256",
          "name": "",
          "type": "uint256"
        }
      ],
      "stateMutability": "view",
      "type": "function"
    },
    {
      "inputs": [
        {
          "internalType": "address",
          "name": "spender",
          "type": "address"
        },
        {
          "internalType": "uint256",
          "name": "amount",
          "type": "uint256"
        }
      ],
      "name": "approve",
      "outputs": [
        {
          "internalType": "bool",
          "name": "",
          "type": "bool"
        }
      ],
      "stateMutability": "nonpayable",
      "type": "function"
    },
    {
      "inputs": [
        {
          "internalType": "address",
          "name": "account",
          "type": "address"
        }
      ],
      "name": "balanceOf",
      "outputs": [
        {
          "internalType": "uint256",
          "name": "",
          "type": "uint256"
        }
      ],
      "stateMutability": "view",
      "type": "function"
    },
    {
      "inputs": [
        {
          "internalType": "uint256",
          "name": "_amount",
          "type": "uint256"
        }
      ],
      "name": "burn",
      "outputs": [],
      "stateMutability": "nonpayable",
      "type": "function"
    },
    {
      "inputs": [],
      "name": "cap",
      "outputs": [
        {
          "internalType": "uint256",
          "name": "",
          "type": "uint256"
        }
      ],
      "stateMutability": "view",
      "type": "function"
    },
    {
      "inputs": [
        {
          "internalType": "address",
          "name": "account",
          "type": "address"
        },
        {
          "internalType": "uint32",
          "name": "pos",
          "type": "uint32"
        }
      ],
      "name": "checkpoints",
      "outputs": [
        {
          "components": [
            {
              "internalType": "uint32",
              "name": "fromBlock",
              "type": "uint32"
            },
            {
              "internalType": "uint224",
              "name": "votes",
              "type": "uint224"
            }
          ],
          "internalType": "struct ERC20Votes.Checkpoint",
          "name": "",
          "type": "tuple"
        }
      ],
      "stateMutability": "view",
      "type": "function"
    },
    {
      "inputs": [],
      "name": "decimals",
      "outputs": [
        {
          "internalType": "uint8",
          "name": "",
          "type": "uint8"
        }
      ],
      "stateMutability": "view",
      "type": "function"
    },
    {
      "inputs": [
        {
          "internalType": "address",
          "name": "spender",
          "type": "address"
        },
        {
          "internalType": "uint256",
          "name": "subtractedValue",
          "type": "uint256"
        }
      ],
      "name": "decreaseAllowance",
      "outputs": [
        {
          "internalType": "bool",
          "name": "",
          "type": "bool"
        }
      ],
      "stateMutability": "nonpayable",
      "type": "function"
    },
    {
      "inputs": [
        {
          "internalType": "address",
          "name": "delegatee",
          "type": "address"
        }
      ],
      "name": "delegate",
      "outputs": [],
      "stateMutability": "nonpayable",
      "type": "function"
    },
    {
      "inputs": [
        {
          "internalType": "address",
          "name": "delegatee",
          "type": "address"
        },
        {
          "internalType": "uint256",
          "name": "nonce",
          "type": "uint256"
        },
        {
          "internalType": "uint256",
          "name": "expiry",
          "type": "uint256"
        },
        {
          "internalType": "uint8",
          "name": "v",
          "type": "uint8"
        },
        {
          "internalType": "bytes32",
          "name": "r",
          "type": "bytes32"
        },
        {
          "internalType": "bytes32",
          "name": "s",
          "type": "bytes32"
        }
      ],
      "name": "delegateBySig",
      "outputs": [],
      "stateMutability": "nonpayable",
      "type": "function"
    },
    {
      "inputs": [
        {
          "internalType": "address",
          "name": "account",
          "type": "address"
        }
      ],
      "name": "delegates",
      "outputs": [
        {
          "internalType": "address",
          "name": "",
          "type": "address"
        }
      ],
      "stateMutability": "view",
      "type": "function"
    },
    {
      "inputs": [
        {
          "internalType": "uint256",
          "name": "blockNumber",
          "type": "uint256"
        }
      ],
      "name": "getPastTotalSupply",
      "outputs": [
        {
          "internalType": "uint256",
          "name": "",
          "type": "uint256"
        }
      ],
      "stateMutability": "view",
      "type": "function"
    },
    {
      "inputs": [
        {
          "internalType": "address",
          "name": "account",
          "type": "address"
        },
        {
          "internalType": "uint256",
          "name": "blockNumber",
          "type": "uint256"
        }
      ],
      "name": "getPastVotes",
      "outputs": [
        {
          "internalType": "uint256",
          "name": "",
          "type": "uint256"
        }
      ],
      "stateMutability": "view",
      "type": "function"
    },
    {
      "inputs": [
        {
          "internalType": "address",
          "name": "account",
          "type": "address"
        }
      ],
      "name": "getVotes",
      "outputs": [
        {
          "internalType": "uint256",
          "name": "",
          "type": "uint256"
        }
      ],
      "stateMutability": "view",
      "type": "function"
    },
    {
      "inputs": [
        {
          "internalType": "address",
          "name": "spender",
          "type": "address"
        },
        {
          "internalType": "uint256",
          "name": "addedValue",
          "type": "uint256"
        }
      ],
      "name": "increaseAllowance",
      "outputs": [
        {
          "internalType": "bool",
          "name": "",
          "type": "bool"
        }
      ],
      "stateMutability": "nonpayable",
      "type": "function"
    },
    {
      "inputs": [
        {
          "internalType": "address",
          "name": "_account",
          "type": "address"
        },
        {
          "internalType": "uint256",
          "name": "_amount",
          "type": "uint256"
        }
      ],
      "name": "mint",
      "outputs": [],
      "stateMutability": "nonpayable",
      "type": "function"
    },
    {
      "inputs": [
        {
          "internalType": "address",
          "name": "",
          "type": "address"
        }
      ],
      "name": "minters",
      "outputs": [
        {
          "internalType": "uint256",
          "name": "",
          "type": "uint256"
        }
      ],
      "stateMutability": "view",
      "type": "function"
    },
    {
      "inputs": [],
      "name": "name",
      "outputs": [
        {
          "internalType": "string",
          "name": "",
          "type": "string"
        }
      ],
      "stateMutability": "view",
      "type": "function"
    },
    {
      "inputs": [
        {
          "internalType": "address",
          "name": "owner",
          "type": "address"
        }
      ],
      "name": "nonces",
      "outputs": [
        {
          "internalType": "uint256",
          "name": "",
          "type": "uint256"
        }
      ],
      "stateMutability": "view",
      "type": "function"
    },
    {
      "inputs": [
        {
          "internalType": "address",
          "name": "account",
          "type": "address"
        }
      ],
      "name": "numCheckpoints",
      "outputs": [
        {
          "internalType": "uint32",
          "name": "",
          "type": "uint32"
        }
      ],
      "stateMutability": "view",
      "type": "function"
    },
    {
      "inputs": [],
      "name": "owner",
      "outputs": [
        {
          "internalType": "address",
          "name": "",
          "type": "address"
        }
      ],
      "stateMutability": "view",
      "type": "function"
    },
    {
      "inputs": [
        {
          "internalType": "address",
          "name": "owner",
          "type": "address"
        },
        {
          "internalType": "address",
          "name": "spender",
          "type": "address"
        },
        {
          "internalType": "uint256",
          "name": "value",
          "type": "uint256"
        },
        {
          "internalType": "uint256",
          "name": "deadline",
          "type": "uint256"
        },
        {
          "internalType": "uint8",
          "name": "v",
          "type": "uint8"
        },
        {
          "internalType": "bytes32",
          "name": "r",
          "type": "bytes32"
        },
        {
          "internalType": "bytes32",
          "name": "s",
          "type": "bytes32"
        }
      ],
      "name": "permit",
      "outputs": [],
      "stateMutability": "nonpayable",
      "type": "function"
    },
    {
      "inputs": [],
      "name": "renounceOwnership",
      "outputs": [],
      "stateMutability": "nonpayable",
      "type": "function"
    },
    {
      "inputs": [
        {
          "internalType": "address",
          "name": "_minter",
          "type": "address"
        },
        {
          "internalType": "uint256",
          "name": "_seedAmount",
          "type": "uint256"
        }
      ],
      "name": "setMinter",
      "outputs": [],
      "stateMutability": "nonpayable",
      "type": "function"
    },
    {
      "inputs": [],
      "name": "setTransferable",
      "outputs": [],
      "stateMutability": "nonpayable",
      "type": "function"
    },
    {
      "inputs": [],
      "name": "symbol",
      "outputs": [
        {
          "internalType": "string",
          "name": "",
          "type": "string"
        }
      ],
      "stateMutability": "view",
      "type": "function"
    },
    {
      "inputs": [],
      "name": "totalSupply",
      "outputs": [
        {
          "internalType": "uint256",
          "name": "",
          "type": "uint256"
        }
      ],
      "stateMutability": "view",
      "type": "function"
    },
    {
      "inputs": [
        {
          "internalType": "address",
          "name": "to",
          "type": "address"
        },
        {
          "internalType": "uint256",
          "name": "amount",
          "type": "uint256"
        }
      ],
      "name": "transfer",
      "outputs": [
        {
          "internalType": "bool",
          "name": "",
          "type": "bool"
        }
      ],
      "stateMutability": "nonpayable",
      "type": "function"
    },
    {
      "inputs": [
        {
          "internalType": "address",
          "name": "from",
          "type": "address"
        },
        {
          "internalType": "address",
          "name": "to",
          "type": "address"
        },
        {
          "internalType": "uint256",
          "name": "amount",
          "type": "uint256"
        }
      ],
      "name": "transferFrom",
      "outputs": [
        {
          "internalType": "bool",
          "name": "",
          "type": "bool"
        }
      ],
      "stateMutability": "nonpayable",
      "type": "function"
    },
    {
      "inputs": [
        {
          "internalType": "address",
          "name": "newOwner",
          "type": "address"
        }
      ],
      "name": "transferOwnership",
      "outputs": [],
      "stateMutability": "nonpayable",
      "type": "function"
    },
    {
      "inputs": [],
      "name": "transferable",
      "outputs": [
        {
          "internalType": "bool",
          "name": "",
          "type": "bool"
        }
      ],
      "stateMutability": "view",
      "type": "function"
    }
  ],
  "transactionHash": "0x5277f5339b35fa35044e3cf7b6cdcf951825bddeaf1433bd20b01c3f3deecd8f",
  "args": [
    "0xcBe0b90bfe99f827B8BCB5C5Ac4b17107caEA814"
  ],
  "numDeployments": 1,
  "solcInputHash": "a88478e553c00767a3b8551e3701da57",
  "bytecode": "0x61016034620004dc57601f62002bf738819003918201601f19168301916001600160401b03831184841017620002af57808492602094604052833981010312620004dc57516001600160a01b0381168103620004dc57604051906200006482620004e1565b600c82526b686174732e66696e616e636560a01b90816020840152604051916200008e83620004e1565b600c8352602083015260405192620000a684620004e1565b600384526212105560ea1b602085015260405192620000c584620004e1565b60018452603160f81b60208501528051906001600160401b038211620002af5760035490600182811c92168015620004d1575b6020831014620003a45781601f8493116200045c575b50602090601f8311600114620003d157600092620003c5575b50508160011b916000199060031b1c1916176003555b83516001600160401b038111620002af57600454600181811c91168015620003ba575b6020821014620003a457601f81116200033e575b50602094601f8211600114620002d157948192939495600092620002c5575b50508160011b916000199060031b1c1916176004555b602081519101209160208151910120908260e052610100928284524660a0526040519260208401907f8b73c3c69bb8fe3d512ecc4cf759cc79239f7b179b0ffacaa9a75d522b39400f92838352604086015260608501524660808501523060a085015260a0845260c084019380851060018060401b03861117620002af57846040525190206080523060c05261012090815262000262610140926a52b7d2dcc80cd2e400000084526200025c33620004fd565b620004fd565b6126ab93846200054c853960805184611f44015260a05184611fff015260c05184611f0e015260e05184611f9301525183611fb901525182611f7001525181818161057101526108040152f35b634e487b7160e01b600052604160045260246000fd5b01519050388062000193565b601f19821695600460005260206000209160005b88811062000325575083600195969798106200030b575b505050811b01600455620001a9565b015160001960f88460031b161c19169055388080620002fc565b91926020600181928685015181550194019201620002e5565b60046000527f8a35acfbc15ff81a39ae7d344fd709f28e8600b4aa8c65c6b64bfe7fe36bd19b601f830160051c8101602084106200039c575b601f830160051c820181106200038f57505062000174565b6000815560010162000377565b508062000377565b634e487b7160e01b600052602260045260246000fd5b90607f169062000160565b01519050388062000127565b600360009081527fc2575a0e9e593c00f959f8c92f12db2869c3395a3b0502d05e2516446f71f85b9350601f198516905b81811062000443575090846001959493921062000429575b505050811b016003556200013d565b015160001960f88460031b161c191690553880806200041a565b9293602060018192878601518155019501930162000402565b60036000529091507fc2575a0e9e593c00f959f8c92f12db2869c3395a3b0502d05e2516446f71f85b601f840160051c81019160208510620004c6575b90601f859493920160051c01905b818110620004b657506200010e565b60008155849350600101620004a7565b909150819062000499565b91607f1691620000f8565b600080fd5b604081019081106001600160401b03821117620002af57604052565b600a80546001600160a01b039283166001600160a01b031982168117909255604051919216907f8be0079c531659141344cd1fd0a4f28419497f9722a3daafe3b4186f6b6457e090600090a356fe60806040526004361015610013575b600080fd5b60003560e01c806306fdde0314610293578063095ea7b31461028a57806318160ddd1461028157806323b872dd14610278578063313ce5671461026f578063355274ea146102665780633644e5151461025d57806337d8b99514610254578063395093511461024b5780633a46b1a81461024257806340c10f191461023957806342966c6814610230578063587cde1e146102275780635c19a95c1461021e5780636fcfff451461021557806370a082311461020c578063715018a6146102035780637ecebe00146101fa5780638da5cb5b146101f15780638e539e8c146101e857806392ff0d31146101df57806395d89b41146101d65780639ab24eb0146101cd5780639ce38998146101c4578063a457c2d7146101bb578063a9059cbb146101b2578063c3cda520146101a9578063d505accf146101a0578063dd62ed3e14610197578063f1127ed81461018e578063f2fde38b146101855763f46eccc41461017d57600080fd5b61000e611430565b5061000e61135f565b5061000e6112d7565b5061000e61127e565b5061000e611137565b5061000e61100b565b5061000e610fc4565b5061000e610f15565b5061000e610ea9565b5061000e610e2e565b5061000e610d6a565b5061000e610d46565b5061000e610c2a565b5061000e610c00565b5061000e610bc5565b5061000e610b63565b5061000e610b28565b5061000e610adf565b5061000e610abc565b5061000e610a80565b5061000e610978565b5061000e6107b2565b5061000e61066c565b5061000e61060a565b5061000e6105b8565b5061000e610594565b5061000e610558565b5061000e61053b565b5061000e61046f565b5061000e610450565b5061000e61041e565b5061000e6102e5565b6020808252825181830181905290939260005b8281106102d157505060409293506000838284010152601f8019910116010190565b8181018601518482016040015285016102af565b503461000e576000806003193601126103ef5760405190806003549060019180831c928082169283156103e5575b60209283861085146103d15785885260208801949081156103b05750600114610357575b610353876103478189038261151f565b6040519182918261029c565b0390f35b600360005294509192917fc2575a0e9e593c00f959f8c92f12db2869c3395a3b0502d05e2516446f71f85b5b83861061039f5750505091019050610347826103533880610337565b805485870152948201948101610383565b60ff191685525050505090151560051b019050610347826103533880610337565b634e487b7160e01b82526022600452602482fd5b93607f1693610313565b80fd5b600435906001600160a01b038216820361000e57565b602435906001600160a01b038216820361000e57565b503461000e57604036600319011261000e5761044561043b6103f2565b602435903361157d565b602060405160018152f35b503461000e57600036600319011261000e576020600254604051908152f35b503461000e57606036600319011261000e576104896103f2565b610491610408565b6001600160a01b0382166000908152600160209081526040808320338452909152902060443591905492600184016104da575b6104ce93506122d8565b60405160018152602090f35b8284106104f6576104f1836104ce9503338361157d565b6104c4565b60405162461bcd60e51b815260206004820152601d60248201527f45524332303a20696e73756666696369656e7420616c6c6f77616e63650000006044820152606490fd5b503461000e57600036600319011261000e57602060405160128152f35b503461000e57600036600319011261000e5760206040517f00000000000000000000000000000000000000000000000000000000000000008152f35b503461000e57600036600319011261000e5760206105b0611f0b565b604051908152f35b503461000e57600036600319011261000e576105d261146b565b600160ff19600c541617600c5560006040517fe0350eaf35cd59b2c0d211459b9603c2d2959655973e6bc767ca825b338326308282a1f35b503461000e57604036600319011261000e576104456106276103f2565b3360009081526001602090815260408083206001600160a01b038516845290915290205490602435820180921161065f575b3361157d565b610667611541565b610659565b503461000e57604036600319011261000e576106866103f2565b60243590610695438310611726565b6001600160a01b0316600090815260086020526040812080549290918360058111610761575b50905b838210610710575050816106e5575050602060005b6040516001600160e01b039091168152f35b61070461070b916106f760209461170a565b9060005260206000200190565b5460201c90565b6106d3565b909261071c818561209b565b908263ffffffff610741610737858860005260206000200190565b5463ffffffff1690565b1611156107515750925b906106be565b935061075c90611558565b61074b565b80610771610777929693966120b8565b90611719565b908263ffffffff610792610737858860005260206000200190565b1611156107a25750925b386106bb565b93506107ad90611558565b61079c565b503461000e5760408060031936011261000e576107cd6103f2565b906024359182156109675733600052600b6020528160002080549084820391821161095a575b5560025483810180821161094d575b7f000000000000000000000000000000000000000000000000000000000000000010610909576001600160a01b0382169081156108c557846108c09381936108576108526000996108a596611570565b600255565b6001600160a01b038216600090815260208181526040909120805485019055875184815289917fddf252ad1be2c89b69c2b068fc378daa952ba7f163c4a11628f55a4df523b3ef91a36124b4565b6002546108bb906001600160e01b0310156125d6565b611af4565b505051f35b835162461bcd60e51b815260206004820152601f60248201527f45524332303a206d696e7420746f20746865207a65726f2061646472657373006044820152606490fd5b825162461bcd60e51b815260206004820152601960248201527f45524332304361707065643a20636170206578636565646564000000000000006044820152606490fd5b610955611541565b610802565b610962611541565b6107f3565b8151631f2a200560e01b8152600490fd5b503461000e57602036600319011261000e576004358015610a6e573315610a1f57336000908152602081905260409020610a1d91908190546109bc8282101561257f565b33600090815260208190526040902091900390556109dd8160025403600255565b60405181815260009033907fddf252ad1be2c89b69c2b068fc378daa952ba7f163c4a11628f55a4df523b3ef90602090a3610a1881336124ff565b611bd0565b005b60405162461bcd60e51b815260206004820152602160248201527f45524332303a206275726e2066726f6d20746865207a65726f206164647265736044820152607360f81b6064820152608490fd5b604051631f2a200560e01b8152600490fd5b503461000e57602036600319011261000e5760206001600160a01b0380610aa56103f2565b166000526007825260406000205416604051908152f35b503461000e57602036600319011261000e57610a1d610ad96103f2565b336117be565b503461000e57602036600319011261000e576001600160a01b03610b016103f2565b1660005260086020526020610b1a604060002054612273565b63ffffffff60405191168152f35b503461000e57602036600319011261000e576001600160a01b03610b4a6103f2565b1660005260006020526020604060002054604051908152f35b503461000e576000806003193601126103ef57610b7e61146b565b600a80546001600160a01b031981169091556040519082906001600160a01b03167f8be0079c531659141344cd1fd0a4f28419497f9722a3daafe3b4186f6b6457e08284a3f35b503461000e57602036600319011261000e576001600160a01b03610be76103f2565b1660005260056020526020604060002054604051908152f35b503461000e57600036600319011261000e57600a546040516001600160a01b039091168152602090f35b503461000e57602036600319011261000e57600435610c4a438210611726565b6009549060008260058111610cf1575b50905b828210610ca0578280610c77575060405160008152602090f35b61070b610704610c8860209361170a565b60096000526000805160206126568339815191520190565b9091610cac818461209b565b6009600052908263ffffffff610cd16000805160206126568339815191528501610737565b161115610ce15750915b90610c5d565b9250610cec90611558565b610cdb565b80610771610d01929593956120b8565b6009600052908263ffffffff610d266000805160206126568339815191528501610737565b161115610d365750915b38610c5a565b9250610d4190611558565b610d30565b503461000e57600036600319011261000e57602060ff600c54166040519015158152f35b503461000e576000806003193601126103ef5760405190806004549060019180831c92808216928315610e24575b60209283861085146103d15785885260208801949081156103b05750600114610dcb57610353876103478189038261151f565b600460005294509192917f8a35acfbc15ff81a39ae7d344fd709f28e8600b4aa8c65c6b64bfe7fe36bd19b5b838610610e135750505091019050610347826103533880610337565b805485870152948201948101610df7565b93607f1693610d98565b503461000e57602036600319011261000e576001600160a01b03610e506103f2565b16600052600860205260406000205460008115600014610e7857505060405160008152602090f35b6020916040610e9392206000198201918211610e9c576116ba565b5054811c6106d3565b610ea4611541565b6116ba565b503461000e57604036600319011261000e57610ec36103f2565b7f7359df4a2ac9e38fb7388b0452d6e67f07baf2bb35b06645a940da3204a726fc602060243592610ef261146b565b6001600160a01b03166000818152600b83526040908190208590555193845292a2005b503461000e57604036600319011261000e57610f2f6103f2565b60243590336000526001602052610f5c8160406000209060018060a01b0316600052602052604060002090565b5491808310610f71576104ce9203903361157d565b60405162461bcd60e51b815260206004820152602560248201527f45524332303a2064656372656173656420616c6c6f77616e63652062656c6f77604482015264207a65726f60d81b6064820152608490fd5b503461000e57604036600319011261000e57610445610fe16103f2565b60243590336122d8565b6064359060ff8216820361000e57565b6084359060ff8216820361000e57565b503461000e5760c036600319011261000e576110256103f2565b60443590602435611034610feb565b928042116110f2576110c46110ed91610a1d95604051906110ac8261109e6020820195898b8860609194939260808201957fe48329057bfd03d55e49b547132e39cffd9c1820ad7b9d4c5307691425d15adf835260018060a01b0316602083015260408201520152565b03601f19810184528361151f565b6110bf60a4359360843593519020612025565b611d22565b6001600160a01b0381166000908152600560205260409020805460018101909155909214611772565b6117be565b60405162461bcd60e51b815260206004820152601d60248201527f4552433230566f7465733a207369676e617475726520657870697265640000006044820152606490fd5b503461000e5760e036600319011261000e576111516103f2565b611159610408565b6044359060643592611169610ffb565b93804211611239576112216112349161109e610a1d9761120e6111a78760018060a01b03166000526005602052604060002090815491600183019055565b604080517f6e71edae12b1b97f4d1f60370fef10105fa2faae0126114a169c64845d6126c9602082019081526001600160a01b03808c1693830193909352918b166060820152608081018c905260a081019290925260c082019590955292839060e0820190565b6110bf60c4359360a43593519020612025565b6001600160a01b03838116911614611cd6565b61157d565b60405162461bcd60e51b815260206004820152601d60248201527f45524332305065726d69743a206578706972656420646561646c696e650000006044820152606490fd5b503461000e57604036600319011261000e5760206112ce61129d6103f2565b6112a5610408565b6001600160a01b0391821660009081526001855260408082209290931681526020919091522090565b54604051908152f35b503461000e57604036600319011261000e576112f16103f2565b63ffffffff602435818116810361000e5761133b6113419160409460006020875161131b816114da565b82815201526001600160a01b0316600090815260086020528590206116ba565b506116e8565b8251815190921682526020908101516001600160e01b031690820152f35b503461000e57602036600319011261000e576113796103f2565b61138161146b565b6001600160a01b039081169081156113dc57600091600a5491816bffffffffffffffffffffffff60a01b841617600a5560405192167f8be0079c531659141344cd1fd0a4f28419497f9722a3daafe3b4186f6b6457e08484a3f35b60405162461bcd60e51b815260206004820152602660248201527f4f776e61626c653a206e6577206f776e657220697320746865207a65726f206160448201526564647265737360d01b6064820152608490fd5b503461000e57602036600319011261000e576001600160a01b036114526103f2565b16600052600b6020526020604060002054604051908152f35b600a546001600160a01b0316330361147f57565b606460405162461bcd60e51b815260206004820152602060248201527f4f776e61626c653a2063616c6c6572206973206e6f7420746865206f776e65726044820152fd5b50634e487b7160e01b600052604160045260246000fd5b6040810190811067ffffffffffffffff8211176114f657604052565b6114fe6114c3565b604052565b60c0810190811067ffffffffffffffff8211176114f657604052565b90601f8019910116810190811067ffffffffffffffff8211176114f657604052565b50634e487b7160e01b600052601160045260246000fd5b906001820180921161156657565b61156e611541565b565b9190820180921161156657565b6001600160a01b03808216929190831561165c57821693841561160c57806115f67f8c5be1e5ebec7d5bd14f71427d1e84f3dd0314c0f7b2291e5b200ac8c7c3b925946115df6116079560018060a01b03166000526001602052604060002090565b9060018060a01b0316600052602052604060002090565b556040519081529081906020820190565b0390a3565b60405162461bcd60e51b815260206004820152602260248201527f45524332303a20617070726f766520746f20746865207a65726f206164647265604482015261737360f01b6064820152608490fd5b60405162461bcd60e51b8152602060048201526024808201527f45524332303a20617070726f76652066726f6d20746865207a65726f206164646044820152637265737360e01b6064820152608490fd5b6040519061156e826114da565b80548210156116d25760005260206000200190600090565b634e487b7160e01b600052603260045260246000fd5b906040516116f5816114da565b602081935463ffffffff81168352811c910152565b60001981019190821161156657565b9190820391821161156657565b1561172d57565b60405162461bcd60e51b815260206004820152601f60248201527f4552433230566f7465733a20626c6f636b206e6f7420796574206d696e6564006044820152606490fd5b1561177957565b60405162461bcd60e51b815260206004820152601960248201527f4552433230566f7465733a20696e76616c6964206e6f6e6365000000000000006044820152606490fd5b61156e9160018060a01b038092166000928184526007602052806040852054168092856020527f3134e8a2e6d97e929a7e54011ea5485d7d196dd5f0ba4d4ef95803e8e3fc257f60408720549660076020526040812094871694856bffffffffffffffffffffffff60a01b825416179055604051a45b6001600160a01b03808316939291168084141580611a20575b611858575b50505050565b806118c6575b508261186b575b80611852565b6001600160a01b031660009081526008602052604090207fdec2bacdd2f05b59de34da9b523dff8be42e5e38e818c82fdb0bae774387a724916118ad91611c28565b60408051928352602083019190915290a2388080611865565b8060005260086020527fdec2bacdd2f05b59de34da9b523dff8be42e5e38e818c82fdb0bae774387a72460406000208054801591826000146119f95761190a6116ad565b6000815260006020820152915b6020830151611936906001600160e01b03165b6001600160e01b031690565b92611941898561263b565b941590816119e2575b501561199657611969611980926106f76119638761220a565b9361170a565b9063ffffffff82549181199060201b169116179055565b604080519182526020820192909252a23861185e565b506119dd906119a443612273565b906119d86119b18661220a565b6119c86119bc6116ad565b63ffffffff9095168552565b6001600160e01b03166020840152565b611a8c565b611980565b5163ffffffff16905063ffffffff1643143861194a565b611a1a611a15611a088461170a565b8360005260206000200190565b6116e8565b91611917565b5082151561184d565b60095490600160401b821015611a7f575b60018201806009558210156116d2576009600052805160209182015190911b63ffffffff191663ffffffff919091161760008051602061265683398151915290910155565b611a876114c3565b611a3a565b8054611aaa91600160401b821015611ae7575b6001820181556116ba565b611ad157815160209283015190921b63ffffffff191663ffffffff92909216919091179055565b634e487b7160e01b600052600060045260246000fd5b611aef6114c3565b611a9f565b60095490918115918215611bbc57611b0a6116ad565b60008152600060208201525b6020810151611b3890611b31906001600160e01b031661192a565b9586612648565b93159081611ba5575b5015611b605761156e90611969610c88611b5a8661220a565b9261170a565b5061156e611b6d43612273565b611ba0611b798561220a565b611b90611b846116ad565b63ffffffff9094168452565b6001600160e01b03166020830152565b611a29565b5163ffffffff16905063ffffffff16431438611b41565b611bcb611a15610c888361170a565b611b16565b60095490918115918215611c1457611be66116ad565b60008152600060208201525b6020810151611b3890611c0d906001600160e01b031661192a565b958661263b565b611c23611a15610c888361170a565b611bf2565b909181549182159283600014611cb557611c406116ad565b60008152600060208201525b6020810151611c6e90611c67906001600160e01b031661192a565b9687612648565b94159081611c9e575b5015611c905761196961156e926106f76119638761220a565b5061156e906119a443612273565b5163ffffffff16905063ffffffff16431438611c77565b611cd1611a15611cc48361170a565b8460005260206000200190565b611c4c565b15611cdd57565b60405162461bcd60e51b815260206004820152601e60248201527f45524332305065726d69743a20696e76616c6964207369676e617475726500006044820152606490fd5b91611d399391611d3193611e7c565b919091611d5c565b90565b60051115611d4657565b634e487b7160e01b600052602160045260246000fd5b611d6581611d3c565b80611d6d5750565b611d7681611d3c565b60018103611dc35760405162461bcd60e51b815260206004820152601860248201527f45434453413a20696e76616c6964207369676e617475726500000000000000006044820152606490fd5b611dcc81611d3c565b60028103611e195760405162461bcd60e51b815260206004820152601f60248201527f45434453413a20696e76616c6964207369676e6174757265206c656e677468006044820152606490fd5b80611e25600392611d3c565b14611e2c57565b60405162461bcd60e51b815260206004820152602260248201527f45434453413a20696e76616c6964207369676e6174757265202773272076616c604482015261756560f01b6064820152608490fd5b9291907f7fffffffffffffffffffffffffffffff5d576e7357a4501ddfe92f46681b20a08311611eff5791608094939160ff602094604051948552168484015260408301526060820152600093849182805260015afa15611ef25781516001600160a01b03811615611eec579190565b50600190565b50604051903d90823e3d90fd5b50505050600090600390565b307f00000000000000000000000000000000000000000000000000000000000000006001600160a01b03161480611ffc575b15611f66577f000000000000000000000000000000000000000000000000000000000000000090565b60405160208101907f000000000000000000000000000000000000000000000000000000000000000082527f000000000000000000000000000000000000000000000000000000000000000060408201527f000000000000000000000000000000000000000000000000000000000000000060608201524660808201523060a082015260a08152611ff681611503565b51902090565b507f00000000000000000000000000000000000000000000000000000000000000004614611f3d565b61202d611f0b565b9060405190602082019261190160f01b845260228301526042820152604281526080810181811067ffffffffffffffff82111761206e575b60405251902090565b6120766114c3565b612065565b8115612085570490565b634e487b7160e01b600052601260045260246000fd5b90808216911860011c81018091116120b05790565b611d39611541565b80156121f2578061218b61218461217a61217061216661215c6121526121486001611d399a6000908b60801c806121e6575b508060401c806121d9575b508060201c806121cc575b508060101c806121bf575b508060081c806121b2575b508060041c806121a5575b508060021c80612198575b50821c612191575b811c1b612141818b61207b565b0160011c90565b612141818a61207b565b612141818961207b565b612141818861207b565b612141818761207b565b612141818661207b565b612141818561207b565b809261207b565b906121f8565b8101612134565b600291509101903861212c565b6004915091019038612121565b6008915091019038612116565b601091509101903861210b565b6020915091019038612100565b60409150910190386120f5565b915050608090386120ea565b50600090565b9080821015612205575090565b905090565b6001600160e01b039081811161221e571690565b60405162461bcd60e51b815260206004820152602760248201527f53616665436173743a2076616c756520646f65736e27742066697420696e20326044820152663234206269747360c81b6064820152608490fd5b63ffffffff90818111612284571690565b60405162461bcd60e51b815260206004820152602660248201527f53616665436173743a2076616c756520646f65736e27742066697420696e203360448201526532206269747360d01b6064820152608490fd5b919060ff600c5416156123ef576001600160a01b0392808416801561239c5761156e94831690612309821515612401565b6001600160a01b038316600090815260208190526040902085905461233082821015612459565b0361234d8460018060a01b03166000526000602052604060002090565b556001600160a01b0384166000908152602081815260409182902080548801905590518681527fddf252ad1be2c89b69c2b068fc378daa952ba7f163c4a11628f55a4df523b3ef9190a361254d565b60405162461bcd60e51b815260206004820152602560248201527f45524332303a207472616e736665722066726f6d20746865207a65726f206164604482015264647265737360d81b6064820152608490fd5b604051638574adcf60e01b8152600490fd5b1561240857565b60405162461bcd60e51b815260206004820152602360248201527f45524332303a207472616e7366657220746f20746865207a65726f206164647260448201526265737360e81b6064820152608490fd5b1561246057565b60405162461bcd60e51b815260206004820152602660248201527f45524332303a207472616e7366657220616d6f756e7420657863656564732062604482015265616c616e636560d01b6064820152608490fd5b60076020527f6d5257204ebe7d88fd91ae87941cb2dd9d8062b64ae5a2bd2d28ec40b9fbf6df546001600160a01b039182166000908152604090205461156e93929081169116611834565b6001600160a01b039081166000908152600760205260408120549080527f6d5257204ebe7d88fd91ae87941cb2dd9d8062b64ae5a2bd2d28ec40b9fbf6df5461156e93929081169116611834565b6001600160a01b0390811660009081526007602052604080822054938316825290205461156e93929082169116611834565b1561258657565b60405162461bcd60e51b815260206004820152602260248201527f45524332303a206275726e20616d6f756e7420657863656564732062616c616e604482015261636560f01b6064820152608490fd5b156125dd57565b60405162461bcd60e51b815260206004820152603060248201527f4552433230566f7465733a20746f74616c20737570706c79207269736b73206f60448201526f766572666c6f77696e6720766f74657360801b6064820152608490fd5b9081039081116120b05790565b9081018091116120b0579056fe6e1540171b6c0c960b71a7020d9f60077f6af931a8bbf590da0223dacf75c7afa26469706673582212203853961d3ae1ec86596d6d8f28c28ba0a36899c99533a19f0242194b54d065d464736f6c63430008100033",
  "devdoc": {
    "kind": "dev",
    "methods": {
      "DOMAIN_SEPARATOR()": {
        "details": "See {IERC20Permit-DOMAIN_SEPARATOR}."
      },
      "allowance(address,address)": {
        "details": "See {IERC20-allowance}."
      },
      "approve(address,uint256)": {
        "details": "See {IERC20-approve}. NOTE: If `amount` is the maximum `uint256`, the allowance is not updated on `transferFrom`. This is semantically equivalent to an infinite approval. Requirements: - `spender` cannot be the zero address."
      },
      "balanceOf(address)": {
        "details": "See {IERC20-balanceOf}."
      },
      "cap()": {
        "details": "Returns the cap on the token's total supply."
      },
      "checkpoints(address,uint32)": {
        "details": "Get the `pos`-th checkpoint for `account`."
      },
      "constructor": {
        "params": {
          "_governance": "The owner of the token"
        }
      },
      "decimals()": {
        "details": "Returns the number of decimals used to get its user representation. For example, if `decimals` equals `2`, a balance of `505` tokens should be displayed to a user as `5.05` (`505 / 10 ** 2`). Tokens usually opt for a value of 18, imitating the relationship between Ether and Wei. This is the value {ERC20} uses, unless this function is overridden; NOTE: This information is only used for _display_ purposes: it in no way affects any of the arithmetic of the contract, including {IERC20-balanceOf} and {IERC20-transfer}."
      },
      "decreaseAllowance(address,uint256)": {
        "details": "Atomically decreases the allowance granted to `spender` by the caller. This is an alternative to {approve} that can be used as a mitigation for problems described in {IERC20-approve}. Emits an {Approval} event indicating the updated allowance. Requirements: - `spender` cannot be the zero address. - `spender` must have allowance for the caller of at least `subtractedValue`."
      },
      "delegate(address)": {
        "details": "Delegate votes from the sender to `delegatee`."
      },
      "delegateBySig(address,uint256,uint256,uint8,bytes32,bytes32)": {
        "details": "Delegates votes from signer to `delegatee`"
      },
      "delegates(address)": {
        "details": "Get the address `account` is currently delegating to."
      },
      "getPastTotalSupply(uint256)": {
        "details": "Retrieve the `totalSupply` at the end of `blockNumber`. Note, this value is the sum of all balances. It is but NOT the sum of all the delegated votes! Requirements: - `blockNumber` must have been already mined"
      },
      "getPastVotes(address,uint256)": {
        "details": "Retrieve the number of votes for `account` at the end of `blockNumber`. Requirements: - `blockNumber` must have been already mined"
      },
      "getVotes(address)": {
        "details": "Gets the current votes balance for `account`"
      },
      "increaseAllowance(address,uint256)": {
        "details": "Atomically increases the allowance granted to `spender` by the caller. This is an alternative to {approve} that can be used as a mitigation for problems described in {IERC20-approve}. Emits an {Approval} event indicating the updated allowance. Requirements: - `spender` cannot be the zero address."
      },
      "name()": {
        "details": "Returns the name of the token."
      },
      "nonces(address)": {
        "details": "See {IERC20Permit-nonces}."
      },
      "numCheckpoints(address)": {
        "details": "Get number of checkpoints for `account`."
      },
      "owner()": {
        "details": "Returns the address of the current owner."
      },
      "permit(address,address,uint256,uint256,uint8,bytes32,bytes32)": {
        "details": "See {IERC20Permit-permit}."
      },
      "renounceOwnership()": {
        "details": "Leaves the contract without owner. It will not be possible to call `onlyOwner` functions anymore. Can only be called by the current owner. NOTE: Renouncing ownership will leave the contract without an owner, thereby removing any functionality that is only available to the owner."
      },
      "setMinter(address,uint256)": {
        "params": {
          "_minter": "The address of the minter",
          "_seedAmount": "The amount of tokens to seed the minter with"
        }
      },
      "symbol()": {
        "details": "Returns the symbol of the token, usually a shorter version of the name."
      },
      "totalSupply()": {
        "details": "See {IERC20-totalSupply}."
      },
      "transfer(address,uint256)": {
        "details": "See {IERC20-transfer}. Requirements: - `to` cannot be the zero address. - the caller must have a balance of at least `amount`."
      },
      "transferFrom(address,address,uint256)": {
        "details": "See {IERC20-transferFrom}. Emits an {Approval} event indicating the updated allowance. This is not required by the EIP. See the note at the beginning of {ERC20}. NOTE: Does not update the allowance if the current allowance is the maximum `uint256`. Requirements: - `from` and `to` cannot be the zero address. - `from` must have a balance of at least `amount`. - the caller must have allowance for ``from``'s tokens of at least `amount`."
      },
      "transferOwnership(address)": {
        "details": "Transfers ownership of the contract to a new account (`newOwner`). Can only be called by the current owner."
      }
    },
    "stateVariables": {
      "transferable": {
        "details": "Set to false on deployment, and can only be set to true by the owner and cannot be set back to false"
      }
    },
    "version": 1
  },
  "userdoc": {
    "events": {
      "MinterSet(address,uint256)": {
        "notice": "An event thats emitted when the minter address is set"
      },
      "TransferableSet()": {
        "notice": "An event thats emitted when the token is set to transferable"
      }
    },
    "kind": "user",
    "methods": {
      "constructor": {
        "notice": "Construct a new HAT token"
      },
      "minters(address)": {
        "notice": "Address which may mint new tokens minter -> minting seedAmount"
      },
      "setMinter(address,uint256)": {
        "notice": "Set the minter address, can only be called by the owner (governance)"
      },
      "transferable()": {
        "notice": "Whether the token is transferable or not"
      }
    },
    "version": 1
  },
  "storageLayout": {
    "storage": [
      {
        "astId": 7404,
        "contract": "contracts/HATToken.sol:HATToken",
        "label": "_balances",
        "offset": 0,
        "slot": "0",
        "type": "t_mapping(t_address,t_uint256)"
      },
      {
        "astId": 7410,
        "contract": "contracts/HATToken.sol:HATToken",
        "label": "_allowances",
        "offset": 0,
        "slot": "1",
        "type": "t_mapping(t_address,t_mapping(t_address,t_uint256))"
      },
      {
        "astId": 7412,
        "contract": "contracts/HATToken.sol:HATToken",
        "label": "_totalSupply",
        "offset": 0,
        "slot": "2",
        "type": "t_uint256"
      },
      {
        "astId": 7414,
        "contract": "contracts/HATToken.sol:HATToken",
        "label": "_name",
        "offset": 0,
        "slot": "3",
        "type": "t_string_storage"
      },
      {
        "astId": 7416,
        "contract": "contracts/HATToken.sol:HATToken",
        "label": "_symbol",
        "offset": 0,
        "slot": "4",
        "type": "t_string_storage"
      },
      {
        "astId": 8864,
        "contract": "contracts/HATToken.sol:HATToken",
        "label": "_nonces",
        "offset": 0,
        "slot": "5",
        "type": "t_mapping(t_address,t_struct(Counter)9706_storage)"
      },
      {
        "astId": 8872,
        "contract": "contracts/HATToken.sol:HATToken",
        "label": "_PERMIT_TYPEHASH_DEPRECATED_SLOT",
        "offset": 0,
        "slot": "6",
        "type": "t_bytes32"
      },
      {
        "astId": 8144,
        "contract": "contracts/HATToken.sol:HATToken",
        "label": "_delegates",
        "offset": 0,
        "slot": "7",
        "type": "t_mapping(t_address,t_address)"
      },
      {
        "astId": 8150,
        "contract": "contracts/HATToken.sol:HATToken",
        "label": "_checkpoints",
        "offset": 0,
        "slot": "8",
        "type": "t_mapping(t_address,t_array(t_struct(Checkpoint)8135_storage)dyn_storage)"
      },
      {
        "astId": 8154,
        "contract": "contracts/HATToken.sol:HATToken",
        "label": "_totalSupplyCheckpoints",
        "offset": 0,
        "slot": "9",
        "type": "t_array(t_struct(Checkpoint)8135_storage)dyn_storage"
      },
      {
        "astId": 4653,
        "contract": "contracts/HATToken.sol:HATToken",
        "label": "_owner",
        "offset": 0,
        "slot": "10",
        "type": "t_address"
      },
      {
        "astId": 18618,
        "contract": "contracts/HATToken.sol:HATToken",
        "label": "minters",
        "offset": 0,
        "slot": "11",
        "type": "t_mapping(t_address,t_uint256)"
      },
      {
        "astId": 18621,
        "contract": "contracts/HATToken.sol:HATToken",
        "label": "transferable",
        "offset": 0,
        "slot": "12",
        "type": "t_bool"
      }
    ],
    "types": {
      "t_address": {
        "encoding": "inplace",
        "label": "address",
        "numberOfBytes": "20"
      },
      "t_array(t_struct(Checkpoint)8135_storage)dyn_storage": {
        "base": "t_struct(Checkpoint)8135_storage",
        "encoding": "dynamic_array",
        "label": "struct ERC20Votes.Checkpoint[]",
        "numberOfBytes": "32"
      },
      "t_bool": {
        "encoding": "inplace",
        "label": "bool",
        "numberOfBytes": "1"
      },
      "t_bytes32": {
        "encoding": "inplace",
        "label": "bytes32",
        "numberOfBytes": "32"
      },
      "t_mapping(t_address,t_address)": {
        "encoding": "mapping",
        "key": "t_address",
        "label": "mapping(address => address)",
        "numberOfBytes": "32",
        "value": "t_address"
      },
      "t_mapping(t_address,t_array(t_struct(Checkpoint)8135_storage)dyn_storage)": {
        "encoding": "mapping",
        "key": "t_address",
        "label": "mapping(address => struct ERC20Votes.Checkpoint[])",
        "numberOfBytes": "32",
        "value": "t_array(t_struct(Checkpoint)8135_storage)dyn_storage"
      },
      "t_mapping(t_address,t_mapping(t_address,t_uint256))": {
        "encoding": "mapping",
        "key": "t_address",
        "label": "mapping(address => mapping(address => uint256))",
        "numberOfBytes": "32",
        "value": "t_mapping(t_address,t_uint256)"
      },
      "t_mapping(t_address,t_struct(Counter)9706_storage)": {
        "encoding": "mapping",
        "key": "t_address",
        "label": "mapping(address => struct Counters.Counter)",
        "numberOfBytes": "32",
        "value": "t_struct(Counter)9706_storage"
      },
      "t_mapping(t_address,t_uint256)": {
        "encoding": "mapping",
        "key": "t_address",
        "label": "mapping(address => uint256)",
        "numberOfBytes": "32",
        "value": "t_uint256"
      },
      "t_string_storage": {
        "encoding": "bytes",
        "label": "string",
        "numberOfBytes": "32"
      },
      "t_struct(Checkpoint)8135_storage": {
        "encoding": "inplace",
        "label": "struct ERC20Votes.Checkpoint",
        "members": [
          {
            "astId": 8132,
            "contract": "contracts/HATToken.sol:HATToken",
            "label": "fromBlock",
            "offset": 0,
            "slot": "0",
            "type": "t_uint32"
          },
          {
            "astId": 8134,
            "contract": "contracts/HATToken.sol:HATToken",
            "label": "votes",
            "offset": 4,
            "slot": "0",
            "type": "t_uint224"
          }
        ],
        "numberOfBytes": "32"
      },
      "t_struct(Counter)9706_storage": {
        "encoding": "inplace",
        "label": "struct Counters.Counter",
        "members": [
          {
            "astId": 9705,
            "contract": "contracts/HATToken.sol:HATToken",
            "label": "_value",
            "offset": 0,
            "slot": "0",
            "type": "t_uint256"
          }
        ],
        "numberOfBytes": "32"
      },
      "t_uint224": {
        "encoding": "inplace",
        "label": "uint224",
        "numberOfBytes": "28"
      },
      "t_uint256": {
        "encoding": "inplace",
        "label": "uint256",
        "numberOfBytes": "32"
      },
      "t_uint32": {
        "encoding": "inplace",
        "label": "uint32",
        "numberOfBytes": "4"
      }
    }
  }
}