{
  "address": "0xe0B8a9D761d8F3E05D2fFf2EA916E7abbb8D98f3",
  "abi": [
    {
      "inputs": [
        {
          "internalType": "string",
          "name": "_merkleTreeIPFSRef",
          "type": "string"
        },
        {
          "internalType": "bytes32",
          "name": "_root",
          "type": "bytes32"
        },
        {
          "internalType": "uint256",
          "name": "_deadline",
          "type": "uint256"
        }
      ],
      "stateMutability": "nonpayable",
      "type": "constructor"
    },
    {
      "anonymous": false,
      "inputs": [
        {
          "indexed": true,
          "internalType": "address",
          "name": "account",
          "type": "address"
        },
        {
          "indexed": true,
          "internalType": "address",
          "name": "operator",
          "type": "address"
        },
        {
          "indexed": false,
          "internalType": "bool",
          "name": "approved",
          "type": "bool"
        }
      ],
      "name": "ApprovalForAll",
      "type": "event"
    },
    {
      "anonymous": false,
      "inputs": [
        {
          "indexed": false,
          "internalType": "string",
          "name": "merkleTreeIPFSRef",
          "type": "string"
        },
        {
          "indexed": false,
          "internalType": "bytes32",
          "name": "root",
          "type": "bytes32"
        },
        {
          "indexed": false,
          "internalType": "uint256",
          "name": "deadline",
          "type": "uint256"
        }
      ],
      "name": "MerkleTreeChanged",
      "type": "event"
    },
    {
      "anonymous": false,
      "inputs": [
        {
          "indexed": true,
          "internalType": "address",
          "name": "previousOwner",
          "type": "address"
        },
        {
          "indexed": true,
          "internalType": "address",
          "name": "newOwner",
          "type": "address"
        }
      ],
      "name": "OwnershipTransferred",
      "type": "event"
    },
    {
      "anonymous": false,
      "inputs": [
        {
          "indexed": true,
          "internalType": "address",
          "name": "operator",
          "type": "address"
        },
        {
          "indexed": true,
          "internalType": "address",
          "name": "from",
          "type": "address"
        },
        {
          "indexed": true,
          "internalType": "address",
          "name": "to",
          "type": "address"
        },
        {
          "indexed": false,
          "internalType": "uint256[]",
          "name": "ids",
          "type": "uint256[]"
        },
        {
          "indexed": false,
          "internalType": "uint256[]",
          "name": "values",
          "type": "uint256[]"
        }
      ],
      "name": "TransferBatch",
      "type": "event"
    },
    {
      "anonymous": false,
      "inputs": [
        {
          "indexed": true,
          "internalType": "address",
          "name": "operator",
          "type": "address"
        },
        {
          "indexed": true,
          "internalType": "address",
          "name": "from",
          "type": "address"
        },
        {
          "indexed": true,
          "internalType": "address",
          "name": "to",
          "type": "address"
        },
        {
          "indexed": false,
          "internalType": "uint256",
          "name": "id",
          "type": "uint256"
        },
        {
          "indexed": false,
          "internalType": "uint256",
          "name": "value",
          "type": "uint256"
        }
      ],
      "name": "TransferSingle",
      "type": "event"
    },
    {
      "anonymous": false,
      "inputs": [
        {
          "indexed": false,
          "internalType": "string",
          "name": "value",
          "type": "string"
        },
        {
          "indexed": true,
          "internalType": "uint256",
          "name": "id",
          "type": "uint256"
        }
      ],
      "name": "URI",
      "type": "event"
    },
    {
      "anonymous": false,
      "inputs": [
        {
          "indexed": true,
          "internalType": "address",
          "name": "hatVaults",
          "type": "address"
        },
        {
          "indexed": true,
          "internalType": "uint256",
          "name": "pid",
          "type": "uint256"
        }
      ],
      "name": "VaultPaused",
      "type": "event"
    },
    {
      "anonymous": false,
      "inputs": [
        {
          "indexed": true,
          "internalType": "address",
          "name": "hatVaults",
          "type": "address"
        },
        {
          "indexed": true,
          "internalType": "uint256",
          "name": "pid",
          "type": "uint256"
        }
      ],
      "name": "VaultResumed",
      "type": "event"
    },
    {
      "inputs": [],
      "name": "HUNDRED_PERCENT",
      "outputs": [
        {
          "internalType": "uint256",
          "name": "",
          "type": "uint256"
        }
      ],
      "stateMutability": "view",
      "type": "function"
    },
    {
      "inputs": [],
      "name": "TIERS",
      "outputs": [
        {
          "internalType": "uint256",
          "name": "",
          "type": "uint256"
        }
      ],
      "stateMutability": "view",
      "type": "function"
    },
    {
      "inputs": [
        {
          "internalType": "address",
          "name": "hatVaults",
          "type": "address"
        },
        {
          "internalType": "uint256",
          "name": "pid",
          "type": "uint256"
        },
        {
          "internalType": "string",
          "name": "_uri",
          "type": "string"
        }
      ],
      "name": "addVault",
      "outputs": [],
      "stateMutability": "nonpayable",
      "type": "function"
    },
    {
      "inputs": [
        {
          "internalType": "address",
          "name": "account",
          "type": "address"
        },
        {
          "internalType": "uint256",
          "name": "id",
          "type": "uint256"
        }
      ],
      "name": "balanceOf",
      "outputs": [
        {
          "internalType": "uint256",
          "name": "",
          "type": "uint256"
        }
      ],
      "stateMutability": "view",
      "type": "function"
    },
    {
      "inputs": [
        {
          "internalType": "address[]",
          "name": "accounts",
          "type": "address[]"
        },
        {
          "internalType": "uint256[]",
          "name": "ids",
          "type": "uint256[]"
        }
      ],
      "name": "balanceOfBatch",
      "outputs": [
        {
          "internalType": "uint256[]",
          "name": "",
          "type": "uint256[]"
        }
      ],
      "stateMutability": "view",
      "type": "function"
    },
    {
      "inputs": [],
      "name": "deadline",
      "outputs": [
        {
          "internalType": "uint256",
          "name": "",
          "type": "uint256"
        }
      ],
      "stateMutability": "view",
      "type": "function"
    },
    {
      "inputs": [
        {
          "internalType": "address",
          "name": "hatVaults",
          "type": "address"
        },
        {
          "internalType": "uint256",
          "name": "pid",
          "type": "uint256"
        },
        {
          "internalType": "address",
          "name": "account",
          "type": "address"
        }
      ],
      "name": "getTierFromShares",
      "outputs": [
        {
          "internalType": "uint8",
          "name": "",
          "type": "uint8"
        }
      ],
      "stateMutability": "view",
      "type": "function"
    },
    {
      "inputs": [
        {
          "internalType": "address",
          "name": "hatVaults",
          "type": "address"
        },
        {
          "internalType": "uint256",
          "name": "pid",
          "type": "uint256"
        },
        {
          "internalType": "address",
          "name": "account",
          "type": "address"
        }
      ],
      "name": "getTiersToRedeemFromShares",
      "outputs": [
        {
          "internalType": "bool[3]",
          "name": "tiers",
          "type": "bool[3]"
        }
      ],
      "stateMutability": "view",
      "type": "function"
    },
    {
      "inputs": [
        {
          "internalType": "address",
          "name": "hatVaults",
          "type": "address"
        },
        {
          "internalType": "uint256",
          "name": "pid",
          "type": "uint256"
        },
        {
          "internalType": "uint8",
          "name": "tier",
          "type": "uint8"
        }
      ],
      "name": "getTokenId",
      "outputs": [
        {
          "internalType": "uint256",
          "name": "",
          "type": "uint256"
        }
      ],
      "stateMutability": "pure",
      "type": "function"
    },
    {
      "inputs": [
        {
          "internalType": "address",
          "name": "hatVaults",
          "type": "address"
        },
        {
          "internalType": "uint256",
          "name": "pid",
          "type": "uint256"
        }
      ],
      "name": "getVaultId",
      "outputs": [
        {
          "internalType": "bytes32",
          "name": "",
          "type": "bytes32"
        }
      ],
      "stateMutability": "pure",
      "type": "function"
    },
    {
      "inputs": [
        {
          "internalType": "address",
          "name": "account",
          "type": "address"
        },
        {
          "internalType": "address",
          "name": "operator",
          "type": "address"
        }
      ],
      "name": "isApprovedForAll",
      "outputs": [
        {
          "internalType": "bool",
          "name": "",
          "type": "bool"
        }
      ],
      "stateMutability": "view",
      "type": "function"
    },
    {
      "inputs": [
        {
          "internalType": "address",
          "name": "hatVaults",
          "type": "address"
        },
        {
          "internalType": "uint256",
          "name": "pid",
          "type": "uint256"
        },
        {
          "internalType": "address",
          "name": "account",
          "type": "address"
        }
      ],
      "name": "isEligible",
      "outputs": [
        {
          "internalType": "bool",
          "name": "",
          "type": "bool"
        }
      ],
      "stateMutability": "view",
      "type": "function"
    },
    {
      "inputs": [],
      "name": "owner",
      "outputs": [
        {
          "internalType": "address",
          "name": "",
          "type": "address"
        }
      ],
      "stateMutability": "view",
      "type": "function"
    },
    {
      "inputs": [
        {
          "internalType": "address",
          "name": "hatVaults",
          "type": "address"
        },
        {
          "internalType": "uint256",
          "name": "pid",
          "type": "uint256"
        }
      ],
      "name": "pauseVault",
      "outputs": [],
      "stateMutability": "nonpayable",
      "type": "function"
    },
    {
      "inputs": [
        {
          "internalType": "bytes32",
          "name": "",
          "type": "bytes32"
        }
      ],
      "name": "pausedVaults",
      "outputs": [
        {
          "internalType": "bool",
          "name": "",
          "type": "bool"
        }
      ],
      "stateMutability": "view",
      "type": "function"
    },
    {
      "inputs": [
        {
          "internalType": "address[]",
          "name": "hatVaults",
          "type": "address[]"
        },
        {
          "internalType": "uint256[]",
          "name": "pids",
          "type": "uint256[]"
        },
        {
          "internalType": "address",
          "name": "account",
          "type": "address"
        }
      ],
      "name": "redeemMultipleFromShares",
      "outputs": [],
      "stateMutability": "nonpayable",
      "type": "function"
    },
    {
      "inputs": [
        {
          "internalType": "address[]",
          "name": "hatVaults",
          "type": "address[]"
        },
        {
          "internalType": "uint256[]",
          "name": "pids",
          "type": "uint256[]"
        },
        {
          "internalType": "address",
          "name": "account",
          "type": "address"
        },
        {
          "internalType": "uint8[]",
          "name": "tiers",
          "type": "uint8[]"
        },
        {
          "internalType": "bytes32[][]",
          "name": "proofs",
          "type": "bytes32[][]"
        }
      ],
      "name": "redeemMultipleFromTree",
      "outputs": [],
      "stateMutability": "nonpayable",
      "type": "function"
    },
    {
      "inputs": [
        {
          "internalType": "address",
          "name": "hatVaults",
          "type": "address"
        },
        {
          "internalType": "uint256",
          "name": "pid",
          "type": "uint256"
        },
        {
          "internalType": "address",
          "name": "account",
          "type": "address"
        }
      ],
      "name": "redeemSingleFromShares",
      "outputs": [],
      "stateMutability": "nonpayable",
      "type": "function"
    },
    {
      "inputs": [
        {
          "internalType": "address",
          "name": "hatVaults",
          "type": "address"
        },
        {
          "internalType": "uint256",
          "name": "pid",
          "type": "uint256"
        },
        {
          "internalType": "address",
          "name": "account",
          "type": "address"
        },
        {
          "internalType": "uint8",
          "name": "tier",
          "type": "uint8"
        },
        {
          "internalType": "bytes32[]",
          "name": "proof",
          "type": "bytes32[]"
        }
      ],
      "name": "redeemSingleFromTree",
      "outputs": [],
      "stateMutability": "nonpayable",
      "type": "function"
    },
    {
      "inputs": [],
      "name": "renounceOwnership",
      "outputs": [],
      "stateMutability": "nonpayable",
      "type": "function"
    },
    {
      "inputs": [
        {
          "internalType": "address",
          "name": "hatVaults",
          "type": "address"
        },
        {
          "internalType": "uint256",
          "name": "pid",
          "type": "uint256"
        }
      ],
      "name": "resumeVault",
      "outputs": [],
      "stateMutability": "nonpayable",
      "type": "function"
    },
    {
      "inputs": [],
      "name": "root",
      "outputs": [
        {
          "internalType": "bytes32",
          "name": "",
          "type": "bytes32"
        }
      ],
      "stateMutability": "view",
      "type": "function"
    },
    {
      "inputs": [
        {
          "internalType": "address",
          "name": "from",
          "type": "address"
        },
        {
          "internalType": "address",
          "name": "to",
          "type": "address"
        },
        {
          "internalType": "uint256[]",
          "name": "ids",
          "type": "uint256[]"
        },
        {
          "internalType": "uint256[]",
          "name": "amounts",
          "type": "uint256[]"
        },
        {
          "internalType": "bytes",
          "name": "data",
          "type": "bytes"
        }
      ],
      "name": "safeBatchTransferFrom",
      "outputs": [],
      "stateMutability": "nonpayable",
      "type": "function"
    },
    {
      "inputs": [
        {
          "internalType": "address",
          "name": "from",
          "type": "address"
        },
        {
          "internalType": "address",
          "name": "to",
          "type": "address"
        },
        {
          "internalType": "uint256",
          "name": "id",
          "type": "uint256"
        },
        {
          "internalType": "uint256",
          "name": "amount",
          "type": "uint256"
        },
        {
          "internalType": "bytes",
          "name": "data",
          "type": "bytes"
        }
      ],
      "name": "safeTransferFrom",
      "outputs": [],
      "stateMutability": "nonpayable",
      "type": "function"
    },
    {
      "inputs": [
        {
          "internalType": "address",
          "name": "operator",
          "type": "address"
        },
        {
          "internalType": "bool",
          "name": "approved",
          "type": "bool"
        }
      ],
      "name": "setApprovalForAll",
      "outputs": [],
      "stateMutability": "nonpayable",
      "type": "function"
    },
    {
      "inputs": [
        {
          "internalType": "bytes4",
          "name": "interfaceId",
          "type": "bytes4"
        }
      ],
      "name": "supportsInterface",
      "outputs": [
        {
          "internalType": "bool",
          "name": "",
          "type": "bool"
        }
      ],
      "stateMutability": "view",
      "type": "function"
    },
    {
      "inputs": [
        {
          "internalType": "uint256",
          "name": "",
          "type": "uint256"
        },
        {
          "internalType": "address",
          "name": "",
          "type": "address"
        }
      ],
      "name": "tokensRedeemed",
      "outputs": [
        {
          "internalType": "bool",
          "name": "",
          "type": "bool"
        }
      ],
      "stateMutability": "view",
      "type": "function"
    },
    {
      "inputs": [],
      "name": "totalSupply",
      "outputs": [
        {
          "internalType": "uint256",
          "name": "",
          "type": "uint256"
        }
      ],
      "stateMutability": "view",
      "type": "function"
    },
    {
      "inputs": [],
      "name": "totalSupplyCounter",
      "outputs": [
        {
          "internalType": "uint256",
          "name": "_value",
          "type": "uint256"
        }
      ],
      "stateMutability": "view",
      "type": "function"
    },
    {
      "inputs": [
        {
          "internalType": "address",
          "name": "newOwner",
          "type": "address"
        }
      ],
      "name": "transferOwnership",
      "outputs": [],
      "stateMutability": "nonpayable",
      "type": "function"
    },
    {
      "inputs": [
        {
          "internalType": "string",
          "name": "_merkleTreeIPFSRef",
          "type": "string"
        },
        {
          "internalType": "bytes32",
          "name": "_root",
          "type": "bytes32"
        },
        {
          "internalType": "uint256",
          "name": "_deadline",
          "type": "uint256"
        }
      ],
      "name": "updateTree",
      "outputs": [],
      "stateMutability": "nonpayable",
      "type": "function"
    },
    {
      "inputs": [
        {
          "internalType": "uint256",
          "name": "tokenId",
          "type": "uint256"
        }
      ],
      "name": "uri",
      "outputs": [
        {
          "internalType": "string",
          "name": "",
          "type": "string"
        }
      ],
      "stateMutability": "view",
      "type": "function"
    },
    {
      "inputs": [
        {
          "internalType": "uint256",
          "name": "",
          "type": "uint256"
        }
      ],
      "name": "uris",
      "outputs": [
        {
          "internalType": "string",
          "name": "",
          "type": "string"
        }
      ],
      "stateMutability": "view",
      "type": "function"
    },
    {
      "inputs": [
        {
          "internalType": "bytes32",
          "name": "",
          "type": "bytes32"
        }
      ],
      "name": "vaultsRegistered",
      "outputs": [
        {
          "internalType": "bool",
          "name": "",
          "type": "bool"
        }
      ],
      "stateMutability": "view",
      "type": "function"
    }
  ],
  "transactionHash": "0xcb96d8382213cf7a6b745454620721bd1cbd74c8e7246d65ae593462229ecd07",
  "args": [
    "",
    "0x0000000000000000000000000000000000000000000000000000000000000000",
    1706738004
  ],
  "numDeployments": 1,
  "solcInputHash": "a88478e553c00767a3b8551e3701da57",
  "bytecode": "0x60406080815234620002485762002c1e803803806200001e816200024d565b9283398101606082820312620002485781516001600160401b039190828111620002485783019181601f84011215620002485782519381851162000232576020601f1994620000748287601f8a0116016200024d565b96808852828801958382840101116200024857858362000095930162000273565b818101519187015187519093818301908111828210176200023257885260008091526002546001908181811c9116801562000227575b848210146200021357601f8111620001e7575b5050600281905560038054336001600160a01b0319821681179092558951926001600160a01b03909116907f8be0079c531659141344cd1fd0a4f28419497f9722a3daafe3b4186f6b6457e09084a383421015620001a757506080937f0321d29aa78655def372c63c55cdf9813510b8e8f5263d109dc5554a405b4ed8969383601f936200018a9895600455826006558a51988997606089525180958160608b01528a8a019062000273565b8601528885015201168101030190a1516129859081620002998239f35b60649162461bcd60e51b82526004820152601760248201527f446561646c696e6520616c7265616479207061737365640000000000000000006044820152fd5b60028352601f848420910160051c8101905b818110620002085750620000de565b8381558201620001f9565b634e487b7160e01b83526022600452602483fd5b90607f1690620000cb565b634e487b7160e01b600052604160045260246000fd5b600080fd5b6040519190601f01601f191682016001600160401b038111838210176200023257604052565b60005b838110620002875750506000910152565b81810151838201526020016200027656fe6080604052600436101561001257600080fd5b60003560e01c8062fdd58e14611b5957806301ffc9a714611aeb57806302524936146118005780630e89341c146117c05780631253c546146117c057806318160ddd14611771578063196365851461178f578063204a875a14611771578063230ad5cc146117405780632335570b1461171c57806329dcb0cf146116fe5780632eb2c2d6146113cb5780633917dac51461129757806339731d911461126057806339efae52146112315780634e1273f41461108f5780636e748f97146110735780636ed93dd014611056578063715018a614610ff45780637c7cd78514610f525780638da5cb5b14610f29578063a22cb46514610e45578063a943840a14610da9578063c9e7d50a14610d5c578063ceb120fa14610c2f578063d01f593214610881578063db833f00146107e2578063df773e34146107cb578063e591ed8914610728578063e985e9c5146106d2578063ebf0c717146106b4578063f242432a14610442578063f2fde38b146103775763f9beb7401461019157600080fd5b346103725760a0366003190112610372576101aa611b80565b6024356101b5611b96565b6064359160ff83168303610372576084356001600160401b038111610372576101e2903690600401611bc2565b604051606087901b6001600160601b0319166020808301918252603483018690529793929161021e81605481015b03601f198101835282611caa565b5190206000526007875261023a60ff60406000205416156122e9565b6006544210156103335790604051878101906001600160601b0319808660601b1683528660348301528760601b16605482015260ff60f81b8860f81b1660688201526049815261028981611c8f565b5190209160045492916000915b8083106102ed57505050036102b1576102af9450612395565b005b60405162461bcd60e51b815260048101869052601460248201527324b73b30b634b21036b2b935b63290383937b7b360611b6044820152606490fd5b9091926102fb8483856122c5565b35908181101561032057600052895261031960406000205b93611f8d565b9190610296565b9060005289526103196040600020610313565b60405162461bcd60e51b8152600481018890526017602482015276135a5b9d1a5b99c8191958591b1a5b99481c185cdcd959604a1b6044820152606490fd5b600080fd5b3461037257602036600319011261037257610390611b80565b610398611eb0565b6001600160a01b039081169081156103ee5760009160035491816001600160601b0360a01b84161760035560405192167f8be0079c531659141344cd1fd0a4f28419497f9722a3daafe3b4186f6b6457e08484a3f35b60405162461bcd60e51b815260206004820152602660248201527f4f776e61626c653a206e6577206f776e657220697320746865207a65726f206160448201526564647265737360d01b6064820152608490fd5b346103725760a03660031901126103725761045b611b80565b610463611bac565b906064356044356084356001600160401b03811161037257610489903690600401611e35565b6001600160a01b0393841693338514801561068b575b6104a890611fbd565b85166104b5811515612020565b6104be83612233565b506104c884612233565b5082600052602095600087526040600020866000528752846040600020546104f28282101561207a565b856000526000895260406000208860005289520360406000205583600052600087526040600020826000528752604060002061052f8682546120d9565b90558186604051868152878a8201527fc3d58168c5ae7397731d063d5bbf3d657854427343f4c083240f7aacaa2d0f6260403392a43b61056b57005b6105af93600087946040519687958694859363f23a6e6160e01b9b8c865233600487015260248601526044850152606484015260a0608484015260a4830190611c15565b03925af16000918161065c575b506106325750506001906105ce61214f565b6308c379a0146105fd575b506105e057005b60405162461bcd60e51b8152806105f9600482016121de565b0390fd5b61060561216d565b908161061157506105d9565b6105f960405192839262461bcd60e51b845260048401526024830190611c15565b6001600160e01b0319161490506102af5760405162461bcd60e51b8152806105f960048201612106565b61067d919250843d8611610684575b6106758183611caa565b8101906120e6565b90846105bc565b503d61066b565b508460005260016020526040600020336000526020526104a860ff60406000205416905061049f565b34610372576000366003190112610372576020600454604051908152f35b34610372576040366003190112610372576106eb611b80565b6106f3611bac565b9060018060a01b03809116600052600160205260406000209116600052602052602060ff604060002054166040519015158152f35b346103725761073636611d71565b916107428383836126be565b60ff81161515928361075c575b6020846040519015158152f35b9091925061076a8184612920565b600052600860205260ff604060002054169283610791575b5050506020915082808061074f565b61079b93506128df565b600052600960205260406000209060018060a01b0316600052602052602060ff6040600020541615828080610782565b34610372576102af6107dc36611d71565b91612324565b346103725760403660031901126103725760006107fd611b80565b602435610808611eb0565b604051606083901b6001600160601b0319166020820190815260348201839052906108368160548101610210565b519020835260076020526040808420805460ff1916600117905551916001600160a01b03167f57847ecb0caf57ab272aebf4d12c2e00b717d17e11280577d5302fd2f6a901ae8484a3f35b346103725760603660031901126103725761089a611b80565b6044356001600160401b038111610372576108b9903690600401611e35565b906108c2611eb0565b6108ce60243582612920565b600052600860205260ff60406000205416610bf3576108ef60243582612920565b60005260086020526040600020600160ff198254161790556001905b60ff821692600384116102af57600093807a184f03e93ff9f4daa797ed6e38ed64bf6a1f0100000000000000008181811015610be4575b5050600a906d04ee2d6d415b85acef810000000080821015610bd7575b50662386f26fc1000080821015610bca575b506305f5e10080821015610bbd575b5061271080821015610bb0575b50606480821015610ba3575b501015610b99575b600a602160018701966109b388611e1a565b976109c1604051998a611caa565b8089526109d0601f1991611e1a565b013660208a01378701015b60001901916f181899199a1a9b1b9c1cb0b131b232b360811b8282061a835304908115610a0a57600a906109db565b505091610a48602060405180968651610a2881858501868b01611bf2565b8201610a3c82518093868085019101611bf2565b01038087520185611caa565b610a5581602435846128df565b600052600a60205260406000208451946001600160401b038611610b8357610a7d8254611c3a565b601f8111610b3f575b50602090601f8711600114610ad057958091610abf959697600092610ac5575b50508160011b916000199060031b1c1916179055612268565b9061090b565b015190508780610aa6565b908260005260206000209160005b601f1989168110610b275750918791600193610abf979899601f19811610610b0e575b505050811b019055612268565b015160001960f88460031b161c19169055878080610b01565b91926020600181928685015181550194019201610ade565b826000526020600020601f880160051c810160208910610b7c575b601f830160051c82018110610b70575050610a86565b60008155600101610b5a565b5080610b5a565b634e487b7160e01b600052604160045260246000fd5b93600101936109a1565b6002910496019587610999565b600491049601958761098d565b6008910496019587610980565b6010910496019587610971565b602091049601958761095f565b60409750049050600a87610942565b60405162461bcd60e51b81526020600482015260146024820152735661756c7420616c72656164792065786973747360601b6044820152606490fd5b34610372576060366003190112610372576004356001600160401b03811161037257610c5f903690600401611e35565b6024359060443590610c6f611eb0565b600654421115610d185781421015610cd35782610cc3927f0321d29aa78655def372c63c55cdf9813510b8e8f5263d109dc5554a405b4ed89460045580600655604051938493606085526060850190611c15565b91602084015260408301520390a1005b60405162461bcd60e51b815260206004820152601b60248201527f4e657720646561646c696e6520616c72656164792070617373656400000000006044820152606490fd5b606460405162461bcd60e51b815260206004820152602060248201527f4d696e74696e6720646561646c696e6520776173206e6f7420726561636865646044820152fd5b3461037257604036600319011261037257610d75611bac565b600435600052600960205260406000209060018060a01b0316600052602052602060ff604060002054166040519015158152f35b34610372576040366003190112610372576000610dc4611b80565b602435610dcf611eb0565b604051606083901b6001600160601b031916602082019081526034820183905290610dfd8160548101610210565b519020835260076020526040808420805460ff1916905551916001600160a01b03167f5e8526ee3954b37e3817ddd2a2af5028e0bd006511f190d1deeb43d15d0a18cd8484a3f35b3461037257604036600319011261037257610e5e611b80565b60243590811515809203610372576001600160a01b031690338214610ed257336000526001602052604060002082600052602052604060002060ff1981541660ff83161790556040519081527f17307eab39ab6107e8899845ad3d59bd9653f200f220920489ca2b5937696c3160203392a3005b60405162461bcd60e51b815260206004820152602960248201527f455243313135353a2073657474696e6720617070726f76616c20737461747573604482015268103337b91039b2b63360b91b6064820152608490fd5b34610372576000366003190112610372576003546040516001600160a01b039091168152602090f35b34610372576060366003190112610372576001600160401b0360043581811161037257610f83903690600401611bc2565b9160243590811161037257610f9c903690600401611bc2565b90610fa5611b96565b90610fb1838614612279565b60005b858110610fbd57005b80610fea84610fd8610fd3610fef958b8b6122c5565b6122d5565b610fe38489886122c5565b3590612324565b611f8d565b610fb4565b346103725760003660031901126103725761100d611eb0565b600380546001600160a01b0319811690915560405160009182906001600160a01b03167f8be0079c531659141344cd1fd0a4f28419497f9722a3daafe3b4186f6b6457e08284a3f35b346103725760003660031901126103725760206040516127108152f35b3461037257600036600319011261037257602060405160038152f35b34610372576040366003190112610372576004356001600160401b038082116103725736602383011215610372578160040135906110cc82611da5565b926110da6040519485611caa565b82845260209260248486019160051b8301019136831161037257602401905b828210611212575050506024359081116103725761111b903690600401611dbc565b82518151036111bb5782519261113084611da5565b9361113e6040519586611caa565b80855261114d601f1991611da5565b01368486013760005b81518110156111a05761119b9061118b6001600160a01b036111788386611fa9565b51166111848387611fa9565b5190611f08565b6111958288611fa9565b52611f8d565b611156565b5050506111b7604051928284938452830190611e7c565b0390f35b60405162461bcd60e51b815260048101839052602960248201527f455243313135353a206163636f756e747320616e6420696473206c656e677468604482015268040dad2e6dac2e8c6d60bb1b6064820152608490fd5b81356001600160a01b03811681036103725781529084019084016110f9565b3461037257604036600319011261037257602061125861124f611b80565b60243590612920565b604051908152f35b3461037257606036600319011261037257611279611b80565b6044359060ff821682036103725760209161125891602435906128df565b34610372576112a536611d71565b9190604051926112b484611c74565b60603685376112c38284612920565b6000526020926008845260ff916112e08360406000205416612352565b60019384805b61131d575b5050505050604051918293906000945b6003861061130857606085f35b825115158152948301949181019181016112fb565b908291856113318695848a989c9b9c6126be565b168682169081116113c1576113478284876128df565b600090815260098b5260408082206001600160a01b03871683528c52902054871615611384575b5061137890612268565b909192939796976112e6565b909450600019018581116113ab578694856113a48861137894168b6128ce565b529061136e565b634e487b7160e01b600052601160045260246000fd5b50509695966112eb565b346103725760031960a036820112610372576113e5611b80565b906113ee611bac565b906001600160401b039060443582811161037257611410903690600401611dbc565b60643583811161037257611428903690600401611dbc565b9260843590811161037257611441903690600401611e35565b6001600160a01b039586169590929033871480156116d5575b61146390611fbd565b825185510361167f5785169261147a841515612020565b60005b8351811015611513578061149461150e9286611fa9565b5161149f8289611fa9565b5190806000526020906000825260406000208c6000528252826040600020546114ca8282101561207a565b82600052600084528d60406000209060005284520360406000205560005260008152604060002090886000525261150760406000209182546120d9565b9055611f8d565b61147d565b509094939291938287604051604081527f4a39dc06d4c0dbc64b70af90fd698a233a518aa5d07e595d983b8c0526c8f7fb611551604083018a611e7c565b9180830360208201528061156633948b611e7c565b0390a43b61157057005b60006020946115d16115c2976115b294604051998a988997889663bc197c8160e01b9e8f89523360048a0152602489015260a0604489015260a4880190611e7c565b9084878303016064880152611e7c565b91848303016084850152611c15565b03925af16000918161165f575b5061163757505060016115ef61214f565b6308c379a014611600575b6105e057005b61160861216d565b8061161357506115fa565b60405162461bcd60e51b8152602060048201529081906105f9906024830190611c15565b6001600160e01b031916146102af5760405162461bcd60e51b8152806105f960048201612106565b61167891925060203d8111610684576106758183611caa565b90836115de565b60405162461bcd60e51b815260206004820152602860248201527f455243313135353a2069647320616e6420616d6f756e7473206c656e677468206044820152670dad2e6dac2e8c6d60c31b6064820152608490fd5b5086600052600160205260406000203360005260205261146360ff60406000205416905061145a565b34610372576000366003190112610372576020600654604051908152f35b3461037257602061173561172f36611d71565b916126be565b60ff60405191168152f35b34610372576020366003190112610372576004356000526008602052602060ff604060002054166040519015158152f35b34610372576000366003190112610372576020600554604051908152f35b34610372576020366003190112610372576004356000526007602052602060ff604060002054166040519015158152f35b3461037257602036600319011261037257600435600052600a6020526111b76117ec6040600020611ccb565b604051918291602083526020830190611c15565b346103725760a0366003190112610372576004356001600160401b03811161037257611830903690600401611bc2565b906024356001600160401b03811161037257611850903690600401611bc2565b611858611b96565b6064356001600160401b03811161037257611877903690600401611bc2565b90956084356001600160401b03811161037257611898903690600401611bc2565b9490926118a6828414612279565b6118b1818414612279565b6118bc868414612279565b60005b8381106118c857005b808a6118f282856118eb828f8f98610fd36118e5918e8e946122c5565b986122c5565b35936122c5565b3560ff811681036103725789831015611ad557601e19883603018360051b8901351215610372578260051b88013588016001600160401b0381351161037257803560051b3603602082011361037257604051606086901b6001600160601b03191660208201908152603482018590529061196f8160548101610210565b519020600052600760205261198c60ff60406000205416156122e9565b600654421015611a965760405160208101906001600160601b03198760601b1682528460348201526001600160601b03198c60601b16605482015260ff60f81b8460f81b166068820152604981526119e381611c8f565b519020600454916000905b80358210611a4c57505003611a105788610fea92611a0b95612395565b6118bf565b60405162461bcd60e51b815260206004820152601460248201527324b73b30b634b21036b2b935b63290383937b7b360611b6044820152606490fd5b9091611a5d838335602085016122c5565b359081811015611a8257600052602052611a7c60406000205b92611f8d565b906119ee565b90600052602052611a7c6040600020611a76565b60405162461bcd60e51b8152602060048201526017602482015276135a5b9d1a5b99c8191958591b1a5b99481c185cdcd959604a1b6044820152606490fd5b634e487b7160e01b600052603260045260246000fd5b346103725760203660031901126103725760043563ffffffff60e01b811680910361037257602090636cdb3d1360e11b8114908115611b48575b8115611b37575b506040519015158152f35b6301ffc9a760e01b14905082611b2c565b6303a24d0760e21b81149150611b25565b34610372576040366003190112610372576020611258611b77611b80565b60243590611f08565b600435906001600160a01b038216820361037257565b604435906001600160a01b038216820361037257565b602435906001600160a01b038216820361037257565b9181601f84011215610372578235916001600160401b038311610372576020808501948460051b01011161037257565b60005b838110611c055750506000910152565b8181015183820152602001611bf5565b90602091611c2e81518092818552858086019101611bf2565b601f01601f1916010190565b90600182811c92168015611c6a575b6020831014611c5457565b634e487b7160e01b600052602260045260246000fd5b91607f1691611c49565b606081019081106001600160401b03821117610b8357604052565b608081019081106001600160401b03821117610b8357604052565b90601f801991011681019081106001600160401b03821117610b8357604052565b9060405191826000825492611cdf84611c3a565b908184526001948581169081600014611d4e5750600114611d0b575b5050611d0992500383611caa565b565b9093915060005260209081600020936000915b818310611d36575050611d0993508201013880611cfb565b85548884018501529485019487945091830191611d1e565b915050611d0994506020925060ff191682840152151560051b8201013880611cfb565b6060906003190112610372576001600160a01b03600435818116810361037257916024359160443590811681036103725790565b6001600160401b038111610b835760051b60200190565b81601f8201121561037257803591611dd383611da5565b92611de16040519485611caa565b808452602092838086019260051b820101928311610372578301905b828210611e0b575050505090565b81358152908301908301611dfd565b6001600160401b038111610b8357601f01601f191660200190565b81601f8201121561037257803590611e4c82611e1a565b92611e5a6040519485611caa565b8284526020838301011161037257816000926020809301838601378301015290565b90815180825260208080930193019160005b828110611e9c575050505090565b835185529381019392810192600101611e8e565b6003546001600160a01b03163303611ec457565b606460405162461bcd60e51b815260206004820152602060248201527f4f776e61626c653a2063616c6c6572206973206e6f7420746865206f776e65726044820152fd5b6001600160a01b0316908115611f3557600052600060205260406000209060005260205260406000205490565b60405162461bcd60e51b815260206004820152602a60248201527f455243313135353a2061646472657373207a65726f206973206e6f742061207660448201526930b634b21037bbb732b960b11b6064820152608490fd5b60001981146113ab5760010190565b805115611ad55760200190565b8051821015611ad55760209160051b010190565b15611fc457565b60405162461bcd60e51b815260206004820152602e60248201527f455243313135353a2063616c6c6572206973206e6f7420746f6b656e206f776e60448201526d195c881bdc88185c1c1c9bdd995960921b6064820152608490fd5b1561202757565b60405162461bcd60e51b815260206004820152602560248201527f455243313135353a207472616e7366657220746f20746865207a65726f206164604482015264647265737360d81b6064820152608490fd5b1561208157565b60405162461bcd60e51b815260206004820152602a60248201527f455243313135353a20696e73756666696369656e742062616c616e636520666f60448201526939103a3930b739b332b960b11b6064820152608490fd5b919082018092116113ab57565b9081602091031261037257516001600160e01b0319811681036103725790565b60809060208152602860208201527f455243313135353a204552433131353552656365697665722072656a656374656040820152676420746f6b656e7360c01b60608201520190565b60009060033d1161215c57565b905060046000803e60005160e01c90565b600060443d106121ca57604051600319913d83016004833e81516001600160401b03918282113d6024840111176121cd578184019485519384116121d5573d850101602084870101116121cd57506121ca92910160200190611caa565b90565b949350505050565b50949350505050565b60809060208152603460208201527f455243313135353a207472616e7366657220746f206e6f6e2d455243313135356040820152732932b1b2b4bb32b91034b6b83632b6b2b73a32b960611b60608201520190565b60405190604082018281106001600160401b03821117610b8357604052600182526020368184013761226482611f9c565b5290565b60ff1660ff81146113ab5760010190565b1561228057565b60405162461bcd60e51b815260206004820152601960248201527f417272617973206c656e67746873206d757374206d61746368000000000000006044820152606490fd5b9190811015611ad55760051b0190565b356001600160a01b03811681036103725790565b156122f057565b60405162461bcd60e51b815260206004820152600c60248201526b15985d5b1d081c185d5cd95960a21b6044820152606490fd5b916123308183856126be565b9160ff8316612340575b50505050565b61234993612395565b3880808061233a565b1561235957565b60405162461bcd60e51b8152602060048201526014602482015273151bdad95b88191bd95cc81b9bdd08195e1a5cdd60621b6044820152606490fd5b90916123a18383612920565b9060009182526020906008825260ff946040946123c2878787205416612352565b60015b87891688821611156123dc57505050505050505050565b806123e9899285856128df565b875260098087528888206001600160a01b038716808a5290885289892054909190841615612424575b505061241d90612268565b90506123c5565b909192506124338386866128df565b885286528787208188528652878720805460ff191660011790556124588285856128df565b6005805460010190558851916001600160401b038884018181118582101761265c578b5289845281156126705761248e83612233565b508a5190818c019081118282101761265c576001916124b7918d528281528a3681830137611f9c565b52818952888852898920818a5288528989208054906001820180921161264857918a8a7fc3d58168c5ae7397731d063d5bbf3d657854427343f4c083240f7aacaa2d0f628f989796958f909585965560018151938885528401523392a4873b612521575b50612412565b90919293508951888163f23a6e6160e01b93848252818d8161256960049a338c84015260249a848c85015260448401526001606484015260a0608484015260a4830190611c15565b03925af18a9181612629575b506125f457505060019061258761214f565b6308c379a0146125bf575b506125a6575061241d88915b90388061251b565b875162461bcd60e51b81529081906105f99082016121de565b6125c761216d565b90816125d35750612592565b8a5162461bcd60e51b81528085018a90529182916105f99190830190611c15565b6001600160e01b031916039050612610575061241d889161259e565b875162461bcd60e51b81529081906105f9908201612106565b6126419192508a3d8c11610684576106758183611caa565b9038612575565b634e487b7160e01b8b52601160045260248bfd5b634e487b7160e01b8b52604160045260248bfd5b8a5162461bcd60e51b8152600481018a9052602160248201527f455243313135353a206d696e7420746f20746865207a65726f206164647265736044820152607360f81b6064820152608490fd5b60408051606083901b6001600160601b03191660208083019182526034830186905295969493916126f28160548101610210565b5190209560009687526007865260ff96612711888583205416156122e9565b60018060a01b0380931692845195633ae05cff60e11b8752600491818389015260249416848801528887604481885afa9687156128c457908991849861288f575b50848751809781936310bfff0b60e31b8352868301525afa938415612885578294612852575b50831594851595612821578060646105dc92519a6127958c611c74565b600a8c528b0152890152819782985b8a8a166003811015612812576127bd61ffff91846128ce565b51168660001904811188166127ff576127109087020488106127f1576127e56127eb91612268565b99612268565b986127a4565b985050505050505050915090565b5050634e487b7160e01b83525060119052fd5b50985050505050505050915090565b5162461bcd60e51b8152908101889052600d818401526c506f6f6c20697320656d70747960981b6044820152606490fd5b9093508781813d831161287e575b61286a8183611caa565b8101031261287a57519238612778565b5080fd5b503d612860565b85513d84823e3d90fd5b8281939299503d83116128bd575b6128a78183611caa565b810103126128b9578890519638612752565b8280fd5b503d61289d565b86513d85823e3d90fd5b906003811015611ad55760051b0190565b916040519160208301936001600160601b03199060601b168452603483015260ff60f81b9060f81b1660548201526035815261291a81611c74565b51902090565b60405160609190911b6001600160601b03191660208201908152603482019290925261291a816054810161021056fea2646970667358221220e5dcb37e454255597a4582f57df206bdda23751a1c36d3db67c59a9c7f62371064736f6c63430008100033",
  "devdoc": {
    "kind": "dev",
    "methods": {
      "balanceOf(address,uint256)": {
        "details": "See {IERC1155-balanceOf}. Requirements: - `account` cannot be the zero address."
      },
      "balanceOfBatch(address[],uint256[])": {
        "details": "See {IERC1155-balanceOfBatch}. Requirements: - `accounts` and `ids` must have the same length."
      },
      "isApprovedForAll(address,address)": {
        "details": "See {IERC1155-isApprovedForAll}."
      },
      "owner()": {
        "details": "Returns the address of the current owner."
      },
      "renounceOwnership()": {
        "details": "Leaves the contract without owner. It will not be possible to call `onlyOwner` functions anymore. Can only be called by the current owner. NOTE: Renouncing ownership will leave the contract without an owner, thereby removing any functionality that is only available to the owner."
      },
      "safeBatchTransferFrom(address,address,uint256[],uint256[],bytes)": {
        "details": "See {IERC1155-safeBatchTransferFrom}."
      },
      "safeTransferFrom(address,address,uint256,uint256,bytes)": {
        "details": "See {IERC1155-safeTransferFrom}."
      },
      "setApprovalForAll(address,bool)": {
        "details": "See {IERC1155-setApprovalForAll}."
      },
      "supportsInterface(bytes4)": {
        "details": "See {IERC165-supportsInterface}."
      },
      "totalSupply()": {
        "details": "Returns thze total tokens minted so far."
      },
      "transferOwnership(address)": {
        "details": "Transfers ownership of the contract to a new account (`newOwner`). Can only be called by the current owner."
      },
      "updateTree(string,bytes32,uint256)": {
        "details": "Update the merkle tree root only after  the deadline for minting has been reached.",
        "params": {
          "_deadline": "number of days to the next minting deadline.",
          "_merkleTreeIPFSRef": "new merkle tree ipfs reference.",
          "_root": "new merkle tree root to use for verifying."
        }
      }
    },
    "version": 1
  },
  "userdoc": {
    "kind": "user",
    "methods": {},
    "version": 1
  },
  "storageLayout": {
    "storage": [
      {
        "astId": 5856,
        "contract": "contracts/nft/HATVaultsNFT.sol:HATVaultsNFT",
        "label": "_balances",
        "offset": 0,
        "slot": "0",
        "type": "t_mapping(t_uint256,t_mapping(t_address,t_uint256))"
      },
      {
        "astId": 5862,
        "contract": "contracts/nft/HATVaultsNFT.sol:HATVaultsNFT",
        "label": "_operatorApprovals",
        "offset": 0,
        "slot": "1",
        "type": "t_mapping(t_address,t_mapping(t_address,t_bool))"
      },
      {
        "astId": 5864,
        "contract": "contracts/nft/HATVaultsNFT.sol:HATVaultsNFT",
        "label": "_uri",
        "offset": 0,
        "slot": "2",
        "type": "t_string_storage"
      },
      {
        "astId": 4653,
        "contract": "contracts/nft/HATVaultsNFT.sol:HATVaultsNFT",
        "label": "_owner",
        "offset": 0,
        "slot": "3",
        "type": "t_address"
      },
      {
        "astId": 26862,
        "contract": "contracts/nft/HATVaultsNFT.sol:HATVaultsNFT",
        "label": "root",
        "offset": 0,
        "slot": "4",
        "type": "t_bytes32"
      },
      {
        "astId": 26865,
        "contract": "contracts/nft/HATVaultsNFT.sol:HATVaultsNFT",
        "label": "totalSupplyCounter",
        "offset": 0,
        "slot": "5",
        "type": "t_struct(Counter)9706_storage"
      },
      {
        "astId": 26867,
        "contract": "contracts/nft/HATVaultsNFT.sol:HATVaultsNFT",
        "label": "deadline",
        "offset": 0,
        "slot": "6",
        "type": "t_uint256"
      },
      {
        "astId": 26877,
        "contract": "contracts/nft/HATVaultsNFT.sol:HATVaultsNFT",
        "label": "pausedVaults",
        "offset": 0,
        "slot": "7",
        "type": "t_mapping(t_bytes32,t_bool)"
      },
      {
        "astId": 26881,
        "contract": "contracts/nft/HATVaultsNFT.sol:HATVaultsNFT",
        "label": "vaultsRegistered",
        "offset": 0,
        "slot": "8",
        "type": "t_mapping(t_bytes32,t_bool)"
      },
      {
        "astId": 26887,
        "contract": "contracts/nft/HATVaultsNFT.sol:HATVaultsNFT",
        "label": "tokensRedeemed",
        "offset": 0,
        "slot": "9",
        "type": "t_mapping(t_uint256,t_mapping(t_address,t_bool))"
      },
      {
        "astId": 26891,
        "contract": "contracts/nft/HATVaultsNFT.sol:HATVaultsNFT",
        "label": "uris",
        "offset": 0,
        "slot": "10",
        "type": "t_mapping(t_uint256,t_string_storage)"
      }
    ],
    "types": {
      "t_address": {
        "encoding": "inplace",
        "label": "address",
        "numberOfBytes": "20"
      },
      "t_bool": {
        "encoding": "inplace",
        "label": "bool",
        "numberOfBytes": "1"
      },
      "t_bytes32": {
        "encoding": "inplace",
        "label": "bytes32",
        "numberOfBytes": "32"
      },
      "t_mapping(t_address,t_bool)": {
        "encoding": "mapping",
        "key": "t_address",
        "label": "mapping(address => bool)",
        "numberOfBytes": "32",
        "value": "t_bool"
      },
      "t_mapping(t_address,t_mapping(t_address,t_bool))": {
        "encoding": "mapping",
        "key": "t_address",
        "label": "mapping(address => mapping(address => bool))",
        "numberOfBytes": "32",
        "value": "t_mapping(t_address,t_bool)"
      },
      "t_mapping(t_address,t_uint256)": {
        "encoding": "mapping",
        "key": "t_address",
        "label": "mapping(address => uint256)",
        "numberOfBytes": "32",
        "value": "t_uint256"
      },
      "t_mapping(t_bytes32,t_bool)": {
        "encoding": "mapping",
        "key": "t_bytes32",
        "label": "mapping(bytes32 => bool)",
        "numberOfBytes": "32",
        "value": "t_bool"
      },
      "t_mapping(t_uint256,t_mapping(t_address,t_bool))": {
        "encoding": "mapping",
        "key": "t_uint256",
        "label": "mapping(uint256 => mapping(address => bool))",
        "numberOfBytes": "32",
        "value": "t_mapping(t_address,t_bool)"
      },
      "t_mapping(t_uint256,t_mapping(t_address,t_uint256))": {
        "encoding": "mapping",
        "key": "t_uint256",
        "label": "mapping(uint256 => mapping(address => uint256))",
        "numberOfBytes": "32",
        "value": "t_mapping(t_address,t_uint256)"
      },
      "t_mapping(t_uint256,t_string_storage)": {
        "encoding": "mapping",
        "key": "t_uint256",
        "label": "mapping(uint256 => string)",
        "numberOfBytes": "32",
        "value": "t_string_storage"
      },
      "t_string_storage": {
        "encoding": "bytes",
        "label": "string",
        "numberOfBytes": "32"
      },
      "t_struct(Counter)9706_storage": {
        "encoding": "inplace",
        "label": "struct Counters.Counter",
        "members": [
          {
            "astId": 9705,
            "contract": "contracts/nft/HATVaultsNFT.sol:HATVaultsNFT",
            "label": "_value",
            "offset": 0,
            "slot": "0",
            "type": "t_uint256"
          }
        ],
        "numberOfBytes": "32"
      },
      "t_uint256": {
        "encoding": "inplace",
        "label": "uint256",
        "numberOfBytes": "32"
      }
    }
  }
}