{
  "address": "0x22Ba5c53585B1cEb914bEbCc15533fc3E633Ad05",
  "abi": [
    {
      "inputs": [],
      "name": "AmountCannotBeZero",
      "type": "error"
    },
    {
      "inputs": [],
      "name": "AmountOfSharesMustBeMoreThanMinimalAmount",
      "type": "error"
    },
    {
      "inputs": [],
      "name": "CannotTransferToAnotherUserWithActiveWithdrawRequest",
      "type": "error"
    },
    {
      "inputs": [],
      "name": "CannotTransferToSelf",
      "type": "error"
    },
    {
      "inputs": [],
      "name": "CannotUnpauseDestroyedVault",
      "type": "error"
    },
    {
      "inputs": [],
      "name": "DepositSlippageProtection",
      "type": "error"
    },
    {
      "inputs": [],
      "name": "DuplicatedRewardController",
      "type": "error"
    },
    {
      "inputs": [],
      "name": "MintSlippageProtection",
      "type": "error"
    },
    {
      "inputs": [],
      "name": "OnlyClaimsManager",
      "type": "error"
    },
    {
      "inputs": [],
      "name": "OnlyFeeSetter",
      "type": "error"
    },
    {
      "inputs": [],
      "name": "OnlyRegistryOwner",
      "type": "error"
    },
    {
      "inputs": [],
      "name": "RedeemMoreThanMax",
      "type": "error"
    },
    {
      "inputs": [],
      "name": "RedeemSlippageProtection",
      "type": "error"
    },
    {
      "inputs": [],
      "name": "SystemInEmergencyPause",
      "type": "error"
    },
    {
      "inputs": [],
      "name": "VaultNotStartedYet",
      "type": "error"
    },
    {
      "inputs": [],
      "name": "WithdrawMustBeGreaterThanZero",
      "type": "error"
    },
    {
      "inputs": [],
      "name": "WithdrawSlippageProtection",
      "type": "error"
    },
    {
      "inputs": [],
      "name": "WithdrawalFeeTooBig",
      "type": "error"
    },
    {
      "anonymous": false,
      "inputs": [
        {
          "indexed": true,
          "internalType": "contract IRewardController",
          "name": "_newRewardController",
          "type": "address"
        }
      ],
      "name": "AddRewardController",
      "type": "event"
    },
    {
      "anonymous": false,
      "inputs": [
        {
          "indexed": true,
          "internalType": "address",
          "name": "owner",
          "type": "address"
        },
        {
          "indexed": true,
          "internalType": "address",
          "name": "spender",
          "type": "address"
        },
        {
          "indexed": false,
          "internalType": "uint256",
          "name": "value",
          "type": "uint256"
        }
      ],
      "name": "Approval",
      "type": "event"
    },
    {
      "anonymous": false,
      "inputs": [
        {
          "indexed": true,
          "internalType": "address",
          "name": "sender",
          "type": "address"
        },
        {
          "indexed": true,
          "internalType": "address",
          "name": "owner",
          "type": "address"
        },
        {
          "indexed": false,
          "internalType": "uint256",
          "name": "assets",
          "type": "uint256"
        },
        {
          "indexed": false,
          "internalType": "uint256",
          "name": "shares",
          "type": "uint256"
        }
      ],
      "name": "Deposit",
      "type": "event"
    },
    {
      "anonymous": false,
      "inputs": [
        {
          "indexed": false,
          "internalType": "uint8",
          "name": "version",
          "type": "uint8"
        }
      ],
      "name": "Initialized",
      "type": "event"
    },
    {
      "anonymous": false,
      "inputs": [
        {
          "indexed": true,
          "internalType": "address",
          "name": "previousOwner",
          "type": "address"
        },
        {
          "indexed": true,
          "internalType": "address",
          "name": "newOwner",
          "type": "address"
        }
      ],
      "name": "OwnershipTransferred",
      "type": "event"
    },
    {
      "anonymous": false,
      "inputs": [
        {
          "indexed": false,
          "internalType": "bool",
          "name": "_depositPause",
          "type": "bool"
        }
      ],
      "name": "SetDepositPause",
      "type": "event"
    },
    {
      "anonymous": false,
      "inputs": [
        {
          "indexed": false,
          "internalType": "string",
          "name": "_descriptionHash",
          "type": "string"
        }
      ],
      "name": "SetVaultDescription",
      "type": "event"
    },
    {
      "anonymous": false,
      "inputs": [
        {
          "indexed": false,
          "internalType": "bool",
          "name": "_withdrawPaused",
          "type": "bool"
        }
      ],
      "name": "SetWithdrawPaused",
      "type": "event"
    },
    {
      "anonymous": false,
      "inputs": [
        {
          "indexed": false,
          "internalType": "uint256",
          "name": "_newFee",
          "type": "uint256"
        }
      ],
      "name": "SetWithdrawalFee",
      "type": "event"
    },
    {
      "anonymous": false,
      "inputs": [
        {
          "indexed": true,
          "internalType": "address",
          "name": "from",
          "type": "address"
        },
        {
          "indexed": true,
          "internalType": "address",
          "name": "to",
          "type": "address"
        },
        {
          "indexed": false,
          "internalType": "uint256",
          "name": "value",
          "type": "uint256"
        }
      ],
      "name": "Transfer",
      "type": "event"
    },
    {
      "anonymous": false,
      "inputs": [],
      "name": "VaultDestroyed",
      "type": "event"
    },
    {
      "anonymous": false,
      "inputs": [
        {
          "indexed": false,
          "internalType": "uint256",
          "name": "_amount",
          "type": "uint256"
        }
      ],
      "name": "VaultPayout",
      "type": "event"
    },
    {
      "anonymous": false,
      "inputs": [],
      "name": "VaultStarted",
      "type": "event"
    },
    {
      "anonymous": false,
      "inputs": [
        {
          "indexed": true,
          "internalType": "address",
          "name": "sender",
          "type": "address"
        },
        {
          "indexed": true,
          "internalType": "address",
          "name": "receiver",
          "type": "address"
        },
        {
          "indexed": true,
          "internalType": "address",
          "name": "owner",
          "type": "address"
        },
        {
          "indexed": false,
          "internalType": "uint256",
          "name": "assets",
          "type": "uint256"
        },
        {
          "indexed": false,
          "internalType": "uint256",
          "name": "shares",
          "type": "uint256"
        }
      ],
      "name": "Withdraw",
      "type": "event"
    },
    {
      "anonymous": false,
      "inputs": [
        {
          "indexed": true,
          "internalType": "address",
          "name": "_beneficiary",
          "type": "address"
        },
        {
          "indexed": false,
          "internalType": "uint256",
          "name": "_withdrawEnableTime",
          "type": "uint256"
        }
      ],
      "name": "WithdrawRequest",
      "type": "event"
    },
    {
      "inputs": [],
      "name": "HUNDRED_PERCENT",
      "outputs": [
        {
          "internalType": "uint256",
          "name": "",
          "type": "uint256"
        }
      ],
      "stateMutability": "view",
      "type": "function"
    },
    {
      "inputs": [],
      "name": "MAX_UINT",
      "outputs": [
        {
          "internalType": "uint256",
          "name": "",
          "type": "uint256"
        }
      ],
      "stateMutability": "view",
      "type": "function"
    },
    {
      "inputs": [],
      "name": "MAX_WITHDRAWAL_FEE",
      "outputs": [
        {
          "internalType": "uint256",
          "name": "",
          "type": "uint256"
        }
      ],
      "stateMutability": "view",
      "type": "function"
    },
    {
      "inputs": [],
      "name": "MINIMAL_AMOUNT_OF_SHARES",
      "outputs": [
        {
          "internalType": "uint256",
          "name": "",
          "type": "uint256"
        }
      ],
      "stateMutability": "view",
      "type": "function"
    },
    {
      "inputs": [],
      "name": "VERSION",
      "outputs": [
        {
          "internalType": "string",
          "name": "",
          "type": "string"
        }
      ],
      "stateMutability": "view",
      "type": "function"
    },
    {
      "inputs": [
        {
          "internalType": "contract IRewardController",
          "name": "_rewardController",
          "type": "address"
        }
      ],
      "name": "addRewardController",
      "outputs": [],
      "stateMutability": "nonpayable",
      "type": "function"
    },
    {
      "inputs": [
        {
          "internalType": "address",
          "name": "owner",
          "type": "address"
        },
        {
          "internalType": "address",
          "name": "spender",
          "type": "address"
        }
      ],
      "name": "allowance",
      "outputs": [
        {
          "internalType": "uint256",
          "name": "",
          "type": "uint256"
        }
      ],
      "stateMutability": "view",
      "type": "function"
    },
    {
      "inputs": [
        {
          "internalType": "address",
          "name": "spender",
          "type": "address"
        },
        {
          "internalType": "uint256",
          "name": "amount",
          "type": "uint256"
        }
      ],
      "name": "approve",
      "outputs": [
        {
          "internalType": "bool",
          "name": "",
          "type": "bool"
        }
      ],
      "stateMutability": "nonpayable",
      "type": "function"
    },
    {
      "inputs": [],
      "name": "asset",
      "outputs": [
        {
          "internalType": "address",
          "name": "",
          "type": "address"
        }
      ],
      "stateMutability": "view",
      "type": "function"
    },
    {
      "inputs": [
        {
          "internalType": "address",
          "name": "account",
          "type": "address"
        }
      ],
      "name": "balanceOf",
      "outputs": [
        {
          "internalType": "uint256",
          "name": "",
          "type": "uint256"
        }
      ],
      "stateMutability": "view",
      "type": "function"
    },
    {
      "inputs": [],
      "name": "claimsManager",
      "outputs": [
        {
          "internalType": "address",
          "name": "",
          "type": "address"
        }
      ],
      "stateMutability": "view",
      "type": "function"
    },
    {
      "inputs": [
        {
          "internalType": "uint256",
          "name": "shares",
          "type": "uint256"
        }
      ],
      "name": "convertToAssets",
      "outputs": [
        {
          "internalType": "uint256",
          "name": "assets",
          "type": "uint256"
        }
      ],
      "stateMutability": "view",
      "type": "function"
    },
    {
      "inputs": [
        {
          "internalType": "uint256",
          "name": "assets",
          "type": "uint256"
        }
      ],
      "name": "convertToShares",
      "outputs": [
        {
          "internalType": "uint256",
          "name": "shares",
          "type": "uint256"
        }
      ],
      "stateMutability": "view",
      "type": "function"
    },
    {
      "inputs": [],
      "name": "decimals",
      "outputs": [
        {
          "internalType": "uint8",
          "name": "",
          "type": "uint8"
        }
      ],
      "stateMutability": "view",
      "type": "function"
    },
    {
      "inputs": [
        {
          "internalType": "address",
          "name": "spender",
          "type": "address"
        },
        {
          "internalType": "uint256",
          "name": "subtractedValue",
          "type": "uint256"
        }
      ],
      "name": "decreaseAllowance",
      "outputs": [
        {
          "internalType": "bool",
          "name": "",
          "type": "bool"
        }
      ],
      "stateMutability": "nonpayable",
      "type": "function"
    },
    {
      "inputs": [
        {
          "internalType": "uint256",
          "name": "assets",
          "type": "uint256"
        },
        {
          "internalType": "address",
          "name": "receiver",
          "type": "address"
        }
      ],
      "name": "deposit",
      "outputs": [
        {
          "internalType": "uint256",
          "name": "",
          "type": "uint256"
        }
      ],
      "stateMutability": "nonpayable",
      "type": "function"
    },
    {
      "inputs": [
        {
          "internalType": "uint256",
          "name": "assets",
          "type": "uint256"
        },
        {
          "internalType": "address",
          "name": "receiver",
          "type": "address"
        },
        {
          "internalType": "uint256",
          "name": "minShares",
          "type": "uint256"
        }
      ],
      "name": "deposit",
      "outputs": [
        {
          "internalType": "uint256",
          "name": "",
          "type": "uint256"
        }
      ],
      "stateMutability": "nonpayable",
      "type": "function"
    },
    {
      "inputs": [],
      "name": "depositPause",
      "outputs": [
        {
          "internalType": "bool",
          "name": "",
          "type": "bool"
        }
      ],
      "stateMutability": "view",
      "type": "function"
    },
    {
      "inputs": [],
      "name": "destroyVault",
      "outputs": [],
      "stateMutability": "nonpayable",
      "type": "function"
    },
    {
      "inputs": [
        {
          "internalType": "address",
          "name": "receiver",
          "type": "address"
        }
      ],
      "name": "emergencyWithdraw",
      "outputs": [
        {
          "internalType": "uint256",
          "name": "assets",
          "type": "uint256"
        }
      ],
      "stateMutability": "nonpayable",
      "type": "function"
    },
    {
      "inputs": [
        {
          "internalType": "address",
          "name": "spender",
          "type": "address"
        },
        {
          "internalType": "uint256",
          "name": "addedValue",
          "type": "uint256"
        }
      ],
      "name": "increaseAllowance",
      "outputs": [
        {
          "internalType": "bool",
          "name": "",
          "type": "bool"
        }
      ],
      "stateMutability": "nonpayable",
      "type": "function"
    },
    {
      "inputs": [
        {
          "internalType": "address",
          "name": "_claimsManager",
          "type": "address"
        },
        {
          "components": [
            {
              "internalType": "string",
              "name": "name",
              "type": "string"
            },
            {
              "internalType": "string",
              "name": "symbol",
              "type": "string"
            },
            {
              "internalType": "contract IRewardController[]",
              "name": "rewardControllers",
              "type": "address[]"
            },
            {
              "internalType": "contract IERC20",
              "name": "asset",
              "type": "address"
            },
            {
              "internalType": "address",
              "name": "owner",
              "type": "address"
            },
            {
              "internalType": "bool",
              "name": "isPaused",
              "type": "bool"
            },
            {
              "internalType": "string",
              "name": "descriptionHash",
              "type": "string"
            }
          ],
          "internalType": "struct IHATVault.VaultInitParams",
          "name": "_params",
          "type": "tuple"
        }
      ],
      "name": "initialize",
      "outputs": [],
      "stateMutability": "nonpayable",
      "type": "function"
    },
    {
      "inputs": [
        {
          "internalType": "uint256",
          "name": "_amount",
          "type": "uint256"
        }
      ],
      "name": "makePayout",
      "outputs": [],
      "stateMutability": "nonpayable",
      "type": "function"
    },
    {
      "inputs": [
        {
          "internalType": "address",
          "name": "",
          "type": "address"
        }
      ],
      "name": "maxDeposit",
      "outputs": [
        {
          "internalType": "uint256",
          "name": "",
          "type": "uint256"
        }
      ],
      "stateMutability": "view",
      "type": "function"
    },
    {
      "inputs": [
        {
          "internalType": "address",
          "name": "",
          "type": "address"
        }
      ],
      "name": "maxMint",
      "outputs": [
        {
          "internalType": "uint256",
          "name": "",
          "type": "uint256"
        }
      ],
      "stateMutability": "view",
      "type": "function"
    },
    {
      "inputs": [
        {
          "internalType": "address",
          "name": "owner",
          "type": "address"
        }
      ],
      "name": "maxRedeem",
      "outputs": [
        {
          "internalType": "uint256",
          "name": "",
          "type": "uint256"
        }
      ],
      "stateMutability": "view",
      "type": "function"
    },
    {
      "inputs": [
        {
          "internalType": "address",
          "name": "owner",
          "type": "address"
        }
      ],
      "name": "maxWithdraw",
      "outputs": [
        {
          "internalType": "uint256",
          "name": "",
          "type": "uint256"
        }
      ],
      "stateMutability": "view",
      "type": "function"
    },
    {
      "inputs": [
        {
          "internalType": "uint256",
          "name": "shares",
          "type": "uint256"
        },
        {
          "internalType": "address",
          "name": "receiver",
          "type": "address"
        },
        {
          "internalType": "uint256",
          "name": "maxAssets",
          "type": "uint256"
        }
      ],
      "name": "mint",
      "outputs": [
        {
          "internalType": "uint256",
          "name": "",
          "type": "uint256"
        }
      ],
      "stateMutability": "nonpayable",
      "type": "function"
    },
    {
      "inputs": [
        {
          "internalType": "uint256",
          "name": "shares",
          "type": "uint256"
        },
        {
          "internalType": "address",
          "name": "receiver",
          "type": "address"
        }
      ],
      "name": "mint",
      "outputs": [
        {
          "internalType": "uint256",
          "name": "",
          "type": "uint256"
        }
      ],
      "stateMutability": "nonpayable",
      "type": "function"
    },
    {
      "inputs": [],
      "name": "name",
      "outputs": [
        {
          "internalType": "string",
          "name": "",
          "type": "string"
        }
      ],
      "stateMutability": "view",
      "type": "function"
    },
    {
      "inputs": [],
      "name": "owner",
      "outputs": [
        {
          "internalType": "address",
          "name": "",
          "type": "address"
        }
      ],
      "stateMutability": "view",
      "type": "function"
    },
    {
      "inputs": [
        {
          "internalType": "uint256",
          "name": "assets",
          "type": "uint256"
        }
      ],
      "name": "previewDeposit",
      "outputs": [
        {
          "internalType": "uint256",
          "name": "",
          "type": "uint256"
        }
      ],
      "stateMutability": "view",
      "type": "function"
    },
    {
      "inputs": [
        {
          "internalType": "uint256",
          "name": "shares",
          "type": "uint256"
        }
      ],
      "name": "previewMint",
      "outputs": [
        {
          "internalType": "uint256",
          "name": "",
          "type": "uint256"
        }
      ],
      "stateMutability": "view",
      "type": "function"
    },
    {
      "inputs": [
        {
          "internalType": "uint256",
          "name": "shares",
          "type": "uint256"
        }
      ],
      "name": "previewRedeem",
      "outputs": [
        {
          "internalType": "uint256",
          "name": "assets",
          "type": "uint256"
        }
      ],
      "stateMutability": "view",
      "type": "function"
    },
    {
      "inputs": [
        {
          "internalType": "uint256",
          "name": "shares",
          "type": "uint256"
        }
      ],
      "name": "previewRedeemAndFee",
      "outputs": [
        {
          "internalType": "uint256",
          "name": "assets",
          "type": "uint256"
        },
        {
          "internalType": "uint256",
          "name": "fee",
          "type": "uint256"
        }
      ],
      "stateMutability": "view",
      "type": "function"
    },
    {
      "inputs": [
        {
          "internalType": "uint256",
          "name": "assets",
          "type": "uint256"
        }
      ],
      "name": "previewWithdraw",
      "outputs": [
        {
          "internalType": "uint256",
          "name": "shares",
          "type": "uint256"
        }
      ],
      "stateMutability": "view",
      "type": "function"
    },
    {
      "inputs": [
        {
          "internalType": "uint256",
          "name": "assets",
          "type": "uint256"
        }
      ],
      "name": "previewWithdrawAndFee",
      "outputs": [
        {
          "internalType": "uint256",
          "name": "shares",
          "type": "uint256"
        },
        {
          "internalType": "uint256",
          "name": "fee",
          "type": "uint256"
        }
      ],
      "stateMutability": "view",
      "type": "function"
    },
    {
      "inputs": [
        {
          "internalType": "uint256",
          "name": "shares",
          "type": "uint256"
        },
        {
          "internalType": "address",
          "name": "receiver",
          "type": "address"
        },
        {
          "internalType": "address",
          "name": "owner",
          "type": "address"
        },
        {
          "internalType": "uint256",
          "name": "minAssets",
          "type": "uint256"
        }
      ],
      "name": "redeem",
      "outputs": [
        {
          "internalType": "uint256",
          "name": "",
          "type": "uint256"
        }
      ],
      "stateMutability": "nonpayable",
      "type": "function"
    },
    {
      "inputs": [
        {
          "internalType": "uint256",
          "name": "shares",
          "type": "uint256"
        },
        {
          "internalType": "address",
          "name": "receiver",
          "type": "address"
        },
        {
          "internalType": "address",
          "name": "owner",
          "type": "address"
        }
      ],
      "name": "redeem",
      "outputs": [
        {
          "internalType": "uint256",
          "name": "",
          "type": "uint256"
        }
      ],
      "stateMutability": "nonpayable",
      "type": "function"
    },
    {
      "inputs": [
        {
          "internalType": "uint256",
          "name": "shares",
          "type": "uint256"
        },
        {
          "internalType": "address",
          "name": "receiver",
          "type": "address"
        },
        {
          "internalType": "address",
          "name": "owner",
          "type": "address"
        },
        {
          "internalType": "uint256",
          "name": "minAssets",
          "type": "uint256"
        }
      ],
      "name": "redeemAndClaim",
      "outputs": [
        {
          "internalType": "uint256",
          "name": "assets",
          "type": "uint256"
        }
      ],
      "stateMutability": "nonpayable",
      "type": "function"
    },
    {
      "inputs": [
        {
          "internalType": "uint256",
          "name": "shares",
          "type": "uint256"
        },
        {
          "internalType": "address",
          "name": "receiver",
          "type": "address"
        },
        {
          "internalType": "address",
          "name": "owner",
          "type": "address"
        }
      ],
      "name": "redeemAndClaim",
      "outputs": [
        {
          "internalType": "uint256",
          "name": "assets",
          "type": "uint256"
        }
      ],
      "stateMutability": "nonpayable",
      "type": "function"
    },
    {
      "inputs": [],
      "name": "registry",
      "outputs": [
        {
          "internalType": "contract IHATVaultsRegistry",
          "name": "",
          "type": "address"
        }
      ],
      "stateMutability": "view",
      "type": "function"
    },
    {
      "inputs": [],
      "name": "renounceOwnership",
      "outputs": [],
      "stateMutability": "nonpayable",
      "type": "function"
    },
    {
      "inputs": [
        {
          "internalType": "uint256",
          "name": "",
          "type": "uint256"
        }
      ],
      "name": "rewardControllers",
      "outputs": [
        {
          "internalType": "contract IRewardController",
          "name": "",
          "type": "address"
        }
      ],
      "stateMutability": "view",
      "type": "function"
    },
    {
      "inputs": [
        {
          "internalType": "bool",
          "name": "_depositPause",
          "type": "bool"
        }
      ],
      "name": "setDepositPause",
      "outputs": [],
      "stateMutability": "nonpayable",
      "type": "function"
    },
    {
      "inputs": [
        {
          "internalType": "string",
          "name": "_descriptionHash",
          "type": "string"
        }
      ],
      "name": "setVaultDescription",
      "outputs": [],
      "stateMutability": "nonpayable",
      "type": "function"
    },
    {
      "inputs": [
        {
          "internalType": "bool",
          "name": "_withdrawPaused",
          "type": "bool"
        }
      ],
      "name": "setWithdrawPaused",
      "outputs": [],
      "stateMutability": "nonpayable",
      "type": "function"
    },
    {
      "inputs": [
        {
          "internalType": "uint256",
          "name": "_fee",
          "type": "uint256"
        }
      ],
      "name": "setWithdrawalFee",
      "outputs": [],
      "stateMutability": "nonpayable",
      "type": "function"
    },
    {
      "inputs": [],
      "name": "startVault",
      "outputs": [],
      "stateMutability": "nonpayable",
      "type": "function"
    },
    {
      "inputs": [],
      "name": "symbol",
      "outputs": [
        {
          "internalType": "string",
          "name": "",
          "type": "string"
        }
      ],
      "stateMutability": "view",
      "type": "function"
    },
    {
      "inputs": [],
      "name": "totalAssets",
      "outputs": [
        {
          "internalType": "uint256",
          "name": "",
          "type": "uint256"
        }
      ],
      "stateMutability": "view",
      "type": "function"
    },
    {
      "inputs": [],
      "name": "totalSupply",
      "outputs": [
        {
          "internalType": "uint256",
          "name": "",
          "type": "uint256"
        }
      ],
      "stateMutability": "view",
      "type": "function"
    },
    {
      "inputs": [
        {
          "internalType": "address",
          "name": "to",
          "type": "address"
        },
        {
          "internalType": "uint256",
          "name": "amount",
          "type": "uint256"
        }
      ],
      "name": "transfer",
      "outputs": [
        {
          "internalType": "bool",
          "name": "",
          "type": "bool"
        }
      ],
      "stateMutability": "nonpayable",
      "type": "function"
    },
    {
      "inputs": [
        {
          "internalType": "address",
          "name": "from",
          "type": "address"
        },
        {
          "internalType": "address",
          "name": "to",
          "type": "address"
        },
        {
          "internalType": "uint256",
          "name": "amount",
          "type": "uint256"
        }
      ],
      "name": "transferFrom",
      "outputs": [
        {
          "internalType": "bool",
          "name": "",
          "type": "bool"
        }
      ],
      "stateMutability": "nonpayable",
      "type": "function"
    },
    {
      "inputs": [
        {
          "internalType": "address",
          "name": "newOwner",
          "type": "address"
        }
      ],
      "name": "transferOwnership",
      "outputs": [],
      "stateMutability": "nonpayable",
      "type": "function"
    },
    {
      "inputs": [],
      "name": "vaultStarted",
      "outputs": [
        {
          "internalType": "bool",
          "name": "",
          "type": "bool"
        }
      ],
      "stateMutability": "view",
      "type": "function"
    },
    {
      "inputs": [
        {
          "internalType": "uint256",
          "name": "assets",
          "type": "uint256"
        },
        {
          "internalType": "address",
          "name": "receiver",
          "type": "address"
        },
        {
          "internalType": "address",
          "name": "owner",
          "type": "address"
        },
        {
          "internalType": "uint256",
          "name": "maxShares",
          "type": "uint256"
        }
      ],
      "name": "withdraw",
      "outputs": [
        {
          "internalType": "uint256",
          "name": "",
          "type": "uint256"
        }
      ],
      "stateMutability": "nonpayable",
      "type": "function"
    },
    {
      "inputs": [
        {
          "internalType": "uint256",
          "name": "assets",
          "type": "uint256"
        },
        {
          "internalType": "address",
          "name": "receiver",
          "type": "address"
        },
        {
          "internalType": "address",
          "name": "owner",
          "type": "address"
        }
      ],
      "name": "withdraw",
      "outputs": [
        {
          "internalType": "uint256",
          "name": "",
          "type": "uint256"
        }
      ],
      "stateMutability": "nonpayable",
      "type": "function"
    },
    {
      "inputs": [
        {
          "internalType": "uint256",
          "name": "assets",
          "type": "uint256"
        },
        {
          "internalType": "address",
          "name": "receiver",
          "type": "address"
        },
        {
          "internalType": "address",
          "name": "owner",
          "type": "address"
        },
        {
          "internalType": "uint256",
          "name": "maxShares",
          "type": "uint256"
        }
      ],
      "name": "withdrawAndClaim",
      "outputs": [
        {
          "internalType": "uint256",
          "name": "shares",
          "type": "uint256"
        }
      ],
      "stateMutability": "nonpayable",
      "type": "function"
    },
    {
      "inputs": [
        {
          "internalType": "uint256",
          "name": "assets",
          "type": "uint256"
        },
        {
          "internalType": "address",
          "name": "receiver",
          "type": "address"
        },
        {
          "internalType": "address",
          "name": "owner",
          "type": "address"
        }
      ],
      "name": "withdrawAndClaim",
      "outputs": [
        {
          "internalType": "uint256",
          "name": "shares",
          "type": "uint256"
        }
      ],
      "stateMutability": "nonpayable",
      "type": "function"
    },
    {
      "inputs": [
        {
          "internalType": "address",
          "name": "",
          "type": "address"
        }
      ],
      "name": "withdrawEnableStartTime",
      "outputs": [
        {
          "internalType": "uint256",
          "name": "",
          "type": "uint256"
        }
      ],
      "stateMutability": "view",
      "type": "function"
    },
    {
      "inputs": [],
      "name": "withdrawPaused",
      "outputs": [
        {
          "internalType": "bool",
          "name": "",
          "type": "bool"
        }
      ],
      "stateMutability": "view",
      "type": "function"
    },
    {
      "inputs": [],
      "name": "withdrawRequest",
      "outputs": [],
      "stateMutability": "nonpayable",
      "type": "function"
    },
    {
      "inputs": [],
      "name": "withdrawalFee",
      "outputs": [
        {
          "internalType": "uint256",
          "name": "",
          "type": "uint256"
        }
      ],
      "stateMutability": "view",
      "type": "function"
    }
  ],
  "transactionHash": "0xcd10535764975dd9c094f3bc4f4110e6d1af276e1e10d22b0e69685b1d68308d",
  "args": [],
  "numDeployments": 2,
  "solcInputHash": "e2dd19fbd28890679930fe6b1d01ee82",
  "bytecode": "0x60808060405234610016576137bf908161001c8239f35b600080fdfe60806040526004361015610013575b600080fd5b60003560e01c806301e1d1141461190b57806306fdde031461186557806307a2d13a14611828578063095ea7b3146118025780630a28a477146117e45780630ecdd7e3146111bb57806318160ddd1461119d5780631eb08ba91461117457806323b872dd1461113c5780632ec6f2681461111d5780632f3ffb9f146110f6578063313ce567146110d257806337d151391461105d578063380e687a14610f9357806338d52e0f14610f6a5780633950935114610f19578063402d267d146106485780634872363314610edf5780634cdad50614610eb85780635d1c236d14610e5c5780636ba2b14814610df85780636e22558d14610dd15780636e553f6514610dab5780636ed93dd014610d8e5780636ff1c9bc14610d3657806370a0823114610cfc578063715018a614610c9a5780637778114514610c225780637901808b14610c025780637b10399914610bd9578063836a104014610b9e57806386d192e514610b155780638bc7e8c414610af75780638da5cb5b14610ace57806394bf804d14610aa857806395827fdd14610a8957806395d89b41146109c15780639f40a7b3146109a5578063a318c1a414610989578063a417e00c146108a9578063a457c2d714610802578063a9059cbb146107d1578063ac1e502514610701578063b3d7f6b9146106bf578063b460af94146106a6578063ba0876521461068d578063bc157ac114610651578063c63d75b614610648578063c6e6f592146103d6578063c9e555291461062a578063ce96cb7714610607578063cee73a76146105e3578063d0855293146105bd578063d905777e14610592578063da80764a14610537578063db3835bc1461051a578063dd62ed3e146104c9578063e448504114610418578063e5b5019a146103fb578063eb6ed330146103df578063ef8b30f7146103d6578063f2fde38b14610347578063f4d0fb991461031d5763ffa1ad74146102dd57600080fd5b3461000e57600036600319011261000e576103196040516102fd81611aee565b60038152620332e360ec1b602082015260405191829182611926565b0390f35b3461000e57602036600319011261000e57604061033b60043561319c565b82519182526020820152f35b3461000e57602036600319011261000e5761036061196f565b610368611b45565b6001600160a01b038116156103825761038090611b9d565b005b60405162461bcd60e51b815260206004820152602660248201527f4f776e61626c653a206e6577206f776e657220697320746865207a65726f206160448201526564647265737360d01b6064820152608490fd5b5061000e611a58565b3461000e57600036600319011261000e57602060405160c88152f35b3461000e57600036600319011261000e5760206040516000198152f35b3461000e57602036600319011261000e576004356001600160a01b03808216820361000e5780602060049260fc541660405193848092638da5cb5b60e01b82525afa9182156104bd5760009261048d575b503391160361047b576103809061366c565b60405163d61d1ac760e01b8152600490fd5b6104af91925060203d81116104b6575b6104a78183611b24565b81019061299c565b9083610469565b503d61049d565b6040513d6000823e3d90fd5b3461000e57604036600319011261000e576104e261196f565b6104ea611985565b9060018060a01b038091166000526034602052604060002091166000526020526020604060002054604051908152f35b3461000e57600036600319011261000e5760206040516103e88152f35b3461000e57602036600319011261000e5760043560fe5481101561000e5760fe6000527f54075df80ec1ae6ac9100e1fd0ebf3246c17f5c933137af392011f4c5f61513a01546040516001600160a01b039091168152602090f35b3461000e57602036600319011261000e5760206105b56105b061196f565b613103565b604051908152f35b3461000e5760206105dd6105b56105d3366119f9565b9391908491612a11565b916131c9565b3461000e57600036600319011261000e57602060ff61010054166040519015158152f35b3461000e57602036600319011261000e5760206105b561062561196f565b6130b3565b3461000e57602036600319011261000e57604061033b600435613143565b5061000e6119d4565b3461000e5761066961066236611a2e565b9291612e1d565b90811061067b57602090604051908152f35b604051633a81aa0160e21b8152600490fd5b3461000e5760206105b56106a0366119f9565b91612c59565b3461000e5760206105b56106b9366119f9565b91612a11565b3461000e57602036600319011261000e57602060043560355480156000146106ea5750604051908152f35b6106fc916106f6612212565b906124e1565b6105b5565b3461000e57602036600319011261000e5760fc546040516321f3cfbd60e21b815260048035926001600160a01b0391602091849190829085165afa9182156104bd576000926107b1575b503391160361079f5760c8811161078d576020817f3aa4413905e8f015896ec5880bdde24088ccb19b578f9fcf6800354d5320d4af9260ff55604051908152a1005b6040516369b91bc760e01b8152600490fd5b604051637155bb1960e01b8152600490fd5b6107ca91925060203d81116104b6576104a78183611b24565b908361074b565b3461000e57604036600319011261000e576107f76107ed61196f565b6024359033611c4a565b602060405160018152f35b3461000e57604036600319011261000e5761081b61196f565b60243590336000526034602052604060002060018060a01b03821660005260205260406000205491808310610856576107f792039033612078565b60405162461bcd60e51b815260206004820152602560248201527f45524332303a2064656372656173656420616c6c6f77616e63652062656c6f77604482015264207a65726f60d81b6064820152608490fd5b3461000e57602036600319011261000e576004356001600160401b0380821161000e573660238301121561000e57816004013590811161000e57366024828401011161000e5760fc54604051638da5cb5b60e01b8152906001600160a01b03906020908390600490829085165afa9182156104bd57600092610969575b503391160361047b577ff4c65ddb6aed78463fc27d79ccd85368bb0ecd80bd763b891a8b64ef41ac750b916109646024926040519384930183612681565b0390a1005b61098291925060203d81116104b6576104a78183611b24565b9084610926565b3461000e5760206105b561099c3661199b565b9291909161304b565b3461000e5760206105b56109b83661199b565b92919091613072565b3461000e57600036600319011261000e5760405160006037546109e381611bed565b80845290600190818116908115610a625750600114610a19575b61031984610a0d81860382611b24565b60405191829182611926565b60376000908152925060008051602061376a8339815191525b828410610a4a575050508101602001610a0d826109fd565b80546020858701810191909152909301928101610a32565b60ff191660208087019190915292151560051b85019092019250610a0d91508390506109fd565b3461000e5760206105dd6105b5610a9f3661199b565b9181959361304b565b3461000e57604036600319011261000e5760206105b5610ac6611985565b60043561227e565b3461000e57600036600319011261000e576097546040516001600160a01b039091168152602090f35b3461000e57600036600319011261000e57602060ff54604051908152f35b3461000e57602036600319011261000e5760043580151580910361000e57610b3b611b45565b6101009081549060ff8260201c16610b8c577f0653e29fcca730c396a6099e174293ae6bd435437a5de4f8c461f7b5dc9e58f29260209261ff008360081b169061ff001916179055604051908152a1005b604051636672a1bf60e01b8152600490fd5b3461000e57610bb6610baf36611a2e565b929161227e565b908111610bc857602090604051908152f35b6040516236770d60e11b8152600490fd5b3461000e57600036600319011261000e5760fc546040516001600160a01b039091168152602090f35b3461000e5760206105dd6105b5610c18366119f9565b9391908491612c59565b3461000e57602036600319011261000e5760fb54600435906001600160a01b039081163303610c885781610c7f7fc3a2650cfd093d0ba08de42894980c682f794c015f26d04e9cda92d011312f25936020933390606554166127d8565b604051908152a1005b60405163079ce54760e11b8152600490fd5b3461000e57600036600319011261000e57610cb3611b45565b609780546001600160a01b0319811690915560405160009182906001600160a01b03167f8be0079c531659141344cd1fd0a4f28419497f9722a3daafe3b4186f6b6457e08284a3f35b3461000e57602036600319011261000e576001600160a01b03610d1d61196f565b1660005260336020526020604060002054604051908152f35b3461000e57602036600319011261000e576020610d5161196f565b63ff0000001990610d806101009163010000008484541617835533600052603385523390604060002054612c59565b918154169055604051908152f35b3461000e57600036600319011261000e5760206040516127108152f35b3461000e57604036600319011261000e5760206105b5610dc9611985565b600435612e1d565b3461000e57600036600319011261000e57602060ff6101005460081c166040519015158152f35b3461000e57600036600319011261000e5760fb546001600160a01b03163303610c885761010064010000010064ff0000ff001982541617905560006040517f04940f74eb6244e64526bffe836d78b42b1f36a45f75f3ed5b8f2716a4651cff8282a1f35b3461000e57600036600319011261000e5760fb546001600160a01b03163303610c8857610100600160ff1982541617905560006040517f59760ad83ef06d1a0bc439d8b39a42a870493f0cd3bc3d53bbd3e7c6991f494f8282a1f35b3461000e57602036600319011261000e576020610ed660043561319c565b50604051908152f35b3461000e57602036600319011261000e576001600160a01b03610f0061196f565b1660005260fd6020526020604060002054604051908152f35b3461000e57604036600319011261000e576107f7610f3561196f565b336000526034602052604060002060018060a01b038216600052602052610f63602435604060002054611c27565b9033612078565b3461000e57600036600319011261000e576065546040516001600160a01b039091168152602090f35b3461000e57600036600319011261000e57610fac6129bb565b60fc54604051631dea4ae760e11b81526020918290829060049082906001600160a01b03165afa9081156104bd5760009161102e575b5061100e7f17040713250ec5f668a1c39e7939900e78558350dbaff0ebef34268dfa8ea4ac9142611c27565b913360005260fd8152826040600020556040519283523392a2600160c955005b90508181813d8311611056575b6110458183611b24565b8101031261000e575161100e610fe2565b503d61103b565b3461000e57602036600319011261000e5760043580151580910361000e5760fb546001600160a01b03163303610c885760207f0c9d958d6d9b28dd2ce2cf1657da7198a26be282f12b5aa48c1aa512b13bb44391610100805462ff00008360101b169062ff00001916179055604051908152a1005b3461000e57600036600319011261000e57602060ff60655460a01c16604051908152f35b3461000e57600036600319011261000e57602060ff6101005460101c166040519015158152f35b3461000e5760206105dd6105b56111333661199b565b91819593613072565b3461000e57606036600319011261000e576107f761115861196f565b611160611985565b6044359161116f83338361217a565b611c4a565b3461000e57600036600319011261000e5760fb546040516001600160a01b039091168152602090f35b3461000e57600036600319011261000e576020603554604051908152f35b3461000e5760031960403682011261000e576111d561196f565b906001600160401b036024351161000e5760e0906024353603011261000e5760005460ff8160081c16158080916117d7575b80156117c0575b156117645760ff198216600117600055602b9260239282611752575b5061127461123d6004602435018061261a565b9590866040519788926a02430ba39902b30bab63a160ad1b602085015284840137810160008382015203600b810187520185611b24565b6112b961128a602480350160243560040161261a565b9490856040519687926212105560ea1b6020850152848401378101600083820152036003810186520184611b24565b6112d360ff60005460081c166112ce816126a9565b6126a9565b83516001600160401b03811161164c576112ee603654611bed565b601f81116116f1575b50602094601f821160011461166d57948192939495600092611662575b50508160011b916000199060031b1c1916176036555b82516001600160401b03811161164c57611345603754611bed565b601f81116115df575b506020601f821160011461156d5781929394600092611562575b50508160011b916000199060031b1c1916176037555b6001600160a01b0391602435606401358381169081900361000e576113f69060ff60005460081c16906113b0826126a9565b6113b9826126a9565b6113c281612748565b901561155a575b6065549060ff60a01b9060a01b16906affffffffffffffffffffff60a81b1617176065556112ce816126a9565b600160c95560846024350135838116810361000e57916114168493611b9d565b6024356044019060005b61142f8360243560040161264c565b9050811015611485576114478360243560040161264c565b82101561146f578160051b013590858216820361000e5761146960019261366c565b01611420565b634e487b7160e01b600052603260045260246000fd5b5082846bffffffffffffffffffffffff60a01b92168260fb54161760fb5560a460243501359182151580930361000e5761ff009261010090815490851995869160081b169116179055339060fc54161760fc557ff4c65ddb6aed78463fc27d79ccd85368bb0ecd80bd763b891a8b64ef41ac750b61150d60c46024350160243560040161261a565b9061151d60405192839283612681565b0390a161152657005b600054166000557f7f26b83ff96e1f2b6a682f133852f6798a09c465da95921460cefb3847402498602060405160018152a1005b5060126113c9565b015190508480611368565b601f19821690603760005260008051602061376a8339815191529160005b8181106115c7575095836001959697106115ae575b505050811b0160375561137e565b015160001960f88460031b161c191690558480806115a0565b9192602060018192868b01518155019401920161158b565b6037600052601f820160051c60008051602061376a833981519152019060208310611636575b601f0160051c60008051602061376a83398151915201905b81811061162a575061134e565b6000815560010161161d565b60008051602061376a8339815191529150611605565b634e487b7160e01b600052604160045260246000fd5b015190508580611314565b601f1982169560366000527f4a11f94e20a93c79f6ec743a1954ec4fc2c08429ae2122118bf234b2185c81b89160005b8881106116d9575083600195969798106116c0575b505050811b0160365561132a565b015160001960f88460031b161c191690558580806116b2565b9192602060018192868501518155019401920161169d565b60366000527f4a11f94e20a93c79f6ec743a1954ec4fc2c08429ae2122118bf234b2185c81b8601f830160051c81016020841061174b575b601f830160051c8201811061173f5750506112f7565b60008155600101611729565b5080611729565b61ffff1916610101176000558461122a565b60405162461bcd60e51b815260206004820152602e60248201527f496e697469616c697a61626c653a20636f6e747261637420697320616c72656160448201526d191e481a5b9a5d1a585b1a5e995960921b6064820152608490fd5b50303b15801561120e5750600160ff83161461120e565b50600160ff831610611207565b3461000e57602036600319011261000e576020610ed6600435613143565b3461000e57604036600319011261000e576107f761181e61196f565b6024359033612078565b3461000e57602036600319011261000e57602060043560355480156000146118535750604051908152f35b6106fc9161185f612212565b90612596565b3461000e57600036600319011261000e57604051600060365461188781611bed565b80845290600190818116908115610a6257506001146118b05761031984610a0d81860382611b24565b6036600090815292507f4a11f94e20a93c79f6ec743a1954ec4fc2c08429ae2122118bf234b2185c81b85b8284106118f3575050508101602001610a0d826109fd565b805460208587018101919091529093019281016118db565b3461000e57600036600319011261000e5760206105b5612212565b6020808252825181830181905290939260005b82811061195b57505060409293506000838284010152601f8019910116010190565b818101860151848201604001528501611939565b600435906001600160a01b038216820361000e57565b602435906001600160a01b038216820361000e57565b608090600319011261000e57600435906001600160a01b0390602435828116810361000e5791604435908116810361000e579060643590565b503461000e57602036600319011261000e576119ee61196f565b5060206105b5613099565b606090600319011261000e57600435906001600160a01b0390602435828116810361000e5791604435908116810361000e5790565b606090600319011261000e57600435906024356001600160a01b038116810361000e579060443590565b503461000e57602036600319011261000e57602060043560355481158015611a9c575b15611a895750604051908152f35b906106fc91611a96612212565b91612596565b508015611a7b565b60fe5481101561146f5760fe6000527f54075df80ec1ae6ac9100e1fd0ebf3246c17f5c933137af392011f4c5f61513a0190600090565b6001600160401b03811161164c57604052565b604081019081106001600160401b0382111761164c57604052565b60a081019081106001600160401b0382111761164c57604052565b90601f801991011681019081106001600160401b0382111761164c57604052565b6097546001600160a01b03163303611b5957565b606460405162461bcd60e51b815260206004820152602060248201527f4f776e61626c653a2063616c6c6572206973206e6f7420746865206f776e65726044820152fd5b6097549060018060a01b0380911691826bffffffffffffffffffffffff60a01b821617609755167f8be0079c531659141344cd1fd0a4f28419497f9722a3daafe3b4186f6b6457e06000604051a3565b90600182811c92168015611c1d575b6020831014611c0757565b634e487b7160e01b600052602260045260246000fd5b91607f1691611bfc565b91908201809211611c3457565b634e487b7160e01b600052601160045260246000fd5b6001600160a01b03939092909184841691908215612025578516948515611fd4578115611fc257858314611fb0578060fc541693604093845195630a43443160e21b875260209060049782818a81855afa908115611f6857600091611f83575b50611f73578960005260fd8252878288600020549283611eea575b5050505060005b60fe54811015611d455784611ce082611aa4565b90549060031b1c1690813b1561000e5787516344d18cd960e01b81528b8a820152876024820152600081606481836001978860448401525af18015611d3a57611d2b575b5001611ccc565b611d3490611adb565b38611d24565b89513d6000823e3d90fd5b509290939197949596611d5790613103565b8211611eda578360005260fd835260008681205560ff6101005460181c1615611e46575b5082600052603382528460002054818110611df457908060008051602061374a8339815191529392856000526033845203866000205584600052856000208181540190558551908152a36035548015159081611de8575b50611ddb575050565b516302dab21760e21b8152fd5b6103e891501038611dd2565b855162461bcd60e51b8152808801849052602660248201527f45524332303a207472616e7366657220616d6f756e7420657863656564732062604482015265616c616e636560d01b6064820152608490fd5b9195936000979195975b60fe54811015611ecd5783611e6482611aa4565b90549060031b1c1690813b1561000e576000809260648c51809581936344d18cd960e01b83528b8d8401528d60248401528160448401525af1918215611ec257600192611eb3575b5001611e50565b611ebc90611adb565b38611eac565b8a513d6000823e3d90fd5b5093959150959338611d7b565b855163232b212d60e11b81528790fd5b895163f4bde09760e01b815292839182905afa908115611f6857600091611f36575b50611f1691611c27565b421115611f265738878282611cc5565b855163144229c360e01b81528790fd5b908382813d8311611f61575b611f4c8183611b24565b81010312611f5e575051611f16611f0c565b80fd5b503d611f42565b88513d6000823e3d90fd5b8651635ed0818960e01b81528890fd5b611fa39150833d8511611fa9575b611f9b8183611b24565b810190612890565b38611caa565b503d611f91565b604051636d6c4ee560e11b8152600490fd5b60405163d11b25af60e01b8152600490fd5b60405162461bcd60e51b815260206004820152602360248201527f45524332303a207472616e7366657220746f20746865207a65726f206164647260448201526265737360e81b6064820152608490fd5b60405162461bcd60e51b815260206004820152602560248201527f45524332303a207472616e736665722066726f6d20746865207a65726f206164604482015264647265737360d81b6064820152608490fd5b6001600160a01b0390811691821561212957169182156120d95760207f8c5be1e5ebec7d5bd14f71427d1e84f3dd0314c0f7b2291e5b200ac8c7c3b925918360005260348252604060002085600052825280604060002055604051908152a3565b60405162461bcd60e51b815260206004820152602260248201527f45524332303a20617070726f766520746f20746865207a65726f206164647265604482015261737360f01b6064820152608490fd5b60405162461bcd60e51b8152602060048201526024808201527f45524332303a20617070726f76652066726f6d20746865207a65726f206164646044820152637265737360e01b6064820152608490fd5b9060018060a01b03808316600052603460205260406000209082166000526020526040600020549260001984036121b2575b50505050565b8084106121cd576121c4930391612078565b388080806121ac565b60405162461bcd60e51b815260206004820152601d60248201527f45524332303a20696e73756666696369656e7420616c6c6f77616e63650000006044820152606490fd5b6065546040516370a0823160e01b815230600482015290602090829060249082906001600160a01b03165afa9081156104bd57600091612250575090565b906020823d8211612276575b8161226960209383611b24565b81010312611f5e57505190565b3d915061225c565b90612287613099565b821161249c57603554806124845750815b6122a06129bb565b60ff610100541615612472576001600160a01b0382811692903384148061245b575b612446575b606554169160409182519361232660209586926000808584016323b872dd60e01b81523360248601523060448601528c60648601526064855261230985611b09565b612311612857565b94519082855af1612320612709565b91612907565b80519081612426575b50505084156123e257816123429161325b565b61234e81603554611c27565b60355583600052603383528160002081815401905583600060008051602061374a833981519152858551858152a360355480151590816123d6575b506123c557907fdcbc1c05240f31ff3ad067ef1ee35ce4997762752e3a095284754544f4c709d7918151938685528401523392a3600160c95590565b81516302dab21760e21b8152600490fd5b6103e891501038612389565b825162461bcd60e51b815260048101859052601f60248201527f45524332303a206d696e7420746f20746865207a65726f2061646472657373006044820152606490fd5b8261243e93612439938301019101612890565b6128a8565b83388061232f565b8360005260fd602052600060408120556122c7565b508360005260fd60205260406000205415156122c2565b604051632fda1ca360e01b8152600490fd5b61249690612490612212565b846124e1565b91612298565b60405162461bcd60e51b815260206004820152601b60248201527f455243343632363a206d696e74206d6f7265207468616e206d617800000000006044820152606490fd5b91906124ee828285612596565b92821561250b57096124fd5790565b60018101809111611c345790565b634e487b7160e01b600052601260045260246000fd5b90919060001983820983820291828083109203948286039260009614612589576127109183831115612585577fbc01a36e2eb1c432ca57a786c226809d495182a9930be0ded288ce703afb7e919596500990828211900360fc1b910360041c170290565b8680fd5b5050506127109192500490565b91600019828409928281029283808610950394808603951461260c578483111561000e578291096001821901821680920460028082600302188083028203028083028203028083028203028083028203028083028203028092029003029360018380600003040190848311900302920304170290565b50508092501561250b570490565b903590601e198136030182121561000e57018035906001600160401b03821161000e5760200191813603831361000e57565b903590601e198136030182121561000e57018035906001600160401b03821161000e57602001918160051b3603831361000e57565b90918060409360208452816020850152848401376000828201840152601f01601f1916010190565b156126b057565b60405162461bcd60e51b815260206004820152602b60248201527f496e697469616c697a61626c653a20636f6e7472616374206973206e6f74206960448201526a6e697469616c697a696e6760a81b6064820152608490fd5b3d15612743573d906001600160401b03821161164c5760405191612737601f8201601f191660200184611b24565b82523d6000602084013e565b606090565b90604051602081019063313ce56760e01b825260048152604081018181106001600160401b0382111761164c576040525160009384928392916001600160a01b03165afa612794612709565b90806127cc575b6127a5575b508190565b6020818051810103126127c8576020015160ff81116127a0576001925060ff1690565b8280fd5b5060208151101561279b565b60405163a9059cbb60e01b602082019081526001600160a01b039384166024830152604480830195909552938152919290608083016001600160401b0381118482101761164c576128359460009283926040521692612311612857565b805180612840575050565b81602080612439936128559501019101612890565b565b6040519061286482611aee565b602082527f5361666545524332303a206c6f772d6c6576656c2063616c6c206661696c65646020830152565b9081602091031261000e5751801515810361000e5790565b156128af57565b60405162461bcd60e51b815260206004820152602a60248201527f5361666545524332303a204552433230206f7065726174696f6e20646964206e6044820152691bdd081cdd58d8d9595960b21b6064820152608490fd5b91929015612969575081511561291b575090565b3b156129245790565b60405162461bcd60e51b815260206004820152601d60248201527f416464726573733a2063616c6c20746f206e6f6e2d636f6e74726163740000006044820152606490fd5b82519091501561297c5750805190602001fd5b60405162461bcd60e51b81529081906129989060048301611926565b0390fd5b9081602091031261000e57516001600160a01b038116810361000e5790565b600260c954146129cc57600260c955565b60405162461bcd60e51b815260206004820152601f60248201527f5265656e7472616e637947756172643a207265656e7472616e742063616c6c006044820152606490fd5b919091612a1d81613143565b919093612a286129bb565b8115612c47576001600160a01b038481169490919033869003612c37575b8515612be85786612a56916133f4565b60008581526020906033825260409586822054898110612b99578990898452603385520387832055603554898082039182603555848b60008051602061374a833981519152888d51868152a314159081612b8d575b50612b7c579188918594938796606554169181612af4575b505060008051602061372a8339815191529584612adf926127d8565b865195865285015216923392a4600160c95590565b91935091939495506004848760fc54168a5192838092638da5cb5b60e01b82525afa918215612b7157958b94612b4a829795612adf958c9560008051602061372a8339815191529c9b91612b54575b50836127d8565b9250819750612ac3565b612b6b9150883d8a116104b6576104a78183611b24565b38612b43565b8951903d90823e3d90fd5b86516302dab21760e21b8152600490fd5b6103e891501038612aab565b875162461bcd60e51b815260048101859052602260248201527f45524332303a206275726e20616d6f756e7420657863656564732062616c616e604482015261636560f01b6064820152608490fd5b60405162461bcd60e51b815260206004820152602160248201527f45524332303a206275726e2066726f6d20746865207a65726f206164647265736044820152607360f81b6064820152608490fd5b612c4287338361217a565b612a46565b604051630fbf08cb60e21b8152600490fd5b919091612c658161319c565b919093612c706129bb565b8415612c47576001600160a01b038481169490919033869003612e0d575b8515612be85783612c9e916133f4565b6000928584526020936033855260409586822054838110612dbe578390898452603388520387832055603554838082039182603555848b60008051602061374a8339815191528b8d51868152a314159081612db2575b50612b7c5790889185606554169181612d3d575b505083929160008051602061372a8339815191529594612d27926127d8565b85519488865285015216923392a4600160c95590565b909192506004878760fc54168a5192838092638da5cb5b60e01b82525afa918215612b715793612d8e612d27948d948998979460008051602061372a8339815191529b9a9591612d9b5750836127d8565b9250949581939450612d08565b612b6b91508c8d3d106104b6576104a78183611b24565b6103e891501038612cf4565b875162461bcd60e51b815260048101889052602260248201527f45524332303a206275726e20616d6f756e7420657863656564732062616c616e604482015261636560f01b6064820152608490fd5b612e1884338361217a565b612c8e565b90612e26613099565b82116130065760355482158015612ffe575b15612fe55750815b612e486129bb565b60ff610100541615612472576001600160a01b03828116929033841480612fce575b612fb9575b60655416604091825191612eb060209384926000808584016323b872dd60e01b81523360248601523060448601528a60648601526064855261230985611b09565b80519081612f9e575b5050508415612f5b5785612ecc9161325b565b612ed885603554611c27565b60355583600052603381528160002085815401905583600060008051602061374a833981519152838551898152a36035548015159081612f4f575b506123c55790847fdcbc1c05240f31ff3ad067ef1ee35ce4997762752e3a095284754544f4c709d79282519485528401523392a3600160c95590565b6103e891501038612f13565b50606491519062461bcd60e51b82526004820152601f60248201527f45524332303a206d696e7420746f20746865207a65726f2061646472657373006044820152fd5b82612fb193612439938301019101612890565b813880612eb9565b8360005260fd60205260006040812055612e6f565b508360005260fd6020526040600020541515612e6a565b612ff890612ff1612212565b9084612596565b91612e40565b508015612e38565b60405162461bcd60e51b815260206004820152601e60248201527f455243343632363a206465706f736974206d6f7265207468616e206d617800006044820152606490fd5b906130569291612a11565b9081116130605790565b60405163ad5f70f360e01b8152600490fd5b9061307d9291612c59565b9081106130875790565b604051632e1a5a5360e21b8152600490fd5b6101005460081c60ff16156130ad57600090565b60001990565b60ff6101005460101c1680156130f3575b6130ed576001600160a01b03166000908152603360205260409020546130e99061319c565b5090565b50600090565b506130fd816134ee565b156130c4565b60ff6101005460101c168015613133575b6130ed576001600160a01b031660009081526033602052604090205490565b5061313d816134ee565b15613114565b60ff5461271090808203918211611c3457613169916131629184612596565b8092611c27565b60355481158015613194575b1561317e575091565b906131919161318b612212565b916124e1565b91565b508015613175565b603554806131b857505b6131b260ff5482612521565b80910391565b6131c49161185f612212565b6131a6565b6000915b60fe54831015613256576131e083611aa4565b90546001600160a01b03949160031b1c8416803b1561000e57600080916044604097885194859384926324a9e3c160e11b84523060048501528a1660248401525af1801561324b5760019394955061323c575b500191906131cd565b61324590611adb565b38613233565b85513d6000823e3d90fd5b915050565b91908015611fc2576001600160a01b03928316928315611fb0578060fc541691604091825193630a43443160e21b8552602060049581818881865afa908115613335576000916133d7575b506133c7578760005260fd81528585600020549283613349575b5050505060005b60fe5481101561334057816132db82611aa4565b90549060031b1c1690813b1561000e5784516344d18cd960e01b81528887820152846024820152600081606481836001978860448401525af1801561333557613326575b50016132c7565b61332f90611adb565b3861331f565b86513d6000823e3d90fd5b50505050509050565b829087519283809263f4bde09760e01b82525afa91821561333557600092613396575b505061337791611c27565b42111561338757388085816132c0565b50505163144229c360e01b8152fd5b81819392933d83116133c0575b6133ad8183611b24565b81010312611f5e5750516133773861336c565b503d6133a3565b8451635ed0818960e01b81528690fd5b6133ee9150823d8411611fa957611f9b8183611b24565b386132a6565b9190918215611fc2576001600160a01b03818116918215611fb05761341890613103565b84116134dc5760009382855260fd602052604091858381205560ff6101005460181c1615613449575b505050509050565b855b60fe548110156134cb57868261346083611aa4565b90549060031b1c16803b156134c757819060648751809481936344d18cd960e01b83528b60048401528960248401528160448401525af180156134bd5790600192916134ae575b500161344b565b6134b790611adb565b386134a7565b85513d8a823e3d90fd5b5080fd5b505050505090508038808080613441565b60405163232b212d60e11b8152600490fd5b60fc54604080516302ea7f2560e41b81526001600160a01b0392831693919260209290918381600481895afa90811561324b5760009161363f575b50845163eeb3388760e01b815284816004818a5afa801561333557600090613610575b613557915082611c27565b801561250b5742061015613606571660005260fd8152816000205490814210159384613585575b5050505090565b83959450819060049394519384809263f4bde09760e01b82525afa9485156135fc57506000946135c9575b5050916135bd9192611c27565b4211153880808061357e565b81813d83116135f5575b6135dd8183611b24565b810103126135f1575192506135bd386135b0565b8380fd5b503d6135d3565b513d6000823e3d90fd5b5050505050600090565b8582813d8311613638575b6136258183611b24565b81010312611f5e5750613557905161354c565b503d61361b565b908482813d8311613665575b6136558183611b24565b81010312611f5e57505138613529565b503d61364b565b60fe5460005b8181106136ea57506801000000000000000081101561164c5780600161369b920160fe55611aa4565b81546001600160a01b0360039290921b82811b8019909216929094169384901b161790556040517fcd6999167b4b18e50d7046fa427cd31c7106b4e945bcaa6f9efb4ecd3b7d122a90600090a2565b6136f381611aa4565b905460039190911b1c6001600160a01b039081169084161461371757600101613672565b6040516314ebaef760e31b8152600490fdfefbde797d201c681b91056529119e0b02407c7bb96a4a2c75c01fc9667232c8dbddf252ad1be2c89b69c2b068fc378daa952ba7f163c4a11628f55a4df523b3ef42a7b7dd785cd69714a189dffb3fd7d7174edc9ece837694ce50f7078f7c31aea26469706673582212202713a9790a181af3e78bc5c5394f63e2d80aa2bfcb88d91948f030c190cb004c64736f6c63430008100033",
  "devdoc": {
    "author": "Hats.finance",
    "kind": "dev",
    "methods": {
      "allowance(address,address)": {
        "details": "See {IERC20-allowance}."
      },
      "approve(address,uint256)": {
        "details": "See {IERC20-approve}. NOTE: If `amount` is the maximum `uint256`, the allowance is not updated on `transferFrom`. This is semantically equivalent to an infinite approval. Requirements: - `spender` cannot be the zero address."
      },
      "asset()": {
        "details": "See {IERC4626-asset}. "
      },
      "balanceOf(address)": {
        "details": "See {IERC20-balanceOf}."
      },
      "convertToAssets(uint256)": {
        "details": "See {IERC4626-convertToAssets}. "
      },
      "convertToShares(uint256)": {
        "details": "See {IERC4626-convertToShares}. "
      },
      "decimals()": {
        "details": "Decimals are read from the underlying asset in the constructor and cached. If this fails (e.g., the asset has not been created yet), the cached value is set to a default obtained by `super.decimals()` (which depends on inheritance but is most likely 18). Override this function in order to set a guaranteed hardcoded value. See {IERC20Metadata-decimals}."
      },
      "decreaseAllowance(address,uint256)": {
        "details": "Atomically decreases the allowance granted to `spender` by the caller. This is an alternative to {approve} that can be used as a mitigation for problems described in {IERC20-approve}. Emits an {Approval} event indicating the updated allowance. Requirements: - `spender` cannot be the zero address. - `spender` must have allowance for the caller of at least `subtractedValue`."
      },
      "increaseAllowance(address,uint256)": {
        "details": "Atomically increases the allowance granted to `spender` by the caller. This is an alternative to {approve} that can be used as a mitigation for problems described in {IERC20-approve}. Emits an {Approval} event indicating the updated allowance. Requirements: - `spender` cannot be the zero address."
      },
      "mint(uint256,address)": {
        "details": "See {IERC4626-mint}. As opposed to {deposit}, minting is allowed even if the vault is in a state where the price of a share is zero. In this case, the shares will be minted without requiring any assets to be deposited."
      },
      "name()": {
        "details": "Returns the name of the token."
      },
      "owner()": {
        "details": "Returns the address of the current owner."
      },
      "previewDeposit(uint256)": {
        "details": "See {IERC4626-previewDeposit}. "
      },
      "previewMint(uint256)": {
        "details": "See {IERC4626-previewMint}. "
      },
      "renounceOwnership()": {
        "details": "Leaves the contract without owner. It will not be possible to call `onlyOwner` functions anymore. Can only be called by the current owner. NOTE: Renouncing ownership will leave the contract without an owner, thereby removing any functionality that is only available to the owner."
      },
      "symbol()": {
        "details": "Returns the symbol of the token, usually a shorter version of the name."
      },
      "totalAssets()": {
        "details": "See {IERC4626-totalAssets}. "
      },
      "totalSupply()": {
        "details": "See {IERC20-totalSupply}."
      },
      "transfer(address,uint256)": {
        "details": "See {IERC20-transfer}. Requirements: - `to` cannot be the zero address. - the caller must have a balance of at least `amount`."
      },
      "transferFrom(address,address,uint256)": {
        "details": "See {IERC20-transferFrom}. Emits an {Approval} event indicating the updated allowance. This is not required by the EIP. See the note at the beginning of {ERC20}. NOTE: Does not update the allowance if the current allowance is the maximum `uint256`. Requirements: - `from` and `to` cannot be the zero address. - `from` must have a balance of at least `amount`. - the caller must have allowance for ``from``'s tokens of at least `amount`."
      },
      "transferOwnership(address)": {
        "details": "Transfers ownership of the contract to a new account (`newOwner`). Can only be called by the current owner."
      }
    },
    "stateVariables": {
      "VERSION": {
        "return": "The vault's version",
        "returns": {
          "_0": "The vault's version"
        }
      },
      "claimsManager": {
        "return": "The registry's address",
        "returns": {
          "_0": "The registry's address"
        }
      },
      "registry": {
        "return": "The registry's address",
        "returns": {
          "_0": "The registry's address"
        }
      }
    },
    "title": "A Hats.finance vault which holds the funds for a specific project's bug bounties",
    "version": 1
  },
  "userdoc": {
    "kind": "user",
    "methods": {
      "VERSION()": {
        "notice": "Returns the vault's version"
      },
      "addRewardController(address)": {
        "notice": "See {IHATVault-addRewardController}. "
      },
      "claimsManager()": {
        "notice": "Returns the vault's registry"
      },
      "deposit(uint256,address)": {
        "notice": "See {IHATVault-deposit}. "
      },
      "deposit(uint256,address,uint256)": {
        "notice": "See {IHATVault-deposit}. "
      },
      "destroyVault()": {
        "notice": "See {IHATVault-destroyVault}. "
      },
      "emergencyWithdraw(address)": {
        "notice": "See {IHATVault-emergencyWithdraw}. "
      },
      "initialize(address,(string,string,address[],address,address,bool,string))": {
        "notice": "See {IHATVault-initialize}. "
      },
      "makePayout(uint256)": {
        "notice": "See {IHATVault-approveClaim}. "
      },
      "maxDeposit(address)": {
        "notice": "See {IERC4626Upgradeable-maxDeposit}. "
      },
      "maxMint(address)": {
        "notice": "See {IERC4626Upgradeable-maxMint}. "
      },
      "maxRedeem(address)": {
        "notice": "See {IERC4626Upgradeable-maxRedeem}. "
      },
      "maxWithdraw(address)": {
        "notice": "See {IERC4626Upgradeable-maxWithdraw}. "
      },
      "mint(uint256,address,uint256)": {
        "notice": "See {IHATVault-mint}. "
      },
      "previewRedeem(uint256)": {
        "notice": "See {IERC4626Upgradeable-previewRedeem}. "
      },
      "previewRedeemAndFee(uint256)": {
        "notice": "See {IHATVault-previewRedeemAndFee}. "
      },
      "previewWithdraw(uint256)": {
        "notice": "See {IERC4626Upgradeable-previewWithdraw}. "
      },
      "previewWithdrawAndFee(uint256)": {
        "notice": "See {IHATVault-previewWithdrawAndFee}. "
      },
      "redeem(uint256,address,address)": {
        "notice": "See {IHATVault-redeem}. "
      },
      "redeem(uint256,address,address,uint256)": {
        "notice": "See {IHATVault-redeem}. "
      },
      "redeemAndClaim(uint256,address,address)": {
        "notice": "See {IHATVault-redeemAndClaim}. "
      },
      "redeemAndClaim(uint256,address,address,uint256)": {
        "notice": "See {IHATVault-redeemAndClaim}. "
      },
      "registry()": {
        "notice": "Returns the vault's registry"
      },
      "setDepositPause(bool)": {
        "notice": "See {IHATVault-setDepositPause}. "
      },
      "setVaultDescription(string)": {
        "notice": "See {IHATVault-setVaultDescription}. "
      },
      "setWithdrawPaused(bool)": {
        "notice": "See {IHATVault-setWithdrawPaused}. "
      },
      "setWithdrawalFee(uint256)": {
        "notice": "See {IHATVault-setWithdrawalFee}. "
      },
      "startVault()": {
        "notice": "See {IHATVault-destroyVault}. "
      },
      "withdraw(uint256,address,address)": {
        "notice": "See {IHATVault-withdraw}. "
      },
      "withdraw(uint256,address,address,uint256)": {
        "notice": "See {IHATVault-withdraw}. "
      },
      "withdrawAndClaim(uint256,address,address)": {
        "notice": "See {IHATVault-withdrawAndClaim}. "
      },
      "withdrawAndClaim(uint256,address,address,uint256)": {
        "notice": "See {IHATVault-withdrawAndClaim}. "
      },
      "withdrawRequest()": {
        "notice": "See {IHATVault-withdrawRequest}. "
      }
    },
    "notice": "The HATVault can be deposited into in a permissionless manner using the vaults native token. Anyone can deposit the vault's native token into the vault and  recieve shares for it. Shares represent the user's relative part in the vault, and when a bounty is paid out, users lose part of their deposits (based on percentage paid), but keep their share of the vault. Users also receive rewards for their deposits, which can be claimed at any time. To withdraw previously deposited tokens, a user must first send a withdraw request, and the withdrawal will be made available after a pending period. Withdrawals are not permitted during safety periods or while there is an  active claim for a bounty payout. This project is open-source and can be found at: https://github.com/hats-finance/hats-contracts",
    "version": 1
  },
  "storageLayout": {
    "storage": [
      {
        "astId": 1092,
        "contract": "contracts/HATVault.sol:HATVault",
        "label": "_initialized",
        "offset": 0,
        "slot": "0",
        "type": "t_uint8"
      },
      {
        "astId": 1095,
        "contract": "contracts/HATVault.sol:HATVault",
        "label": "_initializing",
        "offset": 1,
        "slot": "0",
        "type": "t_bool"
      },
      {
        "astId": 3390,
        "contract": "contracts/HATVault.sol:HATVault",
        "label": "__gap",
        "offset": 0,
        "slot": "1",
        "type": "t_array(t_uint256)50_storage"
      },
      {
        "astId": 1346,
        "contract": "contracts/HATVault.sol:HATVault",
        "label": "_balances",
        "offset": 0,
        "slot": "51",
        "type": "t_mapping(t_address,t_uint256)"
      },
      {
        "astId": 1352,
        "contract": "contracts/HATVault.sol:HATVault",
        "label": "_allowances",
        "offset": 0,
        "slot": "52",
        "type": "t_mapping(t_address,t_mapping(t_address,t_uint256))"
      },
      {
        "astId": 1354,
        "contract": "contracts/HATVault.sol:HATVault",
        "label": "_totalSupply",
        "offset": 0,
        "slot": "53",
        "type": "t_uint256"
      },
      {
        "astId": 1356,
        "contract": "contracts/HATVault.sol:HATVault",
        "label": "_name",
        "offset": 0,
        "slot": "54",
        "type": "t_string_storage"
      },
      {
        "astId": 1358,
        "contract": "contracts/HATVault.sol:HATVault",
        "label": "_symbol",
        "offset": 0,
        "slot": "55",
        "type": "t_string_storage"
      },
      {
        "astId": 1938,
        "contract": "contracts/HATVault.sol:HATVault",
        "label": "__gap",
        "offset": 0,
        "slot": "56",
        "type": "t_array(t_uint256)45_storage"
      },
      {
        "astId": 2037,
        "contract": "contracts/HATVault.sol:HATVault",
        "label": "_asset",
        "offset": 0,
        "slot": "101",
        "type": "t_contract(IERC20Upgradeable)2017"
      },
      {
        "astId": 2039,
        "contract": "contracts/HATVault.sol:HATVault",
        "label": "_decimals",
        "offset": 20,
        "slot": "101",
        "type": "t_uint8"
      },
      {
        "astId": 2722,
        "contract": "contracts/HATVault.sol:HATVault",
        "label": "__gap",
        "offset": 0,
        "slot": "102",
        "type": "t_array(t_uint256)49_storage"
      },
      {
        "astId": 296,
        "contract": "contracts/HATVault.sol:HATVault",
        "label": "_owner",
        "offset": 0,
        "slot": "151",
        "type": "t_address"
      },
      {
        "astId": 416,
        "contract": "contracts/HATVault.sol:HATVault",
        "label": "__gap",
        "offset": 0,
        "slot": "152",
        "type": "t_array(t_uint256)49_storage"
      },
      {
        "astId": 1268,
        "contract": "contracts/HATVault.sol:HATVault",
        "label": "_status",
        "offset": 0,
        "slot": "201",
        "type": "t_uint256"
      },
      {
        "astId": 1326,
        "contract": "contracts/HATVault.sol:HATVault",
        "label": "__gap",
        "offset": 0,
        "slot": "202",
        "type": "t_array(t_uint256)49_storage"
      },
      {
        "astId": 19369,
        "contract": "contracts/HATVault.sol:HATVault",
        "label": "claimsManager",
        "offset": 0,
        "slot": "251",
        "type": "t_address"
      },
      {
        "astId": 19372,
        "contract": "contracts/HATVault.sol:HATVault",
        "label": "registry",
        "offset": 0,
        "slot": "252",
        "type": "t_contract(IHATVaultsRegistry)24544"
      },
      {
        "astId": 19376,
        "contract": "contracts/HATVault.sol:HATVault",
        "label": "withdrawEnableStartTime",
        "offset": 0,
        "slot": "253",
        "type": "t_mapping(t_address,t_uint256)"
      },
      {
        "astId": 19380,
        "contract": "contracts/HATVault.sol:HATVault",
        "label": "rewardControllers",
        "offset": 0,
        "slot": "254",
        "type": "t_array(t_contract(IRewardController)24744)dyn_storage"
      },
      {
        "astId": 19382,
        "contract": "contracts/HATVault.sol:HATVault",
        "label": "withdrawalFee",
        "offset": 0,
        "slot": "255",
        "type": "t_uint256"
      },
      {
        "astId": 19384,
        "contract": "contracts/HATVault.sol:HATVault",
        "label": "vaultStarted",
        "offset": 0,
        "slot": "256",
        "type": "t_bool"
      },
      {
        "astId": 19386,
        "contract": "contracts/HATVault.sol:HATVault",
        "label": "depositPause",
        "offset": 1,
        "slot": "256",
        "type": "t_bool"
      },
      {
        "astId": 19388,
        "contract": "contracts/HATVault.sol:HATVault",
        "label": "withdrawPaused",
        "offset": 2,
        "slot": "256",
        "type": "t_bool"
      },
      {
        "astId": 19390,
        "contract": "contracts/HATVault.sol:HATVault",
        "label": "_isEmergencyWithdraw",
        "offset": 3,
        "slot": "256",
        "type": "t_bool"
      },
      {
        "astId": 19392,
        "contract": "contracts/HATVault.sol:HATVault",
        "label": "_vaultDestroyed",
        "offset": 4,
        "slot": "256",
        "type": "t_bool"
      }
    ],
    "types": {
      "t_address": {
        "encoding": "inplace",
        "label": "address",
        "numberOfBytes": "20"
      },
      "t_array(t_contract(IRewardController)24744)dyn_storage": {
        "base": "t_contract(IRewardController)24744",
        "encoding": "dynamic_array",
        "label": "contract IRewardController[]",
        "numberOfBytes": "32"
      },
      "t_array(t_uint256)45_storage": {
        "base": "t_uint256",
        "encoding": "inplace",
        "label": "uint256[45]",
        "numberOfBytes": "1440"
      },
      "t_array(t_uint256)49_storage": {
        "base": "t_uint256",
        "encoding": "inplace",
        "label": "uint256[49]",
        "numberOfBytes": "1568"
      },
      "t_array(t_uint256)50_storage": {
        "base": "t_uint256",
        "encoding": "inplace",
        "label": "uint256[50]",
        "numberOfBytes": "1600"
      },
      "t_bool": {
        "encoding": "inplace",
        "label": "bool",
        "numberOfBytes": "1"
      },
      "t_contract(IERC20Upgradeable)2017": {
        "encoding": "inplace",
        "label": "contract IERC20Upgradeable",
        "numberOfBytes": "20"
      },
      "t_contract(IHATVaultsRegistry)24544": {
        "encoding": "inplace",
        "label": "contract IHATVaultsRegistry",
        "numberOfBytes": "20"
      },
      "t_contract(IRewardController)24744": {
        "encoding": "inplace",
        "label": "contract IRewardController",
        "numberOfBytes": "20"
      },
      "t_mapping(t_address,t_mapping(t_address,t_uint256))": {
        "encoding": "mapping",
        "key": "t_address",
        "label": "mapping(address => mapping(address => uint256))",
        "numberOfBytes": "32",
        "value": "t_mapping(t_address,t_uint256)"
      },
      "t_mapping(t_address,t_uint256)": {
        "encoding": "mapping",
        "key": "t_address",
        "label": "mapping(address => uint256)",
        "numberOfBytes": "32",
        "value": "t_uint256"
      },
      "t_string_storage": {
        "encoding": "bytes",
        "label": "string",
        "numberOfBytes": "32"
      },
      "t_uint256": {
        "encoding": "inplace",
        "label": "uint256",
        "numberOfBytes": "32"
      },
      "t_uint8": {
        "encoding": "inplace",
        "label": "uint8",
        "numberOfBytes": "1"
      }
    }
  }
}