{
  "address": "0x719FE6E0208664D4B43A899910d5Af34d5233646",
  "abi": [
    {
      "inputs": [
        {
          "internalType": "string",
          "name": "_merkleTreeIPFSRef",
          "type": "string"
        },
        {
          "internalType": "bytes32",
          "name": "_root",
          "type": "bytes32"
        },
        {
          "internalType": "uint256",
          "name": "_deadline",
          "type": "uint256"
        }
      ],
      "stateMutability": "nonpayable",
      "type": "constructor"
    },
    {
      "anonymous": false,
      "inputs": [
        {
          "indexed": true,
          "internalType": "address",
          "name": "account",
          "type": "address"
        },
        {
          "indexed": true,
          "internalType": "address",
          "name": "operator",
          "type": "address"
        },
        {
          "indexed": false,
          "internalType": "bool",
          "name": "approved",
          "type": "bool"
        }
      ],
      "name": "ApprovalForAll",
      "type": "event"
    },
    {
      "anonymous": false,
      "inputs": [
        {
          "indexed": false,
          "internalType": "string",
          "name": "merkleTreeIPFSRef",
          "type": "string"
        },
        {
          "indexed": false,
          "internalType": "bytes32",
          "name": "root",
          "type": "bytes32"
        },
        {
          "indexed": false,
          "internalType": "uint256",
          "name": "deadline",
          "type": "uint256"
        }
      ],
      "name": "MerkleTreeChanged",
      "type": "event"
    },
    {
      "anonymous": false,
      "inputs": [
        {
          "indexed": true,
          "internalType": "address",
          "name": "previousOwner",
          "type": "address"
        },
        {
          "indexed": true,
          "internalType": "address",
          "name": "newOwner",
          "type": "address"
        }
      ],
      "name": "OwnershipTransferred",
      "type": "event"
    },
    {
      "anonymous": false,
      "inputs": [
        {
          "indexed": true,
          "internalType": "address",
          "name": "operator",
          "type": "address"
        },
        {
          "indexed": true,
          "internalType": "address",
          "name": "from",
          "type": "address"
        },
        {
          "indexed": true,
          "internalType": "address",
          "name": "to",
          "type": "address"
        },
        {
          "indexed": false,
          "internalType": "uint256[]",
          "name": "ids",
          "type": "uint256[]"
        },
        {
          "indexed": false,
          "internalType": "uint256[]",
          "name": "values",
          "type": "uint256[]"
        }
      ],
      "name": "TransferBatch",
      "type": "event"
    },
    {
      "anonymous": false,
      "inputs": [
        {
          "indexed": true,
          "internalType": "address",
          "name": "operator",
          "type": "address"
        },
        {
          "indexed": true,
          "internalType": "address",
          "name": "from",
          "type": "address"
        },
        {
          "indexed": true,
          "internalType": "address",
          "name": "to",
          "type": "address"
        },
        {
          "indexed": false,
          "internalType": "uint256",
          "name": "id",
          "type": "uint256"
        },
        {
          "indexed": false,
          "internalType": "uint256",
          "name": "value",
          "type": "uint256"
        }
      ],
      "name": "TransferSingle",
      "type": "event"
    },
    {
      "anonymous": false,
      "inputs": [
        {
          "indexed": false,
          "internalType": "string",
          "name": "value",
          "type": "string"
        },
        {
          "indexed": true,
          "internalType": "uint256",
          "name": "id",
          "type": "uint256"
        }
      ],
      "name": "URI",
      "type": "event"
    },
    {
      "anonymous": false,
      "inputs": [
        {
          "indexed": true,
          "internalType": "address",
          "name": "hatVaults",
          "type": "address"
        },
        {
          "indexed": true,
          "internalType": "uint256",
          "name": "pid",
          "type": "uint256"
        }
      ],
      "name": "VaultPaused",
      "type": "event"
    },
    {
      "anonymous": false,
      "inputs": [
        {
          "indexed": true,
          "internalType": "address",
          "name": "hatVaults",
          "type": "address"
        },
        {
          "indexed": true,
          "internalType": "uint256",
          "name": "pid",
          "type": "uint256"
        }
      ],
      "name": "VaultResumed",
      "type": "event"
    },
    {
      "inputs": [],
      "name": "HUNDRED_PERCENT",
      "outputs": [
        {
          "internalType": "uint256",
          "name": "",
          "type": "uint256"
        }
      ],
      "stateMutability": "view",
      "type": "function"
    },
    {
      "inputs": [],
      "name": "TIERS",
      "outputs": [
        {
          "internalType": "uint256",
          "name": "",
          "type": "uint256"
        }
      ],
      "stateMutability": "view",
      "type": "function"
    },
    {
      "inputs": [
        {
          "internalType": "address",
          "name": "hatVaults",
          "type": "address"
        },
        {
          "internalType": "uint256",
          "name": "pid",
          "type": "uint256"
        },
        {
          "internalType": "string",
          "name": "_uri",
          "type": "string"
        }
      ],
      "name": "addVault",
      "outputs": [],
      "stateMutability": "nonpayable",
      "type": "function"
    },
    {
      "inputs": [
        {
          "internalType": "address",
          "name": "account",
          "type": "address"
        },
        {
          "internalType": "uint256",
          "name": "id",
          "type": "uint256"
        }
      ],
      "name": "balanceOf",
      "outputs": [
        {
          "internalType": "uint256",
          "name": "",
          "type": "uint256"
        }
      ],
      "stateMutability": "view",
      "type": "function"
    },
    {
      "inputs": [
        {
          "internalType": "address[]",
          "name": "accounts",
          "type": "address[]"
        },
        {
          "internalType": "uint256[]",
          "name": "ids",
          "type": "uint256[]"
        }
      ],
      "name": "balanceOfBatch",
      "outputs": [
        {
          "internalType": "uint256[]",
          "name": "",
          "type": "uint256[]"
        }
      ],
      "stateMutability": "view",
      "type": "function"
    },
    {
      "inputs": [],
      "name": "deadline",
      "outputs": [
        {
          "internalType": "uint256",
          "name": "",
          "type": "uint256"
        }
      ],
      "stateMutability": "view",
      "type": "function"
    },
    {
      "inputs": [
        {
          "internalType": "address",
          "name": "hatVaults",
          "type": "address"
        },
        {
          "internalType": "uint256",
          "name": "pid",
          "type": "uint256"
        },
        {
          "internalType": "address",
          "name": "account",
          "type": "address"
        }
      ],
      "name": "getTierFromShares",
      "outputs": [
        {
          "internalType": "uint8",
          "name": "",
          "type": "uint8"
        }
      ],
      "stateMutability": "view",
      "type": "function"
    },
    {
      "inputs": [
        {
          "internalType": "address",
          "name": "hatVaults",
          "type": "address"
        },
        {
          "internalType": "uint256",
          "name": "pid",
          "type": "uint256"
        },
        {
          "internalType": "address",
          "name": "account",
          "type": "address"
        }
      ],
      "name": "getTiersToRedeemFromShares",
      "outputs": [
        {
          "internalType": "bool[3]",
          "name": "tiers",
          "type": "bool[3]"
        }
      ],
      "stateMutability": "view",
      "type": "function"
    },
    {
      "inputs": [
        {
          "internalType": "address",
          "name": "hatVaults",
          "type": "address"
        },
        {
          "internalType": "uint256",
          "name": "pid",
          "type": "uint256"
        },
        {
          "internalType": "uint8",
          "name": "tier",
          "type": "uint8"
        }
      ],
      "name": "getTokenId",
      "outputs": [
        {
          "internalType": "uint256",
          "name": "",
          "type": "uint256"
        }
      ],
      "stateMutability": "pure",
      "type": "function"
    },
    {
      "inputs": [
        {
          "internalType": "address",
          "name": "hatVaults",
          "type": "address"
        },
        {
          "internalType": "uint256",
          "name": "pid",
          "type": "uint256"
        }
      ],
      "name": "getVaultId",
      "outputs": [
        {
          "internalType": "bytes32",
          "name": "",
          "type": "bytes32"
        }
      ],
      "stateMutability": "pure",
      "type": "function"
    },
    {
      "inputs": [
        {
          "internalType": "address",
          "name": "account",
          "type": "address"
        },
        {
          "internalType": "address",
          "name": "operator",
          "type": "address"
        }
      ],
      "name": "isApprovedForAll",
      "outputs": [
        {
          "internalType": "bool",
          "name": "",
          "type": "bool"
        }
      ],
      "stateMutability": "view",
      "type": "function"
    },
    {
      "inputs": [
        {
          "internalType": "address",
          "name": "hatVaults",
          "type": "address"
        },
        {
          "internalType": "uint256",
          "name": "pid",
          "type": "uint256"
        },
        {
          "internalType": "address",
          "name": "account",
          "type": "address"
        }
      ],
      "name": "isEligible",
      "outputs": [
        {
          "internalType": "bool",
          "name": "",
          "type": "bool"
        }
      ],
      "stateMutability": "view",
      "type": "function"
    },
    {
      "inputs": [],
      "name": "owner",
      "outputs": [
        {
          "internalType": "address",
          "name": "",
          "type": "address"
        }
      ],
      "stateMutability": "view",
      "type": "function"
    },
    {
      "inputs": [
        {
          "internalType": "address",
          "name": "hatVaults",
          "type": "address"
        },
        {
          "internalType": "uint256",
          "name": "pid",
          "type": "uint256"
        }
      ],
      "name": "pauseVault",
      "outputs": [],
      "stateMutability": "nonpayable",
      "type": "function"
    },
    {
      "inputs": [
        {
          "internalType": "bytes32",
          "name": "",
          "type": "bytes32"
        }
      ],
      "name": "pausedVaults",
      "outputs": [
        {
          "internalType": "bool",
          "name": "",
          "type": "bool"
        }
      ],
      "stateMutability": "view",
      "type": "function"
    },
    {
      "inputs": [
        {
          "internalType": "address[]",
          "name": "hatVaults",
          "type": "address[]"
        },
        {
          "internalType": "uint256[]",
          "name": "pids",
          "type": "uint256[]"
        },
        {
          "internalType": "address",
          "name": "account",
          "type": "address"
        }
      ],
      "name": "redeemMultipleFromShares",
      "outputs": [],
      "stateMutability": "nonpayable",
      "type": "function"
    },
    {
      "inputs": [
        {
          "internalType": "address[]",
          "name": "hatVaults",
          "type": "address[]"
        },
        {
          "internalType": "uint256[]",
          "name": "pids",
          "type": "uint256[]"
        },
        {
          "internalType": "address",
          "name": "account",
          "type": "address"
        },
        {
          "internalType": "uint8[]",
          "name": "tiers",
          "type": "uint8[]"
        },
        {
          "internalType": "bytes32[][]",
          "name": "proofs",
          "type": "bytes32[][]"
        }
      ],
      "name": "redeemMultipleFromTree",
      "outputs": [],
      "stateMutability": "nonpayable",
      "type": "function"
    },
    {
      "inputs": [
        {
          "internalType": "address",
          "name": "hatVaults",
          "type": "address"
        },
        {
          "internalType": "uint256",
          "name": "pid",
          "type": "uint256"
        },
        {
          "internalType": "address",
          "name": "account",
          "type": "address"
        }
      ],
      "name": "redeemSingleFromShares",
      "outputs": [],
      "stateMutability": "nonpayable",
      "type": "function"
    },
    {
      "inputs": [
        {
          "internalType": "address",
          "name": "hatVaults",
          "type": "address"
        },
        {
          "internalType": "uint256",
          "name": "pid",
          "type": "uint256"
        },
        {
          "internalType": "address",
          "name": "account",
          "type": "address"
        },
        {
          "internalType": "uint8",
          "name": "tier",
          "type": "uint8"
        },
        {
          "internalType": "bytes32[]",
          "name": "proof",
          "type": "bytes32[]"
        }
      ],
      "name": "redeemSingleFromTree",
      "outputs": [],
      "stateMutability": "nonpayable",
      "type": "function"
    },
    {
      "inputs": [],
      "name": "renounceOwnership",
      "outputs": [],
      "stateMutability": "nonpayable",
      "type": "function"
    },
    {
      "inputs": [
        {
          "internalType": "address",
          "name": "hatVaults",
          "type": "address"
        },
        {
          "internalType": "uint256",
          "name": "pid",
          "type": "uint256"
        }
      ],
      "name": "resumeVault",
      "outputs": [],
      "stateMutability": "nonpayable",
      "type": "function"
    },
    {
      "inputs": [],
      "name": "root",
      "outputs": [
        {
          "internalType": "bytes32",
          "name": "",
          "type": "bytes32"
        }
      ],
      "stateMutability": "view",
      "type": "function"
    },
    {
      "inputs": [
        {
          "internalType": "address",
          "name": "from",
          "type": "address"
        },
        {
          "internalType": "address",
          "name": "to",
          "type": "address"
        },
        {
          "internalType": "uint256[]",
          "name": "ids",
          "type": "uint256[]"
        },
        {
          "internalType": "uint256[]",
          "name": "amounts",
          "type": "uint256[]"
        },
        {
          "internalType": "bytes",
          "name": "data",
          "type": "bytes"
        }
      ],
      "name": "safeBatchTransferFrom",
      "outputs": [],
      "stateMutability": "nonpayable",
      "type": "function"
    },
    {
      "inputs": [
        {
          "internalType": "address",
          "name": "from",
          "type": "address"
        },
        {
          "internalType": "address",
          "name": "to",
          "type": "address"
        },
        {
          "internalType": "uint256",
          "name": "id",
          "type": "uint256"
        },
        {
          "internalType": "uint256",
          "name": "amount",
          "type": "uint256"
        },
        {
          "internalType": "bytes",
          "name": "data",
          "type": "bytes"
        }
      ],
      "name": "safeTransferFrom",
      "outputs": [],
      "stateMutability": "nonpayable",
      "type": "function"
    },
    {
      "inputs": [
        {
          "internalType": "address",
          "name": "operator",
          "type": "address"
        },
        {
          "internalType": "bool",
          "name": "approved",
          "type": "bool"
        }
      ],
      "name": "setApprovalForAll",
      "outputs": [],
      "stateMutability": "nonpayable",
      "type": "function"
    },
    {
      "inputs": [
        {
          "internalType": "bytes4",
          "name": "interfaceId",
          "type": "bytes4"
        }
      ],
      "name": "supportsInterface",
      "outputs": [
        {
          "internalType": "bool",
          "name": "",
          "type": "bool"
        }
      ],
      "stateMutability": "view",
      "type": "function"
    },
    {
      "inputs": [
        {
          "internalType": "uint256",
          "name": "",
          "type": "uint256"
        },
        {
          "internalType": "address",
          "name": "",
          "type": "address"
        }
      ],
      "name": "tokensRedeemed",
      "outputs": [
        {
          "internalType": "bool",
          "name": "",
          "type": "bool"
        }
      ],
      "stateMutability": "view",
      "type": "function"
    },
    {
      "inputs": [],
      "name": "totalSupply",
      "outputs": [
        {
          "internalType": "uint256",
          "name": "",
          "type": "uint256"
        }
      ],
      "stateMutability": "view",
      "type": "function"
    },
    {
      "inputs": [],
      "name": "totalSupplyCounter",
      "outputs": [
        {
          "internalType": "uint256",
          "name": "_value",
          "type": "uint256"
        }
      ],
      "stateMutability": "view",
      "type": "function"
    },
    {
      "inputs": [
        {
          "internalType": "address",
          "name": "newOwner",
          "type": "address"
        }
      ],
      "name": "transferOwnership",
      "outputs": [],
      "stateMutability": "nonpayable",
      "type": "function"
    },
    {
      "inputs": [
        {
          "internalType": "string",
          "name": "_merkleTreeIPFSRef",
          "type": "string"
        },
        {
          "internalType": "bytes32",
          "name": "_root",
          "type": "bytes32"
        },
        {
          "internalType": "uint256",
          "name": "_deadline",
          "type": "uint256"
        }
      ],
      "name": "updateTree",
      "outputs": [],
      "stateMutability": "nonpayable",
      "type": "function"
    },
    {
      "inputs": [
        {
          "internalType": "uint256",
          "name": "tokenId",
          "type": "uint256"
        }
      ],
      "name": "uri",
      "outputs": [
        {
          "internalType": "string",
          "name": "",
          "type": "string"
        }
      ],
      "stateMutability": "view",
      "type": "function"
    },
    {
      "inputs": [
        {
          "internalType": "uint256",
          "name": "",
          "type": "uint256"
        }
      ],
      "name": "uris",
      "outputs": [
        {
          "internalType": "string",
          "name": "",
          "type": "string"
        }
      ],
      "stateMutability": "view",
      "type": "function"
    },
    {
      "inputs": [
        {
          "internalType": "bytes32",
          "name": "",
          "type": "bytes32"
        }
      ],
      "name": "vaultsRegistered",
      "outputs": [
        {
          "internalType": "bool",
          "name": "",
          "type": "bool"
        }
      ],
      "stateMutability": "view",
      "type": "function"
    }
  ],
  "transactionHash": "0x63cb209577f7fd8fc885d7ffc5275c844d40743b0a0d07f8a436f125539056cd",
  "args": [
    "",
    "0x0000000000000000000000000000000000000000000000000000000000000000",
    1673877864
  ],
  "numDeployments": 1,
  "solcInputHash": "e4af3fa385b5464b36fdebeaca27afaa",
  "bytecode": "0x60806040523480156200001157600080fd5b50604051620032833803806200328383398101604081905262000034916200019f565b6040805160208101909152600081526200004e81620000ff565b506200005a3362000111565b804210620000ae5760405162461bcd60e51b815260206004820152601760248201527f446561646c696e6520616c726561647920706173736564000000000000000000604482015260640160405180910390fd5b600482905560068190556040517f0321d29aa78655def372c63c55cdf9813510b8e8f5263d109dc5554a405b4ed890620000ee908590859085906200026a565b60405180910390a150505062000409565b60026200010d82826200033d565b5050565b600380546001600160a01b038381166001600160a01b0319831681179093556040519116919082907f8be0079c531659141344cd1fd0a4f28419497f9722a3daafe3b4186f6b6457e090600090a35050565b634e487b7160e01b600052604160045260246000fd5b60005b83811015620001965781810151838201526020016200017c565b50506000910152565b600080600060608486031215620001b557600080fd5b83516001600160401b0380821115620001cd57600080fd5b818601915086601f830112620001e257600080fd5b815181811115620001f757620001f762000163565b604051601f8201601f19908116603f0116810190838211818310171562000222576200022262000163565b816040528281528960208487010111156200023c57600080fd5b6200024f83602083016020880162000179565b6020890151604090990151909a989950979650505050505050565b60608152600084518060608401526200028b81608085016020890162000179565b60208301949094525060408101919091526080601f909201601f19160101919050565b600181811c90821680620002c357607f821691505b602082108103620002e457634e487b7160e01b600052602260045260246000fd5b50919050565b601f8211156200033857600081815260208120601f850160051c81016020861015620003135750805b601f850160051c820191505b8181101562000334578281556001016200031f565b5050505b505050565b81516001600160401b0381111562000359576200035962000163565b62000371816200036a8454620002ae565b84620002ea565b602080601f831160018114620003a95760008415620003905750858301515b600019600386901b1c1916600185901b17855562000334565b600085815260208120601f198616915b82811015620003da57888601518255948401946001909101908401620003b9565b5085821015620003f95787850151600019600388901b60f8161c191681555b5050505050600190811b01905550565b612e6a80620004196000396000f3fe608060405234801561001057600080fd5b50600436106102055760003560e01c80636ed93dd01161011a578063d01f5932116100ad578063e985e9c51161007c578063e985e9c514610494578063ebf0c717146104d0578063f242432a146104d9578063f2fde38b146104ec578063f9beb740146104ff57600080fd5b8063d01f593214610448578063db833f001461045b578063df773e341461046e578063e591ed891461048157600080fd5b8063a22cb465116100e9578063a22cb465146103e1578063a943840a146103f4578063c9e7d50a14610407578063ceb120fa1461043557600080fd5b80636ed93dd0146103a2578063715018a6146103ab5780637c7cd785146103b35780638da5cb5b146103c657600080fd5b8063230ad5cc1161019d5780633917dac51161016c5780633917dac51461033457806339731d911461035457806339efae52146103675780634e1273f41461037a5780636e748f971461039a57600080fd5b8063230ad5cc146102d05780632335570b146102f357806329dcb0cf146103185780632eb2c2d61461032157600080fd5b80631253c546116101d95780631253c5461461028857806318160ddd1461029b57806319636585146102a3578063204a875a146102c657600080fd5b8062fdd58e1461020a57806301ffc9a71461023057806302524936146102535780630e89341c14610268575b600080fd5b61021d610218366004611faf565b610512565b6040519081526020015b60405180910390f35b61024361023e366004611fef565b6105ab565b6040519015158152602001610227565b610266610261366004612057565b6105fb565b005b61027b610276366004612130565b610712565b6040516102279190612199565b61027b610296366004612130565b6107b4565b61021d61084e565b6102436102b1366004612130565b60076020526000908152604090205460ff1681565b60055461021d9081565b6102436102de366004612130565b60086020526000908152604090205460ff1681565b6103066103013660046121ac565b61085e565b60405160ff9091168152602001610227565b61021d60065481565b61026661032f366004612331565b610a9c565b6103476103423660046121ac565b610ae8565b60405161022791906123da565b61021d61036236600461241e565b610bf1565b61021d610375366004611faf565b610c44565b61038d610388366004612451565b610c77565b6040516102279190612556565b61021d600381565b61021d61271081565b610266610d98565b6102666103c1366004612569565b610dac565b6003546040516001600160a01b039091168152602001610227565b6102666103ef3660046125e9565b610e3b565b610266610402366004611faf565b610e4a565b610243610415366004612625565b600960209081526000928352604080842090915290825290205460ff1681565b610266610443366004612651565b610ee1565b61026661045636600461269e565b610fd4565b610266610469366004611faf565b6110ee565b61026661047c3660046121ac565b611185565b61024361048f3660046121ac565b6111a9565b6102436104a23660046126f4565b6001600160a01b03918216600090815260016020908152604080832093909416825291909152205460ff1690565b61021d60045481565b6102666104e736600461271e565b611233565b6102666104fa366004612782565b611278565b61026661050d36600461279d565b6112f1565b60006001600160a01b0383166105825760405162461bcd60e51b815260206004820152602a60248201527f455243313135353a2061646472657373207a65726f206973206e6f742061207660448201526930b634b21037bbb732b960b11b60648201526084015b60405180910390fd5b506000818152602081815260408083206001600160a01b03861684529091529020545b92915050565b60006001600160e01b03198216636cdb3d1360e11b14806105dc57506001600160e01b031982166303a24d0760e21b145b806105a557506301ffc9a760e01b6001600160e01b03198316146105a5565b8786811461061b5760405162461bcd60e51b81526004016105799061281b565b80841461063a5760405162461bcd60e51b81526004016105799061281b565b8082146106595760405162461bcd60e51b81526004016105799061281b565b60005b81811015610705576106f38b8b8381811061067957610679612852565b905060200201602081019061068e9190612782565b8a8a848181106106a0576106a0612852565b90506020020135898989868181106106ba576106ba612852565b90506020020160208101906106cf9190612868565b8888878181106106e1576106e1612852565b905060200281019061050d9190612883565b806106fd816128e2565b91505061065c565b5050505050505050505050565b6000818152600a6020526040902080546060919061072f906128fb565b80601f016020809104026020016040519081016040528092919081815260200182805461075b906128fb565b80156107a85780601f1061077d576101008083540402835291602001916107a8565b820191906000526020600020905b81548152906001019060200180831161078b57829003601f168201915b50505050509050919050565b600a60205260009081526040902080546107cd906128fb565b80601f01602080910402602001604051908101604052809291908181526020018280546107f9906128fb565b80156108465780601f1061081b57610100808354040283529160200191610846565b820191906000526020600020905b81548152906001019060200180831161082957829003601f168201915b505050505081565b600061085960055490565b905090565b60008383600760008383604051602001610879929190612935565b60408051601f198184030181529181528151602092830120835290820192909252016000205460ff16156108de5760405162461bcd60e51b815260206004820152600c60248201526b15985d5b1d081c185d5cd95960a21b6044820152606401610579565b604051633ae05cff60e11b8152600481018690526001600160a01b038581166024830152600091908816906375c0b9fe90604401602060405180830381865afa15801561092f573d6000803e3d6000fd5b505050506040513d601f19601f820116820180604052508101906109539190612952565b6040516310bfff0b60e31b8152600481018890529091506000906001600160a01b038916906385fff85890602401602060405180830381865afa15801561099e573d6000803e3d6000fd5b505050506040513d601f19601f820116820180604052508101906109c29190612952565b905080600003610a045760405162461bcd60e51b815260206004820152600d60248201526c506f6f6c20697320656d70747960981b6044820152606401610579565b60408051606081018252600a8152606460208201526105dc918101919091526000805b60038160ff161015610a8e57612710838260ff1660038110610a4b57610a4b612852565b6020020151610a5e9061ffff168661296b565b610a6891906129a0565b8510610a8e5781610a78816129b4565b9250508080610a86906129b4565b915050610a27565b509998505050505050505050565b6001600160a01b038516331480610ab85750610ab885336104a2565b610ad45760405162461bcd60e51b8152600401610579906129d3565b610ae18585858585611480565b5050505050565b610af0611f75565b60086000610afe8686610c44565b815260208101919091526040016000205460ff16610b555760405162461bcd60e51b8152602060048201526014602482015273151bdad95b88191bd95cc81b9bdd08195e1a5cdd60621b6044820152606401610579565b60015b610b6385858561085e565b60ff168160ff1611610be95760096000610b7e878785610bf1565b8152602080820192909252604090810160009081206001600160a01b038716825290925290205460ff16610bd757600182610bb98284612a22565b60ff1660038110610bcc57610bcc612852565b911515602090920201525b80610be1816129b4565b915050610b58565b509392505050565b6040805160609490941b6001600160601b031916602080860191909152603485019390935260f89190911b6001600160f81b03191660548401528051603581850301815260559093019052815191012090565b60008282604051602001610c59929190612935565b60405160208183030381529060405280519060200120905092915050565b60608151835114610cdc5760405162461bcd60e51b815260206004820152602960248201527f455243313135353a206163636f756e747320616e6420696473206c656e677468604482015268040dad2e6dac2e8c6d60bb1b6064820152608401610579565b600083516001600160401b03811115610cf757610cf76121e8565b604051908082528060200260200182016040528015610d20578160200160208202803683370190505b50905060005b8451811015610be957610d6b858281518110610d4457610d44612852565b6020026020010151858381518110610d5e57610d5e612852565b6020026020010151610512565b828281518110610d7d57610d7d612852565b6020908102919091010152610d91816128e2565b9050610d26565b610da061165d565b610daa60006116b7565b565b83828114610dcc5760405162461bcd60e51b81526004016105799061281b565b60005b81811015610e3257610e20878783818110610dec57610dec612852565b9050602002016020810190610e019190612782565b868684818110610e1357610e13612852565b9050602002013585611185565b80610e2a816128e2565b915050610dcf565b50505050505050565b610e46338383611709565b5050565b610e5261165d565b6000600760008484604051602001610e6b929190612935565b60405160208183030381529060405280519060200120815260200190815260200160002060006101000a81548160ff02191690831515021790555080826001600160a01b03167f5e8526ee3954b37e3817ddd2a2af5028e0bd006511f190d1deeb43d15d0a18cd60405160405180910390a35050565b610ee961165d565b6006544211610f3a5760405162461bcd60e51b815260206004820181905260248201527f4d696e74696e6720646561646c696e6520776173206e6f7420726561636865646044820152606401610579565b804210610f895760405162461bcd60e51b815260206004820152601b60248201527f4e657720646561646c696e6520616c72656164792070617373656400000000006044820152606401610579565b600482905560068190556040517f0321d29aa78655def372c63c55cdf9813510b8e8f5263d109dc5554a405b4ed890610fc790859085908590612a3b565b60405180910390a1505050565b610fdc61165d565b60086000610fea8585610c44565b815260208101919091526040016000205460ff16156110425760405162461bcd60e51b81526020600482015260146024820152735661756c7420616c72656164792065786973747360601b6044820152606401610579565b6001600860006110528686610c44565b81526020810191909152604001600020805460ff191691151591909117905560015b60038160ff16116110e8578161108c8260ff166117e9565b60405160200161109d929190612a60565b604051602081830303815290604052600a60006110bb878786610bf1565b815260200190815260200160002090816110d59190612ada565b50806110e0816129b4565b915050611074565b50505050565b6110f661165d565b600160076000848460405160200161110f929190612935565b60405160208183030381529060405280519060200120815260200190815260200160002060006101000a81548160ff02191690831515021790555080826001600160a01b03167f57847ecb0caf57ab272aebf4d12c2e00b717d17e11280577d5302fd2f6a901ae60405160405180910390a35050565b600061119284848461085e565b905060ff8116156110e8576110e8848484846118f1565b6000806111b785858561085e565b905060ff81161580159061122a5750600860006111d48787610c44565b815260208101919091526040016000205460ff16801561122a5750600960006111fe878785610bf1565b8152602080820192909252604090810160009081206001600160a01b038716825290925290205460ff16155b95945050505050565b6001600160a01b03851633148061124f575061124f85336104a2565b61126b5760405162461bcd60e51b8152600401610579906129d3565b610ae18585858585611a0f565b61128061165d565b6001600160a01b0381166112e55760405162461bcd60e51b815260206004820152602660248201527f4f776e61626c653a206e6577206f776e657220697320746865207a65726f206160448201526564647265737360d01b6064820152608401610579565b6112ee816116b7565b50565b858560076000838360405160200161130a929190612935565b60408051601f198184030181529181528151602092830120835290820192909252016000205460ff161561136f5760405162461bcd60e51b815260206004820152600c60248201526b15985d5b1d081c185d5cd95960a21b6044820152606401610579565b60065442106113c05760405162461bcd60e51b815260206004820152601760248201527f4d696e74696e6720646561646c696e65207061737365640000000000000000006044820152606401610579565b6040805160608a811b6001600160601b0319908116602080850191909152603484018c9052918a901b16605483015260f888901b6001600160f81b031916606883015282516049818403018152606990920190925280519101206114279085908590611b39565b61146a5760405162461bcd60e51b815260206004820152601460248201527324b73b30b634b21036b2b935b63290383937b7b360611b6044820152606401610579565b611476888888886118f1565b5050505050505050565b81518351146114e25760405162461bcd60e51b815260206004820152602860248201527f455243313135353a2069647320616e6420616d6f756e7473206c656e677468206044820152670dad2e6dac2e8c6d60c31b6064820152608401610579565b6001600160a01b0384166115085760405162461bcd60e51b815260040161057990612b99565b3360005b84518110156115ef57600085828151811061152957611529612852565b60200260200101519050600085838151811061154757611547612852565b602090810291909101810151600084815280835260408082206001600160a01b038e1683529093529190912054909150818110156115975760405162461bcd60e51b815260040161057990612bde565b6000838152602081815260408083206001600160a01b038e8116855292528083208585039055908b168252812080548492906115d4908490612c28565b92505081905550505050806115e8906128e2565b905061150c565b50846001600160a01b0316866001600160a01b0316826001600160a01b03167f4a39dc06d4c0dbc64b70af90fd698a233a518aa5d07e595d983b8c0526c8f7fb878760405161163f929190612c3b565b60405180910390a4611655818787878787611b49565b505050505050565b6003546001600160a01b03163314610daa5760405162461bcd60e51b815260206004820181905260248201527f4f776e61626c653a2063616c6c6572206973206e6f7420746865206f776e65726044820152606401610579565b600380546001600160a01b038381166001600160a01b0319831681179093556040519116919082907f8be0079c531659141344cd1fd0a4f28419497f9722a3daafe3b4186f6b6457e090600090a35050565b816001600160a01b0316836001600160a01b03160361177c5760405162461bcd60e51b815260206004820152602960248201527f455243313135353a2073657474696e6720617070726f76616c20737461747573604482015268103337b91039b2b63360b91b6064820152608401610579565b6001600160a01b03838116600081815260016020908152604080832094871680845294825291829020805460ff191686151590811790915591519182527f17307eab39ab6107e8899845ad3d59bd9653f200f220920489ca2b5937696c31910160405180910390a3505050565b6060816000036118105750506040805180820190915260018152600360fc1b602082015290565b8160005b811561183a5780611824816128e2565b91506118339050600a836129a0565b9150611814565b6000816001600160401b03811115611854576118546121e8565b6040519080825280601f01601f19166020018201604052801561187e576020820181803683370190505b5090505b84156118e957611893600183612c60565b91506118a0600a86612c73565b6118ab906030612c28565b60f81b8183815181106118c0576118c0612852565b60200101906001600160f81b031916908160001a9053506118e2600a866129a0565b9450611882565b949350505050565b600860006118ff8686610c44565b815260208101919091526040016000205460ff166119565760405162461bcd60e51b8152602060048201526014602482015273151bdad95b88191bd95cc81b9bdd08195e1a5cdd60621b6044820152606401610579565b60015b8160ff168160ff1611610ae15760096000611975878785610bf1565b8152602080820192909252604090810160009081206001600160a01b038716825290925290205460ff166119fd576001600960006119b4888886610bf1565b8152602080820192909252604090810160009081206001600160a01b03881682529092529020805460ff19169115159190911790556119fd836119f8878785610bf1565b611ca4565b80611a07816129b4565b915050611959565b6001600160a01b038416611a355760405162461bcd60e51b815260040161057990612b99565b336000611a4185611cce565b90506000611a4e85611cce565b90506000868152602081815260408083206001600160a01b038c16845290915290205485811015611a915760405162461bcd60e51b815260040161057990612bde565b6000878152602081815260408083206001600160a01b038d8116855292528083208985039055908a16825281208054889290611ace908490612c28565b909155505060408051888152602081018890526001600160a01b03808b16928c821692918816917fc3d58168c5ae7397731d063d5bbf3d657854427343f4c083240f7aacaa2d0f62910160405180910390a4611b2e848a8a8a8a8a611d19565b505050505050505050565b60006118e9848460045485611dd4565b6001600160a01b0384163b156116555760405163bc197c8160e01b81526001600160a01b0385169063bc197c8190611b8d9089908990889088908890600401612c87565b6020604051808303816000875af1925050508015611bc8575060408051601f3d908101601f19168201909252611bc591810190612ce5565b60015b611c7457611bd4612d02565b806308c379a003611c0d5750611be8612d1e565b80611bf35750611c0f565b8060405162461bcd60e51b81526004016105799190612199565b505b60405162461bcd60e51b815260206004820152603460248201527f455243313135353a207472616e7366657220746f206e6f6e20455243313135356044820152732932b1b2b4bb32b91034b6b83632b6b2b73a32b960611b6064820152608401610579565b6001600160e01b0319811663bc197c8160e01b14610e325760405162461bcd60e51b815260040161057990612da7565b611cb2600580546001019055565b610e468282600160405180602001604052806000815250611dec565b60408051600180825281830190925260609160009190602080830190803683370190505090508281600081518110611d0857611d08612852565b602090810291909101015292915050565b6001600160a01b0384163b156116555760405163f23a6e6160e01b81526001600160a01b0385169063f23a6e6190611d5d9089908990889088908890600401612def565b6020604051808303816000875af1925050508015611d98575060408051601f3d908101601f19168201909252611d9591810190612ce5565b60015b611da457611bd4612d02565b6001600160e01b0319811663f23a6e6160e01b14610e325760405162461bcd60e51b815260040161057990612da7565b600082611de2868685611ef7565b1495945050505050565b6001600160a01b038416611e4c5760405162461bcd60e51b815260206004820152602160248201527f455243313135353a206d696e7420746f20746865207a65726f206164647265736044820152607360f81b6064820152608401610579565b336000611e5885611cce565b90506000611e6585611cce565b90506000868152602081815260408083206001600160a01b038b16845290915281208054879290611e97908490612c28565b909155505060408051878152602081018790526001600160a01b03808a1692600092918716917fc3d58168c5ae7397731d063d5bbf3d657854427343f4c083240f7aacaa2d0f62910160405180910390a4610e3283600089898989611d19565b600081815b84811015611f3a57611f2682878784818110611f1a57611f1a612852565b90506020020135611f43565b915080611f32816128e2565b915050611efc565b50949350505050565b6000818310611f5f576000828152602084905260409020611f6e565b60008381526020839052604090205b9392505050565b60405180606001604052806003906020820280368337509192915050565b80356001600160a01b0381168114611faa57600080fd5b919050565b60008060408385031215611fc257600080fd5b611fcb83611f93565b946020939093013593505050565b6001600160e01b0319811681146112ee57600080fd5b60006020828403121561200157600080fd5b8135611f6e81611fd9565b60008083601f84011261201e57600080fd5b5081356001600160401b0381111561203557600080fd5b6020830191508360208260051b850101111561205057600080fd5b9250929050565b600080600080600080600080600060a08a8c03121561207557600080fd5b89356001600160401b038082111561208c57600080fd5b6120988d838e0161200c565b909b50995060208c01359150808211156120b157600080fd5b6120bd8d838e0161200c565b90995097508791506120d160408d01611f93565b965060608c01359150808211156120e757600080fd5b6120f38d838e0161200c565b909650945060808c013591508082111561210c57600080fd5b506121198c828d0161200c565b915080935050809150509295985092959850929598565b60006020828403121561214257600080fd5b5035919050565b60005b8381101561216457818101518382015260200161214c565b50506000910152565b60008151808452612185816020860160208601612149565b601f01601f19169290920160200192915050565b602081526000611f6e602083018461216d565b6000806000606084860312156121c157600080fd5b6121ca84611f93565b9250602084013591506121df60408501611f93565b90509250925092565b634e487b7160e01b600052604160045260246000fd5b601f8201601f191681016001600160401b0381118282101715612223576122236121e8565b6040525050565b60006001600160401b03821115612243576122436121e8565b5060051b60200190565b600082601f83011261225e57600080fd5b8135602061226b8261222a565b60405161227882826121fe565b83815260059390931b850182019282810191508684111561229857600080fd5b8286015b848110156122b3578035835291830191830161229c565b509695505050505050565b600082601f8301126122cf57600080fd5b81356001600160401b038111156122e8576122e86121e8565b6040516122ff601f8301601f1916602001826121fe565b81815284602083860101111561231457600080fd5b816020850160208301376000918101602001919091529392505050565b600080600080600060a0868803121561234957600080fd5b61235286611f93565b945061236060208701611f93565b935060408601356001600160401b038082111561237c57600080fd5b61238889838a0161224d565b9450606088013591508082111561239e57600080fd5b6123aa89838a0161224d565b935060808801359150808211156123c057600080fd5b506123cd888289016122be565b9150509295509295909350565b60608101818360005b600381101561240457815115158352602092830192909101906001016123e3565b50505092915050565b803560ff81168114611faa57600080fd5b60008060006060848603121561243357600080fd5b61243c84611f93565b9250602084013591506121df6040850161240d565b6000806040838503121561246457600080fd5b82356001600160401b038082111561247b57600080fd5b818501915085601f83011261248f57600080fd5b8135602061249c8261222a565b6040516124a982826121fe565b83815260059390931b85018201928281019150898411156124c957600080fd5b948201945b838610156124ee576124df86611f93565b825294820194908201906124ce565b9650508601359250508082111561250457600080fd5b506125118582860161224d565b9150509250929050565b600081518084526020808501945080840160005b8381101561254b5781518752958201959082019060010161252f565b509495945050505050565b602081526000611f6e602083018461251b565b60008060008060006060868803121561258157600080fd5b85356001600160401b038082111561259857600080fd5b6125a489838a0161200c565b909750955060208801359150808211156125bd57600080fd5b506125ca8882890161200c565b90945092506125dd905060408701611f93565b90509295509295909350565b600080604083850312156125fc57600080fd5b61260583611f93565b91506020830135801515811461261a57600080fd5b809150509250929050565b6000806040838503121561263857600080fd5b8235915061264860208401611f93565b90509250929050565b60008060006060848603121561266657600080fd5b83356001600160401b0381111561267c57600080fd5b612688868287016122be565b9660208601359650604090950135949350505050565b6000806000606084860312156126b357600080fd5b6126bc84611f93565b92506020840135915060408401356001600160401b038111156126de57600080fd5b6126ea868287016122be565b9150509250925092565b6000806040838503121561270757600080fd5b61271083611f93565b915061264860208401611f93565b600080600080600060a0868803121561273657600080fd5b61273f86611f93565b945061274d60208701611f93565b9350604086013592506060860135915060808601356001600160401b0381111561277657600080fd5b6123cd888289016122be565b60006020828403121561279457600080fd5b611f6e82611f93565b60008060008060008060a087890312156127b657600080fd5b6127bf87611f93565b9550602087013594506127d460408801611f93565b93506127e26060880161240d565b925060808701356001600160401b038111156127fd57600080fd5b61280989828a0161200c565b979a9699509497509295939492505050565b60208082526019908201527f417272617973206c656e67746873206d757374206d6174636800000000000000604082015260600190565b634e487b7160e01b600052603260045260246000fd5b60006020828403121561287a57600080fd5b611f6e8261240d565b6000808335601e1984360301811261289a57600080fd5b8301803591506001600160401b038211156128b457600080fd5b6020019150600581901b360382131561205057600080fd5b634e487b7160e01b600052601160045260246000fd5b6000600182016128f4576128f46128cc565b5060010190565b600181811c9082168061290f57607f821691505b60208210810361292f57634e487b7160e01b600052602260045260246000fd5b50919050565b60609290921b6001600160601b0319168252601482015260340190565b60006020828403121561296457600080fd5b5051919050565b6000816000190483118215151615612985576129856128cc565b500290565b634e487b7160e01b600052601260045260246000fd5b6000826129af576129af61298a565b500490565b600060ff821660ff81036129ca576129ca6128cc565b60010192915050565b6020808252602f908201527f455243313135353a2063616c6c6572206973206e6f7420746f6b656e206f776e60408201526e195c881b9bdc88185c1c1c9bdd9959608a1b606082015260800190565b60ff82811682821603908111156105a5576105a56128cc565b606081526000612a4e606083018661216d565b60208301949094525060400152919050565b60008351612a72818460208801612149565b835190830190612a86818360208801612149565b01949350505050565b601f821115612ad557600081815260208120601f850160051c81016020861015612ab65750805b601f850160051c820191505b8181101561165557828155600101612ac2565b505050565b81516001600160401b03811115612af357612af36121e8565b612b0781612b0184546128fb565b84612a8f565b602080601f831160018114612b3c5760008415612b245750858301515b600019600386901b1c1916600185901b178555611655565b600085815260208120601f198616915b82811015612b6b57888601518255948401946001909101908401612b4c565b5085821015612b895787850151600019600388901b60f8161c191681555b5050505050600190811b01905550565b60208082526025908201527f455243313135353a207472616e7366657220746f20746865207a65726f206164604082015264647265737360d81b606082015260800190565b6020808252602a908201527f455243313135353a20696e73756666696369656e742062616c616e636520666f60408201526939103a3930b739b332b960b11b606082015260800190565b808201808211156105a5576105a56128cc565b604081526000612c4e604083018561251b565b828103602084015261122a818561251b565b818103818111156105a5576105a56128cc565b600082612c8257612c8261298a565b500690565b6001600160a01b0386811682528516602082015260a060408201819052600090612cb39083018661251b565b8281036060840152612cc5818661251b565b90508281036080840152612cd9818561216d565b98975050505050505050565b600060208284031215612cf757600080fd5b8151611f6e81611fd9565b600060033d1115612d1b5760046000803e5060005160e01c5b90565b600060443d1015612d2c5790565b6040516003193d81016004833e81513d6001600160401b038160248401118184111715612d5b57505050505090565b8285019150815181811115612d735750505050505090565b843d8701016020828501011115612d8d5750505050505090565b612d9c602082860101876121fe565b509095945050505050565b60208082526028908201527f455243313135353a204552433131353552656365697665722072656a656374656040820152676420746f6b656e7360c01b606082015260800190565b6001600160a01b03868116825285166020820152604081018490526060810183905260a060808201819052600090612e299083018461216d565b97965050505050505056fea264697066735822122003b5f22466f97b650b514be24a03a806f4b7cb56cda09414647a452652a4ac8d64736f6c63430008100033",
  "devdoc": {
    "kind": "dev",
    "methods": {
      "balanceOf(address,uint256)": {
        "details": "See {IERC1155-balanceOf}. Requirements: - `account` cannot be the zero address."
      },
      "balanceOfBatch(address[],uint256[])": {
        "details": "See {IERC1155-balanceOfBatch}. Requirements: - `accounts` and `ids` must have the same length."
      },
      "isApprovedForAll(address,address)": {
        "details": "See {IERC1155-isApprovedForAll}."
      },
      "owner()": {
        "details": "Returns the address of the current owner."
      },
      "renounceOwnership()": {
        "details": "Leaves the contract without owner. It will not be possible to call `onlyOwner` functions anymore. Can only be called by the current owner. NOTE: Renouncing ownership will leave the contract without an owner, thereby removing any functionality that is only available to the owner."
      },
      "safeBatchTransferFrom(address,address,uint256[],uint256[],bytes)": {
        "details": "See {IERC1155-safeBatchTransferFrom}."
      },
      "safeTransferFrom(address,address,uint256,uint256,bytes)": {
        "details": "See {IERC1155-safeTransferFrom}."
      },
      "setApprovalForAll(address,bool)": {
        "details": "See {IERC1155-setApprovalForAll}."
      },
      "supportsInterface(bytes4)": {
        "details": "See {IERC165-supportsInterface}."
      },
      "totalSupply()": {
        "details": "Returns thze total tokens minted so far."
      },
      "transferOwnership(address)": {
        "details": "Transfers ownership of the contract to a new account (`newOwner`). Can only be called by the current owner."
      },
      "updateTree(string,bytes32,uint256)": {
        "details": "Update the merkle tree root only after  the deadline for minting has been reached.",
        "params": {
          "_deadline": "number of days to the next minting deadline.",
          "_merkleTreeIPFSRef": "new merkle tree ipfs reference.",
          "_root": "new merkle tree root to use for verifying."
        }
      }
    },
    "version": 1
  },
  "userdoc": {
    "kind": "user",
    "methods": {},
    "version": 1
  },
  "storageLayout": {
    "storage": [
      {
        "astId": 4521,
        "contract": "contracts/nft/HATVaultsNFT.sol:HATVaultsNFT",
        "label": "_balances",
        "offset": 0,
        "slot": "0",
        "type": "t_mapping(t_uint256,t_mapping(t_address,t_uint256))"
      },
      {
        "astId": 4527,
        "contract": "contracts/nft/HATVaultsNFT.sol:HATVaultsNFT",
        "label": "_operatorApprovals",
        "offset": 0,
        "slot": "1",
        "type": "t_mapping(t_address,t_mapping(t_address,t_bool))"
      },
      {
        "astId": 4529,
        "contract": "contracts/nft/HATVaultsNFT.sol:HATVaultsNFT",
        "label": "_uri",
        "offset": 0,
        "slot": "2",
        "type": "t_string_storage"
      },
      {
        "astId": 3327,
        "contract": "contracts/nft/HATVaultsNFT.sol:HATVaultsNFT",
        "label": "_owner",
        "offset": 0,
        "slot": "3",
        "type": "t_address"
      },
      {
        "astId": 19510,
        "contract": "contracts/nft/HATVaultsNFT.sol:HATVaultsNFT",
        "label": "root",
        "offset": 0,
        "slot": "4",
        "type": "t_bytes32"
      },
      {
        "astId": 19513,
        "contract": "contracts/nft/HATVaultsNFT.sol:HATVaultsNFT",
        "label": "totalSupplyCounter",
        "offset": 0,
        "slot": "5",
        "type": "t_struct(Counter)8117_storage"
      },
      {
        "astId": 19515,
        "contract": "contracts/nft/HATVaultsNFT.sol:HATVaultsNFT",
        "label": "deadline",
        "offset": 0,
        "slot": "6",
        "type": "t_uint256"
      },
      {
        "astId": 19525,
        "contract": "contracts/nft/HATVaultsNFT.sol:HATVaultsNFT",
        "label": "pausedVaults",
        "offset": 0,
        "slot": "7",
        "type": "t_mapping(t_bytes32,t_bool)"
      },
      {
        "astId": 19529,
        "contract": "contracts/nft/HATVaultsNFT.sol:HATVaultsNFT",
        "label": "vaultsRegistered",
        "offset": 0,
        "slot": "8",
        "type": "t_mapping(t_bytes32,t_bool)"
      },
      {
        "astId": 19535,
        "contract": "contracts/nft/HATVaultsNFT.sol:HATVaultsNFT",
        "label": "tokensRedeemed",
        "offset": 0,
        "slot": "9",
        "type": "t_mapping(t_uint256,t_mapping(t_address,t_bool))"
      },
      {
        "astId": 19539,
        "contract": "contracts/nft/HATVaultsNFT.sol:HATVaultsNFT",
        "label": "uris",
        "offset": 0,
        "slot": "10",
        "type": "t_mapping(t_uint256,t_string_storage)"
      }
    ],
    "types": {
      "t_address": {
        "encoding": "inplace",
        "label": "address",
        "numberOfBytes": "20"
      },
      "t_bool": {
        "encoding": "inplace",
        "label": "bool",
        "numberOfBytes": "1"
      },
      "t_bytes32": {
        "encoding": "inplace",
        "label": "bytes32",
        "numberOfBytes": "32"
      },
      "t_mapping(t_address,t_bool)": {
        "encoding": "mapping",
        "key": "t_address",
        "label": "mapping(address => bool)",
        "numberOfBytes": "32",
        "value": "t_bool"
      },
      "t_mapping(t_address,t_mapping(t_address,t_bool))": {
        "encoding": "mapping",
        "key": "t_address",
        "label": "mapping(address => mapping(address => bool))",
        "numberOfBytes": "32",
        "value": "t_mapping(t_address,t_bool)"
      },
      "t_mapping(t_address,t_uint256)": {
        "encoding": "mapping",
        "key": "t_address",
        "label": "mapping(address => uint256)",
        "numberOfBytes": "32",
        "value": "t_uint256"
      },
      "t_mapping(t_bytes32,t_bool)": {
        "encoding": "mapping",
        "key": "t_bytes32",
        "label": "mapping(bytes32 => bool)",
        "numberOfBytes": "32",
        "value": "t_bool"
      },
      "t_mapping(t_uint256,t_mapping(t_address,t_bool))": {
        "encoding": "mapping",
        "key": "t_uint256",
        "label": "mapping(uint256 => mapping(address => bool))",
        "numberOfBytes": "32",
        "value": "t_mapping(t_address,t_bool)"
      },
      "t_mapping(t_uint256,t_mapping(t_address,t_uint256))": {
        "encoding": "mapping",
        "key": "t_uint256",
        "label": "mapping(uint256 => mapping(address => uint256))",
        "numberOfBytes": "32",
        "value": "t_mapping(t_address,t_uint256)"
      },
      "t_mapping(t_uint256,t_string_storage)": {
        "encoding": "mapping",
        "key": "t_uint256",
        "label": "mapping(uint256 => string)",
        "numberOfBytes": "32",
        "value": "t_string_storage"
      },
      "t_string_storage": {
        "encoding": "bytes",
        "label": "string",
        "numberOfBytes": "32"
      },
      "t_struct(Counter)8117_storage": {
        "encoding": "inplace",
        "label": "struct Counters.Counter",
        "members": [
          {
            "astId": 8116,
            "contract": "contracts/nft/HATVaultsNFT.sol:HATVaultsNFT",
            "label": "_value",
            "offset": 0,
            "slot": "0",
            "type": "t_uint256"
          }
        ],
        "numberOfBytes": "32"
      },
      "t_uint256": {
        "encoding": "inplace",
        "label": "uint256",
        "numberOfBytes": "32"
      }
    }
  }
}