{
  "address": "0xbF7866939bF1A24a757b79e6ABEbb61FD3c37C57",
  "abi": [
    {
      "inputs": [
        {
          "internalType": "contract IHATVaultsV2",
          "name": "_hatVaults",
          "type": "address"
        }
      ],
      "stateMutability": "nonpayable",
      "type": "constructor"
    },
    {
      "inputs": [
        {
          "internalType": "uint256",
          "name": "_pid",
          "type": "uint256"
        },
        {
          "internalType": "address",
          "name": "_user",
          "type": "address"
        }
      ],
      "name": "getShares",
      "outputs": [
        {
          "internalType": "uint256",
          "name": "",
          "type": "uint256"
        }
      ],
      "stateMutability": "view",
      "type": "function"
    },
    {
      "inputs": [
        {
          "internalType": "uint256",
          "name": "_pid",
          "type": "uint256"
        }
      ],
      "name": "getTotalShares",
      "outputs": [
        {
          "internalType": "uint256",
          "name": "",
          "type": "uint256"
        }
      ],
      "stateMutability": "view",
      "type": "function"
    },
    {
      "inputs": [],
      "name": "hatVaults",
      "outputs": [
        {
          "internalType": "contract IHATVaultsV2",
          "name": "",
          "type": "address"
        }
      ],
      "stateMutability": "view",
      "type": "function"
    }
  ],
  "transactionHash": "0xeb95b126a071d69747948489479c7cb69623cf122555b8af40d62c5042f4051e",
  "args": [
    "0xbc69Ca2Bb6486Dd75F76F427a62b507414f945eB"
  ],
  "numDeployments": 1,
  "solcInputHash": "a88478e553c00767a3b8551e3701da57",
  "bytecode": "0x60803461007457601f61034d38819003918201601f19168301916001600160401b038311848410176100795780849260209460405283398101031261007457516001600160a01b0381169081900361007457600080546001600160a01b0319169190911790556040516102bd90816100908239f35b600080fd5b634e487b7160e01b600052604160045260246000fdfe608060408181526004918236101561001657600080fd5b600092833560e01c91826375c0b9fe1461016a5750816385fff85814610070575063b3dc5bde1461004657600080fd5b3461006c578160031936011261006c57905490516001600160a01b039091168152602090f35b5080fd5b83833461006c5760209283600319360112610166578254825162d8dc7760e31b81528235818401526001600160a01b0392909186908390602490829087165afa91821561015c5790869291869261012d575b5084516318160ddd60e01b81529384928391165afa9283156101225780936100ed575b505051908152f35b909192508382813d831161011b575b610106818361022b565b810103126101185750519083806100e5565b80fd5b503d6100fc565b8251903d90823e3d90fd5b61014e919250833d8511610155575b610146818361022b565b810190610263565b90876100c2565b503d61013c565b84513d87823e3d90fd5b8280fd5b848483346101665781600319360112610166576024356001600160a01b03818116929183900361022757908186939286541662d8dc7760e31b85528235838601528460246020998a935afa93841561021d57908793929187956101f9575b5090602491865195869485936370a0823160e01b8552840152165afa9283156101225780936100ed57505051908152f35b60249291955061021590853d871161015557610146818361022b565b9490916101c8565b85513d88823e3d90fd5b8480fd5b90601f8019910116810190811067ffffffffffffffff82111761024d57604052565b634e487b7160e01b600052604160045260246000fd5b9081602091031261028257516001600160a01b03811681036102825790565b600080fdfea26469706673582212202be59c1ca555a9f1fe2233b56233bffa0781ff4c4e2a25a7558a9fdabc59de0f64736f6c63430008100033",
  "devdoc": {
    "kind": "dev",
    "methods": {},
    "version": 1
  },
  "userdoc": {
    "kind": "user",
    "methods": {},
    "version": 1
  },
  "storageLayout": {
    "storage": [
      {
        "astId": 27778,
        "contract": "contracts/nft/HATVaultsV2Data.sol:HATVaultsV2Data",
        "label": "hatVaults",
        "offset": 0,
        "slot": "0",
        "type": "t_contract(IHATVaultsV2)24079"
      }
    ],
    "types": {
      "t_contract(IHATVaultsV2)24079": {
        "encoding": "inplace",
        "label": "contract IHATVaultsV2",
        "numberOfBytes": "20"
      }
    }
  }
}