{
  "address": "0xbc69Ca2Bb6486Dd75F76F427a62b507414f945eB",
  "abi": [
    {
      "inputs": [
        {
          "internalType": "address",
          "name": "_hatVaultImplementation",
          "type": "address"
        },
        {
          "internalType": "address",
          "name": "_hatClaimsManagerImplementation",
          "type": "address"
        },
        {
          "internalType": "address",
          "name": "_hatGovernance",
          "type": "address"
        },
        {
          "internalType": "address",
          "name": "_defaultArbitrator",
          "type": "address"
        },
        {
          "internalType": "address",
          "name": "_HAT",
          "type": "address"
        },
        {
          "internalType": "uint16",
          "name": "_bountyGovernanceHAT",
          "type": "uint16"
        },
        {
          "internalType": "uint16",
          "name": "_bountyHackerHATVested",
          "type": "uint16"
        },
        {
          "internalType": "contract ITokenLockFactory",
          "name": "_tokenLockFactory",
          "type": "address"
        }
      ],
      "stateMutability": "nonpayable",
      "type": "constructor"
    },
    {
      "inputs": [],
      "name": "AmountSwappedLessThanMinimum",
      "type": "error"
    },
    {
      "inputs": [],
      "name": "AmountToSwapIsZero",
      "type": "error"
    },
    {
      "inputs": [],
      "name": "ChallengePeriodTooLong",
      "type": "error"
    },
    {
      "inputs": [],
      "name": "ChallengePeriodTooShort",
      "type": "error"
    },
    {
      "inputs": [],
      "name": "ChallengeTimeOutPeriodTooLong",
      "type": "error"
    },
    {
      "inputs": [],
      "name": "ChallengeTimeOutPeriodTooShort",
      "type": "error"
    },
    {
      "inputs": [],
      "name": "ClaimFeeTransferFailed",
      "type": "error"
    },
    {
      "inputs": [],
      "name": "DelayTooShort",
      "type": "error"
    },
    {
      "inputs": [],
      "name": "HatVestingDurationSmallerThanPeriods",
      "type": "error"
    },
    {
      "inputs": [],
      "name": "HatVestingDurationTooLong",
      "type": "error"
    },
    {
      "inputs": [],
      "name": "HatVestingPeriodsCannotBeZero",
      "type": "error"
    },
    {
      "inputs": [],
      "name": "NotEnoughFeePaid",
      "type": "error"
    },
    {
      "inputs": [],
      "name": "SafetyPeriodTooLong",
      "type": "error"
    },
    {
      "inputs": [],
      "name": "SwapFailed",
      "type": "error"
    },
    {
      "inputs": [],
      "name": "TotalHatsSplitPercentageShouldBeUpToMaxHATSplit",
      "type": "error"
    },
    {
      "inputs": [],
      "name": "WithdrawPeriodTooShort",
      "type": "error"
    },
    {
      "inputs": [],
      "name": "WithdrawRequestEnabledPeriodTooLong",
      "type": "error"
    },
    {
      "inputs": [],
      "name": "WithdrawRequestEnabledPeriodTooShort",
      "type": "error"
    },
    {
      "inputs": [],
      "name": "WithdrawRequestPendingPeriodTooLong",
      "type": "error"
    },
    {
      "anonymous": false,
      "inputs": [
        {
          "indexed": true,
          "internalType": "address",
          "name": "_claimer",
          "type": "address"
        },
        {
          "indexed": false,
          "internalType": "string",
          "name": "_descriptionHash",
          "type": "string"
        }
      ],
      "name": "LogClaim",
      "type": "event"
    },
    {
      "anonymous": false,
      "inputs": [
        {
          "indexed": true,
          "internalType": "address",
          "name": "previousOwner",
          "type": "address"
        },
        {
          "indexed": true,
          "internalType": "address",
          "name": "newOwner",
          "type": "address"
        }
      ],
      "name": "OwnershipTransferred",
      "type": "event"
    },
    {
      "anonymous": false,
      "inputs": [
        {
          "indexed": false,
          "internalType": "address",
          "name": "_hatVaultImplementation",
          "type": "address"
        },
        {
          "indexed": false,
          "internalType": "address",
          "name": "_hatClaimsManagerImplementation",
          "type": "address"
        },
        {
          "indexed": false,
          "internalType": "address",
          "name": "_HAT",
          "type": "address"
        },
        {
          "indexed": false,
          "internalType": "address",
          "name": "_tokenLockFactory",
          "type": "address"
        },
        {
          "components": [
            {
              "internalType": "uint32",
              "name": "hatVestingDuration",
              "type": "uint32"
            },
            {
              "internalType": "uint32",
              "name": "hatVestingPeriods",
              "type": "uint32"
            },
            {
              "internalType": "uint32",
              "name": "withdrawPeriod",
              "type": "uint32"
            },
            {
              "internalType": "uint32",
              "name": "safetyPeriod",
              "type": "uint32"
            },
            {
              "internalType": "uint32",
              "name": "withdrawRequestEnablePeriod",
              "type": "uint32"
            },
            {
              "internalType": "uint32",
              "name": "withdrawRequestPendingPeriod",
              "type": "uint32"
            },
            {
              "internalType": "uint32",
              "name": "setMaxBountyDelay",
              "type": "uint32"
            },
            {
              "internalType": "uint256",
              "name": "claimFee",
              "type": "uint256"
            }
          ],
          "indexed": false,
          "internalType": "struct IHATVaultsRegistry.GeneralParameters",
          "name": "_generalParameters",
          "type": "tuple"
        },
        {
          "indexed": false,
          "internalType": "uint256",
          "name": "_bountyGovernanceHAT",
          "type": "uint256"
        },
        {
          "indexed": false,
          "internalType": "uint256",
          "name": "_bountyHackerHATVested",
          "type": "uint256"
        },
        {
          "indexed": false,
          "internalType": "address",
          "name": "_hatGovernance",
          "type": "address"
        },
        {
          "indexed": false,
          "internalType": "address",
          "name": "_defaultArbitrator",
          "type": "address"
        },
        {
          "indexed": false,
          "internalType": "uint256",
          "name": "_defaultChallengePeriod",
          "type": "uint256"
        },
        {
          "indexed": false,
          "internalType": "uint256",
          "name": "_defaultChallengeTimeOutPeriod",
          "type": "uint256"
        }
      ],
      "name": "RegistryCreated",
      "type": "event"
    },
    {
      "anonymous": false,
      "inputs": [
        {
          "indexed": false,
          "internalType": "uint256",
          "name": "_fee",
          "type": "uint256"
        }
      ],
      "name": "SetClaimFee",
      "type": "event"
    },
    {
      "anonymous": false,
      "inputs": [
        {
          "indexed": true,
          "internalType": "address",
          "name": "_defaultArbitrator",
          "type": "address"
        }
      ],
      "name": "SetDefaultArbitrator",
      "type": "event"
    },
    {
      "anonymous": false,
      "inputs": [
        {
          "indexed": false,
          "internalType": "uint256",
          "name": "_defaultChallengePeriod",
          "type": "uint256"
        }
      ],
      "name": "SetDefaultChallengePeriod",
      "type": "event"
    },
    {
      "anonymous": false,
      "inputs": [
        {
          "indexed": false,
          "internalType": "uint256",
          "name": "_defaultChallengeTimeOutPeriod",
          "type": "uint256"
        }
      ],
      "name": "SetDefaultChallengeTimeOutPeriod",
      "type": "event"
    },
    {
      "anonymous": false,
      "inputs": [
        {
          "indexed": false,
          "internalType": "uint256",
          "name": "_defaultBountyGovernanceHAT",
          "type": "uint256"
        },
        {
          "indexed": false,
          "internalType": "uint256",
          "name": "_defaultBountyHackerHATVested",
          "type": "uint256"
        }
      ],
      "name": "SetDefaultHATBountySplit",
      "type": "event"
    },
    {
      "anonymous": false,
      "inputs": [
        {
          "indexed": false,
          "internalType": "bool",
          "name": "_isEmergencyPaused",
          "type": "bool"
        }
      ],
      "name": "SetEmergencyPaused",
      "type": "event"
    },
    {
      "anonymous": false,
      "inputs": [
        {
          "indexed": true,
          "internalType": "address",
          "name": "_feeSetter",
          "type": "address"
        }
      ],
      "name": "SetFeeSetter",
      "type": "event"
    },
    {
      "anonymous": false,
      "inputs": [
        {
          "indexed": true,
          "internalType": "address",
          "name": "_hatClaimsManagerImplementation",
          "type": "address"
        }
      ],
      "name": "SetHATClaimsManagerImplementation",
      "type": "event"
    },
    {
      "anonymous": false,
      "inputs": [
        {
          "indexed": true,
          "internalType": "address",
          "name": "_hatVaultImplementation",
          "type": "address"
        }
      ],
      "name": "SetHATVaultImplementation",
      "type": "event"
    },
    {
      "anonymous": false,
      "inputs": [
        {
          "indexed": false,
          "internalType": "uint256",
          "name": "_duration",
          "type": "uint256"
        },
        {
          "indexed": false,
          "internalType": "uint256",
          "name": "_periods",
          "type": "uint256"
        }
      ],
      "name": "SetHatVestingParams",
      "type": "event"
    },
    {
      "anonymous": false,
      "inputs": [
        {
          "indexed": false,
          "internalType": "uint256",
          "name": "_delay",
          "type": "uint256"
        }
      ],
      "name": "SetMaxBountyDelay",
      "type": "event"
    },
    {
      "anonymous": false,
      "inputs": [
        {
          "indexed": true,
          "internalType": "address",
          "name": "_swapToken",
          "type": "address"
        }
      ],
      "name": "SetSwapToken",
      "type": "event"
    },
    {
      "anonymous": false,
      "inputs": [
        {
          "indexed": true,
          "internalType": "address",
          "name": "_vault",
          "type": "address"
        },
        {
          "indexed": true,
          "internalType": "bool",
          "name": "_visible",
          "type": "bool"
        }
      ],
      "name": "SetVaultVisibility",
      "type": "event"
    },
    {
      "anonymous": false,
      "inputs": [
        {
          "indexed": false,
          "internalType": "uint256",
          "name": "_withdrawRequestPendingPeriod",
          "type": "uint256"
        },
        {
          "indexed": false,
          "internalType": "uint256",
          "name": "_withdrawRequestEnablePeriod",
          "type": "uint256"
        }
      ],
      "name": "SetWithdrawRequestParams",
      "type": "event"
    },
    {
      "anonymous": false,
      "inputs": [
        {
          "indexed": false,
          "internalType": "uint256",
          "name": "_withdrawPeriod",
          "type": "uint256"
        },
        {
          "indexed": false,
          "internalType": "uint256",
          "name": "_safetyPeriod",
          "type": "uint256"
        }
      ],
      "name": "SetWithdrawSafetyPeriod",
      "type": "event"
    },
    {
      "anonymous": false,
      "inputs": [
        {
          "indexed": true,
          "internalType": "address",
          "name": "_beneficiary",
          "type": "address"
        },
        {
          "indexed": false,
          "internalType": "uint256",
          "name": "_amountSwapped",
          "type": "uint256"
        },
        {
          "indexed": false,
          "internalType": "uint256",
          "name": "_amountSent",
          "type": "uint256"
        },
        {
          "indexed": true,
          "internalType": "address",
          "name": "_tokenLock",
          "type": "address"
        }
      ],
      "name": "SwapAndSend",
      "type": "event"
    },
    {
      "anonymous": false,
      "inputs": [
        {
          "indexed": true,
          "internalType": "address",
          "name": "_vault",
          "type": "address"
        },
        {
          "indexed": true,
          "internalType": "address",
          "name": "_claimsManager",
          "type": "address"
        },
        {
          "components": [
            {
              "internalType": "string",
              "name": "name",
              "type": "string"
            },
            {
              "internalType": "string",
              "name": "symbol",
              "type": "string"
            },
            {
              "internalType": "contract IRewardController[]",
              "name": "rewardControllers",
              "type": "address[]"
            },
            {
              "internalType": "contract IERC20",
              "name": "asset",
              "type": "address"
            },
            {
              "internalType": "address",
              "name": "owner",
              "type": "address"
            },
            {
              "internalType": "bool",
              "name": "isPaused",
              "type": "bool"
            },
            {
              "internalType": "string",
              "name": "descriptionHash",
              "type": "string"
            }
          ],
          "indexed": false,
          "internalType": "struct IHATVault.VaultInitParams",
          "name": "_vaultParams",
          "type": "tuple"
        },
        {
          "components": [
            {
              "internalType": "uint32",
              "name": "vestingDuration",
              "type": "uint32"
            },
            {
              "internalType": "uint32",
              "name": "vestingPeriods",
              "type": "uint32"
            },
            {
              "internalType": "uint16",
              "name": "maxBounty",
              "type": "uint16"
            },
            {
              "components": [
                {
                  "internalType": "uint16",
                  "name": "hackerVested",
                  "type": "uint16"
                },
                {
                  "internalType": "uint16",
                  "name": "hacker",
                  "type": "uint16"
                },
                {
                  "internalType": "uint16",
                  "name": "committee",
                  "type": "uint16"
                }
              ],
              "internalType": "struct IHATClaimsManager.BountySplit",
              "name": "bountySplit",
              "type": "tuple"
            },
            {
              "internalType": "address",
              "name": "owner",
              "type": "address"
            },
            {
              "internalType": "address",
              "name": "committee",
              "type": "address"
            },
            {
              "internalType": "address",
              "name": "arbitrator",
              "type": "address"
            },
            {
              "internalType": "bool",
              "name": "arbitratorCanChangeBounty",
              "type": "bool"
            },
            {
              "internalType": "bool",
              "name": "arbitratorCanChangeBeneficiary",
              "type": "bool"
            },
            {
              "internalType": "bool",
              "name": "arbitratorCanSubmitClaims",
              "type": "bool"
            },
            {
              "internalType": "bool",
              "name": "isTokenLockRevocable",
              "type": "bool"
            }
          ],
          "indexed": false,
          "internalType": "struct IHATClaimsManager.ClaimsManagerInitParams",
          "name": "_claimsManagerParams",
          "type": "tuple"
        }
      ],
      "name": "VaultCreated",
      "type": "event"
    },
    {
      "inputs": [],
      "name": "HAT",
      "outputs": [
        {
          "internalType": "contract IERC20",
          "name": "",
          "type": "address"
        }
      ],
      "stateMutability": "view",
      "type": "function"
    },
    {
      "inputs": [],
      "name": "HUNDRED_PERCENT",
      "outputs": [
        {
          "internalType": "uint16",
          "name": "",
          "type": "uint16"
        }
      ],
      "stateMutability": "view",
      "type": "function"
    },
    {
      "inputs": [],
      "name": "MAX_HAT_SPLIT",
      "outputs": [
        {
          "internalType": "uint16",
          "name": "",
          "type": "uint16"
        }
      ],
      "stateMutability": "view",
      "type": "function"
    },
    {
      "inputs": [
        {
          "internalType": "contract IERC20",
          "name": "_asset",
          "type": "address"
        },
        {
          "internalType": "address",
          "name": "_hacker",
          "type": "address"
        },
        {
          "internalType": "uint256",
          "name": "_hackersHatReward",
          "type": "uint256"
        },
        {
          "internalType": "uint256",
          "name": "_governanceHatReward",
          "type": "uint256"
        }
      ],
      "name": "addTokensToSwap",
      "outputs": [],
      "stateMutability": "nonpayable",
      "type": "function"
    },
    {
      "inputs": [
        {
          "components": [
            {
              "internalType": "string",
              "name": "name",
              "type": "string"
            },
            {
              "internalType": "string",
              "name": "symbol",
              "type": "string"
            },
            {
              "internalType": "contract IRewardController[]",
              "name": "rewardControllers",
              "type": "address[]"
            },
            {
              "internalType": "contract IERC20",
              "name": "asset",
              "type": "address"
            },
            {
              "internalType": "address",
              "name": "owner",
              "type": "address"
            },
            {
              "internalType": "bool",
              "name": "isPaused",
              "type": "bool"
            },
            {
              "internalType": "string",
              "name": "descriptionHash",
              "type": "string"
            }
          ],
          "internalType": "struct IHATVault.VaultInitParams",
          "name": "_vaultParams",
          "type": "tuple"
        },
        {
          "components": [
            {
              "internalType": "uint32",
              "name": "vestingDuration",
              "type": "uint32"
            },
            {
              "internalType": "uint32",
              "name": "vestingPeriods",
              "type": "uint32"
            },
            {
              "internalType": "uint16",
              "name": "maxBounty",
              "type": "uint16"
            },
            {
              "components": [
                {
                  "internalType": "uint16",
                  "name": "hackerVested",
                  "type": "uint16"
                },
                {
                  "internalType": "uint16",
                  "name": "hacker",
                  "type": "uint16"
                },
                {
                  "internalType": "uint16",
                  "name": "committee",
                  "type": "uint16"
                }
              ],
              "internalType": "struct IHATClaimsManager.BountySplit",
              "name": "bountySplit",
              "type": "tuple"
            },
            {
              "internalType": "address",
              "name": "owner",
              "type": "address"
            },
            {
              "internalType": "address",
              "name": "committee",
              "type": "address"
            },
            {
              "internalType": "address",
              "name": "arbitrator",
              "type": "address"
            },
            {
              "internalType": "bool",
              "name": "arbitratorCanChangeBounty",
              "type": "bool"
            },
            {
              "internalType": "bool",
              "name": "arbitratorCanChangeBeneficiary",
              "type": "bool"
            },
            {
              "internalType": "bool",
              "name": "arbitratorCanSubmitClaims",
              "type": "bool"
            },
            {
              "internalType": "bool",
              "name": "isTokenLockRevocable",
              "type": "bool"
            }
          ],
          "internalType": "struct IHATClaimsManager.ClaimsManagerInitParams",
          "name": "_claimsManagerParams",
          "type": "tuple"
        }
      ],
      "name": "createVault",
      "outputs": [
        {
          "internalType": "address",
          "name": "vault",
          "type": "address"
        },
        {
          "internalType": "address",
          "name": "vaultClaimsManager",
          "type": "address"
        }
      ],
      "stateMutability": "nonpayable",
      "type": "function"
    },
    {
      "inputs": [],
      "name": "defaultArbitrator",
      "outputs": [
        {
          "internalType": "address",
          "name": "",
          "type": "address"
        }
      ],
      "stateMutability": "view",
      "type": "function"
    },
    {
      "inputs": [],
      "name": "defaultBountyGovernanceHAT",
      "outputs": [
        {
          "internalType": "uint16",
          "name": "",
          "type": "uint16"
        }
      ],
      "stateMutability": "view",
      "type": "function"
    },
    {
      "inputs": [],
      "name": "defaultBountyHackerHATVested",
      "outputs": [
        {
          "internalType": "uint16",
          "name": "",
          "type": "uint16"
        }
      ],
      "stateMutability": "view",
      "type": "function"
    },
    {
      "inputs": [],
      "name": "defaultChallengePeriod",
      "outputs": [
        {
          "internalType": "uint32",
          "name": "",
          "type": "uint32"
        }
      ],
      "stateMutability": "view",
      "type": "function"
    },
    {
      "inputs": [],
      "name": "defaultChallengeTimeOutPeriod",
      "outputs": [
        {
          "internalType": "uint32",
          "name": "",
          "type": "uint32"
        }
      ],
      "stateMutability": "view",
      "type": "function"
    },
    {
      "inputs": [],
      "name": "feeSetter",
      "outputs": [
        {
          "internalType": "address",
          "name": "",
          "type": "address"
        }
      ],
      "stateMutability": "view",
      "type": "function"
    },
    {
      "inputs": [],
      "name": "generalParameters",
      "outputs": [
        {
          "internalType": "uint32",
          "name": "hatVestingDuration",
          "type": "uint32"
        },
        {
          "internalType": "uint32",
          "name": "hatVestingPeriods",
          "type": "uint32"
        },
        {
          "internalType": "uint32",
          "name": "withdrawPeriod",
          "type": "uint32"
        },
        {
          "internalType": "uint32",
          "name": "safetyPeriod",
          "type": "uint32"
        },
        {
          "internalType": "uint32",
          "name": "withdrawRequestEnablePeriod",
          "type": "uint32"
        },
        {
          "internalType": "uint32",
          "name": "withdrawRequestPendingPeriod",
          "type": "uint32"
        },
        {
          "internalType": "uint32",
          "name": "setMaxBountyDelay",
          "type": "uint32"
        },
        {
          "internalType": "uint256",
          "name": "claimFee",
          "type": "uint256"
        }
      ],
      "stateMutability": "view",
      "type": "function"
    },
    {
      "inputs": [],
      "name": "getNumberOfVaults",
      "outputs": [
        {
          "internalType": "uint256",
          "name": "",
          "type": "uint256"
        }
      ],
      "stateMutability": "view",
      "type": "function"
    },
    {
      "inputs": [],
      "name": "getSafetyPeriod",
      "outputs": [
        {
          "internalType": "uint256",
          "name": "",
          "type": "uint256"
        }
      ],
      "stateMutability": "view",
      "type": "function"
    },
    {
      "inputs": [],
      "name": "getSetMaxBountyDelay",
      "outputs": [
        {
          "internalType": "uint256",
          "name": "",
          "type": "uint256"
        }
      ],
      "stateMutability": "view",
      "type": "function"
    },
    {
      "inputs": [],
      "name": "getWithdrawPeriod",
      "outputs": [
        {
          "internalType": "uint256",
          "name": "",
          "type": "uint256"
        }
      ],
      "stateMutability": "view",
      "type": "function"
    },
    {
      "inputs": [],
      "name": "getWithdrawRequestEnablePeriod",
      "outputs": [
        {
          "internalType": "uint256",
          "name": "",
          "type": "uint256"
        }
      ],
      "stateMutability": "view",
      "type": "function"
    },
    {
      "inputs": [],
      "name": "getWithdrawRequestPendingPeriod",
      "outputs": [
        {
          "internalType": "uint256",
          "name": "",
          "type": "uint256"
        }
      ],
      "stateMutability": "view",
      "type": "function"
    },
    {
      "inputs": [
        {
          "internalType": "address",
          "name": "",
          "type": "address"
        }
      ],
      "name": "governanceHatReward",
      "outputs": [
        {
          "internalType": "uint256",
          "name": "",
          "type": "uint256"
        }
      ],
      "stateMutability": "view",
      "type": "function"
    },
    {
      "inputs": [
        {
          "internalType": "address",
          "name": "",
          "type": "address"
        },
        {
          "internalType": "address",
          "name": "",
          "type": "address"
        }
      ],
      "name": "hackersHatReward",
      "outputs": [
        {
          "internalType": "uint256",
          "name": "",
          "type": "uint256"
        }
      ],
      "stateMutability": "view",
      "type": "function"
    },
    {
      "inputs": [],
      "name": "hatClaimsManagerImplementation",
      "outputs": [
        {
          "internalType": "address",
          "name": "",
          "type": "address"
        }
      ],
      "stateMutability": "view",
      "type": "function"
    },
    {
      "inputs": [],
      "name": "hatVaultImplementation",
      "outputs": [
        {
          "internalType": "address",
          "name": "",
          "type": "address"
        }
      ],
      "stateMutability": "view",
      "type": "function"
    },
    {
      "inputs": [
        {
          "internalType": "uint256",
          "name": "",
          "type": "uint256"
        }
      ],
      "name": "hatVaults",
      "outputs": [
        {
          "internalType": "address",
          "name": "",
          "type": "address"
        }
      ],
      "stateMutability": "view",
      "type": "function"
    },
    {
      "inputs": [],
      "name": "isEmergencyPaused",
      "outputs": [
        {
          "internalType": "bool",
          "name": "",
          "type": "bool"
        }
      ],
      "stateMutability": "view",
      "type": "function"
    },
    {
      "inputs": [
        {
          "internalType": "address",
          "name": "",
          "type": "address"
        }
      ],
      "name": "isVaultVisible",
      "outputs": [
        {
          "internalType": "bool",
          "name": "",
          "type": "bool"
        }
      ],
      "stateMutability": "view",
      "type": "function"
    },
    {
      "inputs": [
        {
          "internalType": "string",
          "name": "_descriptionHash",
          "type": "string"
        }
      ],
      "name": "logClaim",
      "outputs": [],
      "stateMutability": "payable",
      "type": "function"
    },
    {
      "inputs": [],
      "name": "owner",
      "outputs": [
        {
          "internalType": "address",
          "name": "",
          "type": "address"
        }
      ],
      "stateMutability": "view",
      "type": "function"
    },
    {
      "inputs": [],
      "name": "renounceOwnership",
      "outputs": [],
      "stateMutability": "nonpayable",
      "type": "function"
    },
    {
      "inputs": [
        {
          "internalType": "uint256",
          "name": "_fee",
          "type": "uint256"
        }
      ],
      "name": "setClaimFee",
      "outputs": [],
      "stateMutability": "nonpayable",
      "type": "function"
    },
    {
      "inputs": [
        {
          "internalType": "address",
          "name": "_defaultArbitrator",
          "type": "address"
        }
      ],
      "name": "setDefaultArbitrator",
      "outputs": [],
      "stateMutability": "nonpayable",
      "type": "function"
    },
    {
      "inputs": [
        {
          "internalType": "uint32",
          "name": "_defaultChallengePeriod",
          "type": "uint32"
        }
      ],
      "name": "setDefaultChallengePeriod",
      "outputs": [],
      "stateMutability": "nonpayable",
      "type": "function"
    },
    {
      "inputs": [
        {
          "internalType": "uint32",
          "name": "_defaultChallengeTimeOutPeriod",
          "type": "uint32"
        }
      ],
      "name": "setDefaultChallengeTimeOutPeriod",
      "outputs": [],
      "stateMutability": "nonpayable",
      "type": "function"
    },
    {
      "inputs": [
        {
          "internalType": "uint16",
          "name": "_defaultBountyGovernanceHAT",
          "type": "uint16"
        },
        {
          "internalType": "uint16",
          "name": "_defaultBountyHackerHATVested",
          "type": "uint16"
        }
      ],
      "name": "setDefaultHATBountySplit",
      "outputs": [],
      "stateMutability": "nonpayable",
      "type": "function"
    },
    {
      "inputs": [
        {
          "internalType": "bool",
          "name": "_isEmergencyPaused",
          "type": "bool"
        }
      ],
      "name": "setEmergencyPaused",
      "outputs": [],
      "stateMutability": "nonpayable",
      "type": "function"
    },
    {
      "inputs": [
        {
          "internalType": "address",
          "name": "_feeSetter",
          "type": "address"
        }
      ],
      "name": "setFeeSetter",
      "outputs": [],
      "stateMutability": "nonpayable",
      "type": "function"
    },
    {
      "inputs": [
        {
          "internalType": "uint32",
          "name": "_duration",
          "type": "uint32"
        },
        {
          "internalType": "uint32",
          "name": "_periods",
          "type": "uint32"
        }
      ],
      "name": "setHatVestingParams",
      "outputs": [],
      "stateMutability": "nonpayable",
      "type": "function"
    },
    {
      "inputs": [
        {
          "internalType": "uint32",
          "name": "_delay",
          "type": "uint32"
        }
      ],
      "name": "setMaxBountyDelay",
      "outputs": [],
      "stateMutability": "nonpayable",
      "type": "function"
    },
    {
      "inputs": [
        {
          "internalType": "address",
          "name": "_swapToken",
          "type": "address"
        }
      ],
      "name": "setSwapToken",
      "outputs": [],
      "stateMutability": "nonpayable",
      "type": "function"
    },
    {
      "inputs": [
        {
          "internalType": "address",
          "name": "_hatVaultImplementation",
          "type": "address"
        },
        {
          "internalType": "address",
          "name": "_hatClaimsManagerImplementation",
          "type": "address"
        }
      ],
      "name": "setVaultImplementations",
      "outputs": [],
      "stateMutability": "nonpayable",
      "type": "function"
    },
    {
      "inputs": [
        {
          "internalType": "address",
          "name": "_vault",
          "type": "address"
        },
        {
          "internalType": "bool",
          "name": "_visible",
          "type": "bool"
        }
      ],
      "name": "setVaultVisibility",
      "outputs": [],
      "stateMutability": "nonpayable",
      "type": "function"
    },
    {
      "inputs": [
        {
          "internalType": "uint32",
          "name": "_withdrawRequestPendingPeriod",
          "type": "uint32"
        },
        {
          "internalType": "uint32",
          "name": "_withdrawRequestEnablePeriod",
          "type": "uint32"
        }
      ],
      "name": "setWithdrawRequestParams",
      "outputs": [],
      "stateMutability": "nonpayable",
      "type": "function"
    },
    {
      "inputs": [
        {
          "internalType": "uint32",
          "name": "_withdrawPeriod",
          "type": "uint32"
        },
        {
          "internalType": "uint32",
          "name": "_safetyPeriod",
          "type": "uint32"
        }
      ],
      "name": "setWithdrawSafetyPeriod",
      "outputs": [],
      "stateMutability": "nonpayable",
      "type": "function"
    },
    {
      "inputs": [
        {
          "internalType": "address",
          "name": "_asset",
          "type": "address"
        },
        {
          "internalType": "address[]",
          "name": "_beneficiaries",
          "type": "address[]"
        },
        {
          "internalType": "uint256",
          "name": "_amountOutMinimum",
          "type": "uint256"
        },
        {
          "internalType": "address",
          "name": "_routingContract",
          "type": "address"
        },
        {
          "internalType": "bytes",
          "name": "_routingPayload",
          "type": "bytes"
        }
      ],
      "name": "swapAndSend",
      "outputs": [],
      "stateMutability": "nonpayable",
      "type": "function"
    },
    {
      "inputs": [],
      "name": "tokenLockFactory",
      "outputs": [
        {
          "internalType": "contract ITokenLockFactory",
          "name": "",
          "type": "address"
        }
      ],
      "stateMutability": "view",
      "type": "function"
    },
    {
      "inputs": [
        {
          "internalType": "address",
          "name": "newOwner",
          "type": "address"
        }
      ],
      "name": "transferOwnership",
      "outputs": [],
      "stateMutability": "nonpayable",
      "type": "function"
    },
    {
      "inputs": [
        {
          "internalType": "uint32",
          "name": "_challengePeriod",
          "type": "uint32"
        }
      ],
      "name": "validateChallengePeriod",
      "outputs": [],
      "stateMutability": "pure",
      "type": "function"
    },
    {
      "inputs": [
        {
          "internalType": "uint32",
          "name": "_challengeTimeOutPeriod",
          "type": "uint32"
        }
      ],
      "name": "validateChallengeTimeOutPeriod",
      "outputs": [],
      "stateMutability": "pure",
      "type": "function"
    },
    {
      "inputs": [
        {
          "internalType": "uint16",
          "name": "_bountyGovernanceHAT",
          "type": "uint16"
        },
        {
          "internalType": "uint16",
          "name": "_bountyHackerHATVested",
          "type": "uint16"
        }
      ],
      "name": "validateHATSplit",
      "outputs": [],
      "stateMutability": "pure",
      "type": "function"
    }
  ],
  "transactionHash": "0x9dd91927f81c9342d04be3b2744b49fc9bfb6bdc70df43afec8392e21f5886c2",
  "args": [
    "0x8E4eC231eA4924453FA56E639F86bA40c3DbFAbe",
    "0xbf436D3d1e947A2AD75FDC321Ce5dE442D406d3c",
    "0x4D22e37Eb4d71D1acc5f4889a65936D2a44A2f15",
    "0x63c09aB3B0115641411cEd403994F22C4C142b59",
    "0x215AAf070aa1dB0C23C25704Db9D277bd1311182",
    "1000",
    "0",
    "0xeFF7b2eab5397f3b6F2Ac08a91446AC512Ab7c98"
  ],
  "numDeployments": 1,
  "solcInputHash": "a88478e553c00767a3b8551e3701da57",
  "bytecode": "0x60a03462000377576001600160401b03601f62002a3538819003918201601f19168401918383118584101762000339578085926101009460405283398101031262000377576200004f826200037c565b6200005d602084016200037c565b6200006b604085016200037c565b906200007a606086016200037c565b62000088608087016200037c565b926200009760a0880162000391565b9560e0620000a860c08a0162000391565b980151976001600160a01b03891689036200037757620000c833620003a1565b620000d383620003a1565b600180546001600160a01b038981166001600160a01b03199283161790925560028054888416908316179055600980549289169290911691909117905561ffff91818316898416018381116200036157836107d09116116200034f5789608052604051986101008a01918a83109083111762000339577f145f97cb6defd6bcdc0026b6f32d97ad339e4907966eb3151aa7b9a1fced3d869a600060e06102409c87956040526276a7008152605a6020820152619ab06040820152610e10606082015262093a8080608083015260a08201526202a30060c082015201527a02a30000093a8000093a8000000e1000009ab00000005a0076a70063ffffffff60e01b600754161798896007556000600855600a5461ffff60b01b8660b01b169061ffff60a01b8560a01b169063ffffffff60a01b19161717600a556201499760cf1b63ffffffff60c81b196107e960af1b60018060a01b038b166bffffffffffffff00000000ff60a01b600b5416171716179889600b556040519b60018060a01b03168c5260018060a01b031660208c015260018060a01b031660408b015260018060a01b031660608a01526276a70060808a015263ffffffff8881809a60201c1660a08c0152818160401c1660c08c0152818160601c1660e08c0152818160801c166101008c0152818160a01c166101208c015260c01c166101408a015260006101608a015216610180880152166101a086015260018060a01b03166101c085015260018060a01b03166101e0840152818160a81c1661020084015260c81c16610220820152a16040516126479081620003ee823960805181818161086501526119120152f35b634e487b7160e01b600052604160045260246000fd5b6040516307af556960e21b8152600490fd5b634e487b7160e01b600052601160045260246000fd5b600080fd5b51906001600160a01b03821682036200037757565b519061ffff821682036200037757565b600080546001600160a01b039283166001600160a01b03198216811783556040519093909116917f8be0079c531659141344cd1fd0a4f28419497f9722a3daafe3b4186f6b6457e091a356fe608080604052600436101561001357600080fd5b600090813560e01c90816306c6e3b8146119685750806311566d741461194157806311c2aae3146118fc578063120c1a7e146118d7578063165db9a9146118b55780631a95cf06146117cc57806321c0437a146117a35780632350e92d146116aa578063250c2cd914611629578063290d10c4146116035780632e75ab50146115b35780632ea7f2501461158c5780633449a86514611563578063354d75b9146115185780633bd495ce146114f15780634f9627b0146113fc57806351edd99b146111e357806354492078146111be5780635dd11415146110fa5780636c0d189a146110605780636ed93dd014611043578063715018a614610fe557806376c0f6d414610fbc57806377c9cd8c14610f9557806387cf3ef414610f6c578063891ce46714610f4a5780638da5cb5b14610f235780638e19861614610e7a57806392b2fd3414610de15780639d0ab89f14610d71578063a3fe95b214610cf0578063a8acd94614610c85578063aec1d10814610c09578063b19805af14610b9e578063b851b7ca14610b33578063bcfdfc5814610afa578063d3e0bc5614610adc578063db0f267b14610ab3578063db39905314610a74578063df1b1ebe14610a04578063e2b001bf1461048f578063e367497d146103bb578063ea55f18e1461039e578063eeb3388714610377578063f2fde38b146102b1578063f4bde0971461028a578063f51a90e4146102635763fb9a87401461023157600080fd5b346102605760403660031901126102605761025b61024d611a28565b610255611a39565b9061217d565b604051f35b80fd5b5034610260578060031936011261026057602063ffffffff600b5460c81c16604051908152f35b5034610260578060031936011261026057602063ffffffff60075460801c16604051908152f35b5034610260576020366003190112610260576102cb6119e8565b6102d3611a77565b6001600160a01b03908116801561032357600080546001600160a01b03198116831782556040519316907f8be0079c531659141344cd1fd0a4f28419497f9722a3daafe3b4186f6b6457e09084a3f35b60405162461bcd60e51b815260206004820152602660248201527f4f776e61626c653a206e6577206f776e657220697320746865207a65726f206160448201526564647265737360d01b6064820152608490fd5b5034610260578060031936011261026057602063ffffffff60075460601c16604051908152f35b503461026057806003193601126102605760206040516107d08152f35b506020366003190112610260576004356001600160401b03811161048b576103e7903690600401611a4a565b9060085480610435575b5061042d7f9fcc410c642f895d8e83453cc710a30c7f00e42070fb7fd399c29b24781615e8916040519182916020835233956020840191611b42565b0390a2604051f35b341061047957825460405184918291829134906001600160a01b03165af161045b611b03565b501561046757386103f1565b60405163684fb74f60e11b8152600490fd5b604051633244470d60e01b8152600490fd5b5080fd5b50346102605760a0366003190112610260576104a96119e8565b6001600160401b03908160243511610a0057366023602435011215610a0057816024356004013511610a005736602480356004013560051b8135010111610a00576064356001600160a01b03811690036109fb576084358281116109f757610515903690600401611a4a565b929091610520611a77565b604051916101008301908111838210176109e157604052848252846020830152846040830152846060830152846080830152606060a08301528460c08301528460e083015261057460243560040135612044565b6105816040519182611ae2565b60046024350135808252601f199061059890612044565b0136602083013760a08301526001600160a01b03811685526006602052604085205460c083018190528252845b60243560040135811061093457508151156109225761062d61061a610607879660018060a01b036009541696606435604435885160018060a01b03891661222b565b9081602087015260408601528451612093565b8060e085015260c08401518451916120e3565b6080830152610647602083015160c08401518451916120e3565b6001600160a01b038216855260066020526040852055835b6024356004013581106106c057505060406106ad9260806000805160206125f28339815191529360018060a01b038754169586936106a586840151606085015190612093565b9485916120a0565b01519082519182526020820152a3604051f35b6106df60408401516106d68360a087015161207f565b518551916120e3565b906106ff60e08501516106f68360a088015161207f565b518651916120e3565b61070d836060870151611e51565b606086015261073160208601516107288460a089015161207f565b518751916120e3565b6001600160a01b0385811689526005602052604089209061076461075f86602480356004810135910161205b565b61206b565b1660005260205260406000205586836107c9575b600193906000805160206125f2833981519152906040906001600160a01b036107ae61075f88602480356004810135910161205b565b169382519586526020860152868060a01b031693a30161065f565b506107e261075f8360243560040135602480350161205b565b60075463ffffffff906107f782821642611e51565b60405193631112d5bd60e11b85528a60048601528b602486015260018060a01b0316604485015286606485015242608485015260a484015260201c1660c48201528760e482015287610104820152876101248201526001610144820152602081610164818b60018060a01b037f0000000000000000000000000000000000000000000000000000000000000000165af19081156109175788916108c1575b50926000805160206125f28339815191526040856108b784600198928c6120a0565b9295505050610778565b90506020813d60201161090f575b816108dc60209383611ae2565b8101031261090b5751926001600160a01b038416840361090b57926000805160206125f2833981519152610895565b8780fd5b3d91506108cf565b6040513d8a823e3d90fd5b60405163dbe66a0f60e01b8152600490fd5b6001600160a01b0382811687526005602052604087206001929161096561075f84602480356004810135910161205b565b166000526020526040600020546109808260a087015161207f565b52818060a01b0383168752600560205260408720828060a01b036109b261075f8460243560040135602480350161205b565b16600052602052866040600020556109d96109d18260a087015161207f565b518551611e51565b8452016105c5565b634e487b7160e01b600052604160045260246000fd5b8380fd5b600080fd5b8280fd5b50346102605780600319360112610260576101006007546008546040519163ffffffff908181168452818160201c166020850152818160401c166040850152818160601c166060850152818160801c166080850152818160a01c1660a085015260c01c1660c083015260e0820152f35b50346102605760203660031901126102605760209060ff906040906001600160a01b03610a9f6119e8565b168152600484522054166040519015158152f35b5034610260578060031936011261026057600b546040516001600160a01b039091168152602090f35b50346102605780600319360112610260576020600354604051908152f35b5034610260576020366003190112610260576020906040906001600160a01b03610b226119e8565b168152600683522054604051908152f35b503461026057602036600319011261026057610b4d6119e8565b610b55611a77565b600980546001600160a01b0319166001600160a01b03929092169182179055604051907f611a318453985b405b2f5e92971f8c383619cf48b7bf4acf39e83ed1e11118058383a2f35b503461026057602036600319011261026057610bb86119e8565b610bc0611a77565b600a80546001600160a01b0319166001600160a01b03929092169182179055604051907f9993507f53024702e2de1be66f6c48c8957ac708927b86b3bdf4e335f58694708383a2f35b503461026057604036600319011261026057610c236119e8565b602435908115158092036109fb57610c39611a77565b6001600160a01b031680835260046020526040808420805460ff191660ff85161790555191907f0f8de79a0a8e021d06491203f918550c01da39c26f2e03c5f5571c75edb7d9378484a3f35b503461026057602036600319011261026057610c9f6119e8565b610ca7611a77565b600b80546001600160a01b0319166001600160a01b03929092169182179055604051907f4664bc54da0879a6626395d3154ebb4adef21b4ced228635ce9583e86148a9a78383a2f35b5034610260576020366003190112610260577fe6f3ddadc73ca32beb7d9755d5a7d82ab53101c097e743fd05412e6a1ce9deb96020610d2d6119c2565b610d35611a77565b610d3e816121ec565b600b805463ffffffff60c81b191660c883901b63ffffffff60c81b1617905560405163ffffffff919091168152a1604051f35b5034610260576020366003190112610260576004358015158091036109fb5760207fa18d588b4da0466ca9a3ade6753c1cf94f4ccc599b9134045aeb55aef53293c891610dbc611a77565b600b805460ff60a01b191660a083901b60ff60a01b16179055604051908152a1604051f35b5034610260576040366003190112610260577f9b9cfb21b737a43af5e89fc41ea51449648ce863399879a0625210588b164e5a6040610e1e611a28565b610e26611a39565b90610e2f611a77565b610e39828261217d565b600a805463ffffffff60a01b191660a083901b61ffff60a01b161760b084901b61ffff60b01b16179055825161ffff918216815291166020820152a1604051f35b503461026057604036600319011261026057610e946119e8565b610e9c6119fe565b610ea4611a77565b60018060a01b03809216916bffffffffffffffffffffffff60a01b91838360015416176001551680916002541617600255604051917feac8457547162e2accd580b874fe79b197ffd5f65d8bcdbb06f09e8e77ce8cce8484a27ff3fff25c627ab1f1778dd74b43fd23a80290813aea1005b549363769e8c393b38383a2f35b5034610260578060031936011261026057546040516001600160a01b039091168152602090f35b50346102605760203660031901126102605761025b610f676119c2565b6121ec565b5034610260578060031936011261026057600a546040516001600160a01b039091168152602090f35b5034610260578060031936011261026057602063ffffffff60075460c01c16604051908152f35b50346102605780600319360112610260576002546040516001600160a01b039091168152602090f35b5034610260578060031936011261026057610ffe611a77565b600080546001600160a01b03198116825560405191906001600160a01b03167f8be0079c531659141344cd1fd0a4f28419497f9722a3daafe3b4186f6b6457e08284a3f35b503461026057806003193601126102605760206040516127108152f35b50346102605760203660031901126102605761107a6119c2565b611082611a77565b63ffffffff8116906202a30082106110e8576007805463ffffffff60c01b191660c09290921b63ffffffff60c01b169190911790556040519081527fc2f118f047950efbfb94865ef4fc99eedc6b5e992e4fb970552deba4fda0d8e490602090a1604051f35b60405163514e00f160e01b8152600490fd5b5034610260576080366003190112610260576111146119e8565b61117561111f6119fe565b6044356064359160018060a01b03908186169182885260056020526040882091166000526020526040600020611156838254611e51565b9055855260066020526040852061116e838254611e51565b9055611e51565b604051906323b872dd60e01b602083015233602483015230604483015260648201526064815260a08101918183106001600160401b038411176109e15761025b92604052611e74565b5034610260578060031936011261026057602061ffff600a5460a01c16604051908152f35b503461026057600319906101c0368301811361048b57600435926001600160401b038411610a005760e09084600401943603011261048b576101a036602319011261048b576001546001600160a01b039190611240908316611dbd565b9261124e8360025416611dbd565b9483851692833b15610a005760405194630ecdd7e360e01b8652871694856004820152604060248201528381806112886044820187611b94565b038183895af180156113de576113e9575b50843b15610a005760405163806f7f5760e01b8152600481018590526112c160248201611cb6565b83816101c481838a5af180156113de579084916113ca575b505060035492680100000000000000008410156113b6575060018301806003558310156113a0577fc2d61ee5e254c0e3a4ec5cb258597d0c1beb54c1d842a1eb735e728b09201bed9260036000527fc2575a0e9e593c00f959f8c92f12db2869c3395a3b0502d05e2516446f71f85b01846bffffffffffffffffffffffff60a01b825416179055611374604051928284938452830190611b94565b61138060208301611cb6565b0390a3604080516001600160a01b03928316815292909116602083015290f35b634e487b7160e01b600052603260045260246000fd5b634e487b7160e01b81526041600452602490fd5b6113d390611acf565b610a005782386112d9565b6040513d86823e3d90fd5b6113f590939193611acf565b9138611299565b5034610260576040366003190112610260576114166119c2565b61141e6119d5565b611426611a77565b63ffffffff918281169262ed4e008410156114df57821680156114cd5783106114bb577fa3d5527033c65a7e5eda0ffec2fe75b8bfc358a419914452e5e29993f531136d926007549067ffffffff000000008460201b16916001600160401b03191617176007556114b36040519283928390602090939293604083019463ffffffff809216845216910152565b0390a1604051f35b6040516301a127dd60e51b8152600490fd5b60405163497a0fc360e01b8152600490fd5b60405163181b6a8d60e01b8152600490fd5b5034610260578060031936011261026057602063ffffffff60075460a01c16604051908152f35b50346102605760403660031901126102605760406020916115376119e8565b61153f6119fe565b6001600160a01b039182168352600585528383209116825283522054604051908152f35b50346102605780600319360112610260576009546040516001600160a01b039091168152602090f35b5034610260578060031936011261026057602063ffffffff60075460401c16604051908152f35b5034610260576020366003190112610260577f13fa675fefcae94b0250d92c1fec53cd08f7031592b28bf9429f840b7d25509760206004356115f3611a77565b80600855604051908152a1604051f35b5034610260578060031936011261026057602060ff600b5460a01c166040519015158152f35b5034610260576020366003190112610260577fc14f60dbf7139b2e92ad845e95c05208c6070962e410202d3b8ae7a1378cde3560206116666119c2565b61166e611a77565b611677816121ad565b600b805463ffffffff60a81b191660a883901b63ffffffff60a81b1617905560405163ffffffff919091168152a1604051f35b5034610260576040366003190112610260576116c46119c2565b6116cc6119d5565b6116d4611a77565b63ffffffff6276a70081841611611791578116615460811061177f576283d6001061176d576007805467ffffffffffffffff60801b191660a084901b63ffffffff60a01b1617608083901b63ffffffff60801b161790556040805163ffffffff93841681529190921660208201527f7b8aa35646b8fddc3ccaae8e1069d8c6c365e2ba2e11bb1f0018f8d01992f25b91819081016114b3565b6040516319979c0960e11b8152600490fd5b604051638750566960e01b8152600490fd5b60405163766cee2b60e01b8152600490fd5b50346102605780600319360112610260576001546040516001600160a01b039091168152602090f35b5034610260576040366003190112610260576117e66119c2565b6117ee6119d5565b6117f6611a77565b63ffffffff610e10818416106118a3576154609082161161189157600780546fffffffffffffffff00000000000000001916604084811b6bffffffff00000000000000001691909117606084901b63ffffffff60601b1617909155805163ffffffff93841681529190921660208201527f47c8a5b15f6172a5053bfac488642484dd38e9c0f3073c23c5d822c4cbab530991819081016114b3565b6040516310c4878160e11b8152600490fd5b604051639a4e9a8d60e01b8152600490fd5b50346102605760203660031901126102605761025b6118d26119c2565b6121ad565b5034610260578060031936011261026057602061ffff600a5460b01c16604051908152f35b50346102605780600319360112610260576040517f00000000000000000000000000000000000000000000000000000000000000006001600160a01b03168152602090f35b5034610260578060031936011261026057602063ffffffff600b5460a81c16604051908152f35b90503461048b57602036600319011261048b57600435600354811015610a005760039092527fc2575a0e9e593c00f959f8c92f12db2869c3395a3b0502d05e2516446f71f85b909101546001600160a01b03168152602090f35b6004359063ffffffff821682036109fb57565b6024359063ffffffff821682036109fb57565b600435906001600160a01b03821682036109fb57565b602435906001600160a01b03821682036109fb57565b35906001600160a01b03821682036109fb57565b6004359061ffff821682036109fb57565b6024359061ffff821682036109fb57565b9181601f840112156109fb578235916001600160401b0383116109fb57602083818601950101116109fb57565b6000546001600160a01b03163303611a8b57565b606460405162461bcd60e51b815260206004820152602060248201527f4f776e61626c653a2063616c6c6572206973206e6f7420746865206f776e65726044820152fd5b6001600160401b0381116109e157604052565b90601f801991011681019081106001600160401b038211176109e157604052565b3d15611b3d573d906001600160401b0382116109e15760405191611b31601f8201601f191660200184611ae2565b82523d6000602084013e565b606090565b908060209392818452848401376000828201840152601f01601f1916010190565b9035601e19823603018112156109fb5701602081359101916001600160401b0382116109fb5781360383136109fb57565b90611bb0611ba28380611b63565b60e0845260e0840191611b42565b90611bd0602092611bc384860186611b63565b9084830386860152611b42565b916040840135601e19853603018112156109fb578401908082359201936001600160401b0383116109fb578260051b360385136109fb578381036040850152828152810193919060005b828110611c8c57506001600160a01b039250829150611c3d905060608601611a14565b166060830152611c4f60808501611a14565b16608082015260a08301358015158091036109fb57611c8993611c7b9160a084015260c0810190611b63565b9160c0818503910152611b42565b90565b9091929485359060018060a01b0382168092036109fb579081528201948201929190600101611c1a565b60243563ffffffff908181168091036109fb5782526044359081168091036109fb57602082015260643561ffff908181168091036109fb5760408301526084358181168091036109fb57606083015260a4358181168091036109fb57608083015260c4359081168091036109fb5760a08201526001600160a01b0360e435818116908190036109fb5760c0830152610104358181168091036109fb5760e0830152610124359081168091036109fb57610100820152610144358015158091036109fb57610120820152610164358015158091036109fb57610140820152610184358015158091036109fb576101608201526101a435908115158092036109fb576101800152565b6e5af43d82803e903d91602b57fd5bf390763d602d80600a3d3981f3363d3d373d3d3d363d7300000062ffffff8260881c161760005260781b17602052603760096000f0906001600160a01b03821615611e1357565b60405162461bcd60e51b8152602060048201526016602482015275115490cc4c4d8dce8818dc99585d194819985a5b195960521b6044820152606490fd5b91908201809211611e5e57565b634e487b7160e01b600052601160045260246000fd5b60018060a01b03169060405160408101908082106001600160401b038311176109e157611ee5916040526020938482527f5361666545524332303a206c6f772d6c6576656c2063616c6c206661696c6564858301526000808587829751910182855af1611edf611b03565b91611f70565b805180611ef3575b50505050565b8184918101031261048b57820151908115918215036102605750611f1957808080611eed565b6084906040519062461bcd60e51b82526004820152602a60248201527f5361666545524332303a204552433230206f7065726174696f6e20646964206e6044820152691bdd081cdd58d8d9595960b21b6064820152fd5b91929015611fd25750815115611f84575090565b3b15611f8d5790565b60405162461bcd60e51b815260206004820152601d60248201527f416464726573733a2063616c6c20746f206e6f6e2d636f6e74726163740000006044820152606490fd5b825190915015611fe55750805190602001fd5b6040519062461bcd60e51b82528160208060048301528251908160248401526000935b82851061202b575050604492506000838284010152601f80199101168101030190fd5b8481018201518686016044015293810193859350612008565b6001600160401b0381116109e15760051b60200190565b91908110156113a05760051b0190565b356001600160a01b03811681036109fb5790565b80518210156113a05760209160051b010190565b91908203918211611e5e57565b60405163a9059cbb60e01b60208201526001600160a01b039290921660248301526044808301939093529181526120e1916120dc606483611ae2565b611e74565b565b91600019828409928281029283808610950394808603951461215957848311156109fb578291096001821901821680920460028082600302188083028203028083028203028083028203028083028203028083028203028092029003029360018380600003040190848311900302920304170290565b505080925015612167570490565b634e487b7160e01b600052601260045260246000fd5b61ffff8080931691160190808211611e5e576107d091161161219b57565b6040516307af556960e21b8152600490fd5b63ffffffff166201518081106121da5762069780106121c857565b6040516317b7efeb60e11b8152600490fd5b604051633a50e6a160e01b8152600490fd5b63ffffffff166202a30081106122195762a4cb801061220757565b60405163599dfd5d60e11b8152600490fd5b604051630fe180cd60e01b8152600490fd5b600954949692959294909392906001600160a01b0390811690851681146125e45782158015612564575b156125005760405163095ea7b360e01b60208201526001600160a01b03851660248201526044808201859052815261229890612292606482611ae2565b86611e74565b6040516370a0823160e01b815230600482015291602083602481855afa928315612445576000936124cc575b506040516370a0823160e01b81523060048201529860208a6024816001600160a01b038b165afa998a156124455760009a612497575b508160009291839260405192839283378101838152039082885af161231d611b03565b5015612485576020602491604051928380926370a0823160e01b82523060048301525afa90811561244557600091612451575b509061235b91612093565b6040516370a0823160e01b815230600482015290966020826024816001600160a01b0389165afa9182156124455760009261240f575b506123a692916123a091612093565b90612093565b9385106123fd5760405163095ea7b360e01b60208201526001600160a01b0390911660248201526000604480830191909152815260808101916001600160401b038311828410176109e1576120e192604052611e74565b604051638a866e2560e01b8152600490fd5b90916020823d60201161243d575b8161242a60209383611ae2565b81010312610260575051906123a0612391565b3d915061241d565b6040513d6000823e3d90fd5b906020823d60201161247d575b8161246b60209383611ae2565b8101031261026057505161235b612350565b3d915061245e565b60405163081ceff360e41b8152600490fd5b90996020823d6020116124c4575b816124b260209383611ae2565b810103126102605750519860006122fa565b3d91506124a5565b90926020823d6020116124f8575b816124e760209383611ae2565b8101031261026057505191386122c4565b3d91506124da565b60405162461bcd60e51b815260206004820152603660248201527f5361666545524332303a20617070726f76652066726f6d206e6f6e2d7a65726f60448201527520746f206e6f6e2d7a65726f20616c6c6f77616e636560501b6064820152608490fd5b50604051636eb1769f60e11b81523060048201526001600160a01b0385166024820152602081806044810103816001600160a01b038a165afa908115612445576000916125b3575b5015612255565b906020823d82116125dc575b816125cc60209383611ae2565b81010312610260575051386125ac565b3d91506125bf565b509095506000945050505056fe4f8abed31d725d1e727a30b06defad85513b99ee0d373925f63d71e099edaa30a26469706673582212209dbb6ad71a48197effd75f194e280e5ec5d40da5a7d8427e53b2a4747cc89eec64736f6c63430008100033",
  "devdoc": {
    "author": "Hats.finance",
    "details": "New hats.finance vaults should be created through a call to {createVault} so that they are linked to the registry",
    "kind": "dev",
    "methods": {
      "constructor": {
        "params": {
          "_HAT": "the HAT token address",
          "_bountyGovernanceHAT": "The default percentage of a claim's total bounty to be swapped for HAT and sent to the governance",
          "_bountyHackerHATVested": "The default percentage of a claim's total bounty to be swapped for HAT and sent to a vesting contract for the hacker   _bountyGovernanceHAT + _bountyHackerHATVested must be less    than `HUNDRED_PERCENT`.",
          "_hatClaimsManagerImplementation": "The hat claims manager implementation address.",
          "_hatGovernance": "The governance address.",
          "_hatVaultImplementation": "The hat vault implementation address.",
          "_tokenLockFactory": "Address of the token lock factory to be used to create a vesting contract for the approved claim reporter."
        }
      },
      "renounceOwnership()": {
        "details": "Leaves the contract without owner. It will not be possible to call `onlyOwner` functions anymore. Can only be called by the current owner. NOTE: Renouncing ownership will leave the contract without an owner, thereby removing any functionality that is only available to the owner."
      },
      "transferOwnership(address)": {
        "details": "Transfers ownership of the contract to a new account (`newOwner`). Can only be called by the current owner."
      }
    },
    "stateVariables": {
      "defaultArbitrator": {
        "return": "The default arbitrator address",
        "returns": {
          "_0": "The default arbitrator address"
        }
      },
      "defaultBountyGovernanceHAT": {
        "return": "The default percentage of the total bounty to be swapped to HATs and sent to governance",
        "returns": {
          "_0": "The default percentage of the total bounty to be swapped to HATs and sent to governance"
        }
      },
      "defaultBountyHackerHATVested": {
        "return": "The default percentage of the total bounty to be swapped to HATs and sent to the hacker via vesting contract",
        "returns": {
          "_0": "The default percentage of the total bounty to be swapped to HATs and sent to the hacker via vesting contract"
        }
      },
      "defaultChallengePeriod": {
        "return": "The default challenge period",
        "returns": {
          "_0": "The default challenge period"
        }
      },
      "defaultChallengeTimeOutPeriod": {
        "return": "The default challenge time out period",
        "returns": {
          "_0": "The default challenge time out period"
        }
      },
      "feeSetter": {
        "return": "The address of the fee setter",
        "returns": {
          "_0": "The address of the fee setter"
        }
      },
      "isEmergencyPaused": {
        "return": "Whether the system is in an emergency pause",
        "returns": {
          "_0": "Whether the system is in an emergency pause"
        }
      }
    },
    "title": "Registry to deploy Hats.finance vaults and manage shared parameters",
    "version": 1
  },
  "userdoc": {
    "errors": {
      "AmountSwappedLessThanMinimum()": [
        {
          "notice": "Raised on {swapAndSend} if the amount that was recieved in the swap was less than the minimum amount specified"
        }
      ],
      "AmountToSwapIsZero()": [
        {
          "notice": "Raised on {swapAndSend} if the amount to swap is zero"
        }
      ],
      "ChallengePeriodTooLong()": [
        {
          "notice": "Raised on {setDefaultChallengePeriod} if the challenge period  to be set is longer than 5 days"
        }
      ],
      "ChallengePeriodTooShort()": [
        {
          "notice": "Raised on {setDefaultChallengePeriod} if the challenge period  to be set is shorter than 1 day"
        }
      ],
      "ChallengeTimeOutPeriodTooLong()": [
        {
          "notice": "Raised on {setDefaultChallengeTimeOutPeriod} if the challenge timeout period to be set is longer than 125 days"
        }
      ],
      "ChallengeTimeOutPeriodTooShort()": [
        {
          "notice": "Raised on {setDefaultChallengeTimeOutPeriod} if the challenge timeout period to be set is shorter than 1 day"
        }
      ],
      "ClaimFeeTransferFailed()": [
        {
          "notice": "Raised on {LogClaim} if the transfer of the claim fee failed"
        }
      ],
      "DelayTooShort()": [
        {
          "notice": "Raised on {setMaxBountyDelay} if the max bounty to be set is shorter than 2 days"
        }
      ],
      "HatVestingDurationSmallerThanPeriods()": [
        {
          "notice": "Raised on {setHatVestingParams} if the vesting duration is  smaller than the vesting periods"
        }
      ],
      "HatVestingDurationTooLong()": [
        {
          "notice": "Raised on {setHatVestingParams} if the vesting duration to be set is longer than 180 days"
        }
      ],
      "HatVestingPeriodsCannotBeZero()": [
        {
          "notice": "Raised on {setHatVestingParams} if the vesting periods to be set is 0"
        }
      ],
      "NotEnoughFeePaid()": [
        {
          "notice": "Raised on {LogClaim} if the transaction was not sent with the amount of ETH specified as {generalParameters.claimFee}"
        }
      ],
      "SafetyPeriodTooLong()": [
        {
          "notice": "Raised on {setWithdrawSafetyPeriod} if the safety period to be set is longer than 6 hours"
        }
      ],
      "SwapFailed()": [
        {
          "notice": "Raised on {swapAndSend} if the swap was not successful"
        }
      ],
      "TotalHatsSplitPercentageShouldBeUpToMaxHATSplit()": [
        {
          "notice": "Raised on {setDefaultHATBountySplit} if the split to be set is greater than 20% (defined as 2000)"
        }
      ],
      "WithdrawPeriodTooShort()": [
        {
          "notice": "Raised on {setWithdrawSafetyPeriod} if the withdraw period to be set is shorter than 1 hour"
        }
      ],
      "WithdrawRequestEnabledPeriodTooLong()": [
        {
          "notice": "Raised on {setWithdrawRequestParams} if the withdraw request enabled period to be set is longer than 100 days"
        }
      ],
      "WithdrawRequestEnabledPeriodTooShort()": [
        {
          "notice": "Raised on {setWithdrawRequestParams} if the withdraw request enabled period to be set is shorter than 6 hours"
        }
      ],
      "WithdrawRequestPendingPeriodTooLong()": [
        {
          "notice": "Raised on {setWithdrawRequestParams} if the withdraw request pending period to be set is shorter than 3 months"
        }
      ]
    },
    "events": {
      "LogClaim(address,string)": {
        "notice": "Emitted when a claim is logged"
      },
      "RegistryCreated(address,address,address,address,(uint32,uint32,uint32,uint32,uint32,uint32,uint32,uint256),uint256,uint256,address,address,uint256,uint256)": {
        "notice": "Emitted on deployment of the registry"
      },
      "SetClaimFee(uint256)": {
        "notice": "Emitted when a new fee for logging a claim for a bounty is set"
      },
      "SetDefaultArbitrator(address)": {
        "notice": "Emitted when a new default arbitrator is set"
      },
      "SetDefaultChallengePeriod(uint256)": {
        "notice": "Emitted when a new default challenge period is set"
      },
      "SetDefaultChallengeTimeOutPeriod(uint256)": {
        "notice": "Emitted when a new default challenge timeout period is set"
      },
      "SetDefaultHATBountySplit(uint256,uint256)": {
        "notice": "Emitted when a new default HAT bounty split is set"
      },
      "SetEmergencyPaused(bool)": {
        "notice": "Emitted when the system is put into emergency pause/unpause"
      },
      "SetFeeSetter(address)": {
        "notice": "Emitted when a new fee setter is set"
      },
      "SetHATClaimsManagerImplementation(address)": {
        "notice": "Emitted when a new HATClaimsManager implementation is set"
      },
      "SetHATVaultImplementation(address)": {
        "notice": "Emitted when a new HATVault implementation is set"
      },
      "SetHatVestingParams(uint256,uint256)": {
        "notice": "Emitted when new HAT vesting parameters are set"
      },
      "SetMaxBountyDelay(uint256)": {
        "notice": "Emitted when a new timelock delay for setting the max bounty is set"
      },
      "SetSwapToken(address)": {
        "notice": "Emitted when a new swap token is set"
      },
      "SetVaultVisibility(address,bool)": {
        "notice": "Emitted when the UI visibility of a vault is changed"
      },
      "SetWithdrawRequestParams(uint256,uint256)": {
        "notice": "Emitted when new withdraw request time limits are set"
      },
      "SetWithdrawSafetyPeriod(uint256,uint256)": {
        "notice": "Emitted when new durations are set for withdraw period and safety period"
      },
      "SwapAndSend(address,uint256,uint256,address)": {
        "notice": "Emitted when a swap of vault tokens to HAT tokens is done and the HATS tokens are sent to beneficiary through vesting contract"
      }
    },
    "kind": "user",
    "methods": {
      "addTokensToSwap(address,address,uint256,uint256)": {
        "notice": "See {IHATVaultsRegistry-addTokensToSwap}. "
      },
      "constructor": {
        "notice": "initialize -"
      },
      "createVault((string,string,address[],address,address,bool,string),(uint32,uint32,uint16,(uint16,uint16,uint16),address,address,address,bool,bool,bool,bool))": {
        "notice": "See {IHATVaultsRegistry-createVault}. "
      },
      "defaultArbitrator()": {
        "notice": "Get the default arbitrator address"
      },
      "defaultBountyGovernanceHAT()": {
        "notice": "Get the default percentage of the total bounty to be swapped to HATs and sent to governance"
      },
      "defaultBountyHackerHATVested()": {
        "notice": "Get the default percentage of the total bounty to be swapped to HATs and sent to the hacker via vesting contract"
      },
      "defaultChallengePeriod()": {
        "notice": "Get the default challenge period"
      },
      "defaultChallengeTimeOutPeriod()": {
        "notice": "Get the default challenge time out period"
      },
      "feeSetter()": {
        "notice": "Get the fee setter address"
      },
      "getNumberOfVaults()": {
        "notice": "See {IHATVaultsRegistry-getNumberOfVaults}. "
      },
      "getSafetyPeriod()": {
        "notice": "See {IHATVaultsRegistry-getSafetyPeriod}. "
      },
      "getSetMaxBountyDelay()": {
        "notice": "See {IHATVaultsRegistry-getSetMaxBountyDelay}. "
      },
      "getWithdrawPeriod()": {
        "notice": "See {IHATVaultsRegistry-getWithdrawPeriod}. "
      },
      "getWithdrawRequestEnablePeriod()": {
        "notice": "See {IHATVaultsRegistry-getWithdrawRequestEnablePeriod}. "
      },
      "getWithdrawRequestPendingPeriod()": {
        "notice": "See {IHATVaultsRegistry-getWithdrawRequestPendingPeriod}. "
      },
      "isEmergencyPaused()": {
        "notice": "Get whether the system is in an emergency pause"
      },
      "logClaim(string)": {
        "notice": "See {IHATVaultsRegistry-logClaim}. "
      },
      "setClaimFee(uint256)": {
        "notice": "See {IHATVaultsRegistry-setClaimFee}. "
      },
      "setDefaultArbitrator(address)": {
        "notice": "See {IHATVaultsRegistry-setDefaultArbitrator}. "
      },
      "setDefaultChallengePeriod(uint32)": {
        "notice": "See {IHATVaultsRegistry-setDefaultChallengePeriod}. "
      },
      "setDefaultChallengeTimeOutPeriod(uint32)": {
        "notice": "See {IHATVaultsRegistry-setDefaultChallengeTimeOutPeriod}. "
      },
      "setDefaultHATBountySplit(uint16,uint16)": {
        "notice": "See {IHATVaultsRegistry-setDefaultHATBountySplit}. "
      },
      "setEmergencyPaused(bool)": {
        "notice": "See {IHATVaultsRegistry-setEmergencyPaused}. "
      },
      "setFeeSetter(address)": {
        "notice": "See {IHATVaultsRegistry-setFeeSetter}. "
      },
      "setHatVestingParams(uint32,uint32)": {
        "notice": "See {IHATVaultsRegistry-setHatVestingParams}. "
      },
      "setMaxBountyDelay(uint32)": {
        "notice": "See {IHATVaultsRegistry-setMaxBountyDelay}. "
      },
      "setSwapToken(address)": {
        "notice": "See {IHATVaultsRegistry-setSwapToken}. "
      },
      "setVaultImplementations(address,address)": {
        "notice": "See {IHATVaultsRegistry-setVaultImplementations}. "
      },
      "setVaultVisibility(address,bool)": {
        "notice": "See {IHATVaultsRegistry-setVaultVisibility}. "
      },
      "setWithdrawRequestParams(uint32,uint32)": {
        "notice": "See {IHATVaultsRegistry-setWithdrawRequestParams}. "
      },
      "setWithdrawSafetyPeriod(uint32,uint32)": {
        "notice": "See {IHATVaultsRegistry-setWithdrawSafetyPeriod}. "
      },
      "swapAndSend(address,address[],uint256,address,bytes)": {
        "notice": "See {IHATVaultsRegistry-swapAndSend}. "
      },
      "validateChallengePeriod(uint32)": {
        "notice": "See {IHATVaultsRegistry-validateChallengePeriod}. "
      },
      "validateChallengeTimeOutPeriod(uint32)": {
        "notice": "See {IHATVaultsRegistry-validateChallengeTimeOutPeriod}. "
      },
      "validateHATSplit(uint16,uint16)": {
        "notice": "See {IHATVaultsRegistry-validateHATSplit}. "
      }
    },
    "notice": "Hats.finance is a proactive bounty protocol for white hat hackers and security experts, where projects, community members, and stakeholders incentivize protocol security and responsible disclosure. Hats create scalable vaults using the projects own token. The value of the bounty increases with the success of the token and project. The owner of the registry has the permission to set time limits and bounty parameters and change vaults' info, and to set the other registry roles - fee setter and arbitrator. The arbitrator can challenge submitted claims for bounty payouts made by vaults' committees, approve them with a different bounty percentage or dismiss them. The fee setter can set the fee on withdrawals on all vaults. This project is open-source and can be found at: https://github.com/hats-finance/hats-contracts",
    "version": 1
  },
  "storageLayout": {
    "storage": [
      {
        "astId": 4653,
        "contract": "contracts/HATVaultsRegistry.sol:HATVaultsRegistry",
        "label": "_owner",
        "offset": 0,
        "slot": "0",
        "type": "t_address"
      },
      {
        "astId": 20204,
        "contract": "contracts/HATVaultsRegistry.sol:HATVaultsRegistry",
        "label": "hatVaultImplementation",
        "offset": 0,
        "slot": "1",
        "type": "t_address"
      },
      {
        "astId": 20206,
        "contract": "contracts/HATVaultsRegistry.sol:HATVaultsRegistry",
        "label": "hatClaimsManagerImplementation",
        "offset": 0,
        "slot": "2",
        "type": "t_address"
      },
      {
        "astId": 20209,
        "contract": "contracts/HATVaultsRegistry.sol:HATVaultsRegistry",
        "label": "hatVaults",
        "offset": 0,
        "slot": "3",
        "type": "t_array(t_address)dyn_storage"
      },
      {
        "astId": 20213,
        "contract": "contracts/HATVaultsRegistry.sol:HATVaultsRegistry",
        "label": "isVaultVisible",
        "offset": 0,
        "slot": "4",
        "type": "t_mapping(t_address,t_bool)"
      },
      {
        "astId": 20219,
        "contract": "contracts/HATVaultsRegistry.sol:HATVaultsRegistry",
        "label": "hackersHatReward",
        "offset": 0,
        "slot": "5",
        "type": "t_mapping(t_address,t_mapping(t_address,t_uint256))"
      },
      {
        "astId": 20223,
        "contract": "contracts/HATVaultsRegistry.sol:HATVaultsRegistry",
        "label": "governanceHatReward",
        "offset": 0,
        "slot": "6",
        "type": "t_mapping(t_address,t_uint256)"
      },
      {
        "astId": 20226,
        "contract": "contracts/HATVaultsRegistry.sol:HATVaultsRegistry",
        "label": "generalParameters",
        "offset": 0,
        "slot": "7",
        "type": "t_struct(GeneralParameters)23578_storage"
      },
      {
        "astId": 20232,
        "contract": "contracts/HATVaultsRegistry.sol:HATVaultsRegistry",
        "label": "HAT",
        "offset": 0,
        "slot": "9",
        "type": "t_contract(IERC20)8053"
      },
      {
        "astId": 20234,
        "contract": "contracts/HATVaultsRegistry.sol:HATVaultsRegistry",
        "label": "feeSetter",
        "offset": 0,
        "slot": "10",
        "type": "t_address"
      },
      {
        "astId": 20236,
        "contract": "contracts/HATVaultsRegistry.sol:HATVaultsRegistry",
        "label": "defaultBountyGovernanceHAT",
        "offset": 20,
        "slot": "10",
        "type": "t_uint16"
      },
      {
        "astId": 20238,
        "contract": "contracts/HATVaultsRegistry.sol:HATVaultsRegistry",
        "label": "defaultBountyHackerHATVested",
        "offset": 22,
        "slot": "10",
        "type": "t_uint16"
      },
      {
        "astId": 20240,
        "contract": "contracts/HATVaultsRegistry.sol:HATVaultsRegistry",
        "label": "defaultArbitrator",
        "offset": 0,
        "slot": "11",
        "type": "t_address"
      },
      {
        "astId": 20242,
        "contract": "contracts/HATVaultsRegistry.sol:HATVaultsRegistry",
        "label": "isEmergencyPaused",
        "offset": 20,
        "slot": "11",
        "type": "t_bool"
      },
      {
        "astId": 20244,
        "contract": "contracts/HATVaultsRegistry.sol:HATVaultsRegistry",
        "label": "defaultChallengePeriod",
        "offset": 21,
        "slot": "11",
        "type": "t_uint32"
      },
      {
        "astId": 20246,
        "contract": "contracts/HATVaultsRegistry.sol:HATVaultsRegistry",
        "label": "defaultChallengeTimeOutPeriod",
        "offset": 25,
        "slot": "11",
        "type": "t_uint32"
      }
    ],
    "types": {
      "t_address": {
        "encoding": "inplace",
        "label": "address",
        "numberOfBytes": "20"
      },
      "t_array(t_address)dyn_storage": {
        "base": "t_address",
        "encoding": "dynamic_array",
        "label": "address[]",
        "numberOfBytes": "32"
      },
      "t_bool": {
        "encoding": "inplace",
        "label": "bool",
        "numberOfBytes": "1"
      },
      "t_contract(IERC20)8053": {
        "encoding": "inplace",
        "label": "contract IERC20",
        "numberOfBytes": "20"
      },
      "t_mapping(t_address,t_bool)": {
        "encoding": "mapping",
        "key": "t_address",
        "label": "mapping(address => bool)",
        "numberOfBytes": "32",
        "value": "t_bool"
      },
      "t_mapping(t_address,t_mapping(t_address,t_uint256))": {
        "encoding": "mapping",
        "key": "t_address",
        "label": "mapping(address => mapping(address => uint256))",
        "numberOfBytes": "32",
        "value": "t_mapping(t_address,t_uint256)"
      },
      "t_mapping(t_address,t_uint256)": {
        "encoding": "mapping",
        "key": "t_address",
        "label": "mapping(address => uint256)",
        "numberOfBytes": "32",
        "value": "t_uint256"
      },
      "t_struct(GeneralParameters)23578_storage": {
        "encoding": "inplace",
        "label": "struct IHATVaultsRegistry.GeneralParameters",
        "members": [
          {
            "astId": 23563,
            "contract": "contracts/HATVaultsRegistry.sol:HATVaultsRegistry",
            "label": "hatVestingDuration",
            "offset": 0,
            "slot": "0",
            "type": "t_uint32"
          },
          {
            "astId": 23565,
            "contract": "contracts/HATVaultsRegistry.sol:HATVaultsRegistry",
            "label": "hatVestingPeriods",
            "offset": 4,
            "slot": "0",
            "type": "t_uint32"
          },
          {
            "astId": 23567,
            "contract": "contracts/HATVaultsRegistry.sol:HATVaultsRegistry",
            "label": "withdrawPeriod",
            "offset": 8,
            "slot": "0",
            "type": "t_uint32"
          },
          {
            "astId": 23569,
            "contract": "contracts/HATVaultsRegistry.sol:HATVaultsRegistry",
            "label": "safetyPeriod",
            "offset": 12,
            "slot": "0",
            "type": "t_uint32"
          },
          {
            "astId": 23571,
            "contract": "contracts/HATVaultsRegistry.sol:HATVaultsRegistry",
            "label": "withdrawRequestEnablePeriod",
            "offset": 16,
            "slot": "0",
            "type": "t_uint32"
          },
          {
            "astId": 23573,
            "contract": "contracts/HATVaultsRegistry.sol:HATVaultsRegistry",
            "label": "withdrawRequestPendingPeriod",
            "offset": 20,
            "slot": "0",
            "type": "t_uint32"
          },
          {
            "astId": 23575,
            "contract": "contracts/HATVaultsRegistry.sol:HATVaultsRegistry",
            "label": "setMaxBountyDelay",
            "offset": 24,
            "slot": "0",
            "type": "t_uint32"
          },
          {
            "astId": 23577,
            "contract": "contracts/HATVaultsRegistry.sol:HATVaultsRegistry",
            "label": "claimFee",
            "offset": 0,
            "slot": "1",
            "type": "t_uint256"
          }
        ],
        "numberOfBytes": "64"
      },
      "t_uint16": {
        "encoding": "inplace",
        "label": "uint16",
        "numberOfBytes": "2"
      },
      "t_uint256": {
        "encoding": "inplace",
        "label": "uint256",
        "numberOfBytes": "32"
      },
      "t_uint32": {
        "encoding": "inplace",
        "label": "uint32",
        "numberOfBytes": "4"
      }
    }
  }
}