{
  "address": "0x36E16D320373EE0Ce4F135A6B9dA95AAdF0D29fc",
  "abi": [
    {
      "inputs": [],
      "name": "ActiveClaimExists",
      "type": "error"
    },
    {
      "inputs": [],
      "name": "AmountCannotBeZero",
      "type": "error"
    },
    {
      "inputs": [],
      "name": "AmountOfSharesMustBeMoreThanMinimalAmount",
      "type": "error"
    },
    {
      "inputs": [],
      "name": "BountyPercentageHigherThanMaxBounty",
      "type": "error"
    },
    {
      "inputs": [],
      "name": "CannotSetToPerviousRewardController",
      "type": "error"
    },
    {
      "inputs": [],
      "name": "CannotTransferToAnotherUserWithActiveWithdrawRequest",
      "type": "error"
    },
    {
      "inputs": [],
      "name": "CannotTransferToSelf",
      "type": "error"
    },
    {
      "inputs": [],
      "name": "ChallengePeriodEnded",
      "type": "error"
    },
    {
      "inputs": [],
      "name": "ChallengedClaimCanOnlyBeApprovedByArbitratorUntilChallengeTimeoutPeriod",
      "type": "error"
    },
    {
      "inputs": [],
      "name": "ClaimAlreadyChallenged",
      "type": "error"
    },
    {
      "inputs": [],
      "name": "ClaimExpired",
      "type": "error"
    },
    {
      "inputs": [],
      "name": "ClaimIdIsNotActive",
      "type": "error"
    },
    {
      "inputs": [],
      "name": "CommitteeAlreadyCheckedIn",
      "type": "error"
    },
    {
      "inputs": [],
      "name": "CommitteeBountyCannotBeMoreThanMax",
      "type": "error"
    },
    {
      "inputs": [],
      "name": "CommitteeNotCheckedInYet",
      "type": "error"
    },
    {
      "inputs": [],
      "name": "DelayPeriodForSettingMaxBountyHadNotPassed",
      "type": "error"
    },
    {
      "inputs": [],
      "name": "DepositSlippageProtection",
      "type": "error"
    },
    {
      "inputs": [],
      "name": "MaxBountyCannotBeMoreThanMaxBountyLimit",
      "type": "error"
    },
    {
      "inputs": [],
      "name": "MintSlippageProtection",
      "type": "error"
    },
    {
      "inputs": [],
      "name": "NoActiveClaimExists",
      "type": "error"
    },
    {
      "inputs": [],
      "name": "NoPendingMaxBounty",
      "type": "error"
    },
    {
      "inputs": [],
      "name": "NotEnoughFeePaid",
      "type": "error"
    },
    {
      "inputs": [],
      "name": "NotEnoughUserBalance",
      "type": "error"
    },
    {
      "inputs": [],
      "name": "NotSafetyPeriod",
      "type": "error"
    },
    {
      "inputs": [],
      "name": "OnlyArbitratorOrRegistryOwner",
      "type": "error"
    },
    {
      "inputs": [],
      "name": "OnlyCallableByArbitratorOrAfterChallengeTimeOutPeriod",
      "type": "error"
    },
    {
      "inputs": [],
      "name": "OnlyCallableIfChallenged",
      "type": "error"
    },
    {
      "inputs": [],
      "name": "OnlyCommittee",
      "type": "error"
    },
    {
      "inputs": [],
      "name": "OnlyFeeSetter",
      "type": "error"
    },
    {
      "inputs": [],
      "name": "OnlyRegistryOwner",
      "type": "error"
    },
    {
      "inputs": [],
      "name": "RedeemMoreThanMax",
      "type": "error"
    },
    {
      "inputs": [],
      "name": "RedeemSlippageProtection",
      "type": "error"
    },
    {
      "inputs": [],
      "name": "SafetyPeriod",
      "type": "error"
    },
    {
      "inputs": [],
      "name": "SetSharesArraysMustHaveSameLength",
      "type": "error"
    },
    {
      "inputs": [],
      "name": "SystemInEmergencyPause",
      "type": "error"
    },
    {
      "inputs": [],
      "name": "TotalSplitPercentageShouldBeHundredPercent",
      "type": "error"
    },
    {
      "inputs": [],
      "name": "UnchallengedClaimCanOnlyBeApprovedAfterChallengePeriod",
      "type": "error"
    },
    {
      "inputs": [],
      "name": "VestingDurationSmallerThanPeriods",
      "type": "error"
    },
    {
      "inputs": [],
      "name": "VestingDurationTooLong",
      "type": "error"
    },
    {
      "inputs": [],
      "name": "VestingPeriodsCannotBeZero",
      "type": "error"
    },
    {
      "inputs": [],
      "name": "WithdrawMustBeGreaterThanZero",
      "type": "error"
    },
    {
      "inputs": [],
      "name": "WithdrawSlippageProtection",
      "type": "error"
    },
    {
      "inputs": [],
      "name": "WithdrawalFeeTooBig",
      "type": "error"
    },
    {
      "anonymous": false,
      "inputs": [
        {
          "indexed": true,
          "internalType": "contract IRewardController",
          "name": "_newRewardController",
          "type": "address"
        }
      ],
      "name": "AddRewardController",
      "type": "event"
    },
    {
      "anonymous": false,
      "inputs": [
        {
          "indexed": true,
          "internalType": "address",
          "name": "owner",
          "type": "address"
        },
        {
          "indexed": true,
          "internalType": "address",
          "name": "spender",
          "type": "address"
        },
        {
          "indexed": false,
          "internalType": "uint256",
          "name": "value",
          "type": "uint256"
        }
      ],
      "name": "Approval",
      "type": "event"
    },
    {
      "anonymous": false,
      "inputs": [
        {
          "indexed": true,
          "internalType": "bytes32",
          "name": "_claimId",
          "type": "bytes32"
        },
        {
          "indexed": true,
          "internalType": "address",
          "name": "_committee",
          "type": "address"
        },
        {
          "indexed": true,
          "internalType": "address",
          "name": "_beneficiary",
          "type": "address"
        },
        {
          "indexed": false,
          "internalType": "uint256",
          "name": "_bountyPercentage",
          "type": "uint256"
        },
        {
          "indexed": false,
          "internalType": "address",
          "name": "_tokenLock",
          "type": "address"
        },
        {
          "components": [
            {
              "internalType": "uint256",
              "name": "hacker",
              "type": "uint256"
            },
            {
              "internalType": "uint256",
              "name": "hackerVested",
              "type": "uint256"
            },
            {
              "internalType": "uint256",
              "name": "committee",
              "type": "uint256"
            },
            {
              "internalType": "uint256",
              "name": "hackerHatVested",
              "type": "uint256"
            },
            {
              "internalType": "uint256",
              "name": "governanceHat",
              "type": "uint256"
            }
          ],
          "indexed": false,
          "internalType": "struct IHATVault.ClaimBounty",
          "name": "_claimBounty",
          "type": "tuple"
        }
      ],
      "name": "ApproveClaim",
      "type": "event"
    },
    {
      "anonymous": false,
      "inputs": [
        {
          "indexed": true,
          "internalType": "bytes32",
          "name": "_claimId",
          "type": "bytes32"
        }
      ],
      "name": "ChallengeClaim",
      "type": "event"
    },
    {
      "anonymous": false,
      "inputs": [],
      "name": "CommitteeCheckedIn",
      "type": "event"
    },
    {
      "anonymous": false,
      "inputs": [
        {
          "indexed": true,
          "internalType": "address",
          "name": "caller",
          "type": "address"
        },
        {
          "indexed": true,
          "internalType": "address",
          "name": "owner",
          "type": "address"
        },
        {
          "indexed": false,
          "internalType": "uint256",
          "name": "assets",
          "type": "uint256"
        },
        {
          "indexed": false,
          "internalType": "uint256",
          "name": "shares",
          "type": "uint256"
        }
      ],
      "name": "Deposit",
      "type": "event"
    },
    {
      "anonymous": false,
      "inputs": [
        {
          "indexed": true,
          "internalType": "bytes32",
          "name": "_claimId",
          "type": "bytes32"
        }
      ],
      "name": "DismissClaim",
      "type": "event"
    },
    {
      "anonymous": false,
      "inputs": [
        {
          "indexed": false,
          "internalType": "uint8",
          "name": "version",
          "type": "uint8"
        }
      ],
      "name": "Initialized",
      "type": "event"
    },
    {
      "anonymous": false,
      "inputs": [
        {
          "indexed": true,
          "internalType": "address",
          "name": "previousOwner",
          "type": "address"
        },
        {
          "indexed": true,
          "internalType": "address",
          "name": "newOwner",
          "type": "address"
        }
      ],
      "name": "OwnershipTransferred",
      "type": "event"
    },
    {
      "anonymous": false,
      "inputs": [
        {
          "indexed": true,
          "internalType": "address",
          "name": "_arbitrator",
          "type": "address"
        }
      ],
      "name": "SetArbitrator",
      "type": "event"
    },
    {
      "anonymous": false,
      "inputs": [
        {
          "indexed": false,
          "internalType": "enum IHATVault.ArbitratorCanChangeBounty",
          "name": "_arbitratorCanChangeBounty",
          "type": "uint8"
        }
      ],
      "name": "SetArbitratorCanChangeBounty",
      "type": "event"
    },
    {
      "anonymous": false,
      "inputs": [
        {
          "components": [
            {
              "internalType": "uint16",
              "name": "hackerVested",
              "type": "uint16"
            },
            {
              "internalType": "uint16",
              "name": "hacker",
              "type": "uint16"
            },
            {
              "internalType": "uint16",
              "name": "committee",
              "type": "uint16"
            }
          ],
          "indexed": false,
          "internalType": "struct IHATVault.BountySplit",
          "name": "_bountySplit",
          "type": "tuple"
        }
      ],
      "name": "SetBountySplit",
      "type": "event"
    },
    {
      "anonymous": false,
      "inputs": [
        {
          "indexed": false,
          "internalType": "uint256",
          "name": "_challengePeriod",
          "type": "uint256"
        }
      ],
      "name": "SetChallengePeriod",
      "type": "event"
    },
    {
      "anonymous": false,
      "inputs": [
        {
          "indexed": false,
          "internalType": "uint256",
          "name": "_challengeTimeOutPeriod",
          "type": "uint256"
        }
      ],
      "name": "SetChallengeTimeOutPeriod",
      "type": "event"
    },
    {
      "anonymous": false,
      "inputs": [
        {
          "indexed": true,
          "internalType": "address",
          "name": "_committee",
          "type": "address"
        }
      ],
      "name": "SetCommittee",
      "type": "event"
    },
    {
      "anonymous": false,
      "inputs": [
        {
          "indexed": false,
          "internalType": "bool",
          "name": "_depositPause",
          "type": "bool"
        }
      ],
      "name": "SetDepositPause",
      "type": "event"
    },
    {
      "anonymous": false,
      "inputs": [
        {
          "indexed": false,
          "internalType": "uint256",
          "name": "_bountyGovernanceHAT",
          "type": "uint256"
        },
        {
          "indexed": false,
          "internalType": "uint256",
          "name": "_bountyHackerHATVested",
          "type": "uint256"
        }
      ],
      "name": "SetHATBountySplit",
      "type": "event"
    },
    {
      "anonymous": false,
      "inputs": [
        {
          "indexed": false,
          "internalType": "uint256",
          "name": "_maxBounty",
          "type": "uint256"
        }
      ],
      "name": "SetMaxBounty",
      "type": "event"
    },
    {
      "anonymous": false,
      "inputs": [
        {
          "indexed": false,
          "internalType": "uint256",
          "name": "_maxBounty",
          "type": "uint256"
        }
      ],
      "name": "SetPendingMaxBounty",
      "type": "event"
    },
    {
      "anonymous": false,
      "inputs": [
        {
          "indexed": false,
          "internalType": "string",
          "name": "_descriptionHash",
          "type": "string"
        }
      ],
      "name": "SetVaultDescription",
      "type": "event"
    },
    {
      "anonymous": false,
      "inputs": [
        {
          "indexed": false,
          "internalType": "uint256",
          "name": "_duration",
          "type": "uint256"
        },
        {
          "indexed": false,
          "internalType": "uint256",
          "name": "_periods",
          "type": "uint256"
        }
      ],
      "name": "SetVestingParams",
      "type": "event"
    },
    {
      "anonymous": false,
      "inputs": [
        {
          "indexed": false,
          "internalType": "uint256",
          "name": "_newFee",
          "type": "uint256"
        }
      ],
      "name": "SetWithdrawalFee",
      "type": "event"
    },
    {
      "anonymous": false,
      "inputs": [
        {
          "indexed": true,
          "internalType": "bytes32",
          "name": "_claimId",
          "type": "bytes32"
        },
        {
          "indexed": true,
          "internalType": "address",
          "name": "_committee",
          "type": "address"
        },
        {
          "indexed": true,
          "internalType": "address",
          "name": "_beneficiary",
          "type": "address"
        },
        {
          "indexed": false,
          "internalType": "uint256",
          "name": "_bountyPercentage",
          "type": "uint256"
        },
        {
          "indexed": false,
          "internalType": "string",
          "name": "_descriptionHash",
          "type": "string"
        }
      ],
      "name": "SubmitClaim",
      "type": "event"
    },
    {
      "anonymous": false,
      "inputs": [
        {
          "indexed": true,
          "internalType": "address",
          "name": "from",
          "type": "address"
        },
        {
          "indexed": true,
          "internalType": "address",
          "name": "to",
          "type": "address"
        },
        {
          "indexed": false,
          "internalType": "uint256",
          "name": "value",
          "type": "uint256"
        }
      ],
      "name": "Transfer",
      "type": "event"
    },
    {
      "anonymous": false,
      "inputs": [
        {
          "indexed": true,
          "internalType": "address",
          "name": "caller",
          "type": "address"
        },
        {
          "indexed": true,
          "internalType": "address",
          "name": "receiver",
          "type": "address"
        },
        {
          "indexed": true,
          "internalType": "address",
          "name": "owner",
          "type": "address"
        },
        {
          "indexed": false,
          "internalType": "uint256",
          "name": "assets",
          "type": "uint256"
        },
        {
          "indexed": false,
          "internalType": "uint256",
          "name": "shares",
          "type": "uint256"
        }
      ],
      "name": "Withdraw",
      "type": "event"
    },
    {
      "anonymous": false,
      "inputs": [
        {
          "indexed": true,
          "internalType": "address",
          "name": "_beneficiary",
          "type": "address"
        },
        {
          "indexed": false,
          "internalType": "uint256",
          "name": "_withdrawEnableTime",
          "type": "uint256"
        }
      ],
      "name": "WithdrawRequest",
      "type": "event"
    },
    {
      "inputs": [],
      "name": "HUNDRED_PERCENT",
      "outputs": [
        {
          "internalType": "uint256",
          "name": "",
          "type": "uint256"
        }
      ],
      "stateMutability": "view",
      "type": "function"
    },
    {
      "inputs": [],
      "name": "HUNDRED_PERCENT_SQRD",
      "outputs": [
        {
          "internalType": "uint256",
          "name": "",
          "type": "uint256"
        }
      ],
      "stateMutability": "view",
      "type": "function"
    },
    {
      "inputs": [],
      "name": "MAX_BOUNTY_LIMIT",
      "outputs": [
        {
          "internalType": "uint256",
          "name": "",
          "type": "uint256"
        }
      ],
      "stateMutability": "view",
      "type": "function"
    },
    {
      "inputs": [],
      "name": "MAX_COMMITTEE_BOUNTY",
      "outputs": [
        {
          "internalType": "uint256",
          "name": "",
          "type": "uint256"
        }
      ],
      "stateMutability": "view",
      "type": "function"
    },
    {
      "inputs": [],
      "name": "MAX_UINT",
      "outputs": [
        {
          "internalType": "uint256",
          "name": "",
          "type": "uint256"
        }
      ],
      "stateMutability": "view",
      "type": "function"
    },
    {
      "inputs": [],
      "name": "MAX_WITHDRAWAL_FEE",
      "outputs": [
        {
          "internalType": "uint256",
          "name": "",
          "type": "uint256"
        }
      ],
      "stateMutability": "view",
      "type": "function"
    },
    {
      "inputs": [],
      "name": "MINIMAL_AMOUNT_OF_SHARES",
      "outputs": [
        {
          "internalType": "uint256",
          "name": "",
          "type": "uint256"
        }
      ],
      "stateMutability": "view",
      "type": "function"
    },
    {
      "inputs": [],
      "name": "NULL_ADDRESS",
      "outputs": [
        {
          "internalType": "address",
          "name": "",
          "type": "address"
        }
      ],
      "stateMutability": "view",
      "type": "function"
    },
    {
      "inputs": [],
      "name": "NULL_UINT16",
      "outputs": [
        {
          "internalType": "uint16",
          "name": "",
          "type": "uint16"
        }
      ],
      "stateMutability": "view",
      "type": "function"
    },
    {
      "inputs": [],
      "name": "NULL_UINT32",
      "outputs": [
        {
          "internalType": "uint32",
          "name": "",
          "type": "uint32"
        }
      ],
      "stateMutability": "view",
      "type": "function"
    },
    {
      "inputs": [],
      "name": "activeClaim",
      "outputs": [
        {
          "internalType": "bytes32",
          "name": "claimId",
          "type": "bytes32"
        },
        {
          "internalType": "address",
          "name": "beneficiary",
          "type": "address"
        },
        {
          "internalType": "uint16",
          "name": "bountyPercentage",
          "type": "uint16"
        },
        {
          "internalType": "address",
          "name": "committee",
          "type": "address"
        },
        {
          "internalType": "uint32",
          "name": "createdAt",
          "type": "uint32"
        },
        {
          "internalType": "uint32",
          "name": "challengedAt",
          "type": "uint32"
        },
        {
          "internalType": "uint256",
          "name": "bountyGovernanceHAT",
          "type": "uint256"
        },
        {
          "internalType": "uint256",
          "name": "bountyHackerHATVested",
          "type": "uint256"
        },
        {
          "internalType": "address",
          "name": "arbitrator",
          "type": "address"
        },
        {
          "internalType": "uint32",
          "name": "challengePeriod",
          "type": "uint32"
        },
        {
          "internalType": "uint32",
          "name": "challengeTimeOutPeriod",
          "type": "uint32"
        },
        {
          "internalType": "bool",
          "name": "arbitratorCanChangeBounty",
          "type": "bool"
        }
      ],
      "stateMutability": "view",
      "type": "function"
    },
    {
      "inputs": [
        {
          "internalType": "contract IRewardController",
          "name": "_rewardController",
          "type": "address"
        }
      ],
      "name": "addRewardController",
      "outputs": [],
      "stateMutability": "nonpayable",
      "type": "function"
    },
    {
      "inputs": [
        {
          "internalType": "address",
          "name": "owner",
          "type": "address"
        },
        {
          "internalType": "address",
          "name": "spender",
          "type": "address"
        }
      ],
      "name": "allowance",
      "outputs": [
        {
          "internalType": "uint256",
          "name": "",
          "type": "uint256"
        }
      ],
      "stateMutability": "view",
      "type": "function"
    },
    {
      "inputs": [
        {
          "internalType": "address",
          "name": "spender",
          "type": "address"
        },
        {
          "internalType": "uint256",
          "name": "amount",
          "type": "uint256"
        }
      ],
      "name": "approve",
      "outputs": [
        {
          "internalType": "bool",
          "name": "",
          "type": "bool"
        }
      ],
      "stateMutability": "nonpayable",
      "type": "function"
    },
    {
      "inputs": [
        {
          "internalType": "bytes32",
          "name": "_claimId",
          "type": "bytes32"
        },
        {
          "internalType": "uint16",
          "name": "_bountyPercentage",
          "type": "uint16"
        }
      ],
      "name": "approveClaim",
      "outputs": [],
      "stateMutability": "nonpayable",
      "type": "function"
    },
    {
      "inputs": [],
      "name": "asset",
      "outputs": [
        {
          "internalType": "address",
          "name": "",
          "type": "address"
        }
      ],
      "stateMutability": "view",
      "type": "function"
    },
    {
      "inputs": [
        {
          "internalType": "address",
          "name": "account",
          "type": "address"
        }
      ],
      "name": "balanceOf",
      "outputs": [
        {
          "internalType": "uint256",
          "name": "",
          "type": "uint256"
        }
      ],
      "stateMutability": "view",
      "type": "function"
    },
    {
      "inputs": [],
      "name": "bountySplit",
      "outputs": [
        {
          "internalType": "uint16",
          "name": "hackerVested",
          "type": "uint16"
        },
        {
          "internalType": "uint16",
          "name": "hacker",
          "type": "uint16"
        },
        {
          "internalType": "uint16",
          "name": "committee",
          "type": "uint16"
        }
      ],
      "stateMutability": "view",
      "type": "function"
    },
    {
      "inputs": [
        {
          "internalType": "bytes32",
          "name": "_claimId",
          "type": "bytes32"
        }
      ],
      "name": "challengeClaim",
      "outputs": [],
      "stateMutability": "nonpayable",
      "type": "function"
    },
    {
      "inputs": [],
      "name": "committee",
      "outputs": [
        {
          "internalType": "address",
          "name": "",
          "type": "address"
        }
      ],
      "stateMutability": "view",
      "type": "function"
    },
    {
      "inputs": [],
      "name": "committeeCheckIn",
      "outputs": [],
      "stateMutability": "nonpayable",
      "type": "function"
    },
    {
      "inputs": [],
      "name": "committeeCheckedIn",
      "outputs": [
        {
          "internalType": "bool",
          "name": "",
          "type": "bool"
        }
      ],
      "stateMutability": "view",
      "type": "function"
    },
    {
      "inputs": [
        {
          "internalType": "uint256",
          "name": "shares",
          "type": "uint256"
        }
      ],
      "name": "convertToAssets",
      "outputs": [
        {
          "internalType": "uint256",
          "name": "assets",
          "type": "uint256"
        }
      ],
      "stateMutability": "view",
      "type": "function"
    },
    {
      "inputs": [
        {
          "internalType": "uint256",
          "name": "assets",
          "type": "uint256"
        }
      ],
      "name": "convertToShares",
      "outputs": [
        {
          "internalType": "uint256",
          "name": "shares",
          "type": "uint256"
        }
      ],
      "stateMutability": "view",
      "type": "function"
    },
    {
      "inputs": [],
      "name": "decimals",
      "outputs": [
        {
          "internalType": "uint8",
          "name": "",
          "type": "uint8"
        }
      ],
      "stateMutability": "view",
      "type": "function"
    },
    {
      "inputs": [
        {
          "internalType": "address",
          "name": "spender",
          "type": "address"
        },
        {
          "internalType": "uint256",
          "name": "subtractedValue",
          "type": "uint256"
        }
      ],
      "name": "decreaseAllowance",
      "outputs": [
        {
          "internalType": "bool",
          "name": "",
          "type": "bool"
        }
      ],
      "stateMutability": "nonpayable",
      "type": "function"
    },
    {
      "inputs": [
        {
          "internalType": "uint256",
          "name": "assets",
          "type": "uint256"
        },
        {
          "internalType": "address",
          "name": "receiver",
          "type": "address"
        }
      ],
      "name": "deposit",
      "outputs": [
        {
          "internalType": "uint256",
          "name": "",
          "type": "uint256"
        }
      ],
      "stateMutability": "nonpayable",
      "type": "function"
    },
    {
      "inputs": [
        {
          "internalType": "uint256",
          "name": "assets",
          "type": "uint256"
        },
        {
          "internalType": "address",
          "name": "receiver",
          "type": "address"
        },
        {
          "internalType": "uint256",
          "name": "minShares",
          "type": "uint256"
        }
      ],
      "name": "deposit",
      "outputs": [
        {
          "internalType": "uint256",
          "name": "",
          "type": "uint256"
        }
      ],
      "stateMutability": "nonpayable",
      "type": "function"
    },
    {
      "inputs": [],
      "name": "depositPause",
      "outputs": [
        {
          "internalType": "bool",
          "name": "",
          "type": "bool"
        }
      ],
      "stateMutability": "view",
      "type": "function"
    },
    {
      "inputs": [
        {
          "internalType": "bytes32",
          "name": "_claimId",
          "type": "bytes32"
        }
      ],
      "name": "dismissClaim",
      "outputs": [],
      "stateMutability": "nonpayable",
      "type": "function"
    },
    {
      "inputs": [
        {
          "internalType": "address",
          "name": "receiver",
          "type": "address"
        }
      ],
      "name": "emergencyWithdraw",
      "outputs": [
        {
          "internalType": "uint256",
          "name": "assets",
          "type": "uint256"
        }
      ],
      "stateMutability": "nonpayable",
      "type": "function"
    },
    {
      "inputs": [],
      "name": "getArbitrator",
      "outputs": [
        {
          "internalType": "address",
          "name": "",
          "type": "address"
        }
      ],
      "stateMutability": "view",
      "type": "function"
    },
    {
      "inputs": [],
      "name": "getArbitratorCanChangeBounty",
      "outputs": [
        {
          "internalType": "bool",
          "name": "",
          "type": "bool"
        }
      ],
      "stateMutability": "view",
      "type": "function"
    },
    {
      "inputs": [],
      "name": "getBountyGovernanceHAT",
      "outputs": [
        {
          "internalType": "uint16",
          "name": "",
          "type": "uint16"
        }
      ],
      "stateMutability": "view",
      "type": "function"
    },
    {
      "inputs": [],
      "name": "getBountyHackerHATVested",
      "outputs": [
        {
          "internalType": "uint16",
          "name": "",
          "type": "uint16"
        }
      ],
      "stateMutability": "view",
      "type": "function"
    },
    {
      "inputs": [],
      "name": "getChallengePeriod",
      "outputs": [
        {
          "internalType": "uint32",
          "name": "",
          "type": "uint32"
        }
      ],
      "stateMutability": "view",
      "type": "function"
    },
    {
      "inputs": [],
      "name": "getChallengeTimeOutPeriod",
      "outputs": [
        {
          "internalType": "uint32",
          "name": "",
          "type": "uint32"
        }
      ],
      "stateMutability": "view",
      "type": "function"
    },
    {
      "inputs": [
        {
          "internalType": "address",
          "name": "spender",
          "type": "address"
        },
        {
          "internalType": "uint256",
          "name": "addedValue",
          "type": "uint256"
        }
      ],
      "name": "increaseAllowance",
      "outputs": [
        {
          "internalType": "bool",
          "name": "",
          "type": "bool"
        }
      ],
      "stateMutability": "nonpayable",
      "type": "function"
    },
    {
      "inputs": [
        {
          "components": [
            {
              "internalType": "string",
              "name": "name",
              "type": "string"
            },
            {
              "internalType": "string",
              "name": "symbol",
              "type": "string"
            },
            {
              "internalType": "contract IRewardController[]",
              "name": "rewardControllers",
              "type": "address[]"
            },
            {
              "internalType": "uint32",
              "name": "vestingDuration",
              "type": "uint32"
            },
            {
              "internalType": "uint32",
              "name": "vestingPeriods",
              "type": "uint32"
            },
            {
              "internalType": "uint16",
              "name": "maxBounty",
              "type": "uint16"
            },
            {
              "components": [
                {
                  "internalType": "uint16",
                  "name": "hackerVested",
                  "type": "uint16"
                },
                {
                  "internalType": "uint16",
                  "name": "hacker",
                  "type": "uint16"
                },
                {
                  "internalType": "uint16",
                  "name": "committee",
                  "type": "uint16"
                }
              ],
              "internalType": "struct IHATVault.BountySplit",
              "name": "bountySplit",
              "type": "tuple"
            },
            {
              "internalType": "contract IERC20",
              "name": "asset",
              "type": "address"
            },
            {
              "internalType": "address",
              "name": "owner",
              "type": "address"
            },
            {
              "internalType": "address",
              "name": "committee",
              "type": "address"
            },
            {
              "internalType": "bool",
              "name": "isPaused",
              "type": "bool"
            },
            {
              "internalType": "string",
              "name": "descriptionHash",
              "type": "string"
            }
          ],
          "internalType": "struct IHATVault.VaultInitParams",
          "name": "_params",
          "type": "tuple"
        }
      ],
      "name": "initialize",
      "outputs": [],
      "stateMutability": "nonpayable",
      "type": "function"
    },
    {
      "inputs": [],
      "name": "maxBounty",
      "outputs": [
        {
          "internalType": "uint16",
          "name": "",
          "type": "uint16"
        }
      ],
      "stateMutability": "view",
      "type": "function"
    },
    {
      "inputs": [
        {
          "internalType": "address",
          "name": "",
          "type": "address"
        }
      ],
      "name": "maxDeposit",
      "outputs": [
        {
          "internalType": "uint256",
          "name": "",
          "type": "uint256"
        }
      ],
      "stateMutability": "view",
      "type": "function"
    },
    {
      "inputs": [
        {
          "internalType": "address",
          "name": "",
          "type": "address"
        }
      ],
      "name": "maxMint",
      "outputs": [
        {
          "internalType": "uint256",
          "name": "",
          "type": "uint256"
        }
      ],
      "stateMutability": "view",
      "type": "function"
    },
    {
      "inputs": [
        {
          "internalType": "address",
          "name": "owner",
          "type": "address"
        }
      ],
      "name": "maxRedeem",
      "outputs": [
        {
          "internalType": "uint256",
          "name": "",
          "type": "uint256"
        }
      ],
      "stateMutability": "view",
      "type": "function"
    },
    {
      "inputs": [
        {
          "internalType": "address",
          "name": "owner",
          "type": "address"
        }
      ],
      "name": "maxWithdraw",
      "outputs": [
        {
          "internalType": "uint256",
          "name": "",
          "type": "uint256"
        }
      ],
      "stateMutability": "view",
      "type": "function"
    },
    {
      "inputs": [
        {
          "internalType": "uint256",
          "name": "shares",
          "type": "uint256"
        },
        {
          "internalType": "address",
          "name": "receiver",
          "type": "address"
        },
        {
          "internalType": "uint256",
          "name": "maxAssets",
          "type": "uint256"
        }
      ],
      "name": "mint",
      "outputs": [
        {
          "internalType": "uint256",
          "name": "",
          "type": "uint256"
        }
      ],
      "stateMutability": "nonpayable",
      "type": "function"
    },
    {
      "inputs": [
        {
          "internalType": "uint256",
          "name": "shares",
          "type": "uint256"
        },
        {
          "internalType": "address",
          "name": "receiver",
          "type": "address"
        }
      ],
      "name": "mint",
      "outputs": [
        {
          "internalType": "uint256",
          "name": "",
          "type": "uint256"
        }
      ],
      "stateMutability": "nonpayable",
      "type": "function"
    },
    {
      "inputs": [],
      "name": "name",
      "outputs": [
        {
          "internalType": "string",
          "name": "",
          "type": "string"
        }
      ],
      "stateMutability": "view",
      "type": "function"
    },
    {
      "inputs": [],
      "name": "owner",
      "outputs": [
        {
          "internalType": "address",
          "name": "",
          "type": "address"
        }
      ],
      "stateMutability": "view",
      "type": "function"
    },
    {
      "inputs": [],
      "name": "pendingMaxBounty",
      "outputs": [
        {
          "internalType": "uint16",
          "name": "maxBounty",
          "type": "uint16"
        },
        {
          "internalType": "uint32",
          "name": "timestamp",
          "type": "uint32"
        }
      ],
      "stateMutability": "view",
      "type": "function"
    },
    {
      "inputs": [
        {
          "internalType": "uint256",
          "name": "assets",
          "type": "uint256"
        }
      ],
      "name": "previewDeposit",
      "outputs": [
        {
          "internalType": "uint256",
          "name": "",
          "type": "uint256"
        }
      ],
      "stateMutability": "view",
      "type": "function"
    },
    {
      "inputs": [
        {
          "internalType": "uint256",
          "name": "shares",
          "type": "uint256"
        }
      ],
      "name": "previewMint",
      "outputs": [
        {
          "internalType": "uint256",
          "name": "",
          "type": "uint256"
        }
      ],
      "stateMutability": "view",
      "type": "function"
    },
    {
      "inputs": [
        {
          "internalType": "uint256",
          "name": "shares",
          "type": "uint256"
        }
      ],
      "name": "previewRedeem",
      "outputs": [
        {
          "internalType": "uint256",
          "name": "assets",
          "type": "uint256"
        }
      ],
      "stateMutability": "view",
      "type": "function"
    },
    {
      "inputs": [
        {
          "internalType": "uint256",
          "name": "shares",
          "type": "uint256"
        }
      ],
      "name": "previewRedeemAndFee",
      "outputs": [
        {
          "internalType": "uint256",
          "name": "assets",
          "type": "uint256"
        },
        {
          "internalType": "uint256",
          "name": "fee",
          "type": "uint256"
        }
      ],
      "stateMutability": "view",
      "type": "function"
    },
    {
      "inputs": [
        {
          "internalType": "uint256",
          "name": "assets",
          "type": "uint256"
        }
      ],
      "name": "previewWithdraw",
      "outputs": [
        {
          "internalType": "uint256",
          "name": "shares",
          "type": "uint256"
        }
      ],
      "stateMutability": "view",
      "type": "function"
    },
    {
      "inputs": [
        {
          "internalType": "uint256",
          "name": "assets",
          "type": "uint256"
        }
      ],
      "name": "previewWithdrawAndFee",
      "outputs": [
        {
          "internalType": "uint256",
          "name": "shares",
          "type": "uint256"
        },
        {
          "internalType": "uint256",
          "name": "fee",
          "type": "uint256"
        }
      ],
      "stateMutability": "view",
      "type": "function"
    },
    {
      "inputs": [
        {
          "internalType": "uint256",
          "name": "shares",
          "type": "uint256"
        },
        {
          "internalType": "address",
          "name": "receiver",
          "type": "address"
        },
        {
          "internalType": "address",
          "name": "owner",
          "type": "address"
        },
        {
          "internalType": "uint256",
          "name": "minAssets",
          "type": "uint256"
        }
      ],
      "name": "redeem",
      "outputs": [
        {
          "internalType": "uint256",
          "name": "",
          "type": "uint256"
        }
      ],
      "stateMutability": "nonpayable",
      "type": "function"
    },
    {
      "inputs": [
        {
          "internalType": "uint256",
          "name": "shares",
          "type": "uint256"
        },
        {
          "internalType": "address",
          "name": "receiver",
          "type": "address"
        },
        {
          "internalType": "address",
          "name": "owner",
          "type": "address"
        }
      ],
      "name": "redeem",
      "outputs": [
        {
          "internalType": "uint256",
          "name": "",
          "type": "uint256"
        }
      ],
      "stateMutability": "nonpayable",
      "type": "function"
    },
    {
      "inputs": [
        {
          "internalType": "uint256",
          "name": "shares",
          "type": "uint256"
        },
        {
          "internalType": "address",
          "name": "receiver",
          "type": "address"
        },
        {
          "internalType": "address",
          "name": "owner",
          "type": "address"
        },
        {
          "internalType": "uint256",
          "name": "minAssets",
          "type": "uint256"
        }
      ],
      "name": "redeemAndClaim",
      "outputs": [
        {
          "internalType": "uint256",
          "name": "assets",
          "type": "uint256"
        }
      ],
      "stateMutability": "nonpayable",
      "type": "function"
    },
    {
      "inputs": [
        {
          "internalType": "uint256",
          "name": "shares",
          "type": "uint256"
        },
        {
          "internalType": "address",
          "name": "receiver",
          "type": "address"
        },
        {
          "internalType": "address",
          "name": "owner",
          "type": "address"
        }
      ],
      "name": "redeemAndClaim",
      "outputs": [
        {
          "internalType": "uint256",
          "name": "assets",
          "type": "uint256"
        }
      ],
      "stateMutability": "nonpayable",
      "type": "function"
    },
    {
      "inputs": [],
      "name": "registry",
      "outputs": [
        {
          "internalType": "contract HATVaultsRegistry",
          "name": "",
          "type": "address"
        }
      ],
      "stateMutability": "view",
      "type": "function"
    },
    {
      "inputs": [],
      "name": "renounceOwnership",
      "outputs": [],
      "stateMutability": "nonpayable",
      "type": "function"
    },
    {
      "inputs": [
        {
          "internalType": "uint256",
          "name": "",
          "type": "uint256"
        }
      ],
      "name": "rewardControllers",
      "outputs": [
        {
          "internalType": "contract IRewardController",
          "name": "",
          "type": "address"
        }
      ],
      "stateMutability": "view",
      "type": "function"
    },
    {
      "inputs": [
        {
          "internalType": "address",
          "name": "_arbitrator",
          "type": "address"
        }
      ],
      "name": "setArbitrator",
      "outputs": [],
      "stateMutability": "nonpayable",
      "type": "function"
    },
    {
      "inputs": [
        {
          "internalType": "enum IHATVault.ArbitratorCanChangeBounty",
          "name": "_arbitratorCanChangeBounty",
          "type": "uint8"
        }
      ],
      "name": "setArbitratorCanChangeBounty",
      "outputs": [],
      "stateMutability": "nonpayable",
      "type": "function"
    },
    {
      "inputs": [
        {
          "components": [
            {
              "internalType": "uint16",
              "name": "hackerVested",
              "type": "uint16"
            },
            {
              "internalType": "uint16",
              "name": "hacker",
              "type": "uint16"
            },
            {
              "internalType": "uint16",
              "name": "committee",
              "type": "uint16"
            }
          ],
          "internalType": "struct IHATVault.BountySplit",
          "name": "_bountySplit",
          "type": "tuple"
        }
      ],
      "name": "setBountySplit",
      "outputs": [],
      "stateMutability": "nonpayable",
      "type": "function"
    },
    {
      "inputs": [
        {
          "internalType": "uint32",
          "name": "_challengePeriod",
          "type": "uint32"
        }
      ],
      "name": "setChallengePeriod",
      "outputs": [],
      "stateMutability": "nonpayable",
      "type": "function"
    },
    {
      "inputs": [
        {
          "internalType": "uint32",
          "name": "_challengeTimeOutPeriod",
          "type": "uint32"
        }
      ],
      "name": "setChallengeTimeOutPeriod",
      "outputs": [],
      "stateMutability": "nonpayable",
      "type": "function"
    },
    {
      "inputs": [
        {
          "internalType": "address",
          "name": "_committee",
          "type": "address"
        }
      ],
      "name": "setCommittee",
      "outputs": [],
      "stateMutability": "nonpayable",
      "type": "function"
    },
    {
      "inputs": [
        {
          "internalType": "bool",
          "name": "_depositPause",
          "type": "bool"
        }
      ],
      "name": "setDepositPause",
      "outputs": [],
      "stateMutability": "nonpayable",
      "type": "function"
    },
    {
      "inputs": [
        {
          "internalType": "uint16",
          "name": "_bountyGovernanceHAT",
          "type": "uint16"
        },
        {
          "internalType": "uint16",
          "name": "_bountyHackerHATVested",
          "type": "uint16"
        }
      ],
      "name": "setHATBountySplit",
      "outputs": [],
      "stateMutability": "nonpayable",
      "type": "function"
    },
    {
      "inputs": [],
      "name": "setMaxBounty",
      "outputs": [],
      "stateMutability": "nonpayable",
      "type": "function"
    },
    {
      "inputs": [
        {
          "internalType": "uint16",
          "name": "_maxBounty",
          "type": "uint16"
        }
      ],
      "name": "setPendingMaxBounty",
      "outputs": [],
      "stateMutability": "nonpayable",
      "type": "function"
    },
    {
      "inputs": [
        {
          "internalType": "string",
          "name": "_descriptionHash",
          "type": "string"
        }
      ],
      "name": "setVaultDescription",
      "outputs": [],
      "stateMutability": "nonpayable",
      "type": "function"
    },
    {
      "inputs": [
        {
          "internalType": "uint32",
          "name": "_duration",
          "type": "uint32"
        },
        {
          "internalType": "uint32",
          "name": "_periods",
          "type": "uint32"
        }
      ],
      "name": "setVestingParams",
      "outputs": [],
      "stateMutability": "nonpayable",
      "type": "function"
    },
    {
      "inputs": [
        {
          "internalType": "uint256",
          "name": "_fee",
          "type": "uint256"
        }
      ],
      "name": "setWithdrawalFee",
      "outputs": [],
      "stateMutability": "nonpayable",
      "type": "function"
    },
    {
      "inputs": [
        {
          "internalType": "address",
          "name": "_beneficiary",
          "type": "address"
        },
        {
          "internalType": "uint16",
          "name": "_bountyPercentage",
          "type": "uint16"
        },
        {
          "internalType": "string",
          "name": "_descriptionHash",
          "type": "string"
        }
      ],
      "name": "submitClaim",
      "outputs": [
        {
          "internalType": "bytes32",
          "name": "claimId",
          "type": "bytes32"
        }
      ],
      "stateMutability": "nonpayable",
      "type": "function"
    },
    {
      "inputs": [],
      "name": "symbol",
      "outputs": [
        {
          "internalType": "string",
          "name": "",
          "type": "string"
        }
      ],
      "stateMutability": "view",
      "type": "function"
    },
    {
      "inputs": [],
      "name": "tokenLockFactory",
      "outputs": [
        {
          "internalType": "contract ITokenLockFactory",
          "name": "",
          "type": "address"
        }
      ],
      "stateMutability": "view",
      "type": "function"
    },
    {
      "inputs": [],
      "name": "totalAssets",
      "outputs": [
        {
          "internalType": "uint256",
          "name": "",
          "type": "uint256"
        }
      ],
      "stateMutability": "view",
      "type": "function"
    },
    {
      "inputs": [],
      "name": "totalSupply",
      "outputs": [
        {
          "internalType": "uint256",
          "name": "",
          "type": "uint256"
        }
      ],
      "stateMutability": "view",
      "type": "function"
    },
    {
      "inputs": [
        {
          "internalType": "address",
          "name": "to",
          "type": "address"
        },
        {
          "internalType": "uint256",
          "name": "amount",
          "type": "uint256"
        }
      ],
      "name": "transfer",
      "outputs": [
        {
          "internalType": "bool",
          "name": "",
          "type": "bool"
        }
      ],
      "stateMutability": "nonpayable",
      "type": "function"
    },
    {
      "inputs": [
        {
          "internalType": "address",
          "name": "from",
          "type": "address"
        },
        {
          "internalType": "address",
          "name": "to",
          "type": "address"
        },
        {
          "internalType": "uint256",
          "name": "amount",
          "type": "uint256"
        }
      ],
      "name": "transferFrom",
      "outputs": [
        {
          "internalType": "bool",
          "name": "",
          "type": "bool"
        }
      ],
      "stateMutability": "nonpayable",
      "type": "function"
    },
    {
      "inputs": [
        {
          "internalType": "address",
          "name": "newOwner",
          "type": "address"
        }
      ],
      "name": "transferOwnership",
      "outputs": [],
      "stateMutability": "nonpayable",
      "type": "function"
    },
    {
      "inputs": [],
      "name": "vestingDuration",
      "outputs": [
        {
          "internalType": "uint32",
          "name": "",
          "type": "uint32"
        }
      ],
      "stateMutability": "view",
      "type": "function"
    },
    {
      "inputs": [],
      "name": "vestingPeriods",
      "outputs": [
        {
          "internalType": "uint32",
          "name": "",
          "type": "uint32"
        }
      ],
      "stateMutability": "view",
      "type": "function"
    },
    {
      "inputs": [
        {
          "internalType": "uint256",
          "name": "assets",
          "type": "uint256"
        },
        {
          "internalType": "address",
          "name": "receiver",
          "type": "address"
        },
        {
          "internalType": "address",
          "name": "owner",
          "type": "address"
        },
        {
          "internalType": "uint256",
          "name": "maxShares",
          "type": "uint256"
        }
      ],
      "name": "withdraw",
      "outputs": [
        {
          "internalType": "uint256",
          "name": "",
          "type": "uint256"
        }
      ],
      "stateMutability": "nonpayable",
      "type": "function"
    },
    {
      "inputs": [
        {
          "internalType": "uint256",
          "name": "assets",
          "type": "uint256"
        },
        {
          "internalType": "address",
          "name": "receiver",
          "type": "address"
        },
        {
          "internalType": "address",
          "name": "owner",
          "type": "address"
        }
      ],
      "name": "withdraw",
      "outputs": [
        {
          "internalType": "uint256",
          "name": "",
          "type": "uint256"
        }
      ],
      "stateMutability": "nonpayable",
      "type": "function"
    },
    {
      "inputs": [
        {
          "internalType": "uint256",
          "name": "assets",
          "type": "uint256"
        },
        {
          "internalType": "address",
          "name": "receiver",
          "type": "address"
        },
        {
          "internalType": "address",
          "name": "owner",
          "type": "address"
        },
        {
          "internalType": "uint256",
          "name": "maxShares",
          "type": "uint256"
        }
      ],
      "name": "withdrawAndClaim",
      "outputs": [
        {
          "internalType": "uint256",
          "name": "shares",
          "type": "uint256"
        }
      ],
      "stateMutability": "nonpayable",
      "type": "function"
    },
    {
      "inputs": [
        {
          "internalType": "uint256",
          "name": "assets",
          "type": "uint256"
        },
        {
          "internalType": "address",
          "name": "receiver",
          "type": "address"
        },
        {
          "internalType": "address",
          "name": "owner",
          "type": "address"
        }
      ],
      "name": "withdrawAndClaim",
      "outputs": [
        {
          "internalType": "uint256",
          "name": "shares",
          "type": "uint256"
        }
      ],
      "stateMutability": "nonpayable",
      "type": "function"
    },
    {
      "inputs": [
        {
          "internalType": "address",
          "name": "",
          "type": "address"
        }
      ],
      "name": "withdrawEnableStartTime",
      "outputs": [
        {
          "internalType": "uint256",
          "name": "",
          "type": "uint256"
        }
      ],
      "stateMutability": "view",
      "type": "function"
    },
    {
      "inputs": [],
      "name": "withdrawRequest",
      "outputs": [],
      "stateMutability": "nonpayable",
      "type": "function"
    },
    {
      "inputs": [],
      "name": "withdrawalFee",
      "outputs": [
        {
          "internalType": "uint256",
          "name": "",
          "type": "uint256"
        }
      ],
      "stateMutability": "view",
      "type": "function"
    }
  ],
  "transactionHash": "0x19b1ef079c3b80fabfb8a61295e65ff64491df6b6bce515e2a457b66f595f446",
  "args": [],
  "numDeployments": 1,
  "solcInputHash": "e4af3fa385b5464b36fdebeaca27afaa",
  "bytecode": "0x608060405234801561001057600080fd5b50615fa080620000216000396000f3fe608060405234801561001057600080fd5b50600436106105045760003560e01c80638da5cb5b11610299578063c9e5552911610167578063db3835bc116100d9578063ef8b30f711610092578063ef8b30f714610a46578063f10284c614610c4c578063f2fde38b14610c54578063f4d0fb9914610c67578063fb45153e14610c7a578063fdc149ef14610c8257600080fd5b8063db3835bc146106c9578063dd62ed3e14610c07578063de0ce17d14610c1a578063e448504114610c28578063e5b5019a14610c3b578063eb6ed33014610c4457600080fd5b8063d52d5ee71161012b578063d52d5ee714610ac1578063d864e74014610ad4578063d8e3496014610aef578063d905777e14610af7578063da6d1be914610b0a578063da80764a14610bf457600080fd5b8063c9e5552914610a59578063ce90930714610a81578063ce96cb7714610a8c578063d085529314610a9f578063d261cfb014610ab257600080fd5b8063a9059cbb1161020b578063bc157ac1116101c4578063bc157ac114610a04578063bddae40e14610a17578063be9efac914610a2a578063c1972f8b14610a3d578063c63d75b6146106d2578063c6e6f59214610a4657600080fd5b8063a9059cbb14610992578063ac1e5025146109a5578063b0eefabe146109b8578063b3d7f6b9146109cb578063b460af94146109de578063ba087652146109f157600080fd5b80639da86a291161025d5780639da86a29146108f45780639f40a7b31461093e578063a318c1a414610951578063a397a63514610964578063a417e00c1461096c578063a457c2d71461097f57600080fd5b80638da5cb5b146108a057806394bf804d146108b157806395827fdd146108c457806395d89b41146108d75780639d38e5eb146108df57600080fd5b8063402d267d116103d65780636ff1c9bc116103485780637b103999116103015780637b103999146108375780637faec71a1461084a578063836a10401461085d57806386d192e5146108705780638bc7e8c4146108835780638bfcda251461088d57600080fd5b80636ff1c9bc146107c557806370a08231146107d8578063715018a614610801578063730e34cd146108095780637864b77d1461081c5780637901808b1461082457600080fd5b8063551bd4171161039a578063551bd41714610735578063658fc2a6146107505780636da9a3ec1461078c5780636e22558d146107945780636e553f65146107a95780636ed93dd0146107bc57600080fd5b8063402d267d146106d2578063436b6c83146106e55780634711db1f146106f857806348723633146107015780634cdad5061461072257600080fd5b806318160ddd1161047a578063313ce56711610433578063313ce5671461067b57806335704b0f1461068a578063380e687a1461069d57806338d52e0f146106a557806339509351146106b65780633db1807f146106c957600080fd5b806318160ddd1461061457806318a34ea61461061c57806323b872dd1461062f5780632764c95b146106425780632d672fa0146106555780632ec6f2681461066857600080fd5b8063095ea7b3116104cc578063095ea7b3146105815780630a28a477146105a45780630a6bbcd8146105b75780630fceb746146105ca57806311c2aae3146105ea5780631514617e146105fd57600080fd5b8063014cac971461050957806301e1d1141461052e57806304165db11461054457806306fdde031461055957806307a2d13a1461056e575b600080fd5b61051463ffffffff81565b60405163ffffffff90911681526020015b60405180910390f35b610536610c9a565b604051908152602001610525565b61055761055236600461538d565b610d0c565b005b610561610ee8565b60405161052591906153ca565b61053661057c36600461538d565b610f7a565b61059461058f366004615412565b610f8d565b6040519015158152602001610525565b6105366105b236600461538d565b610fa5565b6105576105c536600461544e565b610fb7565b6105d2611072565b6040516001600160a01b039091168152602001610525565b60fc546105d2906001600160a01b031681565b610105546105149062010000900463ffffffff1681565b603554610536565b61055761062a36600461547d565b611119565b61059461063d3660046154b6565b61112f565b6105576106503660046154f7565b611155565b61053661066336600461555d565b6112ad565b6105366106763660046155c2565b611730565b60405160128152602001610525565b61055761069836600461560a565b6117e4565b610557611956565b6065546001600160a01b03166105d2565b6105946106c4366004615412565b611a55565b6105366103e881565b6105366106e0366004615638565b611a77565b6105576106f3366004615655565b611a9c565b61053661232881565b61053661070f366004615638565b6101096020526000908152604090205481565b61053661073036600461538d565b611b84565b61073d611b8f565b60405161ffff9091168152602001610525565b6101085461076d9061ffff81169062010000900463ffffffff1682565b6040805161ffff909316835263ffffffff909116602083015201610525565b610514611c1f565b6101055461059490600160f81b900460ff1681565b6105366107b7366004615676565b611cb8565b61053661271081565b6105366107d3366004615638565b611cc4565b6105366107e6366004615638565b6001600160a01b031660009081526033602052604090205490565b610557611d1c565b6105576108173660046154f7565b611d30565b610514611e87565b61053661083236600461569b565b611efc565b60fb546105d2906001600160a01b031681565b6105576108583660046156dd565b611fae565b61053661086b3660046156f5565b612147565b61055761087e36600461572a565b61217e565b6105366101065481565b61055761089b366004615747565b6121d6565b6097546001600160a01b03166105d2565b6105366108bf366004615676565b612716565b6105366108d23660046155c2565b612789565b610561612834565b6101055461059490600160f01b900460ff1681565b610104546109199061ffff808216916201000081048216916401000000009091041683565b6040805161ffff94851681529284166020840152921691810191909152606001610525565b61053661094c3660046155c2565b612843565b61053661095f3660046155c2565b61287d565b6105576128ae565b61055761097a36600461576c565b61291f565b61059461098d366004615412565b6129e4565b6105946109a0366004615412565b612a6a565b6105576109b336600461538d565b612a78565b6105576109c6366004615638565b612b64565b6105366109d936600461538d565b612c51565b6105366109ec36600461569b565b612c5e565b6105366109ff36600461569b565b612c84565b610536610a123660046156f5565b612caa565b610557610a25366004615638565b612cda565b610557610a383660046157ae565b612dc6565b61073d61ffff81565b610536610a5436600461538d565b61318f565b610a6c610a6736600461538d565b61319c565b60408051928352602083019190915201610525565b6105366305f5e10081565b610536610a9a366004615638565b6131db565b610536610aad36600461569b565b613230565b6101055461073d9061ffff1681565b610557610acf36600461538d565b6132da565b610105546105d290600160501b90046001600160a01b031681565b610594613450565b610536610b05366004615638565b613505565b60fd5460fe5460ff8054610100546101015461010254610b7896956001600160a01b038082169661ffff600160a01b9384900416968083169663ffffffff858304811697600160c01b9384900482169792969095831694908304821693830490911691600160e01b9004168c565b604080519c8d526001600160a01b039b8c1660208e015261ffff909a16998c019990995296891660608b015263ffffffff95861660808b015293851660a08a015260c089019290925260e08801529490941661010086015292831661012085015291909116610140830152151561016082015261018001610525565b6105d2610c0236600461538d565b613556565b610536610c153660046157ea565b613581565b6105d26001600160a01b0381565b610557610c36366004615638565b6135ac565b61053660001981565b61053660c881565b6105576136e7565b610557610c62366004615638565b613868565b610a6c610c7536600461538d565b6138e1565b61073d613913565b6101055461051490600160301b900463ffffffff1681565b6065546040516370a0823160e01b81523060048201526000916001600160a01b0316906370a0823190602401602060405180830381865afa158015610ce3573d6000803e3d6000fd5b505050506040513d601f19601f82011682018060405250810190610d079190615818565b905090565b60ff548190600160a01b900463ffffffff16600003610d3e57604051631a1437b360e11b815260040160405180910390fd5b60fd548114610d605760405163068a522b60e31b815260040160405180910390fd5b610102546001600160a01b03163314801590610e04575060fb60009054906101000a90046001600160a01b03166001600160a01b0316638da5cb5b6040518163ffffffff1660e01b8152600401602060405180830381865afa158015610dca573d6000803e3d6000fd5b505050506040513d601f19601f82011682018060405250810190610dee9190615831565b6001600160a01b0316336001600160a01b031614155b15610e225760405163311f43dd60e11b815260040160405180910390fd5b6101025460ff54610e489163ffffffff600160a01b918290048116929190910416615864565b63ffffffff164210610e6d57604051631e188ee160e31b815260040160405180910390fd5b60ff54600160c01b900463ffffffff1615610e9b5760405163085c345b60e41b815260040160405180910390fd5b60ff805463ffffffff60c01b1916600160c01b4263ffffffff160217905560405182907f18cee768ef1c2d81fe153ce96ec56a038f24630c2a125dc04aa06e7765457b5690600090a25050565b606060368054610ef790615881565b80601f0160208091040260200160405190810160405280929190818152602001828054610f2390615881565b8015610f705780601f10610f4557610100808354040283529160200191610f70565b820191906000526020600020905b815481529060010190602001808311610f5357829003601f168201915b5050505050905090565b6000610f87826000613985565b92915050565b600033610f9b818585613a43565b5060019392505050565b6000610fb08261319c565b5092915050565b610fbf613b67565b60ff54600160a01b900463ffffffff1615610fed5760405163c50c0f9960e01b815260040160405180910390fd5b6123288161ffff16111561101457604051633dfa47cb60e01b815260040160405180910390fd5b610108805461ffff831665ffffffffffff199091168117620100004263ffffffff1602179091556040519081527f9d9d28b01b74ce9cf83d0252bb9cee9fc2ac3a651a277b6a254b7a824342d0c4906020015b60405180910390a150565b61010a546000906001600160a01b03640100000000909104811690811461109857919050565b60fb60009054906101000a90046001600160a01b03166001600160a01b031663db0f267b6040518163ffffffff1660e01b8152600401602060405180830381865afa1580156110eb573d6000803e3d6000fd5b505050506040513d601f19601f8201168201806040525081019061110f9190615831565b91505090565b5090565b611121613b67565b61112b8282613bc1565b5050565b60003361113d858285613cb7565b611148858585613d31565b60019150505b9392505050565b60fb5460408051638da5cb5b60e01b8152905133926001600160a01b031691638da5cb5b9160048083019260209291908290030181865afa15801561119e573d6000803e3d6000fd5b505050506040513d601f19601f820116820180604052508101906111c29190615831565b6001600160a01b0316146111e95760405163d61d1ac760e01b815260040160405180910390fd5b63ffffffff818116146112585760fb5460405163165db9a960e01b815263ffffffff831660048201526001600160a01b039091169063165db9a99060240160006040518083038186803b15801561123f57600080fd5b505afa158015611253573d6000803e3d6000fd5b505050505b61010a805463ffffffff60c01b1916600160c01b63ffffffff8416908102919091179091556040519081527f5024621f2175cab0e0a5ebc174679f1b57839cff38355e8b20ad16ef4ddb656b90602001611067565b61010554600090600160501b90046001600160a01b031633146112e25760405162d02c1d60e11b815260040160405180910390fd5b60ff54600160a01b900463ffffffff16156113105760405163c50c0f9960e01b815260040160405180910390fd5b60fb60009054906101000a90046001600160a01b03166001600160a01b031663290d10c46040518163ffffffff1660e01b8152600401602060405180830381865afa158015611363573d6000803e3d6000fd5b505050506040513d601f19601f8201168201806040525081019061138791906158b5565b156113a557604051635ed0818960e01b815260040160405180910390fd5b60fb54604080516302ea7f2560e41b815290516001600160a01b03909216916000918391632ea7f250916004808201926020929091908290030181865afa1580156113f4573d6000803e3d6000fd5b505050506040513d601f19601f820116820180604052508101906114189190615818565b905080826001600160a01b031663eeb338876040518163ffffffff1660e01b8152600401602060405180830381865afa158015611459573d6000803e3d6000fd5b505050506040513d601f19601f8201168201806040525081019061147d9190615818565b61148790836158d2565b61149190426158fb565b10156114b05760405163b71c745b60e01b815260040160405180910390fd5b6101055461ffff90811690871611156114dc5760405163c83039db60e01b815260040160405180910390fd5b30610107600081546114ed9061590f565b918290555060405160609290921b6bffffffffffffffffffffffff191660208301526034820152605401604051602081830303815290604052805190602001209250604051806101800160405280848152602001886001600160a01b031681526020018761ffff168152602001336001600160a01b031681526020014263ffffffff168152602001600063ffffffff16815260200161158a611b8f565b61ffff16815260200161159b613913565b61ffff1681526020016115ac611072565b6001600160a01b031681526020016115c2611e87565b63ffffffff1681526020016115d5611c1f565b63ffffffff1681526020016115e8613450565b15159052805160fd55602081015160fe80546040808501516001600160a01b039485166001600160b01b031990931692909217600160a01b61ffff909316830217909255606084015160ff8054608087015160a08801519387166001600160c01b03199283161763ffffffff91821686021763ffffffff60c01b1916600160c01b94821685021790925560c087015161010090815560e08801516101015587015161010280546101208a01516101408b0151610160909b0151938a1691909416179284169095029190911764ffffffffff60c01b19169690911690910260ff60e01b191694909417600160e01b9415159490940293909317909255905190881690339085907f74bacf5e8961b0e45e6d22a66fcc3de56c31e095386e2fd8dc43fde5c94bf7909061171e908b908b908b90615951565b60405180910390a45050949350505050565b600061173e85858585612843565b905060005b610103548110156117db5761010381815481106117625761176261596f565b6000918252602090912001546040516324a9e3c160e11b81523060048201526001600160a01b03868116602483015290911690634953c78290604401600060405180830381600087803b1580156117b857600080fd5b505af11580156117cc573d6000803e3d6000fd5b50505050806001019050611743565b50949350505050565b60fb5460408051638da5cb5b60e01b8152905133926001600160a01b031691638da5cb5b9160048083019260209291908290030181865afa15801561182d573d6000803e3d6000fd5b505050506040513d601f19601f820116820180604052508101906118519190615831565b6001600160a01b0316146118785760405163d61d1ac760e01b815260040160405180910390fd5b61010a805461ffff838116620100000263ffffffff199092169085161717905560fb546001600160a01b031663fb9a87406118b1611b8f565b6118b9613913565b6040516001600160e01b031960e085901b16815261ffff92831660048201529116602482015260440160006040518083038186803b1580156118fa57600080fd5b505afa15801561190e573d6000803e3d6000fd5b50506040805161ffff8087168252851660208201527fb76a01d39e1cd92db69e1fba6bbfdb5d5eaf198958bee0826162c3283ff7884893500190505b60405180910390a15050565b600260c954036119815760405162461bcd60e51b815260040161197890615985565b60405180910390fd5b600260c95560fb5460408051631dea4ae760e11b815290516000926001600160a01b031691633bd495ce9160048083019260209291908290030181865afa1580156119d0573d6000803e3d6000fd5b505050506040513d601f19601f820116820180604052508101906119f49190615818565b6119fe90426158d2565b33600081815261010960209081526040918290208490559051838152929350909182917f17040713250ec5f668a1c39e7939900e78558350dbaff0ebef34268dfa8ea4ac910160405180910390a25050600160c955565b600033610f9b818585611a688383613581565b611a7291906158d2565b613a43565b61010554600090600160f81b900460ff16611a9457600019610f87565b600092915050565b60fb5460408051638da5cb5b60e01b8152905133926001600160a01b031691638da5cb5b9160048083019260209291908290030181865afa158015611ae5573d6000803e3d6000fd5b505050506040513d601f19601f82011682018060405250810190611b099190615831565b6001600160a01b031614611b305760405163d61d1ac760e01b815260040160405180910390fd5b61010b805482919060ff19166001836002811115611b5057611b506159bc565b02179055507fd7cb2841948eb09bee01cc782c1897111c723fd1c27026b478a73e6236f5601b8160405161106791906159f0565b6000610fb0826138e1565b61010a5460009061ffff908116908114611ba857919050565b60fb60009054906101000a90046001600160a01b03166001600160a01b031663544920786040518163ffffffff1660e01b8152600401602060405180830381865afa158015611bfb573d6000803e3d6000fd5b505050506040513d601f19601f8201168201806040525081019061110f9190615a03565b61010a5460009063ffffffff600160e01b9091048116908114611c4157919050565b60fb60009054906101000a90046001600160a01b03166001600160a01b031663f51a90e46040518163ffffffff1660e01b8152600401602060405180830381865afa158015611c94573d6000803e3d6000fd5b505050506040513d601f19601f8201168201806040525081019061110f9190615a20565b600061114e8383613f10565b61010b805461ff001916610100179055600080611cde3390565b9050611d09611d02826001600160a01b031660009081526033602052604090205490565b8483612c84565b61010b805461ff00191690559392505050565b611d24613b67565b611d2e6000613f83565b565b60fb5460408051638da5cb5b60e01b8152905133926001600160a01b031691638da5cb5b9160048083019260209291908290030181865afa158015611d79573d6000803e3d6000fd5b505050506040513d601f19601f82011682018060405250810190611d9d9190615831565b6001600160a01b031614611dc45760405163d61d1ac760e01b815260040160405180910390fd5b63ffffffff81811614611e335760fb5460405163891ce46760e01b815263ffffffff831660048201526001600160a01b039091169063891ce4679060240160006040518083038186803b158015611e1a57600080fd5b505afa158015611e2e573d6000803e3d6000fd5b505050505b61010a80546001600160e01b0316600160e01b63ffffffff8416908102919091179091556040519081527f6e25891c35494d6a8dfde4ac9fd75a3c140431624a4af477a084736b09ed7afe90602001611067565b61010a5460009063ffffffff600160c01b9091048116908114611ea957919050565b60fb60009054906101000a90046001600160a01b03166001600160a01b03166311566d746040518163ffffffff1660e01b8152600401602060405180830381865afa158015611c94573d6000803e3d6000fd5b6000611f09848484612c84565b905060005b61010354811015611fa6576101038181548110611f2d57611f2d61596f565b6000918252602090912001546040516324a9e3c160e11b81523060048201526001600160a01b03858116602483015290911690634953c78290604401600060405180830381600087803b158015611f8357600080fd5b505af1158015611f97573d6000803e3d6000fd5b50505050806001019050611f0e565b509392505050565b611fb6613b67565b60ff54600160a01b900463ffffffff1615611fe45760405163c50c0f9960e01b815260040160405180910390fd5b60fb54604080516302ea7f2560e41b815290516000926001600160a01b031691632ea7f2509160048083019260209291908290030181865afa15801561202e573d6000803e3d6000fd5b505050506040513d601f19601f820116820180604052508101906120529190615818565b90508060fb60009054906101000a90046001600160a01b03166001600160a01b031663eeb338876040518163ffffffff1660e01b8152600401602060405180830381865afa1580156120a8573d6000803e3d6000fd5b505050506040513d601f19601f820116820180604052508101906120cc9190615818565b6120d690836158d2565b6120e090426158fb565b106120fe57604051635a1c393760e11b815260040160405180910390fd5b61210782613fd5565b816101046121158282615a3d565b9050507fa786f776fdae97acbbd2724bdf252aeb3fafdec6d2e98e41a22f0b480744eaf38260405161194a9190615ab6565b6000806121548585612716565b905082811115612176576040516236770d60e11b815260040160405180910390fd5b949350505050565b612186613b67565b6101058054821515600160f81b026001600160f81b039091161790556040517f0653e29fcca730c396a6099e174293ae6bd435437a5de4f8c461f7b5dc9e58f29061106790831515815260200190565b600260c954036121f85760405162461bcd60e51b815260040161197890615985565b600260c95560ff548290600160a01b900463ffffffff1660000361222f57604051631a1437b360e11b815260040160405180910390fd5b60fd5481146122515760405163068a522b60e31b815260040160405180910390fd5b604080516101808101825260fd8054825260fe80546001600160a01b038082166020860152600160a01b80830461ffff169686019690965260ff8054808316606088015287810463ffffffff90811660808901819052600160c01b808404831660a08b0152610100805460c08c0152610101805460e08d01526101028054988916838e01529c880485166101208d018190529288049094166101408c01819052600160e01b8804871615156101608d015260009a8b90556001600160b01b03199098169098556001600160e01b031990931690935594869055949093556001600160e81b0319169094559192916123489190615864565b6123529190615864565b63ffffffff164210612377576040516341524ecf60e11b815260040160405180910390fd5b60a081015163ffffffff161561240f578061010001516001600160a01b0316336001600160a01b03161415806123c757508061014001518160a001516123bd9190615864565b63ffffffff164210155b156123e5576040516315421c8960e01b815260040160405180910390fd5b80610160015180156123fa575061ffff831615155b1561240a5761ffff831660408201525b612449565b80610120015181608001516124249190615864565b63ffffffff16421161244957604051631caf6c9560e21b815260040160405180910390fd5b600080612467836040015161ffff168460c001518560e00151614074565b9050600061247d6065546001600160a01b031690565b6020830151909150156125735760fc5460208581015190840151610105546001600160a01b039093169263e95cd05192859260009242906124ca9062010000900463ffffffff16826158d2565b6101055460405160e089901b6001600160e01b031916815261250c97969594939291600160301b900463ffffffff169060009081906002908290600401615b03565b6020604051808303816000875af115801561252b573d6000803e3d6000fd5b505050506040513d601f19601f8201168201806040525081019061254f9190615831565b9250612573838360200151836001600160a01b03166141da9092919063ffffffff16565b6020840151825161258e916001600160a01b038416916141da565b606084015160408301516125ac916001600160a01b038416916141da565b60fb54608083015160608401516001600160a01b03909216916125e69183916125d591906158d2565b6001600160a01b0385169190614242565b602085015160608401516080850151604051635dd1141560e01b81526001600160a01b03868116600483015293841660248201526044810192909252606482015290821690635dd1141590608401600060405180830381600087803b15801561264e57600080fd5b505af1158015612662573d6000803e3d6000fd5b5061267c925050506001600160a01b038316826000614242565b602080860151604080880151815161ffff90911681526001600160a01b038881168286015287518284015293870151606080830191909152918701516080808301919091529187015160a08201529086015160c082015291169033908a907f4b22b0551b79e42d81d17d0700b5c56d1795c55d10922476f69ada51e794a5e99060e00160405180910390a45050600160c955505050505050565b600061272182611a77565b8311156127705760405162461bcd60e51b815260206004820152601b60248201527f455243343632363a206d696e74206d6f7265207468616e206d617800000000006044820152606401611978565b600061277b84612c51565b905061114e33848387614357565b60006127978585858561287d565b905060005b610103548110156117db5761010381815481106127bb576127bb61596f565b6000918252602090912001546040516324a9e3c160e11b81523060048201526001600160a01b03868116602483015290911690634953c78290604401600060405180830381600087803b15801561281157600080fd5b505af1158015612825573d6000803e3d6000fd5b5050505080600101905061279c565b606060378054610ef790615881565b600080612851868686612c84565b90508281101561287457604051632e1a5a5360e21b815260040160405180910390fd5b95945050505050565b60008061288b868686612c5e565b9050828111156128745760405163ad5f70f360e01b815260040160405180910390fd5b61010554600160501b90046001600160a01b031633146128e05760405162d02c1d60e11b815260040160405180910390fd5b610105805460ff60f01b1916600160f01b1790556040517fda94dc4b788057a35879928f9ba97261fdb3a4371ba4aa7a1e7e34fae93b492190600090a1565b60fb5460408051638da5cb5b60e01b8152905133926001600160a01b031691638da5cb5b9160048083019260209291908290030181865afa158015612968573d6000803e3d6000fd5b505050506040513d601f19601f8201168201806040525081019061298c9190615831565b6001600160a01b0316146129b35760405163d61d1ac760e01b815260040160405180910390fd5b7ff4c65ddb6aed78463fc27d79ccd85368bb0ecd80bd763b891a8b64ef41ac750b828260405161194a929190615b7d565b600033816129f28286613581565b905083811015612a525760405162461bcd60e51b815260206004820152602560248201527f45524332303a2064656372656173656420616c6c6f77616e63652062656c6f77604482015264207a65726f60d81b6064820152608401611978565b612a5f8286868403613a43565b506001949350505050565b600033610f9b818585613d31565b60fb54604080516321f3cfbd60e21b8152905133926001600160a01b0316916387cf3ef49160048083019260209291908290030181865afa158015612ac1573d6000803e3d6000fd5b505050506040513d601f19601f82011682018060405250810190612ae59190615831565b6001600160a01b031614612b0c57604051637155bb1960e01b815260040160405180910390fd5b60c8811115612b2e576040516369b91bc760e01b815260040160405180910390fd5b6101068190556040518181527f3aa4413905e8f015896ec5880bdde24088ccb19b578f9fcf6800354d5320d4af90602001611067565b60fb5460408051638da5cb5b60e01b8152905133926001600160a01b031691638da5cb5b9160048083019260209291908290030181865afa158015612bad573d6000803e3d6000fd5b505050506040513d601f19601f82011682018060405250810190612bd19190615831565b6001600160a01b031614612bf85760405163d61d1ac760e01b815260040160405180910390fd5b61010a8054640100000000600160c01b0319166401000000006001600160a01b038416908102919091179091556040517f53910d8ecf7b5b828433963dea4325f13b37cbdbfd212f83cb73ec179a60e12190600090a250565b6000610f87826001613985565b6000806000612c6c8661319c565b915091506117db612c7a3390565b8686898686614419565b6000806000612c92866138e1565b915091506117db612ca03390565b8686858a86614419565b600080612cb78585611cb8565b90508281101561217657604051633a81aa0160e21b815260040160405180910390fd5b6097546001600160a01b031633148015612d07575061010554600160501b90046001600160a01b03163314155b15612d3d5761010554600160f01b900460ff1615612d3857604051633b343aa560e01b815260040160405180910390fd5b612d6f565b61010554600160501b90046001600160a01b03163314612d6f5760405162d02c1d60e11b815260040160405180910390fd5b6101058054600160501b600160f01b031916600160501b6001600160a01b038416908102919091179091556040517f22a3400c609e52ea781540daed872a0ff7b79a428f634be082c24c2faf06846390600090a250565b600054610100900460ff1615808015612de65750600054600160ff909116105b80612e005750303b158015612e00575060005460ff166001145b612e635760405162461bcd60e51b815260206004820152602e60248201527f496e697469616c697a61626c653a20636f6e747261637420697320616c72656160448201526d191e481a5b9a5d1a585b1a5e995960921b6064820152608401611978565b6000805460ff191660011790558015612e86576000805461ff0019166101001790555b612328612e9960c0840160a0850161544e565b61ffff161115612ebc57604051633dfa47cb60e01b815260040160405180910390fd5b612ec88260c001613fd5565b612f28612ed58380615b91565b604051602001612ee6929190615bd8565b60408051601f19818403018152919052612f036020850185615b91565b604051602001612f14929190615bff565b6040516020818303038152906040526145ae565b612f42612f3d61014084016101208501615638565b6145df565b612f4f6040830183615c1e565b612f5c916101039161531e565b50612f85612f7060808401606085016154f7565b612f8060a08501608086016154f7565b613bc1565b33612f9660c0840160a0850161544e565b610105805461ffff191661ffff9290921691909117905560c08301610104612fbe8282615a3d565b50612fd3905061018084016101608501615638565b61010580546001600160a01b0392909216600160501b02600160501b600160f01b03199092169190911790556130116101a08401610180850161572a565b61010580546001600160f81b0316600160f81b9215159290920291909117905560fb80546001600160a01b0319166001600160a01b03831617905561305461460f565b61306e61306961016085016101408601615638565b613f83565b806001600160a01b03166311c2aae36040518163ffffffff1660e01b8152600401602060405180830381865afa1580156130ac573d6000803e3d6000fd5b505050506040513d601f19601f820116820180604052508101906130d09190615831565b60fc80546001600160a01b03929092166001600160a01b031990921691909117905561010b805460ff1916600217905560001961010a557ff4c65ddb6aed78463fc27d79ccd85368bb0ecd80bd763b891a8b64ef41ac750b6131366101a0850185615b91565b604051613144929190615b7d565b60405180910390a150801561112b576000805461ff0019169055604051600181527f7f26b83ff96e1f2b6a682f133852f6798a09c465da95921460cefb38474024989060200161194a565b6000610f8782600061463e565b6101065460009081906131bd816131b581612710615c68565b8691906146ed565b91506131d36131cc83866158d2565b600161463e565b925050915091565b60ff54600090600160a01b900463ffffffff1615158061320157506131ff8261479c565b155b1561320e57506000919050565b610f87610730836001600160a01b031660009081526033602052604090205490565b600061323d848484612c5e565b905060005b61010354811015611fa65761010381815481106132615761326161596f565b6000918252602090912001546040516324a9e3c160e11b81523060048201526001600160a01b03858116602483015290911690634953c78290604401600060405180830381600087803b1580156132b757600080fd5b505af11580156132cb573d6000803e3d6000fd5b50505050806001019050613242565b60ff548190600160a01b900463ffffffff1660000361330c57604051631a1437b360e11b815260040160405180910390fd5b60fd54811461332e5760405163068a522b60e31b815260040160405180910390fd5b6101025460ff5463ffffffff600160c01b808404821693908304821692849261336492600160a01b908190048216920416615864565b63ffffffff1661337491906158d2565b42116133de578060000361339b576040516332c7ab4360e01b815260040160405180910390fd5b6133a582826158d2565b42111580156133c05750610102546001600160a01b03163314155b156133de57604051635f2d8d8360e01b815260040160405180910390fd5b600060fd81905560fe80546001600160b01b031916905560ff80546001600160e01b031916905561010081905561010181905561010280546001600160e81b031916905560405185917f940c35077c5ad047271f088696e713b44c4776cc8fa7665b0e81a421c91ec12991a250505050565b61010b5460009060ff16600281600281111561346e5761346e6159bc565b1461348e576001816002811115613487576134876159bc565b1491505090565b60fb60009054906101000a90046001600160a01b03166001600160a01b031663116dbc936040518163ffffffff1660e01b8152600401602060405180830381865afa1580156134e1573d6000803e3d6000fd5b505050506040513d601f19601f8201168201806040525081019061110f91906158b5565b60ff54600090600160a01b900463ffffffff1615158061352b57506135298261479c565b155b1561353857506000919050565b6001600160a01b038216600090815260336020526040902054610f87565b610103818154811061356757600080fd5b6000918252602090912001546001600160a01b0316905081565b6001600160a01b03918216600090815260346020908152604080832093909416825291909152205490565b60fb5460408051638da5cb5b60e01b8152905133926001600160a01b031691638da5cb5b9160048083019260209291908290030181865afa1580156135f5573d6000803e3d6000fd5b505050506040513d601f19601f820116820180604052508101906136199190615831565b6001600160a01b0316146136405760405163d61d1ac760e01b815260040160405180910390fd5b60ff54600160a01b900463ffffffff161561366e5760405163c50c0f9960e01b815260040160405180910390fd5b610103805460018101825560009182527f02c297ab74aad0aede3a1895c857b1f2c71e6a203feb727bec95ac752998cb780180546001600160a01b0319166001600160a01b03841690811790915560405190917fcd6999167b4b18e50d7046fa427cd31c7106b4e945bcaa6f9efb4ecd3b7d122a91a250565b6136ef613b67565b60ff54600160a01b900463ffffffff161561371d5760405163c50c0f9960e01b815260040160405180910390fd5b604080518082019091526101085461ffff8116825262010000900463ffffffff166020820181905260000361376557604051630dc8342d60e31b815260040160405180910390fd5b60fb60009054906101000a90046001600160a01b03166001600160a01b03166377c9cd8c6040518163ffffffff1660e01b8152600401602060405180830381865afa1580156137b8573d6000803e3d6000fd5b505050506040513d601f19601f820116820180604052508101906137dc9190615818565b60208201516137f19063ffffffff1642615c68565b101561381057604051632f99d23360e11b815260040160405180910390fd5b6101088054610105805461ffff191661ffff831690811790915565ffffffffffff199091169091556040518181527ff3d8fc64f1ce0c8c9c7d0514708b8596de220e81860a8ceaf7c10737dcc3135a9060200161194a565b613870613b67565b6001600160a01b0381166138d55760405162461bcd60e51b815260206004820152602660248201527f4f776e61626c653a206e6577206f776e657220697320746865207a65726f206160448201526564647265737360d01b6064820152608401611978565b6138de81613f83565b50565b60008060006138f1846000613985565b610106549091506139069082906127106146ed565b9150818103925050915091565b61010a5460009061ffff62010000909104811690811461393257919050565b60fb60009054906101000a90046001600160a01b03166001600160a01b031663120c1a7e6040518163ffffffff1660e01b8152600401602060405180830381865afa158015611bfb573d6000803e3d6000fd5b60008061399160355490565b905080156139b2576139ad6139a4610c9a565b85908386614933565b612176565b6065546040805163313ce56760e01b81529051612176926001600160a01b03169163313ce5679160048083019260209291908290030181865afa1580156139fd573d6000803e3d6000fd5b505050506040513d601f19601f82011682018060405250810190613a219190615c7b565b613a2c90600a615d82565b60125b613a3a90600a615d82565b86919086614933565b6001600160a01b038316613aa55760405162461bcd60e51b8152602060048201526024808201527f45524332303a20617070726f76652066726f6d20746865207a65726f206164646044820152637265737360e01b6064820152608401611978565b6001600160a01b038216613b065760405162461bcd60e51b815260206004820152602260248201527f45524332303a20617070726f766520746f20746865207a65726f206164647265604482015261737360f01b6064820152608401611978565b6001600160a01b0383811660008181526034602090815260408083209487168084529482529182902085905590518481527f8c5be1e5ebec7d5bd14f71427d1e84f3dd0314c0f7b2291e5b200ac8c7c3b925910160405180910390a3505050565b6097546001600160a01b03163314611d2e5760405162461bcd60e51b815260206004820181905260248201527f4f776e61626c653a2063616c6c6572206973206e6f7420746865206f776e65726044820152606401611978565b629e34008263ffffffff161115613beb576040516335e1b26b60e21b815260040160405180910390fd5b8063ffffffff16600003613c1257604051631f55114360e01b815260040160405180910390fd5b8063ffffffff168263ffffffff161015613c3f57604051635c15b0b960e01b815260040160405180910390fd5b610105805469ffffffffffffffff000019166201000063ffffffff85811691820269ffffffff000000000000191692909217600160301b928516928302179092556040805192835260208301919091527f509e2b99f648e75d75a54861aa7c1d4c011b4f62cb29c9f065712732e91f965c910161194a565b6000613cc38484613581565b90506000198114613d2b5781811015613d1e5760405162461bcd60e51b815260206004820152601d60248201527f45524332303a20696e73756666696369656e7420616c6c6f77616e63650000006044820152606401611978565b613d2b8484848403613a43565b50505050565b6001600160a01b038316613d955760405162461bcd60e51b815260206004820152602560248201527f45524332303a207472616e736665722066726f6d20746865207a65726f206164604482015264647265737360d81b6064820152608401611978565b6001600160a01b038216613df75760405162461bcd60e51b815260206004820152602360248201527f45524332303a207472616e7366657220746f20746865207a65726f206164647260448201526265737360e81b6064820152608401611978565b613e0283838361498e565b6001600160a01b03831660009081526033602052604090205481811015613e7a5760405162461bcd60e51b815260206004820152602660248201527f45524332303a207472616e7366657220616d6f756e7420657863656564732062604482015265616c616e636560d01b6064820152608401611978565b6001600160a01b03808516600090815260336020526040808220858503905591851681529081208054849290613eb19084906158d2565b92505081905550826001600160a01b0316846001600160a01b03167fddf252ad1be2c89b69c2b068fc378daa952ba7f163c4a11628f55a4df523b3ef84604051613efd91815260200190565b60405180910390a3613d2b848484614cd3565b6000613f1b82611a77565b831115613f6a5760405162461bcd60e51b815260206004820152601e60248201527f455243343632363a206465706f736974206d6f7265207468616e206d617800006044820152606401611978565b6000613f758461318f565b905061114e33848684614357565b609780546001600160a01b038381166001600160a01b0319831681179093556040519116919082907f8be0079c531659141344cd1fd0a4f28419497f9722a3daafe3b4186f6b6457e090600090a35050565b6103e8613fe8606083016040840161544e565b61ffff16111561400e5760405160016235400b60e01b0319815260040160405180910390fd5b612710614021606083016040840161544e565b614031604084016020850161544e565b61403e602085018561544e565b6140489190615d91565b6140529190615d91565b61ffff16146138de5760405163c7a89fed60e01b815260040160405180910390fd5b6140a66040518060a0016040528060008152602001600081526020016000815260200160008152602001600081525090565b60006140b0610c9a565b9050806000036140c0575061114e565b6101055461ffff168511156140e85760405163c83039db60e01b815260040160405180910390fd5b60006140f48683615dac565b9050600061410782876305f5e1006146ed565b9050600061411a83876305f5e1006146ed565b905061271061412982846158d2565b6141339190615dac565b61413d9084615c68565b60808601839052606086018290526101045490935060009061416990859061ffff166305f5e1006146ed565b6101045490915060009061418d90869062010000900461ffff166305f5e1006146ed565b905061271061419c82846158d2565b6141a69190615dac565b6141b09086615c68565b6020880183905281885294506141c861271086615dcb565b60408801525050505050509392505050565b6040516001600160a01b03831660248201526044810182905261423d90849063a9059cbb60e01b906064015b60408051601f198184030181529190526020810180516001600160e01b03166001600160e01b031990931692909217909152614d12565b505050565b8015806142bc5750604051636eb1769f60e11b81523060048201526001600160a01b03838116602483015284169063dd62ed3e90604401602060405180830381865afa158015614296573d6000803e3d6000fd5b505050506040513d601f19601f820116820180604052508101906142ba9190615818565b155b6143275760405162461bcd60e51b815260206004820152603660248201527f5361666545524332303a20617070726f76652066726f6d206e6f6e2d7a65726f60448201527520746f206e6f6e2d7a65726f20616c6c6f77616e636560501b6064820152608401611978565b6040516001600160a01b03831660248201526044810182905261423d90849063095ea7b360e01b90606401614206565b600260c954036143795760405162461bcd60e51b815260040161197890615985565b600260c95561010554600160f01b900460ff166143a9576040516364197ab960e11b815260040160405180910390fd5b836001600160a01b0316836001600160a01b03161480156143e257506001600160a01b0383166000908152610109602052604090205415155b15614402576001600160a01b038316600090815261010960205260408120555b61440e84848484614de4565b5050600160c9555050565b600260c9540361443b5760405162461bcd60e51b815260040161197890615985565b600260c955600083900361446257604051630fbf08cb60e21b815260040160405180910390fd5b836001600160a01b0316866001600160a01b03161461448657614486848784613cb7565b6144908483614e62565b60006144a46065546001600160a01b031690565b9050811561452c5760fb5460408051638da5cb5b60e01b8152905161452c926001600160a01b031691638da5cb5b9160048083019260209291908290030181865afa1580156144f7573d6000803e3d6000fd5b505050506040513d601f19601f8201168201806040525081019061451b9190615831565b6001600160a01b03831690846141da565b6145406001600160a01b03821687866141da565b846001600160a01b0316866001600160a01b0316886001600160a01b03167ffbde797d201c681b91056529119e0b02407c7bb96a4a2c75c01fc9667232c8db8787604051614598929190918252602082015260400190565b60405180910390a45050600160c9555050505050565b600054610100900460ff166145d55760405162461bcd60e51b815260040161197890615ddf565b61112b8282614fc3565b600054610100900460ff166146065760405162461bcd60e51b815260040161197890615ddf565b6138de81615003565b600054610100900460ff166146365760405162461bcd60e51b815260040161197890615ddf565b611d2e61504c565b60008061464a60355490565b9050831580614657575080155b614667576139ad81613a3a610c9a565b6121766146766012600a615d82565b606560009054906101000a90046001600160a01b03166001600160a01b031663313ce5676040518163ffffffff1660e01b8152600401602060405180830381865afa1580156146c9573d6000803e3d6000fd5b505050506040513d601f19601f82011682018060405250810190613a2f9190615c7b565b60008080600019858709858702925082811083820303915050806000036147275783828161471d5761471d6158e5565b049250505061114e565b80841161473357600080fd5b60008486880960026001871981018816978890046003810283188082028403028082028403028082028403028082028403028082028403029081029092039091026000889003889004909101858311909403939093029303949094049190911702949350505050565b60fb54604080516302ea7f2560e41b815290516000926001600160a01b03169183918391632ea7f2509160048083019260209291908290030181865afa1580156147ea573d6000803e3d6000fd5b505050506040513d601f19601f8201168201806040525081019061480e9190615818565b905080826001600160a01b031663eeb338876040518163ffffffff1660e01b8152600401602060405180830381865afa15801561484f573d6000803e3d6000fd5b505050506040513d601f19601f820116820180604052508101906148739190615818565b61487d90836158d2565b61488790426158fb565b10614896575060009392505050565b6001600160a01b038416600090815261010960205260409020544281118015906128745750826001600160a01b031663f4bde0976040518163ffffffff1660e01b8152600401602060405180830381865afa1580156148f9573d6000803e3d6000fd5b505050506040513d601f19601f8201168201806040525081019061491d9190615818565b61492790826158d2565b42111595945050505050565b6000806149418686866146ed565b90506001836002811115614957576149576159bc565b14801561497457506000848061496f5761496f6158e5565b868809115b15612874576149846001826158d2565b9695505050505050565b806000036149af5760405163d11b25af60e01b815260040160405180910390fd5b816001600160a01b0316836001600160a01b0316036149e157604051636d6c4ee560e11b815260040160405180910390fd5b6001600160a01b03821615614bcf5760fb5460408051630a43443160e21b815290516001600160a01b0390921691829163290d10c49160048083019260209291908290030181865afa158015614a3b573d6000803e3d6000fd5b505050506040513d601f19601f82011682018060405250810190614a5f91906158b5565b15614a7d57604051635ed0818960e01b815260040160405180910390fd5b6001600160a01b038316600090815261010960205260409020548015614b2857816001600160a01b031663f4bde0976040518163ffffffff1660e01b8152600401602060405180830381865afa158015614adb573d6000803e3d6000fd5b505050506040513d601f19601f82011682018060405250810190614aff9190615818565b614b0990826158d2565b4211614b285760405163144229c360e01b815260040160405180910390fd5b60005b61010354811015614bcb576101038181548110614b4a57614b4a61596f565b6000918252602090912001546040516344d18cd960e01b81526001600160a01b0387811660048301526024820187905260016044830152909116906344d18cd990606401600060405180830381600087803b158015614ba857600080fd5b505af1158015614bbc573d6000803e3d6000fd5b50505050806001019050614b2b565b5050505b6001600160a01b0383161561423d57614be783613505565b811115614c075760405163232b212d60e11b815260040160405180910390fd5b6001600160a01b0383166000908152610109602052604081205561010b54610100900460ff1661423d5760005b61010354811015613d2b576101038181548110614c5357614c5361596f565b60009182526020822001546040516344d18cd960e01b81526001600160a01b0387811660048301526024820186905260448201939093529116906344d18cd990606401600060405180830381600087803b158015614cb057600080fd5b505af1158015614cc4573d6000803e3d6000fd5b50505050806001019050614c34565b6000614cde60355490565b118015614cf457506103e8614cf260355490565b105b1561423d576040516302dab21760e21b815260040160405180910390fd5b6000614d67826040518060400160405280602081526020017f5361666545524332303a206c6f772d6c6576656c2063616c6c206661696c6564815250856001600160a01b031661507a9092919063ffffffff16565b80519091501561423d5780806020019051810190614d8591906158b5565b61423d5760405162461bcd60e51b815260206004820152602a60248201527f5361666545524332303a204552433230206f7065726174696f6e20646964206e6044820152691bdd081cdd58d8d9595960b21b6064820152608401611978565b606554614dfc906001600160a01b0316853085615089565b614e0683826150c1565b826001600160a01b0316846001600160a01b03167fdcbc1c05240f31ff3ad067ef1ee35ce4997762752e3a095284754544f4c709d78484604051614e54929190918252602082015260400190565b60405180910390a350505050565b6001600160a01b038216614ec25760405162461bcd60e51b815260206004820152602160248201527f45524332303a206275726e2066726f6d20746865207a65726f206164647265736044820152607360f81b6064820152608401611978565b614ece8260008361498e565b6001600160a01b03821660009081526033602052604090205481811015614f425760405162461bcd60e51b815260206004820152602260248201527f45524332303a206275726e20616d6f756e7420657863656564732062616c616e604482015261636560f01b6064820152608401611978565b6001600160a01b0383166000908152603360205260408120838303905560358054849290614f71908490615c68565b90915550506040518281526000906001600160a01b038516907fddf252ad1be2c89b69c2b068fc378daa952ba7f163c4a11628f55a4df523b3ef9060200160405180910390a361423d83600084614cd3565b600054610100900460ff16614fea5760405162461bcd60e51b815260040161197890615ddf565b6036614ff68382615e8e565b50603761423d8282615e8e565b600054610100900460ff1661502a5760405162461bcd60e51b815260040161197890615ddf565b606580546001600160a01b0319166001600160a01b0392909216919091179055565b600054610100900460ff166150735760405162461bcd60e51b815260040161197890615ddf565b600160c955565b606061217684846000856151b4565b6040516001600160a01b0380851660248301528316604482015260648101829052613d2b9085906323b872dd60e01b90608401614206565b6001600160a01b0382166151175760405162461bcd60e51b815260206004820152601f60248201527f45524332303a206d696e7420746f20746865207a65726f2061646472657373006044820152606401611978565b6151236000838361498e565b806035600082825461513591906158d2565b90915550506001600160a01b038216600090815260336020526040812080548392906151629084906158d2565b90915550506040518181526001600160a01b038316906000907fddf252ad1be2c89b69c2b068fc378daa952ba7f163c4a11628f55a4df523b3ef9060200160405180910390a361112b60008383614cd3565b6060824710156152155760405162461bcd60e51b815260206004820152602660248201527f416464726573733a20696e73756666696369656e742062616c616e636520666f6044820152651c8818d85b1b60d21b6064820152608401611978565b6001600160a01b0385163b61526c5760405162461bcd60e51b815260206004820152601d60248201527f416464726573733a2063616c6c20746f206e6f6e2d636f6e74726163740000006044820152606401611978565b600080866001600160a01b031685876040516152889190615f4e565b60006040518083038185875af1925050503d80600081146152c5576040519150601f19603f3d011682016040523d82523d6000602084013e6152ca565b606091505b50915091506152da8282866152e5565b979650505050505050565b606083156152f457508161114e565b8251156153045782518084602001fd5b8160405162461bcd60e51b815260040161197891906153ca565b828054828255906000526020600020908101928215615371579160200282015b828111156153715781546001600160a01b0319166001600160a01b0384351617825560209092019160019091019061533e565b506111159291505b808211156111155760008155600101615379565b60006020828403121561539f57600080fd5b5035919050565b60005b838110156153c15781810151838201526020016153a9565b50506000910152565b60208152600082518060208401526153e98160408501602087016153a6565b601f01601f19169190910160400192915050565b6001600160a01b03811681146138de57600080fd5b6000806040838503121561542557600080fd5b8235615430816153fd565b946020939093013593505050565b61ffff811681146138de57600080fd5b60006020828403121561546057600080fd5b813561114e8161543e565b63ffffffff811681146138de57600080fd5b6000806040838503121561549057600080fd5b823561549b8161546b565b915060208301356154ab8161546b565b809150509250929050565b6000806000606084860312156154cb57600080fd5b83356154d6816153fd565b925060208401356154e6816153fd565b929592945050506040919091013590565b60006020828403121561550957600080fd5b813561114e8161546b565b60008083601f84011261552657600080fd5b50813567ffffffffffffffff81111561553e57600080fd5b60208301915083602082850101111561555657600080fd5b9250929050565b6000806000806060858703121561557357600080fd5b843561557e816153fd565b9350602085013561558e8161543e565b9250604085013567ffffffffffffffff8111156155aa57600080fd5b6155b687828801615514565b95989497509550505050565b600080600080608085870312156155d857600080fd5b8435935060208501356155ea816153fd565b925060408501356155fa816153fd565b9396929550929360600135925050565b6000806040838503121561561d57600080fd5b82356156288161543e565b915060208301356154ab8161543e565b60006020828403121561564a57600080fd5b813561114e816153fd565b60006020828403121561566757600080fd5b81356003811061114e57600080fd5b6000806040838503121561568957600080fd5b8235915060208301356154ab816153fd565b6000806000606084860312156156b057600080fd5b8335925060208401356156c2816153fd565b915060408401356156d2816153fd565b809150509250925092565b6000606082840312156156ef57600080fd5b50919050565b60008060006060848603121561570a57600080fd5b8335925060208401356154e6816153fd565b80151581146138de57600080fd5b60006020828403121561573c57600080fd5b813561114e8161571c565b6000806040838503121561575a57600080fd5b8235915060208301356154ab8161543e565b6000806020838503121561577f57600080fd5b823567ffffffffffffffff81111561579657600080fd5b6157a285828601615514565b90969095509350505050565b6000602082840312156157c057600080fd5b813567ffffffffffffffff8111156157d757600080fd5b82016101c0818503121561114e57600080fd5b600080604083850312156157fd57600080fd5b8235615808816153fd565b915060208301356154ab816153fd565b60006020828403121561582a57600080fd5b5051919050565b60006020828403121561584357600080fd5b815161114e816153fd565b634e487b7160e01b600052601160045260246000fd5b63ffffffff818116838216019080821115610fb057610fb061584e565b600181811c9082168061589557607f821691505b6020821081036156ef57634e487b7160e01b600052602260045260246000fd5b6000602082840312156158c757600080fd5b815161114e8161571c565b80820180821115610f8757610f8761584e565b634e487b7160e01b600052601260045260246000fd5b60008261590a5761590a6158e5565b500690565b6000600182016159215761592161584e565b5060010190565b81835281816020850137506000828201602090810191909152601f909101601f19169091010190565b61ffff84168152604060208201526000612874604083018486615928565b634e487b7160e01b600052603260045260246000fd5b6020808252601f908201527f5265656e7472616e637947756172643a207265656e7472616e742063616c6c00604082015260600190565b634e487b7160e01b600052602160045260246000fd5b600381106138de57634e487b7160e01b600052602160045260246000fd5b602081016159fd836159d2565b91905290565b600060208284031215615a1557600080fd5b815161114e8161543e565b600060208284031215615a3257600080fd5b815161114e8161546b565b8135615a488161543e565b61ffff8116905081548161ffff1982161783556020840135615a698161543e565b63ffff00008160101b169050808363ffffffff198416171784556040850135615a918161543e565b65ffff000000008160201b168465ffffffffffff198516178317178555505050505050565b606081018235615ac58161543e565b61ffff9081168352602084013590615adc8261543e565b9081166020840152604084013590615af38261543e565b8082166040850152505092915050565b6001600160a01b038c811682528b811660208301528a166040820152606081018990526080810188905260a0810187905263ffffffff861660c082015260e0810185905261010081018490526101608101615b5d846159d2565b836101208301528215156101408301529c9b505050505050505050505050565b602081526000612176602083018486615928565b6000808335601e19843603018112615ba857600080fd5b83018035915067ffffffffffffffff821115615bc357600080fd5b60200191503681900382131561555657600080fd5b6a02430ba39902b30bab63a160ad1b81528183600b83013760009101600b01908152919050565b6212105560ea1b81528183600383013760009101600301908152919050565b6000808335601e19843603018112615c3557600080fd5b83018035915067ffffffffffffffff821115615c5057600080fd5b6020019150600581901b360382131561555657600080fd5b81810381811115610f8757610f8761584e565b600060208284031215615c8d57600080fd5b815160ff8116811461114e57600080fd5b600181815b80851115615cd9578160001904821115615cbf57615cbf61584e565b80851615615ccc57918102915b93841c9390800290615ca3565b509250929050565b600082615cf057506001610f87565b81615cfd57506000610f87565b8160018114615d135760028114615d1d57615d39565b6001915050610f87565b60ff841115615d2e57615d2e61584e565b50506001821b610f87565b5060208310610133831016604e8410600b8410161715615d5c575081810a610f87565b615d668383615c9e565b8060001904821115615d7a57615d7a61584e565b029392505050565b600061114e60ff841683615ce1565b61ffff818116838216019080821115610fb057610fb061584e565b6000816000190483118215151615615dc657615dc661584e565b500290565b600082615dda57615dda6158e5565b500490565b6020808252602b908201527f496e697469616c697a61626c653a20636f6e7472616374206973206e6f74206960408201526a6e697469616c697a696e6760a81b606082015260800190565b634e487b7160e01b600052604160045260246000fd5b601f82111561423d57600081815260208120601f850160051c81016020861015615e675750805b601f850160051c820191505b81811015615e8657828155600101615e73565b505050505050565b815167ffffffffffffffff811115615ea857615ea8615e2a565b615ebc81615eb68454615881565b84615e40565b602080601f831160018114615ef15760008415615ed95750858301515b600019600386901b1c1916600185901b178555615e86565b600085815260208120601f198616915b82811015615f2057888601518255948401946001909101908401615f01565b5085821015615f3e5787850151600019600388901b60f8161c191681555b5050505050600190811b01905550565b60008251615f608184602087016153a6565b919091019291505056fea2646970667358221220614b551878ccc2c3dea072edd19234f0f55a593e7d616c9b542eae210e1c0ddd64736f6c63430008100033",
  "devdoc": {
    "author": "Hats.finance",
    "kind": "dev",
    "methods": {
      "allowance(address,address)": {
        "details": "See {IERC20-allowance}."
      },
      "approve(address,uint256)": {
        "details": "See {IERC20-approve}. NOTE: If `amount` is the maximum `uint256`, the allowance is not updated on `transferFrom`. This is semantically equivalent to an infinite approval. Requirements: - `spender` cannot be the zero address."
      },
      "asset()": {
        "details": "See {IERC4262-asset}. "
      },
      "balanceOf(address)": {
        "details": "See {IERC20-balanceOf}."
      },
      "challengeClaim(bytes32)": {
        "params": {
          "_claimId": "The claim ID"
        }
      },
      "convertToAssets(uint256)": {
        "details": "See {IERC4262-convertToAssets}. "
      },
      "convertToShares(uint256)": {
        "details": "See {IERC4262-convertToShares}. "
      },
      "decimals()": {
        "details": "Returns the number of decimals used to get its user representation. For example, if `decimals` equals `2`, a balance of `505` tokens should be displayed to a user as `5.05` (`505 / 10 ** 2`). Tokens usually opt for a value of 18, imitating the relationship between Ether and Wei. This is the value {ERC20} uses, unless this function is overridden; NOTE: This information is only used for _display_ purposes: it in no way affects any of the arithmetic of the contract, including {IERC20-balanceOf} and {IERC20-transfer}."
      },
      "decreaseAllowance(address,uint256)": {
        "details": "Atomically decreases the allowance granted to `spender` by the caller. This is an alternative to {approve} that can be used as a mitigation for problems described in {IERC20-approve}. Emits an {Approval} event indicating the updated allowance. Requirements: - `spender` cannot be the zero address. - `spender` must have allowance for the caller of at least `subtractedValue`."
      },
      "increaseAllowance(address,uint256)": {
        "details": "Atomically increases the allowance granted to `spender` by the caller. This is an alternative to {approve} that can be used as a mitigation for problems described in {IERC20-approve}. Emits an {Approval} event indicating the updated allowance. Requirements: - `spender` cannot be the zero address."
      },
      "mint(uint256,address)": {
        "details": "See {IERC4262-mint}. "
      },
      "name()": {
        "details": "Returns the name of the token."
      },
      "owner()": {
        "details": "Returns the address of the current owner."
      },
      "previewDeposit(uint256)": {
        "details": "See {IERC4262-previewDeposit}. "
      },
      "previewMint(uint256)": {
        "details": "See {IERC4262-previewMint}. "
      },
      "renounceOwnership()": {
        "details": "Leaves the contract without owner. It will not be possible to call `onlyOwner` functions anymore. Can only be called by the current owner. NOTE: Renouncing ownership will leave the contract without an owner, thereby removing any functionality that is only available to the owner."
      },
      "symbol()": {
        "details": "Returns the symbol of the token, usually a shorter version of the name."
      },
      "totalAssets()": {
        "details": "See {IERC4262-totalAssets}. "
      },
      "totalSupply()": {
        "details": "See {IERC20-totalSupply}."
      },
      "transfer(address,uint256)": {
        "details": "See {IERC20-transfer}. Requirements: - `to` cannot be the zero address. - the caller must have a balance of at least `amount`."
      },
      "transferFrom(address,address,uint256)": {
        "details": "See {IERC20-transferFrom}. Emits an {Approval} event indicating the updated allowance. This is not required by the EIP. See the note at the beginning of {ERC20}. NOTE: Does not update the allowance if the current allowance is the maximum `uint256`. Requirements: - `from` and `to` cannot be the zero address. - `from` must have a balance of at least `amount`. - the caller must have allowance for ``from``'s tokens of at least `amount`."
      },
      "transferOwnership(address)": {
        "details": "Transfers ownership of the contract to a new account (`newOwner`). Can only be called by the current owner."
      }
    },
    "title": "A Hats.finance vault which holds the funds for a specific project's bug bounties",
    "version": 1
  },
  "userdoc": {
    "kind": "user",
    "methods": {
      "addRewardController(address)": {
        "notice": "See {IHATVault-addRewardController}. "
      },
      "approveClaim(bytes32,uint16)": {
        "notice": "See {IHATVault-approveClaim}. "
      },
      "challengeClaim(bytes32)": {
        "notice": "Called by the arbitrator or governance to challenge a claim for a bounty payout that had been previously submitted by the committee. Can only be called during the challenge period after submission of the claim."
      },
      "committeeCheckIn()": {
        "notice": "See {IHATVault-committeeCheckIn}. "
      },
      "deposit(uint256,address)": {
        "notice": "See {IHATVault-deposit}. "
      },
      "deposit(uint256,address,uint256)": {
        "notice": "See {IHATVault-deposit}. "
      },
      "dismissClaim(bytes32)": {
        "notice": "See {IHATVault-dismissClaim}. "
      },
      "emergencyWithdraw(address)": {
        "notice": "See {IHATVault-emergencyWithdraw}. "
      },
      "getArbitrator()": {
        "notice": "See {IHATVault-getArbitrator}. "
      },
      "getArbitratorCanChangeBounty()": {
        "notice": "See {IHATVault-getArbitratorCanChangeBounty}. "
      },
      "getBountyGovernanceHAT()": {
        "notice": "See {IHATVault-getBountyGovernanceHAT}. "
      },
      "getBountyHackerHATVested()": {
        "notice": "See {IHATVault-getBountyHackerHATVested}. "
      },
      "getChallengePeriod()": {
        "notice": "See {IHATVault-getChallengePeriod}. "
      },
      "getChallengeTimeOutPeriod()": {
        "notice": "See {IHATVault-getChallengeTimeOutPeriod}. "
      },
      "initialize((string,string,address[],uint32,uint32,uint16,(uint16,uint16,uint16),address,address,address,bool,string))": {
        "notice": "See {IHATVault-initialize}. "
      },
      "maxDeposit(address)": {
        "notice": "See {IERC4626Upgradeable-maxDeposit}. "
      },
      "maxMint(address)": {
        "notice": "See {IERC4626Upgradeable-maxMint}. "
      },
      "maxRedeem(address)": {
        "notice": "See {IERC4626Upgradeable-maxRedeem}. "
      },
      "maxWithdraw(address)": {
        "notice": "See {IERC4626Upgradeable-maxWithdraw}. "
      },
      "mint(uint256,address,uint256)": {
        "notice": "See {IHATVault-mint}. "
      },
      "previewRedeem(uint256)": {
        "notice": "See {IERC4626Upgradeable-previewRedeem}. "
      },
      "previewRedeemAndFee(uint256)": {
        "notice": "See {IHATVault-previewRedeemAndFee}. "
      },
      "previewWithdraw(uint256)": {
        "notice": "See {IERC4626Upgradeable-previewWithdraw}. "
      },
      "previewWithdrawAndFee(uint256)": {
        "notice": "See {IHATVault-previewWithdrawAndFee}. "
      },
      "redeem(uint256,address,address)": {
        "notice": "See {IHATVault-redeem}. "
      },
      "redeem(uint256,address,address,uint256)": {
        "notice": "See {IHATVault-redeem}. "
      },
      "redeemAndClaim(uint256,address,address)": {
        "notice": "See {IHATVault-redeemAndClaim}. "
      },
      "redeemAndClaim(uint256,address,address,uint256)": {
        "notice": "See {IHATVault-redeemAndClaim}. "
      },
      "setArbitrator(address)": {
        "notice": "See {IHATVault-setArbitrator}. "
      },
      "setArbitratorCanChangeBounty(uint8)": {
        "notice": "See {IHATVault-setArbitratorCanChangeBounty}. "
      },
      "setBountySplit((uint16,uint16,uint16))": {
        "notice": "See {IHATVault-setBountySplit}. "
      },
      "setChallengePeriod(uint32)": {
        "notice": "See {IHATVault-setChallengePeriod}. "
      },
      "setChallengeTimeOutPeriod(uint32)": {
        "notice": "See {IHATVault-setChallengeTimeOutPeriod}. "
      },
      "setCommittee(address)": {
        "notice": "See {IHATVault-setCommittee}. "
      },
      "setDepositPause(bool)": {
        "notice": "See {IHATVault-setDepositPause}. "
      },
      "setHATBountySplit(uint16,uint16)": {
        "notice": "See {IHATVault-setHATBountySplit}. "
      },
      "setMaxBounty()": {
        "notice": "See {IHATVault-setMaxBounty}. "
      },
      "setPendingMaxBounty(uint16)": {
        "notice": "See {IHATVault-setPendingMaxBounty}. "
      },
      "setVaultDescription(string)": {
        "notice": "See {IHATVault-setVaultDescription}. "
      },
      "setVestingParams(uint32,uint32)": {
        "notice": "See {IHATVault-setVestingParams}. "
      },
      "setWithdrawalFee(uint256)": {
        "notice": "See {IHATVault-setWithdrawalFee}. "
      },
      "submitClaim(address,uint16,string)": {
        "notice": "See {IHATVault-submitClaim}. "
      },
      "withdraw(uint256,address,address)": {
        "notice": "See {IHATVault-withdraw}. "
      },
      "withdraw(uint256,address,address,uint256)": {
        "notice": "See {IHATVault-withdraw}. "
      },
      "withdrawAndClaim(uint256,address,address)": {
        "notice": "See {IHATVault-withdrawAndClaim}. "
      },
      "withdrawAndClaim(uint256,address,address,uint256)": {
        "notice": "See {IHATVault-withdrawAndClaim}. "
      },
      "withdrawRequest()": {
        "notice": "See {IHATVault-withdrawRequest}. "
      }
    },
    "notice": "The HATVault can be deposited into in a permissionless manner using the vaults native token. When a bug is submitted and approved, the bounty  is paid out using the funds in the vault. Bounties are paid out as a percentage of the vault. The percentage is set according to the severity of the bug. Vaults have regular safety periods (typically for an hour twice a day) which are time for the committee to make decisions. In addition to the roles defined in the HATVaultsRegistry, every HATVault  has the roles: Committee - The only address which can submit a claim for a bounty payout and set the maximum bounty. User - Anyone can deposit the vault's native token into the vault and  recieve shares for it. Shares represent the user's relative part in the vault, and when a bounty is paid out, users lose part of their deposits (based on percentage paid), but keep their share of the vault. Users also receive rewards for their deposits, which can be claimed at any time. To withdraw previously deposited tokens, a user must first send a withdraw request, and the withdrawal will be made available after a pending period. Withdrawals are not permitted during safety periods or while there is an  active claim for a bounty payout. Bounties are payed out distributed between a few channels, and that  distribution is set upon creation (the hacker gets part in direct transfer, part in vested reward and part in vested HAT token, part gets rewarded to the committee, part gets swapped to HAT token and burned and/or sent to Hats governance). This project is open-source and can be found at: https://github.com/hats-finance/hats-contracts",
    "version": 1
  },
  "storageLayout": {
    "storage": [
      {
        "astId": 306,
        "contract": "contracts/HATVault.sol:HATVault",
        "label": "_initialized",
        "offset": 0,
        "slot": "0",
        "type": "t_uint8"
      },
      {
        "astId": 309,
        "contract": "contracts/HATVault.sol:HATVault",
        "label": "_initializing",
        "offset": 1,
        "slot": "0",
        "type": "t_bool"
      },
      {
        "astId": 2421,
        "contract": "contracts/HATVault.sol:HATVault",
        "label": "__gap",
        "offset": 0,
        "slot": "1",
        "type": "t_array(t_uint256)50_storage"
      },
      {
        "astId": 528,
        "contract": "contracts/HATVault.sol:HATVault",
        "label": "_balances",
        "offset": 0,
        "slot": "51",
        "type": "t_mapping(t_address,t_uint256)"
      },
      {
        "astId": 534,
        "contract": "contracts/HATVault.sol:HATVault",
        "label": "_allowances",
        "offset": 0,
        "slot": "52",
        "type": "t_mapping(t_address,t_mapping(t_address,t_uint256))"
      },
      {
        "astId": 536,
        "contract": "contracts/HATVault.sol:HATVault",
        "label": "_totalSupply",
        "offset": 0,
        "slot": "53",
        "type": "t_uint256"
      },
      {
        "astId": 538,
        "contract": "contracts/HATVault.sol:HATVault",
        "label": "_name",
        "offset": 0,
        "slot": "54",
        "type": "t_string_storage"
      },
      {
        "astId": 540,
        "contract": "contracts/HATVault.sol:HATVault",
        "label": "_symbol",
        "offset": 0,
        "slot": "55",
        "type": "t_string_storage"
      },
      {
        "astId": 1119,
        "contract": "contracts/HATVault.sol:HATVault",
        "label": "__gap",
        "offset": 0,
        "slot": "56",
        "type": "t_array(t_uint256)45_storage"
      },
      {
        "astId": 1218,
        "contract": "contracts/HATVault.sol:HATVault",
        "label": "_asset",
        "offset": 0,
        "slot": "101",
        "type": "t_contract(IERC20MetadataUpgradeable)1820"
      },
      {
        "astId": 1794,
        "contract": "contracts/HATVault.sol:HATVault",
        "label": "__gap",
        "offset": 0,
        "slot": "102",
        "type": "t_array(t_uint256)49_storage"
      },
      {
        "astId": 10,
        "contract": "contracts/HATVault.sol:HATVault",
        "label": "_owner",
        "offset": 0,
        "slot": "151",
        "type": "t_address"
      },
      {
        "astId": 130,
        "contract": "contracts/HATVault.sol:HATVault",
        "label": "__gap",
        "offset": 0,
        "slot": "152",
        "type": "t_array(t_uint256)49_storage"
      },
      {
        "astId": 464,
        "contract": "contracts/HATVault.sol:HATVault",
        "label": "_status",
        "offset": 0,
        "slot": "201",
        "type": "t_uint256"
      },
      {
        "astId": 508,
        "contract": "contracts/HATVault.sol:HATVault",
        "label": "__gap",
        "offset": 0,
        "slot": "202",
        "type": "t_array(t_uint256)49_storage"
      },
      {
        "astId": 12429,
        "contract": "contracts/HATVault.sol:HATVault",
        "label": "registry",
        "offset": 0,
        "slot": "251",
        "type": "t_contract(HATVaultsRegistry)16163"
      },
      {
        "astId": 12432,
        "contract": "contracts/HATVault.sol:HATVault",
        "label": "tokenLockFactory",
        "offset": 0,
        "slot": "252",
        "type": "t_contract(ITokenLockFactory)20682"
      },
      {
        "astId": 12435,
        "contract": "contracts/HATVault.sol:HATVault",
        "label": "activeClaim",
        "offset": 0,
        "slot": "253",
        "type": "t_struct(Claim)12379_storage"
      },
      {
        "astId": 12439,
        "contract": "contracts/HATVault.sol:HATVault",
        "label": "rewardControllers",
        "offset": 0,
        "slot": "259",
        "type": "t_array(t_contract(IRewardController)18359)dyn_storage"
      },
      {
        "astId": 12442,
        "contract": "contracts/HATVault.sol:HATVault",
        "label": "bountySplit",
        "offset": 0,
        "slot": "260",
        "type": "t_struct(BountySplit)17170_storage"
      },
      {
        "astId": 12444,
        "contract": "contracts/HATVault.sol:HATVault",
        "label": "maxBounty",
        "offset": 0,
        "slot": "261",
        "type": "t_uint16"
      },
      {
        "astId": 12446,
        "contract": "contracts/HATVault.sol:HATVault",
        "label": "vestingDuration",
        "offset": 2,
        "slot": "261",
        "type": "t_uint32"
      },
      {
        "astId": 12448,
        "contract": "contracts/HATVault.sol:HATVault",
        "label": "vestingPeriods",
        "offset": 6,
        "slot": "261",
        "type": "t_uint32"
      },
      {
        "astId": 12450,
        "contract": "contracts/HATVault.sol:HATVault",
        "label": "committee",
        "offset": 10,
        "slot": "261",
        "type": "t_address"
      },
      {
        "astId": 12452,
        "contract": "contracts/HATVault.sol:HATVault",
        "label": "committeeCheckedIn",
        "offset": 30,
        "slot": "261",
        "type": "t_bool"
      },
      {
        "astId": 12454,
        "contract": "contracts/HATVault.sol:HATVault",
        "label": "depositPause",
        "offset": 31,
        "slot": "261",
        "type": "t_bool"
      },
      {
        "astId": 12456,
        "contract": "contracts/HATVault.sol:HATVault",
        "label": "withdrawalFee",
        "offset": 0,
        "slot": "262",
        "type": "t_uint256"
      },
      {
        "astId": 12458,
        "contract": "contracts/HATVault.sol:HATVault",
        "label": "nonce",
        "offset": 0,
        "slot": "263",
        "type": "t_uint256"
      },
      {
        "astId": 12461,
        "contract": "contracts/HATVault.sol:HATVault",
        "label": "pendingMaxBounty",
        "offset": 0,
        "slot": "264",
        "type": "t_struct(PendingMaxBounty)12384_storage"
      },
      {
        "astId": 12465,
        "contract": "contracts/HATVault.sol:HATVault",
        "label": "withdrawEnableStartTime",
        "offset": 0,
        "slot": "265",
        "type": "t_mapping(t_address,t_uint256)"
      },
      {
        "astId": 12467,
        "contract": "contracts/HATVault.sol:HATVault",
        "label": "bountyGovernanceHAT",
        "offset": 0,
        "slot": "266",
        "type": "t_uint16"
      },
      {
        "astId": 12469,
        "contract": "contracts/HATVault.sol:HATVault",
        "label": "bountyHackerHATVested",
        "offset": 2,
        "slot": "266",
        "type": "t_uint16"
      },
      {
        "astId": 12471,
        "contract": "contracts/HATVault.sol:HATVault",
        "label": "arbitrator",
        "offset": 4,
        "slot": "266",
        "type": "t_address"
      },
      {
        "astId": 12473,
        "contract": "contracts/HATVault.sol:HATVault",
        "label": "challengePeriod",
        "offset": 24,
        "slot": "266",
        "type": "t_uint32"
      },
      {
        "astId": 12475,
        "contract": "contracts/HATVault.sol:HATVault",
        "label": "challengeTimeOutPeriod",
        "offset": 28,
        "slot": "266",
        "type": "t_uint32"
      },
      {
        "astId": 12478,
        "contract": "contracts/HATVault.sol:HATVault",
        "label": "arbitratorCanChangeBounty",
        "offset": 0,
        "slot": "267",
        "type": "t_enum(ArbitratorCanChangeBounty)17163"
      },
      {
        "astId": 12480,
        "contract": "contracts/HATVault.sol:HATVault",
        "label": "_isEmergencyWithdraw",
        "offset": 1,
        "slot": "267",
        "type": "t_bool"
      }
    ],
    "types": {
      "t_address": {
        "encoding": "inplace",
        "label": "address",
        "numberOfBytes": "20"
      },
      "t_array(t_contract(IRewardController)18359)dyn_storage": {
        "base": "t_contract(IRewardController)18359",
        "encoding": "dynamic_array",
        "label": "contract IRewardController[]",
        "numberOfBytes": "32"
      },
      "t_array(t_uint256)45_storage": {
        "base": "t_uint256",
        "encoding": "inplace",
        "label": "uint256[45]",
        "numberOfBytes": "1440"
      },
      "t_array(t_uint256)49_storage": {
        "base": "t_uint256",
        "encoding": "inplace",
        "label": "uint256[49]",
        "numberOfBytes": "1568"
      },
      "t_array(t_uint256)50_storage": {
        "base": "t_uint256",
        "encoding": "inplace",
        "label": "uint256[50]",
        "numberOfBytes": "1600"
      },
      "t_bool": {
        "encoding": "inplace",
        "label": "bool",
        "numberOfBytes": "1"
      },
      "t_bytes32": {
        "encoding": "inplace",
        "label": "bytes32",
        "numberOfBytes": "32"
      },
      "t_contract(HATVaultsRegistry)16163": {
        "encoding": "inplace",
        "label": "contract HATVaultsRegistry",
        "numberOfBytes": "20"
      },
      "t_contract(IERC20MetadataUpgradeable)1820": {
        "encoding": "inplace",
        "label": "contract IERC20MetadataUpgradeable",
        "numberOfBytes": "20"
      },
      "t_contract(IRewardController)18359": {
        "encoding": "inplace",
        "label": "contract IRewardController",
        "numberOfBytes": "20"
      },
      "t_contract(ITokenLockFactory)20682": {
        "encoding": "inplace",
        "label": "contract ITokenLockFactory",
        "numberOfBytes": "20"
      },
      "t_enum(ArbitratorCanChangeBounty)17163": {
        "encoding": "inplace",
        "label": "enum IHATVault.ArbitratorCanChangeBounty",
        "numberOfBytes": "1"
      },
      "t_mapping(t_address,t_mapping(t_address,t_uint256))": {
        "encoding": "mapping",
        "key": "t_address",
        "label": "mapping(address => mapping(address => uint256))",
        "numberOfBytes": "32",
        "value": "t_mapping(t_address,t_uint256)"
      },
      "t_mapping(t_address,t_uint256)": {
        "encoding": "mapping",
        "key": "t_address",
        "label": "mapping(address => uint256)",
        "numberOfBytes": "32",
        "value": "t_uint256"
      },
      "t_string_storage": {
        "encoding": "bytes",
        "label": "string",
        "numberOfBytes": "32"
      },
      "t_struct(BountySplit)17170_storage": {
        "encoding": "inplace",
        "label": "struct IHATVault.BountySplit",
        "members": [
          {
            "astId": 17165,
            "contract": "contracts/HATVault.sol:HATVault",
            "label": "hackerVested",
            "offset": 0,
            "slot": "0",
            "type": "t_uint16"
          },
          {
            "astId": 17167,
            "contract": "contracts/HATVault.sol:HATVault",
            "label": "hacker",
            "offset": 2,
            "slot": "0",
            "type": "t_uint16"
          },
          {
            "astId": 17169,
            "contract": "contracts/HATVault.sol:HATVault",
            "label": "committee",
            "offset": 4,
            "slot": "0",
            "type": "t_uint16"
          }
        ],
        "numberOfBytes": "32"
      },
      "t_struct(Claim)12379_storage": {
        "encoding": "inplace",
        "label": "struct HATVault.Claim",
        "members": [
          {
            "astId": 12356,
            "contract": "contracts/HATVault.sol:HATVault",
            "label": "claimId",
            "offset": 0,
            "slot": "0",
            "type": "t_bytes32"
          },
          {
            "astId": 12358,
            "contract": "contracts/HATVault.sol:HATVault",
            "label": "beneficiary",
            "offset": 0,
            "slot": "1",
            "type": "t_address"
          },
          {
            "astId": 12360,
            "contract": "contracts/HATVault.sol:HATVault",
            "label": "bountyPercentage",
            "offset": 20,
            "slot": "1",
            "type": "t_uint16"
          },
          {
            "astId": 12362,
            "contract": "contracts/HATVault.sol:HATVault",
            "label": "committee",
            "offset": 0,
            "slot": "2",
            "type": "t_address"
          },
          {
            "astId": 12364,
            "contract": "contracts/HATVault.sol:HATVault",
            "label": "createdAt",
            "offset": 20,
            "slot": "2",
            "type": "t_uint32"
          },
          {
            "astId": 12366,
            "contract": "contracts/HATVault.sol:HATVault",
            "label": "challengedAt",
            "offset": 24,
            "slot": "2",
            "type": "t_uint32"
          },
          {
            "astId": 12368,
            "contract": "contracts/HATVault.sol:HATVault",
            "label": "bountyGovernanceHAT",
            "offset": 0,
            "slot": "3",
            "type": "t_uint256"
          },
          {
            "astId": 12370,
            "contract": "contracts/HATVault.sol:HATVault",
            "label": "bountyHackerHATVested",
            "offset": 0,
            "slot": "4",
            "type": "t_uint256"
          },
          {
            "astId": 12372,
            "contract": "contracts/HATVault.sol:HATVault",
            "label": "arbitrator",
            "offset": 0,
            "slot": "5",
            "type": "t_address"
          },
          {
            "astId": 12374,
            "contract": "contracts/HATVault.sol:HATVault",
            "label": "challengePeriod",
            "offset": 20,
            "slot": "5",
            "type": "t_uint32"
          },
          {
            "astId": 12376,
            "contract": "contracts/HATVault.sol:HATVault",
            "label": "challengeTimeOutPeriod",
            "offset": 24,
            "slot": "5",
            "type": "t_uint32"
          },
          {
            "astId": 12378,
            "contract": "contracts/HATVault.sol:HATVault",
            "label": "arbitratorCanChangeBounty",
            "offset": 28,
            "slot": "5",
            "type": "t_bool"
          }
        ],
        "numberOfBytes": "192"
      },
      "t_struct(PendingMaxBounty)12384_storage": {
        "encoding": "inplace",
        "label": "struct HATVault.PendingMaxBounty",
        "members": [
          {
            "astId": 12381,
            "contract": "contracts/HATVault.sol:HATVault",
            "label": "maxBounty",
            "offset": 0,
            "slot": "0",
            "type": "t_uint16"
          },
          {
            "astId": 12383,
            "contract": "contracts/HATVault.sol:HATVault",
            "label": "timestamp",
            "offset": 2,
            "slot": "0",
            "type": "t_uint32"
          }
        ],
        "numberOfBytes": "32"
      },
      "t_uint16": {
        "encoding": "inplace",
        "label": "uint16",
        "numberOfBytes": "2"
      },
      "t_uint256": {
        "encoding": "inplace",
        "label": "uint256",
        "numberOfBytes": "32"
      },
      "t_uint32": {
        "encoding": "inplace",
        "label": "uint32",
        "numberOfBytes": "4"
      },
      "t_uint8": {
        "encoding": "inplace",
        "label": "uint8",
        "numberOfBytes": "1"
      }
    }
  }
}