{
  "address": "0xA1FcE933533Dc6d277bC8aba7d734BB4232FA44f",
  "abi": [
    {
      "inputs": [],
      "name": "EpochLengthZero",
      "type": "error"
    },
    {
      "inputs": [],
      "name": "NotEnoughRewardsToTransferToUser",
      "type": "error"
    },
    {
      "anonymous": false,
      "inputs": [
        {
          "indexed": true,
          "internalType": "address",
          "name": "_vault",
          "type": "address"
        },
        {
          "indexed": true,
          "internalType": "address",
          "name": "_user",
          "type": "address"
        },
        {
          "indexed": false,
          "internalType": "uint256",
          "name": "_amount",
          "type": "uint256"
        }
      ],
      "name": "ClaimReward",
      "type": "event"
    },
    {
      "anonymous": false,
      "inputs": [
        {
          "indexed": false,
          "internalType": "uint8",
          "name": "version",
          "type": "uint8"
        }
      ],
      "name": "Initialized",
      "type": "event"
    },
    {
      "anonymous": false,
      "inputs": [
        {
          "indexed": true,
          "internalType": "address",
          "name": "previousOwner",
          "type": "address"
        },
        {
          "indexed": true,
          "internalType": "address",
          "name": "newOwner",
          "type": "address"
        }
      ],
      "name": "OwnershipTransferred",
      "type": "event"
    },
    {
      "anonymous": false,
      "inputs": [
        {
          "indexed": false,
          "internalType": "address",
          "name": "_rewardToken",
          "type": "address"
        },
        {
          "indexed": false,
          "internalType": "address",
          "name": "_governance",
          "type": "address"
        },
        {
          "indexed": false,
          "internalType": "uint256",
          "name": "_startBlock",
          "type": "uint256"
        },
        {
          "indexed": false,
          "internalType": "uint256",
          "name": "_epochLength",
          "type": "uint256"
        },
        {
          "indexed": false,
          "internalType": "uint256[24]",
          "name": "_epochRewardPerBlock",
          "type": "uint256[24]"
        }
      ],
      "name": "RewardControllerCreated",
      "type": "event"
    },
    {
      "anonymous": false,
      "inputs": [
        {
          "indexed": true,
          "internalType": "address",
          "name": "_vault",
          "type": "address"
        },
        {
          "indexed": false,
          "internalType": "uint256",
          "name": "_prevAllocPoint",
          "type": "uint256"
        },
        {
          "indexed": false,
          "internalType": "uint256",
          "name": "_allocPoint",
          "type": "uint256"
        }
      ],
      "name": "SetAllocPoint",
      "type": "event"
    },
    {
      "anonymous": false,
      "inputs": [
        {
          "indexed": false,
          "internalType": "uint256[24]",
          "name": "_epochRewardPerBlock",
          "type": "uint256[24]"
        }
      ],
      "name": "SetEpochRewardPerBlock",
      "type": "event"
    },
    {
      "anonymous": false,
      "inputs": [
        {
          "indexed": true,
          "internalType": "address",
          "name": "_vault",
          "type": "address"
        },
        {
          "indexed": true,
          "internalType": "address",
          "name": "_user",
          "type": "address"
        },
        {
          "indexed": false,
          "internalType": "uint256",
          "name": "_unclaimedReward",
          "type": "uint256"
        },
        {
          "indexed": false,
          "internalType": "uint256",
          "name": "_rewardDebt",
          "type": "uint256"
        }
      ],
      "name": "UserBalanceCommitted",
      "type": "event"
    },
    {
      "anonymous": false,
      "inputs": [
        {
          "indexed": true,
          "internalType": "address",
          "name": "_vault",
          "type": "address"
        },
        {
          "indexed": false,
          "internalType": "uint256",
          "name": "_rewardPerShare",
          "type": "uint256"
        },
        {
          "indexed": false,
          "internalType": "uint256",
          "name": "_lastProcessedVaultUpdate",
          "type": "uint256"
        }
      ],
      "name": "VaultUpdated",
      "type": "event"
    },
    {
      "inputs": [],
      "name": "NUMBER_OF_EPOCHS",
      "outputs": [
        {
          "internalType": "uint256",
          "name": "",
          "type": "uint256"
        }
      ],
      "stateMutability": "view",
      "type": "function"
    },
    {
      "inputs": [],
      "name": "REWARD_PRECISION",
      "outputs": [
        {
          "internalType": "uint256",
          "name": "",
          "type": "uint256"
        }
      ],
      "stateMutability": "view",
      "type": "function"
    },
    {
      "inputs": [
        {
          "internalType": "address",
          "name": "_vault",
          "type": "address"
        },
        {
          "internalType": "address",
          "name": "_user",
          "type": "address"
        }
      ],
      "name": "claimReward",
      "outputs": [],
      "stateMutability": "nonpayable",
      "type": "function"
    },
    {
      "inputs": [
        {
          "internalType": "address",
          "name": "_user",
          "type": "address"
        },
        {
          "internalType": "uint256",
          "name": "_sharesChange",
          "type": "uint256"
        },
        {
          "internalType": "bool",
          "name": "_isDeposit",
          "type": "bool"
        }
      ],
      "name": "commitUserBalance",
      "outputs": [],
      "stateMutability": "nonpayable",
      "type": "function"
    },
    {
      "inputs": [],
      "name": "epochLength",
      "outputs": [
        {
          "internalType": "uint256",
          "name": "",
          "type": "uint256"
        }
      ],
      "stateMutability": "view",
      "type": "function"
    },
    {
      "inputs": [
        {
          "internalType": "uint256",
          "name": "",
          "type": "uint256"
        }
      ],
      "name": "epochRewardPerBlock",
      "outputs": [
        {
          "internalType": "uint256",
          "name": "",
          "type": "uint256"
        }
      ],
      "stateMutability": "view",
      "type": "function"
    },
    {
      "inputs": [],
      "name": "getGlobalVaultsUpdatesLength",
      "outputs": [
        {
          "internalType": "uint256",
          "name": "",
          "type": "uint256"
        }
      ],
      "stateMutability": "view",
      "type": "function"
    },
    {
      "inputs": [
        {
          "internalType": "address",
          "name": "_vault",
          "type": "address"
        },
        {
          "internalType": "address",
          "name": "_user",
          "type": "address"
        }
      ],
      "name": "getPendingReward",
      "outputs": [
        {
          "internalType": "uint256",
          "name": "",
          "type": "uint256"
        }
      ],
      "stateMutability": "view",
      "type": "function"
    },
    {
      "inputs": [
        {
          "internalType": "uint256",
          "name": "_fromBlock",
          "type": "uint256"
        },
        {
          "internalType": "uint256",
          "name": "_toBlock",
          "type": "uint256"
        },
        {
          "internalType": "uint256",
          "name": "_allocPoint",
          "type": "uint256"
        },
        {
          "internalType": "uint256",
          "name": "_totalAllocPoint",
          "type": "uint256"
        }
      ],
      "name": "getRewardForBlocksRange",
      "outputs": [
        {
          "internalType": "uint256",
          "name": "reward",
          "type": "uint256"
        }
      ],
      "stateMutability": "view",
      "type": "function"
    },
    {
      "inputs": [
        {
          "internalType": "address",
          "name": "_vault",
          "type": "address"
        },
        {
          "internalType": "uint256",
          "name": "_fromBlock",
          "type": "uint256"
        }
      ],
      "name": "getVaultReward",
      "outputs": [
        {
          "internalType": "uint256",
          "name": "reward",
          "type": "uint256"
        }
      ],
      "stateMutability": "view",
      "type": "function"
    },
    {
      "inputs": [
        {
          "internalType": "uint256",
          "name": "",
          "type": "uint256"
        }
      ],
      "name": "globalVaultsUpdates",
      "outputs": [
        {
          "internalType": "uint256",
          "name": "blockNumber",
          "type": "uint256"
        },
        {
          "internalType": "uint256",
          "name": "totalAllocPoint",
          "type": "uint256"
        }
      ],
      "stateMutability": "view",
      "type": "function"
    },
    {
      "inputs": [
        {
          "internalType": "address",
          "name": "_rewardToken",
          "type": "address"
        },
        {
          "internalType": "address",
          "name": "_governance",
          "type": "address"
        },
        {
          "internalType": "uint256",
          "name": "_startRewardingBlock",
          "type": "uint256"
        },
        {
          "internalType": "uint256",
          "name": "_epochLength",
          "type": "uint256"
        },
        {
          "internalType": "uint256[24]",
          "name": "_epochRewardPerBlock",
          "type": "uint256[24]"
        }
      ],
      "name": "initialize",
      "outputs": [],
      "stateMutability": "nonpayable",
      "type": "function"
    },
    {
      "inputs": [],
      "name": "owner",
      "outputs": [
        {
          "internalType": "address",
          "name": "",
          "type": "address"
        }
      ],
      "stateMutability": "view",
      "type": "function"
    },
    {
      "inputs": [],
      "name": "renounceOwnership",
      "outputs": [],
      "stateMutability": "nonpayable",
      "type": "function"
    },
    {
      "inputs": [
        {
          "internalType": "address",
          "name": "",
          "type": "address"
        },
        {
          "internalType": "address",
          "name": "",
          "type": "address"
        }
      ],
      "name": "rewardDebt",
      "outputs": [
        {
          "internalType": "uint256",
          "name": "",
          "type": "uint256"
        }
      ],
      "stateMutability": "view",
      "type": "function"
    },
    {
      "inputs": [],
      "name": "rewardToken",
      "outputs": [
        {
          "internalType": "contract IERC20Upgradeable",
          "name": "",
          "type": "address"
        }
      ],
      "stateMutability": "view",
      "type": "function"
    },
    {
      "inputs": [
        {
          "internalType": "address",
          "name": "_vault",
          "type": "address"
        },
        {
          "internalType": "uint256",
          "name": "_allocPoint",
          "type": "uint256"
        }
      ],
      "name": "setAllocPoint",
      "outputs": [],
      "stateMutability": "nonpayable",
      "type": "function"
    },
    {
      "inputs": [
        {
          "internalType": "uint256[24]",
          "name": "_epochRewardPerBlock",
          "type": "uint256[24]"
        }
      ],
      "name": "setEpochRewardPerBlock",
      "outputs": [],
      "stateMutability": "nonpayable",
      "type": "function"
    },
    {
      "inputs": [],
      "name": "startBlock",
      "outputs": [
        {
          "internalType": "uint256",
          "name": "",
          "type": "uint256"
        }
      ],
      "stateMutability": "view",
      "type": "function"
    },
    {
      "inputs": [
        {
          "internalType": "contract IERC20Upgradeable",
          "name": "_token",
          "type": "address"
        },
        {
          "internalType": "uint256",
          "name": "_amount",
          "type": "uint256"
        }
      ],
      "name": "sweepToken",
      "outputs": [],
      "stateMutability": "nonpayable",
      "type": "function"
    },
    {
      "inputs": [
        {
          "internalType": "address",
          "name": "newOwner",
          "type": "address"
        }
      ],
      "name": "transferOwnership",
      "outputs": [],
      "stateMutability": "nonpayable",
      "type": "function"
    },
    {
      "inputs": [
        {
          "internalType": "address",
          "name": "",
          "type": "address"
        },
        {
          "internalType": "address",
          "name": "",
          "type": "address"
        }
      ],
      "name": "unclaimedReward",
      "outputs": [
        {
          "internalType": "uint256",
          "name": "",
          "type": "uint256"
        }
      ],
      "stateMutability": "view",
      "type": "function"
    },
    {
      "inputs": [
        {
          "internalType": "address",
          "name": "_vault",
          "type": "address"
        }
      ],
      "name": "updateVault",
      "outputs": [],
      "stateMutability": "nonpayable",
      "type": "function"
    },
    {
      "inputs": [
        {
          "internalType": "address",
          "name": "",
          "type": "address"
        }
      ],
      "name": "vaultInfo",
      "outputs": [
        {
          "internalType": "uint256",
          "name": "rewardPerShare",
          "type": "uint256"
        },
        {
          "internalType": "uint256",
          "name": "lastProcessedVaultUpdate",
          "type": "uint256"
        },
        {
          "internalType": "uint256",
          "name": "lastRewardBlock",
          "type": "uint256"
        },
        {
          "internalType": "uint256",
          "name": "allocPoint",
          "type": "uint256"
        }
      ],
      "stateMutability": "view",
      "type": "function"
    }
  ],
  "transactionHash": "0xa3cfb17baa7f0f127ddae7bdcdab0aa7954b576ecb89a7900caf4b878bb64069",
  "args": [],
  "numDeployments": 1,
  "solcInputHash": "8186de70a6a6f54b1b5e651788d825b5",
  "bytecode": "0x608060405234801561001057600080fd5b50611928806100206000396000f3fe608060405234801561001057600080fd5b50600436106101585760003560e01c80637476db4f116100c3578063e7563f3f1161007c578063e7563f3f14610321578063e90a182f14610334578063eabcff2c14610347578063f2fde38b1461035a578063f7c618c11461036d578063fe0f3a131461038057600080fd5b80637476db4f146102365780637b4717a4146102495780638da5cb5b146102745780639164359a14610299578063acb3cd16146102ee578063ba8045b91461031957600080fd5b806344d18cd91161011557806344d18cd9146101e357806348cd4cb1146101f65780634953c782146101ff57806357d775f81461021257806360096ff91461021b578063715018a61461022e57600080fd5b806302b1720c1461015d57806324703c5a1461017257806329ebf59c146101855780632f6bd33b1461019c57806332e858ac146101c45780633d6aa5e1146101d7575b600080fd5b61017061016b366004611560565b610393565b005b61017061018036600461159e565b610538565b6080545b6040519081526020015b60405180910390f35b6101af6101aa3660046115bb565b61063f565b60408051928352602083019190915201610193565b6101896101d23660046115bb565b61066d565b61018964e8d4a5100081565b6101706101f13660046115e2565b610684565b61018960655481565b61017061020d366004611624565b610695565b61018960665481565b610189610229366004611560565b61074d565b61017061086b565b61017061024436600461165d565b61087f565b610189610257366004611624565b608260209081526000928352604080842090915290825290205481565b6033546001600160a01b03165b6040516001600160a01b039091168152602001610193565b6102ce6102a73660046116ba565b60816020526000908152604090208054600182015460028301546003909301549192909184565b604080519485526020850193909352918301526060820152608001610193565b6101896102fc366004611624565b608360209081526000928352604080842090915290825290205481565b610189601881565b61017061032f3660046116ba565b610a2e565b610170610342366004611560565b610b9f565b6101896103553660046116d7565b610bbb565b6101706103683660046116ba565b610ce1565b606754610281906001600160a01b031681565b61018961038e366004611624565b610d5a565b61039b610f27565b6103a482610a2e565b6080546000908181156104405760006001830390506000608082815481106103ce576103ce611709565b906000526020600020906002020190508560816000896001600160a01b03166001600160a01b031681526020019081526020016000206003015482600101546104179190611735565b6104219190611748565b94504381600001540361043957600180820186905592505b5050610444565b8392505b806104c05760408051808201909152438152602081018481526080805460018101825560009190915291517f59f3fb058c6bba7a4e76396639fc4dd21bd59163db798899cf56cef48b3c9ec9600290930292830155517f59f3fb058c6bba7a4e76396639fc4dd21bd59163db798899cf56cef48b3c9eca909101555b6001600160a01b0385166000818152608160209081526040918290206003015482519081529081018790527f676fc8e0b2147454e2b4a5c4c7c51f4a3c1d7cc2841c8c2d864e22044fb9b60c910160405180910390a25050506001600160a01b03909116600090815260816020526040902060030155565b610540610f27565b606554438111156105945761055860688360186114f8565b507f0670808d1e6714a56aec6624e8f94dc455ef9ad8ceba5a26c1002d13cf6c59fd82604051610588919061175b565b60405180910390a15050565b6066546000906105a48343611735565b6105ae9190611783565b6105b9906001611748565b90505b6018811015610601578281601881106105d7576105d7611709565b6020020135606882601881106105ef576105ef611709565b01556105fa816117a5565b90506105bc565b7f0670808d1e6714a56aec6624e8f94dc455ef9ad8ceba5a26c1002d13cf6c59fd606860405161063191906117be565b60405180910390a1505b5050565b6080818154811061064f57600080fd5b60009182526020909120600290910201805460019091015490915082565b6068816018811061067d57600080fd5b0154905081565b61069033848484610f81565b505050565b6106a3828260006001610f81565b6001600160a01b03808316600090815260836020908152604080832093851683529083905290205480156106fa576001600160a01b038084166000908152602084905260408120556067546106fa9116848361114d565b826001600160a01b0316846001600160a01b03167f7e77f685b38c861064cb08f2776eb5dfd3c82f652ed9f21221b8c53b75628e518360405161073f91815260200190565b60405180910390a350505050565b608054600090808203610764576000915050610865565b6001600160a01b038416600090815260816020908152604091829020825160808101845281548152600182015492810183905260028201549381019390935260030154606083018190529060001984015b8082101561083a57600060806107cc846001611748565b815481106107dc576107dc611709565b90600052602060002090600202016000015490506108208882866080878154811061080957610809611709565b906000526020600020906002020160010154610bbb565b61082a9088611748565b90975095506001909101906107b5565b6108538743856080868154811061080957610809611709565b61085d9087611748565b955050505050505b92915050565b610873610f27565b61087d600061119f565b565b600054610100900460ff161580801561089f5750600054600160ff909116105b806108b95750303b1580156108b9575060005460ff166001145b6109215760405162461bcd60e51b815260206004820152602e60248201527f496e697469616c697a61626c653a20636f6e747261637420697320616c72656160448201526d191e481a5b9a5d1a585b1a5e995960921b60648201526084015b60405180910390fd5b6000805460ff191660011790558015610944576000805461ff0019166101001790555b826000036109655760405163374563f360e11b815260040160405180910390fd5b606780546001600160a01b0319166001600160a01b0388161790556065849055606683905561099760688360186114f8565b506109a18561119f565b7f312ed02b80f3107f231f18b416daada6537a16237e381fb203b5f3c877e939fa86868686866040516109d89594939291906117f0565b60405180910390a18015610a26576000805461ff0019169055604051600181527f7f26b83ff96e1f2b6a682f133852f6798a09c465da95921460cefb38474024989060200160405180910390a15b505050505050565b6001600160a01b038116600090815260816020526040812060028101549091819003610a7457606554438110610a645780610a66565b435b836002018190555050505050565b804303610a8057505050565b4382600201819055506000836001600160a01b03166318160ddd6040518163ffffffff1660e01b8152600401602060405180830381865afa158015610ac9573d6000803e3d6000fd5b505050506040513d601f19601f82011682018060405250810190610aed919061182a565b90508015610b2d576000610b01858461074d565b9050610b138164e8d4a51000846111f1565b846000016000828254610b269190611748565b9091555050505b6080548015610b4757610b41600182611735565b60018501555b835460018501546040516001600160a01b038816927f78f5f4fe573a0f848b230b1151919d737f07fd52424347dbd007dd57fb906e0092610b9092918252602082015260400190565b60405180910390a25050505050565b610ba7610f27565b61063b6001600160a01b038316338361114d565b606554600090808610801590610bd15750858510155b8015610bdd5750600083115b15610cd85760665460009081808083610bf6878d611735565b610c009190611783565b610c0b906001611748565b90505b60188111610c7e5785610c218286611843565b610c2b9190611748565b9150818a1115610c7e5760686001820360188110610c4b57610c4b611709565b0154925082610c5a8c84611735565b610c649190611843565b610c6e9086611748565b9450819a50806001019050610c0e565b600060188211610ca55760686001830360188110610c9e57610c9e611709565b0154610ca8565b60005b9350508a8a03610cb88482611843565b610cc29087611748565b9550610ccf868b8b6111f1565b97505050505050505b50949350505050565b610ce9610f27565b6001600160a01b038116610d4e5760405162461bcd60e51b815260206004820152602660248201527f4f776e61626c653a206e6577206f776e657220697320746865207a65726f206160448201526564647265737360d01b6064820152608401610918565b610d578161119f565b50565b6001600160a01b03821660008181526083602090815260408083206081835281842082516080810184528154808252600183015482870152600283015482860152600390920154606082015283516318160ddd60e01b8152935195969295909491938793926318160ddd926004808401938290030181865afa158015610de4573d6000803e3d6000fd5b505050506040513d601f19601f82011682018060405250810190610e08919061182a565b9050600081118015610e1d5750604083015115155b8015610e2c5750826040015143115b15610e61576000610e4188856040015161074d565b9050610e538164e8d4a51000846111f1565b610e5d9084611748565b9250505b6001600160a01b038781166000818152608260209081526040808320948b168084529482528083205491899052918290205491516370a0823160e01b81526004810194909452929091610f0891869164e8d4a51000916370a0823190602401602060405180830381865afa158015610edd573d6000803e3d6000fd5b505050506040513d601f19601f82011682018060405250810190610f01919061182a565b91906111f1565b610f129190611748565b610f1c9190611735565b979650505050505050565b6033546001600160a01b0316331461087d5760405162461bcd60e51b815260206004820181905260248201527f4f776e61626c653a2063616c6c6572206973206e6f7420746865206f776e65726044820152606401610918565b610f8a84610a2e565b6040516370a0823160e01b81526001600160a01b038481166004830152600091908616906370a0823190602401602060405180830381865afa158015610fd4573d6000803e3d6000fd5b505050506040513d601f19601f82011682018060405250810190610ff8919061182a565b6001600160a01b0386166000908152608160209081526040808320546082909252909120919250908215611096576001600160a01b03861660009081526020829052604090205461104f848464e8d4a510006111f1565b6110599190611735565b6001600160a01b038089166000908152608360209081526040808320938b1683529290529081208054909190611090908490611748565b90915550505b84156110c05783156110b3576110ac8584611748565b92506110c0565b6110bd8584611735565b92505b60006110d2848464e8d4a510006111f1565b6001600160a01b03888116600081815260208681526040808320869055938d1680835260838252848320848452825291849020548451908152908101859052939450909290917fc3ecb7234183fd66951358174f6d19c08a152b7e2ea895855d55794952f81c06910160405180910390a35050505050505050565b604080516001600160a01b038416602482015260448082018490528251808303909101815260649091019091526020810180516001600160e01b031663a9059cbb60e01b1790526106909084906112a6565b603380546001600160a01b038381166001600160a01b0319831681179093556040519116919082907f8be0079c531659141344cd1fd0a4f28419497f9722a3daafe3b4186f6b6457e090600090a35050565b600080806000198587098587029250828110838203039150508060000361122b578382816112215761122161176d565b049250505061129f565b80841161123757600080fd5b600084868809851960019081018716968790049682860381900495909211909303600082900391909104909201919091029190911760038402600290811880860282030280860282030280860282030280860282030280860282030280860290910302029150505b9392505050565b60006112fb826040518060400160405280602081526020017f5361666545524332303a206c6f772d6c6576656c2063616c6c206661696c6564815250856001600160a01b03166113789092919063ffffffff16565b80519091501561069057808060200190518101906113199190611862565b6106905760405162461bcd60e51b815260206004820152602a60248201527f5361666545524332303a204552433230206f7065726174696f6e20646964206e6044820152691bdd081cdd58d8d9595960b21b6064820152608401610918565b6060611387848460008561138f565b949350505050565b6060824710156113f05760405162461bcd60e51b815260206004820152602660248201527f416464726573733a20696e73756666696369656e742062616c616e636520666f6044820152651c8818d85b1b60d21b6064820152608401610918565b600080866001600160a01b0316858760405161140c91906118a3565b60006040518083038185875af1925050503d8060008114611449576040519150601f19603f3d011682016040523d82523d6000602084013e61144e565b606091505b5091509150610f1c87838387606083156114c95782516000036114c2576001600160a01b0385163b6114c25760405162461bcd60e51b815260206004820152601d60248201527f416464726573733a2063616c6c20746f206e6f6e2d636f6e74726163740000006044820152606401610918565b5081611387565b61138783838151156114de5781518083602001fd5b8060405162461bcd60e51b815260040161091891906118bf565b8260188101928215611526579160200282015b8281111561152657823582559160200191906001019061150b565b50611532929150611536565b5090565b5b808211156115325760008155600101611537565b6001600160a01b0381168114610d5757600080fd5b6000806040838503121561157357600080fd5b823561157e8161154b565b946020939093013593505050565b80610300810183101561086557600080fd5b600061030082840312156115b157600080fd5b61129f838361158c565b6000602082840312156115cd57600080fd5b5035919050565b8015158114610d5757600080fd5b6000806000606084860312156115f757600080fd5b83356116028161154b565b9250602084013591506040840135611619816115d4565b809150509250925092565b6000806040838503121561163757600080fd5b82356116428161154b565b915060208301356116528161154b565b809150509250929050565b6000806000806000610380868803121561167657600080fd5b85356116818161154b565b945060208601356116918161154b565b935060408601359250606086013591506116ae876080880161158c565b90509295509295909350565b6000602082840312156116cc57600080fd5b813561129f8161154b565b600080600080608085870312156116ed57600080fd5b5050823594602084013594506040840135936060013592509050565b634e487b7160e01b600052603260045260246000fd5b634e487b7160e01b600052601160045260246000fd5b818103818111156108655761086561171f565b808201808211156108655761086561171f565b61030081810190808484375092915050565b634e487b7160e01b600052601260045260246000fd5b6000826117a057634e487b7160e01b600052601260045260246000fd5b500490565b6000600182016117b7576117b761171f565b5060010190565b6103008101818360005b60188110156117e75781548352602090920191600191820191016117c8565b50505092915050565b6001600160a01b03868116825285166020820152604081018490526060810183905261038081016103008360808401379695505050505050565b60006020828403121561183c57600080fd5b5051919050565b600081600019048311821515161561185d5761185d61171f565b500290565b60006020828403121561187457600080fd5b815161129f816115d4565b60005b8381101561189a578181015183820152602001611882565b50506000910152565b600082516118b581846020870161187f565b9190910192915050565b60208152600082518060208401526118de81604085016020870161187f565b601f01601f1916919091016040019291505056fea2646970667358221220909f093ef774d91ff1b45f716bc9e0e661c91a2f7191307ff4e6fd6afedcb91564736f6c63430008100033",
  "devdoc": {
    "kind": "dev",
    "methods": {
      "owner()": {
        "details": "Returns the address of the current owner."
      },
      "renounceOwnership()": {
        "details": "Leaves the contract without owner. It will not be possible to call `onlyOwner` functions anymore. Can only be called by the current owner. NOTE: Renouncing ownership will leave the contract without an owner, thereby removing any functionality that is only available to the owner."
      },
      "transferOwnership(address)": {
        "details": "Transfers ownership of the contract to a new account (`newOwner`). Can only be called by the current owner."
      }
    },
    "version": 1
  },
  "userdoc": {
    "kind": "user",
    "methods": {
      "claimReward(address,address)": {
        "notice": "See {IRewardController-claimReward}. "
      },
      "commitUserBalance(address,uint256,bool)": {
        "notice": "See {IRewardController-commitUserBalance}. "
      },
      "getPendingReward(address,address)": {
        "notice": "See {IRewardController-getPendingReward}. "
      },
      "getVaultReward(address,uint256)": {
        "notice": "See {IRewardController-getVaultReward}. "
      },
      "initialize(address,address,uint256,uint256,uint256[24])": {
        "notice": "See {IRewardController-initialize}. "
      },
      "setAllocPoint(address,uint256)": {
        "notice": "See {IRewardController-setAllocPoint}. "
      },
      "setEpochRewardPerBlock(uint256[24])": {
        "notice": "See {IRewardController-setEpochRewardPerBlock}. "
      },
      "sweepToken(address,uint256)": {
        "notice": "See {IRewardController-sweepToken}. "
      },
      "updateVault(address)": {
        "notice": "See {IRewardController-updateVault}. "
      }
    },
    "version": 1
  },
  "storageLayout": {
    "storage": [
      {
        "astId": 306,
        "contract": "contracts/RewardController.sol:RewardController",
        "label": "_initialized",
        "offset": 0,
        "slot": "0",
        "type": "t_uint8"
      },
      {
        "astId": 309,
        "contract": "contracts/RewardController.sol:RewardController",
        "label": "_initializing",
        "offset": 1,
        "slot": "0",
        "type": "t_bool"
      },
      {
        "astId": 2604,
        "contract": "contracts/RewardController.sol:RewardController",
        "label": "__gap",
        "offset": 0,
        "slot": "1",
        "type": "t_array(t_uint256)50_storage"
      },
      {
        "astId": 10,
        "contract": "contracts/RewardController.sol:RewardController",
        "label": "_owner",
        "offset": 0,
        "slot": "51",
        "type": "t_address"
      },
      {
        "astId": 130,
        "contract": "contracts/RewardController.sol:RewardController",
        "label": "__gap",
        "offset": 0,
        "slot": "52",
        "type": "t_array(t_uint256)49_storage"
      },
      {
        "astId": 16849,
        "contract": "contracts/RewardController.sol:RewardController",
        "label": "startBlock",
        "offset": 0,
        "slot": "101",
        "type": "t_uint256"
      },
      {
        "astId": 16851,
        "contract": "contracts/RewardController.sol:RewardController",
        "label": "epochLength",
        "offset": 0,
        "slot": "102",
        "type": "t_uint256"
      },
      {
        "astId": 16854,
        "contract": "contracts/RewardController.sol:RewardController",
        "label": "rewardToken",
        "offset": 0,
        "slot": "103",
        "type": "t_contract(IERC20Upgradeable)1231"
      },
      {
        "astId": 16858,
        "contract": "contracts/RewardController.sol:RewardController",
        "label": "epochRewardPerBlock",
        "offset": 0,
        "slot": "104",
        "type": "t_array(t_uint256)24_storage"
      },
      {
        "astId": 16862,
        "contract": "contracts/RewardController.sol:RewardController",
        "label": "globalVaultsUpdates",
        "offset": 0,
        "slot": "128",
        "type": "t_array(t_struct(VaultUpdate)16841_storage)dyn_storage"
      },
      {
        "astId": 16867,
        "contract": "contracts/RewardController.sol:RewardController",
        "label": "vaultInfo",
        "offset": 0,
        "slot": "129",
        "type": "t_mapping(t_address,t_struct(VaultInfo)16836_storage)"
      },
      {
        "astId": 16873,
        "contract": "contracts/RewardController.sol:RewardController",
        "label": "rewardDebt",
        "offset": 0,
        "slot": "130",
        "type": "t_mapping(t_address,t_mapping(t_address,t_uint256))"
      },
      {
        "astId": 16879,
        "contract": "contracts/RewardController.sol:RewardController",
        "label": "unclaimedReward",
        "offset": 0,
        "slot": "131",
        "type": "t_mapping(t_address,t_mapping(t_address,t_uint256))"
      }
    ],
    "types": {
      "t_address": {
        "encoding": "inplace",
        "label": "address",
        "numberOfBytes": "20"
      },
      "t_array(t_struct(VaultUpdate)16841_storage)dyn_storage": {
        "base": "t_struct(VaultUpdate)16841_storage",
        "encoding": "dynamic_array",
        "label": "struct RewardController.VaultUpdate[]",
        "numberOfBytes": "32"
      },
      "t_array(t_uint256)24_storage": {
        "base": "t_uint256",
        "encoding": "inplace",
        "label": "uint256[24]",
        "numberOfBytes": "768"
      },
      "t_array(t_uint256)49_storage": {
        "base": "t_uint256",
        "encoding": "inplace",
        "label": "uint256[49]",
        "numberOfBytes": "1568"
      },
      "t_array(t_uint256)50_storage": {
        "base": "t_uint256",
        "encoding": "inplace",
        "label": "uint256[50]",
        "numberOfBytes": "1600"
      },
      "t_bool": {
        "encoding": "inplace",
        "label": "bool",
        "numberOfBytes": "1"
      },
      "t_contract(IERC20Upgradeable)1231": {
        "encoding": "inplace",
        "label": "contract IERC20Upgradeable",
        "numberOfBytes": "20"
      },
      "t_mapping(t_address,t_mapping(t_address,t_uint256))": {
        "encoding": "mapping",
        "key": "t_address",
        "label": "mapping(address => mapping(address => uint256))",
        "numberOfBytes": "32",
        "value": "t_mapping(t_address,t_uint256)"
      },
      "t_mapping(t_address,t_struct(VaultInfo)16836_storage)": {
        "encoding": "mapping",
        "key": "t_address",
        "label": "mapping(address => struct RewardController.VaultInfo)",
        "numberOfBytes": "32",
        "value": "t_struct(VaultInfo)16836_storage"
      },
      "t_mapping(t_address,t_uint256)": {
        "encoding": "mapping",
        "key": "t_address",
        "label": "mapping(address => uint256)",
        "numberOfBytes": "32",
        "value": "t_uint256"
      },
      "t_struct(VaultInfo)16836_storage": {
        "encoding": "inplace",
        "label": "struct RewardController.VaultInfo",
        "members": [
          {
            "astId": 16829,
            "contract": "contracts/RewardController.sol:RewardController",
            "label": "rewardPerShare",
            "offset": 0,
            "slot": "0",
            "type": "t_uint256"
          },
          {
            "astId": 16831,
            "contract": "contracts/RewardController.sol:RewardController",
            "label": "lastProcessedVaultUpdate",
            "offset": 0,
            "slot": "1",
            "type": "t_uint256"
          },
          {
            "astId": 16833,
            "contract": "contracts/RewardController.sol:RewardController",
            "label": "lastRewardBlock",
            "offset": 0,
            "slot": "2",
            "type": "t_uint256"
          },
          {
            "astId": 16835,
            "contract": "contracts/RewardController.sol:RewardController",
            "label": "allocPoint",
            "offset": 0,
            "slot": "3",
            "type": "t_uint256"
          }
        ],
        "numberOfBytes": "128"
      },
      "t_struct(VaultUpdate)16841_storage": {
        "encoding": "inplace",
        "label": "struct RewardController.VaultUpdate",
        "members": [
          {
            "astId": 16838,
            "contract": "contracts/RewardController.sol:RewardController",
            "label": "blockNumber",
            "offset": 0,
            "slot": "0",
            "type": "t_uint256"
          },
          {
            "astId": 16840,
            "contract": "contracts/RewardController.sol:RewardController",
            "label": "totalAllocPoint",
            "offset": 0,
            "slot": "1",
            "type": "t_uint256"
          }
        ],
        "numberOfBytes": "64"
      },
      "t_uint256": {
        "encoding": "inplace",
        "label": "uint256",
        "numberOfBytes": "32"
      },
      "t_uint8": {
        "encoding": "inplace",
        "label": "uint8",
        "numberOfBytes": "1"
      }
    }
  }
}