{
  "address": "0x6691ab33d3902e78e4655b918c2138917d15ba03",
  "abi": [
    {
      "inputs": [],
      "name": "EpochLengthZero",
      "type": "error"
    },
    {
      "inputs": [],
      "name": "NotEnoughRewardsToTransferToUser",
      "type": "error"
    },
    {
      "anonymous": false,
      "inputs": [
        {
          "indexed": true,
          "internalType": "address",
          "name": "_vault",
          "type": "address"
        },
        {
          "indexed": true,
          "internalType": "address",
          "name": "_user",
          "type": "address"
        },
        {
          "indexed": false,
          "internalType": "uint256",
          "name": "_amount",
          "type": "uint256"
        }
      ],
      "name": "ClaimReward",
      "type": "event"
    },
    {
      "anonymous": false,
      "inputs": [
        {
          "indexed": false,
          "internalType": "uint8",
          "name": "version",
          "type": "uint8"
        }
      ],
      "name": "Initialized",
      "type": "event"
    },
    {
      "anonymous": false,
      "inputs": [
        {
          "indexed": true,
          "internalType": "address",
          "name": "previousOwner",
          "type": "address"
        },
        {
          "indexed": true,
          "internalType": "address",
          "name": "newOwner",
          "type": "address"
        }
      ],
      "name": "OwnershipTransferred",
      "type": "event"
    },
    {
      "anonymous": false,
      "inputs": [
        {
          "indexed": false,
          "internalType": "address",
          "name": "_rewardToken",
          "type": "address"
        },
        {
          "indexed": false,
          "internalType": "address",
          "name": "_governance",
          "type": "address"
        },
        {
          "indexed": false,
          "internalType": "uint256",
          "name": "_startBlock",
          "type": "uint256"
        },
        {
          "indexed": false,
          "internalType": "uint256",
          "name": "_epochLength",
          "type": "uint256"
        },
        {
          "indexed": false,
          "internalType": "uint256[24]",
          "name": "_epochRewardPerBlock",
          "type": "uint256[24]"
        }
      ],
      "name": "RewardControllerCreated",
      "type": "event"
    },
    {
      "anonymous": false,
      "inputs": [
        {
          "indexed": true,
          "internalType": "address",
          "name": "_vault",
          "type": "address"
        },
        {
          "indexed": false,
          "internalType": "uint256",
          "name": "_prevAllocPoint",
          "type": "uint256"
        },
        {
          "indexed": false,
          "internalType": "uint256",
          "name": "_allocPoint",
          "type": "uint256"
        }
      ],
      "name": "SetAllocPoint",
      "type": "event"
    },
    {
      "anonymous": false,
      "inputs": [
        {
          "indexed": false,
          "internalType": "uint256[24]",
          "name": "_epochRewardPerBlock",
          "type": "uint256[24]"
        }
      ],
      "name": "SetEpochRewardPerBlock",
      "type": "event"
    },
    {
      "anonymous": false,
      "inputs": [
        {
          "indexed": true,
          "internalType": "address",
          "name": "_vault",
          "type": "address"
        },
        {
          "indexed": true,
          "internalType": "address",
          "name": "_user",
          "type": "address"
        },
        {
          "indexed": false,
          "internalType": "uint256",
          "name": "_unclaimedReward",
          "type": "uint256"
        },
        {
          "indexed": false,
          "internalType": "uint256",
          "name": "_rewardDebt",
          "type": "uint256"
        }
      ],
      "name": "UserBalanceCommitted",
      "type": "event"
    },
    {
      "anonymous": false,
      "inputs": [
        {
          "indexed": true,
          "internalType": "address",
          "name": "_vault",
          "type": "address"
        },
        {
          "indexed": false,
          "internalType": "uint256",
          "name": "_rewardPerShare",
          "type": "uint256"
        },
        {
          "indexed": false,
          "internalType": "uint256",
          "name": "_lastProcessedVaultUpdate",
          "type": "uint256"
        }
      ],
      "name": "VaultUpdated",
      "type": "event"
    },
    {
      "inputs": [],
      "name": "NUMBER_OF_EPOCHS",
      "outputs": [
        {
          "internalType": "uint256",
          "name": "",
          "type": "uint256"
        }
      ],
      "stateMutability": "view",
      "type": "function"
    },
    {
      "inputs": [],
      "name": "REWARD_PRECISION",
      "outputs": [
        {
          "internalType": "uint256",
          "name": "",
          "type": "uint256"
        }
      ],
      "stateMutability": "view",
      "type": "function"
    },
    {
      "inputs": [
        {
          "internalType": "address",
          "name": "_vault",
          "type": "address"
        },
        {
          "internalType": "address",
          "name": "_user",
          "type": "address"
        }
      ],
      "name": "claimReward",
      "outputs": [],
      "stateMutability": "nonpayable",
      "type": "function"
    },
    {
      "inputs": [
        {
          "internalType": "address",
          "name": "_user",
          "type": "address"
        },
        {
          "internalType": "uint256",
          "name": "_sharesChange",
          "type": "uint256"
        },
        {
          "internalType": "bool",
          "name": "_isDeposit",
          "type": "bool"
        }
      ],
      "name": "commitUserBalance",
      "outputs": [],
      "stateMutability": "nonpayable",
      "type": "function"
    },
    {
      "inputs": [],
      "name": "epochLength",
      "outputs": [
        {
          "internalType": "uint256",
          "name": "",
          "type": "uint256"
        }
      ],
      "stateMutability": "view",
      "type": "function"
    },
    {
      "inputs": [
        {
          "internalType": "uint256",
          "name": "",
          "type": "uint256"
        }
      ],
      "name": "epochRewardPerBlock",
      "outputs": [
        {
          "internalType": "uint256",
          "name": "",
          "type": "uint256"
        }
      ],
      "stateMutability": "view",
      "type": "function"
    },
    {
      "inputs": [],
      "name": "getGlobalVaultsUpdatesLength",
      "outputs": [
        {
          "internalType": "uint256",
          "name": "",
          "type": "uint256"
        }
      ],
      "stateMutability": "view",
      "type": "function"
    },
    {
      "inputs": [
        {
          "internalType": "address",
          "name": "_vault",
          "type": "address"
        },
        {
          "internalType": "address",
          "name": "_user",
          "type": "address"
        }
      ],
      "name": "getPendingReward",
      "outputs": [
        {
          "internalType": "uint256",
          "name": "",
          "type": "uint256"
        }
      ],
      "stateMutability": "view",
      "type": "function"
    },
    {
      "inputs": [
        {
          "internalType": "uint256",
          "name": "_fromBlock",
          "type": "uint256"
        },
        {
          "internalType": "uint256",
          "name": "_toBlock",
          "type": "uint256"
        },
        {
          "internalType": "uint256",
          "name": "_allocPoint",
          "type": "uint256"
        },
        {
          "internalType": "uint256",
          "name": "_totalAllocPoint",
          "type": "uint256"
        }
      ],
      "name": "getRewardForBlocksRange",
      "outputs": [
        {
          "internalType": "uint256",
          "name": "reward",
          "type": "uint256"
        }
      ],
      "stateMutability": "view",
      "type": "function"
    },
    {
      "inputs": [
        {
          "internalType": "address",
          "name": "_vault",
          "type": "address"
        },
        {
          "internalType": "uint256",
          "name": "_fromBlock",
          "type": "uint256"
        }
      ],
      "name": "getVaultReward",
      "outputs": [
        {
          "internalType": "uint256",
          "name": "reward",
          "type": "uint256"
        }
      ],
      "stateMutability": "view",
      "type": "function"
    },
    {
      "inputs": [
        {
          "internalType": "uint256",
          "name": "",
          "type": "uint256"
        }
      ],
      "name": "globalVaultsUpdates",
      "outputs": [
        {
          "internalType": "uint256",
          "name": "blockNumber",
          "type": "uint256"
        },
        {
          "internalType": "uint256",
          "name": "totalAllocPoint",
          "type": "uint256"
        }
      ],
      "stateMutability": "view",
      "type": "function"
    },
    {
      "inputs": [
        {
          "internalType": "address",
          "name": "_rewardToken",
          "type": "address"
        },
        {
          "internalType": "address",
          "name": "_governance",
          "type": "address"
        },
        {
          "internalType": "uint256",
          "name": "_startRewardingBlock",
          "type": "uint256"
        },
        {
          "internalType": "uint256",
          "name": "_epochLength",
          "type": "uint256"
        },
        {
          "internalType": "uint256[24]",
          "name": "_epochRewardPerBlock",
          "type": "uint256[24]"
        }
      ],
      "name": "initialize",
      "outputs": [],
      "stateMutability": "nonpayable",
      "type": "function"
    },
    {
      "inputs": [],
      "name": "owner",
      "outputs": [
        {
          "internalType": "address",
          "name": "",
          "type": "address"
        }
      ],
      "stateMutability": "view",
      "type": "function"
    },
    {
      "inputs": [],
      "name": "renounceOwnership",
      "outputs": [],
      "stateMutability": "nonpayable",
      "type": "function"
    },
    {
      "inputs": [
        {
          "internalType": "address",
          "name": "",
          "type": "address"
        },
        {
          "internalType": "address",
          "name": "",
          "type": "address"
        }
      ],
      "name": "rewardDebt",
      "outputs": [
        {
          "internalType": "uint256",
          "name": "",
          "type": "uint256"
        }
      ],
      "stateMutability": "view",
      "type": "function"
    },
    {
      "inputs": [],
      "name": "rewardToken",
      "outputs": [
        {
          "internalType": "contract IERC20Upgradeable",
          "name": "",
          "type": "address"
        }
      ],
      "stateMutability": "view",
      "type": "function"
    },
    {
      "inputs": [
        {
          "internalType": "address",
          "name": "_vault",
          "type": "address"
        },
        {
          "internalType": "uint256",
          "name": "_allocPoint",
          "type": "uint256"
        }
      ],
      "name": "setAllocPoint",
      "outputs": [],
      "stateMutability": "nonpayable",
      "type": "function"
    },
    {
      "inputs": [
        {
          "internalType": "uint256[24]",
          "name": "_epochRewardPerBlock",
          "type": "uint256[24]"
        }
      ],
      "name": "setEpochRewardPerBlock",
      "outputs": [],
      "stateMutability": "nonpayable",
      "type": "function"
    },
    {
      "inputs": [],
      "name": "startBlock",
      "outputs": [
        {
          "internalType": "uint256",
          "name": "",
          "type": "uint256"
        }
      ],
      "stateMutability": "view",
      "type": "function"
    },
    {
      "inputs": [
        {
          "internalType": "contract IERC20Upgradeable",
          "name": "_token",
          "type": "address"
        },
        {
          "internalType": "uint256",
          "name": "_amount",
          "type": "uint256"
        }
      ],
      "name": "sweepToken",
      "outputs": [],
      "stateMutability": "nonpayable",
      "type": "function"
    },
    {
      "inputs": [
        {
          "internalType": "address",
          "name": "newOwner",
          "type": "address"
        }
      ],
      "name": "transferOwnership",
      "outputs": [],
      "stateMutability": "nonpayable",
      "type": "function"
    },
    {
      "inputs": [
        {
          "internalType": "address",
          "name": "",
          "type": "address"
        },
        {
          "internalType": "address",
          "name": "",
          "type": "address"
        }
      ],
      "name": "unclaimedReward",
      "outputs": [
        {
          "internalType": "uint256",
          "name": "",
          "type": "uint256"
        }
      ],
      "stateMutability": "view",
      "type": "function"
    },
    {
      "inputs": [
        {
          "internalType": "address",
          "name": "_vault",
          "type": "address"
        }
      ],
      "name": "updateVault",
      "outputs": [],
      "stateMutability": "nonpayable",
      "type": "function"
    },
    {
      "inputs": [
        {
          "internalType": "address",
          "name": "",
          "type": "address"
        }
      ],
      "name": "vaultInfo",
      "outputs": [
        {
          "internalType": "uint256",
          "name": "rewardPerShare",
          "type": "uint256"
        },
        {
          "internalType": "uint256",
          "name": "lastProcessedVaultUpdate",
          "type": "uint256"
        },
        {
          "internalType": "uint256",
          "name": "lastRewardBlock",
          "type": "uint256"
        },
        {
          "internalType": "uint256",
          "name": "allocPoint",
          "type": "uint256"
        }
      ],
      "stateMutability": "view",
      "type": "function"
    }
  ],
  "transactionHash": "0x024f8c14bceeac3d048fbb849e69813c53ef88a3ef795718c2d3feaf87fcbfda",
  "args": [],
  "numDeployments": 1,
  "solcInputHash": "a88478e553c00767a3b8551e3701da57",
  "bytecode": "0x6080806040523461001657611906908161001c8239f35b600080fdfe6040608081526004908136101561001557600080fd5b600091823560e01c806302b1720c14610df157806324703c5a14610cbd57806329ebf59c14610c9e5780632f6bd33b14610c2357806332e858ac14610bf85780633d6aa5e114610bd857806344d18cd914610a4a57806348cd4cb114610a2b5780634953c7821461084657806357d775f81461082757806360096ff9146107fe578063715018a61461079e5780637476db4f146105b25780637b4717a4146105695780638da5cb5b146105405780639164359a146104e6578063acb3cd161461049d578063ba8045b914610481578063e7563f3f1461045e578063e90a182f14610425578063eabcff2c146103f6578063f2fde38b14610365578063f7c618c1146103385763fe0f3a131461012957600080fd5b34610334578160031936011261033457610141610f70565b9061014a610f8b565b9360018060a01b0391828416928383526020966083885286842091608189528785208851906080820182811067ffffffffffffffff821117610321578a5280549182815260018201548c820152606060036002840154938d8401948552015491015281988a51916318160ddd60e01b83528c8389818d5afa9283156103175789936102e4575b50821515806102da575b806102d0575b6102a5575b505050508751916370a0823160e01b83521680938201528781602481885afa90811561029b579084939291889591610258575b509061022a6102519761023a93611314565b90838552895284842054906110cf565b9382526082875282822090825286522054906110c2565b9051908152f35b8092949697939550898092503d8311610294575b61027681836110dc565b81010312610290575190949386939092909161022a610218565b8480fd5b503d61026c565b87513d86823e3d90fd5b6102c6949a506102c092916102bb915190611645565b611287565b906110cf565b95388080806101e5565b50805143116101e0565b50805115156101da565b9092508c81813d8311610310575b6102fc81836110dc565b8101031261030c575191386101d0565b8880fd5b503d6102f2565b8c513d8b823e3d90fd5b634e487b7160e01b885260418752602488fd5b8280fd5b50503461036157816003193601126103615760675490516001600160a01b039091168152602090f35b5080fd5b50346103345760203660031901126103345761037f610f70565b90610388610ff1565b6001600160a01b038216156103a457506103a190611049565b51f35b608490602084519162461bcd60e51b8352820152602660248201527f4f776e61626c653a206e6577206f776e657220697320746865207a65726f206160448201526564647265737360d01b6064820152fd5b509134610422576080366003190112610422575061025160209260643590604435906024359035611756565b80fd5b5034610334578160031936011261033457356001600160a01b0381168103610334576103a190610453610ff1565b6024359033906113f8565b505034610361576020366003190112610361576103a161047c610f70565b611114565b5050346103615781600319360112610361576020905160188152f35b505034610361578060031936011261036157806020926104bb610f70565b6104c3610f8b565b6001600160a01b0391821683526083865283832091168252845220549051908152f35b5050346103615760203660031901126103615760809181906001600160a01b0361050e610f70565b168152608160205220908154916001810154916003600283015492015492815194855260208501528301526060820152f35b50503461036157816003193601126103615760335490516001600160a01b039091168152602090f35b50503461036157806003193601126103615780602092610587610f70565b61058f610f8b565b6001600160a01b0391821683526082865283832091168252845220549051908152f35b50919034610361576103809283600319360112610334576105d1610f70565b906105da610f8b565b9460443592606435366103841161079a5786549460ff8660081c16159485809661078d575b8015610776575b1561071c57600196868860ff198316178b5561070b575b5082156106fd5750606780546001600160a01b0319166001600160a01b0394851690811790915560658290556066839055926084895b601881106106e95750508961068c7f312ed02b80f3107f231f18b416daada6537a16237e381fb203b5f3c877e939fa9798999a9b611049565b895194855216602084015287830152606082015261030060846080830137a16106b3575051f35b60207f7f26b83ff96e1f2b6a682f133852f6798a09c465da95921460cefb38474024989161ff001985541685558351908152a151f35b889060208335930192816068015501610653565b875163374563f360e11b8152fd5b61ffff19166101011789553861061d565b608490602089519162461bcd60e51b8352820152602e60248201527f496e697469616c697a61626c653a20636f6e747261637420697320616c72656160448201526d191e481a5b9a5d1a585b1a5e995960921b6064820152fd5b50303b1580156106065750600160ff881614610606565b50600160ff8816106105ff565b8680fd5b5050346103615781600319360112610361576107b8610ff1565b603380546001600160a01b0319811690915590519082906001600160a01b03167f8be0079c531659141344cd1fd0a4f28419497f9722a3daafe3b4186f6b6457e08284a3f35b50503461036157806003193601126103615760209061025161081e610f70565b60243590611645565b5050346103615781600319360112610361576020906066549051908152f35b503461033457816003193601126103345761085f610f70565b82610868610f8b565b9161087281611114565b81516370a0823160e01b81526001600160a01b038481169582018690529182169360209290918381602481895afa90898215610a20578892889282916109c7575b5096817f7e77f685b38c861064cb08f2776eb5dfd3c82f652ed9f21221b8c53b75628e5198847fc3ecb7234183fd66951358174f6d19c08a152b7e2ea895855d55794952f81c069452608189528261091a8184205460828c52828520938061098457611314565b9283928882528b522055838d52608388528c8583822091528852818d205490825191825288820152a38488526083835286882086895283528688205480928161096a575b5050508551908152a351f35b61097c928a8a812055606754166113f8565b38818161095e565b8c60836109a46109948585611314565b8d8a52888452878a2054906110c2565b918b8952528d858820908c8952526109c08588209182546110cf565b9055611314565b9750509150508385813d8311610a19575b6109e281836110dc565b81010312610422579351879487918791907fc3ecb7234183fd66951358174f6d19c08a152b7e2ea895855d55794952f81c066108b3565b503d6109d8565b8651903d90823e3d90fd5b5050346103615781600319360112610361576020906065549051908152f35b503461033457606036600319011261033457610a64610f70565b60243590604435908115158203610bd457610a7e33611114565b84516370a0823160e01b81526001600160a01b039091169381018490526020928382602481335afa908115610bca578791610b99575b610ae39250819033895260818652878920549260828752888a209581610b58575b82610b32575b505050611314565b9083865282528084862055338552608382528385208386528252838520549184519283528201527fc3ecb7234183fd66951358174f6d19c08a152b7e2ea895855d55794952f81c06833392a351f35b15610b495750610b41916110cf565b388080610adb565b610b5392506110c2565b610b41565b610b75610b658684611314565b8a8d52888a528b8d2054906110c2565b338c52608389528a8c208a8d528952610b928b8d209182546110cf565b9055610ad5565b90508382813d8311610bc3575b610bb081836110dc565b8101031261079a57610ae3915190610ab4565b503d610ba6565b86513d89823e3d90fd5b8580fd5b5050346103615781600319360112610361576020905164e8d4a510008152f35b5034610334576020366003190112610334573560188110156103345760209250606801549051908152f35b50829034610361576020366003190112610361573590608054821015610422576080905260011b7f59f3fb058c6bba7a4e76396639fc4dd21bd59163db798899cf56cef48b3c9eca817f59f3fb058c6bba7a4e76396639fc4dd21bd59163db798899cf56cef48b3c9ec9015491015482519182526020820152f35b5050346103615781600319360112610361576020906080549051908152f35b5034610334576103009081600319360112610ded573661030411610ded57610ce3610ff1565b606554804310600014610d40575080845b60188110610d2b575050907f0670808d1e6714a56aec6624e8f94dc455ef9ad8ceba5a26c1002d13cf6c59fd91818451918237a151f35b60019060208335930192816068015501610cf4565b610d4d610d5691436110c2565b60665490611267565b90600191828101809111610dda575b60188110610dbe575050825190606885835b60188210610daa5750505050907f0670808d1e6714a56aec6624e8f94dc455ef9ad8ceba5a26c1002d13cf6c59fd91a151f35b825481529183019190830190602001610d77565b8060051b82013581606801556000198114610dda578201610d65565b634e487b7160e01b865260118252602486fd5b8380fd5b5034610334578160031936011261033457610e0a610f70565b60243591610e16610ff1565b610e1f82611114565b60805485908015610f6857610e379060001901610fa1565b50906001820191610e6986610e64855460018060a01b0389168c52608160205260038b8d200154906110c2565b6110cf565b928391544314610f5d575b50505b15610ed6575b505060018060a01b03168084526081602052807f676fc8e0b2147454e2b4a5c4c7c51f4a3c1d7cc2841c8c2d864e22044fb9b60c84600381882001548151908152856020820152a2835260816020526003828420015551f35b845185810181811067ffffffffffffffff821117610f4a5786524381526020810191825260805468010000000000000000811015610f4a57806001610f1e9201608055610fa1565b939093610f38575090600191518355519101553880610e7d565b634e487b7160e01b8852879052602487fd5b634e487b7160e01b885260418452602488fd5b555060018138610e74565b508390610e77565b600435906001600160a01b0382168203610f8657565b600080fd5b602435906001600160a01b0382168203610f8657565b608054811015610fdb57608060005260011b7f59f3fb058c6bba7a4e76396639fc4dd21bd59163db798899cf56cef48b3c9ec90190600090565b634e487b7160e01b600052603260045260246000fd5b6033546001600160a01b0316330361100557565b606460405162461bcd60e51b815260206004820152602060248201527f4f776e61626c653a2063616c6c6572206973206e6f7420746865206f776e65726044820152fd5b6033549060018060a01b0380911691826bffffffffffffffffffffffff60a01b821617603355167f8be0079c531659141344cd1fd0a4f28419497f9722a3daafe3b4186f6b6457e06000604051a3565b80600019048211811515166110ac570290565b634e487b7160e01b600052601160045260246000fd5b919082039182116110ac57565b919082018092116110ac57565b90601f8019910116810190811067ffffffffffffffff8211176110fe57604052565b634e487b7160e01b600052604160045260246000fd5b60018060a01b0381169060008281526020906081825260408120926002840180549081156112475781431461123e574390556040516318160ddd60e01b815284816004818a5afa908115611233578491611206575b50806111e5575b50505060805490816111b7575b50508160409160017f78f5f4fe573a0f848b230b1151919d737f07fd52424347dbd007dd57fb906e009454920154908351928352820152a2565b60001982019182116111d15750600183015581604061117d565b634e487b7160e01b81526011600452602490fd5b6102bb6111f5926111fc94611645565b84546110cf565b8355388080611170565b90508481813d831161122c575b61121d81836110dc565b81010312610ded575138611169565b503d611213565b6040513d86823e3d90fd5b50505050505050565b9550505091505060655490508043116000146112635750439055565b9055565b8115611271570490565b634e487b7160e01b600052601260045260246000fd5b9064e8d4a510009060001982840992828102928380861095039480860395146113045784831115610f86578291096001821901821680920460028082600302188083028203028083028203028083028203028083028203028083028203028092029003029360018380600003040190848311900302920304170290565b5050906113119250611267565b90565b90600019818309818302918280831092039180830392146113745764e8d4a510009082821115610f86577f77e12cab7520c63c04f1786181bbccfbb156301b10c40b343662e0e1cf503eb1940990828211900360f41b9103600c1c170290565b505064e8d4a5100091500490565b9160001982840992828102928380861095039480860395146113045784831115610f86578291096001821901821680920460028082600302188083028203028083028203028083028203028083028203028083028203028092029003029360018380600003040190848311900302920304170290565b60405163a9059cbb60e01b60208083019182526001600160a01b03948516602484015260448084019690965294825292608082019267ffffffffffffffff929190838511838610176110fe57169060c08101848110848211176110fe576040528584527f5361666545524332303a206c6f772d6c6576656c2063616c6c206661696c656460a0820152600080958192519082855af1903d15611566573d92831161155257906114c7939291604051926114ba88601f19601f84011601856110dc565b83523d868885013e611571565b8051806114d5575b50505050565b81849181010312610361578201519081159182150361042257506114fb578080806114cf565b6084906040519062461bcd60e51b82526004820152602a60248201527f5361666545524332303a204552433230206f7065726174696f6e20646964206e6044820152691bdd081cdd58d8d9595960b21b6064820152fd5b634e487b7160e01b85526041600452602485fd5b906114c79392506060915b919290156115d35750815115611585575090565b3b1561158e5790565b60405162461bcd60e51b815260206004820152601d60248201527f416464726573733a2063616c6c20746f206e6f6e2d636f6e74726163740000006044820152606490fd5b8251909150156115e65750805190602001fd5b6040519062461bcd60e51b82528160208060048301528251908160248401526000935b82851061162c575050604492506000838284010152601f80199101168101030190fd5b8481018201518686016044015293810193859350611609565b9190600090600060805494851561174f576001600160a01b0316815260816020526040808220905160808101969092909167ffffffffffffffff88118489101761173b57606094976040528054845260019360038583015492836020840152600281015460408401520154958691015291600019015b8083106116e2575050916113119495916116d76102c094610fa1565b500154914390611756565b919490968386019586811161172757916102c061171d92876117149a9b958861170a8c610fa1565b50549c8d92610fa1565b50015492611756565b95969594916116bb565b634e487b7160e01b89526011600452602489fd5b634e487b7160e01b82526041600452602482fd5b5093505050565b91939290936000946000936065549485821015806118c6575b806118bd575b611782575b505050505050565b8091929394959750966066546117a18161179c84876110c2565b611267565b916001928381018091116118a957929190825b611828575b50505060188111156117ed57506117dc926117e19697926102c092915b03611099565b611382565b9038808080808061177a565b9060186000198301101561181457506117dc926117e196979260676102c0930154916117d6565b634e487b7160e01b81526032600452602490fd5b909192949960189a8b87116118a05761184583610e648987611099565b9b8c891115611896576000198801101561188257611879859493926102c08e611874889560678d0154926110c2565b611099565b9b9601936117b4565b634e487b7160e01b86526032600452602486fd5b50959350996117b9565b959350996117b9565b634e487b7160e01b85526011600452602485fd5b50841515611775565b508183101561176f56fea26469706673582212202931bf04050d69c4a356a496359626735fd40a9555eea690bb240e44a43df10c64736f6c63430008100033",
  "devdoc": {
    "kind": "dev",
    "methods": {
      "owner()": {
        "details": "Returns the address of the current owner."
      },
      "renounceOwnership()": {
        "details": "Leaves the contract without owner. It will not be possible to call `onlyOwner` functions anymore. Can only be called by the current owner. NOTE: Renouncing ownership will leave the contract without an owner, thereby removing any functionality that is only available to the owner."
      },
      "transferOwnership(address)": {
        "details": "Transfers ownership of the contract to a new account (`newOwner`). Can only be called by the current owner."
      }
    },
    "version": 1
  },
  "userdoc": {
    "kind": "user",
    "methods": {
      "claimReward(address,address)": {
        "notice": "See {IRewardController-claimReward}. "
      },
      "commitUserBalance(address,uint256,bool)": {
        "notice": "See {IRewardController-commitUserBalance}. "
      },
      "getPendingReward(address,address)": {
        "notice": "See {IRewardController-getPendingReward}. "
      },
      "getVaultReward(address,uint256)": {
        "notice": "See {IRewardController-getVaultReward}. "
      },
      "initialize(address,address,uint256,uint256,uint256[24])": {
        "notice": "See {IRewardController-initialize}. "
      },
      "setAllocPoint(address,uint256)": {
        "notice": "See {IRewardController-setAllocPoint}. "
      },
      "setEpochRewardPerBlock(uint256[24])": {
        "notice": "See {IRewardController-setEpochRewardPerBlock}. "
      },
      "sweepToken(address,uint256)": {
        "notice": "See {IRewardController-sweepToken}. "
      },
      "updateVault(address)": {
        "notice": "See {IRewardController-updateVault}. "
      }
    },
    "version": 1
  },
  "storageLayout": {
    "storage": [
      {
        "astId": 1092,
        "contract": "contracts/RewardController.sol:RewardController",
        "label": "_initialized",
        "offset": 0,
        "slot": "0",
        "type": "t_uint8"
      },
      {
        "astId": 1095,
        "contract": "contracts/RewardController.sol:RewardController",
        "label": "_initializing",
        "offset": 1,
        "slot": "0",
        "type": "t_bool"
      },
      {
        "astId": 3390,
        "contract": "contracts/RewardController.sol:RewardController",
        "label": "__gap",
        "offset": 0,
        "slot": "1",
        "type": "t_array(t_uint256)50_storage"
      },
      {
        "astId": 296,
        "contract": "contracts/RewardController.sol:RewardController",
        "label": "_owner",
        "offset": 0,
        "slot": "51",
        "type": "t_address"
      },
      {
        "astId": 416,
        "contract": "contracts/RewardController.sol:RewardController",
        "label": "__gap",
        "offset": 0,
        "slot": "52",
        "type": "t_array(t_uint256)49_storage"
      },
      {
        "astId": 21485,
        "contract": "contracts/RewardController.sol:RewardController",
        "label": "startBlock",
        "offset": 0,
        "slot": "101",
        "type": "t_uint256"
      },
      {
        "astId": 21487,
        "contract": "contracts/RewardController.sol:RewardController",
        "label": "epochLength",
        "offset": 0,
        "slot": "102",
        "type": "t_uint256"
      },
      {
        "astId": 21490,
        "contract": "contracts/RewardController.sol:RewardController",
        "label": "rewardToken",
        "offset": 0,
        "slot": "103",
        "type": "t_contract(IERC20Upgradeable)2017"
      },
      {
        "astId": 21494,
        "contract": "contracts/RewardController.sol:RewardController",
        "label": "epochRewardPerBlock",
        "offset": 0,
        "slot": "104",
        "type": "t_array(t_uint256)24_storage"
      },
      {
        "astId": 21498,
        "contract": "contracts/RewardController.sol:RewardController",
        "label": "globalVaultsUpdates",
        "offset": 0,
        "slot": "128",
        "type": "t_array(t_struct(VaultUpdate)21477_storage)dyn_storage"
      },
      {
        "astId": 21503,
        "contract": "contracts/RewardController.sol:RewardController",
        "label": "vaultInfo",
        "offset": 0,
        "slot": "129",
        "type": "t_mapping(t_address,t_struct(VaultInfo)21472_storage)"
      },
      {
        "astId": 21509,
        "contract": "contracts/RewardController.sol:RewardController",
        "label": "rewardDebt",
        "offset": 0,
        "slot": "130",
        "type": "t_mapping(t_address,t_mapping(t_address,t_uint256))"
      },
      {
        "astId": 21515,
        "contract": "contracts/RewardController.sol:RewardController",
        "label": "unclaimedReward",
        "offset": 0,
        "slot": "131",
        "type": "t_mapping(t_address,t_mapping(t_address,t_uint256))"
      }
    ],
    "types": {
      "t_address": {
        "encoding": "inplace",
        "label": "address",
        "numberOfBytes": "20"
      },
      "t_array(t_struct(VaultUpdate)21477_storage)dyn_storage": {
        "base": "t_struct(VaultUpdate)21477_storage",
        "encoding": "dynamic_array",
        "label": "struct RewardController.VaultUpdate[]",
        "numberOfBytes": "32"
      },
      "t_array(t_uint256)24_storage": {
        "base": "t_uint256",
        "encoding": "inplace",
        "label": "uint256[24]",
        "numberOfBytes": "768"
      },
      "t_array(t_uint256)49_storage": {
        "base": "t_uint256",
        "encoding": "inplace",
        "label": "uint256[49]",
        "numberOfBytes": "1568"
      },
      "t_array(t_uint256)50_storage": {
        "base": "t_uint256",
        "encoding": "inplace",
        "label": "uint256[50]",
        "numberOfBytes": "1600"
      },
      "t_bool": {
        "encoding": "inplace",
        "label": "bool",
        "numberOfBytes": "1"
      },
      "t_contract(IERC20Upgradeable)2017": {
        "encoding": "inplace",
        "label": "contract IERC20Upgradeable",
        "numberOfBytes": "20"
      },
      "t_mapping(t_address,t_mapping(t_address,t_uint256))": {
        "encoding": "mapping",
        "key": "t_address",
        "label": "mapping(address => mapping(address => uint256))",
        "numberOfBytes": "32",
        "value": "t_mapping(t_address,t_uint256)"
      },
      "t_mapping(t_address,t_struct(VaultInfo)21472_storage)": {
        "encoding": "mapping",
        "key": "t_address",
        "label": "mapping(address => struct RewardController.VaultInfo)",
        "numberOfBytes": "32",
        "value": "t_struct(VaultInfo)21472_storage"
      },
      "t_mapping(t_address,t_uint256)": {
        "encoding": "mapping",
        "key": "t_address",
        "label": "mapping(address => uint256)",
        "numberOfBytes": "32",
        "value": "t_uint256"
      },
      "t_struct(VaultInfo)21472_storage": {
        "encoding": "inplace",
        "label": "struct RewardController.VaultInfo",
        "members": [
          {
            "astId": 21465,
            "contract": "contracts/RewardController.sol:RewardController",
            "label": "rewardPerShare",
            "offset": 0,
            "slot": "0",
            "type": "t_uint256"
          },
          {
            "astId": 21467,
            "contract": "contracts/RewardController.sol:RewardController",
            "label": "lastProcessedVaultUpdate",
            "offset": 0,
            "slot": "1",
            "type": "t_uint256"
          },
          {
            "astId": 21469,
            "contract": "contracts/RewardController.sol:RewardController",
            "label": "lastRewardBlock",
            "offset": 0,
            "slot": "2",
            "type": "t_uint256"
          },
          {
            "astId": 21471,
            "contract": "contracts/RewardController.sol:RewardController",
            "label": "allocPoint",
            "offset": 0,
            "slot": "3",
            "type": "t_uint256"
          }
        ],
        "numberOfBytes": "128"
      },
      "t_struct(VaultUpdate)21477_storage": {
        "encoding": "inplace",
        "label": "struct RewardController.VaultUpdate",
        "members": [
          {
            "astId": 21474,
            "contract": "contracts/RewardController.sol:RewardController",
            "label": "blockNumber",
            "offset": 0,
            "slot": "0",
            "type": "t_uint256"
          },
          {
            "astId": 21476,
            "contract": "contracts/RewardController.sol:RewardController",
            "label": "totalAllocPoint",
            "offset": 0,
            "slot": "1",
            "type": "t_uint256"
          }
        ],
        "numberOfBytes": "64"
      },
      "t_uint256": {
        "encoding": "inplace",
        "label": "uint256",
        "numberOfBytes": "32"
      },
      "t_uint8": {
        "encoding": "inplace",
        "label": "uint8",
        "numberOfBytes": "1"
      }
    }
  }
}