{
  "address": "0x0153A75550E32CDf9a4458301bb89b600e745EAf",
  "abi": [
    {
      "inputs": [
        {
          "internalType": "address",
          "name": "_masterCopy",
          "type": "address"
        },
        {
          "internalType": "address",
          "name": "_governance",
          "type": "address"
        }
      ],
      "stateMutability": "nonpayable",
      "type": "constructor"
    },
    {
      "inputs": [],
      "name": "MasterCopyCannotBeZero",
      "type": "error"
    },
    {
      "anonymous": false,
      "inputs": [
        {
          "indexed": true,
          "internalType": "address",
          "name": "masterCopy",
          "type": "address"
        }
      ],
      "name": "MasterCopyUpdated",
      "type": "event"
    },
    {
      "anonymous": false,
      "inputs": [
        {
          "indexed": true,
          "internalType": "address",
          "name": "previousOwner",
          "type": "address"
        },
        {
          "indexed": true,
          "internalType": "address",
          "name": "newOwner",
          "type": "address"
        }
      ],
      "name": "OwnershipTransferred",
      "type": "event"
    },
    {
      "anonymous": false,
      "inputs": [
        {
          "indexed": true,
          "internalType": "address",
          "name": "contractAddress",
          "type": "address"
        },
        {
          "indexed": true,
          "internalType": "bytes32",
          "name": "initHash",
          "type": "bytes32"
        },
        {
          "indexed": true,
          "internalType": "address",
          "name": "beneficiary",
          "type": "address"
        },
        {
          "indexed": false,
          "internalType": "address",
          "name": "token",
          "type": "address"
        },
        {
          "indexed": false,
          "internalType": "uint256",
          "name": "managedAmount",
          "type": "uint256"
        },
        {
          "indexed": false,
          "internalType": "uint256",
          "name": "startTime",
          "type": "uint256"
        },
        {
          "indexed": false,
          "internalType": "uint256",
          "name": "endTime",
          "type": "uint256"
        },
        {
          "indexed": false,
          "internalType": "uint256",
          "name": "periods",
          "type": "uint256"
        },
        {
          "indexed": false,
          "internalType": "uint256",
          "name": "releaseStartTime",
          "type": "uint256"
        },
        {
          "indexed": false,
          "internalType": "uint256",
          "name": "vestingCliffTime",
          "type": "uint256"
        },
        {
          "indexed": false,
          "internalType": "bool",
          "name": "revocable",
          "type": "bool"
        },
        {
          "indexed": false,
          "internalType": "bool",
          "name": "canDelegate",
          "type": "bool"
        }
      ],
      "name": "TokenLockCreated",
      "type": "event"
    },
    {
      "inputs": [
        {
          "internalType": "address",
          "name": "_token",
          "type": "address"
        },
        {
          "internalType": "address",
          "name": "_owner",
          "type": "address"
        },
        {
          "internalType": "address",
          "name": "_beneficiary",
          "type": "address"
        },
        {
          "internalType": "uint256",
          "name": "_managedAmount",
          "type": "uint256"
        },
        {
          "internalType": "uint256",
          "name": "_startTime",
          "type": "uint256"
        },
        {
          "internalType": "uint256",
          "name": "_endTime",
          "type": "uint256"
        },
        {
          "internalType": "uint256",
          "name": "_periods",
          "type": "uint256"
        },
        {
          "internalType": "uint256",
          "name": "_releaseStartTime",
          "type": "uint256"
        },
        {
          "internalType": "uint256",
          "name": "_vestingCliffTime",
          "type": "uint256"
        },
        {
          "internalType": "bool",
          "name": "_revocable",
          "type": "bool"
        },
        {
          "internalType": "bool",
          "name": "_canDelegate",
          "type": "bool"
        }
      ],
      "name": "createTokenLock",
      "outputs": [
        {
          "internalType": "address",
          "name": "contractAddress",
          "type": "address"
        }
      ],
      "stateMutability": "nonpayable",
      "type": "function"
    },
    {
      "inputs": [],
      "name": "masterCopy",
      "outputs": [
        {
          "internalType": "address",
          "name": "",
          "type": "address"
        }
      ],
      "stateMutability": "view",
      "type": "function"
    },
    {
      "inputs": [
        {
          "internalType": "address",
          "name": "",
          "type": "address"
        }
      ],
      "name": "nonce",
      "outputs": [
        {
          "internalType": "uint256",
          "name": "",
          "type": "uint256"
        }
      ],
      "stateMutability": "view",
      "type": "function"
    },
    {
      "inputs": [],
      "name": "owner",
      "outputs": [
        {
          "internalType": "address",
          "name": "",
          "type": "address"
        }
      ],
      "stateMutability": "view",
      "type": "function"
    },
    {
      "inputs": [],
      "name": "renounceOwnership",
      "outputs": [],
      "stateMutability": "nonpayable",
      "type": "function"
    },
    {
      "inputs": [
        {
          "internalType": "address",
          "name": "_masterCopy",
          "type": "address"
        }
      ],
      "name": "setMasterCopy",
      "outputs": [],
      "stateMutability": "nonpayable",
      "type": "function"
    },
    {
      "inputs": [
        {
          "internalType": "address",
          "name": "newOwner",
          "type": "address"
        }
      ],
      "name": "transferOwnership",
      "outputs": [],
      "stateMutability": "nonpayable",
      "type": "function"
    }
  ],
  "transactionHash": "0xc6c01a973079bd79804c344f6571f3a3f5e37b856a1863a33be968d670c39b01",
  "args": [
    "0xB17566BBDB95932b0C587BB0CeFaA461C592531a",
    "0xB630FD108d20D8586509DB17D1821306e60642bE"
  ],
  "numDeployments": 2,
  "solcInputHash": "e2dd19fbd28890679930fe6b1d01ee82",
  "bytecode": "0x6080346100cf57601f6108e938819003918201601f19168301916001600160401b038311848410176100d45780849260409485528339810103126100cf57610052602061004b836100ea565b92016100ea565b9061005c336100fe565b6001600160a01b03169081156100bd57600180546001600160a01b03191683179055604051916100b191907f30909084afc859121ffc3a5aef7fe37c540a9a1ef60bd4d8dcdb76376fadf9de600085a26100fe565b61079e908161014b8239f35b604051632e10f14560e11b8152600490fd5b600080fd5b634e487b7160e01b600052604160045260246000fd5b51906001600160a01b03821682036100cf57565b600080546001600160a01b039283166001600160a01b03198216811783556040519093909116917f8be0079c531659141344cd1fd0a4f28419497f9722a3daafe3b4186f6b6457e091a356fe6080604052600436101561001257600080fd5b60003560e01c80632225ab7a146102a157806370ae92d214610267578063715018a6146102085780638da5cb5b146101df578063a619486e146101b6578063cf497e6c146101365763f2fde38b1461006957600080fd5b3461013157602036600319011261013157610082610602565b61008a610618565b6001600160a01b039081169081156100dd57600080546001600160a01b031981168417825560405191939192167f8be0079c531659141344cd1fd0a4f28419497f9722a3daafe3b4186f6b6457e08484a3f35b60405162461bcd60e51b815260206004820152602660248201527f4f776e61626c653a206e6577206f776e657220697320746865207a65726f206160448201526564647265737360d01b6064820152608490fd5b600080fd5b346101315760203660031901126101315761014f610602565b610157610618565b6001600160a01b031680156101a457600180546001600160a01b031916821790556040516000917f30909084afc859121ffc3a5aef7fe37c540a9a1ef60bd4d8dcdb76376fadf9de8383a2f35b604051632e10f14560e11b8152600490fd5b34610131576000366003190112610131576001546040516001600160a01b039091168152602090f35b34610131576000366003190112610131576000546040516001600160a01b039091168152602090f35b3461013157600036600319011261013157610221610618565b600080546001600160a01b0319811682556040519082906001600160a01b03167f8be0079c531659141344cd1fd0a4f28419497f9722a3daafe3b4186f6b6457e08284a3f35b34610131576020366003190112610131576001600160a01b03610288610602565b1660005260026020526020604060002054604051908152f35b3461013157610160366003190112610131576102bb610602565b6024356001600160a01b0381169081900361013157604435916001600160a01b038316830361013157610124803593841515850361013157610144803594851515860361013157637479372560e11b60a05260a49081526001600160a01b0383811660c490815290861660e49081526064356101049081526084356101245292356101445290356101649081529035610184528135608095860152871515928501929092528515156101e45292526101a06080016040526001543360005260026020526040600020805460001981146105ec57600181019091553360601b610240908152610254919091526080516e5af43d82803e903d91602b57fd5bf391906103e2906054906103d08161027460a0610692565b60348101610220908152910190610670565b6101a060800151902091763d602d80600a3d3981f3363d3d373d3d3d363d7300000062ffffff8260881c16176000526effffffffffffffffffffffffffffff199060781b1617602052603760096000f5936001600160a01b038516156105a7576040519586604081011067ffffffffffffffff6040890111176105825760408701604052601e87527f416464726573733a206c6f772d6c6576656c2063616c6c206661696c6564000060208801526000806080516020608001828a5af13d15610598573d9767ffffffffffffffff8911610582576040516020996104e493906104d4601f8201601f19168d0184610670565b82523d60008c84013e5b896106b5565b506080518760800120936040519560018060a01b0316865260643588870152608435604087015260a435606087015260c435608087015260e43560a08701523560c0860152151560e0850152151561010084015260018060a01b0316917f36d37372f19c9481fb555ab8fe1131e41119f937f3fe0b36fe3490ee868e82c661012060018060a01b03861692a46040516001600160a01b039091168152f35b634e487b7160e01b600052604160045260246000fd5b6020976104e4916060906104de565b60405162461bcd60e51b815260206004820152601760248201527f455243313136373a2063726561746532206661696c65640000000000000000006044820152606490fd5b634e487b7160e01b600052601160045260246000fd5b600435906001600160a01b038216820361013157565b6000546001600160a01b0316330361062c57565b606460405162461bcd60e51b815260206004820152602060248201527f4f776e61626c653a2063616c6c6572206973206e6f7420746865206f776e65726044820152fd5b90601f8019910116810190811067ffffffffffffffff82111761058257604052565b60005b8381106106a55750506000910152565b8181015183820152602001610695565b9192901561071757508151156106c9575090565b3b156106d25790565b60405162461bcd60e51b815260206004820152601d60248201527f416464726573733a2063616c6c20746f206e6f6e2d636f6e74726163740000006044820152606490fd5b82519091501561072a5750805190602001fd5b6044604051809262461bcd60e51b82526020600483015261075a8151809281602486015260208686019101610692565b601f01601f19168101030190fdfea2646970667358221220af3d8ad5971c6e418fb6be2e9badc631515424c94451ae82cba6ecf20588e7a964736f6c63430008100033",
  "devdoc": {
    "kind": "dev",
    "methods": {
      "constructor": {
        "params": {
          "_governance": "Owner of the factory",
          "_masterCopy": "Address of the master copy to use to clone proxies"
        }
      },
      "createTokenLock(address,address,address,uint256,uint256,uint256,uint256,uint256,uint256,bool,bool)": {
        "params": {
          "_beneficiary": "Address of the beneficiary of locked tokens",
          "_canDelegate": "Whether the contract should call delegate",
          "_endTime": "End time of the release schedule",
          "_managedAmount": "Amount of tokens to be managed by the lock contract",
          "_owner": "Address of the contract owner",
          "_periods": "Number of periods between start time and end time",
          "_releaseStartTime": "Override time for when the releases start",
          "_revocable": "Whether the contract is revocable",
          "_startTime": "Start time of the release schedule",
          "_token": "token to time lock"
        }
      },
      "owner()": {
        "details": "Returns the address of the current owner."
      },
      "renounceOwnership()": {
        "details": "Leaves the contract without owner. It will not be possible to call `onlyOwner` functions anymore. Can only be called by the current owner. NOTE: Renouncing ownership will leave the contract without an owner, thereby removing any functionality that is only available to the owner."
      },
      "setMasterCopy(address)": {
        "params": {
          "_masterCopy": "Address of contract bytecode to factory clone"
        }
      },
      "transferOwnership(address)": {
        "details": "Transfers ownership of the contract to a new account (`newOwner`). Can only be called by the current owner."
      }
    },
    "title": "TokenLockFactory  a factory of TokenLock contracts. This contract receives funds to make the process of creating TokenLock contracts easier by distributing them the initial tokens to be managed.",
    "version": 1
  },
  "userdoc": {
    "kind": "user",
    "methods": {
      "constructor": {
        "notice": "Constructor."
      },
      "createTokenLock(address,address,address,uint256,uint256,uint256,uint256,uint256,uint256,bool,bool)": {
        "notice": "Creates and fund a new token lock wallet using a minimum proxy"
      },
      "setMasterCopy(address)": {
        "notice": "Sets the masterCopy bytecode to use to create clones of TokenLock contracts"
      }
    },
    "version": 1
  },
  "storageLayout": {
    "storage": [
      {
        "astId": 5155,
        "contract": "contracts/tokenlock/TokenLockFactory.sol:TokenLockFactory",
        "label": "_owner",
        "offset": 0,
        "slot": "0",
        "type": "t_address"
      },
      {
        "astId": 29961,
        "contract": "contracts/tokenlock/TokenLockFactory.sol:TokenLockFactory",
        "label": "masterCopy",
        "offset": 0,
        "slot": "1",
        "type": "t_address"
      },
      {
        "astId": 29965,
        "contract": "contracts/tokenlock/TokenLockFactory.sol:TokenLockFactory",
        "label": "nonce",
        "offset": 0,
        "slot": "2",
        "type": "t_mapping(t_address,t_uint256)"
      }
    ],
    "types": {
      "t_address": {
        "encoding": "inplace",
        "label": "address",
        "numberOfBytes": "20"
      },
      "t_mapping(t_address,t_uint256)": {
        "encoding": "mapping",
        "key": "t_address",
        "label": "mapping(address => uint256)",
        "numberOfBytes": "32",
        "value": "t_uint256"
      },
      "t_uint256": {
        "encoding": "inplace",
        "label": "uint256",
        "numberOfBytes": "32"
      }
    }
  }
}