{
  "abi": [
    {
      "inputs": [
        {
          "internalType": "uint256",
          "name": "_minDelay",
          "type": "uint256"
        },
        {
          "internalType": "address[]",
          "name": "_proposers",
          "type": "address[]"
        },
        {
          "internalType": "address[]",
          "name": "_executors",
          "type": "address[]"
        }
      ],
      "stateMutability": "nonpayable",
      "type": "constructor"
    },
    {
      "anonymous": false,
      "inputs": [
        {
          "indexed": true,
          "internalType": "bytes32",
          "name": "id",
          "type": "bytes32"
        },
        {
          "indexed": true,
          "internalType": "uint256",
          "name": "index",
          "type": "uint256"
        },
        {
          "indexed": false,
          "internalType": "address",
          "name": "target",
          "type": "address"
        },
        {
          "indexed": false,
          "internalType": "uint256",
          "name": "value",
          "type": "uint256"
        },
        {
          "indexed": false,
          "internalType": "bytes",
          "name": "data",
          "type": "bytes"
        }
      ],
      "name": "CallExecuted",
      "type": "event"
    },
    {
      "anonymous": false,
      "inputs": [
        {
          "indexed": true,
          "internalType": "bytes32",
          "name": "id",
          "type": "bytes32"
        },
        {
          "indexed": true,
          "internalType": "uint256",
          "name": "index",
          "type": "uint256"
        },
        {
          "indexed": false,
          "internalType": "address",
          "name": "target",
          "type": "address"
        },
        {
          "indexed": false,
          "internalType": "uint256",
          "name": "value",
          "type": "uint256"
        },
        {
          "indexed": false,
          "internalType": "bytes",
          "name": "data",
          "type": "bytes"
        },
        {
          "indexed": false,
          "internalType": "bytes32",
          "name": "predecessor",
          "type": "bytes32"
        },
        {
          "indexed": false,
          "internalType": "uint256",
          "name": "delay",
          "type": "uint256"
        }
      ],
      "name": "CallScheduled",
      "type": "event"
    },
    {
      "anonymous": false,
      "inputs": [
        {
          "indexed": true,
          "internalType": "bytes32",
          "name": "id",
          "type": "bytes32"
        }
      ],
      "name": "Cancelled",
      "type": "event"
    },
    {
      "anonymous": false,
      "inputs": [
        {
          "indexed": false,
          "internalType": "uint256",
          "name": "oldDuration",
          "type": "uint256"
        },
        {
          "indexed": false,
          "internalType": "uint256",
          "name": "newDuration",
          "type": "uint256"
        }
      ],
      "name": "MinDelayChange",
      "type": "event"
    },
    {
      "anonymous": false,
      "inputs": [
        {
          "indexed": true,
          "internalType": "bytes32",
          "name": "role",
          "type": "bytes32"
        },
        {
          "indexed": true,
          "internalType": "bytes32",
          "name": "previousAdminRole",
          "type": "bytes32"
        },
        {
          "indexed": true,
          "internalType": "bytes32",
          "name": "newAdminRole",
          "type": "bytes32"
        }
      ],
      "name": "RoleAdminChanged",
      "type": "event"
    },
    {
      "anonymous": false,
      "inputs": [
        {
          "indexed": true,
          "internalType": "bytes32",
          "name": "role",
          "type": "bytes32"
        },
        {
          "indexed": true,
          "internalType": "address",
          "name": "account",
          "type": "address"
        },
        {
          "indexed": true,
          "internalType": "address",
          "name": "sender",
          "type": "address"
        }
      ],
      "name": "RoleGranted",
      "type": "event"
    },
    {
      "anonymous": false,
      "inputs": [
        {
          "indexed": true,
          "internalType": "bytes32",
          "name": "role",
          "type": "bytes32"
        },
        {
          "indexed": true,
          "internalType": "address",
          "name": "account",
          "type": "address"
        },
        {
          "indexed": true,
          "internalType": "address",
          "name": "sender",
          "type": "address"
        }
      ],
      "name": "RoleRevoked",
      "type": "event"
    },
    {
      "inputs": [],
      "name": "CANCELLER_ROLE",
      "outputs": [
        {
          "internalType": "bytes32",
          "name": "",
          "type": "bytes32"
        }
      ],
      "stateMutability": "view",
      "type": "function"
    },
    {
      "inputs": [],
      "name": "DEFAULT_ADMIN_ROLE",
      "outputs": [
        {
          "internalType": "bytes32",
          "name": "",
          "type": "bytes32"
        }
      ],
      "stateMutability": "view",
      "type": "function"
    },
    {
      "inputs": [],
      "name": "EXECUTOR_ROLE",
      "outputs": [
        {
          "internalType": "bytes32",
          "name": "",
          "type": "bytes32"
        }
      ],
      "stateMutability": "view",
      "type": "function"
    },
    {
      "inputs": [],
      "name": "PROPOSER_ROLE",
      "outputs": [
        {
          "internalType": "bytes32",
          "name": "",
          "type": "bytes32"
        }
      ],
      "stateMutability": "view",
      "type": "function"
    },
    {
      "inputs": [],
      "name": "TIMELOCK_ADMIN_ROLE",
      "outputs": [
        {
          "internalType": "bytes32",
          "name": "",
          "type": "bytes32"
        }
      ],
      "stateMutability": "view",
      "type": "function"
    },
    {
      "inputs": [
        {
          "internalType": "contract HATVault",
          "name": "_vault",
          "type": "address"
        },
        {
          "internalType": "bytes32",
          "name": "_claimId",
          "type": "bytes32"
        },
        {
          "internalType": "uint256",
          "name": "_bountyPercentage",
          "type": "uint256"
        }
      ],
      "name": "approveClaim",
      "outputs": [],
      "stateMutability": "nonpayable",
      "type": "function"
    },
    {
      "inputs": [
        {
          "internalType": "bytes32",
          "name": "id",
          "type": "bytes32"
        }
      ],
      "name": "cancel",
      "outputs": [],
      "stateMutability": "nonpayable",
      "type": "function"
    },
    {
      "inputs": [
        {
          "internalType": "contract HATVault",
          "name": "_vault",
          "type": "address"
        },
        {
          "internalType": "bytes32",
          "name": "_claimId",
          "type": "bytes32"
        }
      ],
      "name": "challengeClaim",
      "outputs": [],
      "stateMutability": "nonpayable",
      "type": "function"
    },
    {
      "inputs": [
        {
          "internalType": "contract HATVault",
          "name": "_vault",
          "type": "address"
        },
        {
          "internalType": "bytes32",
          "name": "_claimId",
          "type": "bytes32"
        }
      ],
      "name": "dismissClaim",
      "outputs": [],
      "stateMutability": "nonpayable",
      "type": "function"
    },
    {
      "inputs": [
        {
          "internalType": "address",
          "name": "target",
          "type": "address"
        },
        {
          "internalType": "uint256",
          "name": "value",
          "type": "uint256"
        },
        {
          "internalType": "bytes",
          "name": "payload",
          "type": "bytes"
        },
        {
          "internalType": "bytes32",
          "name": "predecessor",
          "type": "bytes32"
        },
        {
          "internalType": "bytes32",
          "name": "salt",
          "type": "bytes32"
        }
      ],
      "name": "execute",
      "outputs": [],
      "stateMutability": "payable",
      "type": "function"
    },
    {
      "inputs": [
        {
          "internalType": "address[]",
          "name": "targets",
          "type": "address[]"
        },
        {
          "internalType": "uint256[]",
          "name": "values",
          "type": "uint256[]"
        },
        {
          "internalType": "bytes[]",
          "name": "payloads",
          "type": "bytes[]"
        },
        {
          "internalType": "bytes32",
          "name": "predecessor",
          "type": "bytes32"
        },
        {
          "internalType": "bytes32",
          "name": "salt",
          "type": "bytes32"
        }
      ],
      "name": "executeBatch",
      "outputs": [],
      "stateMutability": "payable",
      "type": "function"
    },
    {
      "inputs": [],
      "name": "getMinDelay",
      "outputs": [
        {
          "internalType": "uint256",
          "name": "duration",
          "type": "uint256"
        }
      ],
      "stateMutability": "view",
      "type": "function"
    },
    {
      "inputs": [
        {
          "internalType": "bytes32",
          "name": "role",
          "type": "bytes32"
        }
      ],
      "name": "getRoleAdmin",
      "outputs": [
        {
          "internalType": "bytes32",
          "name": "",
          "type": "bytes32"
        }
      ],
      "stateMutability": "view",
      "type": "function"
    },
    {
      "inputs": [
        {
          "internalType": "bytes32",
          "name": "id",
          "type": "bytes32"
        }
      ],
      "name": "getTimestamp",
      "outputs": [
        {
          "internalType": "uint256",
          "name": "timestamp",
          "type": "uint256"
        }
      ],
      "stateMutability": "view",
      "type": "function"
    },
    {
      "inputs": [
        {
          "internalType": "bytes32",
          "name": "role",
          "type": "bytes32"
        },
        {
          "internalType": "address",
          "name": "account",
          "type": "address"
        }
      ],
      "name": "grantRole",
      "outputs": [],
      "stateMutability": "nonpayable",
      "type": "function"
    },
    {
      "inputs": [
        {
          "internalType": "bytes32",
          "name": "role",
          "type": "bytes32"
        },
        {
          "internalType": "address",
          "name": "account",
          "type": "address"
        }
      ],
      "name": "hasRole",
      "outputs": [
        {
          "internalType": "bool",
          "name": "",
          "type": "bool"
        }
      ],
      "stateMutability": "view",
      "type": "function"
    },
    {
      "inputs": [
        {
          "internalType": "address",
          "name": "target",
          "type": "address"
        },
        {
          "internalType": "uint256",
          "name": "value",
          "type": "uint256"
        },
        {
          "internalType": "bytes",
          "name": "data",
          "type": "bytes"
        },
        {
          "internalType": "bytes32",
          "name": "predecessor",
          "type": "bytes32"
        },
        {
          "internalType": "bytes32",
          "name": "salt",
          "type": "bytes32"
        }
      ],
      "name": "hashOperation",
      "outputs": [
        {
          "internalType": "bytes32",
          "name": "hash",
          "type": "bytes32"
        }
      ],
      "stateMutability": "pure",
      "type": "function"
    },
    {
      "inputs": [
        {
          "internalType": "address[]",
          "name": "targets",
          "type": "address[]"
        },
        {
          "internalType": "uint256[]",
          "name": "values",
          "type": "uint256[]"
        },
        {
          "internalType": "bytes[]",
          "name": "payloads",
          "type": "bytes[]"
        },
        {
          "internalType": "bytes32",
          "name": "predecessor",
          "type": "bytes32"
        },
        {
          "internalType": "bytes32",
          "name": "salt",
          "type": "bytes32"
        }
      ],
      "name": "hashOperationBatch",
      "outputs": [
        {
          "internalType": "bytes32",
          "name": "hash",
          "type": "bytes32"
        }
      ],
      "stateMutability": "pure",
      "type": "function"
    },
    {
      "inputs": [
        {
          "internalType": "bytes32",
          "name": "id",
          "type": "bytes32"
        }
      ],
      "name": "isOperation",
      "outputs": [
        {
          "internalType": "bool",
          "name": "registered",
          "type": "bool"
        }
      ],
      "stateMutability": "view",
      "type": "function"
    },
    {
      "inputs": [
        {
          "internalType": "bytes32",
          "name": "id",
          "type": "bytes32"
        }
      ],
      "name": "isOperationDone",
      "outputs": [
        {
          "internalType": "bool",
          "name": "done",
          "type": "bool"
        }
      ],
      "stateMutability": "view",
      "type": "function"
    },
    {
      "inputs": [
        {
          "internalType": "bytes32",
          "name": "id",
          "type": "bytes32"
        }
      ],
      "name": "isOperationPending",
      "outputs": [
        {
          "internalType": "bool",
          "name": "pending",
          "type": "bool"
        }
      ],
      "stateMutability": "view",
      "type": "function"
    },
    {
      "inputs": [
        {
          "internalType": "bytes32",
          "name": "id",
          "type": "bytes32"
        }
      ],
      "name": "isOperationReady",
      "outputs": [
        {
          "internalType": "bool",
          "name": "ready",
          "type": "bool"
        }
      ],
      "stateMutability": "view",
      "type": "function"
    },
    {
      "inputs": [
        {
          "internalType": "address",
          "name": "",
          "type": "address"
        },
        {
          "internalType": "address",
          "name": "",
          "type": "address"
        },
        {
          "internalType": "uint256[]",
          "name": "",
          "type": "uint256[]"
        },
        {
          "internalType": "uint256[]",
          "name": "",
          "type": "uint256[]"
        },
        {
          "internalType": "bytes",
          "name": "",
          "type": "bytes"
        }
      ],
      "name": "onERC1155BatchReceived",
      "outputs": [
        {
          "internalType": "bytes4",
          "name": "",
          "type": "bytes4"
        }
      ],
      "stateMutability": "nonpayable",
      "type": "function"
    },
    {
      "inputs": [
        {
          "internalType": "address",
          "name": "",
          "type": "address"
        },
        {
          "internalType": "address",
          "name": "",
          "type": "address"
        },
        {
          "internalType": "uint256",
          "name": "",
          "type": "uint256"
        },
        {
          "internalType": "uint256",
          "name": "",
          "type": "uint256"
        },
        {
          "internalType": "bytes",
          "name": "",
          "type": "bytes"
        }
      ],
      "name": "onERC1155Received",
      "outputs": [
        {
          "internalType": "bytes4",
          "name": "",
          "type": "bytes4"
        }
      ],
      "stateMutability": "nonpayable",
      "type": "function"
    },
    {
      "inputs": [
        {
          "internalType": "address",
          "name": "",
          "type": "address"
        },
        {
          "internalType": "address",
          "name": "",
          "type": "address"
        },
        {
          "internalType": "uint256",
          "name": "",
          "type": "uint256"
        },
        {
          "internalType": "bytes",
          "name": "",
          "type": "bytes"
        }
      ],
      "name": "onERC721Received",
      "outputs": [
        {
          "internalType": "bytes4",
          "name": "",
          "type": "bytes4"
        }
      ],
      "stateMutability": "nonpayable",
      "type": "function"
    },
    {
      "inputs": [
        {
          "internalType": "bytes32",
          "name": "role",
          "type": "bytes32"
        },
        {
          "internalType": "address",
          "name": "account",
          "type": "address"
        }
      ],
      "name": "renounceRole",
      "outputs": [],
      "stateMutability": "nonpayable",
      "type": "function"
    },
    {
      "inputs": [
        {
          "internalType": "bytes32",
          "name": "role",
          "type": "bytes32"
        },
        {
          "internalType": "address",
          "name": "account",
          "type": "address"
        }
      ],
      "name": "revokeRole",
      "outputs": [],
      "stateMutability": "nonpayable",
      "type": "function"
    },
    {
      "inputs": [
        {
          "internalType": "address",
          "name": "target",
          "type": "address"
        },
        {
          "internalType": "uint256",
          "name": "value",
          "type": "uint256"
        },
        {
          "internalType": "bytes",
          "name": "data",
          "type": "bytes"
        },
        {
          "internalType": "bytes32",
          "name": "predecessor",
          "type": "bytes32"
        },
        {
          "internalType": "bytes32",
          "name": "salt",
          "type": "bytes32"
        },
        {
          "internalType": "uint256",
          "name": "delay",
          "type": "uint256"
        }
      ],
      "name": "schedule",
      "outputs": [],
      "stateMutability": "nonpayable",
      "type": "function"
    },
    {
      "inputs": [
        {
          "internalType": "address[]",
          "name": "targets",
          "type": "address[]"
        },
        {
          "internalType": "uint256[]",
          "name": "values",
          "type": "uint256[]"
        },
        {
          "internalType": "bytes[]",
          "name": "payloads",
          "type": "bytes[]"
        },
        {
          "internalType": "bytes32",
          "name": "predecessor",
          "type": "bytes32"
        },
        {
          "internalType": "bytes32",
          "name": "salt",
          "type": "bytes32"
        },
        {
          "internalType": "uint256",
          "name": "delay",
          "type": "uint256"
        }
      ],
      "name": "scheduleBatch",
      "outputs": [],
      "stateMutability": "nonpayable",
      "type": "function"
    },
    {
      "inputs": [
        {
          "internalType": "contract HATVault",
          "name": "_vault",
          "type": "address"
        },
        {
          "internalType": "uint256",
          "name": "_allocPoint",
          "type": "uint256"
        }
      ],
      "name": "setAllocPoint",
      "outputs": [],
      "stateMutability": "nonpayable",
      "type": "function"
    },
    {
      "inputs": [
        {
          "internalType": "contract HATVault",
          "name": "_vault",
          "type": "address"
        },
        {
          "internalType": "address",
          "name": "_committee",
          "type": "address"
        }
      ],
      "name": "setCommittee",
      "outputs": [],
      "stateMutability": "nonpayable",
      "type": "function"
    },
    {
      "inputs": [
        {
          "internalType": "contract HATVault",
          "name": "_vault",
          "type": "address"
        },
        {
          "internalType": "bool",
          "name": "_depositPause",
          "type": "bool"
        }
      ],
      "name": "setDepositPause",
      "outputs": [],
      "stateMutability": "nonpayable",
      "type": "function"
    },
    {
      "inputs": [
        {
          "internalType": "contract HATVaultsRegistry",
          "name": "_registry",
          "type": "address"
        },
        {
          "internalType": "bool",
          "name": "_isEmergencyPaused",
          "type": "bool"
        }
      ],
      "name": "setEmergencyPaused",
      "outputs": [],
      "stateMutability": "nonpayable",
      "type": "function"
    },
    {
      "inputs": [
        {
          "internalType": "contract HATVault",
          "name": "_vault",
          "type": "address"
        },
        {
          "internalType": "string",
          "name": "_descriptionHash",
          "type": "string"
        }
      ],
      "name": "setVaultDescription",
      "outputs": [],
      "stateMutability": "nonpayable",
      "type": "function"
    },
    {
      "inputs": [
        {
          "internalType": "contract HATVault",
          "name": "_vault",
          "type": "address"
        },
        {
          "internalType": "bool",
          "name": "_visible",
          "type": "bool"
        }
      ],
      "name": "setVaultVisibility",
      "outputs": [],
      "stateMutability": "nonpayable",
      "type": "function"
    },
    {
      "inputs": [
        {
          "internalType": "bytes4",
          "name": "interfaceId",
          "type": "bytes4"
        }
      ],
      "name": "supportsInterface",
      "outputs": [
        {
          "internalType": "bool",
          "name": "",
          "type": "bool"
        }
      ],
      "stateMutability": "view",
      "type": "function"
    },
    {
      "inputs": [
        {
          "internalType": "contract HATVaultsRegistry",
          "name": "_registry",
          "type": "address"
        },
        {
          "internalType": "address",
          "name": "_asset",
          "type": "address"
        },
        {
          "internalType": "address[]",
          "name": "_beneficiaries",
          "type": "address[]"
        },
        {
          "internalType": "uint256",
          "name": "_amountOutMinimum",
          "type": "uint256"
        },
        {
          "internalType": "address",
          "name": "_routingContract",
          "type": "address"
        },
        {
          "internalType": "bytes",
          "name": "_routingPayload",
          "type": "bytes"
        }
      ],
      "name": "swapAndSend",
      "outputs": [],
      "stateMutability": "nonpayable",
      "type": "function"
    },
    {
      "inputs": [
        {
          "internalType": "uint256",
          "name": "newDelay",
          "type": "uint256"
        }
      ],
      "name": "updateDelay",
      "outputs": [],
      "stateMutability": "nonpayable",
      "type": "function"
    },
    {
      "stateMutability": "payable",
      "type": "receive"
    }
  ],
  "bytecode": {
    "object": "0x60806040523480156200001157600080fd5b5060405162002b3638038062002b368339810160408190526200003491620003fd565b8282826200005260008051602062002ab68339815191528062000222565b6200007c60008051602062002ad683398151915260008051602062002ab683398151915262000222565b620000a660008051602062002af683398151915260008051602062002ab683398151915262000222565b620000d060008051602062002b1683398151915260008051602062002ab683398151915262000222565b620000eb60008051602062002ab6833981519152336200026d565b6200010660008051602062002ab6833981519152306200026d565b60005b82518110156200018c576200015060008051602062002ad68339815191528483815181106200013c576200013c62000471565b60200260200101516200026d60201b60201c565b6200017960008051602062002b168339815191528483815181106200013c576200013c62000471565b620001848162000487565b905062000109565b5060005b8151811015620001d657620001c360008051602062002af68339815191528383815181106200013c576200013c62000471565b620001ce8162000487565b905062000190565b5060028390556040805160008152602081018590527f11c24f4ead16507c69ac467fbd5e4eed5fb5c699626d2cc6d66421df253886d5910160405180910390a1505050505050620004af565b600082815260208190526040808220600101805490849055905190918391839186917fbd79b86ffe0ab8e8776151514217cd7cacd52c909f66475c3af44e129f0b00ff9190a4505050565b6200027982826200027d565b5050565b6000828152602081815260408083206001600160a01b038516845290915290205460ff1662000279576000828152602081815260408083206001600160a01b03851684529091529020805460ff19166001179055620002d93390565b6001600160a01b0316816001600160a01b0316837f2f8788117e7eff1d82e926ec794901d17c78024a50270940304540a733656f0d60405160405180910390a45050565b634e487b7160e01b600052604160045260246000fd5b80516001600160a01b03811681146200034b57600080fd5b919050565b600082601f8301126200036257600080fd5b815160206001600160401b03808311156200038157620003816200031d565b8260051b604051601f19603f83011681018181108482111715620003a957620003a96200031d565b604052938452858101830193838101925087851115620003c857600080fd5b83870191505b84821015620003f257620003e28262000333565b83529183019190830190620003ce565b979650505050505050565b6000806000606084860312156200041357600080fd5b835160208501519093506001600160401b03808211156200043357600080fd5b620004418783880162000350565b935060408601519150808211156200045857600080fd5b50620004678682870162000350565b9150509250925092565b634e487b7160e01b600052603260045260246000fd5b600060018201620004a857634e487b7160e01b600052601160045260246000fd5b5060010190565b6125f780620004bf6000396000f3fe6080604052600436106102295760003560e01c80638f2a0bb011610123578063bc197c81116100ab578063d547741f1161006f578063d547741f146106fe578063e38335e51461071e578063f23a6e6114610731578063f27a0c921461075d578063f2e615e41461077257600080fd5b8063bc197c8114610645578063c4d252f514610671578063ca80015114610691578063cdb76136146106b1578063d45c4435146106d157600080fd5b80639fabcdae116100f25780639fabcdae1461059c578063a217fddf146105bc578063aec1d108146105d1578063b08e51c0146105f1578063b1c5f4271461062557600080fd5b80638f2a0bb01461051a5780638f61f4f51461053a57806391d148541461055c57806397c511a31461057c57600080fd5b8063248a9ca3116101b157806331d507501161017557806331d507501461047a57806336568abe1461049a578063584b153e146104ba57806364d62353146104da5780638065657f146104fa57600080fd5b8063248a9ca3146103b9578063252ca2b5146103e95780632ab0f529146104095780632f102d4b1461043a5780632f2ff15d1461045a57600080fd5b80630d3cf6fc116101f85780630d3cf6fc146102ee578063134008d31461032257806313bc9f2014610335578063150b7a02146103555780631ff550dd1461039957600080fd5b806301d5062a1461023557806301ffc9a71461025757806302b1720c1461028c57806307bd0265146102ac57600080fd5b3661023057005b600080fd5b34801561024157600080fd5b50610255610250366004611961565b610792565b005b34801561026357600080fd5b506102776102723660046119d7565b610815565b60405190151581526020015b60405180910390f35b34801561029857600080fd5b506102556102a7366004611a01565b610840565b3480156102b857600080fd5b506102e07fd8aa0f3194971a2a116679f7c2090f6939c8d4e01a2a8d7e41d55e5351469e6381565b604051908152602001610283565b3480156102fa57600080fd5b506102e07f5f58e3a2316349923ce3780f8d587db2d72378aed66a8261c916544fa6846ca581565b610255610330366004611a2d565b610923565b34801561034157600080fd5b50610277610350366004611a9a565b6109d8565b34801561036157600080fd5b50610380610370366004611b70565b630a85bd0160e11b949350505050565b6040516001600160e01b03199091168152602001610283565b3480156103a557600080fd5b506102556103b4366004611bf0565b6109fe565b3480156103c557600080fd5b506102e06103d4366004611a9a565b60009081526020819052604090206001015490565b3480156103f557600080fd5b50610255610404366004611bf0565b610a44565b34801561041557600080fd5b50610277610424366004611a9a565b6000908152600160208190526040909120541490565b34801561044657600080fd5b50610255610455366004611a01565b610a8a565b34801561046657600080fd5b50610255610475366004611c25565b610acf565b34801561048657600080fd5b50610277610495366004611a9a565b610af9565b3480156104a657600080fd5b506102556104b5366004611c25565b610b12565b3480156104c657600080fd5b506102776104d5366004611a9a565b610b95565b3480156104e657600080fd5b506102556104f5366004611a9a565b610bab565b34801561050657600080fd5b506102e0610515366004611a2d565b610c4f565b34801561052657600080fd5b50610255610535366004611c99565b610c8e565b34801561054657600080fd5b506102e06000805160206125a283398151915281565b34801561056857600080fd5b50610277610577366004611c25565b610dce565b34801561058857600080fd5b50610255610597366004611d4a565b610df7565b3480156105a857600080fd5b506102556105b7366004611a01565b610e6c565b3480156105c857600080fd5b506102e0600081565b3480156105dd57600080fd5b506102556105ec366004611bf0565b610eb1565b3480156105fd57600080fd5b506102e07ffd643c72710c63c0180259aba6b2d05451e3591a24e58b62239378085726f78381565b34801561063157600080fd5b506102e0610640366004611d7f565b610f63565b34801561065157600080fd5b50610380610660366004611ea6565b63bc197c8160e01b95945050505050565b34801561067d57600080fd5b5061025561068c366004611a9a565b610fa8565b34801561069d57600080fd5b506102556106ac366004611f53565b61107d565b3480156106bd57600080fd5b506102556106cc366004611f81565b6110c3565b3480156106dd57600080fd5b506102e06106ec366004611a9a565b60009081526001602052604090205490565b34801561070a57600080fd5b50610255610719366004611c25565b611107565b61025561072c366004611d7f565b61112c565b34801561073d57600080fd5b5061038061074c366004611fe4565b63f23a6e6160e01b95945050505050565b34801561076957600080fd5b506002546102e0565b34801561077e57600080fd5b5061025561078d36600461204c565b6112b6565b6000805160206125a28339815191526107aa81611343565b60006107ba898989898989610c4f565b90506107c68184611350565b6000817f4cf4410cc57040e44862ef0f45f3dd5a5e02db8eb8add648d4b0e236f1d07dca8b8b8b8b8b8a60405161080296959493929190612127565b60405180910390a3505050505050505050565b60006001600160e01b03198216630271189760e51b148061083a575061083a8261143f565b92915050565b6000805160206125a283398151915261085881611343565b826001600160a01b0316638cc5ce996040518163ffffffff1660e01b8152600401602060405180830381865afa158015610896573d6000803e3d6000fd5b505050506040513d601f19601f820116820180604052508101906108ba9190612164565b60405162ac5c8360e21b81526001600160a01b0385811660048301526024820185905291909116906302b1720c906044015b600060405180830381600087803b15801561090657600080fd5b505af115801561091a573d6000803e3d6000fd5b50505050505050565b7fd8aa0f3194971a2a116679f7c2090f6939c8d4e01a2a8d7e41d55e5351469e6361094f816000610dce565b61095d5761095d8133611474565b600061096d888888888888610c4f565b905061097981856114d8565b61098588888888611574565b6000817fc2617efa69bab66782fa219543714338489c4e9e178271560a91b82c3f612b588a8a8a8a6040516109bd9493929190612181565b60405180910390a36109ce81611647565b5050505050505050565b6000818152600160205260408120546001811180156109f75750428111155b9392505050565b6000805160206125a2833981519152610a1681611343565b604051639d0ab89f60e01b815282151560048201526001600160a01b03841690639d0ab89f906024016108ec565b6000805160206125a2833981519152610a5c81611343565b6040516386d192e560e01b815282151560048201526001600160a01b038416906386d192e5906024016108ec565b6000805160206125a2833981519152610aa281611343565b6040516304165db160e01b8152600481018390526001600160a01b038416906304165db1906024016108ec565b600082815260208190526040902060010154610aea81611343565b610af48383611680565b505050565b60008181526001602052604081205481905b1192915050565b6001600160a01b0381163314610b875760405162461bcd60e51b815260206004820152602f60248201527f416363657373436f6e74726f6c3a2063616e206f6e6c792072656e6f756e636560448201526e103937b632b9903337b91039b2b63360891b60648201526084015b60405180910390fd5b610b918282611704565b5050565b6000818152600160208190526040822054610b0b565b333014610c0e5760405162461bcd60e51b815260206004820152602b60248201527f54696d656c6f636b436f6e74726f6c6c65723a2063616c6c6572206d7573742060448201526a62652074696d656c6f636b60a81b6064820152608401610b7e565b60025460408051918252602082018390527f11c24f4ead16507c69ac467fbd5e4eed5fb5c699626d2cc6d66421df253886d5910160405180910390a1600255565b6000868686868686604051602001610c6c96959493929190612127565b6040516020818303038152906040528051906020012090509695505050505050565b6000805160206125a2833981519152610ca681611343565b888714610cc55760405162461bcd60e51b8152600401610b7e906121b3565b888514610ce45760405162461bcd60e51b8152600401610b7e906121b3565b6000610cf68b8b8b8b8b8b8b8b610f63565b9050610d028184611350565b60005b8a811015610dc05780827f4cf4410cc57040e44862ef0f45f3dd5a5e02db8eb8add648d4b0e236f1d07dca8e8e85818110610d4257610d426121f6565b9050602002016020810190610d57919061220c565b8d8d86818110610d6957610d696121f6565b905060200201358c8c87818110610d8257610d826121f6565b9050602002810190610d949190612229565b8c8b604051610da896959493929190612127565b60405180910390a3610db981612285565b9050610d05565b505050505050505050505050565b6000918252602082815260408084206001600160a01b0393909316845291905290205460ff1690565b6000805160206125a2833981519152610e0f81611343565b6040516304cd59a760e51b815260048101849052602481018390526001600160a01b038516906399ab34e090604401600060405180830381600087803b158015610e5857600080fd5b505af11580156109ce573d6000803e3d6000fd5b6000805160206125a2833981519152610e8481611343565b60405163d52d5ee760e01b8152600481018390526001600160a01b0384169063d52d5ee7906024016108ec565b6000805160206125a2833981519152610ec981611343565b826001600160a01b0316637b1039996040518163ffffffff1660e01b8152600401602060405180830381865afa158015610f07573d6000803e3d6000fd5b505050506040513d601f19601f82011682018060405250810190610f2b9190612164565b6040516315d83a2160e31b81526001600160a01b0385811660048301528415156024830152919091169063aec1d108906044016108ec565b60008888888888888888604051602001610f849897969594939291906122e7565b60405160208183030381529060405280519060200120905098975050505050505050565b7ffd643c72710c63c0180259aba6b2d05451e3591a24e58b62239378085726f783610fd281611343565b610fdb82610b95565b6110415760405162461bcd60e51b815260206004820152603160248201527f54696d656c6f636b436f6e74726f6c6c65723a206f7065726174696f6e2063616044820152701b9b9bdd0818994818d85b98d95b1b1959607a1b6064820152608401610b7e565b6000828152600160205260408082208290555183917fbaa1eb22f2a492ba1a5fea61b8df4d27c6c8b5f3971e63bb58fa14ff72eedb7091a25050565b6000805160206125a283398151915261109581611343565b604051635eed720760e11b81526001600160a01b03838116600483015284169063bddae40e906024016108ec565b6000805160206125a28339815191526110db81611343565b604051632905f80360e21b81526001600160a01b0384169063a417e00c906108ec908590600401612403565b60008281526020819052604090206001015461112281611343565b610af48383611704565b7fd8aa0f3194971a2a116679f7c2090f6939c8d4e01a2a8d7e41d55e5351469e63611158816000610dce565b611166576111668133611474565b8786146111855760405162461bcd60e51b8152600401610b7e906121b3565b8784146111a45760405162461bcd60e51b8152600401610b7e906121b3565b60006111b68a8a8a8a8a8a8a8a610f63565b90506111c281856114d8565b60005b898110156112a05760008b8b838181106111e1576111e16121f6565b90506020020160208101906111f6919061220c565b905060008a8a8481811061120c5761120c6121f6565b9050602002013590503660008a8a8681811061122a5761122a6121f6565b905060200281019061123c9190612229565b9150915061124c84848484611574565b84867fc2617efa69bab66782fa219543714338489c4e9e178271560a91b82c3f612b58868686866040516112839493929190612181565b60405180910390a3505050508061129990612285565b90506111c5565b506112aa81611647565b50505050505050505050565b6000805160206125a28339815191526112ce81611343565b60405163e2b001bf60e01b81526001600160a01b038a169063e2b001bf90611306908b908b908b908b908b908b908b90600401612436565b600060405180830381600087803b15801561132057600080fd5b505af1158015611334573d6000803e3d6000fd5b50505050505050505050505050565b61134d8133611474565b50565b61135982610af9565b156113be5760405162461bcd60e51b815260206004820152602f60248201527f54696d656c6f636b436f6e74726f6c6c65723a206f7065726174696f6e20616c60448201526e1c9958591e481cd8da19591d5b1959608a1b6064820152608401610b7e565b60025481101561141f5760405162461bcd60e51b815260206004820152602660248201527f54696d656c6f636b436f6e74726f6c6c65723a20696e73756666696369656e746044820152652064656c617960d01b6064820152608401610b7e565b6114298142612489565b6000928352600160205260409092209190915550565b60006001600160e01b03198216637965db0b60e01b148061083a57506301ffc9a760e01b6001600160e01b031983161461083a565b61147e8282610dce565b610b9157611496816001600160a01b03166014611769565b6114a1836020611769565b6040516020016114b292919061249c565b60408051601f198184030181529082905262461bcd60e51b8252610b7e91600401612403565b6114e1826109d8565b6114fd5760405162461bcd60e51b8152600401610b7e90612511565b8015806115195750600081815260016020819052604090912054145b610b915760405162461bcd60e51b815260206004820152602660248201527f54696d656c6f636b436f6e74726f6c6c65723a206d697373696e6720646570656044820152656e64656e637960d01b6064820152608401610b7e565b6000846001600160a01b031684848460405161159192919061255b565b60006040518083038185875af1925050503d80600081146115ce576040519150601f19603f3d011682016040523d82523d6000602084013e6115d3565b606091505b50509050806116405760405162461bcd60e51b815260206004820152603360248201527f54696d656c6f636b436f6e74726f6c6c65723a20756e6465726c79696e6720746044820152721c985b9cd858dd1a5bdb881c995d995c9d1959606a1b6064820152608401610b7e565b5050505050565b611650816109d8565b61166c5760405162461bcd60e51b8152600401610b7e90612511565b600090815260016020819052604090912055565b61168a8282610dce565b610b91576000828152602081815260408083206001600160a01b03851684529091529020805460ff191660011790556116c03390565b6001600160a01b0316816001600160a01b0316837f2f8788117e7eff1d82e926ec794901d17c78024a50270940304540a733656f0d60405160405180910390a45050565b61170e8282610dce565b15610b91576000828152602081815260408083206001600160a01b0385168085529252808320805460ff1916905551339285917ff6391f5c32d9c69d2a47ea670b442974b53935d1edc7fd64eb21e047a839171b9190a45050565b6060600061177883600261256b565b611783906002612489565b6001600160401b0381111561179a5761179a611ab3565b6040519080825280601f01601f1916602001820160405280156117c4576020820181803683370190505b509050600360fc1b816000815181106117df576117df6121f6565b60200101906001600160f81b031916908160001a905350600f60fb1b8160018151811061180e5761180e6121f6565b60200101906001600160f81b031916908160001a905350600061183284600261256b565b61183d906001612489565b90505b60018111156118b5576f181899199a1a9b1b9c1cb0b131b232b360811b85600f1660108110611871576118716121f6565b1a60f81b828281518110611887576118876121f6565b60200101906001600160f81b031916908160001a90535060049490941c936118ae8161258a565b9050611840565b5083156109f75760405162461bcd60e51b815260206004820181905260248201527f537472696e67733a20686578206c656e67746820696e73756666696369656e746044820152606401610b7e565b6001600160a01b038116811461134d57600080fd5b60008083601f84011261192b57600080fd5b5081356001600160401b0381111561194257600080fd5b60208301915083602082850101111561195a57600080fd5b9250929050565b600080600080600080600060c0888a03121561197c57600080fd5b873561198781611904565b96506020880135955060408801356001600160401b038111156119a957600080fd5b6119b58a828b01611919565b989b979a50986060810135976080820135975060a09091013595509350505050565b6000602082840312156119e957600080fd5b81356001600160e01b0319811681146109f757600080fd5b60008060408385031215611a1457600080fd5b8235611a1f81611904565b946020939093013593505050565b60008060008060008060a08789031215611a4657600080fd5b8635611a5181611904565b95506020870135945060408701356001600160401b03811115611a7357600080fd5b611a7f89828a01611919565b979a9699509760608101359660809091013595509350505050565b600060208284031215611aac57600080fd5b5035919050565b634e487b7160e01b600052604160045260246000fd5b604051601f8201601f191681016001600160401b0381118282101715611af157611af1611ab3565b604052919050565b60006001600160401b03831115611b1257611b12611ab3565b611b25601f8401601f1916602001611ac9565b9050828152838383011115611b3957600080fd5b828260208301376000602084830101529392505050565b600082601f830112611b6157600080fd5b6109f783833560208501611af9565b60008060008060808587031215611b8657600080fd5b8435611b9181611904565b93506020850135611ba181611904565b92506040850135915060608501356001600160401b03811115611bc357600080fd5b611bcf87828801611b50565b91505092959194509250565b80358015158114611beb57600080fd5b919050565b60008060408385031215611c0357600080fd5b8235611c0e81611904565b9150611c1c60208401611bdb565b90509250929050565b60008060408385031215611c3857600080fd5b823591506020830135611c4a81611904565b809150509250929050565b60008083601f840112611c6757600080fd5b5081356001600160401b03811115611c7e57600080fd5b6020830191508360208260051b850101111561195a57600080fd5b600080600080600080600080600060c08a8c031215611cb757600080fd5b89356001600160401b0380821115611cce57600080fd5b611cda8d838e01611c55565b909b50995060208c0135915080821115611cf357600080fd5b611cff8d838e01611c55565b909950975060408c0135915080821115611d1857600080fd5b50611d258c828d01611c55565b9a9d999c50979a969997986060880135976080810135975060a0013595509350505050565b600080600060608486031215611d5f57600080fd5b8335611d6a81611904565b95602085013595506040909401359392505050565b60008060008060008060008060a0898b031215611d9b57600080fd5b88356001600160401b0380821115611db257600080fd5b611dbe8c838d01611c55565b909a50985060208b0135915080821115611dd757600080fd5b611de38c838d01611c55565b909850965060408b0135915080821115611dfc57600080fd5b50611e098b828c01611c55565b999c989b509699959896976060870135966080013595509350505050565b600082601f830112611e3857600080fd5b813560206001600160401b03821115611e5357611e53611ab3565b8160051b611e62828201611ac9565b9283528481018201928281019087851115611e7c57600080fd5b83870192505b84831015611e9b57823582529183019190830190611e82565b979650505050505050565b600080600080600060a08688031215611ebe57600080fd5b8535611ec981611904565b94506020860135611ed981611904565b935060408601356001600160401b0380821115611ef557600080fd5b611f0189838a01611e27565b94506060880135915080821115611f1757600080fd5b611f2389838a01611e27565b93506080880135915080821115611f3957600080fd5b50611f4688828901611b50565b9150509295509295909350565b60008060408385031215611f6657600080fd5b8235611f7181611904565b91506020830135611c4a81611904565b60008060408385031215611f9457600080fd5b8235611f9f81611904565b915060208301356001600160401b03811115611fba57600080fd5b8301601f81018513611fcb57600080fd5b611fda85823560208401611af9565b9150509250929050565b600080600080600060a08688031215611ffc57600080fd5b853561200781611904565b9450602086013561201781611904565b9350604086013592506060860135915060808601356001600160401b0381111561204057600080fd5b611f4688828901611b50565b60008060008060008060008060c0898b03121561206857600080fd5b883561207381611904565b9750602089013561208381611904565b965060408901356001600160401b038082111561209f57600080fd5b6120ab8c838d01611c55565b909850965060608b0135955060808b013591506120c782611904565b90935060a08a013590808211156120dd57600080fd5b506120ea8b828c01611919565b999c989b5096995094979396929594505050565b81835281816020850137506000828201602090810191909152601f909101601f19169091010190565b60018060a01b038716815285602082015260a06040820152600061214f60a0830186886120fe565b60608301949094525060800152949350505050565b60006020828403121561217657600080fd5b81516109f781611904565b60018060a01b03851681528360208201526060604082015260006121a96060830184866120fe565b9695505050505050565b60208082526023908201527f54696d656c6f636b436f6e74726f6c6c65723a206c656e677468206d69736d616040820152620e8c6d60eb1b606082015260800190565b634e487b7160e01b600052603260045260246000fd5b60006020828403121561221e57600080fd5b81356109f781611904565b6000808335601e1984360301811261224057600080fd5b8301803591506001600160401b0382111561225a57600080fd5b60200191503681900382131561195a57600080fd5b634e487b7160e01b600052601160045260246000fd5b6000600182016122975761229761226f565b5060010190565b8183526000602080850194508260005b858110156122dc5781356122c181611904565b6001600160a01b0316875295820195908201906001016122ae565b509495945050505050565b60a0815260006122fb60a083018a8c61229e565b8281036020848101919091528882526001600160fb1b0389111561231e57600080fd5b8860051b808b83850137808301925050808201818584030160408601528088825260408401905060408960051b85010191508960005b8a8110156123c357858403603f190183528135368d9003601e1901811261237a57600080fd5b8c0185810190356001600160401b0381111561239557600080fd5b8036038213156123a457600080fd5b6123af8682846120fe565b955050509184019190840190600101612354565b5050506060850196909652505050608001529695505050505050565b60005b838110156123fa5781810151838201526020016123e2565b50506000910152565b60208152600082518060208401526124228160408501602087016123df565b601f01601f19169190910160400192915050565b600060018060a01b03808a16835260a0602084015261245960a08401898b61229e565b8760408501528187166060850152838103608085015261247a8186886120fe565b9b9a5050505050505050505050565b8082018082111561083a5761083a61226f565b7f416363657373436f6e74726f6c3a206163636f756e74200000000000000000008152600083516124d48160178501602088016123df565b7001034b99036b4b9b9b4b733903937b6329607d1b60179184019182015283516125058160288401602088016123df565b01602801949350505050565b6020808252602a908201527f54696d656c6f636b436f6e74726f6c6c65723a206f7065726174696f6e206973604082015269206e6f7420726561647960b01b606082015260800190565b8183823760009101908152919050565b60008160001904831182151516156125855761258561226f565b500290565b6000816125995761259961226f565b50600019019056feb09aa5aeb3702cfd50b6b62bc4532604938f21248a27a1d5ca736082b6819cc1a264697066735822122052fe87d7549ac58e566c16d09dde1adaff4824286029d42197f7e4ae9e41be8064736f6c634300081000335f58e3a2316349923ce3780f8d587db2d72378aed66a8261c916544fa6846ca5b09aa5aeb3702cfd50b6b62bc4532604938f21248a27a1d5ca736082b6819cc1d8aa0f3194971a2a116679f7c2090f6939c8d4e01a2a8d7e41d55e5351469e63fd643c72710c63c0180259aba6b2d05451e3591a24e58b62239378085726f783",
    "linkReferences": {}
  },
  "methodIdentifiers": {
    "CANCELLER_ROLE()": "b08e51c0",
    "DEFAULT_ADMIN_ROLE()": "a217fddf",
    "EXECUTOR_ROLE()": "07bd0265",
    "PROPOSER_ROLE()": "8f61f4f5",
    "TIMELOCK_ADMIN_ROLE()": "0d3cf6fc",
    "approveClaim(address,bytes32,uint256)": "97c511a3",
    "cancel(bytes32)": "c4d252f5",
    "challengeClaim(address,bytes32)": "2f102d4b",
    "dismissClaim(address,bytes32)": "9fabcdae",
    "execute(address,uint256,bytes,bytes32,bytes32)": "134008d3",
    "executeBatch(address[],uint256[],bytes[],bytes32,bytes32)": "e38335e5",
    "getMinDelay()": "f27a0c92",
    "getRoleAdmin(bytes32)": "248a9ca3",
    "getTimestamp(bytes32)": "d45c4435",
    "grantRole(bytes32,address)": "2f2ff15d",
    "hasRole(bytes32,address)": "91d14854",
    "hashOperation(address,uint256,bytes,bytes32,bytes32)": "8065657f",
    "hashOperationBatch(address[],uint256[],bytes[],bytes32,bytes32)": "b1c5f427",
    "isOperation(bytes32)": "31d50750",
    "isOperationDone(bytes32)": "2ab0f529",
    "isOperationPending(bytes32)": "584b153e",
    "isOperationReady(bytes32)": "13bc9f20",
    "onERC1155BatchReceived(address,address,uint256[],uint256[],bytes)": "bc197c81",
    "onERC1155Received(address,address,uint256,uint256,bytes)": "f23a6e61",
    "onERC721Received(address,address,uint256,bytes)": "150b7a02",
    "renounceRole(bytes32,address)": "36568abe",
    "revokeRole(bytes32,address)": "d547741f",
    "schedule(address,uint256,bytes,bytes32,bytes32,uint256)": "01d5062a",
    "scheduleBatch(address[],uint256[],bytes[],bytes32,bytes32,uint256)": "8f2a0bb0",
    "setAllocPoint(address,uint256)": "02b1720c",
    "setCommittee(address,address)": "ca800151",
    "setDepositPause(address,bool)": "252ca2b5",
    "setEmergencyPaused(address,bool)": "1ff550dd",
    "setVaultDescription(address,string)": "cdb76136",
    "setVaultVisibility(address,bool)": "aec1d108",
    "supportsInterface(bytes4)": "01ffc9a7",
    "swapAndSend(address,address,address[],uint256,address,bytes)": "f2e615e4",
    "updateDelay(uint256)": "64d62353"
  },
  "id": 0
}