{
  "abi": [
    {
      "inputs": [
        {
          "internalType": "uint256",
          "name": "_minDelay",
          "type": "uint256"
        },
        {
          "internalType": "address[]",
          "name": "_proposers",
          "type": "address[]"
        },
        {
          "internalType": "address[]",
          "name": "_executors",
          "type": "address[]"
        }
      ],
      "stateMutability": "nonpayable",
      "type": "constructor"
    },
    {
      "anonymous": false,
      "inputs": [
        {
          "indexed": true,
          "internalType": "bytes32",
          "name": "id",
          "type": "bytes32"
        },
        {
          "indexed": true,
          "internalType": "uint256",
          "name": "index",
          "type": "uint256"
        },
        {
          "indexed": false,
          "internalType": "address",
          "name": "target",
          "type": "address"
        },
        {
          "indexed": false,
          "internalType": "uint256",
          "name": "value",
          "type": "uint256"
        },
        {
          "indexed": false,
          "internalType": "bytes",
          "name": "data",
          "type": "bytes"
        }
      ],
      "name": "CallExecuted",
      "type": "event"
    },
    {
      "anonymous": false,
      "inputs": [
        {
          "indexed": true,
          "internalType": "bytes32",
          "name": "id",
          "type": "bytes32"
        },
        {
          "indexed": true,
          "internalType": "uint256",
          "name": "index",
          "type": "uint256"
        },
        {
          "indexed": false,
          "internalType": "address",
          "name": "target",
          "type": "address"
        },
        {
          "indexed": false,
          "internalType": "uint256",
          "name": "value",
          "type": "uint256"
        },
        {
          "indexed": false,
          "internalType": "bytes",
          "name": "data",
          "type": "bytes"
        },
        {
          "indexed": false,
          "internalType": "bytes32",
          "name": "predecessor",
          "type": "bytes32"
        },
        {
          "indexed": false,
          "internalType": "uint256",
          "name": "delay",
          "type": "uint256"
        }
      ],
      "name": "CallScheduled",
      "type": "event"
    },
    {
      "anonymous": false,
      "inputs": [
        {
          "indexed": true,
          "internalType": "bytes32",
          "name": "id",
          "type": "bytes32"
        }
      ],
      "name": "Cancelled",
      "type": "event"
    },
    {
      "anonymous": false,
      "inputs": [
        {
          "indexed": false,
          "internalType": "uint256",
          "name": "oldDuration",
          "type": "uint256"
        },
        {
          "indexed": false,
          "internalType": "uint256",
          "name": "newDuration",
          "type": "uint256"
        }
      ],
      "name": "MinDelayChange",
      "type": "event"
    },
    {
      "anonymous": false,
      "inputs": [
        {
          "indexed": true,
          "internalType": "bytes32",
          "name": "role",
          "type": "bytes32"
        },
        {
          "indexed": true,
          "internalType": "bytes32",
          "name": "previousAdminRole",
          "type": "bytes32"
        },
        {
          "indexed": true,
          "internalType": "bytes32",
          "name": "newAdminRole",
          "type": "bytes32"
        }
      ],
      "name": "RoleAdminChanged",
      "type": "event"
    },
    {
      "anonymous": false,
      "inputs": [
        {
          "indexed": true,
          "internalType": "bytes32",
          "name": "role",
          "type": "bytes32"
        },
        {
          "indexed": true,
          "internalType": "address",
          "name": "account",
          "type": "address"
        },
        {
          "indexed": true,
          "internalType": "address",
          "name": "sender",
          "type": "address"
        }
      ],
      "name": "RoleGranted",
      "type": "event"
    },
    {
      "anonymous": false,
      "inputs": [
        {
          "indexed": true,
          "internalType": "bytes32",
          "name": "role",
          "type": "bytes32"
        },
        {
          "indexed": true,
          "internalType": "address",
          "name": "account",
          "type": "address"
        },
        {
          "indexed": true,
          "internalType": "address",
          "name": "sender",
          "type": "address"
        }
      ],
      "name": "RoleRevoked",
      "type": "event"
    },
    {
      "inputs": [],
      "name": "CANCELLER_ROLE",
      "outputs": [
        {
          "internalType": "bytes32",
          "name": "",
          "type": "bytes32"
        }
      ],
      "stateMutability": "view",
      "type": "function"
    },
    {
      "inputs": [],
      "name": "DEFAULT_ADMIN_ROLE",
      "outputs": [
        {
          "internalType": "bytes32",
          "name": "",
          "type": "bytes32"
        }
      ],
      "stateMutability": "view",
      "type": "function"
    },
    {
      "inputs": [],
      "name": "EXECUTOR_ROLE",
      "outputs": [
        {
          "internalType": "bytes32",
          "name": "",
          "type": "bytes32"
        }
      ],
      "stateMutability": "view",
      "type": "function"
    },
    {
      "inputs": [],
      "name": "PROPOSER_ROLE",
      "outputs": [
        {
          "internalType": "bytes32",
          "name": "",
          "type": "bytes32"
        }
      ],
      "stateMutability": "view",
      "type": "function"
    },
    {
      "inputs": [],
      "name": "TIMELOCK_ADMIN_ROLE",
      "outputs": [
        {
          "internalType": "bytes32",
          "name": "",
          "type": "bytes32"
        }
      ],
      "stateMutability": "view",
      "type": "function"
    },
    {
      "inputs": [
        {
          "internalType": "contract HATVault",
          "name": "_vault",
          "type": "address"
        },
        {
          "internalType": "bytes32",
          "name": "_claimId",
          "type": "bytes32"
        },
        {
          "internalType": "uint256",
          "name": "_bountyPercentage",
          "type": "uint256"
        }
      ],
      "name": "approveClaim",
      "outputs": [],
      "stateMutability": "payable",
      "type": "function"
    },
    {
      "inputs": [
        {
          "internalType": "bytes32",
          "name": "id",
          "type": "bytes32"
        }
      ],
      "name": "cancel",
      "outputs": [],
      "stateMutability": "nonpayable",
      "type": "function"
    },
    {
      "inputs": [
        {
          "internalType": "contract HATVault",
          "name": "_vault",
          "type": "address"
        },
        {
          "internalType": "bytes32",
          "name": "_claimId",
          "type": "bytes32"
        }
      ],
      "name": "challengeClaim",
      "outputs": [],
      "stateMutability": "payable",
      "type": "function"
    },
    {
      "inputs": [
        {
          "internalType": "contract HATVault",
          "name": "_vault",
          "type": "address"
        },
        {
          "internalType": "bytes32",
          "name": "_claimId",
          "type": "bytes32"
        }
      ],
      "name": "dismissClaim",
      "outputs": [],
      "stateMutability": "payable",
      "type": "function"
    },
    {
      "inputs": [
        {
          "internalType": "address",
          "name": "target",
          "type": "address"
        },
        {
          "internalType": "uint256",
          "name": "value",
          "type": "uint256"
        },
        {
          "internalType": "bytes",
          "name": "payload",
          "type": "bytes"
        },
        {
          "internalType": "bytes32",
          "name": "predecessor",
          "type": "bytes32"
        },
        {
          "internalType": "bytes32",
          "name": "salt",
          "type": "bytes32"
        }
      ],
      "name": "execute",
      "outputs": [],
      "stateMutability": "payable",
      "type": "function"
    },
    {
      "inputs": [
        {
          "internalType": "address[]",
          "name": "targets",
          "type": "address[]"
        },
        {
          "internalType": "uint256[]",
          "name": "values",
          "type": "uint256[]"
        },
        {
          "internalType": "bytes[]",
          "name": "payloads",
          "type": "bytes[]"
        },
        {
          "internalType": "bytes32",
          "name": "predecessor",
          "type": "bytes32"
        },
        {
          "internalType": "bytes32",
          "name": "salt",
          "type": "bytes32"
        }
      ],
      "name": "executeBatch",
      "outputs": [],
      "stateMutability": "payable",
      "type": "function"
    },
    {
      "inputs": [],
      "name": "getMinDelay",
      "outputs": [
        {
          "internalType": "uint256",
          "name": "duration",
          "type": "uint256"
        }
      ],
      "stateMutability": "view",
      "type": "function"
    },
    {
      "inputs": [
        {
          "internalType": "bytes32",
          "name": "role",
          "type": "bytes32"
        }
      ],
      "name": "getRoleAdmin",
      "outputs": [
        {
          "internalType": "bytes32",
          "name": "",
          "type": "bytes32"
        }
      ],
      "stateMutability": "view",
      "type": "function"
    },
    {
      "inputs": [
        {
          "internalType": "bytes32",
          "name": "id",
          "type": "bytes32"
        }
      ],
      "name": "getTimestamp",
      "outputs": [
        {
          "internalType": "uint256",
          "name": "timestamp",
          "type": "uint256"
        }
      ],
      "stateMutability": "view",
      "type": "function"
    },
    {
      "inputs": [
        {
          "internalType": "bytes32",
          "name": "role",
          "type": "bytes32"
        },
        {
          "internalType": "address",
          "name": "account",
          "type": "address"
        }
      ],
      "name": "grantRole",
      "outputs": [],
      "stateMutability": "nonpayable",
      "type": "function"
    },
    {
      "inputs": [
        {
          "internalType": "bytes32",
          "name": "role",
          "type": "bytes32"
        },
        {
          "internalType": "address",
          "name": "account",
          "type": "address"
        }
      ],
      "name": "hasRole",
      "outputs": [
        {
          "internalType": "bool",
          "name": "",
          "type": "bool"
        }
      ],
      "stateMutability": "view",
      "type": "function"
    },
    {
      "inputs": [
        {
          "internalType": "address",
          "name": "target",
          "type": "address"
        },
        {
          "internalType": "uint256",
          "name": "value",
          "type": "uint256"
        },
        {
          "internalType": "bytes",
          "name": "data",
          "type": "bytes"
        },
        {
          "internalType": "bytes32",
          "name": "predecessor",
          "type": "bytes32"
        },
        {
          "internalType": "bytes32",
          "name": "salt",
          "type": "bytes32"
        }
      ],
      "name": "hashOperation",
      "outputs": [
        {
          "internalType": "bytes32",
          "name": "hash",
          "type": "bytes32"
        }
      ],
      "stateMutability": "pure",
      "type": "function"
    },
    {
      "inputs": [
        {
          "internalType": "address[]",
          "name": "targets",
          "type": "address[]"
        },
        {
          "internalType": "uint256[]",
          "name": "values",
          "type": "uint256[]"
        },
        {
          "internalType": "bytes[]",
          "name": "payloads",
          "type": "bytes[]"
        },
        {
          "internalType": "bytes32",
          "name": "predecessor",
          "type": "bytes32"
        },
        {
          "internalType": "bytes32",
          "name": "salt",
          "type": "bytes32"
        }
      ],
      "name": "hashOperationBatch",
      "outputs": [
        {
          "internalType": "bytes32",
          "name": "hash",
          "type": "bytes32"
        }
      ],
      "stateMutability": "pure",
      "type": "function"
    },
    {
      "inputs": [
        {
          "internalType": "bytes32",
          "name": "id",
          "type": "bytes32"
        }
      ],
      "name": "isOperation",
      "outputs": [
        {
          "internalType": "bool",
          "name": "registered",
          "type": "bool"
        }
      ],
      "stateMutability": "view",
      "type": "function"
    },
    {
      "inputs": [
        {
          "internalType": "bytes32",
          "name": "id",
          "type": "bytes32"
        }
      ],
      "name": "isOperationDone",
      "outputs": [
        {
          "internalType": "bool",
          "name": "done",
          "type": "bool"
        }
      ],
      "stateMutability": "view",
      "type": "function"
    },
    {
      "inputs": [
        {
          "internalType": "bytes32",
          "name": "id",
          "type": "bytes32"
        }
      ],
      "name": "isOperationPending",
      "outputs": [
        {
          "internalType": "bool",
          "name": "pending",
          "type": "bool"
        }
      ],
      "stateMutability": "view",
      "type": "function"
    },
    {
      "inputs": [
        {
          "internalType": "bytes32",
          "name": "id",
          "type": "bytes32"
        }
      ],
      "name": "isOperationReady",
      "outputs": [
        {
          "internalType": "bool",
          "name": "ready",
          "type": "bool"
        }
      ],
      "stateMutability": "view",
      "type": "function"
    },
    {
      "inputs": [
        {
          "internalType": "address",
          "name": "",
          "type": "address"
        },
        {
          "internalType": "address",
          "name": "",
          "type": "address"
        },
        {
          "internalType": "uint256[]",
          "name": "",
          "type": "uint256[]"
        },
        {
          "internalType": "uint256[]",
          "name": "",
          "type": "uint256[]"
        },
        {
          "internalType": "bytes",
          "name": "",
          "type": "bytes"
        }
      ],
      "name": "onERC1155BatchReceived",
      "outputs": [
        {
          "internalType": "bytes4",
          "name": "",
          "type": "bytes4"
        }
      ],
      "stateMutability": "nonpayable",
      "type": "function"
    },
    {
      "inputs": [
        {
          "internalType": "address",
          "name": "",
          "type": "address"
        },
        {
          "internalType": "address",
          "name": "",
          "type": "address"
        },
        {
          "internalType": "uint256",
          "name": "",
          "type": "uint256"
        },
        {
          "internalType": "uint256",
          "name": "",
          "type": "uint256"
        },
        {
          "internalType": "bytes",
          "name": "",
          "type": "bytes"
        }
      ],
      "name": "onERC1155Received",
      "outputs": [
        {
          "internalType": "bytes4",
          "name": "",
          "type": "bytes4"
        }
      ],
      "stateMutability": "nonpayable",
      "type": "function"
    },
    {
      "inputs": [
        {
          "internalType": "address",
          "name": "",
          "type": "address"
        },
        {
          "internalType": "address",
          "name": "",
          "type": "address"
        },
        {
          "internalType": "uint256",
          "name": "",
          "type": "uint256"
        },
        {
          "internalType": "bytes",
          "name": "",
          "type": "bytes"
        }
      ],
      "name": "onERC721Received",
      "outputs": [
        {
          "internalType": "bytes4",
          "name": "",
          "type": "bytes4"
        }
      ],
      "stateMutability": "nonpayable",
      "type": "function"
    },
    {
      "inputs": [
        {
          "internalType": "bytes32",
          "name": "role",
          "type": "bytes32"
        },
        {
          "internalType": "address",
          "name": "account",
          "type": "address"
        }
      ],
      "name": "renounceRole",
      "outputs": [],
      "stateMutability": "nonpayable",
      "type": "function"
    },
    {
      "inputs": [
        {
          "internalType": "bytes32",
          "name": "role",
          "type": "bytes32"
        },
        {
          "internalType": "address",
          "name": "account",
          "type": "address"
        }
      ],
      "name": "revokeRole",
      "outputs": [],
      "stateMutability": "nonpayable",
      "type": "function"
    },
    {
      "inputs": [
        {
          "internalType": "address",
          "name": "target",
          "type": "address"
        },
        {
          "internalType": "uint256",
          "name": "value",
          "type": "uint256"
        },
        {
          "internalType": "bytes",
          "name": "data",
          "type": "bytes"
        },
        {
          "internalType": "bytes32",
          "name": "predecessor",
          "type": "bytes32"
        },
        {
          "internalType": "bytes32",
          "name": "salt",
          "type": "bytes32"
        },
        {
          "internalType": "uint256",
          "name": "delay",
          "type": "uint256"
        }
      ],
      "name": "schedule",
      "outputs": [],
      "stateMutability": "nonpayable",
      "type": "function"
    },
    {
      "inputs": [
        {
          "internalType": "address[]",
          "name": "targets",
          "type": "address[]"
        },
        {
          "internalType": "uint256[]",
          "name": "values",
          "type": "uint256[]"
        },
        {
          "internalType": "bytes[]",
          "name": "payloads",
          "type": "bytes[]"
        },
        {
          "internalType": "bytes32",
          "name": "predecessor",
          "type": "bytes32"
        },
        {
          "internalType": "bytes32",
          "name": "salt",
          "type": "bytes32"
        },
        {
          "internalType": "uint256",
          "name": "delay",
          "type": "uint256"
        }
      ],
      "name": "scheduleBatch",
      "outputs": [],
      "stateMutability": "nonpayable",
      "type": "function"
    },
    {
      "inputs": [
        {
          "internalType": "contract HATVault",
          "name": "_vault",
          "type": "address"
        },
        {
          "internalType": "uint256",
          "name": "_allocPoint",
          "type": "uint256"
        }
      ],
      "name": "setAllocPoint",
      "outputs": [],
      "stateMutability": "payable",
      "type": "function"
    },
    {
      "inputs": [
        {
          "internalType": "contract HATVault",
          "name": "_vault",
          "type": "address"
        },
        {
          "internalType": "address",
          "name": "_committee",
          "type": "address"
        }
      ],
      "name": "setCommittee",
      "outputs": [],
      "stateMutability": "payable",
      "type": "function"
    },
    {
      "inputs": [
        {
          "internalType": "contract HATVault",
          "name": "_vault",
          "type": "address"
        },
        {
          "internalType": "bool",
          "name": "_depositPause",
          "type": "bool"
        }
      ],
      "name": "setDepositPause",
      "outputs": [],
      "stateMutability": "payable",
      "type": "function"
    },
    {
      "inputs": [
        {
          "internalType": "contract HATVaultsRegistry",
          "name": "_registry",
          "type": "address"
        },
        {
          "internalType": "bool",
          "name": "_isEmergencyPaused",
          "type": "bool"
        }
      ],
      "name": "setEmergencyPaused",
      "outputs": [],
      "stateMutability": "payable",
      "type": "function"
    },
    {
      "inputs": [
        {
          "internalType": "contract HATVault",
          "name": "_vault",
          "type": "address"
        },
        {
          "internalType": "string",
          "name": "_descriptionHash",
          "type": "string"
        }
      ],
      "name": "setVaultDescription",
      "outputs": [],
      "stateMutability": "payable",
      "type": "function"
    },
    {
      "inputs": [
        {
          "internalType": "contract HATVault",
          "name": "_vault",
          "type": "address"
        },
        {
          "internalType": "bool",
          "name": "_visible",
          "type": "bool"
        }
      ],
      "name": "setVaultVisibility",
      "outputs": [],
      "stateMutability": "payable",
      "type": "function"
    },
    {
      "inputs": [
        {
          "internalType": "bytes4",
          "name": "interfaceId",
          "type": "bytes4"
        }
      ],
      "name": "supportsInterface",
      "outputs": [
        {
          "internalType": "bool",
          "name": "",
          "type": "bool"
        }
      ],
      "stateMutability": "view",
      "type": "function"
    },
    {
      "inputs": [
        {
          "internalType": "contract HATVaultsRegistry",
          "name": "_registry",
          "type": "address"
        },
        {
          "internalType": "address",
          "name": "_asset",
          "type": "address"
        },
        {
          "internalType": "address[]",
          "name": "_beneficiaries",
          "type": "address[]"
        },
        {
          "internalType": "uint256",
          "name": "_amountOutMinimum",
          "type": "uint256"
        },
        {
          "internalType": "address",
          "name": "_routingContract",
          "type": "address"
        },
        {
          "internalType": "bytes",
          "name": "_routingPayload",
          "type": "bytes"
        }
      ],
      "name": "swapAndSend",
      "outputs": [],
      "stateMutability": "payable",
      "type": "function"
    },
    {
      "inputs": [
        {
          "internalType": "uint256",
          "name": "newDelay",
          "type": "uint256"
        }
      ],
      "name": "updateDelay",
      "outputs": [],
      "stateMutability": "nonpayable",
      "type": "function"
    },
    {
      "stateMutability": "payable",
      "type": "receive"
    }
  ],
  "bytecode": {
    "object": "0x60806040523480156200001157600080fd5b5060405162002ab438038062002ab48339810160408190526200003491620003fd565b8282826200005260008051602062002a348339815191528062000222565b6200007c60008051602062002a5483398151915260008051602062002a3483398151915262000222565b620000a660008051602062002a7483398151915260008051602062002a3483398151915262000222565b620000d060008051602062002a9483398151915260008051602062002a3483398151915262000222565b620000eb60008051602062002a34833981519152336200026d565b6200010660008051602062002a34833981519152306200026d565b60005b82518110156200018c576200015060008051602062002a548339815191528483815181106200013c576200013c62000471565b60200260200101516200026d60201b60201c565b6200017960008051602062002a948339815191528483815181106200013c576200013c62000471565b620001848162000487565b905062000109565b5060005b8151811015620001d657620001c360008051602062002a748339815191528383815181106200013c576200013c62000471565b620001ce8162000487565b905062000190565b5060028390556040805160008152602081018590527f11c24f4ead16507c69ac467fbd5e4eed5fb5c699626d2cc6d66421df253886d5910160405180910390a1505050505050620004af565b600082815260208190526040808220600101805490849055905190918391839186917fbd79b86ffe0ab8e8776151514217cd7cacd52c909f66475c3af44e129f0b00ff9190a4505050565b6200027982826200027d565b5050565b6000828152602081815260408083206001600160a01b038516845290915290205460ff1662000279576000828152602081815260408083206001600160a01b03851684529091529020805460ff19166001179055620002d93390565b6001600160a01b0316816001600160a01b0316837f2f8788117e7eff1d82e926ec794901d17c78024a50270940304540a733656f0d60405160405180910390a45050565b634e487b7160e01b600052604160045260246000fd5b80516001600160a01b03811681146200034b57600080fd5b919050565b600082601f8301126200036257600080fd5b815160206001600160401b03808311156200038157620003816200031d565b8260051b604051601f19603f83011681018181108482111715620003a957620003a96200031d565b604052938452858101830193838101925087851115620003c857600080fd5b83870191505b84821015620003f257620003e28262000333565b83529183019190830190620003ce565b979650505050505050565b6000806000606084860312156200041357600080fd5b835160208501519093506001600160401b03808211156200043357600080fd5b620004418783880162000350565b935060408601519150808211156200045857600080fd5b50620004678682870162000350565b9150509250925092565b634e487b7160e01b600052603260045260246000fd5b600060018201620004a857634e487b7160e01b600052601160045260246000fd5b5060010190565b61257580620004bf6000396000f3fe6080604052600436106102295760003560e01c80638f2a0bb011610123578063bc197c81116100ab578063d547741f1161006f578063d547741f14610689578063e38335e5146106a9578063f23a6e61146106bc578063f27a0c92146106e8578063f2e615e4146106fd57600080fd5b8063bc197c81146105ea578063c4d252f514610616578063ca80015114610636578063cdb7613614610649578063d45c44351461065c57600080fd5b80639fabcdae116100f25780639fabcdae1461055b578063a217fddf1461056e578063aec1d10814610583578063b08e51c014610596578063b1c5f427146105ca57600080fd5b80638f2a0bb0146104e65780638f61f4f51461050657806391d148541461052857806397c511a31461054857600080fd5b8063248a9ca3116101b157806331d507501161017557806331d507501461044657806336568abe14610466578063584b153e1461048657806364d62353146104a65780638065657f146104c657600080fd5b8063248a9ca31461039f578063252ca2b5146103cf5780632ab0f529146103e25780632f102d4b146104135780632f2ff15d1461042657600080fd5b80630d3cf6fc116101f85780630d3cf6fc146102e1578063134008d31461031557806313bc9f2014610328578063150b7a02146103485780631ff550dd1461038c57600080fd5b806301d5062a1461023557806301ffc9a71461025757806302b1720c1461028c57806307bd02651461029f57600080fd5b3661023057005b600080fd5b34801561024157600080fd5b506102556102503660046118df565b610710565b005b34801561026357600080fd5b50610277610272366004611955565b610793565b60405190151581526020015b60405180910390f35b61025561029a36600461197f565b6107be565b3480156102ab57600080fd5b506102d37fd8aa0f3194971a2a116679f7c2090f6939c8d4e01a2a8d7e41d55e5351469e6381565b604051908152602001610283565b3480156102ed57600080fd5b506102d37f5f58e3a2316349923ce3780f8d587db2d72378aed66a8261c916544fa6846ca581565b6102556103233660046119ab565b6108a1565b34801561033457600080fd5b50610277610343366004611a18565b610956565b34801561035457600080fd5b50610373610363366004611aee565b630a85bd0160e11b949350505050565b6040516001600160e01b03199091168152602001610283565b61025561039a366004611b6e565b61097c565b3480156103ab57600080fd5b506102d36103ba366004611a18565b60009081526020819052604090206001015490565b6102556103dd366004611b6e565b6109c2565b3480156103ee57600080fd5b506102776103fd366004611a18565b6000908152600160208190526040909120541490565b61025561042136600461197f565b610a08565b34801561043257600080fd5b50610255610441366004611ba3565b610a4d565b34801561045257600080fd5b50610277610461366004611a18565b610a77565b34801561047257600080fd5b50610255610481366004611ba3565b610a90565b34801561049257600080fd5b506102776104a1366004611a18565b610b13565b3480156104b257600080fd5b506102556104c1366004611a18565b610b29565b3480156104d257600080fd5b506102d36104e13660046119ab565b610bcd565b3480156104f257600080fd5b50610255610501366004611c17565b610c0c565b34801561051257600080fd5b506102d360008051602061252083398151915281565b34801561053457600080fd5b50610277610543366004611ba3565b610d4c565b610255610556366004611cc8565b610d75565b61025561056936600461197f565b610dea565b34801561057a57600080fd5b506102d3600081565b610255610591366004611b6e565b610e2f565b3480156105a257600080fd5b506102d37ffd643c72710c63c0180259aba6b2d05451e3591a24e58b62239378085726f78381565b3480156105d657600080fd5b506102d36105e5366004611cfd565b610ee1565b3480156105f657600080fd5b50610373610605366004611e24565b63bc197c8160e01b95945050505050565b34801561062257600080fd5b50610255610631366004611a18565b610f26565b610255610644366004611ed1565b610ffb565b610255610657366004611eff565b611041565b34801561066857600080fd5b506102d3610677366004611a18565b60009081526001602052604090205490565b34801561069557600080fd5b506102556106a4366004611ba3565b611085565b6102556106b7366004611cfd565b6110aa565b3480156106c857600080fd5b506103736106d7366004611f62565b63f23a6e6160e01b95945050505050565b3480156106f457600080fd5b506002546102d3565b61025561070b366004611fca565b611234565b600080516020612520833981519152610728816112c1565b6000610738898989898989610bcd565b905061074481846112ce565b6000817f4cf4410cc57040e44862ef0f45f3dd5a5e02db8eb8add648d4b0e236f1d07dca8b8b8b8b8b8a604051610780969594939291906120a5565b60405180910390a3505050505050505050565b60006001600160e01b03198216630271189760e51b14806107b857506107b8826113bd565b92915050565b6000805160206125208339815191526107d6816112c1565b826001600160a01b0316638cc5ce996040518163ffffffff1660e01b8152600401602060405180830381865afa158015610814573d6000803e3d6000fd5b505050506040513d601f19601f8201168201806040525081019061083891906120e2565b60405162ac5c8360e21b81526001600160a01b0385811660048301526024820185905291909116906302b1720c906044015b600060405180830381600087803b15801561088457600080fd5b505af1158015610898573d6000803e3d6000fd5b50505050505050565b7fd8aa0f3194971a2a116679f7c2090f6939c8d4e01a2a8d7e41d55e5351469e636108cd816000610d4c565b6108db576108db81336113f2565b60006108eb888888888888610bcd565b90506108f78185611456565b610903888888886114f2565b6000817fc2617efa69bab66782fa219543714338489c4e9e178271560a91b82c3f612b588a8a8a8a60405161093b94939291906120ff565b60405180910390a361094c816115c5565b5050505050505050565b6000818152600160205260408120546001811180156109755750428111155b9392505050565b600080516020612520833981519152610994816112c1565b604051639d0ab89f60e01b815282151560048201526001600160a01b03841690639d0ab89f9060240161086a565b6000805160206125208339815191526109da816112c1565b6040516386d192e560e01b815282151560048201526001600160a01b038416906386d192e59060240161086a565b600080516020612520833981519152610a20816112c1565b6040516304165db160e01b8152600481018390526001600160a01b038416906304165db19060240161086a565b600082815260208190526040902060010154610a68816112c1565b610a7283836115fe565b505050565b60008181526001602052604081205481905b1192915050565b6001600160a01b0381163314610b055760405162461bcd60e51b815260206004820152602f60248201527f416363657373436f6e74726f6c3a2063616e206f6e6c792072656e6f756e636560448201526e103937b632b9903337b91039b2b63360891b60648201526084015b60405180910390fd5b610b0f8282611682565b5050565b6000818152600160208190526040822054610a89565b333014610b8c5760405162461bcd60e51b815260206004820152602b60248201527f54696d656c6f636b436f6e74726f6c6c65723a2063616c6c6572206d7573742060448201526a62652074696d656c6f636b60a81b6064820152608401610afc565b60025460408051918252602082018390527f11c24f4ead16507c69ac467fbd5e4eed5fb5c699626d2cc6d66421df253886d5910160405180910390a1600255565b6000868686868686604051602001610bea969594939291906120a5565b6040516020818303038152906040528051906020012090509695505050505050565b600080516020612520833981519152610c24816112c1565b888714610c435760405162461bcd60e51b8152600401610afc90612131565b888514610c625760405162461bcd60e51b8152600401610afc90612131565b6000610c748b8b8b8b8b8b8b8b610ee1565b9050610c8081846112ce565b60005b8a811015610d3e5780827f4cf4410cc57040e44862ef0f45f3dd5a5e02db8eb8add648d4b0e236f1d07dca8e8e85818110610cc057610cc0612174565b9050602002016020810190610cd5919061218a565b8d8d86818110610ce757610ce7612174565b905060200201358c8c87818110610d0057610d00612174565b9050602002810190610d1291906121a7565b8c8b604051610d26969594939291906120a5565b60405180910390a3610d3781612203565b9050610c83565b505050505050505050505050565b6000918252602082815260408084206001600160a01b0393909316845291905290205460ff1690565b600080516020612520833981519152610d8d816112c1565b6040516304cd59a760e51b815260048101849052602481018390526001600160a01b038516906399ab34e090604401600060405180830381600087803b158015610dd657600080fd5b505af115801561094c573d6000803e3d6000fd5b600080516020612520833981519152610e02816112c1565b60405163d52d5ee760e01b8152600481018390526001600160a01b0384169063d52d5ee79060240161086a565b600080516020612520833981519152610e47816112c1565b826001600160a01b0316637b1039996040518163ffffffff1660e01b8152600401602060405180830381865afa158015610e85573d6000803e3d6000fd5b505050506040513d601f19601f82011682018060405250810190610ea991906120e2565b6040516315d83a2160e31b81526001600160a01b0385811660048301528415156024830152919091169063aec1d1089060440161086a565b60008888888888888888604051602001610f02989796959493929190612265565b60405160208183030381529060405280519060200120905098975050505050505050565b7ffd643c72710c63c0180259aba6b2d05451e3591a24e58b62239378085726f783610f50816112c1565b610f5982610b13565b610fbf5760405162461bcd60e51b815260206004820152603160248201527f54696d656c6f636b436f6e74726f6c6c65723a206f7065726174696f6e2063616044820152701b9b9bdd0818994818d85b98d95b1b1959607a1b6064820152608401610afc565b6000828152600160205260408082208290555183917fbaa1eb22f2a492ba1a5fea61b8df4d27c6c8b5f3971e63bb58fa14ff72eedb7091a25050565b600080516020612520833981519152611013816112c1565b604051635eed720760e11b81526001600160a01b03838116600483015284169063bddae40e9060240161086a565b600080516020612520833981519152611059816112c1565b604051632905f80360e21b81526001600160a01b0384169063a417e00c9061086a908590600401612381565b6000828152602081905260409020600101546110a0816112c1565b610a728383611682565b7fd8aa0f3194971a2a116679f7c2090f6939c8d4e01a2a8d7e41d55e5351469e636110d6816000610d4c565b6110e4576110e481336113f2565b8786146111035760405162461bcd60e51b8152600401610afc90612131565b8784146111225760405162461bcd60e51b8152600401610afc90612131565b60006111348a8a8a8a8a8a8a8a610ee1565b90506111408185611456565b60005b8981101561121e5760008b8b8381811061115f5761115f612174565b9050602002016020810190611174919061218a565b905060008a8a8481811061118a5761118a612174565b9050602002013590503660008a8a868181106111a8576111a8612174565b90506020028101906111ba91906121a7565b915091506111ca848484846114f2565b84867fc2617efa69bab66782fa219543714338489c4e9e178271560a91b82c3f612b588686868660405161120194939291906120ff565b60405180910390a3505050508061121790612203565b9050611143565b50611228816115c5565b50505050505050505050565b60008051602061252083398151915261124c816112c1565b60405163e2b001bf60e01b81526001600160a01b038a169063e2b001bf90611284908b908b908b908b908b908b908b906004016123b4565b600060405180830381600087803b15801561129e57600080fd5b505af11580156112b2573d6000803e3d6000fd5b50505050505050505050505050565b6112cb81336113f2565b50565b6112d782610a77565b1561133c5760405162461bcd60e51b815260206004820152602f60248201527f54696d656c6f636b436f6e74726f6c6c65723a206f7065726174696f6e20616c60448201526e1c9958591e481cd8da19591d5b1959608a1b6064820152608401610afc565b60025481101561139d5760405162461bcd60e51b815260206004820152602660248201527f54696d656c6f636b436f6e74726f6c6c65723a20696e73756666696369656e746044820152652064656c617960d01b6064820152608401610afc565b6113a78142612407565b6000928352600160205260409092209190915550565b60006001600160e01b03198216637965db0b60e01b14806107b857506301ffc9a760e01b6001600160e01b03198316146107b8565b6113fc8282610d4c565b610b0f57611414816001600160a01b031660146116e7565b61141f8360206116e7565b60405160200161143092919061241a565b60408051601f198184030181529082905262461bcd60e51b8252610afc91600401612381565b61145f82610956565b61147b5760405162461bcd60e51b8152600401610afc9061248f565b8015806114975750600081815260016020819052604090912054145b610b0f5760405162461bcd60e51b815260206004820152602660248201527f54696d656c6f636b436f6e74726f6c6c65723a206d697373696e6720646570656044820152656e64656e637960d01b6064820152608401610afc565b6000846001600160a01b031684848460405161150f9291906124d9565b60006040518083038185875af1925050503d806000811461154c576040519150601f19603f3d011682016040523d82523d6000602084013e611551565b606091505b50509050806115be5760405162461bcd60e51b815260206004820152603360248201527f54696d656c6f636b436f6e74726f6c6c65723a20756e6465726c79696e6720746044820152721c985b9cd858dd1a5bdb881c995d995c9d1959606a1b6064820152608401610afc565b5050505050565b6115ce81610956565b6115ea5760405162461bcd60e51b8152600401610afc9061248f565b600090815260016020819052604090912055565b6116088282610d4c565b610b0f576000828152602081815260408083206001600160a01b03851684529091529020805460ff1916600117905561163e3390565b6001600160a01b0316816001600160a01b0316837f2f8788117e7eff1d82e926ec794901d17c78024a50270940304540a733656f0d60405160405180910390a45050565b61168c8282610d4c565b15610b0f576000828152602081815260408083206001600160a01b0385168085529252808320805460ff1916905551339285917ff6391f5c32d9c69d2a47ea670b442974b53935d1edc7fd64eb21e047a839171b9190a45050565b606060006116f68360026124e9565b611701906002612407565b6001600160401b0381111561171857611718611a31565b6040519080825280601f01601f191660200182016040528015611742576020820181803683370190505b509050600360fc1b8160008151811061175d5761175d612174565b60200101906001600160f81b031916908160001a905350600f60fb1b8160018151811061178c5761178c612174565b60200101906001600160f81b031916908160001a90535060006117b08460026124e9565b6117bb906001612407565b90505b6001811115611833576f181899199a1a9b1b9c1cb0b131b232b360811b85600f16601081106117ef576117ef612174565b1a60f81b82828151811061180557611805612174565b60200101906001600160f81b031916908160001a90535060049490941c9361182c81612508565b90506117be565b5083156109755760405162461bcd60e51b815260206004820181905260248201527f537472696e67733a20686578206c656e67746820696e73756666696369656e746044820152606401610afc565b6001600160a01b03811681146112cb57600080fd5b60008083601f8401126118a957600080fd5b5081356001600160401b038111156118c057600080fd5b6020830191508360208285010111156118d857600080fd5b9250929050565b600080600080600080600060c0888a0312156118fa57600080fd5b873561190581611882565b96506020880135955060408801356001600160401b0381111561192757600080fd5b6119338a828b01611897565b989b979a50986060810135976080820135975060a09091013595509350505050565b60006020828403121561196757600080fd5b81356001600160e01b03198116811461097557600080fd5b6000806040838503121561199257600080fd5b823561199d81611882565b946020939093013593505050565b60008060008060008060a087890312156119c457600080fd5b86356119cf81611882565b95506020870135945060408701356001600160401b038111156119f157600080fd5b6119fd89828a01611897565b979a9699509760608101359660809091013595509350505050565b600060208284031215611a2a57600080fd5b5035919050565b634e487b7160e01b600052604160045260246000fd5b604051601f8201601f191681016001600160401b0381118282101715611a6f57611a6f611a31565b604052919050565b60006001600160401b03831115611a9057611a90611a31565b611aa3601f8401601f1916602001611a47565b9050828152838383011115611ab757600080fd5b828260208301376000602084830101529392505050565b600082601f830112611adf57600080fd5b61097583833560208501611a77565b60008060008060808587031215611b0457600080fd5b8435611b0f81611882565b93506020850135611b1f81611882565b92506040850135915060608501356001600160401b03811115611b4157600080fd5b611b4d87828801611ace565b91505092959194509250565b80358015158114611b6957600080fd5b919050565b60008060408385031215611b8157600080fd5b8235611b8c81611882565b9150611b9a60208401611b59565b90509250929050565b60008060408385031215611bb657600080fd5b823591506020830135611bc881611882565b809150509250929050565b60008083601f840112611be557600080fd5b5081356001600160401b03811115611bfc57600080fd5b6020830191508360208260051b85010111156118d857600080fd5b600080600080600080600080600060c08a8c031215611c3557600080fd5b89356001600160401b0380821115611c4c57600080fd5b611c588d838e01611bd3565b909b50995060208c0135915080821115611c7157600080fd5b611c7d8d838e01611bd3565b909950975060408c0135915080821115611c9657600080fd5b50611ca38c828d01611bd3565b9a9d999c50979a969997986060880135976080810135975060a0013595509350505050565b600080600060608486031215611cdd57600080fd5b8335611ce881611882565b95602085013595506040909401359392505050565b60008060008060008060008060a0898b031215611d1957600080fd5b88356001600160401b0380821115611d3057600080fd5b611d3c8c838d01611bd3565b909a50985060208b0135915080821115611d5557600080fd5b611d618c838d01611bd3565b909850965060408b0135915080821115611d7a57600080fd5b50611d878b828c01611bd3565b999c989b509699959896976060870135966080013595509350505050565b600082601f830112611db657600080fd5b813560206001600160401b03821115611dd157611dd1611a31565b8160051b611de0828201611a47565b9283528481018201928281019087851115611dfa57600080fd5b83870192505b84831015611e1957823582529183019190830190611e00565b979650505050505050565b600080600080600060a08688031215611e3c57600080fd5b8535611e4781611882565b94506020860135611e5781611882565b935060408601356001600160401b0380821115611e7357600080fd5b611e7f89838a01611da5565b94506060880135915080821115611e9557600080fd5b611ea189838a01611da5565b93506080880135915080821115611eb757600080fd5b50611ec488828901611ace565b9150509295509295909350565b60008060408385031215611ee457600080fd5b8235611eef81611882565b91506020830135611bc881611882565b60008060408385031215611f1257600080fd5b8235611f1d81611882565b915060208301356001600160401b03811115611f3857600080fd5b8301601f81018513611f4957600080fd5b611f5885823560208401611a77565b9150509250929050565b600080600080600060a08688031215611f7a57600080fd5b8535611f8581611882565b94506020860135611f9581611882565b9350604086013592506060860135915060808601356001600160401b03811115611fbe57600080fd5b611ec488828901611ace565b60008060008060008060008060c0898b031215611fe657600080fd5b8835611ff181611882565b9750602089013561200181611882565b965060408901356001600160401b038082111561201d57600080fd5b6120298c838d01611bd3565b909850965060608b0135955060808b0135915061204582611882565b90935060a08a0135908082111561205b57600080fd5b506120688b828c01611897565b999c989b5096995094979396929594505050565b81835281816020850137506000828201602090810191909152601f909101601f19169091010190565b60018060a01b038716815285602082015260a0604082015260006120cd60a08301868861207c565b60608301949094525060800152949350505050565b6000602082840312156120f457600080fd5b815161097581611882565b60018060a01b038516815283602082015260606040820152600061212760608301848661207c565b9695505050505050565b60208082526023908201527f54696d656c6f636b436f6e74726f6c6c65723a206c656e677468206d69736d616040820152620e8c6d60eb1b606082015260800190565b634e487b7160e01b600052603260045260246000fd5b60006020828403121561219c57600080fd5b813561097581611882565b6000808335601e198436030181126121be57600080fd5b8301803591506001600160401b038211156121d857600080fd5b6020019150368190038213156118d857600080fd5b634e487b7160e01b600052601160045260246000fd5b600060018201612215576122156121ed565b5060010190565b8183526000602080850194508260005b8581101561225a57813561223f81611882565b6001600160a01b03168752958201959082019060010161222c565b509495945050505050565b60a08152600061227960a083018a8c61221c565b8281036020848101919091528882526001600160fb1b0389111561229c57600080fd5b8860051b808b83850137808301925050808201818584030160408601528088825260408401905060408960051b85010191508960005b8a81101561234157858403603f190183528135368d9003601e190181126122f857600080fd5b8c0185810190356001600160401b0381111561231357600080fd5b80360382131561232257600080fd5b61232d86828461207c565b9550505091840191908401906001016122d2565b5050506060850196909652505050608001529695505050505050565b60005b83811015612378578181015183820152602001612360565b50506000910152565b60208152600082518060208401526123a081604085016020870161235d565b601f01601f19169190910160400192915050565b600060018060a01b03808a16835260a060208401526123d760a08401898b61221c565b876040850152818716606085015283810360808501526123f881868861207c565b9b9a5050505050505050505050565b808201808211156107b8576107b86121ed565b7f416363657373436f6e74726f6c3a206163636f756e742000000000000000000081526000835161245281601785016020880161235d565b7001034b99036b4b9b9b4b733903937b6329607d1b601791840191820152835161248381602884016020880161235d565b01602801949350505050565b6020808252602a908201527f54696d656c6f636b436f6e74726f6c6c65723a206f7065726174696f6e206973604082015269206e6f7420726561647960b01b606082015260800190565b8183823760009101908152919050565b6000816000190483118215151615612503576125036121ed565b500290565b600081612517576125176121ed565b50600019019056feb09aa5aeb3702cfd50b6b62bc4532604938f21248a27a1d5ca736082b6819cc1a2646970667358221220888796f8cdc966f70acbdf95f99c85cf6e685a35de8da88d2ce9060e409cfa5564736f6c634300081000335f58e3a2316349923ce3780f8d587db2d72378aed66a8261c916544fa6846ca5b09aa5aeb3702cfd50b6b62bc4532604938f21248a27a1d5ca736082b6819cc1d8aa0f3194971a2a116679f7c2090f6939c8d4e01a2a8d7e41d55e5351469e63fd643c72710c63c0180259aba6b2d05451e3591a24e58b62239378085726f783",
    "linkReferences": {}
  },
  "methodIdentifiers": {
    "CANCELLER_ROLE()": "b08e51c0",
    "DEFAULT_ADMIN_ROLE()": "a217fddf",
    "EXECUTOR_ROLE()": "07bd0265",
    "PROPOSER_ROLE()": "8f61f4f5",
    "TIMELOCK_ADMIN_ROLE()": "0d3cf6fc",
    "approveClaim(address,bytes32,uint256)": "97c511a3",
    "cancel(bytes32)": "c4d252f5",
    "challengeClaim(address,bytes32)": "2f102d4b",
    "dismissClaim(address,bytes32)": "9fabcdae",
    "execute(address,uint256,bytes,bytes32,bytes32)": "134008d3",
    "executeBatch(address[],uint256[],bytes[],bytes32,bytes32)": "e38335e5",
    "getMinDelay()": "f27a0c92",
    "getRoleAdmin(bytes32)": "248a9ca3",
    "getTimestamp(bytes32)": "d45c4435",
    "grantRole(bytes32,address)": "2f2ff15d",
    "hasRole(bytes32,address)": "91d14854",
    "hashOperation(address,uint256,bytes,bytes32,bytes32)": "8065657f",
    "hashOperationBatch(address[],uint256[],bytes[],bytes32,bytes32)": "b1c5f427",
    "isOperation(bytes32)": "31d50750",
    "isOperationDone(bytes32)": "2ab0f529",
    "isOperationPending(bytes32)": "584b153e",
    "isOperationReady(bytes32)": "13bc9f20",
    "onERC1155BatchReceived(address,address,uint256[],uint256[],bytes)": "bc197c81",
    "onERC1155Received(address,address,uint256,uint256,bytes)": "f23a6e61",
    "onERC721Received(address,address,uint256,bytes)": "150b7a02",
    "renounceRole(bytes32,address)": "36568abe",
    "revokeRole(bytes32,address)": "d547741f",
    "schedule(address,uint256,bytes,bytes32,bytes32,uint256)": "01d5062a",
    "scheduleBatch(address[],uint256[],bytes[],bytes32,bytes32,uint256)": "8f2a0bb0",
    "setAllocPoint(address,uint256)": "02b1720c",
    "setCommittee(address,address)": "ca800151",
    "setDepositPause(address,bool)": "252ca2b5",
    "setEmergencyPaused(address,bool)": "1ff550dd",
    "setVaultDescription(address,string)": "cdb76136",
    "setVaultVisibility(address,bool)": "aec1d108",
    "supportsInterface(bytes4)": "01ffc9a7",
    "swapAndSend(address,address,address[],uint256,address,bytes)": "f2e615e4",
    "updateDelay(uint256)": "64d62353"
  },
  "id": 0
}