{
  "abi": [
    {
      "inputs": [
        {
          "internalType": "address",
          "name": "_hatVaultImplementation",
          "type": "address"
        },
        {
          "internalType": "address",
          "name": "_hatGovernance",
          "type": "address"
        },
        {
          "internalType": "address",
          "name": "_HAT",
          "type": "address"
        },
        {
          "internalType": "uint256",
          "name": "_bountyGovernanceHAT",
          "type": "uint256"
        },
        {
          "internalType": "uint256",
          "name": "_bountyHackerHATVested",
          "type": "uint256"
        },
        {
          "internalType": "contract ITokenLockFactory",
          "name": "_tokenLockFactory",
          "type": "address"
        }
      ],
      "stateMutability": "nonpayable",
      "type": "constructor"
    },
    {
      "inputs": [],
      "name": "AmountSwappedLessThanMinimum",
      "type": "error"
    },
    {
      "inputs": [],
      "name": "AmountToSwapIsZero",
      "type": "error"
    },
    {
      "inputs": [],
      "name": "ChallengePeriodTooLong",
      "type": "error"
    },
    {
      "inputs": [],
      "name": "ChallengePeriodTooShort",
      "type": "error"
    },
    {
      "inputs": [],
      "name": "ChallengeTimeOutPeriodTooLong",
      "type": "error"
    },
    {
      "inputs": [],
      "name": "ChallengeTimeOutPeriodTooShort",
      "type": "error"
    },
    {
      "inputs": [],
      "name": "DelayTooShort",
      "type": "error"
    },
    {
      "inputs": [],
      "name": "HatVestingDurationSmallerThanPeriods",
      "type": "error"
    },
    {
      "inputs": [],
      "name": "HatVestingDurationTooLong",
      "type": "error"
    },
    {
      "inputs": [],
      "name": "HatVestingPeriodsCannotBeZero",
      "type": "error"
    },
    {
      "inputs": [],
      "name": "NotEnoughFeePaid",
      "type": "error"
    },
    {
      "inputs": [],
      "name": "SafetyPeriodTooLong",
      "type": "error"
    },
    {
      "inputs": [],
      "name": "SwapFailed",
      "type": "error"
    },
    {
      "inputs": [],
      "name": "TotalHatsSplitPercentageShouldBeUpToMaxHATSplit",
      "type": "error"
    },
    {
      "inputs": [],
      "name": "WithdrawPeriodTooShort",
      "type": "error"
    },
    {
      "inputs": [],
      "name": "WithdrawRequestEnabledPeriodTooLong",
      "type": "error"
    },
    {
      "inputs": [],
      "name": "WithdrawRequestEnabledPeriodTooShort",
      "type": "error"
    },
    {
      "inputs": [],
      "name": "WithdrawRequestPendingPeriodTooLong",
      "type": "error"
    },
    {
      "anonymous": false,
      "inputs": [
        {
          "indexed": true,
          "internalType": "address",
          "name": "_claimer",
          "type": "address"
        },
        {
          "indexed": false,
          "internalType": "string",
          "name": "_descriptionHash",
          "type": "string"
        }
      ],
      "name": "LogClaim",
      "type": "event"
    },
    {
      "anonymous": false,
      "inputs": [
        {
          "indexed": true,
          "internalType": "address",
          "name": "previousOwner",
          "type": "address"
        },
        {
          "indexed": true,
          "internalType": "address",
          "name": "newOwner",
          "type": "address"
        }
      ],
      "name": "OwnershipTransferred",
      "type": "event"
    },
    {
      "anonymous": false,
      "inputs": [
        {
          "indexed": false,
          "internalType": "uint256",
          "name": "_fee",
          "type": "uint256"
        }
      ],
      "name": "SetClaimFee",
      "type": "event"
    },
    {
      "anonymous": false,
      "inputs": [
        {
          "indexed": true,
          "internalType": "address",
          "name": "_defaultArbitrator",
          "type": "address"
        }
      ],
      "name": "SetDefaultArbitrator",
      "type": "event"
    },
    {
      "anonymous": false,
      "inputs": [
        {
          "indexed": false,
          "internalType": "bool",
          "name": "_defaultArbitratorCanChangeBounty",
          "type": "bool"
        }
      ],
      "name": "SetDefaultArbitratorCanChangeBounty",
      "type": "event"
    },
    {
      "anonymous": false,
      "inputs": [
        {
          "indexed": false,
          "internalType": "uint256",
          "name": "_defaultChallengePeriod",
          "type": "uint256"
        }
      ],
      "name": "SetDefaultChallengePeriod",
      "type": "event"
    },
    {
      "anonymous": false,
      "inputs": [
        {
          "indexed": false,
          "internalType": "uint256",
          "name": "_defaultChallengeTimeOutPeriod",
          "type": "uint256"
        }
      ],
      "name": "SetDefaultChallengeTimeOutPeriod",
      "type": "event"
    },
    {
      "anonymous": false,
      "inputs": [
        {
          "indexed": false,
          "internalType": "uint256",
          "name": "_defaultBountyGovernanceHAT",
          "type": "uint256"
        },
        {
          "indexed": false,
          "internalType": "uint256",
          "name": "_defaultBountyHackerHATVested",
          "type": "uint256"
        }
      ],
      "name": "SetDefaultHATBountySplit",
      "type": "event"
    },
    {
      "anonymous": false,
      "inputs": [
        {
          "indexed": false,
          "internalType": "bool",
          "name": "_isEmergencyPaused",
          "type": "bool"
        }
      ],
      "name": "SetEmergencyPaused",
      "type": "event"
    },
    {
      "anonymous": false,
      "inputs": [
        {
          "indexed": true,
          "internalType": "address",
          "name": "_feeSetter",
          "type": "address"
        }
      ],
      "name": "SetFeeSetter",
      "type": "event"
    },
    {
      "anonymous": false,
      "inputs": [
        {
          "indexed": false,
          "internalType": "uint256",
          "name": "_duration",
          "type": "uint256"
        },
        {
          "indexed": false,
          "internalType": "uint256",
          "name": "_periods",
          "type": "uint256"
        }
      ],
      "name": "SetHatVestingParams",
      "type": "event"
    },
    {
      "anonymous": false,
      "inputs": [
        {
          "indexed": false,
          "internalType": "uint256",
          "name": "_delay",
          "type": "uint256"
        }
      ],
      "name": "SetMaxBountyDelay",
      "type": "event"
    },
    {
      "anonymous": false,
      "inputs": [
        {
          "indexed": true,
          "internalType": "address",
          "name": "_vault",
          "type": "address"
        },
        {
          "indexed": true,
          "internalType": "bool",
          "name": "_visible",
          "type": "bool"
        }
      ],
      "name": "SetVaultVisibility",
      "type": "event"
    },
    {
      "anonymous": false,
      "inputs": [
        {
          "indexed": false,
          "internalType": "uint256",
          "name": "_withdrawRequestPendingPeriod",
          "type": "uint256"
        },
        {
          "indexed": false,
          "internalType": "uint256",
          "name": "_withdrawRequestEnablePeriod",
          "type": "uint256"
        }
      ],
      "name": "SetWithdrawRequestParams",
      "type": "event"
    },
    {
      "anonymous": false,
      "inputs": [
        {
          "indexed": false,
          "internalType": "uint256",
          "name": "_withdrawPeriod",
          "type": "uint256"
        },
        {
          "indexed": false,
          "internalType": "uint256",
          "name": "_safetyPeriod",
          "type": "uint256"
        }
      ],
      "name": "SetWithdrawSafetyPeriod",
      "type": "event"
    },
    {
      "anonymous": false,
      "inputs": [
        {
          "indexed": true,
          "internalType": "address",
          "name": "_beneficiary",
          "type": "address"
        },
        {
          "indexed": false,
          "internalType": "uint256",
          "name": "_amountSwapped",
          "type": "uint256"
        },
        {
          "indexed": false,
          "internalType": "uint256",
          "name": "_amountSent",
          "type": "uint256"
        },
        {
          "indexed": true,
          "internalType": "address",
          "name": "_tokenLock",
          "type": "address"
        }
      ],
      "name": "SwapAndSend",
      "type": "event"
    },
    {
      "anonymous": false,
      "inputs": [
        {
          "indexed": true,
          "internalType": "address",
          "name": "_vault",
          "type": "address"
        },
        {
          "indexed": true,
          "internalType": "address",
          "name": "_asset",
          "type": "address"
        },
        {
          "indexed": false,
          "internalType": "address",
          "name": "_committee",
          "type": "address"
        },
        {
          "indexed": false,
          "internalType": "contract IRewardController",
          "name": "_rewardController",
          "type": "address"
        },
        {
          "indexed": false,
          "internalType": "uint256",
          "name": "_maxBounty",
          "type": "uint256"
        },
        {
          "components": [
            {
              "internalType": "uint256",
              "name": "hackerVested",
              "type": "uint256"
            },
            {
              "internalType": "uint256",
              "name": "hacker",
              "type": "uint256"
            },
            {
              "internalType": "uint256",
              "name": "committee",
              "type": "uint256"
            }
          ],
          "indexed": false,
          "internalType": "struct IHATVault.BountySplit",
          "name": "_bountySplit",
          "type": "tuple"
        },
        {
          "indexed": false,
          "internalType": "string",
          "name": "_descriptionHash",
          "type": "string"
        },
        {
          "indexed": false,
          "internalType": "uint256",
          "name": "_bountyVestingDuration",
          "type": "uint256"
        },
        {
          "indexed": false,
          "internalType": "uint256",
          "name": "_bountyVestingPeriods",
          "type": "uint256"
        },
        {
          "indexed": false,
          "internalType": "bool",
          "name": "_isPaused",
          "type": "bool"
        }
      ],
      "name": "VaultCreated",
      "type": "event"
    },
    {
      "inputs": [],
      "name": "HAT",
      "outputs": [
        {
          "internalType": "contract IERC20",
          "name": "",
          "type": "address"
        }
      ],
      "stateMutability": "view",
      "type": "function"
    },
    {
      "inputs": [],
      "name": "HUNDRED_PERCENT",
      "outputs": [
        {
          "internalType": "uint256",
          "name": "",
          "type": "uint256"
        }
      ],
      "stateMutability": "view",
      "type": "function"
    },
    {
      "inputs": [],
      "name": "MAX_HAT_SPLIT",
      "outputs": [
        {
          "internalType": "uint256",
          "name": "",
          "type": "uint256"
        }
      ],
      "stateMutability": "view",
      "type": "function"
    },
    {
      "inputs": [
        {
          "internalType": "contract IERC20",
          "name": "_asset",
          "type": "address"
        },
        {
          "internalType": "address",
          "name": "_hacker",
          "type": "address"
        },
        {
          "internalType": "uint256",
          "name": "_hackersHatReward",
          "type": "uint256"
        },
        {
          "internalType": "uint256",
          "name": "_governanceHatReward",
          "type": "uint256"
        }
      ],
      "name": "addTokensToSwap",
      "outputs": [],
      "stateMutability": "nonpayable",
      "type": "function"
    },
    {
      "inputs": [
        {
          "internalType": "contract IERC20",
          "name": "_asset",
          "type": "address"
        },
        {
          "internalType": "address",
          "name": "_owner",
          "type": "address"
        },
        {
          "internalType": "address",
          "name": "_committee",
          "type": "address"
        },
        {
          "internalType": "contract IRewardController",
          "name": "_rewardController",
          "type": "address"
        },
        {
          "internalType": "uint256",
          "name": "_maxBounty",
          "type": "uint256"
        },
        {
          "components": [
            {
              "internalType": "uint256",
              "name": "hackerVested",
              "type": "uint256"
            },
            {
              "internalType": "uint256",
              "name": "hacker",
              "type": "uint256"
            },
            {
              "internalType": "uint256",
              "name": "committee",
              "type": "uint256"
            }
          ],
          "internalType": "struct IHATVault.BountySplit",
          "name": "_bountySplit",
          "type": "tuple"
        },
        {
          "internalType": "string",
          "name": "_descriptionHash",
          "type": "string"
        },
        {
          "internalType": "uint256",
          "name": "_bountyVestingDuration",
          "type": "uint256"
        },
        {
          "internalType": "uint256",
          "name": "_bountyVestingPeriods",
          "type": "uint256"
        },
        {
          "internalType": "bool",
          "name": "_isPaused",
          "type": "bool"
        }
      ],
      "name": "createVault",
      "outputs": [
        {
          "internalType": "address",
          "name": "vault",
          "type": "address"
        }
      ],
      "stateMutability": "nonpayable",
      "type": "function"
    },
    {
      "inputs": [],
      "name": "defaultArbitrator",
      "outputs": [
        {
          "internalType": "address",
          "name": "",
          "type": "address"
        }
      ],
      "stateMutability": "view",
      "type": "function"
    },
    {
      "inputs": [],
      "name": "defaultArbitratorCanChangeBounty",
      "outputs": [
        {
          "internalType": "bool",
          "name": "",
          "type": "bool"
        }
      ],
      "stateMutability": "view",
      "type": "function"
    },
    {
      "inputs": [],
      "name": "defaultBountyGovernanceHAT",
      "outputs": [
        {
          "internalType": "uint256",
          "name": "",
          "type": "uint256"
        }
      ],
      "stateMutability": "view",
      "type": "function"
    },
    {
      "inputs": [],
      "name": "defaultBountyHackerHATVested",
      "outputs": [
        {
          "internalType": "uint256",
          "name": "",
          "type": "uint256"
        }
      ],
      "stateMutability": "view",
      "type": "function"
    },
    {
      "inputs": [],
      "name": "defaultChallengePeriod",
      "outputs": [
        {
          "internalType": "uint256",
          "name": "",
          "type": "uint256"
        }
      ],
      "stateMutability": "view",
      "type": "function"
    },
    {
      "inputs": [],
      "name": "defaultChallengeTimeOutPeriod",
      "outputs": [
        {
          "internalType": "uint256",
          "name": "",
          "type": "uint256"
        }
      ],
      "stateMutability": "view",
      "type": "function"
    },
    {
      "inputs": [],
      "name": "feeSetter",
      "outputs": [
        {
          "internalType": "address",
          "name": "",
          "type": "address"
        }
      ],
      "stateMutability": "view",
      "type": "function"
    },
    {
      "inputs": [],
      "name": "generalParameters",
      "outputs": [
        {
          "internalType": "uint256",
          "name": "hatVestingDuration",
          "type": "uint256"
        },
        {
          "internalType": "uint256",
          "name": "hatVestingPeriods",
          "type": "uint256"
        },
        {
          "internalType": "uint256",
          "name": "withdrawPeriod",
          "type": "uint256"
        },
        {
          "internalType": "uint256",
          "name": "safetyPeriod",
          "type": "uint256"
        },
        {
          "internalType": "uint256",
          "name": "withdrawRequestEnablePeriod",
          "type": "uint256"
        },
        {
          "internalType": "uint256",
          "name": "withdrawRequestPendingPeriod",
          "type": "uint256"
        },
        {
          "internalType": "uint256",
          "name": "setMaxBountyDelay",
          "type": "uint256"
        },
        {
          "internalType": "uint256",
          "name": "claimFee",
          "type": "uint256"
        }
      ],
      "stateMutability": "view",
      "type": "function"
    },
    {
      "inputs": [],
      "name": "getGeneralParameters",
      "outputs": [
        {
          "components": [
            {
              "internalType": "uint256",
              "name": "hatVestingDuration",
              "type": "uint256"
            },
            {
              "internalType": "uint256",
              "name": "hatVestingPeriods",
              "type": "uint256"
            },
            {
              "internalType": "uint256",
              "name": "withdrawPeriod",
              "type": "uint256"
            },
            {
              "internalType": "uint256",
              "name": "safetyPeriod",
              "type": "uint256"
            },
            {
              "internalType": "uint256",
              "name": "withdrawRequestEnablePeriod",
              "type": "uint256"
            },
            {
              "internalType": "uint256",
              "name": "withdrawRequestPendingPeriod",
              "type": "uint256"
            },
            {
              "internalType": "uint256",
              "name": "setMaxBountyDelay",
              "type": "uint256"
            },
            {
              "internalType": "uint256",
              "name": "claimFee",
              "type": "uint256"
            }
          ],
          "internalType": "struct IHATVaultsRegistry.GeneralParameters",
          "name": "",
          "type": "tuple"
        }
      ],
      "stateMutability": "view",
      "type": "function"
    },
    {
      "inputs": [],
      "name": "getNumberOfVaults",
      "outputs": [
        {
          "internalType": "uint256",
          "name": "",
          "type": "uint256"
        }
      ],
      "stateMutability": "view",
      "type": "function"
    },
    {
      "inputs": [
        {
          "internalType": "address",
          "name": "",
          "type": "address"
        }
      ],
      "name": "governanceHatReward",
      "outputs": [
        {
          "internalType": "uint256",
          "name": "",
          "type": "uint256"
        }
      ],
      "stateMutability": "view",
      "type": "function"
    },
    {
      "inputs": [
        {
          "internalType": "address",
          "name": "",
          "type": "address"
        },
        {
          "internalType": "address",
          "name": "",
          "type": "address"
        }
      ],
      "name": "hackersHatReward",
      "outputs": [
        {
          "internalType": "uint256",
          "name": "",
          "type": "uint256"
        }
      ],
      "stateMutability": "view",
      "type": "function"
    },
    {
      "inputs": [],
      "name": "hatVaultImplementation",
      "outputs": [
        {
          "internalType": "address",
          "name": "",
          "type": "address"
        }
      ],
      "stateMutability": "view",
      "type": "function"
    },
    {
      "inputs": [
        {
          "internalType": "uint256",
          "name": "",
          "type": "uint256"
        }
      ],
      "name": "hatVaults",
      "outputs": [
        {
          "internalType": "address",
          "name": "",
          "type": "address"
        }
      ],
      "stateMutability": "view",
      "type": "function"
    },
    {
      "inputs": [],
      "name": "isEmergencyPaused",
      "outputs": [
        {
          "internalType": "bool",
          "name": "",
          "type": "bool"
        }
      ],
      "stateMutability": "view",
      "type": "function"
    },
    {
      "inputs": [
        {
          "internalType": "address",
          "name": "",
          "type": "address"
        }
      ],
      "name": "isVaultVisible",
      "outputs": [
        {
          "internalType": "bool",
          "name": "",
          "type": "bool"
        }
      ],
      "stateMutability": "view",
      "type": "function"
    },
    {
      "inputs": [
        {
          "internalType": "string",
          "name": "_descriptionHash",
          "type": "string"
        }
      ],
      "name": "logClaim",
      "outputs": [],
      "stateMutability": "payable",
      "type": "function"
    },
    {
      "inputs": [],
      "name": "owner",
      "outputs": [
        {
          "internalType": "address",
          "name": "",
          "type": "address"
        }
      ],
      "stateMutability": "view",
      "type": "function"
    },
    {
      "inputs": [],
      "name": "renounceOwnership",
      "outputs": [],
      "stateMutability": "nonpayable",
      "type": "function"
    },
    {
      "inputs": [
        {
          "internalType": "uint256",
          "name": "_fee",
          "type": "uint256"
        }
      ],
      "name": "setClaimFee",
      "outputs": [],
      "stateMutability": "nonpayable",
      "type": "function"
    },
    {
      "inputs": [
        {
          "internalType": "address",
          "name": "_defaultArbitrator",
          "type": "address"
        }
      ],
      "name": "setDefaultArbitrator",
      "outputs": [],
      "stateMutability": "nonpayable",
      "type": "function"
    },
    {
      "inputs": [
        {
          "internalType": "bool",
          "name": "_defaultArbitratorCanChangeBounty",
          "type": "bool"
        }
      ],
      "name": "setDefaultArbitratorCanChangeBounty",
      "outputs": [],
      "stateMutability": "nonpayable",
      "type": "function"
    },
    {
      "inputs": [
        {
          "internalType": "uint256",
          "name": "_defaultChallengePeriod",
          "type": "uint256"
        }
      ],
      "name": "setDefaultChallengePeriod",
      "outputs": [],
      "stateMutability": "nonpayable",
      "type": "function"
    },
    {
      "inputs": [
        {
          "internalType": "uint256",
          "name": "_defaultChallengeTimeOutPeriod",
          "type": "uint256"
        }
      ],
      "name": "setDefaultChallengeTimeOutPeriod",
      "outputs": [],
      "stateMutability": "nonpayable",
      "type": "function"
    },
    {
      "inputs": [
        {
          "internalType": "uint256",
          "name": "_defaultBountyGovernanceHAT",
          "type": "uint256"
        },
        {
          "internalType": "uint256",
          "name": "_defaultBountyHackerHATVested",
          "type": "uint256"
        }
      ],
      "name": "setDefaultHATBountySplit",
      "outputs": [],
      "stateMutability": "nonpayable",
      "type": "function"
    },
    {
      "inputs": [
        {
          "internalType": "bool",
          "name": "_isEmergencyPaused",
          "type": "bool"
        }
      ],
      "name": "setEmergencyPaused",
      "outputs": [],
      "stateMutability": "nonpayable",
      "type": "function"
    },
    {
      "inputs": [
        {
          "internalType": "address",
          "name": "_feeSetter",
          "type": "address"
        }
      ],
      "name": "setFeeSetter",
      "outputs": [],
      "stateMutability": "nonpayable",
      "type": "function"
    },
    {
      "inputs": [
        {
          "internalType": "uint256",
          "name": "_duration",
          "type": "uint256"
        },
        {
          "internalType": "uint256",
          "name": "_periods",
          "type": "uint256"
        }
      ],
      "name": "setHatVestingParams",
      "outputs": [],
      "stateMutability": "nonpayable",
      "type": "function"
    },
    {
      "inputs": [
        {
          "internalType": "uint256",
          "name": "_delay",
          "type": "uint256"
        }
      ],
      "name": "setMaxBountyDelay",
      "outputs": [],
      "stateMutability": "nonpayable",
      "type": "function"
    },
    {
      "inputs": [
        {
          "internalType": "address",
          "name": "_vault",
          "type": "address"
        },
        {
          "internalType": "bool",
          "name": "_visible",
          "type": "bool"
        }
      ],
      "name": "setVaultVisibility",
      "outputs": [],
      "stateMutability": "nonpayable",
      "type": "function"
    },
    {
      "inputs": [
        {
          "internalType": "uint256",
          "name": "_withdrawRequestPendingPeriod",
          "type": "uint256"
        },
        {
          "internalType": "uint256",
          "name": "_withdrawRequestEnablePeriod",
          "type": "uint256"
        }
      ],
      "name": "setWithdrawRequestParams",
      "outputs": [],
      "stateMutability": "nonpayable",
      "type": "function"
    },
    {
      "inputs": [
        {
          "internalType": "uint256",
          "name": "_withdrawPeriod",
          "type": "uint256"
        },
        {
          "internalType": "uint256",
          "name": "_safetyPeriod",
          "type": "uint256"
        }
      ],
      "name": "setWithdrawSafetyPeriod",
      "outputs": [],
      "stateMutability": "nonpayable",
      "type": "function"
    },
    {
      "inputs": [
        {
          "internalType": "address",
          "name": "_asset",
          "type": "address"
        },
        {
          "internalType": "address[]",
          "name": "_beneficiaries",
          "type": "address[]"
        },
        {
          "internalType": "uint256",
          "name": "_amountOutMinimum",
          "type": "uint256"
        },
        {
          "internalType": "address",
          "name": "_routingContract",
          "type": "address"
        },
        {
          "internalType": "bytes",
          "name": "_routingPayload",
          "type": "bytes"
        }
      ],
      "name": "swapAndSend",
      "outputs": [],
      "stateMutability": "nonpayable",
      "type": "function"
    },
    {
      "inputs": [],
      "name": "tokenLockFactory",
      "outputs": [
        {
          "internalType": "contract ITokenLockFactory",
          "name": "",
          "type": "address"
        }
      ],
      "stateMutability": "view",
      "type": "function"
    },
    {
      "inputs": [
        {
          "internalType": "address",
          "name": "newOwner",
          "type": "address"
        }
      ],
      "name": "transferOwnership",
      "outputs": [],
      "stateMutability": "nonpayable",
      "type": "function"
    },
    {
      "inputs": [
        {
          "internalType": "uint256",
          "name": "_challengePeriod",
          "type": "uint256"
        }
      ],
      "name": "validateChallengePeriod",
      "outputs": [],
      "stateMutability": "pure",
      "type": "function"
    },
    {
      "inputs": [
        {
          "internalType": "uint256",
          "name": "_challengeTimeOutPeriod",
          "type": "uint256"
        }
      ],
      "name": "validateChallengeTimeOutPeriod",
      "outputs": [],
      "stateMutability": "pure",
      "type": "function"
    },
    {
      "inputs": [
        {
          "internalType": "uint256",
          "name": "_bountyGovernanceHAT",
          "type": "uint256"
        },
        {
          "internalType": "uint256",
          "name": "_bountyHackerHATVested",
          "type": "uint256"
        }
      ],
      "name": "validateHATSplit",
      "outputs": [],
      "stateMutability": "pure",
      "type": "function"
    }
  ],
  "bytecode": {
    "object": "0x60e06040523480156200001157600080fd5b5060405162002bd838038062002bd88339810160408190526200003491620001d7565b6200003f336200013b565b6200004a856200013b565b6001600160a01b03808716608052841660c0526200006983836200018b565b6001600160a01b0390811660a090815260408051610100810182526276a700808252605a60208301819052619ab0938301849052610e106060840181905262093a80608085018190529584018690526202a30060c08501819052600060e09095018590526005939093556006919091556007939093556008929092556009839055600a92909255600b55600c55600e92909255600f55601080546001600160a01b031916939091169290921790915550506203f480601155622e24806012556013805460ff191660011790556200027c565b600080546001600160a01b038381166001600160a01b0319831681178455604051919092169283917f8be0079c531659141344cd1fd0a4f28419497f9722a3daafe3b4186f6b6457e09190a35050565b6107d06200019a828462000254565b1115620001ba576040516307af556960e21b815260040160405180910390fd5b5050565b6001600160a01b0381168114620001d457600080fd5b50565b60008060008060008060c08789031215620001f157600080fd5b8651620001fe81620001be565b60208801519096506200021181620001be565b60408801519095506200022481620001be565b80945050606087015192506080870151915060a08701516200024681620001be565b809150509295509295509295565b808201808211156200027657634e487b7160e01b600052601160045260246000fd5b92915050565b60805160a05160c051612910620002c8600039600081816104d3015281816111fe0152611a7f0152600081816102fe01526114d801526000818161038a0152610eb801526129106000f3fe60806040526004361061025c5760003560e01c806370cb13b511610144578063db0f267b116100b6578063e367497d1161007a578063e367497d1461080c578063ea55f18e1461081f578063ebf7830c14610835578063f2fde38b14610855578063f51a90e414610875578063f836c4491461088b57600080fd5b8063db0f267b1461070e578063db3990531461072e578063dd072f031461075e578063df1b1ebe1461077e578063e2b001bf146107ec57600080fd5b8063a8acd94611610108578063a8acd9461461064c578063aec1d1081461066c578063b19805af1461068c578063bcfdfc58146106ac578063c99a02b0146106d9578063d3e0bc56146106f957600080fd5b806370cb13b5146105b9578063715018a6146105d957806387cf3ef4146105ee5780638da5cb5b1461060e5780639d0ab89f1461062c57600080fd5b8063290d10c4116101dd578063354d75b9116101a1578063354d75b9146104f5578063398488eb1461052d578063520a924d1461054d578063544920781461056d5780635dd11415146105835780636ed93dd0146105a357600080fd5b8063290d10c4146103ec5780632ac60b7d1461040b5780632cc85f971461042b5780632e75ab50146104a15780633449a865146104c157600080fd5b8063132b1cc611610224578063132b1cc6146103365780631b2cae6c1461035857806321c0437a1461037857806322f84ada146103ac57806324cda22d146103cc57600080fd5b806306c6e3b81461026157806311566d741461029e578063116dbc93146102c257806311c2aae3146102ec578063120c1a7e14610320575b600080fd5b34801561026d57600080fd5b5061028161027c366004612107565b6108ab565b6040516001600160a01b0390911681526020015b60405180910390f35b3480156102aa57600080fd5b506102b460115481565b604051908152602001610295565b3480156102ce57600080fd5b506013546102dc9060ff1681565b6040519015158152602001610295565b3480156102f857600080fd5b506102817f000000000000000000000000000000000000000000000000000000000000000081565b34801561032c57600080fd5b506102b4600f5481565b34801561034257600080fd5b50610356610351366004612120565b6108d5565b005b34801561036457600080fd5b5061035661037336600461215b565b61092f565b34801561038457600080fd5b506102817f000000000000000000000000000000000000000000000000000000000000000081565b3480156103b857600080fd5b506103566103c7366004612107565b61097f565b3480156103d857600080fd5b506103566103e7366004612107565b6109c5565b3480156103f857600080fd5b506013546102dc90610100900460ff1681565b34801561041757600080fd5b50610356610426366004612107565b610a26565b34801561043757600080fd5b50610440610a71565b6040516102959190600061010082019050825182526020830151602083015260408301516040830152606083015160608301526080830151608083015260a083015160a083015260c083015160c083015260e083015160e083015292915050565b3480156104ad57600080fd5b506103566104bc366004612107565b610b07565b3480156104cd57600080fd5b506102817f000000000000000000000000000000000000000000000000000000000000000081565b34801561050157600080fd5b506102b4610510366004612198565b600360209081526000928352604080842090915290825290205481565b34801561053957600080fd5b50610356610548366004612120565b610b44565b34801561055957600080fd5b50610356610568366004612120565b610bf7565b34801561057957600080fd5b506102b4600e5481565b34801561058f57600080fd5b5061035661059e3660046121d1565b610c85565b3480156105af57600080fd5b506102b461271081565b3480156105c557600080fd5b506103566105d4366004612120565b610d1c565b3480156105e557600080fd5b50610356610d4c565b3480156105fa57600080fd5b50600d54610281906001600160a01b031681565b34801561061a57600080fd5b506000546001600160a01b0316610281565b34801561063857600080fd5b5061035661064736600461215b565b610d60565b34801561065857600080fd5b50610356610667366004612217565b610db1565b34801561067857600080fd5b50610356610687366004612234565b610e03565b34801561069857600080fd5b506103566106a7366004612217565b610e5f565b3480156106b857600080fd5b506102b46106c7366004612217565b60046020526000908152604090205481565b3480156106e557600080fd5b506102816106f4366004612305565b610eb1565b34801561070557600080fd5b506001546102b4565b34801561071a57600080fd5b50601054610281906001600160a01b031681565b34801561073a57600080fd5b506102dc610749366004612217565b60026020526000908152604090205460ff1681565b34801561076a57600080fd5b50610356610779366004612120565b61104e565b34801561078a57600080fd5b50600554600654600754600854600954600a54600b54600c546107b1979695949392919088565b604080519889526020890197909752958701949094526060860192909252608085015260a084015260c083015260e082015261010001610295565b3480156107f857600080fd5b50610356610807366004612460565b6110fb565b61035661081a36600461252c565b61170e565b34801561082b57600080fd5b506102b46107d081565b34801561084157600080fd5b50610356610850366004612107565b6117b9565b34801561086157600080fd5b50610356610870366004612217565b611801565b34801561088157600080fd5b506102b460125481565b34801561089757600080fd5b506103566108a6366004612107565b61187c565b600181815481106108bb57600080fd5b6000918252602090912001546001600160a01b0316905081565b6108dd6118c2565b6108e78282610d1c565b600e829055600f81905560408051838152602081018390527f9b9cfb21b737a43af5e89fc41ea51449648ce863399879a0625210588b164e5a91015b60405180910390a15050565b6109376118c2565b6013805460ff19168215159081179091556040519081527f8dd94cb9d51a52430f03387ae2b623450f5bbb1201ce3d08f9dc3561f258cf41906020015b60405180910390a150565b6109876118c2565b610990816117b9565b60118190556040518181527fc14f60dbf7139b2e92ad845e95c05208c6070962e410202d3b8ae7a1378cde3590602001610974565b6109cd6118c2565b6202a3008110156109f15760405163514e00f160e01b815260040160405180910390fd5b600b8190556040518181527fc2f118f047950efbfb94865ef4fc99eedc6b5e992e4fb970552deba4fda0d8e490602001610974565b6202a300811015610a4a57604051630fe180cd60e01b815260040160405180910390fd5b62700f80811115610a6e5760405163599dfd5d60e11b815260040160405180910390fd5b50565b610ab960405180610100016040528060008152602001600081526020016000815260200160008152602001600081526020016000815260200160008152602001600081525090565b506040805161010081018252600554815260065460208201526007549181019190915260085460608201526009546080820152600a5460a0820152600b5460c0820152600c5460e082015290565b610b0f6118c2565b600c8190556040518181527f13fa675fefcae94b0250d92c1fec53cd08f7031592b28bf9429f840b7d25509790602001610974565b610b4c6118c2565b6276a700821115610b705760405163766cee2b60e01b815260040160405180910390fd5b615460811015610b9357604051638750566960e01b815260040160405180910390fd5b6283d600811115610bb7576040516319979c0960e11b815260040160405180910390fd5b600a829055600981905560408051838152602081018390527f7b8aa35646b8fddc3ccaae8e1069d8c6c365e2ba2e11bb1f0018f8d01992f25b9101610923565b610bff6118c2565b610e10821015610c2257604051639a4e9a8d60e01b815260040160405180910390fd5b615460811115610c45576040516310c4878160e11b815260040160405180910390fd5b6007829055600881905560408051838152602081018390527f47c8a5b15f6172a5053bfac488642484dd38e9c0f3073c23c5d822c4cbab53099101610923565b6000610c91828461257f565b6001600160a01b038087166000908152600360209081526040808320938916835292905290812080549293508592909190610ccd90849061257f565b90915550506001600160a01b03851660009081526004602052604081208054849290610cfa90849061257f565b90915550610d1590506001600160a01b03861633308461191c565b5050505050565b6107d0610d29828461257f565b1115610d48576040516307af556960e21b815260040160405180910390fd5b5050565b610d546118c2565b610d5e600061198d565b565b610d686118c2565b601380548215156101000261ff00199091161790556040517fa18d588b4da0466ca9a3ade6753c1cf94f4ccc599b9134045aeb55aef53293c89061097490831515815260200190565b610db96118c2565b601080546001600160a01b0319166001600160a01b0383169081179091556040517f4664bc54da0879a6626395d3154ebb4adef21b4ced228635ce9583e86148a9a790600090a250565b610e0b6118c2565b6001600160a01b038216600081815260026020526040808220805460ff191685151590811790915590519092917f0f8de79a0a8e021d06491203f918550c01da39c26f2e03c5f5571c75edb7d93791a35050565b610e676118c2565b600d80546001600160a01b0319166001600160a01b0383169081179091556040517f9993507f53024702e2de1be66f6c48c8957ac708927b86b3bdf4e335f586947090600090a250565b6000610edc7f00000000000000000000000000000000000000000000000000000000000000006119dd565b9050806001600160a01b0316637278410d6040518061014001604052808b6001600160a01b031681526020018781526020018681526020018a81526020018981526020018e6001600160a01b031681526020018d6001600160a01b031681526020018c6001600160a01b031681526020018515158152602001888152506040518263ffffffff1660e01b8152600401610f7591906125e8565b600060405180830381600087803b158015610f8f57600080fd5b505af1158015610fa3573d6000803e3d6000fd5b50506001805480820182556000919091527fb10e2d527612073b26eecdfd717e6a320cf44b4afac2b0732d9fcbe2b7fa0cf60180546001600160a01b0319166001600160a01b03858116918217909255604051918f16935091507f6b9670698cdb09faa8051d300c46f33e8407a000d9fac8273c30335c5418f33690611038908d908d908d908d908d908d908d908d906126bd565b60405180910390a39a9950505050505050505050565b6110566118c2565b62ed4e0082106110795760405163181b6a8d60e01b815260040160405180910390fd5b8060000361109a5760405163497a0fc360e01b815260040160405180910390fd5b808210156110bb576040516301a127dd60e51b815260040160405180910390fd5b6005829055600681905560408051838152602081018390527fa3d5527033c65a7e5eda0ffec2fe75b8bfc358a419914452e5e29993f531136d9101610923565b6111036118c2565b6111356040518060a0016040528060008152602001600081526020016000815260200160008152602001600081525090565b6001600160a01b03881660009081526004602052604081205482525b868110156111d7576001600160a01b03891660009081526003602052604081209089898481811061118457611184612735565b90506020020160208101906111999190612217565b6001600160a01b03168152602081019190915260400160002054825183906111c290839061257f565b905250806111cf8161274b565b915050611151565b5080516000036111fa5760405163dbe66a0f60e01b815260040160405180910390fd5b80517f00000000000000000000000000000000000000000000000000000000000000009061122d908a9088888888611a7a565b602080850191825260408086019390935284516001600160a01b038d166000908152600490925292902054905184516112669190612764565b6112709190612777565b61127a9190612796565b608083015281516001600160a01b038a16600090815260046020908152604090912054908401516112ab9190612777565b6112b59190612796565b6001600160a01b038a166000908152600460205260408120919091555b878110156116605782516001600160a01b038b166000908152600360205260408120909190828c8c8681811061130a5761130a612735565b905060200201602081019061131f9190612217565b6001600160a01b03166001600160a01b0316815260200190815260200160002054856040015161134f9190612777565b6113599190612796565b84516001600160a01b038d16600090815260036020526040812092935091828d8d8781811061138a5761138a612735565b905060200201602081019061139f9190612217565b6001600160a01b03168152602080820192909252604001600020549087015187516113ca9190612764565b6113d49190612777565b6113de9190612796565b905081856060018181516113f2919061257f565b90525084516001600160a01b038d166000908152600360205260408120908d8d8781811061142257611422612735565b90506020020160208101906114379190612217565b6001600160a01b03166001600160a01b031681526020019081526020016000205486602001516114679190612777565b6114719190612796565b6001600160a01b038d166000908152600360205260408120908d8d8781811061149c5761149c612735565b90506020020160208101906114b19190612217565b6001600160a01b03168152602081019190915260400160009081209190915582156115ce577f00000000000000000000000000000000000000000000000000000000000000006001600160a01b031663e95cd0518660008f8f8981811061151a5761151a612735565b905060200201602081019061152f9190612217565b60055488904290611540908261257f565b6006546040516001600160e01b031960e08a901b168152611575979695949392919060009081906002906001906004016127b8565b6020604051808303816000875af1158015611594573d6000803e3d6000fd5b505050506040513d601f19601f820116820180604052508101906115b89190612848565b90506115ce6001600160a01b0386168285611d68565b806001600160a01b03168c8c868181106115ea576115ea612735565b90506020020160208101906115ff9190612217565b6001600160a01b03167f4f8abed31d725d1e727a30b06defad85513b99ee0d373925f63d71e099edaa308486604051611642929190918252602082015260400190565b60405180910390a350505080806116589061274b565b9150506112d2565b5061169b6116766000546001600160a01b031690565b8360600151846040015161168a9190612764565b6001600160a01b0384169190611d68565b600080546001600160a01b03166001600160a01b03167f4f8abed31d725d1e727a30b06defad85513b99ee0d373925f63d71e099edaa308460800151856060015186604001516116eb9190612764565b6040805192835260208301919091520160405180910390a3505050505050505050565b600c541561177557600c5434101561173957604051633244470d60e01b815260040160405180910390fd5b600080546040516001600160a01b03909116913480156108fc02929091818181858888f19350505050158015611773573d6000803e3d6000fd5b505b336001600160a01b03167f9fcc410c642f895d8e83453cc710a30c7f00e42070fb7fd399c29b24781615e8826040516117ae9190612865565b60405180910390a250565b620151808110156117dd57604051633a50e6a160e01b815260040160405180910390fd5b62069780811115610a6e576040516317b7efeb60e11b815260040160405180910390fd5b6118096118c2565b6001600160a01b0381166118735760405162461bcd60e51b815260206004820152602660248201527f4f776e61626c653a206e6577206f776e657220697320746865207a65726f206160448201526564647265737360d01b60648201526084015b60405180910390fd5b610a6e8161198d565b6118846118c2565b61188d81610a26565b60128190556040518181527fe6f3ddadc73ca32beb7d9755d5a7d82ab53101c097e743fd05412e6a1ce9deb990602001610974565b6000546001600160a01b03163314610d5e5760405162461bcd60e51b815260206004820181905260248201527f4f776e61626c653a2063616c6c6572206973206e6f7420746865206f776e6572604482015260640161186a565b6040516001600160a01b03808516602483015283166044820152606481018290526119879085906323b872dd60e01b906084015b60408051601f198184030181529190526020810180516001600160e01b03166001600160e01b031990931692909217909152611d9d565b50505050565b600080546001600160a01b038381166001600160a01b0319831681178455604051919092169283917f8be0079c531659141344cd1fd0a4f28419497f9722a3daafe3b4186f6b6457e09190a35050565b6000604051733d602d80600a3d3981f3363d3d373d3d3d363d7360601b81528260601b60148201526e5af43d82803e903d91602b57fd5bf360881b60288201526037816000f09150506001600160a01b038116611a755760405162461bcd60e51b8152602060048201526016602482015275115490cc4c4d8dce8818dc99585d194819985a5b195960521b604482015260640161186a565b919050565b6000807f00000000000000000000000000000000000000000000000000000000000000006001600160a01b03808216908a1603611abe578760009250925050611d5d565b611ad26001600160a01b038a16878a611e6f565b6040516370a0823160e01b81523060048201526000906001600160a01b038316906370a0823190602401602060405180830381865afa158015611b19573d6000803e3d6000fd5b505050506040513d601f19601f82011682018060405250810190611b3d9190612878565b6040516370a0823160e01b81523060048201529091506000906001600160a01b038c16906370a0823190602401602060405180830381865afa158015611b87573d6000803e3d6000fd5b505050506040513d601f19601f82011682018060405250810190611bab9190612878565b90506000886001600160a01b03168888604051611bc9929190612891565b6000604051808303816000865af19150503d8060008114611c06576040519150601f19603f3d011682016040523d82523d6000602084013e611c0b565b606091505b5050905080611c2d5760405163081ceff360e41b815260040160405180910390fd5b6040516370a0823160e01b815230600482015283906001600160a01b038616906370a0823190602401602060405180830381865afa158015611c73573d6000803e3d6000fd5b505050506040513d601f19601f82011682018060405250810190611c979190612878565b611ca19190612764565b6040516370a0823160e01b81523060048201529096506001600160a01b038d16906370a0823190602401602060405180830381865afa158015611ce8573d6000803e3d6000fd5b505050506040513d601f19601f82011682018060405250810190611d0c9190612878565b611d169083612764565b611d20908c612764565b945089861015611d4357604051638a866e2560e01b815260040160405180910390fd5b611d586001600160a01b038d168a6000611e6f565b505050505b965096945050505050565b6040516001600160a01b038316602482015260448101829052611d9890849063a9059cbb60e01b90606401611950565b505050565b6000611df2826040518060400160405280602081526020017f5361666545524332303a206c6f772d6c6576656c2063616c6c206661696c6564815250856001600160a01b0316611f849092919063ffffffff16565b805190915015611d985780806020019051810190611e1091906128a1565b611d985760405162461bcd60e51b815260206004820152602a60248201527f5361666545524332303a204552433230206f7065726174696f6e20646964206e6044820152691bdd081cdd58d8d9595960b21b606482015260840161186a565b801580611ee95750604051636eb1769f60e11b81523060048201526001600160a01b03838116602483015284169063dd62ed3e90604401602060405180830381865afa158015611ec3573d6000803e3d6000fd5b505050506040513d601f19601f82011682018060405250810190611ee79190612878565b155b611f545760405162461bcd60e51b815260206004820152603660248201527f5361666545524332303a20617070726f76652066726f6d206e6f6e2d7a65726f60448201527520746f206e6f6e2d7a65726f20616c6c6f77616e636560501b606482015260840161186a565b6040516001600160a01b038316602482015260448101829052611d9890849063095ea7b360e01b90606401611950565b6060611f938484600085611f9d565b90505b9392505050565b606082471015611ffe5760405162461bcd60e51b815260206004820152602660248201527f416464726573733a20696e73756666696369656e742062616c616e636520666f6044820152651c8818d85b1b60d21b606482015260840161186a565b6001600160a01b0385163b6120555760405162461bcd60e51b815260206004820152601d60248201527f416464726573733a2063616c6c20746f206e6f6e2d636f6e7472616374000000604482015260640161186a565b600080866001600160a01b0316858760405161207191906128be565b60006040518083038185875af1925050503d80600081146120ae576040519150601f19603f3d011682016040523d82523d6000602084013e6120b3565b606091505b50915091506120c38282866120ce565b979650505050505050565b606083156120dd575081611f96565b8251156120ed5782518084602001fd5b8160405162461bcd60e51b815260040161186a9190612865565b60006020828403121561211957600080fd5b5035919050565b6000806040838503121561213357600080fd5b50508035926020909101359150565b8015158114610a6e57600080fd5b8035611a7581612142565b60006020828403121561216d57600080fd5b8135611f9681612142565b6001600160a01b0381168114610a6e57600080fd5b8035611a7581612178565b600080604083850312156121ab57600080fd5b82356121b681612178565b915060208301356121c681612178565b809150509250929050565b600080600080608085870312156121e757600080fd5b84356121f281612178565b9350602085013561220281612178565b93969395505050506040820135916060013590565b60006020828403121561222957600080fd5b8135611f9681612178565b6000806040838503121561224757600080fd5b823561225281612178565b915060208301356121c681612142565b634e487b7160e01b600052604160045260246000fd5b600082601f83011261228957600080fd5b813567ffffffffffffffff808211156122a4576122a4612262565b604051601f8301601f19908116603f011681019082821181831017156122cc576122cc612262565b816040528381528660208588010111156122e557600080fd5b836020870160208301376000602085830101528094505050505092915050565b6000806000806000806000806000808a8c0361018081121561232657600080fd5b8b3561233181612178565b9a5060208c013561234181612178565b995060408c013561235181612178565b985060608c013561236181612178565b975060808c013596506060609f198201121561237c57600080fd5b506040516060810167ffffffffffffffff82821081831117156123a1576123a1612262565b8160405260a08e0135835260c08e0135602084015260e08e013560408401528297506101008e01359250808311156123d857600080fd5b50506123e68d828e01612278565b9450506101208b013592506101408b013591506124066101608c01612150565b90509295989b9194979a5092959850565b60008083601f84011261242957600080fd5b50813567ffffffffffffffff81111561244157600080fd5b60208301915083602082850101111561245957600080fd5b9250929050565b600080600080600080600060a0888a03121561247b57600080fd5b873561248681612178565b9650602088013567ffffffffffffffff808211156124a357600080fd5b818a0191508a601f8301126124b757600080fd5b8135818111156124c657600080fd5b8b60208260051b85010111156124db57600080fd5b602083019850965060408a013595506124f660608b0161218d565b945060808a013591508082111561250c57600080fd5b506125198a828b01612417565b989b979a50959850939692959293505050565b60006020828403121561253e57600080fd5b813567ffffffffffffffff81111561255557600080fd5b61256184828501612278565b949350505050565b634e487b7160e01b600052601160045260246000fd5b8082018082111561259257612592612569565b92915050565b60005b838110156125b357818101518382015260200161259b565b50506000910152565b600081518084526125d4816020860160208601612598565b601f01601f19169290920160200192915050565b602081526126026020820183516001600160a01b03169052565b6020820151604082015260408201516060820152606082015160808201526000608083015161264860a08401828051825260208082015190830152604090810151910152565b5060a0830151610100612665818501836001600160a01b03169052565b60c08501519150610120612683818601846001600160a01b03169052565b60e08601516001600160a01b03166101408601529085015115156101608501528401516101808085015290506125616101a08401826125bc565b6001600160a01b038981168252881660208201526040810187905260006101406126fe60608401898051825260208082015190830152604090810151910152565b8060c0840152612710818401886125bc565b60e0840196909652505061010081019290925215156101209091015295945050505050565b634e487b7160e01b600052603260045260246000fd5b60006001820161275d5761275d612569565b5060010190565b8181038181111561259257612592612569565b600081600019048311821515161561279157612791612569565b500290565b6000826127b357634e487b7160e01b600052601260045260246000fd5b500490565b6001600160a01b038c811682528b811660208301528a166040820152606081018990526080810188905260a0810187905260c0810186905260e08101859052610100810184905261016081016003841061282257634e487b7160e01b600052602160045260246000fd5b8361012083015261283861014083018415159052565b9c9b505050505050505050505050565b60006020828403121561285a57600080fd5b8151611f9681612178565b602081526000611f9660208301846125bc565b60006020828403121561288a57600080fd5b5051919050565b8183823760009101908152919050565b6000602082840312156128b357600080fd5b8151611f9681612142565b600082516128d0818460208701612598565b919091019291505056fea2646970667358221220565eacd2f8de8109435e76a6e9cde0798f6db4a7bb0570bba90f2d93efda36be64736f6c63430008100033",
    "linkReferences": {}
  },
  "methodIdentifiers": {
    "HAT()": "3449a865",
    "HUNDRED_PERCENT()": "6ed93dd0",
    "MAX_HAT_SPLIT()": "ea55f18e",
    "addTokensToSwap(address,address,uint256,uint256)": "5dd11415",
    "createVault(address,address,address,address,uint256,(uint256,uint256,uint256),string,uint256,uint256,bool)": "c99a02b0",
    "defaultArbitrator()": "db0f267b",
    "defaultArbitratorCanChangeBounty()": "116dbc93",
    "defaultBountyGovernanceHAT()": "54492078",
    "defaultBountyHackerHATVested()": "120c1a7e",
    "defaultChallengePeriod()": "11566d74",
    "defaultChallengeTimeOutPeriod()": "f51a90e4",
    "feeSetter()": "87cf3ef4",
    "generalParameters()": "df1b1ebe",
    "getGeneralParameters()": "2cc85f97",
    "getNumberOfVaults()": "d3e0bc56",
    "governanceHatReward(address)": "bcfdfc58",
    "hackersHatReward(address,address)": "354d75b9",
    "hatVaultImplementation()": "21c0437a",
    "hatVaults(uint256)": "06c6e3b8",
    "isEmergencyPaused()": "290d10c4",
    "isVaultVisible(address)": "db399053",
    "logClaim(string)": "e367497d",
    "owner()": "8da5cb5b",
    "renounceOwnership()": "715018a6",
    "setClaimFee(uint256)": "2e75ab50",
    "setDefaultArbitrator(address)": "a8acd946",
    "setDefaultArbitratorCanChangeBounty(bool)": "1b2cae6c",
    "setDefaultChallengePeriod(uint256)": "22f84ada",
    "setDefaultChallengeTimeOutPeriod(uint256)": "f836c449",
    "setDefaultHATBountySplit(uint256,uint256)": "132b1cc6",
    "setEmergencyPaused(bool)": "9d0ab89f",
    "setFeeSetter(address)": "b19805af",
    "setHatVestingParams(uint256,uint256)": "dd072f03",
    "setMaxBountyDelay(uint256)": "24cda22d",
    "setVaultVisibility(address,bool)": "aec1d108",
    "setWithdrawRequestParams(uint256,uint256)": "398488eb",
    "setWithdrawSafetyPeriod(uint256,uint256)": "520a924d",
    "swapAndSend(address,address[],uint256,address,bytes)": "e2b001bf",
    "tokenLockFactory()": "11c2aae3",
    "transferOwnership(address)": "f2fde38b",
    "validateChallengePeriod(uint256)": "ebf7830c",
    "validateChallengeTimeOutPeriod(uint256)": "2ac60b7d",
    "validateHATSplit(uint256,uint256)": "70cb13b5"
  },
  "id": 2
}