{
  "abi": [
    {
      "inputs": [
        {
          "internalType": "address",
          "name": "_governance",
          "type": "address"
        }
      ],
      "stateMutability": "nonpayable",
      "type": "constructor"
    },
    {
      "inputs": [],
      "name": "ZeroAmount",
      "type": "error"
    },
    {
      "anonymous": false,
      "inputs": [
        {
          "indexed": true,
          "internalType": "address",
          "name": "owner",
          "type": "address"
        },
        {
          "indexed": true,
          "internalType": "address",
          "name": "spender",
          "type": "address"
        },
        {
          "indexed": false,
          "internalType": "uint256",
          "name": "value",
          "type": "uint256"
        }
      ],
      "name": "Approval",
      "type": "event"
    },
    {
      "anonymous": false,
      "inputs": [
        {
          "indexed": true,
          "internalType": "address",
          "name": "delegator",
          "type": "address"
        },
        {
          "indexed": true,
          "internalType": "address",
          "name": "fromDelegate",
          "type": "address"
        },
        {
          "indexed": true,
          "internalType": "address",
          "name": "toDelegate",
          "type": "address"
        }
      ],
      "name": "DelegateChanged",
      "type": "event"
    },
    {
      "anonymous": false,
      "inputs": [
        {
          "indexed": true,
          "internalType": "address",
          "name": "delegate",
          "type": "address"
        },
        {
          "indexed": false,
          "internalType": "uint256",
          "name": "previousBalance",
          "type": "uint256"
        },
        {
          "indexed": false,
          "internalType": "uint256",
          "name": "newBalance",
          "type": "uint256"
        }
      ],
      "name": "DelegateVotesChanged",
      "type": "event"
    },
    {
      "anonymous": false,
      "inputs": [
        {
          "indexed": true,
          "internalType": "address",
          "name": "minter",
          "type": "address"
        },
        {
          "indexed": false,
          "internalType": "uint256",
          "name": "seedAmount",
          "type": "uint256"
        }
      ],
      "name": "MinterSet",
      "type": "event"
    },
    {
      "anonymous": false,
      "inputs": [
        {
          "indexed": true,
          "internalType": "address",
          "name": "previousOwner",
          "type": "address"
        },
        {
          "indexed": true,
          "internalType": "address",
          "name": "newOwner",
          "type": "address"
        }
      ],
      "name": "OwnershipTransferred",
      "type": "event"
    },
    {
      "anonymous": false,
      "inputs": [
        {
          "indexed": true,
          "internalType": "address",
          "name": "from",
          "type": "address"
        },
        {
          "indexed": true,
          "internalType": "address",
          "name": "to",
          "type": "address"
        },
        {
          "indexed": false,
          "internalType": "uint256",
          "name": "value",
          "type": "uint256"
        }
      ],
      "name": "Transfer",
      "type": "event"
    },
    {
      "inputs": [],
      "name": "DOMAIN_SEPARATOR",
      "outputs": [
        {
          "internalType": "bytes32",
          "name": "",
          "type": "bytes32"
        }
      ],
      "stateMutability": "view",
      "type": "function"
    },
    {
      "inputs": [
        {
          "internalType": "address",
          "name": "owner",
          "type": "address"
        },
        {
          "internalType": "address",
          "name": "spender",
          "type": "address"
        }
      ],
      "name": "allowance",
      "outputs": [
        {
          "internalType": "uint256",
          "name": "",
          "type": "uint256"
        }
      ],
      "stateMutability": "view",
      "type": "function"
    },
    {
      "inputs": [
        {
          "internalType": "address",
          "name": "spender",
          "type": "address"
        },
        {
          "internalType": "uint256",
          "name": "amount",
          "type": "uint256"
        }
      ],
      "name": "approve",
      "outputs": [
        {
          "internalType": "bool",
          "name": "",
          "type": "bool"
        }
      ],
      "stateMutability": "nonpayable",
      "type": "function"
    },
    {
      "inputs": [
        {
          "internalType": "address",
          "name": "account",
          "type": "address"
        }
      ],
      "name": "balanceOf",
      "outputs": [
        {
          "internalType": "uint256",
          "name": "",
          "type": "uint256"
        }
      ],
      "stateMutability": "view",
      "type": "function"
    },
    {
      "inputs": [
        {
          "internalType": "uint256",
          "name": "_amount",
          "type": "uint256"
        }
      ],
      "name": "burn",
      "outputs": [],
      "stateMutability": "nonpayable",
      "type": "function"
    },
    {
      "inputs": [
        {
          "internalType": "address",
          "name": "_from",
          "type": "address"
        },
        {
          "internalType": "uint256",
          "name": "_amount",
          "type": "uint256"
        }
      ],
      "name": "burnFrom",
      "outputs": [],
      "stateMutability": "nonpayable",
      "type": "function"
    },
    {
      "inputs": [],
      "name": "cap",
      "outputs": [
        {
          "internalType": "uint256",
          "name": "",
          "type": "uint256"
        }
      ],
      "stateMutability": "view",
      "type": "function"
    },
    {
      "inputs": [
        {
          "internalType": "address",
          "name": "account",
          "type": "address"
        },
        {
          "internalType": "uint32",
          "name": "pos",
          "type": "uint32"
        }
      ],
      "name": "checkpoints",
      "outputs": [
        {
          "components": [
            {
              "internalType": "uint32",
              "name": "fromBlock",
              "type": "uint32"
            },
            {
              "internalType": "uint224",
              "name": "votes",
              "type": "uint224"
            }
          ],
          "internalType": "struct ERC20Votes.Checkpoint",
          "name": "",
          "type": "tuple"
        }
      ],
      "stateMutability": "view",
      "type": "function"
    },
    {
      "inputs": [],
      "name": "decimals",
      "outputs": [
        {
          "internalType": "uint8",
          "name": "",
          "type": "uint8"
        }
      ],
      "stateMutability": "view",
      "type": "function"
    },
    {
      "inputs": [
        {
          "internalType": "address",
          "name": "spender",
          "type": "address"
        },
        {
          "internalType": "uint256",
          "name": "subtractedValue",
          "type": "uint256"
        }
      ],
      "name": "decreaseAllowance",
      "outputs": [
        {
          "internalType": "bool",
          "name": "",
          "type": "bool"
        }
      ],
      "stateMutability": "nonpayable",
      "type": "function"
    },
    {
      "inputs": [
        {
          "internalType": "address",
          "name": "delegatee",
          "type": "address"
        }
      ],
      "name": "delegate",
      "outputs": [],
      "stateMutability": "nonpayable",
      "type": "function"
    },
    {
      "inputs": [
        {
          "internalType": "address",
          "name": "delegatee",
          "type": "address"
        },
        {
          "internalType": "uint256",
          "name": "nonce",
          "type": "uint256"
        },
        {
          "internalType": "uint256",
          "name": "expiry",
          "type": "uint256"
        },
        {
          "internalType": "uint8",
          "name": "v",
          "type": "uint8"
        },
        {
          "internalType": "bytes32",
          "name": "r",
          "type": "bytes32"
        },
        {
          "internalType": "bytes32",
          "name": "s",
          "type": "bytes32"
        }
      ],
      "name": "delegateBySig",
      "outputs": [],
      "stateMutability": "nonpayable",
      "type": "function"
    },
    {
      "inputs": [
        {
          "internalType": "address",
          "name": "_delegatee",
          "type": "address"
        },
        {
          "internalType": "address",
          "name": "_delegatee2",
          "type": "address"
        }
      ],
      "name": "delegateTwice",
      "outputs": [],
      "stateMutability": "nonpayable",
      "type": "function"
    },
    {
      "inputs": [
        {
          "internalType": "address",
          "name": "account",
          "type": "address"
        }
      ],
      "name": "delegates",
      "outputs": [
        {
          "internalType": "address",
          "name": "",
          "type": "address"
        }
      ],
      "stateMutability": "view",
      "type": "function"
    },
    {
      "inputs": [],
      "name": "getChainId",
      "outputs": [
        {
          "internalType": "uint256",
          "name": "",
          "type": "uint256"
        }
      ],
      "stateMutability": "view",
      "type": "function"
    },
    {
      "inputs": [
        {
          "internalType": "uint256",
          "name": "blockNumber",
          "type": "uint256"
        }
      ],
      "name": "getPastTotalSupply",
      "outputs": [
        {
          "internalType": "uint256",
          "name": "",
          "type": "uint256"
        }
      ],
      "stateMutability": "view",
      "type": "function"
    },
    {
      "inputs": [
        {
          "internalType": "address",
          "name": "account",
          "type": "address"
        },
        {
          "internalType": "uint256",
          "name": "blockNumber",
          "type": "uint256"
        }
      ],
      "name": "getPastVotes",
      "outputs": [
        {
          "internalType": "uint256",
          "name": "",
          "type": "uint256"
        }
      ],
      "stateMutability": "view",
      "type": "function"
    },
    {
      "inputs": [
        {
          "internalType": "address",
          "name": "account",
          "type": "address"
        }
      ],
      "name": "getVotes",
      "outputs": [
        {
          "internalType": "uint256",
          "name": "",
          "type": "uint256"
        }
      ],
      "stateMutability": "view",
      "type": "function"
    },
    {
      "inputs": [
        {
          "internalType": "address",
          "name": "spender",
          "type": "address"
        },
        {
          "internalType": "uint256",
          "name": "addedValue",
          "type": "uint256"
        }
      ],
      "name": "increaseAllowance",
      "outputs": [
        {
          "internalType": "bool",
          "name": "",
          "type": "bool"
        }
      ],
      "stateMutability": "nonpayable",
      "type": "function"
    },
    {
      "inputs": [
        {
          "internalType": "address",
          "name": "_account",
          "type": "address"
        },
        {
          "internalType": "uint256",
          "name": "_amount",
          "type": "uint256"
        }
      ],
      "name": "mint",
      "outputs": [],
      "stateMutability": "nonpayable",
      "type": "function"
    },
    {
      "inputs": [
        {
          "internalType": "address",
          "name": "",
          "type": "address"
        }
      ],
      "name": "minters",
      "outputs": [
        {
          "internalType": "uint256",
          "name": "",
          "type": "uint256"
        }
      ],
      "stateMutability": "view",
      "type": "function"
    },
    {
      "inputs": [],
      "name": "name",
      "outputs": [
        {
          "internalType": "string",
          "name": "",
          "type": "string"
        }
      ],
      "stateMutability": "view",
      "type": "function"
    },
    {
      "inputs": [
        {
          "internalType": "address",
          "name": "owner",
          "type": "address"
        }
      ],
      "name": "nonces",
      "outputs": [
        {
          "internalType": "uint256",
          "name": "",
          "type": "uint256"
        }
      ],
      "stateMutability": "view",
      "type": "function"
    },
    {
      "inputs": [
        {
          "internalType": "address",
          "name": "account",
          "type": "address"
        }
      ],
      "name": "numCheckpoints",
      "outputs": [
        {
          "internalType": "uint32",
          "name": "",
          "type": "uint32"
        }
      ],
      "stateMutability": "view",
      "type": "function"
    },
    {
      "inputs": [],
      "name": "owner",
      "outputs": [
        {
          "internalType": "address",
          "name": "",
          "type": "address"
        }
      ],
      "stateMutability": "view",
      "type": "function"
    },
    {
      "inputs": [
        {
          "internalType": "address",
          "name": "owner",
          "type": "address"
        },
        {
          "internalType": "address",
          "name": "spender",
          "type": "address"
        },
        {
          "internalType": "uint256",
          "name": "value",
          "type": "uint256"
        },
        {
          "internalType": "uint256",
          "name": "deadline",
          "type": "uint256"
        },
        {
          "internalType": "uint8",
          "name": "v",
          "type": "uint8"
        },
        {
          "internalType": "bytes32",
          "name": "r",
          "type": "bytes32"
        },
        {
          "internalType": "bytes32",
          "name": "s",
          "type": "bytes32"
        }
      ],
      "name": "permit",
      "outputs": [],
      "stateMutability": "nonpayable",
      "type": "function"
    },
    {
      "inputs": [],
      "name": "renounceOwnership",
      "outputs": [],
      "stateMutability": "nonpayable",
      "type": "function"
    },
    {
      "inputs": [
        {
          "internalType": "address",
          "name": "_minter",
          "type": "address"
        },
        {
          "internalType": "uint256",
          "name": "_seedAmount",
          "type": "uint256"
        }
      ],
      "name": "setMinter",
      "outputs": [],
      "stateMutability": "nonpayable",
      "type": "function"
    },
    {
      "inputs": [],
      "name": "symbol",
      "outputs": [
        {
          "internalType": "string",
          "name": "",
          "type": "string"
        }
      ],
      "stateMutability": "view",
      "type": "function"
    },
    {
      "inputs": [],
      "name": "totalSupply",
      "outputs": [
        {
          "internalType": "uint256",
          "name": "",
          "type": "uint256"
        }
      ],
      "stateMutability": "view",
      "type": "function"
    },
    {
      "inputs": [
        {
          "internalType": "address",
          "name": "to",
          "type": "address"
        },
        {
          "internalType": "uint256",
          "name": "amount",
          "type": "uint256"
        }
      ],
      "name": "transfer",
      "outputs": [
        {
          "internalType": "bool",
          "name": "",
          "type": "bool"
        }
      ],
      "stateMutability": "nonpayable",
      "type": "function"
    },
    {
      "inputs": [
        {
          "internalType": "address",
          "name": "from",
          "type": "address"
        },
        {
          "internalType": "address",
          "name": "to",
          "type": "address"
        },
        {
          "internalType": "uint256",
          "name": "amount",
          "type": "uint256"
        }
      ],
      "name": "transferFrom",
      "outputs": [
        {
          "internalType": "bool",
          "name": "",
          "type": "bool"
        }
      ],
      "stateMutability": "nonpayable",
      "type": "function"
    },
    {
      "inputs": [
        {
          "internalType": "address",
          "name": "_dst",
          "type": "address"
        },
        {
          "internalType": "uint256",
          "name": "_amount",
          "type": "uint256"
        }
      ],
      "name": "transferFromZero",
      "outputs": [],
      "stateMutability": "nonpayable",
      "type": "function"
    },
    {
      "inputs": [
        {
          "internalType": "address",
          "name": "newOwner",
          "type": "address"
        }
      ],
      "name": "transferOwnership",
      "outputs": [],
      "stateMutability": "nonpayable",
      "type": "function"
    }
  ],
  "bytecode": {
    "object": "0x6101606040523480156200001257600080fd5b50604051620026053803806200260583398101604081905262000035916200023c565b806a084595161401484a0000006040518060400160405280600c81526020016b686174732e66696e616e636560a01b81525080604051806040016040528060018152602001603160f81b8152506040518060400160405280600c81526020016b686174732e66696e616e636560a01b8152506040518060400160405280600381526020016212105560ea1b8152508160039081620000d4919062000313565b506004620000e3828262000313565b5050825160209384012082519284019290922060e08390526101008190524660a0818152604080517f8b73c3c69bb8fe3d512ecc4cf759cc79239f7b179b0ffacaa9a75d522b39400f818901819052818301979097526060810194909452608080850193909352308483018190528151808603909301835260c09485019091528151919096012090529290925261012052505080620001c85760405162461bcd60e51b815260206004820152601560248201527f45524332304361707065643a2063617020697320300000000000000000000000604482015260640160405180910390fd5b61014052620001d733620001ea565b620001e281620001ea565b5050620003df565b600a80546001600160a01b038381166001600160a01b0319831681179093556040519116919082907f8be0079c531659141344cd1fd0a4f28419497f9722a3daafe3b4186f6b6457e090600090a35050565b6000602082840312156200024f57600080fd5b81516001600160a01b03811681146200026757600080fd5b9392505050565b634e487b7160e01b600052604160045260246000fd5b600181811c908216806200029957607f821691505b602082108103620002ba57634e487b7160e01b600052602260045260246000fd5b50919050565b601f8211156200030e57600081815260208120601f850160051c81016020861015620002e95750805b601f850160051c820191505b818110156200030a57828155600101620002f5565b5050505b505050565b81516001600160401b038111156200032f576200032f6200026e565b620003478162000340845462000284565b84620002c0565b602080601f8311600181146200037f5760008415620003665750858301515b600019600386901b1c1916600185901b1785556200030a565b600085815260208120601f198616915b82811015620003b0578886015182559484019460019091019084016200038f565b5085821015620003cf5787850151600019600388901b60f8161c191681555b5050505050600190811b01905550565b60805160a05160c05160e0516101005161012051610140516121c4620004416000396000818161028801526115110152600061114a0152600061119901526000611174015260006110cd015260006110f70152600061112101526121c46000f3fe608060405234801561001057600080fd5b50600436106102065760003560e01c806370a082311161011a5780639ce38998116100ad578063d505accf1161007c578063d505accf14610489578063dd62ed3e1461049c578063f1127ed8146104af578063f2fde38b146104ec578063f46eccc4146104ff57600080fd5b80639ce389981461043d578063a457c2d714610450578063a9059cbb14610463578063c3cda5201461047657600080fd5b80638da5cb5b116100e95780638da5cb5b146103fe5780638e539e8c1461040f57806395d89b41146104225780639ab24eb01461042a57600080fd5b806370a08231146103a7578063715018a6146103d057806379cc6790146103d85780637ecebe00146103eb57600080fd5b8063395093511161019d578063587cde1e1161016c578063587cde1e146103025780635c19a95c14610346578063649be12514610359578063693614361461036c5780636fcfff451461037f57600080fd5b806339509351146102b45780633a46b1a8146102c757806340c10f19146102da57806342966c68146102ef57600080fd5b8063313ce567116101d9578063313ce567146102715780633408e47014610280578063355274ea146102865780633644e515146102ac57600080fd5b806306fdde031461020b578063095ea7b31461022957806318160ddd1461024c57806323b872dd1461025e575b600080fd5b61021361051f565b6040516102209190611e86565b60405180910390f35b61023c610237366004611ef0565b6105b1565b6040519015158152602001610220565b6002545b604051908152602001610220565b61023c61026c366004611f1a565b6105cb565b60405160128152602001610220565b46610250565b7f0000000000000000000000000000000000000000000000000000000000000000610250565b6102506105ef565b61023c6102c2366004611ef0565b6105fe565b6102506102d5366004611ef0565b610620565b6102ed6102e8366004611ef0565b61069f565b005b6102ed6102fd366004611f56565b6106f3565b61032e610310366004611f6f565b6001600160a01b039081166000908152600760205260409020541690565b6040516001600160a01b039091168152602001610220565b6102ed610354366004611f6f565b610721565b6102ed610367366004611ef0565b61072b565b6102ed61037a366004611f8a565b610737565b61039261038d366004611f6f565b610755565b60405163ffffffff9091168152602001610220565b6102506103b5366004611f6f565b6001600160a01b031660009081526020819052604090205490565b6102ed610777565b6102ed6103e6366004611ef0565b61078b565b6102506103f9366004611f6f565b610795565b600a546001600160a01b031661032e565b61025061041d366004611f56565b6107b3565b61021361080f565b610250610438366004611f6f565b61081e565b6102ed61044b366004611ef0565b6108a5565b61023c61045e366004611ef0565b610906565b61023c610471366004611ef0565b610981565b6102ed610484366004611fce565b61098f565b6102ed610497366004612026565b610ac5565b6102506104aa366004611f8a565b610c29565b6104c26104bd366004612090565b610c54565b60408051825163ffffffff1681526020928301516001600160e01b03169281019290925201610220565b6102ed6104fa366004611f6f565b610cd8565b61025061050d366004611f6f565b600b6020526000908152604090205481565b60606003805461052e906120d0565b80601f016020809104026020016040519081016040528092919081815260200182805461055a906120d0565b80156105a75780601f1061057c576101008083540402835291602001916105a7565b820191906000526020600020905b81548152906001019060200180831161058a57829003601f168201915b5050505050905090565b6000336105bf818585610d4e565b60019150505b92915050565b6000336105d9858285610e72565b6105e4858585610eec565b506001949350505050565b60006105f96110c0565b905090565b6000336105bf8185856106118383610c29565b61061b919061211a565b610d4e565b60004382106106765760405162461bcd60e51b815260206004820152601f60248201527f4552433230566f7465733a20626c6f636b206e6f7420796574206d696e65640060448201526064015b60405180910390fd5b6001600160a01b038316600090815260086020526040902061069890836111e7565b9392505050565b806000036106c057604051631f2a200560e01b815260040160405180910390fd5b336000908152600b6020526040812080548392906106df90849061212d565b909155506106ef905082826112a4565b5050565b8060000361071457604051631f2a200560e01b815260040160405180910390fd5b61071e33826112ae565b50565b61071e33826112b8565b6106ef60008383610eec565b61074133836112b8565b61074b33826112b8565b6106ef33836112b8565b6001600160a01b0381166000908152600860205260408120546105c590611331565b61077f61139a565b61078960006113f4565b565b6106ef82826112ae565b6001600160a01b0381166000908152600560205260408120546105c5565b60004382106108045760405162461bcd60e51b815260206004820152601f60248201527f4552433230566f7465733a20626c6f636b206e6f7420796574206d696e656400604482015260640161066d565b6105c56009836111e7565b60606004805461052e906120d0565b6001600160a01b0381166000908152600860205260408120548015610892576001600160a01b038316600090815260086020526040902061086060018361212d565b8154811061087057610870612140565b60009182526020909120015464010000000090046001600160e01b0316610895565b60005b6001600160e01b03169392505050565b6108ad61139a565b6001600160a01b0382166000818152600b602052604090819020839055517f7359df4a2ac9e38fb7388b0452d6e67f07baf2bb35b06645a940da3204a726fc906108fa9084815260200190565b60405180910390a25050565b600033816109148286610c29565b9050838110156109745760405162461bcd60e51b815260206004820152602560248201527f45524332303a2064656372656173656420616c6c6f77616e63652062656c6f77604482015264207a65726f60d81b606482015260840161066d565b6105e48286868403610d4e565b6000336105bf818585610eec565b834211156109df5760405162461bcd60e51b815260206004820152601d60248201527f4552433230566f7465733a207369676e61747572652065787069726564000000604482015260640161066d565b604080517fe48329057bfd03d55e49b547132e39cffd9c1820ad7b9d4c5307691425d15adf60208201526001600160a01b038816918101919091526060810186905260808101859052600090610a5990610a519060a00160405160208183030381529060405280519060200120611446565b858585611494565b9050610a64816114bc565b8614610ab25760405162461bcd60e51b815260206004820152601960248201527f4552433230566f7465733a20696e76616c6964206e6f6e636500000000000000604482015260640161066d565b610abc81886112b8565b50505050505050565b83421115610b155760405162461bcd60e51b815260206004820152601d60248201527f45524332305065726d69743a206578706972656420646561646c696e65000000604482015260640161066d565b60007f6e71edae12b1b97f4d1f60370fef10105fa2faae0126114a169c64845d6126c9888888610b448c6114bc565b6040805160208101969096526001600160a01b0394851690860152929091166060840152608083015260a082015260c0810186905260e0016040516020818303038152906040528051906020012090506000610b9f82611446565b90506000610baf82878787611494565b9050896001600160a01b0316816001600160a01b031614610c125760405162461bcd60e51b815260206004820152601e60248201527f45524332305065726d69743a20696e76616c6964207369676e61747572650000604482015260640161066d565b610c1d8a8a8a610d4e565b50505050505050505050565b6001600160a01b03918216600090815260016020908152604080832093909416825291909152205490565b60408051808201909152600080825260208201526001600160a01b0383166000908152600860205260409020805463ffffffff8416908110610c9857610c98612140565b60009182526020918290206040805180820190915291015463ffffffff8116825264010000000090046001600160e01b0316918101919091529392505050565b610ce061139a565b6001600160a01b038116610d455760405162461bcd60e51b815260206004820152602660248201527f4f776e61626c653a206e6577206f776e657220697320746865207a65726f206160448201526564647265737360d01b606482015260840161066d565b61071e816113f4565b6001600160a01b038316610db05760405162461bcd60e51b8152602060048201526024808201527f45524332303a20617070726f76652066726f6d20746865207a65726f206164646044820152637265737360e01b606482015260840161066d565b6001600160a01b038216610e115760405162461bcd60e51b815260206004820152602260248201527f45524332303a20617070726f766520746f20746865207a65726f206164647265604482015261737360f01b606482015260840161066d565b6001600160a01b0383811660008181526001602090815260408083209487168084529482529182902085905590518481527f8c5be1e5ebec7d5bd14f71427d1e84f3dd0314c0f7b2291e5b200ac8c7c3b925910160405180910390a3505050565b6000610e7e8484610c29565b90506000198114610ee65781811015610ed95760405162461bcd60e51b815260206004820152601d60248201527f45524332303a20696e73756666696369656e7420616c6c6f77616e6365000000604482015260640161066d565b610ee68484848403610d4e565b50505050565b6001600160a01b038316610f505760405162461bcd60e51b815260206004820152602560248201527f45524332303a207472616e736665722066726f6d20746865207a65726f206164604482015264647265737360d81b606482015260840161066d565b6001600160a01b038216610fb25760405162461bcd60e51b815260206004820152602360248201527f45524332303a207472616e7366657220746f20746865207a65726f206164647260448201526265737360e81b606482015260840161066d565b6001600160a01b0383166000908152602081905260409020548181101561102a5760405162461bcd60e51b815260206004820152602660248201527f45524332303a207472616e7366657220616d6f756e7420657863656564732062604482015265616c616e636560d01b606482015260840161066d565b6001600160a01b0380851660009081526020819052604080822085850390559185168152908120805484929061106190849061211a565b92505081905550826001600160a01b0316846001600160a01b03167fddf252ad1be2c89b69c2b068fc378daa952ba7f163c4a11628f55a4df523b3ef846040516110ad91815260200190565b60405180910390a3610ee68484846114e9565b6000306001600160a01b037f00000000000000000000000000000000000000000000000000000000000000001614801561111957507f000000000000000000000000000000000000000000000000000000000000000046145b1561114357507f000000000000000000000000000000000000000000000000000000000000000090565b50604080517f00000000000000000000000000000000000000000000000000000000000000006020808301919091527f0000000000000000000000000000000000000000000000000000000000000000828401527f000000000000000000000000000000000000000000000000000000000000000060608301524660808301523060a0808401919091528351808403909101815260c0909201909252805191012090565b8154600090815b8181101561124b57600061120282846114f4565b90508486828154811061121757611217612140565b60009182526020909120015463ffffffff16111561123757809250611245565b61124281600161211a565b91505b506111ee565b811561128f578461125d60018461212d565b8154811061126d5761126d612140565b60009182526020909120015464010000000090046001600160e01b0316611292565b60005b6001600160e01b031695945050505050565b6106ef828261150f565b6106ef828261159c565b6001600160a01b038281166000818152600760208181526040808420805485845282862054949093528787166001600160a01b03198416811790915590519190951694919391928592917f3134e8a2e6d97e929a7e54011ea5485d7d196dd5f0ba4d4ef95803e8e3fc257f9190a4610ee68284836115b4565b600063ffffffff8211156113965760405162461bcd60e51b815260206004820152602660248201527f53616665436173743a2076616c756520646f65736e27742066697420696e203360448201526532206269747360d01b606482015260840161066d565b5090565b600a546001600160a01b031633146107895760405162461bcd60e51b815260206004820181905260248201527f4f776e61626c653a2063616c6c6572206973206e6f7420746865206f776e6572604482015260640161066d565b600a80546001600160a01b038381166001600160a01b0319831681179093556040519116919082907f8be0079c531659141344cd1fd0a4f28419497f9722a3daafe3b4186f6b6457e090600090a35050565b60006105c56114536110c0565b8360405161190160f01b6020820152602281018390526042810182905260009060620160405160208183030381529060405280519060200120905092915050565b60008060006114a5878787876116f1565b915091506114b2816117de565b5095945050505050565b6001600160a01b03811660009081526005602052604090208054600181018255905b50919050565b505050565b6114e4838383611994565b60006115036002848418612156565b6106989084841661211a565b7f00000000000000000000000000000000000000000000000000000000000000008161153a60025490565b611544919061211a565b11156115925760405162461bcd60e51b815260206004820152601960248201527f45524332304361707065643a2063617020657863656564656400000000000000604482015260640161066d565b6106ef82826119c6565b6115a68282611a50565b610ee66009611ba583611bb1565b816001600160a01b0316836001600160a01b0316141580156115d65750600081115b156114e4576001600160a01b03831615611664576001600160a01b0383166000908152600860205260408120819061161190611ba585611bb1565b91509150846001600160a01b03167fdec2bacdd2f05b59de34da9b523dff8be42e5e38e818c82fdb0bae774387a7248383604051611659929190918252602082015260400190565b60405180910390a250505b6001600160a01b038216156114e4576001600160a01b0382166000908152600860205260408120819061169a90611d2a85611bb1565b91509150836001600160a01b03167fdec2bacdd2f05b59de34da9b523dff8be42e5e38e818c82fdb0bae774387a72483836040516116e2929190918252602082015260400190565b60405180910390a25050505050565b6000807f7fffffffffffffffffffffffffffffff5d576e7357a4501ddfe92f46681b20a083111561172857506000905060036117d5565b8460ff16601b1415801561174057508460ff16601c14155b1561175157506000905060046117d5565b6040805160008082526020820180845289905260ff881692820192909252606081018690526080810185905260019060a0016020604051602081039080840390855afa1580156117a5573d6000803e3d6000fd5b5050604051601f1901519150506001600160a01b0381166117ce576000600192509250506117d5565b9150600090505b94509492505050565b60008160048111156117f2576117f2612178565b036117fa5750565b600181600481111561180e5761180e612178565b0361185b5760405162461bcd60e51b815260206004820152601860248201527f45434453413a20696e76616c6964207369676e61747572650000000000000000604482015260640161066d565b600281600481111561186f5761186f612178565b036118bc5760405162461bcd60e51b815260206004820152601f60248201527f45434453413a20696e76616c6964207369676e6174757265206c656e67746800604482015260640161066d565b60038160048111156118d0576118d0612178565b036119285760405162461bcd60e51b815260206004820152602260248201527f45434453413a20696e76616c6964207369676e6174757265202773272076616c604482015261756560f01b606482015260840161066d565b600481600481111561193c5761193c612178565b0361071e5760405162461bcd60e51b815260206004820152602260248201527f45434453413a20696e76616c6964207369676e6174757265202776272076616c604482015261756560f01b606482015260840161066d565b6001600160a01b038381166000908152600760205260408082205485841683529120546114e4929182169116836115b4565b6119d08282611d36565b6002546001600160e01b031015611a425760405162461bcd60e51b815260206004820152603060248201527f4552433230566f7465733a20746f74616c20737570706c79207269736b73206f60448201526f766572666c6f77696e6720766f74657360801b606482015260840161066d565b610ee66009611d2a83611bb1565b6001600160a01b038216611ab05760405162461bcd60e51b815260206004820152602160248201527f45524332303a206275726e2066726f6d20746865207a65726f206164647265736044820152607360f81b606482015260840161066d565b6001600160a01b03821660009081526020819052604090205481811015611b245760405162461bcd60e51b815260206004820152602260248201527f45524332303a206275726e20616d6f756e7420657863656564732062616c616e604482015261636560f01b606482015260840161066d565b6001600160a01b0383166000908152602081905260408120838303905560028054849290611b5390849061212d565b90915550506040518281526000906001600160a01b038516907fddf252ad1be2c89b69c2b068fc378daa952ba7f163c4a11628f55a4df523b3ef9060200160405180910390a36114e4836000846114e9565b6000610698828461212d565b825460009081908015611bfc5785611bca60018361212d565b81548110611bda57611bda612140565b60009182526020909120015464010000000090046001600160e01b0316611bff565b60005b6001600160e01b03169250611c1883858763ffffffff16565b9150600081118015611c5657504386611c3260018461212d565b81548110611c4257611c42612140565b60009182526020909120015463ffffffff16145b15611cb657611c6482611e1d565b86611c7060018461212d565b81548110611c8057611c80612140565b9060005260206000200160000160046101000a8154816001600160e01b0302191690836001600160e01b03160217905550611d21565b856040518060400160405280611ccb43611331565b63ffffffff168152602001611cdf85611e1d565b6001600160e01b0390811690915282546001810184556000938452602093849020835194909301519091166401000000000263ffffffff909316929092179101555b50935093915050565b6000610698828461211a565b6001600160a01b038216611d8c5760405162461bcd60e51b815260206004820152601f60248201527f45524332303a206d696e7420746f20746865207a65726f206164647265737300604482015260640161066d565b8060026000828254611d9e919061211a565b90915550506001600160a01b03821660009081526020819052604081208054839290611dcb90849061211a565b90915550506040518181526001600160a01b038316906000907fddf252ad1be2c89b69c2b068fc378daa952ba7f163c4a11628f55a4df523b3ef9060200160405180910390a36106ef600083836114e9565b60006001600160e01b038211156113965760405162461bcd60e51b815260206004820152602760248201527f53616665436173743a2076616c756520646f65736e27742066697420696e20326044820152663234206269747360c81b606482015260840161066d565b600060208083528351808285015260005b81811015611eb357858101830151858201604001528201611e97565b506000604082860101526040601f19601f8301168501019250505092915050565b80356001600160a01b0381168114611eeb57600080fd5b919050565b60008060408385031215611f0357600080fd5b611f0c83611ed4565b946020939093013593505050565b600080600060608486031215611f2f57600080fd5b611f3884611ed4565b9250611f4660208501611ed4565b9150604084013590509250925092565b600060208284031215611f6857600080fd5b5035919050565b600060208284031215611f8157600080fd5b61069882611ed4565b60008060408385031215611f9d57600080fd5b611fa683611ed4565b9150611fb460208401611ed4565b90509250929050565b803560ff81168114611eeb57600080fd5b60008060008060008060c08789031215611fe757600080fd5b611ff087611ed4565b9550602087013594506040870135935061200c60608801611fbd565b92506080870135915060a087013590509295509295509295565b600080600080600080600060e0888a03121561204157600080fd5b61204a88611ed4565b965061205860208901611ed4565b9550604088013594506060880135935061207460808901611fbd565b925060a0880135915060c0880135905092959891949750929550565b600080604083850312156120a357600080fd5b6120ac83611ed4565b9150602083013563ffffffff811681146120c557600080fd5b809150509250929050565b600181811c908216806120e457607f821691505b6020821081036114de57634e487b7160e01b600052602260045260246000fd5b634e487b7160e01b600052601160045260246000fd5b808201808211156105c5576105c5612104565b818103818111156105c5576105c5612104565b634e487b7160e01b600052603260045260246000fd5b60008261217357634e487b7160e01b600052601260045260246000fd5b500490565b634e487b7160e01b600052602160045260246000fdfea2646970667358221220ad638640a9923c6b45f6c70b9fff5a7148036ff7e0293e66f7f99a109bada07f64736f6c63430008100033",
    "linkReferences": {}
  },
  "methodIdentifiers": {
    "DOMAIN_SEPARATOR()": "3644e515",
    "allowance(address,address)": "dd62ed3e",
    "approve(address,uint256)": "095ea7b3",
    "balanceOf(address)": "70a08231",
    "burn(uint256)": "42966c68",
    "burnFrom(address,uint256)": "79cc6790",
    "cap()": "355274ea",
    "checkpoints(address,uint32)": "f1127ed8",
    "decimals()": "313ce567",
    "decreaseAllowance(address,uint256)": "a457c2d7",
    "delegate(address)": "5c19a95c",
    "delegateBySig(address,uint256,uint256,uint8,bytes32,bytes32)": "c3cda520",
    "delegateTwice(address,address)": "69361436",
    "delegates(address)": "587cde1e",
    "getChainId()": "3408e470",
    "getPastTotalSupply(uint256)": "8e539e8c",
    "getPastVotes(address,uint256)": "3a46b1a8",
    "getVotes(address)": "9ab24eb0",
    "increaseAllowance(address,uint256)": "39509351",
    "mint(address,uint256)": "40c10f19",
    "minters(address)": "f46eccc4",
    "name()": "06fdde03",
    "nonces(address)": "7ecebe00",
    "numCheckpoints(address)": "6fcfff45",
    "owner()": "8da5cb5b",
    "permit(address,address,uint256,uint256,uint8,bytes32,bytes32)": "d505accf",
    "renounceOwnership()": "715018a6",
    "setMinter(address,uint256)": "9ce38998",
    "symbol()": "95d89b41",
    "totalSupply()": "18160ddd",
    "transfer(address,uint256)": "a9059cbb",
    "transferFrom(address,address,uint256)": "23b872dd",
    "transferFromZero(address,uint256)": "649be125",
    "transferOwnership(address)": "f2fde38b"
  },
  "id": 12
}