{
  "address": "0x10C483158B8aF7e91CE7068bA45eb5446789851D",
  "abi": [
    {
      "inputs": [
        {
          "internalType": "address",
          "name": "_hatsGovernance",
          "type": "address"
        }
      ],
      "stateMutability": "nonpayable",
      "type": "constructor"
    },
    {
      "inputs": [],
      "name": "MintArrayLengthMismatch",
      "type": "error"
    },
    {
      "inputs": [],
      "name": "MintingAlreadyStopped",
      "type": "error"
    },
    {
      "inputs": [],
      "name": "MintingOfTokenStopped",
      "type": "error"
    },
    {
      "inputs": [],
      "name": "TokenDoesNotExist",
      "type": "error"
    },
    {
      "anonymous": false,
      "inputs": [
        {
          "indexed": true,
          "internalType": "address",
          "name": "account",
          "type": "address"
        },
        {
          "indexed": true,
          "internalType": "address",
          "name": "operator",
          "type": "address"
        },
        {
          "indexed": false,
          "internalType": "bool",
          "name": "approved",
          "type": "bool"
        }
      ],
      "name": "ApprovalForAll",
      "type": "event"
    },
    {
      "anonymous": false,
      "inputs": [
        {
          "indexed": true,
          "internalType": "uint256",
          "name": "_tokenId",
          "type": "uint256"
        }
      ],
      "name": "MintingStopped",
      "type": "event"
    },
    {
      "anonymous": false,
      "inputs": [
        {
          "indexed": true,
          "internalType": "address",
          "name": "previousOwner",
          "type": "address"
        },
        {
          "indexed": true,
          "internalType": "address",
          "name": "newOwner",
          "type": "address"
        }
      ],
      "name": "OwnershipTransferred",
      "type": "event"
    },
    {
      "anonymous": false,
      "inputs": [
        {
          "indexed": true,
          "internalType": "address",
          "name": "operator",
          "type": "address"
        },
        {
          "indexed": true,
          "internalType": "address",
          "name": "from",
          "type": "address"
        },
        {
          "indexed": true,
          "internalType": "address",
          "name": "to",
          "type": "address"
        },
        {
          "indexed": false,
          "internalType": "uint256[]",
          "name": "ids",
          "type": "uint256[]"
        },
        {
          "indexed": false,
          "internalType": "uint256[]",
          "name": "values",
          "type": "uint256[]"
        }
      ],
      "name": "TransferBatch",
      "type": "event"
    },
    {
      "anonymous": false,
      "inputs": [
        {
          "indexed": true,
          "internalType": "address",
          "name": "operator",
          "type": "address"
        },
        {
          "indexed": true,
          "internalType": "address",
          "name": "from",
          "type": "address"
        },
        {
          "indexed": true,
          "internalType": "address",
          "name": "to",
          "type": "address"
        },
        {
          "indexed": false,
          "internalType": "uint256",
          "name": "id",
          "type": "uint256"
        },
        {
          "indexed": false,
          "internalType": "uint256",
          "name": "value",
          "type": "uint256"
        }
      ],
      "name": "TransferSingle",
      "type": "event"
    },
    {
      "anonymous": false,
      "inputs": [
        {
          "indexed": false,
          "internalType": "string",
          "name": "value",
          "type": "string"
        },
        {
          "indexed": true,
          "internalType": "uint256",
          "name": "id",
          "type": "uint256"
        }
      ],
      "name": "URI",
      "type": "event"
    },
    {
      "inputs": [
        {
          "internalType": "address",
          "name": "account",
          "type": "address"
        },
        {
          "internalType": "uint256",
          "name": "id",
          "type": "uint256"
        }
      ],
      "name": "balanceOf",
      "outputs": [
        {
          "internalType": "uint256",
          "name": "",
          "type": "uint256"
        }
      ],
      "stateMutability": "view",
      "type": "function"
    },
    {
      "inputs": [
        {
          "internalType": "address[]",
          "name": "accounts",
          "type": "address[]"
        },
        {
          "internalType": "uint256[]",
          "name": "ids",
          "type": "uint256[]"
        }
      ],
      "name": "balanceOfBatch",
      "outputs": [
        {
          "internalType": "uint256[]",
          "name": "",
          "type": "uint256[]"
        }
      ],
      "stateMutability": "view",
      "type": "function"
    },
    {
      "inputs": [
        {
          "internalType": "uint256",
          "name": "id",
          "type": "uint256"
        }
      ],
      "name": "exists",
      "outputs": [
        {
          "internalType": "bool",
          "name": "",
          "type": "bool"
        }
      ],
      "stateMutability": "view",
      "type": "function"
    },
    {
      "inputs": [
        {
          "internalType": "string",
          "name": "_ipfsHash",
          "type": "string"
        }
      ],
      "name": "getTokenId",
      "outputs": [
        {
          "internalType": "uint256",
          "name": "",
          "type": "uint256"
        }
      ],
      "stateMutability": "pure",
      "type": "function"
    },
    {
      "inputs": [
        {
          "internalType": "address",
          "name": "account",
          "type": "address"
        },
        {
          "internalType": "address",
          "name": "operator",
          "type": "address"
        }
      ],
      "name": "isApprovedForAll",
      "outputs": [
        {
          "internalType": "bool",
          "name": "",
          "type": "bool"
        }
      ],
      "stateMutability": "view",
      "type": "function"
    },
    {
      "inputs": [
        {
          "internalType": "address",
          "name": "_recipient",
          "type": "address"
        },
        {
          "internalType": "string",
          "name": "_ipfsHash",
          "type": "string"
        },
        {
          "internalType": "uint256",
          "name": "_amount",
          "type": "uint256"
        }
      ],
      "name": "mint",
      "outputs": [],
      "stateMutability": "nonpayable",
      "type": "function"
    },
    {
      "inputs": [
        {
          "internalType": "address[]",
          "name": "_recipients",
          "type": "address[]"
        },
        {
          "internalType": "string[]",
          "name": "_ipfsHashes",
          "type": "string[]"
        },
        {
          "internalType": "uint256[]",
          "name": "_amounts",
          "type": "uint256[]"
        }
      ],
      "name": "mintMultiple",
      "outputs": [],
      "stateMutability": "nonpayable",
      "type": "function"
    },
    {
      "inputs": [
        {
          "internalType": "uint256",
          "name": "",
          "type": "uint256"
        }
      ],
      "name": "mintingStopped",
      "outputs": [
        {
          "internalType": "bool",
          "name": "",
          "type": "bool"
        }
      ],
      "stateMutability": "view",
      "type": "function"
    },
    {
      "inputs": [],
      "name": "owner",
      "outputs": [
        {
          "internalType": "address",
          "name": "",
          "type": "address"
        }
      ],
      "stateMutability": "view",
      "type": "function"
    },
    {
      "inputs": [],
      "name": "renounceOwnership",
      "outputs": [],
      "stateMutability": "nonpayable",
      "type": "function"
    },
    {
      "inputs": [
        {
          "internalType": "address",
          "name": "from",
          "type": "address"
        },
        {
          "internalType": "address",
          "name": "to",
          "type": "address"
        },
        {
          "internalType": "uint256[]",
          "name": "ids",
          "type": "uint256[]"
        },
        {
          "internalType": "uint256[]",
          "name": "amounts",
          "type": "uint256[]"
        },
        {
          "internalType": "bytes",
          "name": "data",
          "type": "bytes"
        }
      ],
      "name": "safeBatchTransferFrom",
      "outputs": [],
      "stateMutability": "nonpayable",
      "type": "function"
    },
    {
      "inputs": [
        {
          "internalType": "address",
          "name": "from",
          "type": "address"
        },
        {
          "internalType": "address",
          "name": "to",
          "type": "address"
        },
        {
          "internalType": "uint256",
          "name": "id",
          "type": "uint256"
        },
        {
          "internalType": "uint256",
          "name": "amount",
          "type": "uint256"
        },
        {
          "internalType": "bytes",
          "name": "data",
          "type": "bytes"
        }
      ],
      "name": "safeTransferFrom",
      "outputs": [],
      "stateMutability": "nonpayable",
      "type": "function"
    },
    {
      "inputs": [
        {
          "internalType": "address",
          "name": "operator",
          "type": "address"
        },
        {
          "internalType": "bool",
          "name": "approved",
          "type": "bool"
        }
      ],
      "name": "setApprovalForAll",
      "outputs": [],
      "stateMutability": "nonpayable",
      "type": "function"
    },
    {
      "inputs": [
        {
          "internalType": "uint256",
          "name": "_tokenId",
          "type": "uint256"
        }
      ],
      "name": "stopMint",
      "outputs": [],
      "stateMutability": "nonpayable",
      "type": "function"
    },
    {
      "inputs": [
        {
          "internalType": "uint256[]",
          "name": "_tokenIds",
          "type": "uint256[]"
        }
      ],
      "name": "stopMintMultiple",
      "outputs": [],
      "stateMutability": "nonpayable",
      "type": "function"
    },
    {
      "inputs": [
        {
          "internalType": "bytes4",
          "name": "interfaceId",
          "type": "bytes4"
        }
      ],
      "name": "supportsInterface",
      "outputs": [
        {
          "internalType": "bool",
          "name": "",
          "type": "bool"
        }
      ],
      "stateMutability": "view",
      "type": "function"
    },
    {
      "inputs": [
        {
          "internalType": "uint256",
          "name": "id",
          "type": "uint256"
        }
      ],
      "name": "totalSupply",
      "outputs": [
        {
          "internalType": "uint256",
          "name": "",
          "type": "uint256"
        }
      ],
      "stateMutability": "view",
      "type": "function"
    },
    {
      "inputs": [
        {
          "internalType": "address",
          "name": "newOwner",
          "type": "address"
        }
      ],
      "name": "transferOwnership",
      "outputs": [],
      "stateMutability": "nonpayable",
      "type": "function"
    },
    {
      "inputs": [
        {
          "internalType": "uint256",
          "name": "_tokenId",
          "type": "uint256"
        }
      ],
      "name": "uri",
      "outputs": [
        {
          "internalType": "string",
          "name": "",
          "type": "string"
        }
      ],
      "stateMutability": "view",
      "type": "function"
    },
    {
      "inputs": [
        {
          "internalType": "uint256",
          "name": "",
          "type": "uint256"
        }
      ],
      "name": "uris",
      "outputs": [
        {
          "internalType": "string",
          "name": "",
          "type": "string"
        }
      ],
      "stateMutability": "view",
      "type": "function"
    }
  ],
  "transactionHash": "0x0b77370e98cf58a995d2dc309e5c237de49665b5da22a11f38b417e21e1fe260",
  "args": [
    "0x1885B7c7a3AE1F35BA71C0392C13153A95c4914f"
  ],
  "numDeployments": 1,
  "solcInputHash": "d43100b11f4b37cad6ace4c7b7c1b0aa",
  "bytecode": "0x60803462000144576001600160401b0390601f620020a938819003918201601f1916830191848311848410176200012e578084926020946040528339810103126200014457516001600160a01b038116810362000144576040519160208301908111838210176200012e576040526000809252600254916001928381811c9116801562000123575b60208210146200010f57601f8111620000c5575b620000b58383600255620000af3362000149565b62000149565b604051611f119081620001988239f35b60028252601f0160051c7f405787fa12a823e0f2b7631cc41b3ba8828b3321ca811111fa75cd3aa3bb5ace908101905b8181106200010457506200009b565b8281558401620000f5565b634e487b7160e01b82526022600452602482fd5b90607f169062000087565b634e487b7160e01b600052604160045260246000fd5b600080fd5b600480546001600160a01b039283166001600160a01b031982168117909255604051919216907f8be0079c531659141344cd1fd0a4f28419497f9722a3daafe3b4186f6b6457e090600090a356fe6080604052600436101561001257600080fd5b60003560e01c8062fdd58e1461172057806301ffc9a7146116b25780630e89341c146116725780631253c546146116725780631e7663bc1461162f5780632eb2c2d6146111e45780634e1273f4146110425780634f558e79146110145780636bbca04614610f5e578063715018a614610efc5780638da5cb5b14610ed3578063a22cb46514610def578063af5691f614610dbe578063b2c112f9146109e1578063b6eb549d1461095b578063ba7aef4314610660578063bd85b03914610634578063e985e9c5146105de578063f242432a146101cc5763f2fde38b146100f757600080fd5b346101c75760203660031901126101c757610110611747565b610118611a2b565b6001600160a01b039081169081156101735760009160045491816bffffffffffffffffffffffff60a01b84161760045560405192167f8be0079c531659141344cd1fd0a4f28419497f9722a3daafe3b4186f6b6457e08484a3f35b60405162461bcd60e51b815260206004820152602660248201527f4f776e61626c653a206e6577206f776e657220697320746865207a65726f206160448201526564647265737360d01b6064820152608490fd5b600080fd5b346101c75760a03660031901126101c7576101e5611747565b6101ed61175d565b90608480356001600160401b0381116101c75761020e903690600401611971565b6001600160a01b039190838316331480156105b3575b61022d90611b57565b8285161561023b8115611bba565b610246604435611e6b565b610251606435611e6b565b9185871615610553575b610493575b50506044356000526020946000865260406000208486166000528652604060002054610290606435821015611c14565b60443560005260008752604060002085871660005287526064359003604060002055604435600052600086526040600020848216600052865260406000206102db6064358254611c73565b905560405160443581526064358782015284821690858716907fc3d58168c5ae7397731d063d5bbf3d657854427343f4c083240f7aacaa2d0f6260403392a4803b610323575b005b60a0600061036d958895604051978896879586938563f23a6e6160e01b9d8e87523360048801521660248601526044356044860152606435606486015284015260a4830190611773565b0393165af160009181610464575b5061043a57505060019061038d611ce9565b6308c379a014610405575b5061039f57005b60405162461bcd60e51b815260206004820152603460248201527f455243313135353a207472616e7366657220746f206e6f6e2d455243313135356044820152732932b1b2b4bb32b91034b6b83632b6b2b73a32b960611b6064820152608490fd5b0390fd5b61040d611d07565b90816104195750610398565b61040160405192839262461bcd60e51b845260048401526024830190611773565b6001600160e01b0319161490506103215760405162461bcd60e51b81528061040160048201611ca0565b610485919250843d861161048c575b61047d8183611808565b810190611c80565b908461037b565b503d610473565b92959194909360005b8451811015610544576104af8186611b2d565b51906104bb8188611b2d565b518260005260036020526040600020548181106104ef576104ea93600052600360205203604060002055611b08565b61049c565b60405162461bcd60e51b815260206004820152602860248201527f455243313135353a206275726e20616d6f756e74206578636565647320746f74604482015267616c537570706c7960c01b60648201528b90fd5b50935093909491508580610260565b959260009794919592975b86518110156105a557806105756105a0928b611b2d565b51610580828a611b2d565b5160005260036020526105996040600020918254611c73565b9055611b08565b61055e565b50929596919490939661025b565b50828416600052600160205260406000203360005260205261022d60ff604060002054169050610224565b346101c75760403660031901126101c7576105f7611747565b6105ff61175d565b9060018060a01b03809116600052600160205260406000209116600052602052602060ff604060002054166040519015158152f35b346101c75760203660031901126101c75760043560005260036020526020604060002054604051908152f35b346101c75760603660031901126101c757610679611747565b6001600160401b036024358181116101c7576106999036906004016118cf565b9092604435926106a7611a2b565b6106b18386611eb0565b9283600052602095600587526106cb6040600020546117b3565b15610822575b505050816000526006845260ff60406000205416610810576040516106f5816117ed565b600081526001600160a01b0382169384156107c15761071384611e6b565b9361071d82611e6b565b9360005b8651811015610760578061073861075b9288611b2d565b51610743828a611b2d565b5160005260038b526105996040600020918254611c73565b610721565b5061032194508660008984825281815260408220838352815260408220610788878254611c73565b905585604051918683528201527fc3d58168c5ae7397731d063d5bbf3d657854427343f4c083240f7aacaa2d0f6260403392a433611d78565b60405162461bcd60e51b815260048101879052602160248201527f455243313135353a206d696e7420746f20746865207a65726f206164647265736044820152607360f81b6064820152608490fd5b60405163021eeb9560e11b8152600490fd5b8460005260058752604060002092821161094557819061084284546117b3565b601f81116108f4575b50600090601f831160011461088a5760009261087f575b50508160011b916000199060031b1c19161790555b8480806106d1565b013590508780610862565b909150601f1983169184600052886000209260005b8a8282106108de5750509084600195949392106108c4575b505050811b019055610877565b0135600019600384901b60f8161c191690558780806108b7565b600184968293958701358155019501920161089f565b9091508360005287600020601f840160051c81019189851061093b575b90601f859493920160051c01905b81811061092c575061084b565b6000815584935060010161091f565b9091508190610911565b634e487b7160e01b600052604160045260246000fd5b346101c75760203660031901126101c757600435610977611a2b565b80600052600660205260ff604060002054166109d057600081815260066020526040808220805460ff191660011790555190917ff6745a2db3ab942587bd3204ce8dd5f4cec119b9495758e1c39591eca58fe4718383a2f35b60405162d234a760e51b8152600490fd5b346101c75760603660031901126101c7576004356001600160401b0381116101c757610a119036906004016119fb565b6024356001600160401b0381116101c757610a309036906004016119fb565b6044356001600160401b0381116101c757610a4f9036906004016119fb565b939094610a5a611a2b565b818314801590610db4575b610da257928591946000925b848410610a7a57005b610a85848888611ea0565b35956001600160a01b03871687036101c7578460051b84013591601e19853603018312156101c7576001600160401b0383860135116101c757828501353603602084870101136101c757610ada868583611ea0565b3593610ae4611a2b565b610af5868501803590602001611eb0565b93846000526005602052610b0d6040600020546117b3565b15610c6b575b5083600052600660205260ff604060002054166108105760405195610b37876117ed565b600087526001600160a01b038a1615610c1c57610b5385611e6b565b98610b5d87611e6b565b9b60005b8b51811015610b8a57808c8f82610b7e610b859561058093611b2d565b5192611b2d565b610b61565b5097929a610c0f949c5060019691999597929a508160005260006020526040600020878060a01b0382166000526020526040600020610bca848254611c73565b90556040518281528360208201526000888060a01b038316917fc3d58168c5ae7397731d063d5bbf3d657854427343f4c083240f7aacaa2d0f6260403392a433611d78565b0192939195949094610a71565b60405162461bcd60e51b815260206004820152602160248201527f455243313135353a206d696e7420746f20746865207a65726f206164647265736044820152607360f81b6064820152608490fd5b846000526005602052604060002090610c8482546117b3565b601f8111610d58575b506000601f828a013511600114610cda57600090828a0135610cca575b508189013560011b91600019908a013560031b1c19161790555b8a610b13565b60209150828a010101358d610caa565b8260005260206000209060005b838b80820135601f19168310610d3d5701358b850135601f1916109050610d1b575b5050600190880135811b019055610cc4565b602060001960f8858d013560031b161c1991848c010101351690558c80610d09565b01820160209081013584556001909301929182019101610ce7565b826000526020600020601f838b01350160051c81016020848c013510610d9b575b601f830160051c82018110610d8f575050610c8d565b60008155600101610d79565b5080610d79565b604051633757dfe560e01b8152600490fd5b5084831415610a65565b346101c75760203660031901126101c7576004356000526006602052602060ff604060002054166040519015158152f35b346101c75760403660031901126101c757610e08611747565b602435908115158092036101c7576001600160a01b031690338214610e7c57336000526001602052604060002082600052602052604060002060ff1981541660ff83161790556040519081527f17307eab39ab6107e8899845ad3d59bd9653f200f220920489ca2b5937696c3160203392a3005b60405162461bcd60e51b815260206004820152602960248201527f455243313135353a2073657474696e6720617070726f76616c20737461747573604482015268103337b91039b2b63360b91b6064820152608490fd5b346101c75760003660031901126101c7576004546040516001600160a01b039091168152602090f35b346101c75760003660031901126101c757610f15611a2b565b600480546001600160a01b0319811690915560405160009182906001600160a01b03167f8be0079c531659141344cd1fd0a4f28419497f9722a3daafe3b4186f6b6457e08284a3f35b346101c7576020806003193601126101c7576004356001600160401b0381116101c757610f8f9036906004016119fb565b610f97611a2b565b60005b818110610fa357005b610fae818385611ea0565b3590610fb8611a2b565b81600052600680865260ff604060002054166109d0578260005285526040600020916001928360ff198254161790557ff6745a2db3ab942587bd3204ce8dd5f4cec119b9495758e1c39591eca58fe4716000604051a201610f9a565b346101c75760203660031901126101c757600435600052600360205260206040600020541515604051908152f35b346101c75760403660031901126101c7576004356001600160401b038082116101c757366023830112156101c75781600401359061107f826118fc565b9261108d6040519485611808565b82845260209260248486019160051b830101913683116101c757602401905b8282106111c5575050506024359081116101c7576110ce903690600401611913565b825181510361116e578251926110e3846118fc565b936110f16040519586611808565b808552611100601f19916118fc565b01368486013760005b81518110156111535761114e9061113e6001600160a01b0361112b8386611b2d565b51166111378387611b2d565b5190611a83565b6111488288611b2d565b52611b08565b611109565b50505061116a6040519282849384528301906119c7565b0390f35b60405162461bcd60e51b815260048101839052602960248201527f455243313135353a206163636f756e747320616e6420696473206c656e677468604482015268040dad2e6dac2e8c6d60bb1b6064820152608490fd5b81356001600160a01b03811681036101c75781529084019084016110ac565b346101c75760031960a0368201126101c7576111fe611747565b9061120761175d565b6001600160401b03906044358281116101c757611228903690600401611913565b916064358181116101c757611241903690600401611913565b9260849182359081116101c75761125c903690600401611971565b6001600160a01b03929087841633148015611604575b61127b90611b57565b82518651036115b057838516156112928115611bba565b84891615611572575b6114af575b60005b835181101561133a57806112ba6113359286611b2d565b516112c5828a611b2d565b519080600052602090600082528c89604060002091166000528252828d604060002054906112f583831015611c14565b83600052600085528b6040600020911660005284520360406000205560005260008152604060002090888a16600052526105996040600020918254611c73565b6112a3565b5090959493946040516040815261135460408201856119c7565b908082036020820152858816917f4a39dc06d4c0dbc64b70af90fd698a233a518aa5d07e595d983b8c0526c8f7fb878c16928061139233948c6119c7565b0390a4853b61139d57005b60405163bc197c8160e01b808252336004830152988516602482015260a0604482015296879586946113d39060a48701906119c7565b838682030160648701526113e6916119c7565b9184830301908401526113f891611773565b03921691815a602094600091f16000918161148f575b50611467575050600161141f611ce9565b6308c379a014611430575b61039f57005b611438611d07565b80611443575061142a565b60405162461bcd60e51b815260206004820152908190610401906024830190611773565b6001600160e01b031916146103215760405162461bcd60e51b81528061040160048201611ca0565b6114a891925060203d811161048c5761047d8183611808565b908361140e565b9591939094969260005b8551811015611565576114cc8187611b2d565b516114d7828b611b2d565b519080600052602060038152604060002054918383106115105761150b949392916003916000525203604060002055611b08565b6114b9565b60405162461bcd60e51b815260048101839052602860248201527f455243313135353a206275726e20616d6f756e74206578636565647320746f74604482015267616c537570706c7960c01b60648201528b90fd5b50929694909391956112a0565b9794929693919060005b88518110156115a3578061159361159e928a611b2d565b51610580828c611b2d565b61157c565b509091939692949761129b565b5060405162461bcd60e51b815260206004820152602860248201527f455243313135353a2069647320616e6420616d6f756e7473206c656e677468206044820152670dad2e6dac2e8c6d60c31b6064820152fd5b50838816600052600160205260406000203360005260205261127b60ff604060002054169050611272565b346101c75760203660031901126101c7576004356001600160401b0381116101c75761166a61166460209236906004016118cf565b90611eb0565b604051908152f35b346101c75760203660031901126101c757600435600052600560205261116a61169e6040600020611829565b604051918291602083526020830190611773565b346101c75760203660031901126101c75760043563ffffffff60e01b81168091036101c757602090636cdb3d1360e11b811490811561170f575b81156116fe575b506040519015158152f35b6301ffc9a760e01b149050826116f3565b6303a24d0760e21b811491506116ec565b346101c75760403660031901126101c757602061166a61173e611747565b60243590611a83565b600435906001600160a01b03821682036101c757565b602435906001600160a01b03821682036101c757565b919082519283825260005b84811061179f575050826000602080949584010152601f8019910116010190565b60208183018101518483018201520161177e565b90600182811c921680156117e3575b60208310146117cd57565b634e487b7160e01b600052602260045260246000fd5b91607f16916117c2565b602081019081106001600160401b0382111761094557604052565b90601f801991011681019081106001600160401b0382111761094557604052565b906040519182600082549261183d846117b3565b9081845260019485811690816000146118ac5750600114611869575b505061186792500383611808565b565b9093915060005260209081600020936000915b81831061189457505061186793508201013880611859565b8554888401850152948501948794509183019161187c565b91505061186794506020925060ff191682840152151560051b8201013880611859565b9181601f840112156101c7578235916001600160401b0383116101c757602083818601950101116101c757565b6001600160401b0381116109455760051b60200190565b81601f820112156101c75780359161192a836118fc565b926119386040519485611808565b808452602092838086019260051b8201019283116101c7578301905b828210611962575050505090565b81358152908301908301611954565b81601f820112156101c7578035906001600160401b03821161094557604051926119a5601f8401601f191660200185611808565b828452602083830101116101c757816000926020809301838601378301015290565b90815180825260208080930193019160005b8281106119e7575050505090565b8351855293810193928101926001016119d9565b9181601f840112156101c7578235916001600160401b0383116101c7576020808501948460051b0101116101c757565b6004546001600160a01b03163303611a3f57565b606460405162461bcd60e51b815260206004820152602060248201527f4f776e61626c653a2063616c6c6572206973206e6f7420746865206f776e65726044820152fd5b6001600160a01b0316908115611ab057600052600060205260406000209060005260205260406000205490565b60405162461bcd60e51b815260206004820152602a60248201527f455243313135353a2061646472657373207a65726f206973206e6f742061207660448201526930b634b21037bbb732b960b11b6064820152608490fd5b6000198114611b175760010190565b634e487b7160e01b600052601160045260246000fd5b8051821015611b415760209160051b010190565b634e487b7160e01b600052603260045260246000fd5b15611b5e57565b60405162461bcd60e51b815260206004820152602e60248201527f455243313135353a2063616c6c6572206973206e6f7420746f6b656e206f776e60448201526d195c881bdc88185c1c1c9bdd995960921b6064820152608490fd5b15611bc157565b60405162461bcd60e51b815260206004820152602560248201527f455243313135353a207472616e7366657220746f20746865207a65726f206164604482015264647265737360d81b6064820152608490fd5b15611c1b57565b60405162461bcd60e51b815260206004820152602a60248201527f455243313135353a20696e73756666696369656e742062616c616e636520666f60448201526939103a3930b739b332b960b11b6064820152608490fd5b91908201809211611b1757565b908160209103126101c757516001600160e01b0319811681036101c75790565b60809060208152602860208201527f455243313135353a204552433131353552656365697665722072656a656374656040820152676420746f6b656e7360c01b60608201520190565b60009060033d11611cf657565b905060046000803e60005160e01c90565b600060443d10611d6457604051600319913d83016004833e81516001600160401b03918282113d602484011117611d6757818401948551938411611d6f573d85010160208487010111611d675750611d6492910160200190611808565b90565b949350505050565b50949350505050565b919390803b611d89575b5050505050565b611dd793600060209460405180978196829563f23a6e6160e01b9b8c855260018060a01b0380961660048601528660248601526044850152606484015260a0608484015260a4830190611773565b0393165af160009181611e4b575b50611e235750506001611df6611ce9565b6308c379a014611e10575b61039f575b3880808080611d82565b611e18611d07565b806114435750611e01565b6001600160e01b03191614611e065760405162461bcd60e51b81528061040160048201611ca0565b611e6491925060203d811161048c5761047d8183611808565b9038611de5565b60405190604082018281106001600160401b038211176109455760405260018252602082016020368237825115611b41575290565b9190811015611b415760051b0190565b90611ed560206040518381948383019687378101600083820152038084520182611808565b5190209056fea2646970667358221220d5180c1ec7a454129e4376a417fb8f519060229ff20f31a903a21273f80949ee64736f6c63430008100033",
  "devdoc": {
    "kind": "dev",
    "methods": {
      "balanceOf(address,uint256)": {
        "details": "See {IERC1155-balanceOf}. Requirements: - `account` cannot be the zero address."
      },
      "balanceOfBatch(address[],uint256[])": {
        "details": "See {IERC1155-balanceOfBatch}. Requirements: - `accounts` and `ids` must have the same length."
      },
      "exists(uint256)": {
        "details": "Indicates whether any token exist with a given id, or not."
      },
      "isApprovedForAll(address,address)": {
        "details": "See {IERC1155-isApprovedForAll}."
      },
      "owner()": {
        "details": "Returns the address of the current owner."
      },
      "renounceOwnership()": {
        "details": "Leaves the contract without owner. It will not be possible to call `onlyOwner` functions anymore. Can only be called by the current owner. NOTE: Renouncing ownership will leave the contract without an owner, thereby removing any functionality that is only available to the owner."
      },
      "safeBatchTransferFrom(address,address,uint256[],uint256[],bytes)": {
        "details": "See {IERC1155-safeBatchTransferFrom}."
      },
      "safeTransferFrom(address,address,uint256,uint256,bytes)": {
        "details": "See {IERC1155-safeTransferFrom}."
      },
      "setApprovalForAll(address,bool)": {
        "details": "See {IERC1155-setApprovalForAll}."
      },
      "supportsInterface(bytes4)": {
        "details": "See {IERC165-supportsInterface}."
      },
      "totalSupply(uint256)": {
        "details": "Total amount of tokens in with a given id."
      },
      "transferOwnership(address)": {
        "details": "Transfers ownership of the contract to a new account (`newOwner`). Can only be called by the current owner."
      }
    },
    "version": 1
  },
  "userdoc": {
    "kind": "user",
    "methods": {},
    "version": 1
  },
  "storageLayout": {
    "storage": [
      {
        "astId": 5570,
        "contract": "contracts/HATHackersNFT.sol:HATHackersNFT",
        "label": "_balances",
        "offset": 0,
        "slot": "0",
        "type": "t_mapping(t_uint256,t_mapping(t_address,t_uint256))"
      },
      {
        "astId": 5576,
        "contract": "contracts/HATHackersNFT.sol:HATHackersNFT",
        "label": "_operatorApprovals",
        "offset": 0,
        "slot": "1",
        "type": "t_mapping(t_address,t_mapping(t_address,t_bool))"
      },
      {
        "astId": 5578,
        "contract": "contracts/HATHackersNFT.sol:HATHackersNFT",
        "label": "_uri",
        "offset": 0,
        "slot": "2",
        "type": "t_string_storage"
      },
      {
        "astId": 6940,
        "contract": "contracts/HATHackersNFT.sol:HATHackersNFT",
        "label": "_totalSupply",
        "offset": 0,
        "slot": "3",
        "type": "t_mapping(t_uint256,t_uint256)"
      },
      {
        "astId": 4367,
        "contract": "contracts/HATHackersNFT.sol:HATHackersNFT",
        "label": "_owner",
        "offset": 0,
        "slot": "4",
        "type": "t_address"
      },
      {
        "astId": 13205,
        "contract": "contracts/HATHackersNFT.sol:HATHackersNFT",
        "label": "uris",
        "offset": 0,
        "slot": "5",
        "type": "t_mapping(t_uint256,t_string_storage)"
      },
      {
        "astId": 13209,
        "contract": "contracts/HATHackersNFT.sol:HATHackersNFT",
        "label": "mintingStopped",
        "offset": 0,
        "slot": "6",
        "type": "t_mapping(t_uint256,t_bool)"
      }
    ],
    "types": {
      "t_address": {
        "encoding": "inplace",
        "label": "address",
        "numberOfBytes": "20"
      },
      "t_bool": {
        "encoding": "inplace",
        "label": "bool",
        "numberOfBytes": "1"
      },
      "t_mapping(t_address,t_bool)": {
        "encoding": "mapping",
        "key": "t_address",
        "label": "mapping(address => bool)",
        "numberOfBytes": "32",
        "value": "t_bool"
      },
      "t_mapping(t_address,t_mapping(t_address,t_bool))": {
        "encoding": "mapping",
        "key": "t_address",
        "label": "mapping(address => mapping(address => bool))",
        "numberOfBytes": "32",
        "value": "t_mapping(t_address,t_bool)"
      },
      "t_mapping(t_address,t_uint256)": {
        "encoding": "mapping",
        "key": "t_address",
        "label": "mapping(address => uint256)",
        "numberOfBytes": "32",
        "value": "t_uint256"
      },
      "t_mapping(t_uint256,t_bool)": {
        "encoding": "mapping",
        "key": "t_uint256",
        "label": "mapping(uint256 => bool)",
        "numberOfBytes": "32",
        "value": "t_bool"
      },
      "t_mapping(t_uint256,t_mapping(t_address,t_uint256))": {
        "encoding": "mapping",
        "key": "t_uint256",
        "label": "mapping(uint256 => mapping(address => uint256))",
        "numberOfBytes": "32",
        "value": "t_mapping(t_address,t_uint256)"
      },
      "t_mapping(t_uint256,t_string_storage)": {
        "encoding": "mapping",
        "key": "t_uint256",
        "label": "mapping(uint256 => string)",
        "numberOfBytes": "32",
        "value": "t_string_storage"
      },
      "t_mapping(t_uint256,t_uint256)": {
        "encoding": "mapping",
        "key": "t_uint256",
        "label": "mapping(uint256 => uint256)",
        "numberOfBytes": "32",
        "value": "t_uint256"
      },
      "t_string_storage": {
        "encoding": "bytes",
        "label": "string",
        "numberOfBytes": "32"
      },
      "t_uint256": {
        "encoding": "inplace",
        "label": "uint256",
        "numberOfBytes": "32"
      }
    }
  }
}