{
  "address": "0xadd155731473a9501881234a865ff79668f1b6cf",
  "abi": [
    {
      "inputs": [
        {
          "internalType": "contract IHATVaultsV2",
          "name": "_hatVaults",
          "type": "address"
        }
      ],
      "stateMutability": "nonpayable",
      "type": "constructor"
    },
    {
      "inputs": [
        {
          "internalType": "uint256",
          "name": "_pid",
          "type": "uint256"
        },
        {
          "internalType": "address",
          "name": "_user",
          "type": "address"
        }
      ],
      "name": "getShares",
      "outputs": [
        {
          "internalType": "uint256",
          "name": "",
          "type": "uint256"
        }
      ],
      "stateMutability": "view",
      "type": "function"
    },
    {
      "inputs": [
        {
          "internalType": "uint256",
          "name": "_pid",
          "type": "uint256"
        }
      ],
      "name": "getTotalShares",
      "outputs": [
        {
          "internalType": "uint256",
          "name": "",
          "type": "uint256"
        }
      ],
      "stateMutability": "view",
      "type": "function"
    },
    {
      "inputs": [],
      "name": "hatVaults",
      "outputs": [
        {
          "internalType": "contract IHATVaultsV2",
          "name": "",
          "type": "address"
        }
      ],
      "stateMutability": "view",
      "type": "function"
    }
  ],
  "transactionHash": "0xe42f8a2d4a73c4df8ecdc676414dbb2c9b174a00d8bcc8fd052421ad454eb059",
  "args": [
    "0xC570c434ba30a2fa5C07E590833246E18aa6B0a3"
  ],
  "numDeployments": 1,
  "solcInputHash": "8186de70a6a6f54b1b5e651788d825b5",
  "bytecode": "0x608060405234801561001057600080fd5b506040516103be3803806103be83398101604081905261002f91610054565b600080546001600160a01b0319166001600160a01b0392909216919091179055610084565b60006020828403121561006657600080fd5b81516001600160a01b038116811461007d57600080fd5b9392505050565b61032b806100936000396000f3fe608060405234801561001057600080fd5b50600436106100415760003560e01c806375c0b9fe1461004657806385fff8581461006c578063b3dc5bde1461007f575b600080fd5b610059610054366004610276565b6100aa565b6040519081526020015b60405180910390f35b61005961007a3660046102a6565b61018a565b600054610092906001600160a01b031681565b6040516001600160a01b039091168152602001610063565b6000805460405162d8dc7760e31b8152600481018590526001600160a01b03909116906306c6e3b890602401602060405180830381865afa1580156100f3573d6000803e3d6000fd5b505050506040513d601f19601f8201168201806040525081019061011791906102bf565b6040516370a0823160e01b81526001600160a01b03848116600483015291909116906370a0823190602401602060405180830381865afa15801561015f573d6000803e3d6000fd5b505050506040513d601f19601f8201168201806040525081019061018391906102dc565b9392505050565b6000805460405162d8dc7760e31b8152600481018490526001600160a01b03909116906306c6e3b890602401602060405180830381865afa1580156101d3573d6000803e3d6000fd5b505050506040513d601f19601f820116820180604052508101906101f791906102bf565b6001600160a01b03166318160ddd6040518163ffffffff1660e01b8152600401602060405180830381865afa158015610234573d6000803e3d6000fd5b505050506040513d601f19601f8201168201806040525081019061025891906102dc565b92915050565b6001600160a01b038116811461027357600080fd5b50565b6000806040838503121561028957600080fd5b82359150602083013561029b8161025e565b809150509250929050565b6000602082840312156102b857600080fd5b5035919050565b6000602082840312156102d157600080fd5b81516101838161025e565b6000602082840312156102ee57600080fd5b505191905056fea2646970667358221220a5b702380a4e2dd514cbb12d25840cb5424c3c293a608cce8f6933e6c2bae8b064736f6c63430008100033",
  "devdoc": {
    "kind": "dev",
    "methods": {},
    "version": 1
  },
  "userdoc": {
    "kind": "user",
    "methods": {},
    "version": 1
  },
  "storageLayout": {
    "storage": [
      {
        "astId": 21074,
        "contract": "contracts/nft/HATVaultsV2Data.sol:HATVaultsV2Data",
        "label": "hatVaults",
        "offset": 0,
        "slot": "0",
        "type": "t_contract(IHATVaultsV2)18860"
      }
    ],
    "types": {
      "t_contract(IHATVaultsV2)18860": {
        "encoding": "inplace",
        "label": "contract IHATVaultsV2",
        "numberOfBytes": "20"
      }
    }
  }
}