{
  "address": "0xaD0C122aC1Be13f1E638DDcce8408cDC45848717",
  "abi": [
    {
      "inputs": [
        {
          "internalType": "address",
          "name": "_implementation",
          "type": "address"
        }
      ],
      "stateMutability": "nonpayable",
      "type": "constructor"
    },
    {
      "anonymous": false,
      "inputs": [
        {
          "indexed": true,
          "internalType": "address",
          "name": "_hatPaymentSplitter",
          "type": "address"
        }
      ],
      "name": "HATPaymentSplitterCreated",
      "type": "event"
    },
    {
      "inputs": [
        {
          "internalType": "address[]",
          "name": "_payees",
          "type": "address[]"
        },
        {
          "internalType": "uint256[]",
          "name": "_shares",
          "type": "uint256[]"
        }
      ],
      "name": "createHATPaymentSplitter",
      "outputs": [
        {
          "internalType": "address",
          "name": "result",
          "type": "address"
        }
      ],
      "stateMutability": "nonpayable",
      "type": "function"
    },
    {
      "inputs": [],
      "name": "implementation",
      "outputs": [
        {
          "internalType": "address",
          "name": "",
          "type": "address"
        }
      ],
      "stateMutability": "view",
      "type": "function"
    },
    {
      "inputs": [
        {
          "internalType": "address[]",
          "name": "_payees",
          "type": "address[]"
        },
        {
          "internalType": "uint256[]",
          "name": "_shares",
          "type": "uint256[]"
        }
      ],
      "name": "predictSplitterAddress",
      "outputs": [
        {
          "internalType": "address",
          "name": "",
          "type": "address"
        }
      ],
      "stateMutability": "view",
      "type": "function"
    }
  ],
  "transactionHash": "0x6c125bb5e23fd1701b24b0def0e4bb426df800f3ffef941305e369aa89eb27d0",
  "args": [
    "0xeB6630CA1e4782E5E26cB51FD1Bd1631f727f4DE"
  ],
  "numDeployments": 1,
  "solcInputHash": "d43100b11f4b37cad6ace4c7b7c1b0aa",
  "bytecode": "0x60a03461007757601f6105fc38819003918201601f19168301916001600160401b0383118484101761007c5780849260209460405283398101031261007757516001600160a01b038116810361007757608052604051610569908161009382396080518181816055015281816102d801526103520152f35b600080fd5b634e487b7160e01b600052604160045260246000fdfe6080604090808252600436101561001557600080fd5b600090813560e01c9081635c60da1b1461033e5750806373ec96bf1461027d5763a91843a01461004457600080fd5b3461027a57610052366103d1565b927f00000000000000000000000000000000000000000000000000000000000000008151946e5af43d82803e903d91602b57fd5bf3602096878101906100b3816100a561009f858b6104d0565b87610506565b03601f198101835282610381565b51902092763d602d80600a3d3981f3363d3d373d3d3d363d7300000062ffffff8260881c1617875260781b17865260018060a01b0380926037600988f51693841561023657843b1561023257909185908451938491637fbbe46f60e01b83526044830187600485015285518091528a6064850196019185905b8c838310610212575050505050818403600319016024830152805180855290890193890190835b8a8282106101f85750505081929350038183875af180156101ee5761019f575b507f47d0c1099ba8907bcbafae4dd022306151d8b7801a04b05bb2437ee317949a308291519384a28152f35b67ffffffffffffffff81949294116101da578352917f47d0c1099ba8907bcbafae4dd022306151d8b7801a04b05bb2437ee317949a30610173565b634e487b7160e01b82526041600452602482fd5b82513d86823e3d90fd5b86518452958601958a955087945090920191600101610153565b845182168952978801978c9750899650939093019260019091019061012c565b8580fd5b835162461bcd60e51b815260048101889052601760248201527f455243313136373a2063726561746532206661696c65640000000000000000006044820152606490fd5b80fd5b50903461033a57602090605560436102b56100a561029a366103d1565b86939193519283916102af8a840180976104d0565b90610506565b51902083513060388201526f5af43d82803e903d91602b57fd5bf3ff60248201527f00000000000000000000000000000000000000000000000000000000000000006014820152733d602d80600a3d3981f3363d3d373d3d3d363d73815260588101919091526037600c8201206078820152012090516001600160a01b039091168152f35b5080fd5b90503461033a578160031936011261033a577f00000000000000000000000000000000000000000000000000000000000000006001600160a01b03168152602090f35b90601f8019910116810190811067ffffffffffffffff8211176103a357604052565b634e487b7160e01b600052604160045260246000fd5b67ffffffffffffffff81116103a35760051b60200190565b9060406003198301126104ac5767ffffffffffffffff6004358181116104ac57836023820112156104ac5780600401359061040b826103b9565b906104196040519283610381565b82825260209260248484019160051b830101918783116104ac57602401905b8282106104b157505050936024359283116104ac57806023840112156104ac578260040135610466816103b9565b936104746040519586610381565b81855260248486019260051b8201019283116104ac57602401905b82821061049d575050505090565b8135815290830190830161048f565b600080fd5b81356001600160a01b03811681036104ac578152908401908401610438565b805160208092019160005b8281106104e9575050505090565b83516001600160a01b0316855293810193928101926001016104db565b805160208092019160005b82811061051f575050505090565b83518552938101939281019260010161051156fea2646970667358221220ce35c58fe544f4588bd698e7555e6a413f8bb11d0fff4614a8c37b2817d5a98964736f6c63430008100033",
  "devdoc": {
    "kind": "dev",
    "methods": {},
    "version": 1
  },
  "userdoc": {
    "kind": "user",
    "methods": {},
    "version": 1
  },
  "storageLayout": {
    "storage": [],
    "types": null
  }
}