{
  "address": "0xf881707E5D790f62800Bbb49bACceD9087F82dba",
  "abi": [
    {
      "anonymous": false,
      "inputs": [
        {
          "indexed": false,
          "internalType": "address",
          "name": "newBeneficiary",
          "type": "address"
        }
      ],
      "name": "BeneficiaryChanged",
      "type": "event"
    },
    {
      "anonymous": false,
      "inputs": [],
      "name": "LockAccepted",
      "type": "event"
    },
    {
      "anonymous": false,
      "inputs": [],
      "name": "LockCanceled",
      "type": "event"
    },
    {
      "anonymous": false,
      "inputs": [
        {
          "indexed": true,
          "internalType": "address",
          "name": "previousOwner",
          "type": "address"
        },
        {
          "indexed": true,
          "internalType": "address",
          "name": "newOwner",
          "type": "address"
        }
      ],
      "name": "OwnershipTransferred",
      "type": "event"
    },
    {
      "anonymous": false,
      "inputs": [
        {
          "indexed": true,
          "internalType": "address",
          "name": "beneficiary",
          "type": "address"
        },
        {
          "indexed": false,
          "internalType": "uint256",
          "name": "amount",
          "type": "uint256"
        }
      ],
      "name": "TokensReleased",
      "type": "event"
    },
    {
      "anonymous": false,
      "inputs": [
        {
          "indexed": true,
          "internalType": "address",
          "name": "beneficiary",
          "type": "address"
        },
        {
          "indexed": false,
          "internalType": "uint256",
          "name": "amount",
          "type": "uint256"
        }
      ],
      "name": "TokensRevoked",
      "type": "event"
    },
    {
      "anonymous": false,
      "inputs": [
        {
          "indexed": true,
          "internalType": "address",
          "name": "beneficiary",
          "type": "address"
        },
        {
          "indexed": false,
          "internalType": "uint256",
          "name": "amount",
          "type": "uint256"
        }
      ],
      "name": "TokensWithdrawn",
      "type": "event"
    },
    {
      "inputs": [],
      "name": "acceptLock",
      "outputs": [],
      "stateMutability": "nonpayable",
      "type": "function"
    },
    {
      "inputs": [],
      "name": "amountPerPeriod",
      "outputs": [
        {
          "internalType": "uint256",
          "name": "",
          "type": "uint256"
        }
      ],
      "stateMutability": "view",
      "type": "function"
    },
    {
      "inputs": [],
      "name": "availableAmount",
      "outputs": [
        {
          "internalType": "uint256",
          "name": "",
          "type": "uint256"
        }
      ],
      "stateMutability": "view",
      "type": "function"
    },
    {
      "inputs": [],
      "name": "beneficiary",
      "outputs": [
        {
          "internalType": "address",
          "name": "",
          "type": "address"
        }
      ],
      "stateMutability": "view",
      "type": "function"
    },
    {
      "inputs": [],
      "name": "canDelegate",
      "outputs": [
        {
          "internalType": "bool",
          "name": "",
          "type": "bool"
        }
      ],
      "stateMutability": "view",
      "type": "function"
    },
    {
      "inputs": [],
      "name": "cancelLock",
      "outputs": [],
      "stateMutability": "nonpayable",
      "type": "function"
    },
    {
      "inputs": [
        {
          "internalType": "address",
          "name": "_newBeneficiary",
          "type": "address"
        }
      ],
      "name": "changeBeneficiary",
      "outputs": [],
      "stateMutability": "nonpayable",
      "type": "function"
    },
    {
      "inputs": [],
      "name": "currentBalance",
      "outputs": [
        {
          "internalType": "uint256",
          "name": "",
          "type": "uint256"
        }
      ],
      "stateMutability": "view",
      "type": "function"
    },
    {
      "inputs": [],
      "name": "currentPeriod",
      "outputs": [
        {
          "internalType": "uint256",
          "name": "",
          "type": "uint256"
        }
      ],
      "stateMutability": "view",
      "type": "function"
    },
    {
      "inputs": [],
      "name": "currentTime",
      "outputs": [
        {
          "internalType": "uint256",
          "name": "",
          "type": "uint256"
        }
      ],
      "stateMutability": "view",
      "type": "function"
    },
    {
      "inputs": [
        {
          "internalType": "address",
          "name": "_delegatee",
          "type": "address"
        }
      ],
      "name": "delegate",
      "outputs": [],
      "stateMutability": "nonpayable",
      "type": "function"
    },
    {
      "inputs": [],
      "name": "duration",
      "outputs": [
        {
          "internalType": "uint256",
          "name": "",
          "type": "uint256"
        }
      ],
      "stateMutability": "view",
      "type": "function"
    },
    {
      "inputs": [],
      "name": "endTime",
      "outputs": [
        {
          "internalType": "uint256",
          "name": "",
          "type": "uint256"
        }
      ],
      "stateMutability": "view",
      "type": "function"
    },
    {
      "inputs": [
        {
          "internalType": "address",
          "name": "_tokenLockOwner",
          "type": "address"
        },
        {
          "internalType": "address",
          "name": "_beneficiary",
          "type": "address"
        },
        {
          "internalType": "contract HATToken",
          "name": "_token",
          "type": "address"
        },
        {
          "internalType": "uint256",
          "name": "_managedAmount",
          "type": "uint256"
        },
        {
          "internalType": "uint256",
          "name": "_startTime",
          "type": "uint256"
        },
        {
          "internalType": "uint256",
          "name": "_endTime",
          "type": "uint256"
        },
        {
          "internalType": "uint256",
          "name": "_periods",
          "type": "uint256"
        },
        {
          "internalType": "uint256",
          "name": "_releaseStartTime",
          "type": "uint256"
        },
        {
          "internalType": "uint256",
          "name": "_vestingCliffTime",
          "type": "uint256"
        },
        {
          "internalType": "enum ITokenLock.Revocability",
          "name": "_revocable",
          "type": "uint8"
        },
        {
          "internalType": "bool",
          "name": "_canDelegate",
          "type": "bool"
        }
      ],
      "name": "initialize",
      "outputs": [],
      "stateMutability": "nonpayable",
      "type": "function"
    },
    {
      "inputs": [],
      "name": "isAccepted",
      "outputs": [
        {
          "internalType": "bool",
          "name": "",
          "type": "bool"
        }
      ],
      "stateMutability": "view",
      "type": "function"
    },
    {
      "inputs": [],
      "name": "isInitialized",
      "outputs": [
        {
          "internalType": "bool",
          "name": "",
          "type": "bool"
        }
      ],
      "stateMutability": "view",
      "type": "function"
    },
    {
      "inputs": [],
      "name": "isRevoked",
      "outputs": [
        {
          "internalType": "bool",
          "name": "",
          "type": "bool"
        }
      ],
      "stateMutability": "view",
      "type": "function"
    },
    {
      "inputs": [],
      "name": "managedAmount",
      "outputs": [
        {
          "internalType": "uint256",
          "name": "",
          "type": "uint256"
        }
      ],
      "stateMutability": "view",
      "type": "function"
    },
    {
      "inputs": [],
      "name": "owner",
      "outputs": [
        {
          "internalType": "address",
          "name": "",
          "type": "address"
        }
      ],
      "stateMutability": "view",
      "type": "function"
    },
    {
      "inputs": [],
      "name": "passedPeriods",
      "outputs": [
        {
          "internalType": "uint256",
          "name": "",
          "type": "uint256"
        }
      ],
      "stateMutability": "view",
      "type": "function"
    },
    {
      "inputs": [],
      "name": "periodDuration",
      "outputs": [
        {
          "internalType": "uint256",
          "name": "",
          "type": "uint256"
        }
      ],
      "stateMutability": "view",
      "type": "function"
    },
    {
      "inputs": [],
      "name": "periods",
      "outputs": [
        {
          "internalType": "uint256",
          "name": "",
          "type": "uint256"
        }
      ],
      "stateMutability": "view",
      "type": "function"
    },
    {
      "inputs": [],
      "name": "releasableAmount",
      "outputs": [
        {
          "internalType": "uint256",
          "name": "",
          "type": "uint256"
        }
      ],
      "stateMutability": "view",
      "type": "function"
    },
    {
      "inputs": [],
      "name": "release",
      "outputs": [],
      "stateMutability": "nonpayable",
      "type": "function"
    },
    {
      "inputs": [],
      "name": "releaseStartTime",
      "outputs": [
        {
          "internalType": "uint256",
          "name": "",
          "type": "uint256"
        }
      ],
      "stateMutability": "view",
      "type": "function"
    },
    {
      "inputs": [],
      "name": "releasedAmount",
      "outputs": [
        {
          "internalType": "uint256",
          "name": "",
          "type": "uint256"
        }
      ],
      "stateMutability": "view",
      "type": "function"
    },
    {
      "inputs": [],
      "name": "renounceOwnership",
      "outputs": [],
      "stateMutability": "nonpayable",
      "type": "function"
    },
    {
      "inputs": [],
      "name": "revocable",
      "outputs": [
        {
          "internalType": "enum ITokenLock.Revocability",
          "name": "",
          "type": "uint8"
        }
      ],
      "stateMutability": "view",
      "type": "function"
    },
    {
      "inputs": [],
      "name": "revoke",
      "outputs": [],
      "stateMutability": "nonpayable",
      "type": "function"
    },
    {
      "inputs": [],
      "name": "sinceStartTime",
      "outputs": [
        {
          "internalType": "uint256",
          "name": "",
          "type": "uint256"
        }
      ],
      "stateMutability": "view",
      "type": "function"
    },
    {
      "inputs": [],
      "name": "startTime",
      "outputs": [
        {
          "internalType": "uint256",
          "name": "",
          "type": "uint256"
        }
      ],
      "stateMutability": "view",
      "type": "function"
    },
    {
      "inputs": [],
      "name": "surplusAmount",
      "outputs": [
        {
          "internalType": "uint256",
          "name": "",
          "type": "uint256"
        }
      ],
      "stateMutability": "view",
      "type": "function"
    },
    {
      "inputs": [
        {
          "internalType": "contract IERC20",
          "name": "_token",
          "type": "address"
        }
      ],
      "name": "sweepToken",
      "outputs": [],
      "stateMutability": "nonpayable",
      "type": "function"
    },
    {
      "inputs": [],
      "name": "token",
      "outputs": [
        {
          "internalType": "contract IERC20",
          "name": "",
          "type": "address"
        }
      ],
      "stateMutability": "view",
      "type": "function"
    },
    {
      "inputs": [],
      "name": "totalOutstandingAmount",
      "outputs": [
        {
          "internalType": "uint256",
          "name": "",
          "type": "uint256"
        }
      ],
      "stateMutability": "view",
      "type": "function"
    },
    {
      "inputs": [
        {
          "internalType": "address",
          "name": "newOwner",
          "type": "address"
        }
      ],
      "name": "transferOwnership",
      "outputs": [],
      "stateMutability": "nonpayable",
      "type": "function"
    },
    {
      "inputs": [],
      "name": "vestedAmount",
      "outputs": [
        {
          "internalType": "uint256",
          "name": "",
          "type": "uint256"
        }
      ],
      "stateMutability": "view",
      "type": "function"
    },
    {
      "inputs": [],
      "name": "vestingCliffTime",
      "outputs": [
        {
          "internalType": "uint256",
          "name": "",
          "type": "uint256"
        }
      ],
      "stateMutability": "view",
      "type": "function"
    },
    {
      "inputs": [
        {
          "internalType": "uint256",
          "name": "_amount",
          "type": "uint256"
        }
      ],
      "name": "withdrawSurplus",
      "outputs": [],
      "stateMutability": "nonpayable",
      "type": "function"
    }
  ],
  "transactionHash": "0x8a15b3e927cb5422e3d2ad961f16e8906fe0e257ab4357976a52c9f132f71891",
  "args": [],
  "numDeployments": 1,
  "solcInputHash": "8b5539535f0eb3c15fe0dd317837e297",
  "bytecode": "0x608060405234801561001057600080fd5b5061001a33610036565b6000196005556009805462ff0000191662010000179055610086565b600080546001600160a01b038381166001600160a01b0319831681178455604051919092169283917f8be0079c531659141344cd1fd0a4f28419497f9722a3daafe3b4186f6b6457e09190a35050565b611a1a806100956000396000f3fe608060405234801561001057600080fd5b506004361061023d5760003560e01c80637a7deb8e1161013b578063b470aade116100b8578063dc0706571161007c578063dc0706571461040b578063e97d87d51461041e578063ebbab99214610427578063f2fde38b1461042f578063fc0c546a1461044257600080fd5b8063b470aade146103e5578063b6549f75146103ed578063bc0163c1146103f5578063ce845d1d146103fd578063d18e81b31461040557600080fd5b80638a5bdf5c116100ff5780638a5bdf5c146103a85780638da5cb5b146103b057806391f7cfb9146103c1578063a4caeb42146103c9578063b0d1818c146103d257600080fd5b80637a7deb8e146103685780637bdf05af1461037557806386d00e021461037d57806386d1a69f14610386578063872a78101461038e57600080fd5b806338af3eed116101c95780635051a5ec1161018d5780635051a5ec146103285780635b9400811461033c5780635c19a95c14610344578063715018a61461035757806378e979251461035f57600080fd5b806338af3eed146102d0578063392e53cd146102fb578063398057a31461030e57806344b1231f1461031757806345d30a171461031f57600080fd5b80630fb5a6b4116102105780630fb5a6b4146102775780631be195601461027f5780632bc9ed02146102925780633147e6a8146102b45780633197cbb6146102c757600080fd5b8063029c6c9f14610242578063060406181461025d5780630b80f777146102655780630dff24d51461026f575b600080fd5b61024a610455565b6040519081526020015b60405180910390f35b61024a61046c565b61026d610494565b005b61024a610556565b61024a610591565b61026d61028d366004611758565b6105a3565b6009546102a490610100900460ff1681565b6040519015158152602001610254565b61026d6102c236600461179a565b6106f8565b61024a60055481565b6002546102e3906001600160a01b031681565b6040516001600160a01b039091168152602001610254565b6009546102a49062010000900460ff1681565b61024a60035481565b61024a610786565b61024a600a5481565b6009546102a4906301000000900460ff1681565b61024a6107d3565b61026d610352366004611758565b610862565b61026d610936565b61024a60045481565b600b546102a49060ff1681565b61024a61094a565b61024a60085481565b61026d61096d565b60095461039b9060ff1681565b604051610254919061185e565b61026d610a75565b6000546001600160a01b03166102e3565b61024a610add565b61024a60065481565b61026d6103e0366004611886565b610b20565b61024a610c51565b61026d610c68565b61024a610e05565b61024a610e17565b4261024a565b61026d610419366004611758565b610e84565b61024a60075481565b61024a610f4c565b61026d61043d366004611758565b610f62565b6001546102e3906001600160a01b031681565b600060065460035461046791906118b5565b905090565b60006001610478610c51565b61048061094a565b61048a91906118b5565b61046791906118d7565b61049c610fd8565b6009546301000000900460ff16156104fb5760405162461bcd60e51b815260206004820152601f60248201527f43616e6e6f742063616e63656c20616363657074656420636f6e74726163740060448201526064015b60405180910390fd5b61052b6105106000546001600160a01b031690565b610518610e17565b6001546001600160a01b03169190611032565b6040517f171f0bcbda3370351cea17f3b164bee87d77c2503b94abdf2720a814ebe7e9df90600090a1565b600080610561610e17565b9050600061056d610e05565b9050808211156105885761058181836118ea565b9250505090565b60009250505090565b600060045460055461046791906118ea565b6000806105b86000546001600160a01b031690565b6001600160a01b0316146105d7576000546001600160a01b03166105e4565b6002546001600160a01b03165b9050336001600160a01b0382161461060e5760405162461bcd60e51b81526004016104f2906118fd565b6001546001600160a01b039081169083160361066c5760405162461bcd60e51b815260206004820152601960248201527f63616e6e6f742073776565702076657374656420746f6b656e0000000000000060448201526064016104f2565b6040516370a0823160e01b81523060048201526000906001600160a01b038416906370a0823190602401602060405180830381865afa1580156106b3573d6000803e3d6000fd5b505050506040513d601f19601f820116820180604052508101906106d7919061191c565b905080156106f3576106f36001600160a01b0384168383611032565b505050565b61070a8b8b8b8b8b8b8b8b8b8b611084565b8015610779576040516317066a5760e21b81526001600160a01b038b811660048301528a1690635c19a95c90602401600060405180830381600087803b15801561075357600080fd5b505af1158015610767573d6000803e3d6000fd5b5050600b805460ff1916600117905550505b5050505050505050505050565b6000600260095460ff1660028111156107a1576107a1611848565b036107ad575060035490565b60006008541180156107c0575060085442105b156107cb5750600090565b610467610add565b6000806007541180156107e7575060075442105b156107f25750600090565b600160095460ff16600281111561080b5761080b611848565b14801561081a57506000600854115b8015610827575060085442105b156108325750600090565b6000600a5461083f610add565b61084991906118ea565b905061085c610856610e17565b82611459565b91505090565b6002546001600160a01b0316331461088c5760405162461bcd60e51b81526004016104f2906118fd565b600b5460ff166108d45760405162461bcd60e51b815260206004820152601360248201527264656c65676174652069732064697361626c6560681b60448201526064016104f2565b6001546040516317066a5760e21b81526001600160a01b03838116600483015290911690635c19a95c90602401600060405180830381600087803b15801561091b57600080fd5b505af115801561092f573d6000803e3d6000fd5b5050505050565b61093e610fd8565b6109486000611473565b565b6004546000904290811161096057600091505090565b60045461085c90826118ea565b6002546001600160a01b031633146109975760405162461bcd60e51b81526004016104f2906118fd565b60006109a16107d3565b9050600081116109f35760405162461bcd60e51b815260206004820152601e60248201527f4e6f20617661696c61626c652072656c65617361626c6520616d6f756e74000060448201526064016104f2565b80600a6000828254610a0591906118d7565b9091555050600254600154610a27916001600160a01b03918216911683611032565b6002546040518281526001600160a01b03909116907fc7798891864187665ac6dd119286e44ec13f014527aeeb2b8eb3fd413df93179906020015b60405180910390a2610a726114c3565b50565b6002546001600160a01b03163314610a9f5760405162461bcd60e51b81526004016104f2906118fd565b6009805463ff000000191663010000001790556040517fbeb3313724453131feb0a765a03e6715bb720e0f973a31fcbafa2d2f048c188b90600090a1565b6004546000904290811015610af457600091505090565b600554811115610b0657505060035490565b610b0e610455565b610b16610f4c565b61085c9190611935565b6002546001600160a01b03163314610b4a5760405162461bcd60e51b81526004016104f2906118fd565b60008111610b925760405162461bcd60e51b8152602060048201526015602482015274416d6f756e742063616e6e6f74206265207a65726f60581b60448201526064016104f2565b80610b9b610556565b1015610bf55760405162461bcd60e51b8152602060048201526024808201527f416d6f756e7420726571756573746564203e20737572706c757320617661696c60448201526361626c6560e01b60648201526084016104f2565b600254600154610c12916001600160a01b03918216911683611032565b6002546040518281526001600160a01b03909116907f6352c5382c4a4578e712449ca65e83cdb392d045dfcf1cad9615189db2da244b90602001610a62565b6000600654610c5e610591565b61046791906118b5565b610c70610fd8565b600160095460ff166002811115610c8957610c89611848565b14610cd65760405162461bcd60e51b815260206004820152601960248201527f436f6e7472616374206973206e6f6e2d7265766f6361626c650000000000000060448201526064016104f2565b600954610100900460ff1615610d205760405162461bcd60e51b815260206004820152600f60248201526e105b1c9958591e481c995d9bdad959608a1b60448201526064016104f2565b6000610d2a610786565b600354610d3791906118ea565b905060008111610d895760405162461bcd60e51b815260206004820152601c60248201527f4e6f20617661696c61626c6520756e76657374656420616d6f756e740000000060448201526064016104f2565b6009805461ff001916610100179055610dc0610dad6000546001600160a01b031690565b6001546001600160a01b03169083611032565b6002546040518281526001600160a01b03909116907fb73c49a3a37a7aca291ba0ceaa41657012def406106a7fc386888f0f66e941cf9060200160405180910390a250565b6000600a5460035461046791906118ea565b6001546040516370a0823160e01b81523060048201526000916001600160a01b0316906370a0823190602401602060405180830381865afa158015610e60573d6000803e3d6000fd5b505050506040513d601f19601f82011682018060405250810190610467919061191c565b6002546001600160a01b03163314610eae5760405162461bcd60e51b81526004016104f2906118fd565b6001600160a01b038116610ef85760405162461bcd60e51b8152602060048201526011602482015270456d7074792062656e656669636961727960781b60448201526064016104f2565b600280546001600160a01b0319166001600160a01b0383169081179091556040519081527f373c72efabe4ef3e552ff77838be729f3bc3d8c586df0012902d1baa2377fa1d9060200160405180910390a150565b60006001610f5861046c565b61046791906118ea565b610f6a610fd8565b6001600160a01b038116610fcf5760405162461bcd60e51b815260206004820152602660248201527f4f776e61626c653a206e6577206f776e657220697320746865207a65726f206160448201526564647265737360d01b60648201526084016104f2565b610a7281611473565b6000546001600160a01b031633146109485760405162461bcd60e51b815260206004820181905260248201527f4f776e61626c653a2063616c6c6572206973206e6f7420746865206f776e657260448201526064016104f2565b604080516001600160a01b038416602482015260448082018490528251808303909101815260649091019091526020810180516001600160e01b031663a9059cbb60e01b1790526106f39084906114e1565b60095462010000900460ff16156110d35760405162461bcd60e51b8152602060048201526013602482015272105b1c9958591e481a5b9a5d1a585b1a5e9959606a1b60448201526064016104f2565b6001600160a01b0389166111295760405162461bcd60e51b815260206004820152601a60248201527f42656e65666963696172792063616e6e6f74206265207a65726f00000000000060448201526064016104f2565b6001600160a01b0388166111765760405162461bcd60e51b8152602060048201526014602482015273546f6b656e2063616e6e6f74206265207a65726f60601b60448201526064016104f2565b600087116111c65760405162461bcd60e51b815260206004820152601d60248201527f4d616e6167656420746f6b656e732063616e6e6f74206265207a65726f00000060448201526064016104f2565b8560000361120f5760405162461bcd60e51b815260206004820152601660248201527514dd185c9d081d1a5b59481b5d5cdd081899481cd95d60521b60448201526064016104f2565b8486106112565760405162461bcd60e51b815260206004820152601560248201527453746172742074696d65203e20656e642074696d6560581b60448201526064016104f2565b60018410156112a75760405162461bcd60e51b815260206004820152601f60248201527f506572696f64732063616e6e6f742062652062656c6f77206d696e696d756d0060448201526064016104f2565b60008160028111156112bb576112bb611848565b036113085760405162461bcd60e51b815260206004820152601e60248201527f4d757374207365742061207265766f636162696c697479206f7074696f6e000060448201526064016104f2565b84831061136a5760405162461bcd60e51b815260206004820152602a60248201527f52656c656173652073746172742074696d65206d757374206265206265666f726044820152696520656e642074696d6560b01b60648201526084016104f2565b8482106113c45760405162461bcd60e51b815260206004820152602260248201527f436c6966662074696d65206d757374206265206265666f726520656e642074696044820152616d6560f01b60648201526084016104f2565b6009805462ff00001916620100001790556113de8a611473565b600280546001600160a01b03808c166001600160a01b031992831617835560018054918c1691909216178155600389905560048890556005879055600686905560078590556008849055600980548493919260ff1990911691849081111561144857611448611848565b021790555050505050505050505050565b6000818310611468578161146a565b825b90505b92915050565b600080546001600160a01b038381166001600160a01b0319831681178455604051919092169283917f8be0079c531659141344cd1fd0a4f28419497f9722a3daafe3b4186f6b6457e09190a35050565b600554421180156114d957506114d7610e17565b155b156109485733ff5b6000611536826040518060400160405280602081526020017f5361666545524332303a206c6f772d6c6576656c2063616c6c206661696c6564815250856001600160a01b03166115b39092919063ffffffff16565b8051909150156106f357808060200190518101906115549190611954565b6106f35760405162461bcd60e51b815260206004820152602a60248201527f5361666545524332303a204552433230206f7065726174696f6e20646964206e6044820152691bdd081cdd58d8d9595960b21b60648201526084016104f2565b60606115c284846000856115ca565b949350505050565b60608247101561162b5760405162461bcd60e51b815260206004820152602660248201527f416464726573733a20696e73756666696369656e742062616c616e636520666f6044820152651c8818d85b1b60d21b60648201526084016104f2565b600080866001600160a01b031685876040516116479190611995565b60006040518083038185875af1925050503d8060008114611684576040519150601f19603f3d011682016040523d82523d6000602084013e611689565b606091505b509150915061169a878383876116a5565b979650505050505050565b6060831561171457825160000361170d576001600160a01b0385163b61170d5760405162461bcd60e51b815260206004820152601d60248201527f416464726573733a2063616c6c20746f206e6f6e2d636f6e747261637400000060448201526064016104f2565b50816115c2565b6115c283838151156117295781518083602001fd5b8060405162461bcd60e51b81526004016104f291906119b1565b6001600160a01b0381168114610a7257600080fd5b60006020828403121561176a57600080fd5b813561177581611743565b9392505050565b8015158114610a7257600080fd5b80356117958161177c565b919050565b60008060008060008060008060008060006101608c8e0312156117bc57600080fd5b8b356117c781611743565b9a5060208c01356117d781611743565b995060408c01356117e781611743565b985060608c0135975060808c0135965060a08c0135955060c08c0135945060e08c013593506101008c013592506101208c01356003811061182757600080fd5b91506118366101408d0161178a565b90509295989b509295989b9093969950565b634e487b7160e01b600052602160045260246000fd5b602081016003831061188057634e487b7160e01b600052602160045260246000fd5b91905290565b60006020828403121561189857600080fd5b5035919050565b634e487b7160e01b600052601160045260246000fd5b6000826118d257634e487b7160e01b600052601260045260246000fd5b500490565b8082018082111561146d5761146d61189f565b8181038181111561146d5761146d61189f565b602080825260059082015264042c2eae8d60db1b604082015260600190565b60006020828403121561192e57600080fd5b5051919050565b600081600019048311821515161561194f5761194f61189f565b500290565b60006020828403121561196657600080fd5b81516117758161177c565b60005b8381101561198c578181015183820152602001611974565b50506000910152565b600082516119a7818460208701611971565b9190910192915050565b60208152600082518060208401526119d0816040850160208701611971565b601f01601f1916919091016040019291505056fea2646970667358221220304d21d427c303139971e6fabb43dbf440c93e30cce8806625c8b227727567aa64736f6c63430008100033",
  "devdoc": {
    "kind": "dev",
    "methods": {
      "acceptLock()": {
        "details": "Can only be called by the beneficiary"
      },
      "amountPerPeriod()": {
        "returns": {
          "_0": "Amount of tokens available after each period"
        }
      },
      "availableAmount()": {
        "details": "Implements the step-by-step schedule based on periods for available tokens",
        "returns": {
          "_0": "Amount of tokens available according to the schedule"
        }
      },
      "cancelLock()": {
        "details": "Can only be called by the owner"
      },
      "changeBeneficiary(address)": {
        "details": "Can only be called by the beneficiary",
        "params": {
          "_newBeneficiary": "Address of the new beneficiary address"
        }
      },
      "currentBalance()": {
        "returns": {
          "_0": "Tokens held in the contract"
        }
      },
      "currentPeriod()": {
        "returns": {
          "_0": "A number that represents the current period"
        }
      },
      "currentTime()": {
        "returns": {
          "_0": "Current block timestamp"
        }
      },
      "delegate(address)": {
        "details": "delegate voting power",
        "params": {
          "_delegatee": "Address of delegatee"
        }
      },
      "duration()": {
        "returns": {
          "_0": "Amount of seconds from contract startTime to endTime"
        }
      },
      "owner()": {
        "details": "Returns the address of the current owner."
      },
      "passedPeriods()": {
        "returns": {
          "_0": "A number of periods that passed since the schedule started"
        }
      },
      "periodDuration()": {
        "returns": {
          "_0": "Duration of each period in seconds"
        }
      },
      "releasableAmount()": {
        "details": "Considers the schedule and takes into account already released tokens",
        "returns": {
          "_0": "Amount of tokens ready to be released"
        }
      },
      "release()": {
        "details": "All available releasable tokens are transferred to beneficiary"
      },
      "renounceOwnership()": {
        "details": "Leaves the contract without owner. It will not be possible to call `onlyOwner` functions anymore. Can only be called by the current owner. NOTE: Renouncing ownership will leave the contract without an owner, thereby removing any functionality that is only available to the owner."
      },
      "revoke()": {
        "details": "Vesting schedule is always calculated based on managed tokens"
      },
      "sinceStartTime()": {
        "details": "Returns zero if called before conctract starTime",
        "returns": {
          "_0": "Seconds elapsed from contract startTime"
        }
      },
      "surplusAmount()": {
        "details": "All funds over outstanding amount is considered surplus that can be withdrawn by beneficiary",
        "returns": {
          "_0": "Amount of tokens considered as surplus"
        }
      },
      "sweepToken(address)": {
        "details": "sweeps out accidentally sent tokens",
        "params": {
          "_token": "Address of token to sweep"
        }
      },
      "totalOutstandingAmount()": {
        "details": "Does not consider schedule but just global amounts tracked",
        "returns": {
          "_0": "Amount of outstanding tokens for the lifetime of the contract"
        }
      },
      "transferOwnership(address)": {
        "details": "Transfers ownership of the contract to a new account (`newOwner`). Can only be called by the current owner."
      },
      "vestedAmount()": {
        "details": "Similar to available amount, but is fully vested when contract is non-revocable",
        "returns": {
          "_0": "Amount of tokens already vested"
        }
      },
      "withdrawSurplus(uint256)": {
        "details": "Tokens in the contract over outstanding amount are considered as surplus",
        "params": {
          "_amount": "Amount of tokens to withdraw"
        }
      }
    },
    "version": 1
  },
  "userdoc": {
    "kind": "user",
    "methods": {
      "acceptLock()": {
        "notice": "Beneficiary accepts the lock, the owner cannot cancel the lock. But in case that the contract is defined as revocable, the owner can revoke the contract at any time and retrieve all unvested tokens."
      },
      "amountPerPeriod()": {
        "notice": "Returns amount available to be released after each period according to schedule"
      },
      "availableAmount()": {
        "notice": "Gets the currently available token according to the schedule"
      },
      "cancelLock()": {
        "notice": "Owner cancel the lock and return the balance in the contract"
      },
      "changeBeneficiary(address)": {
        "notice": "Change the beneficiary of funds managed by the contract"
      },
      "currentBalance()": {
        "notice": "Returns the amount of tokens currently held by the contract"
      },
      "currentPeriod()": {
        "notice": "Gets the current period based on the schedule"
      },
      "currentTime()": {
        "notice": "Returns the current block timestamp"
      },
      "duration()": {
        "notice": "Gets duration of contract from start to end in seconds"
      },
      "passedPeriods()": {
        "notice": "Gets the number of periods that passed since the first period"
      },
      "periodDuration()": {
        "notice": "Returns the duration of each period in seconds"
      },
      "releasableAmount()": {
        "notice": "Gets tokens currently available for release"
      },
      "release()": {
        "notice": "Releases tokens based on the configured schedule"
      },
      "revoke()": {
        "notice": "Revokes a vesting schedule and return the unvested tokens to the owner"
      },
      "sinceStartTime()": {
        "notice": "Gets time elapsed since the start of the contract"
      },
      "surplusAmount()": {
        "notice": "Gets surplus amount in the contract based on outstanding amount to release"
      },
      "totalOutstandingAmount()": {
        "notice": "Gets the outstanding amount yet to be released based on the whole contract lifetime"
      },
      "vestedAmount()": {
        "notice": "Gets the amount of currently vested tokens"
      },
      "withdrawSurplus(uint256)": {
        "notice": "Withdraws surplus, unmanaged tokens from the contract"
      }
    },
    "version": 1
  },
  "storageLayout": {
    "storage": [
      {
        "astId": 3867,
        "contract": "contracts/tokenlock/HATTokenLock.sol:HATTokenLock",
        "label": "_owner",
        "offset": 0,
        "slot": "0",
        "type": "t_address"
      },
      {
        "astId": 21352,
        "contract": "contracts/tokenlock/HATTokenLock.sol:HATTokenLock",
        "label": "token",
        "offset": 0,
        "slot": "1",
        "type": "t_contract(IERC20)7110"
      },
      {
        "astId": 21354,
        "contract": "contracts/tokenlock/HATTokenLock.sol:HATTokenLock",
        "label": "beneficiary",
        "offset": 0,
        "slot": "2",
        "type": "t_address"
      },
      {
        "astId": 21356,
        "contract": "contracts/tokenlock/HATTokenLock.sol:HATTokenLock",
        "label": "managedAmount",
        "offset": 0,
        "slot": "3",
        "type": "t_uint256"
      },
      {
        "astId": 21358,
        "contract": "contracts/tokenlock/HATTokenLock.sol:HATTokenLock",
        "label": "startTime",
        "offset": 0,
        "slot": "4",
        "type": "t_uint256"
      },
      {
        "astId": 21360,
        "contract": "contracts/tokenlock/HATTokenLock.sol:HATTokenLock",
        "label": "endTime",
        "offset": 0,
        "slot": "5",
        "type": "t_uint256"
      },
      {
        "astId": 21362,
        "contract": "contracts/tokenlock/HATTokenLock.sol:HATTokenLock",
        "label": "periods",
        "offset": 0,
        "slot": "6",
        "type": "t_uint256"
      },
      {
        "astId": 21364,
        "contract": "contracts/tokenlock/HATTokenLock.sol:HATTokenLock",
        "label": "releaseStartTime",
        "offset": 0,
        "slot": "7",
        "type": "t_uint256"
      },
      {
        "astId": 21366,
        "contract": "contracts/tokenlock/HATTokenLock.sol:HATTokenLock",
        "label": "vestingCliffTime",
        "offset": 0,
        "slot": "8",
        "type": "t_uint256"
      },
      {
        "astId": 21369,
        "contract": "contracts/tokenlock/HATTokenLock.sol:HATTokenLock",
        "label": "revocable",
        "offset": 0,
        "slot": "9",
        "type": "t_enum(Revocability)21216"
      },
      {
        "astId": 21371,
        "contract": "contracts/tokenlock/HATTokenLock.sol:HATTokenLock",
        "label": "isRevoked",
        "offset": 1,
        "slot": "9",
        "type": "t_bool"
      },
      {
        "astId": 21373,
        "contract": "contracts/tokenlock/HATTokenLock.sol:HATTokenLock",
        "label": "isInitialized",
        "offset": 2,
        "slot": "9",
        "type": "t_bool"
      },
      {
        "astId": 21375,
        "contract": "contracts/tokenlock/HATTokenLock.sol:HATTokenLock",
        "label": "isAccepted",
        "offset": 3,
        "slot": "9",
        "type": "t_bool"
      },
      {
        "astId": 21377,
        "contract": "contracts/tokenlock/HATTokenLock.sol:HATTokenLock",
        "label": "releasedAmount",
        "offset": 0,
        "slot": "10",
        "type": "t_uint256"
      },
      {
        "astId": 21127,
        "contract": "contracts/tokenlock/HATTokenLock.sol:HATTokenLock",
        "label": "canDelegate",
        "offset": 0,
        "slot": "11",
        "type": "t_bool"
      }
    ],
    "types": {
      "t_address": {
        "encoding": "inplace",
        "label": "address",
        "numberOfBytes": "20"
      },
      "t_bool": {
        "encoding": "inplace",
        "label": "bool",
        "numberOfBytes": "1"
      },
      "t_contract(IERC20)7110": {
        "encoding": "inplace",
        "label": "contract IERC20",
        "numberOfBytes": "20"
      },
      "t_enum(Revocability)21216": {
        "encoding": "inplace",
        "label": "enum ITokenLock.Revocability",
        "numberOfBytes": "1"
      },
      "t_uint256": {
        "encoding": "inplace",
        "label": "uint256",
        "numberOfBytes": "32"
      }
    }
  }
}