{
  "address": "0x779fd60fBD55b91555033D0332DE9Eb69Aff007A",
  "abi": [
    {
      "inputs": [
        {
          "internalType": "address",
          "name": "_masterCopy",
          "type": "address"
        },
        {
          "internalType": "address",
          "name": "_governance",
          "type": "address"
        }
      ],
      "stateMutability": "nonpayable",
      "type": "constructor"
    },
    {
      "anonymous": false,
      "inputs": [
        {
          "indexed": true,
          "internalType": "address",
          "name": "masterCopy",
          "type": "address"
        }
      ],
      "name": "MasterCopyUpdated",
      "type": "event"
    },
    {
      "anonymous": false,
      "inputs": [
        {
          "indexed": true,
          "internalType": "address",
          "name": "previousOwner",
          "type": "address"
        },
        {
          "indexed": true,
          "internalType": "address",
          "name": "newOwner",
          "type": "address"
        }
      ],
      "name": "OwnershipTransferred",
      "type": "event"
    },
    {
      "anonymous": false,
      "inputs": [
        {
          "indexed": true,
          "internalType": "address",
          "name": "contractAddress",
          "type": "address"
        },
        {
          "indexed": true,
          "internalType": "bytes32",
          "name": "initHash",
          "type": "bytes32"
        },
        {
          "indexed": true,
          "internalType": "address",
          "name": "beneficiary",
          "type": "address"
        },
        {
          "indexed": false,
          "internalType": "address",
          "name": "token",
          "type": "address"
        },
        {
          "indexed": false,
          "internalType": "uint256",
          "name": "managedAmount",
          "type": "uint256"
        },
        {
          "indexed": false,
          "internalType": "uint256",
          "name": "startTime",
          "type": "uint256"
        },
        {
          "indexed": false,
          "internalType": "uint256",
          "name": "endTime",
          "type": "uint256"
        },
        {
          "indexed": false,
          "internalType": "uint256",
          "name": "periods",
          "type": "uint256"
        },
        {
          "indexed": false,
          "internalType": "uint256",
          "name": "releaseStartTime",
          "type": "uint256"
        },
        {
          "indexed": false,
          "internalType": "uint256",
          "name": "vestingCliffTime",
          "type": "uint256"
        },
        {
          "indexed": false,
          "internalType": "enum ITokenLock.Revocability",
          "name": "revocable",
          "type": "uint8"
        },
        {
          "indexed": false,
          "internalType": "bool",
          "name": "canDelegate",
          "type": "bool"
        }
      ],
      "name": "TokenLockCreated",
      "type": "event"
    },
    {
      "inputs": [
        {
          "internalType": "address",
          "name": "_token",
          "type": "address"
        },
        {
          "internalType": "address",
          "name": "_owner",
          "type": "address"
        },
        {
          "internalType": "address",
          "name": "_beneficiary",
          "type": "address"
        },
        {
          "internalType": "uint256",
          "name": "_managedAmount",
          "type": "uint256"
        },
        {
          "internalType": "uint256",
          "name": "_startTime",
          "type": "uint256"
        },
        {
          "internalType": "uint256",
          "name": "_endTime",
          "type": "uint256"
        },
        {
          "internalType": "uint256",
          "name": "_periods",
          "type": "uint256"
        },
        {
          "internalType": "uint256",
          "name": "_releaseStartTime",
          "type": "uint256"
        },
        {
          "internalType": "uint256",
          "name": "_vestingCliffTime",
          "type": "uint256"
        },
        {
          "internalType": "enum ITokenLock.Revocability",
          "name": "_revocable",
          "type": "uint8"
        },
        {
          "internalType": "bool",
          "name": "_canDelegate",
          "type": "bool"
        }
      ],
      "name": "createTokenLock",
      "outputs": [
        {
          "internalType": "address",
          "name": "contractAddress",
          "type": "address"
        }
      ],
      "stateMutability": "nonpayable",
      "type": "function"
    },
    {
      "inputs": [],
      "name": "masterCopy",
      "outputs": [
        {
          "internalType": "address",
          "name": "",
          "type": "address"
        }
      ],
      "stateMutability": "view",
      "type": "function"
    },
    {
      "inputs": [],
      "name": "owner",
      "outputs": [
        {
          "internalType": "address",
          "name": "",
          "type": "address"
        }
      ],
      "stateMutability": "view",
      "type": "function"
    },
    {
      "inputs": [],
      "name": "renounceOwnership",
      "outputs": [],
      "stateMutability": "nonpayable",
      "type": "function"
    },
    {
      "inputs": [
        {
          "internalType": "address",
          "name": "_masterCopy",
          "type": "address"
        }
      ],
      "name": "setMasterCopy",
      "outputs": [],
      "stateMutability": "nonpayable",
      "type": "function"
    },
    {
      "inputs": [
        {
          "internalType": "address",
          "name": "newOwner",
          "type": "address"
        }
      ],
      "name": "transferOwnership",
      "outputs": [],
      "stateMutability": "nonpayable",
      "type": "function"
    }
  ],
  "transactionHash": "0x780fbefd863b39b5ce26cb1d82c52ebbf81e05a7bd85380b784a071bb7fa0363",
  "args": [
    "0xae712b1f5D77e4085411b8588E83E9ac45EF0EF3",
    "0xd93cA9B44AdCb10D51057c8f77691cEB4EFbb7B3"
  ],
  "numDeployments": 1,
  "solcInputHash": "8186de70a6a6f54b1b5e651788d825b5",
  "bytecode": "0x608060405234801561001057600080fd5b50604051610ac1380380610ac183398101604081905261002f916101c6565b61003833610051565b610041826100a1565b61004a81610051565b50506101f9565b600080546001600160a01b038381166001600160a01b0319831681178455604051919092169283917f8be0079c531659141344cd1fd0a4f28419497f9722a3daafe3b4186f6b6457e09190a35050565b6100a961014e565b6001600160a01b0381166101045760405162461bcd60e51b815260206004820152601960248201527f4d6173746572436f70792063616e6e6f74206265207a65726f0000000000000060448201526064015b60405180910390fd5b600180546001600160a01b0319166001600160a01b0383169081179091556040517f30909084afc859121ffc3a5aef7fe37c540a9a1ef60bd4d8dcdb76376fadf9de90600090a250565b6000546001600160a01b031633146101a85760405162461bcd60e51b815260206004820181905260248201527f4f776e61626c653a2063616c6c6572206973206e6f7420746865206f776e657260448201526064016100fb565b565b80516001600160a01b03811681146101c157600080fd5b919050565b600080604083850312156101d957600080fd5b6101e2836101aa565b91506101f0602084016101aa565b90509250929050565b6108b9806102086000396000f3fe608060405234801561001057600080fd5b50600436106100625760003560e01c8063715018a6146100675780638da5cb5b14610071578063a619486e1461009a578063cf497e6c146100ad578063e95cd051146100c0578063f2fde38b146100d3575b600080fd5b61006f6100e6565b005b6000546001600160a01b03165b6040516001600160a01b03909116815260200160405180910390f35b60015461007e906001600160a01b031681565b61006f6100bb366004610650565b6100fa565b61007e6100ce36600461066b565b6101a7565b61006f6100e1366004610650565b61021f565b6100ee610298565b6100f860006102f2565b565b610102610298565b6001600160a01b03811661015d5760405162461bcd60e51b815260206004820152601960248201527f4d6173746572436f70792063616e6e6f74206265207a65726f0000000000000060448201526064015b60405180910390fd5b600180546001600160a01b0319166001600160a01b0383169081179091556040517f30909084afc859121ffc3a5aef7fe37c540a9a1ef60bd4d8dcdb76376fadf9de90600090a250565b6000808b8b8e8c8c8c8c8c8c8c8c6040516024016101cf9b9a9998979695949392919061073e565b60408051601f198184030181529190526020810180516001600160e01b0316630628fcd560e31b179052905061020e818c8f8d8d8d8d8d8d8d8d610342565b9d9c50505050505050505050505050565b610227610298565b6001600160a01b03811661028c5760405162461bcd60e51b815260206004820152602660248201527f4f776e61626c653a206e6577206f776e657220697320746865207a65726f206160448201526564647265737360d01b6064820152608401610154565b610295816102f2565b50565b6000546001600160a01b031633146100f85760405162461bcd60e51b815260206004820181905260248201527f4f776e61626c653a2063616c6c6572206973206e6f7420746865206f776e65726044820152606401610154565b600080546001600160a01b038381166001600160a01b0319831681178455604051919092169283917f8be0079c531659141344cd1fd0a4f28419497f9722a3daafe3b4186f6b6457e09190a35050565b60015460009061035a906001600160a01b03166103d9565b9050610366818d610473565b508a6001600160a01b03168c80519060200120826001600160a01b03167f5dc8081a59af8558f066632d894f2447785b2967a1d042627a424360e5bb882e8d8d8d8d8d8d8d8d8d6040516103c2999897969594939291906107b1565b60405180910390a49b9a5050505050505050505050565b6000763d602d80600a3d3981f3363d3d373d3d3d363d730000008260601b60e81c176000526e5af43d82803e903d91602b57fd5bf38260781b17602052603760096000f090506001600160a01b03811661046e5760405162461bcd60e51b8152602060048201526016602482015275115490cc4c4d8dce8818dc99585d194819985a5b195960521b6044820152606401610154565b919050565b60606104b7838360006040518060400160405280601e81526020017f416464726573733a206c6f772d6c6576656c2063616c6c206661696c656400008152506104be565b9392505050565b60608247101561051f5760405162461bcd60e51b815260206004820152602660248201527f416464726573733a20696e73756666696369656e742062616c616e636520666f6044820152651c8818d85b1b60d21b6064820152608401610154565b600080866001600160a01b0316858760405161053b9190610834565b60006040518083038185875af1925050503d8060008114610578576040519150601f19603f3d011682016040523d82523d6000602084013e61057d565b606091505b509150915061058e8783838761059b565b925050505b949350505050565b6060831561060a578251600003610603576001600160a01b0385163b6106035760405162461bcd60e51b815260206004820152601d60248201527f416464726573733a2063616c6c20746f206e6f6e2d636f6e74726163740000006044820152606401610154565b5081610593565b610593838381511561061f5781518083602001fd5b8060405162461bcd60e51b81526004016101549190610850565b80356001600160a01b038116811461046e57600080fd5b60006020828403121561066257600080fd5b6104b782610639565b60008060008060008060008060008060006101608c8e03121561068d57600080fd5b6106968c610639565b9a506106a460208d01610639565b99506106b260408d01610639565b985060608c0135975060808c0135965060a08c0135955060c08c0135945060e08c013593506101008c013592506101208c0135600381106106f257600080fd5b91506101408c0135801515811461070857600080fd5b809150509295989b509295989b9093969950565b6003811061073a57634e487b7160e01b600052602160045260246000fd5b9052565b6001600160a01b038c811682528b811660208301528a166040820152606081018990526080810188905260a0810187905260c0810186905260e081018590526101008101849052610160810161079861012083018561071c565b8215156101408301529c9b505050505050505050505050565b6001600160a01b038a1681526020810189905260408101889052606081018790526080810186905260a0810185905260c0810184905261012081016107f960e083018561071c565b8215156101008301529a9950505050505050505050565b60005b8381101561082b578181015183820152602001610813565b50506000910152565b60008251610846818460208701610810565b9190910192915050565b602081526000825180602084015261086f816040850160208701610810565b601f01601f1916919091016040019291505056fea2646970667358221220533e41e8d48fcae8056ad9a95589d7884140da9a958024180bfa46a2ec461bd964736f6c63430008100033",
  "devdoc": {
    "kind": "dev",
    "methods": {
      "constructor": {
        "params": {
          "_governance": "Owner of the factory",
          "_masterCopy": "Address of the master copy to use to clone proxies"
        }
      },
      "createTokenLock(address,address,address,uint256,uint256,uint256,uint256,uint256,uint256,uint8,bool)": {
        "params": {
          "_beneficiary": "Address of the beneficiary of locked tokens",
          "_canDelegate": "Whether the contract should call delegate",
          "_endTime": "End time of the release schedule",
          "_managedAmount": "Amount of tokens to be managed by the lock contract",
          "_owner": "Address of the contract owner",
          "_periods": "Number of periods between start time and end time",
          "_releaseStartTime": "Override time for when the releases start",
          "_revocable": "Whether the contract is revocable",
          "_startTime": "Start time of the release schedule",
          "_token": "token to time lock"
        }
      },
      "owner()": {
        "details": "Returns the address of the current owner."
      },
      "renounceOwnership()": {
        "details": "Leaves the contract without owner. It will not be possible to call `onlyOwner` functions anymore. Can only be called by the current owner. NOTE: Renouncing ownership will leave the contract without an owner, thereby removing any functionality that is only available to the owner."
      },
      "setMasterCopy(address)": {
        "params": {
          "_masterCopy": "Address of contract bytecode to factory clone"
        }
      },
      "transferOwnership(address)": {
        "details": "Transfers ownership of the contract to a new account (`newOwner`). Can only be called by the current owner."
      }
    },
    "title": "TokenLockFactory  a factory of TokenLock contracts. This contract receives funds to make the process of creating TokenLock contracts easier by distributing them the initial tokens to be managed.",
    "version": 1
  },
  "userdoc": {
    "kind": "user",
    "methods": {
      "constructor": {
        "notice": "Constructor."
      },
      "createTokenLock(address,address,address,uint256,uint256,uint256,uint256,uint256,uint256,uint8,bool)": {
        "notice": "Creates and fund a new token lock wallet using a minimum proxy"
      },
      "setMasterCopy(address)": {
        "notice": "Sets the masterCopy bytecode to use to create clones of TokenLock contracts"
      }
    },
    "version": 1
  },
  "storageLayout": {
    "storage": [
      {
        "astId": 3867,
        "contract": "contracts/tokenlock/TokenLockFactory.sol:TokenLockFactory",
        "label": "_owner",
        "offset": 0,
        "slot": "0",
        "type": "t_address"
      },
      {
        "astId": 22149,
        "contract": "contracts/tokenlock/TokenLockFactory.sol:TokenLockFactory",
        "label": "masterCopy",
        "offset": 0,
        "slot": "1",
        "type": "t_address"
      }
    ],
    "types": {
      "t_address": {
        "encoding": "inplace",
        "label": "address",
        "numberOfBytes": "20"
      }
    }
  }
}