{
  "address": "0xe8FF8B05961ECBAc067A9f5abDD4E7103aD75D40",
  "abi": [
    {
      "inputs": [
        {
          "internalType": "address",
          "name": "_feeReceiver",
          "type": "address"
        }
      ],
      "stateMutability": "nonpayable",
      "type": "constructor"
    },
    {
      "inputs": [],
      "name": "feeReceiver",
      "outputs": [
        {
          "internalType": "address",
          "name": "",
          "type": "address"
        }
      ],
      "stateMutability": "view",
      "type": "function"
    },
    {
      "inputs": [
        {
          "internalType": "contract IERC20",
          "name": "_asset",
          "type": "address"
        },
        {
          "internalType": "uint256",
          "name": "_amount",
          "type": "uint256"
        }
      ],
      "name": "forwardFee",
      "outputs": [],
      "stateMutability": "nonpayable",
      "type": "function"
    }
  ],
  "transactionHash": "0x78aa4d780bcceae759bc85e0abadb96c156f91d6af240058fabd5a4b3619c616",
  "args": [
    "0x022B95b4c02bbA85604506E6114485615b0aD09A"
  ],
  "numDeployments": 1,
  "solcInputHash": "5ff63cd99d3222d4b0ce35f49c8c6ac9",
  "bytecode": "0x60a060405234801561001057600080fd5b5060405161053238038061053283398101604081905261002f91610040565b6001600160a01b0316608052610070565b60006020828403121561005257600080fd5b81516001600160a01b038116811461006957600080fd5b9392505050565b6080516104a2610090600039600081816055015260a301526104a26000f3fe608060405234801561001057600080fd5b50600436106100365760003560e01c80632021d70e1461003b578063b3f0067414610050575b600080fd5b61004e610049366004610398565b610093565b005b6100777f000000000000000000000000000000000000000000000000000000000000000081565b6040516001600160a01b03909116815260200160405180910390f35b6100c86001600160a01b038316337f0000000000000000000000000000000000000000000000000000000000000000846100cc565b5050565b604080516001600160a01b0385811660248301528416604482015260648082018490528251808303909101815260849091019091526020810180516001600160e01b03166323b872dd60e01b17905261012690859061012c565b50505050565b6000610181826040518060400160405280602081526020017f5361666545524332303a206c6f772d6c6576656c2063616c6c206661696c6564815250856001600160a01b03166102089092919063ffffffff16565b805190915015610203578080602001905181019061019f91906103d0565b6102035760405162461bcd60e51b815260206004820152602a60248201527f5361666545524332303a204552433230206f7065726174696f6e20646964206e6044820152691bdd081cdd58d8d9595960b21b60648201526084015b60405180910390fd5b505050565b6060610217848460008561021f565b949350505050565b6060824710156102805760405162461bcd60e51b815260206004820152602660248201527f416464726573733a20696e73756666696369656e742062616c616e636520666f6044820152651c8818d85b1b60d21b60648201526084016101fa565b600080866001600160a01b0316858760405161029c919061041d565b60006040518083038185875af1925050503d80600081146102d9576040519150601f19603f3d011682016040523d82523d6000602084013e6102de565b606091505b50915091506102ef878383876102fa565b979650505050505050565b60608315610369578251600003610362576001600160a01b0385163b6103625760405162461bcd60e51b815260206004820152601d60248201527f416464726573733a2063616c6c20746f206e6f6e2d636f6e747261637400000060448201526064016101fa565b5081610217565b610217838381511561037e5781518083602001fd5b8060405162461bcd60e51b81526004016101fa9190610439565b600080604083850312156103ab57600080fd5b82356001600160a01b03811681146103c257600080fd5b946020939093013593505050565b6000602082840312156103e257600080fd5b815180151581146103f257600080fd5b9392505050565b60005b838110156104145781810151838201526020016103fc565b50506000910152565b6000825161042f8184602087016103f9565b9190910192915050565b60208152600082518060208401526104588160408501602087016103f9565b601f01601f1916919091016040019291505056fea2646970667358221220da1d005635a4bfa68e090f0a9056f0bfc9f9f5428b4cda69fb2a4ba4c3ed1adb64736f6c63430008100033",
  "devdoc": {
    "kind": "dev",
    "methods": {},
    "version": 1
  },
  "userdoc": {
    "kind": "user",
    "methods": {},
    "version": 1
  },
  "storageLayout": {
    "storage": [],
    "types": null
  }
}