{
  "address": "0x878Cab06E6f4a85D90E5f236d326a41Ef6f44F9f",
  "abi": [
    {
      "inputs": [],
      "stateMutability": "nonpayable",
      "type": "constructor"
    },
    {
      "anonymous": false,
      "inputs": [
        {
          "indexed": true,
          "internalType": "contract IERC20Upgradeable",
          "name": "token",
          "type": "address"
        },
        {
          "indexed": false,
          "internalType": "address",
          "name": "to",
          "type": "address"
        },
        {
          "indexed": false,
          "internalType": "uint256",
          "name": "amount",
          "type": "uint256"
        }
      ],
      "name": "ERC20PaymentReleased",
      "type": "event"
    },
    {
      "anonymous": false,
      "inputs": [
        {
          "indexed": false,
          "internalType": "uint8",
          "name": "version",
          "type": "uint8"
        }
      ],
      "name": "Initialized",
      "type": "event"
    },
    {
      "anonymous": false,
      "inputs": [
        {
          "indexed": false,
          "internalType": "address",
          "name": "account",
          "type": "address"
        },
        {
          "indexed": false,
          "internalType": "uint256",
          "name": "shares",
          "type": "uint256"
        }
      ],
      "name": "PayeeAdded",
      "type": "event"
    },
    {
      "anonymous": false,
      "inputs": [
        {
          "indexed": false,
          "internalType": "address",
          "name": "from",
          "type": "address"
        },
        {
          "indexed": false,
          "internalType": "uint256",
          "name": "amount",
          "type": "uint256"
        }
      ],
      "name": "PaymentReceived",
      "type": "event"
    },
    {
      "anonymous": false,
      "inputs": [
        {
          "indexed": false,
          "internalType": "address",
          "name": "to",
          "type": "address"
        },
        {
          "indexed": false,
          "internalType": "uint256",
          "name": "amount",
          "type": "uint256"
        }
      ],
      "name": "PaymentReleased",
      "type": "event"
    },
    {
      "inputs": [
        {
          "internalType": "address[]",
          "name": "_payees",
          "type": "address[]"
        },
        {
          "internalType": "uint256[]",
          "name": "_shares",
          "type": "uint256[]"
        }
      ],
      "name": "initialize",
      "outputs": [],
      "stateMutability": "nonpayable",
      "type": "function"
    },
    {
      "inputs": [
        {
          "internalType": "uint256",
          "name": "index",
          "type": "uint256"
        }
      ],
      "name": "payee",
      "outputs": [
        {
          "internalType": "address",
          "name": "",
          "type": "address"
        }
      ],
      "stateMutability": "view",
      "type": "function"
    },
    {
      "inputs": [
        {
          "internalType": "address",
          "name": "account",
          "type": "address"
        }
      ],
      "name": "releasable",
      "outputs": [
        {
          "internalType": "uint256",
          "name": "",
          "type": "uint256"
        }
      ],
      "stateMutability": "view",
      "type": "function"
    },
    {
      "inputs": [
        {
          "internalType": "contract IERC20Upgradeable",
          "name": "token",
          "type": "address"
        },
        {
          "internalType": "address",
          "name": "account",
          "type": "address"
        }
      ],
      "name": "releasable",
      "outputs": [
        {
          "internalType": "uint256",
          "name": "",
          "type": "uint256"
        }
      ],
      "stateMutability": "view",
      "type": "function"
    },
    {
      "inputs": [
        {
          "internalType": "address payable",
          "name": "account",
          "type": "address"
        }
      ],
      "name": "release",
      "outputs": [],
      "stateMutability": "nonpayable",
      "type": "function"
    },
    {
      "inputs": [
        {
          "internalType": "contract IERC20Upgradeable",
          "name": "token",
          "type": "address"
        },
        {
          "internalType": "address",
          "name": "account",
          "type": "address"
        }
      ],
      "name": "release",
      "outputs": [],
      "stateMutability": "nonpayable",
      "type": "function"
    },
    {
      "inputs": [
        {
          "internalType": "contract ITokenLock",
          "name": "_tokenLock",
          "type": "address"
        }
      ],
      "name": "releaseFromTokenLock",
      "outputs": [],
      "stateMutability": "nonpayable",
      "type": "function"
    },
    {
      "inputs": [
        {
          "internalType": "contract IERC20Upgradeable",
          "name": "token",
          "type": "address"
        },
        {
          "internalType": "address",
          "name": "account",
          "type": "address"
        }
      ],
      "name": "released",
      "outputs": [
        {
          "internalType": "uint256",
          "name": "",
          "type": "uint256"
        }
      ],
      "stateMutability": "view",
      "type": "function"
    },
    {
      "inputs": [
        {
          "internalType": "address",
          "name": "account",
          "type": "address"
        }
      ],
      "name": "released",
      "outputs": [
        {
          "internalType": "uint256",
          "name": "",
          "type": "uint256"
        }
      ],
      "stateMutability": "view",
      "type": "function"
    },
    {
      "inputs": [
        {
          "internalType": "address",
          "name": "account",
          "type": "address"
        }
      ],
      "name": "shares",
      "outputs": [
        {
          "internalType": "uint256",
          "name": "",
          "type": "uint256"
        }
      ],
      "stateMutability": "view",
      "type": "function"
    },
    {
      "inputs": [
        {
          "internalType": "contract ITokenLock",
          "name": "_tokenLock",
          "type": "address"
        },
        {
          "internalType": "contract IERC20",
          "name": "_token",
          "type": "address"
        }
      ],
      "name": "sweepTokenFromTokenLock",
      "outputs": [],
      "stateMutability": "nonpayable",
      "type": "function"
    },
    {
      "inputs": [
        {
          "internalType": "contract IERC20Upgradeable",
          "name": "token",
          "type": "address"
        }
      ],
      "name": "totalReleased",
      "outputs": [
        {
          "internalType": "uint256",
          "name": "",
          "type": "uint256"
        }
      ],
      "stateMutability": "view",
      "type": "function"
    },
    {
      "inputs": [],
      "name": "totalReleased",
      "outputs": [
        {
          "internalType": "uint256",
          "name": "",
          "type": "uint256"
        }
      ],
      "stateMutability": "view",
      "type": "function"
    },
    {
      "inputs": [],
      "name": "totalShares",
      "outputs": [
        {
          "internalType": "uint256",
          "name": "",
          "type": "uint256"
        }
      ],
      "stateMutability": "view",
      "type": "function"
    },
    {
      "inputs": [
        {
          "internalType": "contract ITokenLock",
          "name": "_tokenLock",
          "type": "address"
        },
        {
          "internalType": "uint256",
          "name": "_amount",
          "type": "uint256"
        }
      ],
      "name": "withdrawSurplusFromTokenLock",
      "outputs": [],
      "stateMutability": "nonpayable",
      "type": "function"
    },
    {
      "stateMutability": "payable",
      "type": "receive"
    }
  ],
  "transactionHash": "0xa0e205bac1f60b6ac95bc8a5426e6dd7efe03b2f2ab5f149c5996aa1ffd7795e",
  "args": [],
  "numDeployments": 1,
  "solcInputHash": "a3d2f8ec64940a1c45d6cab1d47bd387",
  "bytecode": "0x608060405234801561001057600080fd5b5061001961001e565b6100de565b600054610100900460ff161561008a5760405162461bcd60e51b815260206004820152602760248201527f496e697469616c697a61626c653a20636f6e747261637420697320696e697469604482015266616c697a696e6760c81b606482015260840160405180910390fd5b60005460ff90811610156100dc576000805460ff191660ff9081179091556040519081527f7f26b83ff96e1f2b6a682f133852f6798a09c465da95921460cefb38474024989060200160405180910390a15b565b6114bf806100ed6000396000f3fe6080604052600436106100ec5760003560e01c80638b83209b1161008a578063c50abbd111610059578063c50abbd1146102ce578063ce7c2ac2146102ee578063d79779b214610324578063e33b7de31461035a57600080fd5b80638b83209b146102205780639852595c14610258578063a3f8eace1461028e578063c45ac050146102ae57600080fd5b80633a98ef39116100c65780633a98ef391461019c578063406072a9146101c057806348b75044146101e05780637fbbe46f1461020057600080fd5b8063191655871461013a578063262500c11461015c5780632b4b9bb21461017c57600080fd5b36610135577f6ef95f06320e7a25a04a175ca677b7052bdd97131872c2192525a629f51be77033604080516001600160a01b0390921682523460208301520160405180910390a1005b600080fd5b34801561014657600080fd5b5061015a610155366004611020565b61036f565b005b34801561016857600080fd5b5061015a610177366004611020565b610460565b34801561018857600080fd5b5061015a61019736600461103d565b6104b6565b3480156101a857600080fd5b506033545b6040519081526020015b60405180910390f35b3480156101cc57600080fd5b506101ad6101db366004611069565b610515565b3480156101ec57600080fd5b5061015a6101fb366004611069565b610542565b34801561020c57600080fd5b5061015a61021b366004611178565b610653565b34801561022c57600080fd5b5061024061023b36600461123a565b610768565b6040516001600160a01b0390911681526020016101b7565b34801561026457600080fd5b506101ad610273366004611020565b6001600160a01b031660009081526036602052604090205490565b34801561029a57600080fd5b506101ad6102a9366004611020565b610798565b3480156102ba57600080fd5b506101ad6102c9366004611069565b6107e0565b3480156102da57600080fd5b5061015a6102e9366004611069565b610886565b3480156102fa57600080fd5b506101ad610309366004611020565b6001600160a01b031660009081526035602052604090205490565b34801561033057600080fd5b506101ad61033f366004611020565b6001600160a01b031660009081526038602052604090205490565b34801561036657600080fd5b506034546101ad565b6001600160a01b0381166000908152603560205260409020546103ad5760405162461bcd60e51b81526004016103a490611253565b60405180910390fd5b60006103b882610798565b9050806000036103da5760405162461bcd60e51b81526004016103a490611299565b80603460008282546103ec91906112fa565b90915550506001600160a01b038216600090815260366020526040902080548201905561041982826108b3565b604080516001600160a01b0384168152602081018390527fdf20fd1e76bc69d672e4814fafb2c449bba3a5369d8359adf9e05e6fde87b05691015b60405180910390a15050565b806001600160a01b03166386d1a69f6040518163ffffffff1660e01b8152600401600060405180830381600087803b15801561049b57600080fd5b505af11580156104af573d6000803e3d6000fd5b5050505050565b604051632c34606360e21b8152600481018290526001600160a01b0383169063b0d1818c906024015b600060405180830381600087803b1580156104f957600080fd5b505af115801561050d573d6000803e3d6000fd5b505050505050565b6001600160a01b038083166000908152603960209081526040808320938516835292905220545b92915050565b6001600160a01b0381166000908152603560205260409020546105775760405162461bcd60e51b81526004016103a490611253565b600061058383836107e0565b9050806000036105a55760405162461bcd60e51b81526004016103a490611299565b6001600160a01b038316600090815260386020526040812080548392906105cd9084906112fa565b90915550506001600160a01b0380841660009081526039602090815260408083209386168352929052208054820190556106088383836109cc565b604080516001600160a01b038481168252602082018490528516917f3be5b7a71e84ed12875d241991c70855ac5817d847039e17a9d895c1ceb0f18a910160405180910390a2505050565b600054610100900460ff16158080156106735750600054600160ff909116105b8061068d5750303b15801561068d575060005460ff166001145b6106f05760405162461bcd60e51b815260206004820152602e60248201527f496e697469616c697a61626c653a20636f6e747261637420697320616c72656160448201526d191e481a5b9a5d1a585b1a5e995960921b60648201526084016103a4565b6000805460ff191660011790558015610713576000805461ff0019166101001790555b61071d8383610a1e565b8015610763576000805461ff0019169055604051600181527f7f26b83ff96e1f2b6a682f133852f6798a09c465da95921460cefb38474024989060200160405180910390a15b505050565b60006037828154811061077d5761077d61130d565b6000918252602090912001546001600160a01b031692915050565b6000806107a460345490565b6107ae90476112fa565b90506107d983826107d4866001600160a01b031660009081526036602052604090205490565b610a53565b9392505050565b6001600160a01b03821660009081526038602052604081205481906040516370a0823160e01b81523060048201526001600160a01b038616906370a0823190602401602060405180830381865afa15801561083f573d6000803e3d6000fd5b505050506040513d601f19601f820116820180604052508101906108639190611323565b61086d91906112fa565b905061087e83826107d48787610515565b949350505050565b60405162df0cab60e51b81526001600160a01b038281166004830152831690631be19560906024016104df565b804710156109035760405162461bcd60e51b815260206004820152601d60248201527f416464726573733a20696e73756666696369656e742062616c616e636500000060448201526064016103a4565b6000826001600160a01b03168260405160006040518083038185875af1925050503d8060008114610950576040519150601f19603f3d011682016040523d82523d6000602084013e610955565b606091505b50509050806107635760405162461bcd60e51b815260206004820152603a60248201527f416464726573733a20756e61626c6520746f2073656e642076616c75652c207260448201527f6563697069656e74206d6179206861766520726576657274656400000000000060648201526084016103a4565b604080516001600160a01b038416602482015260448082018490528251808303909101815260649091019091526020810180516001600160e01b031663a9059cbb60e01b179052610763908490610a91565b600054610100900460ff16610a455760405162461bcd60e51b81526004016103a49061133c565b610a4f8282610b63565b5050565b6033546001600160a01b03841660009081526035602052604081205490918391610a7d9086611387565b610a8791906113a6565b61087e91906113c8565b6000610ae6826040518060400160405280602081526020017f5361666545524332303a206c6f772d6c6576656c2063616c6c206661696c6564815250856001600160a01b0316610ca19092919063ffffffff16565b8051909150156107635780806020019051810190610b0491906113db565b6107635760405162461bcd60e51b815260206004820152602a60248201527f5361666545524332303a204552433230206f7065726174696f6e20646964206e6044820152691bdd081cdd58d8d9595960b21b60648201526084016103a4565b600054610100900460ff16610b8a5760405162461bcd60e51b81526004016103a49061133c565b8051825114610bf65760405162461bcd60e51b815260206004820152603260248201527f5061796d656e7453706c69747465723a2070617965657320616e6420736861726044820152710cae640d8cadccee8d040dad2e6dac2e8c6d60731b60648201526084016103a4565b6000825111610c475760405162461bcd60e51b815260206004820152601a60248201527f5061796d656e7453706c69747465723a206e6f2070617965657300000000000060448201526064016103a4565b60005b825181101561076357610c8f838281518110610c6857610c6861130d565b6020026020010151838381518110610c8257610c8261130d565b6020026020010151610cb0565b80610c99816113fd565b915050610c4a565b606061087e8484600085610e8f565b6001600160a01b038216610d1b5760405162461bcd60e51b815260206004820152602c60248201527f5061796d656e7453706c69747465723a206163636f756e74206973207468652060448201526b7a65726f206164647265737360a01b60648201526084016103a4565b60008111610d6b5760405162461bcd60e51b815260206004820152601d60248201527f5061796d656e7453706c69747465723a2073686172657320617265203000000060448201526064016103a4565b6001600160a01b03821660009081526035602052604090205415610de55760405162461bcd60e51b815260206004820152602b60248201527f5061796d656e7453706c69747465723a206163636f756e7420616c726561647960448201526a206861732073686172657360a81b60648201526084016103a4565b60378054600181019091557f42a7b7dd785cd69714a189dffb3fd7d7174edc9ece837694ce50f7078f7c31ae0180546001600160a01b0319166001600160a01b0384169081179091556000908152603560205260409020819055603354610e4d9082906112fa565b603355604080516001600160a01b0384168152602081018390527f40c340f65e17194d14ddddb073d3c9f888e3cb52b5aae0c6c7706b4fbc905fac9101610454565b606082471015610ef05760405162461bcd60e51b815260206004820152602660248201527f416464726573733a20696e73756666696369656e742062616c616e636520666f6044820152651c8818d85b1b60d21b60648201526084016103a4565b600080866001600160a01b03168587604051610f0c919061143a565b60006040518083038185875af1925050503d8060008114610f49576040519150601f19603f3d011682016040523d82523d6000602084013e610f4e565b606091505b5091509150610f5f87838387610f6a565b979650505050505050565b60608315610fd9578251600003610fd2576001600160a01b0385163b610fd25760405162461bcd60e51b815260206004820152601d60248201527f416464726573733a2063616c6c20746f206e6f6e2d636f6e747261637400000060448201526064016103a4565b508161087e565b61087e8383815115610fee5781518083602001fd5b8060405162461bcd60e51b81526004016103a49190611456565b6001600160a01b038116811461101d57600080fd5b50565b60006020828403121561103257600080fd5b81356107d981611008565b6000806040838503121561105057600080fd5b823561105b81611008565b946020939093013593505050565b6000806040838503121561107c57600080fd5b823561108781611008565b9150602083013561109781611008565b809150509250929050565b634e487b7160e01b600052604160045260246000fd5b604051601f8201601f1916810167ffffffffffffffff811182821017156110e1576110e16110a2565b604052919050565b600067ffffffffffffffff821115611103576111036110a2565b5060051b60200190565b600082601f83011261111e57600080fd5b8135602061113361112e836110e9565b6110b8565b82815260059290921b8401810191818101908684111561115257600080fd5b8286015b8481101561116d5780358352918301918301611156565b509695505050505050565b6000806040838503121561118b57600080fd5b823567ffffffffffffffff808211156111a357600080fd5b818501915085601f8301126111b757600080fd5b813560206111c761112e836110e9565b82815260059290921b840181019181810190898411156111e657600080fd5b948201945b8386101561120d5785356111fe81611008565b825294820194908201906111eb565b9650508601359250508082111561122357600080fd5b506112308582860161110d565b9150509250929050565b60006020828403121561124c57600080fd5b5035919050565b60208082526026908201527f5061796d656e7453706c69747465723a206163636f756e7420686173206e6f2060408201526573686172657360d01b606082015260800190565b6020808252602b908201527f5061796d656e7453706c69747465723a206163636f756e74206973206e6f742060408201526a191d59481c185e5b595b9d60aa1b606082015260800190565b634e487b7160e01b600052601160045260246000fd5b8082018082111561053c5761053c6112e4565b634e487b7160e01b600052603260045260246000fd5b60006020828403121561133557600080fd5b5051919050565b6020808252602b908201527f496e697469616c697a61626c653a20636f6e7472616374206973206e6f74206960408201526a6e697469616c697a696e6760a81b606082015260800190565b60008160001904831182151516156113a1576113a16112e4565b500290565b6000826113c357634e487b7160e01b600052601260045260246000fd5b500490565b8181038181111561053c5761053c6112e4565b6000602082840312156113ed57600080fd5b815180151581146107d957600080fd5b60006001820161140f5761140f6112e4565b5060010190565b60005b83811015611431578181015183820152602001611419565b50506000910152565b6000825161144c818460208701611416565b9190910192915050565b6020815260008251806020840152611475816040850160208701611416565b601f01601f1916919091016040019291505056fea2646970667358221220fdd2eebed7346091480de809e2aef3eba69c8b60e713db531e8019899756f00064736f6c63430008100033",
  "devdoc": {
    "kind": "dev",
    "methods": {
      "payee(uint256)": {
        "details": "Getter for the address of the payee number `index`."
      },
      "releasable(address)": {
        "details": "Getter for the amount of payee's releasable Ether."
      },
      "releasable(address,address)": {
        "details": "Getter for the amount of payee's releasable `token` tokens. `token` should be the address of an IERC20 contract."
      },
      "release(address)": {
        "details": "Triggers a transfer to `account` of the amount of Ether they are owed, according to their percentage of the total shares and their previous withdrawals."
      },
      "release(address,address)": {
        "details": "Triggers a transfer to `account` of the amount of `token` tokens they are owed, according to their percentage of the total shares and their previous withdrawals. `token` must be the address of an IERC20 contract."
      },
      "releaseFromTokenLock(address)": {
        "params": {
          "_tokenLock": "The tokenlock to release from"
        }
      },
      "released(address)": {
        "details": "Getter for the amount of Ether already released to a payee."
      },
      "released(address,address)": {
        "details": "Getter for the amount of `token` tokens already released to a payee. `token` should be the address of an IERC20 contract."
      },
      "shares(address)": {
        "details": "Getter for the amount of shares held by an account."
      },
      "sweepTokenFromTokenLock(address,address)": {
        "params": {
          "_token": "Address of token to sweep",
          "_tokenLock": "The tokenlock to call sweepToken on"
        }
      },
      "totalReleased()": {
        "details": "Getter for the total amount of Ether already released."
      },
      "totalReleased(address)": {
        "details": "Getter for the total amount of `token` already released. `token` should be the address of an IERC20 contract."
      },
      "totalShares()": {
        "details": "Getter for the total shares held by payees."
      },
      "withdrawSurplusFromTokenLock(address,uint256)": {
        "params": {
          "_amount": "Amount of tokens to withdraw",
          "_tokenLock": "The tokenlock to withdraw surplus from"
        }
      }
    },
    "version": 1
  },
  "userdoc": {
    "kind": "user",
    "methods": {
      "releaseFromTokenLock(address)": {
        "notice": "Releases tokens from a tokenlock contract"
      },
      "sweepTokenFromTokenLock(address,address)": {
        "notice": "Sweeps out accidentally sent tokens from a tokenlock contract"
      },
      "withdrawSurplusFromTokenLock(address,uint256)": {
        "notice": "Withdraws surplus, unmanaged tokens from a tokenlock contract"
      }
    },
    "version": 1
  },
  "storageLayout": {
    "storage": [
      {
        "astId": 806,
        "contract": "contracts/HATPaymentSplitter.sol:HATPaymentSplitter",
        "label": "_initialized",
        "offset": 0,
        "slot": "0",
        "type": "t_uint8"
      },
      {
        "astId": 809,
        "contract": "contracts/HATPaymentSplitter.sol:HATPaymentSplitter",
        "label": "_initializing",
        "offset": 1,
        "slot": "0",
        "type": "t_bool"
      },
      {
        "astId": 3104,
        "contract": "contracts/HATPaymentSplitter.sol:HATPaymentSplitter",
        "label": "__gap",
        "offset": 0,
        "slot": "1",
        "type": "t_array(t_uint256)50_storage"
      },
      {
        "astId": 171,
        "contract": "contracts/HATPaymentSplitter.sol:HATPaymentSplitter",
        "label": "_totalShares",
        "offset": 0,
        "slot": "51",
        "type": "t_uint256"
      },
      {
        "astId": 173,
        "contract": "contracts/HATPaymentSplitter.sol:HATPaymentSplitter",
        "label": "_totalReleased",
        "offset": 0,
        "slot": "52",
        "type": "t_uint256"
      },
      {
        "astId": 177,
        "contract": "contracts/HATPaymentSplitter.sol:HATPaymentSplitter",
        "label": "_shares",
        "offset": 0,
        "slot": "53",
        "type": "t_mapping(t_address,t_uint256)"
      },
      {
        "astId": 181,
        "contract": "contracts/HATPaymentSplitter.sol:HATPaymentSplitter",
        "label": "_released",
        "offset": 0,
        "slot": "54",
        "type": "t_mapping(t_address,t_uint256)"
      },
      {
        "astId": 184,
        "contract": "contracts/HATPaymentSplitter.sol:HATPaymentSplitter",
        "label": "_payees",
        "offset": 0,
        "slot": "55",
        "type": "t_array(t_address)dyn_storage"
      },
      {
        "astId": 189,
        "contract": "contracts/HATPaymentSplitter.sol:HATPaymentSplitter",
        "label": "_erc20TotalReleased",
        "offset": 0,
        "slot": "56",
        "type": "t_mapping(t_contract(IERC20Upgradeable)1731,t_uint256)"
      },
      {
        "astId": 196,
        "contract": "contracts/HATPaymentSplitter.sol:HATPaymentSplitter",
        "label": "_erc20Released",
        "offset": 0,
        "slot": "57",
        "type": "t_mapping(t_contract(IERC20Upgradeable)1731,t_mapping(t_address,t_uint256))"
      },
      {
        "astId": 630,
        "contract": "contracts/HATPaymentSplitter.sol:HATPaymentSplitter",
        "label": "__gap",
        "offset": 0,
        "slot": "58",
        "type": "t_array(t_uint256)43_storage"
      }
    ],
    "types": {
      "t_address": {
        "encoding": "inplace",
        "label": "address",
        "numberOfBytes": "20"
      },
      "t_array(t_address)dyn_storage": {
        "base": "t_address",
        "encoding": "dynamic_array",
        "label": "address[]",
        "numberOfBytes": "32"
      },
      "t_array(t_uint256)43_storage": {
        "base": "t_uint256",
        "encoding": "inplace",
        "label": "uint256[43]",
        "numberOfBytes": "1376"
      },
      "t_array(t_uint256)50_storage": {
        "base": "t_uint256",
        "encoding": "inplace",
        "label": "uint256[50]",
        "numberOfBytes": "1600"
      },
      "t_bool": {
        "encoding": "inplace",
        "label": "bool",
        "numberOfBytes": "1"
      },
      "t_contract(IERC20Upgradeable)1731": {
        "encoding": "inplace",
        "label": "contract IERC20Upgradeable",
        "numberOfBytes": "20"
      },
      "t_mapping(t_address,t_uint256)": {
        "encoding": "mapping",
        "key": "t_address",
        "label": "mapping(address => uint256)",
        "numberOfBytes": "32",
        "value": "t_uint256"
      },
      "t_mapping(t_contract(IERC20Upgradeable)1731,t_mapping(t_address,t_uint256))": {
        "encoding": "mapping",
        "key": "t_contract(IERC20Upgradeable)1731",
        "label": "mapping(contract IERC20Upgradeable => mapping(address => uint256))",
        "numberOfBytes": "32",
        "value": "t_mapping(t_address,t_uint256)"
      },
      "t_mapping(t_contract(IERC20Upgradeable)1731,t_uint256)": {
        "encoding": "mapping",
        "key": "t_contract(IERC20Upgradeable)1731",
        "label": "mapping(contract IERC20Upgradeable => uint256)",
        "numberOfBytes": "32",
        "value": "t_uint256"
      },
      "t_uint256": {
        "encoding": "inplace",
        "label": "uint256",
        "numberOfBytes": "32"
      },
      "t_uint8": {
        "encoding": "inplace",
        "label": "uint8",
        "numberOfBytes": "1"
      }
    }
  }
}