{
  "address": "0x2Ff0509D0e9a78Bf58815D768f4487f0645824F0",
  "abi": [
    {
      "inputs": [],
      "name": "AlreadyInitialized",
      "type": "error"
    },
    {
      "inputs": [],
      "name": "AmountCannotBeZero",
      "type": "error"
    },
    {
      "inputs": [],
      "name": "AmountRequestedBiggerThanSurplus",
      "type": "error"
    },
    {
      "inputs": [],
      "name": "BeneficiaryCannotBeZero",
      "type": "error"
    },
    {
      "inputs": [],
      "name": "CannotCancelAfterLockIsAccepted",
      "type": "error"
    },
    {
      "inputs": [],
      "name": "CannotSweepVestedToken",
      "type": "error"
    },
    {
      "inputs": [],
      "name": "CliffTimeMustBeBeforeEndTime",
      "type": "error"
    },
    {
      "inputs": [],
      "name": "DelegateDisabled",
      "type": "error"
    },
    {
      "inputs": [],
      "name": "LockIsAlreadyRevoked",
      "type": "error"
    },
    {
      "inputs": [],
      "name": "LockIsNonRevocable",
      "type": "error"
    },
    {
      "inputs": [],
      "name": "ManagedAmountCannotBeZero",
      "type": "error"
    },
    {
      "inputs": [],
      "name": "NoAmountAvailableToRelease",
      "type": "error"
    },
    {
      "inputs": [],
      "name": "NoAvailableUnvestedAmount",
      "type": "error"
    },
    {
      "inputs": [],
      "name": "OnlyBeneficiary",
      "type": "error"
    },
    {
      "inputs": [],
      "name": "OnlySweeper",
      "type": "error"
    },
    {
      "inputs": [],
      "name": "PeriodsCannotBeBelowMinimum",
      "type": "error"
    },
    {
      "inputs": [],
      "name": "ReleaseStartTimeMustBeBeforeEndTime",
      "type": "error"
    },
    {
      "inputs": [],
      "name": "StartTimeCannotBeZero",
      "type": "error"
    },
    {
      "inputs": [],
      "name": "StartTimeMustBeBeforeEndTime",
      "type": "error"
    },
    {
      "inputs": [],
      "name": "TokenCannotBeZero",
      "type": "error"
    },
    {
      "anonymous": false,
      "inputs": [
        {
          "indexed": false,
          "internalType": "address",
          "name": "newBeneficiary",
          "type": "address"
        }
      ],
      "name": "BeneficiaryChanged",
      "type": "event"
    },
    {
      "anonymous": false,
      "inputs": [],
      "name": "LockAccepted",
      "type": "event"
    },
    {
      "anonymous": false,
      "inputs": [],
      "name": "LockCanceled",
      "type": "event"
    },
    {
      "anonymous": false,
      "inputs": [
        {
          "indexed": true,
          "internalType": "address",
          "name": "previousOwner",
          "type": "address"
        },
        {
          "indexed": true,
          "internalType": "address",
          "name": "newOwner",
          "type": "address"
        }
      ],
      "name": "OwnershipTransferred",
      "type": "event"
    },
    {
      "anonymous": false,
      "inputs": [
        {
          "indexed": true,
          "internalType": "address",
          "name": "beneficiary",
          "type": "address"
        },
        {
          "indexed": false,
          "internalType": "uint256",
          "name": "amount",
          "type": "uint256"
        }
      ],
      "name": "TokensReleased",
      "type": "event"
    },
    {
      "anonymous": false,
      "inputs": [
        {
          "indexed": true,
          "internalType": "address",
          "name": "beneficiary",
          "type": "address"
        },
        {
          "indexed": false,
          "internalType": "uint256",
          "name": "amount",
          "type": "uint256"
        }
      ],
      "name": "TokensRevoked",
      "type": "event"
    },
    {
      "anonymous": false,
      "inputs": [
        {
          "indexed": true,
          "internalType": "address",
          "name": "beneficiary",
          "type": "address"
        },
        {
          "indexed": false,
          "internalType": "uint256",
          "name": "amount",
          "type": "uint256"
        }
      ],
      "name": "TokensWithdrawn",
      "type": "event"
    },
    {
      "inputs": [],
      "name": "acceptLock",
      "outputs": [],
      "stateMutability": "nonpayable",
      "type": "function"
    },
    {
      "inputs": [],
      "name": "amountPerPeriod",
      "outputs": [
        {
          "internalType": "uint256",
          "name": "",
          "type": "uint256"
        }
      ],
      "stateMutability": "view",
      "type": "function"
    },
    {
      "inputs": [],
      "name": "availableAmount",
      "outputs": [
        {
          "internalType": "uint256",
          "name": "",
          "type": "uint256"
        }
      ],
      "stateMutability": "view",
      "type": "function"
    },
    {
      "inputs": [],
      "name": "beneficiary",
      "outputs": [
        {
          "internalType": "address",
          "name": "",
          "type": "address"
        }
      ],
      "stateMutability": "view",
      "type": "function"
    },
    {
      "inputs": [],
      "name": "canDelegate",
      "outputs": [
        {
          "internalType": "bool",
          "name": "",
          "type": "bool"
        }
      ],
      "stateMutability": "view",
      "type": "function"
    },
    {
      "inputs": [],
      "name": "cancelLock",
      "outputs": [],
      "stateMutability": "nonpayable",
      "type": "function"
    },
    {
      "inputs": [
        {
          "internalType": "address",
          "name": "_newBeneficiary",
          "type": "address"
        }
      ],
      "name": "changeBeneficiary",
      "outputs": [],
      "stateMutability": "nonpayable",
      "type": "function"
    },
    {
      "inputs": [],
      "name": "currentBalance",
      "outputs": [
        {
          "internalType": "uint256",
          "name": "",
          "type": "uint256"
        }
      ],
      "stateMutability": "view",
      "type": "function"
    },
    {
      "inputs": [],
      "name": "currentPeriod",
      "outputs": [
        {
          "internalType": "uint256",
          "name": "",
          "type": "uint256"
        }
      ],
      "stateMutability": "view",
      "type": "function"
    },
    {
      "inputs": [],
      "name": "currentTime",
      "outputs": [
        {
          "internalType": "uint256",
          "name": "",
          "type": "uint256"
        }
      ],
      "stateMutability": "view",
      "type": "function"
    },
    {
      "inputs": [
        {
          "internalType": "address",
          "name": "_delegatee",
          "type": "address"
        }
      ],
      "name": "delegate",
      "outputs": [],
      "stateMutability": "nonpayable",
      "type": "function"
    },
    {
      "inputs": [],
      "name": "duration",
      "outputs": [
        {
          "internalType": "uint256",
          "name": "",
          "type": "uint256"
        }
      ],
      "stateMutability": "view",
      "type": "function"
    },
    {
      "inputs": [],
      "name": "endTime",
      "outputs": [
        {
          "internalType": "uint256",
          "name": "",
          "type": "uint256"
        }
      ],
      "stateMutability": "view",
      "type": "function"
    },
    {
      "inputs": [
        {
          "internalType": "address",
          "name": "_tokenLockOwner",
          "type": "address"
        },
        {
          "internalType": "address",
          "name": "_beneficiary",
          "type": "address"
        },
        {
          "internalType": "contract HATToken",
          "name": "_token",
          "type": "address"
        },
        {
          "internalType": "uint256",
          "name": "_managedAmount",
          "type": "uint256"
        },
        {
          "internalType": "uint256",
          "name": "_startTime",
          "type": "uint256"
        },
        {
          "internalType": "uint256",
          "name": "_endTime",
          "type": "uint256"
        },
        {
          "internalType": "uint256",
          "name": "_periods",
          "type": "uint256"
        },
        {
          "internalType": "uint256",
          "name": "_releaseStartTime",
          "type": "uint256"
        },
        {
          "internalType": "uint256",
          "name": "_vestingCliffTime",
          "type": "uint256"
        },
        {
          "internalType": "enum ITokenLock.Revocability",
          "name": "_revocable",
          "type": "uint8"
        },
        {
          "internalType": "bool",
          "name": "_canDelegate",
          "type": "bool"
        }
      ],
      "name": "initialize",
      "outputs": [],
      "stateMutability": "nonpayable",
      "type": "function"
    },
    {
      "inputs": [],
      "name": "isAccepted",
      "outputs": [
        {
          "internalType": "bool",
          "name": "",
          "type": "bool"
        }
      ],
      "stateMutability": "view",
      "type": "function"
    },
    {
      "inputs": [],
      "name": "isInitialized",
      "outputs": [
        {
          "internalType": "bool",
          "name": "",
          "type": "bool"
        }
      ],
      "stateMutability": "view",
      "type": "function"
    },
    {
      "inputs": [],
      "name": "isRevoked",
      "outputs": [
        {
          "internalType": "bool",
          "name": "",
          "type": "bool"
        }
      ],
      "stateMutability": "view",
      "type": "function"
    },
    {
      "inputs": [],
      "name": "managedAmount",
      "outputs": [
        {
          "internalType": "uint256",
          "name": "",
          "type": "uint256"
        }
      ],
      "stateMutability": "view",
      "type": "function"
    },
    {
      "inputs": [],
      "name": "owner",
      "outputs": [
        {
          "internalType": "address",
          "name": "",
          "type": "address"
        }
      ],
      "stateMutability": "view",
      "type": "function"
    },
    {
      "inputs": [],
      "name": "passedPeriods",
      "outputs": [
        {
          "internalType": "uint256",
          "name": "",
          "type": "uint256"
        }
      ],
      "stateMutability": "view",
      "type": "function"
    },
    {
      "inputs": [],
      "name": "periodDuration",
      "outputs": [
        {
          "internalType": "uint256",
          "name": "",
          "type": "uint256"
        }
      ],
      "stateMutability": "view",
      "type": "function"
    },
    {
      "inputs": [],
      "name": "periods",
      "outputs": [
        {
          "internalType": "uint256",
          "name": "",
          "type": "uint256"
        }
      ],
      "stateMutability": "view",
      "type": "function"
    },
    {
      "inputs": [],
      "name": "releasableAmount",
      "outputs": [
        {
          "internalType": "uint256",
          "name": "",
          "type": "uint256"
        }
      ],
      "stateMutability": "view",
      "type": "function"
    },
    {
      "inputs": [],
      "name": "release",
      "outputs": [],
      "stateMutability": "nonpayable",
      "type": "function"
    },
    {
      "inputs": [],
      "name": "releaseStartTime",
      "outputs": [
        {
          "internalType": "uint256",
          "name": "",
          "type": "uint256"
        }
      ],
      "stateMutability": "view",
      "type": "function"
    },
    {
      "inputs": [],
      "name": "releasedAmount",
      "outputs": [
        {
          "internalType": "uint256",
          "name": "",
          "type": "uint256"
        }
      ],
      "stateMutability": "view",
      "type": "function"
    },
    {
      "inputs": [],
      "name": "renounceOwnership",
      "outputs": [],
      "stateMutability": "nonpayable",
      "type": "function"
    },
    {
      "inputs": [],
      "name": "revocable",
      "outputs": [
        {
          "internalType": "bool",
          "name": "",
          "type": "bool"
        }
      ],
      "stateMutability": "view",
      "type": "function"
    },
    {
      "inputs": [],
      "name": "revoke",
      "outputs": [],
      "stateMutability": "nonpayable",
      "type": "function"
    },
    {
      "inputs": [],
      "name": "sinceStartTime",
      "outputs": [
        {
          "internalType": "uint256",
          "name": "",
          "type": "uint256"
        }
      ],
      "stateMutability": "view",
      "type": "function"
    },
    {
      "inputs": [],
      "name": "startTime",
      "outputs": [
        {
          "internalType": "uint256",
          "name": "",
          "type": "uint256"
        }
      ],
      "stateMutability": "view",
      "type": "function"
    },
    {
      "inputs": [],
      "name": "surplusAmount",
      "outputs": [
        {
          "internalType": "uint256",
          "name": "",
          "type": "uint256"
        }
      ],
      "stateMutability": "view",
      "type": "function"
    },
    {
      "inputs": [
        {
          "internalType": "contract IERC20",
          "name": "_token",
          "type": "address"
        }
      ],
      "name": "sweepToken",
      "outputs": [],
      "stateMutability": "nonpayable",
      "type": "function"
    },
    {
      "inputs": [],
      "name": "token",
      "outputs": [
        {
          "internalType": "contract IERC20",
          "name": "",
          "type": "address"
        }
      ],
      "stateMutability": "view",
      "type": "function"
    },
    {
      "inputs": [],
      "name": "totalOutstandingAmount",
      "outputs": [
        {
          "internalType": "uint256",
          "name": "",
          "type": "uint256"
        }
      ],
      "stateMutability": "view",
      "type": "function"
    },
    {
      "inputs": [
        {
          "internalType": "address",
          "name": "newOwner",
          "type": "address"
        }
      ],
      "name": "transferOwnership",
      "outputs": [],
      "stateMutability": "nonpayable",
      "type": "function"
    },
    {
      "inputs": [],
      "name": "vestedAmount",
      "outputs": [
        {
          "internalType": "uint256",
          "name": "",
          "type": "uint256"
        }
      ],
      "stateMutability": "view",
      "type": "function"
    },
    {
      "inputs": [],
      "name": "vestingCliffTime",
      "outputs": [
        {
          "internalType": "uint256",
          "name": "",
          "type": "uint256"
        }
      ],
      "stateMutability": "view",
      "type": "function"
    },
    {
      "inputs": [
        {
          "internalType": "uint256",
          "name": "_amount",
          "type": "uint256"
        }
      ],
      "name": "withdrawSurplus",
      "outputs": [],
      "stateMutability": "nonpayable",
      "type": "function"
    }
  ],
  "transactionHash": "0x631504e1c36cee63d3fcecc84749124598a7835d7ff6dc65ade5e0fdd7569c07",
  "args": [],
  "numDeployments": 2,
  "solcInputHash": "9cefc1a93adb5694ffa11681161e7ec7",
  "bytecode": "0x608060405234801561001057600080fd5b5061001a33610036565b6000196005556009805462ff0000191662010000179055610086565b600080546001600160a01b038381166001600160a01b0319831681178455604051919092169283917f8be0079c531659141344cd1fd0a4f28419497f9722a3daafe3b4186f6b6457e09190a35050565b6115e7806100956000396000f3fe608060405234801561001057600080fd5b506004361061023d5760003560e01c80637a7deb8e1161013b578063b470aade116100b8578063dc0706571161007c578063dc070657146103fe578063e97d87d514610411578063ebbab9921461041a578063f2fde38b14610422578063fc0c546a1461043557600080fd5b8063b470aade146103d8578063b6549f75146103e0578063bc0163c1146103e8578063ce845d1d146103f0578063d18e81b3146103f857600080fd5b80638a5bdf5c116100ff5780638a5bdf5c1461039b5780638da5cb5b146103a357806391f7cfb9146103b4578063a4caeb42146103bc578063b0d1818c146103c557600080fd5b80637a7deb8e146103685780637bdf05af1461037557806386d00e021461037d57806386d1a69f14610386578063872a78101461038e57600080fd5b806338af3eed116101c95780635051a5ec1161018d5780635051a5ec146103285780635b9400811461033c5780635c19a95c14610344578063715018a61461035757806378e979251461035f57600080fd5b806338af3eed146102d0578063392e53cd146102fb578063398057a31461030e57806344b1231f1461031757806345d30a171461031f57600080fd5b80630fb5a6b4116102105780630fb5a6b4146102775780631be195601461027f5780632bc9ed02146102925780633147e6a8146102b45780633197cbb6146102c757600080fd5b8063029c6c9f14610242578063060406181461025d5780630b80f777146102655780630dff24d51461026f575b600080fd5b61024a610448565b6040519081526020015b60405180910390f35b61024a61045f565b61026d610487565b005b61024a610515565b61024a610550565b61026d61028d36600461136c565b610562565b6009546102a490610100900460ff1681565b6040519015158152602001610254565b61026d6102c23660046113ae565b610689565b61024a60055481565b6002546102e3906001600160a01b031681565b6040516001600160a01b039091168152602001610254565b6009546102a49062010000900460ff1681565b61024a60035481565b61024a61072b565b61024a600a5481565b6009546102a4906301000000900460ff1681565b61024a610765565b61026d61035236600461136c565b6107e0565b61026d610890565b61024a60045481565b600b546102a49060ff1681565b61024a6108a4565b61024a60085481565b61026d6108c7565b6009546102a49060ff1681565b61026d6109a1565b6000546001600160a01b03166102e3565b61024a610a0a565b61024a60065481565b61026d6103d336600461145c565b610a4d565b61024a610b1d565b61026d610b34565b61024a610c55565b61024a610c67565b4261024a565b61026d61040c36600461136c565b610cd4565b61024a60075481565b61024a610d7a565b61026d61043036600461136c565b610d90565b6001546102e3906001600160a01b031681565b600060065460035461045a919061148b565b905090565b6000600161046b610b1d565b6104736108a4565b61047d919061148b565b61045a91906114ad565b61048f610e0b565b6009546301000000900460ff16156104ba5760405163375fd96760e21b815260040160405180910390fd5b6104ea6104cf6000546001600160a01b031690565b6104d7610c67565b6001546001600160a01b03169190610e65565b6040517f171f0bcbda3370351cea17f3b164bee87d77c2503b94abdf2720a814ebe7e9df90600090a1565b600080610520610c67565b9050600061052c610c55565b9050808211156105475761054081836114c0565b9250505090565b60009250505090565b600060045460055461045a91906114c0565b6000806105776000546001600160a01b031690565b6001600160a01b031614610596576000546001600160a01b03166105a3565b6002546001600160a01b03165b9050336001600160a01b038216146105ce576040516312e547ff60e01b815260040160405180910390fd5b6001546001600160a01b03908116908316036105fd576040516307335f8360e01b815260040160405180910390fd5b6040516370a0823160e01b81523060048201526000906001600160a01b038416906370a0823190602401602060405180830381865afa158015610644573d6000803e3d6000fd5b505050506040513d601f19601f8201168201806040525081019061066891906114d3565b90508015610684576106846001600160a01b0384168383610e65565b505050565b6106af8b8b8b8b8b8b8b8b8b60018c60028111156106a9576106a96114ec565b14610eb7565b801561071e576040516317066a5760e21b81526001600160a01b038b811660048301528a1690635c19a95c90602401600060405180830381600087803b1580156106f857600080fd5b505af115801561070c573d6000803e3d6000fd5b5050600b805460ff1916600117905550505b5050505050505050505050565b60095460009060ff1661073f575060035490565b6000600854118015610752575060085442105b1561075d5750600090565b61045a610a0a565b600080600754118015610779575060075442105b156107845750600090565b60095460ff16801561079857506000600854115b80156107a5575060085442105b156107b05750600090565b6000600a546107bd610a0a565b6107c791906114c0565b90506107da6107d4610c67565b8261106c565b91505090565b6002546001600160a01b0316331461080b57604051635e5a974960e01b815260040160405180910390fd5b600b5460ff1661082e5760405163468ec0b760e11b815260040160405180910390fd5b6001546040516317066a5760e21b81526001600160a01b03838116600483015290911690635c19a95c90602401600060405180830381600087803b15801561087557600080fd5b505af1158015610889573d6000803e3d6000fd5b5050505050565b610898610e0b565b6108a26000611086565b565b600454600090429081116108ba57600091505090565b6004546107da90826114c0565b6002546001600160a01b031633146108f257604051635e5a974960e01b815260040160405180910390fd5b60006108fc610765565b90508060000361091f57604051634710cf8960e01b815260040160405180910390fd5b80600a600082825461093191906114ad565b9091555050600254600154610953916001600160a01b03918216911683610e65565b6002546040518281526001600160a01b03909116907fc7798891864187665ac6dd119286e44ec13f014527aeeb2b8eb3fd413df93179906020015b60405180910390a261099e6110d6565b50565b6002546001600160a01b031633146109cc57604051635e5a974960e01b815260040160405180910390fd5b6009805463ff000000191663010000001790556040517fbeb3313724453131feb0a765a03e6715bb720e0f973a31fcbafa2d2f048c188b90600090a1565b6004546000904290811015610a2157600091505090565b600554811115610a3357505060035490565b610a3b610448565b610a43610d7a565b6107da9190611502565b6002546001600160a01b03163314610a7857604051635e5a974960e01b815260040160405180910390fd5b80600003610a995760405163d11b25af60e01b815260040160405180910390fd5b80610aa2610515565b1015610ac1576040516308fb3abf60e21b815260040160405180910390fd5b600254600154610ade916001600160a01b03918216911683610e65565b6002546040518281526001600160a01b03909116907f6352c5382c4a4578e712449ca65e83cdb392d045dfcf1cad9615189db2da244b9060200161098e565b6000600654610b2a610550565b61045a919061148b565b610b3c610e0b565b60095460ff16610b5f576040516342e44a4b60e11b815260040160405180910390fd5b600954610100900460ff1615610b8857604051637c99dad760e11b815260040160405180910390fd5b6000610b9261072b565b9050600081600354610ba491906114c0565b905080600003610bc757604051630f2a2aa960e21b815260040160405180910390fd5b6009805461ff001916610100179055600382905542600555610c07610bf46000546001600160a01b031690565b6001546001600160a01b03169083610e65565b6002546040518281526001600160a01b03909116907fb73c49a3a37a7aca291ba0ceaa41657012def406106a7fc386888f0f66e941cf9060200160405180910390a2610c516110d6565b5050565b6000600a5460035461045a91906114c0565b6001546040516370a0823160e01b81523060048201526000916001600160a01b0316906370a0823190602401602060405180830381865afa158015610cb0573d6000803e3d6000fd5b505050506040513d601f19601f8201168201806040525081019061045a91906114d3565b6002546001600160a01b03163314610cff57604051635e5a974960e01b815260040160405180910390fd5b6001600160a01b038116610d2657604051632f33547b60e01b815260040160405180910390fd5b600280546001600160a01b0319166001600160a01b0383169081179091556040519081527f373c72efabe4ef3e552ff77838be729f3bc3d8c586df0012902d1baa2377fa1d9060200160405180910390a150565b60006001610d8661045f565b61045a91906114c0565b610d98610e0b565b6001600160a01b038116610e025760405162461bcd60e51b815260206004820152602660248201527f4f776e61626c653a206e6577206f776e657220697320746865207a65726f206160448201526564647265737360d01b60648201526084015b60405180910390fd5b61099e81611086565b6000546001600160a01b031633146108a25760405162461bcd60e51b815260206004820181905260248201527f4f776e61626c653a2063616c6c6572206973206e6f7420746865206f776e65726044820152606401610df9565b604080516001600160a01b038416602482015260448082018490528251808303909101815260649091019091526020810180516001600160e01b031663a9059cbb60e01b1790526106849084906110f5565b60095462010000900460ff1615610ee05760405162dc149f60e41b815260040160405180910390fd5b6001600160a01b038916610f0757604051632f33547b60e01b815260040160405180910390fd5b6001600160a01b038816610f2e5760405163165a825360e21b815260040160405180910390fd5b86600003610f4f5760405163a15702f760e01b815260040160405180910390fd5b85600003610f7057604051631c3102c360e31b815260040160405180910390fd5b848610610f9057604051634d6f566560e11b815260040160405180910390fd5b6001841015610fb257604051630ed08e5b60e21b815260040160405180910390fd5b848310610fd25760405163cfe050b160e01b815260040160405180910390fd5b848210610ff25760405163b4be9a3360e01b815260040160405180910390fd5b6009805462ff000019166201000017905561100c8a611086565b600280546001600160a01b03199081166001600160a01b039b8c16179091556001805490911698909916979097179097556003949094556004929092556005556006556007556008919091556009805460ff191691151591909117905550565b600081831061107b578161107d565b825b90505b92915050565b600080546001600160a01b038381166001600160a01b0319831681178455604051919092169283917f8be0079c531659141344cd1fd0a4f28419497f9722a3daafe3b4186f6b6457e09190a35050565b60055442101580156110ed57506110eb610c67565b155b156108a25733ff5b600061114a826040518060400160405280602081526020017f5361666545524332303a206c6f772d6c6576656c2063616c6c206661696c6564815250856001600160a01b03166111c79092919063ffffffff16565b80519091501561068457808060200190518101906111689190611521565b6106845760405162461bcd60e51b815260206004820152602a60248201527f5361666545524332303a204552433230206f7065726174696f6e20646964206e6044820152691bdd081cdd58d8d9595960b21b6064820152608401610df9565b60606111d684846000856111de565b949350505050565b60608247101561123f5760405162461bcd60e51b815260206004820152602660248201527f416464726573733a20696e73756666696369656e742062616c616e636520666f6044820152651c8818d85b1b60d21b6064820152608401610df9565b600080866001600160a01b0316858760405161125b9190611562565b60006040518083038185875af1925050503d8060008114611298576040519150601f19603f3d011682016040523d82523d6000602084013e61129d565b606091505b50915091506112ae878383876112b9565b979650505050505050565b60608315611328578251600003611321576001600160a01b0385163b6113215760405162461bcd60e51b815260206004820152601d60248201527f416464726573733a2063616c6c20746f206e6f6e2d636f6e74726163740000006044820152606401610df9565b50816111d6565b6111d6838381511561133d5781518083602001fd5b8060405162461bcd60e51b8152600401610df9919061157e565b6001600160a01b038116811461099e57600080fd5b60006020828403121561137e57600080fd5b813561138981611357565b9392505050565b801515811461099e57600080fd5b80356113a981611390565b919050565b60008060008060008060008060008060006101608c8e0312156113d057600080fd5b8b356113db81611357565b9a5060208c01356113eb81611357565b995060408c01356113fb81611357565b985060608c0135975060808c0135965060a08c0135955060c08c0135945060e08c013593506101008c013592506101208c01356003811061143b57600080fd5b915061144a6101408d0161139e565b90509295989b509295989b9093969950565b60006020828403121561146e57600080fd5b5035919050565b634e487b7160e01b600052601160045260246000fd5b6000826114a857634e487b7160e01b600052601260045260246000fd5b500490565b8082018082111561108057611080611475565b8181038181111561108057611080611475565b6000602082840312156114e557600080fd5b5051919050565b634e487b7160e01b600052602160045260246000fd5b600081600019048311821515161561151c5761151c611475565b500290565b60006020828403121561153357600080fd5b815161138981611390565b60005b83811015611559578181015183820152602001611541565b50506000910152565b6000825161157481846020870161153e565b9190910192915050565b602081526000825180602084015261159d81604085016020870161153e565b601f01601f1916919091016040019291505056fea2646970667358221220694dfe06cca172e334dee14ceef94f04e0f2ac6dd57043534ad94c5b3e23d59364736f6c63430008100033",
  "devdoc": {
    "kind": "dev",
    "methods": {
      "acceptLock()": {
        "details": "Can only be called by the beneficiary"
      },
      "amountPerPeriod()": {
        "returns": {
          "_0": "Amount of tokens available after each period"
        }
      },
      "availableAmount()": {
        "details": "Implements the step-by-step schedule based on periods for available tokens",
        "returns": {
          "_0": "Amount of tokens available according to the schedule"
        }
      },
      "cancelLock()": {
        "details": "Can only be called by the owner"
      },
      "changeBeneficiary(address)": {
        "details": "Can only be called by the beneficiary",
        "params": {
          "_newBeneficiary": "Address of the new beneficiary address"
        }
      },
      "currentBalance()": {
        "returns": {
          "_0": "Tokens held in the contract"
        }
      },
      "currentPeriod()": {
        "returns": {
          "_0": "A number that represents the current period"
        }
      },
      "currentTime()": {
        "returns": {
          "_0": "Current block timestamp"
        }
      },
      "delegate(address)": {
        "details": "delegate voting power",
        "params": {
          "_delegatee": "Address of delegatee"
        }
      },
      "duration()": {
        "returns": {
          "_0": "Amount of seconds from contract startTime to endTime"
        }
      },
      "owner()": {
        "details": "Returns the address of the current owner."
      },
      "passedPeriods()": {
        "returns": {
          "_0": "A number of periods that passed since the schedule started"
        }
      },
      "periodDuration()": {
        "returns": {
          "_0": "Duration of each period in seconds"
        }
      },
      "releasableAmount()": {
        "details": "Considers the schedule and takes into account already released tokens",
        "returns": {
          "_0": "Amount of tokens ready to be released"
        }
      },
      "release()": {
        "details": "All available releasable tokens are transferred to beneficiary"
      },
      "renounceOwnership()": {
        "details": "Leaves the contract without owner. It will not be possible to call `onlyOwner` functions anymore. Can only be called by the current owner. NOTE: Renouncing ownership will leave the contract without an owner, thereby removing any functionality that is only available to the owner."
      },
      "revoke()": {
        "details": "Vesting schedule is always calculated based on managed tokens"
      },
      "sinceStartTime()": {
        "details": "Returns zero if called before conctract starTime",
        "returns": {
          "_0": "Seconds elapsed from contract startTime"
        }
      },
      "surplusAmount()": {
        "details": "All funds over outstanding amount is considered surplus that can be withdrawn by beneficiary",
        "returns": {
          "_0": "Amount of tokens considered as surplus"
        }
      },
      "sweepToken(address)": {
        "params": {
          "_token": "Address of token to sweep"
        }
      },
      "totalOutstandingAmount()": {
        "details": "Does not consider schedule but just global amounts tracked",
        "returns": {
          "_0": "Amount of outstanding tokens for the lifetime of the contract"
        }
      },
      "transferOwnership(address)": {
        "details": "Transfers ownership of the contract to a new account (`newOwner`). Can only be called by the current owner."
      },
      "vestedAmount()": {
        "details": "Similar to available amount, but is fully vested when contract is non-revocable",
        "returns": {
          "_0": "Amount of tokens already vested"
        }
      },
      "withdrawSurplus(uint256)": {
        "details": "Tokens in the contract over outstanding amount are considered as surplus",
        "params": {
          "_amount": "Amount of tokens to withdraw"
        }
      }
    },
    "version": 1
  },
  "userdoc": {
    "kind": "user",
    "methods": {
      "acceptLock()": {
        "notice": "Beneficiary accepts the lock, the owner cannot cancel the lock. But in case that the contract is defined as revocable, the owner can revoke the contract at any time and retrieve all unvested tokens."
      },
      "amountPerPeriod()": {
        "notice": "Returns amount available to be released after each period according to schedule"
      },
      "availableAmount()": {
        "notice": "Gets the currently available token according to the schedule"
      },
      "cancelLock()": {
        "notice": "Owner cancel the lock and return the balance in the contract"
      },
      "changeBeneficiary(address)": {
        "notice": "Change the beneficiary of funds managed by the contract"
      },
      "currentBalance()": {
        "notice": "Returns the amount of tokens currently held by the contract"
      },
      "currentPeriod()": {
        "notice": "Gets the current period based on the schedule"
      },
      "currentTime()": {
        "notice": "Returns the current block timestamp"
      },
      "duration()": {
        "notice": "Gets duration of contract from start to end in seconds"
      },
      "passedPeriods()": {
        "notice": "Gets the number of periods that passed since the first period"
      },
      "periodDuration()": {
        "notice": "Returns the duration of each period in seconds"
      },
      "releasableAmount()": {
        "notice": "Gets tokens currently available for release"
      },
      "release()": {
        "notice": "Releases tokens based on the configured schedule"
      },
      "revoke()": {
        "notice": "Revokes a vesting schedule and return the unvested tokens to the owner"
      },
      "sinceStartTime()": {
        "notice": "Gets time elapsed since the start of the contract"
      },
      "surplusAmount()": {
        "notice": "Gets surplus amount in the contract based on outstanding amount to release"
      },
      "sweepToken(address)": {
        "notice": "Sweeps out accidentally sent tokens"
      },
      "totalOutstandingAmount()": {
        "notice": "Gets the outstanding amount yet to be released based on the whole contract lifetime"
      },
      "vestedAmount()": {
        "notice": "Gets the amount of currently vested tokens"
      },
      "withdrawSurplus(uint256)": {
        "notice": "Withdraws surplus, unmanaged tokens from the contract"
      }
    },
    "version": 1
  },
  "storageLayout": {
    "storage": [
      {
        "astId": 3867,
        "contract": "contracts/tokenlock/HATTokenLock.sol:HATTokenLock",
        "label": "_owner",
        "offset": 0,
        "slot": "0",
        "type": "t_address"
      },
      {
        "astId": 17899,
        "contract": "contracts/tokenlock/HATTokenLock.sol:HATTokenLock",
        "label": "token",
        "offset": 0,
        "slot": "1",
        "type": "t_contract(IERC20)5750"
      },
      {
        "astId": 17901,
        "contract": "contracts/tokenlock/HATTokenLock.sol:HATTokenLock",
        "label": "beneficiary",
        "offset": 0,
        "slot": "2",
        "type": "t_address"
      },
      {
        "astId": 17903,
        "contract": "contracts/tokenlock/HATTokenLock.sol:HATTokenLock",
        "label": "managedAmount",
        "offset": 0,
        "slot": "3",
        "type": "t_uint256"
      },
      {
        "astId": 17905,
        "contract": "contracts/tokenlock/HATTokenLock.sol:HATTokenLock",
        "label": "startTime",
        "offset": 0,
        "slot": "4",
        "type": "t_uint256"
      },
      {
        "astId": 17907,
        "contract": "contracts/tokenlock/HATTokenLock.sol:HATTokenLock",
        "label": "endTime",
        "offset": 0,
        "slot": "5",
        "type": "t_uint256"
      },
      {
        "astId": 17909,
        "contract": "contracts/tokenlock/HATTokenLock.sol:HATTokenLock",
        "label": "periods",
        "offset": 0,
        "slot": "6",
        "type": "t_uint256"
      },
      {
        "astId": 17911,
        "contract": "contracts/tokenlock/HATTokenLock.sol:HATTokenLock",
        "label": "releaseStartTime",
        "offset": 0,
        "slot": "7",
        "type": "t_uint256"
      },
      {
        "astId": 17913,
        "contract": "contracts/tokenlock/HATTokenLock.sol:HATTokenLock",
        "label": "vestingCliffTime",
        "offset": 0,
        "slot": "8",
        "type": "t_uint256"
      },
      {
        "astId": 17915,
        "contract": "contracts/tokenlock/HATTokenLock.sol:HATTokenLock",
        "label": "revocable",
        "offset": 0,
        "slot": "9",
        "type": "t_bool"
      },
      {
        "astId": 17917,
        "contract": "contracts/tokenlock/HATTokenLock.sol:HATTokenLock",
        "label": "isRevoked",
        "offset": 1,
        "slot": "9",
        "type": "t_bool"
      },
      {
        "astId": 17919,
        "contract": "contracts/tokenlock/HATTokenLock.sol:HATTokenLock",
        "label": "isInitialized",
        "offset": 2,
        "slot": "9",
        "type": "t_bool"
      },
      {
        "astId": 17921,
        "contract": "contracts/tokenlock/HATTokenLock.sol:HATTokenLock",
        "label": "isAccepted",
        "offset": 3,
        "slot": "9",
        "type": "t_bool"
      },
      {
        "astId": 17923,
        "contract": "contracts/tokenlock/HATTokenLock.sol:HATTokenLock",
        "label": "releasedAmount",
        "offset": 0,
        "slot": "10",
        "type": "t_uint256"
      },
      {
        "astId": 17625,
        "contract": "contracts/tokenlock/HATTokenLock.sol:HATTokenLock",
        "label": "canDelegate",
        "offset": 0,
        "slot": "11",
        "type": "t_bool"
      }
    ],
    "types": {
      "t_address": {
        "encoding": "inplace",
        "label": "address",
        "numberOfBytes": "20"
      },
      "t_bool": {
        "encoding": "inplace",
        "label": "bool",
        "numberOfBytes": "1"
      },
      "t_contract(IERC20)5750": {
        "encoding": "inplace",
        "label": "contract IERC20",
        "numberOfBytes": "20"
      },
      "t_uint256": {
        "encoding": "inplace",
        "label": "uint256",
        "numberOfBytes": "32"
      }
    }
  }
}