{
  "address": "0x9A039D6B2d75a0444Abf6d2cECEFEf31185a8edc",
  "abi": [
    {
      "inputs": [
        {
          "internalType": "address",
          "name": "_hatsGovernance",
          "type": "address"
        }
      ],
      "stateMutability": "nonpayable",
      "type": "constructor"
    },
    {
      "inputs": [],
      "name": "MintArrayLengthMismatch",
      "type": "error"
    },
    {
      "inputs": [],
      "name": "MintingAlreadyStopped",
      "type": "error"
    },
    {
      "inputs": [],
      "name": "MintingOfTokenStopped",
      "type": "error"
    },
    {
      "inputs": [],
      "name": "TokenDoesNotExist",
      "type": "error"
    },
    {
      "anonymous": false,
      "inputs": [
        {
          "indexed": true,
          "internalType": "address",
          "name": "account",
          "type": "address"
        },
        {
          "indexed": true,
          "internalType": "address",
          "name": "operator",
          "type": "address"
        },
        {
          "indexed": false,
          "internalType": "bool",
          "name": "approved",
          "type": "bool"
        }
      ],
      "name": "ApprovalForAll",
      "type": "event"
    },
    {
      "anonymous": false,
      "inputs": [
        {
          "indexed": true,
          "internalType": "uint256",
          "name": "_tokenId",
          "type": "uint256"
        }
      ],
      "name": "MintingStopped",
      "type": "event"
    },
    {
      "anonymous": false,
      "inputs": [
        {
          "indexed": true,
          "internalType": "address",
          "name": "previousOwner",
          "type": "address"
        },
        {
          "indexed": true,
          "internalType": "address",
          "name": "newOwner",
          "type": "address"
        }
      ],
      "name": "OwnershipTransferred",
      "type": "event"
    },
    {
      "anonymous": false,
      "inputs": [
        {
          "indexed": true,
          "internalType": "address",
          "name": "operator",
          "type": "address"
        },
        {
          "indexed": true,
          "internalType": "address",
          "name": "from",
          "type": "address"
        },
        {
          "indexed": true,
          "internalType": "address",
          "name": "to",
          "type": "address"
        },
        {
          "indexed": false,
          "internalType": "uint256[]",
          "name": "ids",
          "type": "uint256[]"
        },
        {
          "indexed": false,
          "internalType": "uint256[]",
          "name": "values",
          "type": "uint256[]"
        }
      ],
      "name": "TransferBatch",
      "type": "event"
    },
    {
      "anonymous": false,
      "inputs": [
        {
          "indexed": true,
          "internalType": "address",
          "name": "operator",
          "type": "address"
        },
        {
          "indexed": true,
          "internalType": "address",
          "name": "from",
          "type": "address"
        },
        {
          "indexed": true,
          "internalType": "address",
          "name": "to",
          "type": "address"
        },
        {
          "indexed": false,
          "internalType": "uint256",
          "name": "id",
          "type": "uint256"
        },
        {
          "indexed": false,
          "internalType": "uint256",
          "name": "value",
          "type": "uint256"
        }
      ],
      "name": "TransferSingle",
      "type": "event"
    },
    {
      "anonymous": false,
      "inputs": [
        {
          "indexed": false,
          "internalType": "string",
          "name": "value",
          "type": "string"
        },
        {
          "indexed": true,
          "internalType": "uint256",
          "name": "id",
          "type": "uint256"
        }
      ],
      "name": "URI",
      "type": "event"
    },
    {
      "inputs": [
        {
          "internalType": "address",
          "name": "account",
          "type": "address"
        },
        {
          "internalType": "uint256",
          "name": "id",
          "type": "uint256"
        }
      ],
      "name": "balanceOf",
      "outputs": [
        {
          "internalType": "uint256",
          "name": "",
          "type": "uint256"
        }
      ],
      "stateMutability": "view",
      "type": "function"
    },
    {
      "inputs": [
        {
          "internalType": "address[]",
          "name": "accounts",
          "type": "address[]"
        },
        {
          "internalType": "uint256[]",
          "name": "ids",
          "type": "uint256[]"
        }
      ],
      "name": "balanceOfBatch",
      "outputs": [
        {
          "internalType": "uint256[]",
          "name": "",
          "type": "uint256[]"
        }
      ],
      "stateMutability": "view",
      "type": "function"
    },
    {
      "inputs": [
        {
          "internalType": "string[]",
          "name": "_ipfsHashes",
          "type": "string[]"
        }
      ],
      "name": "createNFTs",
      "outputs": [],
      "stateMutability": "nonpayable",
      "type": "function"
    },
    {
      "inputs": [
        {
          "internalType": "uint256",
          "name": "id",
          "type": "uint256"
        }
      ],
      "name": "exists",
      "outputs": [
        {
          "internalType": "bool",
          "name": "",
          "type": "bool"
        }
      ],
      "stateMutability": "view",
      "type": "function"
    },
    {
      "inputs": [
        {
          "internalType": "string",
          "name": "_ipfsHash",
          "type": "string"
        }
      ],
      "name": "getTokenId",
      "outputs": [
        {
          "internalType": "uint256",
          "name": "",
          "type": "uint256"
        }
      ],
      "stateMutability": "pure",
      "type": "function"
    },
    {
      "inputs": [
        {
          "internalType": "address",
          "name": "account",
          "type": "address"
        },
        {
          "internalType": "address",
          "name": "operator",
          "type": "address"
        }
      ],
      "name": "isApprovedForAll",
      "outputs": [
        {
          "internalType": "bool",
          "name": "",
          "type": "bool"
        }
      ],
      "stateMutability": "view",
      "type": "function"
    },
    {
      "inputs": [
        {
          "internalType": "address",
          "name": "_recipient",
          "type": "address"
        },
        {
          "internalType": "uint256",
          "name": "_tokenId",
          "type": "uint256"
        },
        {
          "internalType": "uint256",
          "name": "_amount",
          "type": "uint256"
        }
      ],
      "name": "mint",
      "outputs": [],
      "stateMutability": "nonpayable",
      "type": "function"
    },
    {
      "inputs": [
        {
          "internalType": "address[]",
          "name": "_recipients",
          "type": "address[]"
        },
        {
          "internalType": "uint256[]",
          "name": "_tokenIds",
          "type": "uint256[]"
        },
        {
          "internalType": "uint256[]",
          "name": "_amounts",
          "type": "uint256[]"
        }
      ],
      "name": "mintMultiple",
      "outputs": [],
      "stateMutability": "nonpayable",
      "type": "function"
    },
    {
      "inputs": [
        {
          "internalType": "uint256",
          "name": "",
          "type": "uint256"
        }
      ],
      "name": "mintingStopped",
      "outputs": [
        {
          "internalType": "bool",
          "name": "",
          "type": "bool"
        }
      ],
      "stateMutability": "view",
      "type": "function"
    },
    {
      "inputs": [],
      "name": "owner",
      "outputs": [
        {
          "internalType": "address",
          "name": "",
          "type": "address"
        }
      ],
      "stateMutability": "view",
      "type": "function"
    },
    {
      "inputs": [],
      "name": "renounceOwnership",
      "outputs": [],
      "stateMutability": "nonpayable",
      "type": "function"
    },
    {
      "inputs": [
        {
          "internalType": "address",
          "name": "from",
          "type": "address"
        },
        {
          "internalType": "address",
          "name": "to",
          "type": "address"
        },
        {
          "internalType": "uint256[]",
          "name": "ids",
          "type": "uint256[]"
        },
        {
          "internalType": "uint256[]",
          "name": "amounts",
          "type": "uint256[]"
        },
        {
          "internalType": "bytes",
          "name": "data",
          "type": "bytes"
        }
      ],
      "name": "safeBatchTransferFrom",
      "outputs": [],
      "stateMutability": "nonpayable",
      "type": "function"
    },
    {
      "inputs": [
        {
          "internalType": "address",
          "name": "from",
          "type": "address"
        },
        {
          "internalType": "address",
          "name": "to",
          "type": "address"
        },
        {
          "internalType": "uint256",
          "name": "id",
          "type": "uint256"
        },
        {
          "internalType": "uint256",
          "name": "amount",
          "type": "uint256"
        },
        {
          "internalType": "bytes",
          "name": "data",
          "type": "bytes"
        }
      ],
      "name": "safeTransferFrom",
      "outputs": [],
      "stateMutability": "nonpayable",
      "type": "function"
    },
    {
      "inputs": [
        {
          "internalType": "address",
          "name": "operator",
          "type": "address"
        },
        {
          "internalType": "bool",
          "name": "approved",
          "type": "bool"
        }
      ],
      "name": "setApprovalForAll",
      "outputs": [],
      "stateMutability": "nonpayable",
      "type": "function"
    },
    {
      "inputs": [
        {
          "internalType": "uint256",
          "name": "_tokenId",
          "type": "uint256"
        }
      ],
      "name": "stopMint",
      "outputs": [],
      "stateMutability": "nonpayable",
      "type": "function"
    },
    {
      "inputs": [
        {
          "internalType": "uint256[]",
          "name": "_tokenIds",
          "type": "uint256[]"
        }
      ],
      "name": "stopMintMultiple",
      "outputs": [],
      "stateMutability": "nonpayable",
      "type": "function"
    },
    {
      "inputs": [
        {
          "internalType": "bytes4",
          "name": "interfaceId",
          "type": "bytes4"
        }
      ],
      "name": "supportsInterface",
      "outputs": [
        {
          "internalType": "bool",
          "name": "",
          "type": "bool"
        }
      ],
      "stateMutability": "view",
      "type": "function"
    },
    {
      "inputs": [
        {
          "internalType": "uint256",
          "name": "id",
          "type": "uint256"
        }
      ],
      "name": "totalSupply",
      "outputs": [
        {
          "internalType": "uint256",
          "name": "",
          "type": "uint256"
        }
      ],
      "stateMutability": "view",
      "type": "function"
    },
    {
      "inputs": [
        {
          "internalType": "address",
          "name": "newOwner",
          "type": "address"
        }
      ],
      "name": "transferOwnership",
      "outputs": [],
      "stateMutability": "nonpayable",
      "type": "function"
    },
    {
      "inputs": [
        {
          "internalType": "uint256",
          "name": "_tokenId",
          "type": "uint256"
        }
      ],
      "name": "uri",
      "outputs": [
        {
          "internalType": "string",
          "name": "",
          "type": "string"
        }
      ],
      "stateMutability": "view",
      "type": "function"
    },
    {
      "inputs": [
        {
          "internalType": "uint256",
          "name": "",
          "type": "uint256"
        }
      ],
      "name": "uris",
      "outputs": [
        {
          "internalType": "string",
          "name": "",
          "type": "string"
        }
      ],
      "stateMutability": "view",
      "type": "function"
    }
  ],
  "transactionHash": "0xd8a0b5cc171a11f8fbd6747cb837f2be02f1f858a87544f72ddba7056b11d4f6",
  "args": [
    "0x1885B7c7a3AE1F35BA71C0392C13153A95c4914f"
  ],
  "numDeployments": 3,
  "solcInputHash": "ccddd646c70fb7a0057ea65b2b91de5d",
  "bytecode": "0x60806040523480156200001157600080fd5b5060405162002248380380620022488339810160408190526200003491620000d0565b6040805160208101909152600081526200004e816200006c565b506200005a336200007e565b62000065816200007e565b5062000273565b60026200007a8282620001a7565b5050565b600480546001600160a01b038381166001600160a01b0319831681179093556040519116919082907f8be0079c531659141344cd1fd0a4f28419497f9722a3daafe3b4186f6b6457e090600090a35050565b600060208284031215620000e357600080fd5b81516001600160a01b0381168114620000fb57600080fd5b9392505050565b634e487b7160e01b600052604160045260246000fd5b600181811c908216806200012d57607f821691505b6020821081036200014e57634e487b7160e01b600052602260045260246000fd5b50919050565b601f821115620001a257600081815260208120601f850160051c810160208610156200017d5750805b601f850160051c820191505b818110156200019e5782815560010162000189565b5050505b505050565b81516001600160401b03811115620001c357620001c362000102565b620001db81620001d4845462000118565b8462000154565b602080601f831160018114620002135760008415620001fa5750858301515b600019600386901b1c1916600185901b1785556200019e565b600085815260208120601f198616915b82811015620002445788860151825594840194600190910190840162000223565b5085821015620002635787850151600019600388901b60f8161c191681555b5050505050600190811b01905550565b611fc580620002836000396000f3fe608060405234801561001057600080fd5b50600436106101365760003560e01c80636bbca046116100b8578063af5691f61161007c578063af5691f6146102a3578063b6eb549d146102c6578063bd85b039146102d9578063e985e9c5146102f9578063f242432a14610335578063f2fde38b1461034857600080fd5b80636bbca04614610247578063715018a61461025a5780637844b621146102625780638da5cb5b14610275578063a22cb4651461029057600080fd5b80631c99aeb3116100ff5780631c99aeb3146101cc5780631e7663bc146101df5780632eb2c2d6146101f25780634e1273f4146102055780634f558e791461022557600080fd5b8062fdd58e1461013b57806301ffc9a7146101615780630e89341c146101845780631253c546146101a4578063156e29f6146101b7575b600080fd5b61014e610149366004611453565b61035b565b6040519081526020015b60405180910390f35b61017461016f366004611493565b6103f4565b6040519015158152602001610158565b6101976101923660046114b7565b610444565b6040516101589190611516565b6101976101b23660046114b7565b6104e6565b6101ca6101c5366004611529565b610580565b005b6101ca6101da3660046115a7565b610613565b61014e6101ed366004611640565b6106c5565b6101ca6102003660046117fa565b6106f9565b6102186102133660046118a3565b610745565b60405161015891906119a8565b6101746102333660046114b7565b600090815260036020526040902054151590565b6101ca6102553660046119bb565b61086e565b6101ca6108aa565b6101ca6102703660046119bb565b6108be565b6004546040516001600160a01b039091168152602001610158565b6101ca61029e3660046119fc565b61094d565b6101746102b13660046114b7565b60066020526000908152604090205460ff1681565b6101ca6102d43660046114b7565b61095c565b61014e6102e73660046114b7565b60009081526003602052604090205490565b610174610307366004611a38565b6001600160a01b03918216600090815260016020908152604080832093909416825291909152205460ff1690565b6101ca610343366004611a6b565b6109d6565b6101ca610356366004611acf565b610a1b565b60006001600160a01b0383166103cb5760405162461bcd60e51b815260206004820152602a60248201527f455243313135353a2061646472657373207a65726f206973206e6f742061207660448201526930b634b21037bbb732b960b11b60648201526084015b60405180910390fd5b506000818152602081815260408083206001600160a01b03861684529091529020545b92915050565b60006001600160e01b03198216636cdb3d1360e11b148061042557506001600160e01b031982166303a24d0760e21b145b806103ee57506301ffc9a760e01b6001600160e01b03198316146103ee565b600081815260056020526040902080546060919061046190611aea565b80601f016020809104026020016040519081016040528092919081815260200182805461048d90611aea565b80156104da5780601f106104af576101008083540402835291602001916104da565b820191906000526020600020905b8154815290600101906020018083116104bd57829003601f168201915b50505050509050919050565b600560205260009081526040902080546104ff90611aea565b80601f016020809104026020016040519081016040528092919081815260200182805461052b90611aea565b80156105785780601f1061054d57610100808354040283529160200191610578565b820191906000526020600020905b81548152906001019060200180831161055b57829003601f168201915b505050505081565b610588610a94565b600082815260056020526040902080546105a190611aea565b90506000036105c35760405163677510db60e11b815260040160405180910390fd5b60008281526006602052604090205460ff16156105f35760405163021eeb9560e11b815260040160405180910390fd5b61060e83838360405180602001604052806000815250610aee565b505050565b61061b610a94565b828514158061062a5750828114155b1561064857604051633757dfe560e01b815260040160405180910390fd5b60005b838110156106bc576106b487878381811061066857610668611b24565b905060200201602081019061067d9190611acf565b86868481811061068f5761068f611b24565b905060200201358585858181106106a8576106a8611b24565b90506020020135610580565b60010161064b565b50505050505050565b600082826040516020016106da929190611b3a565b60408051601f1981840301815291905280516020909101209392505050565b6001600160a01b03851633148061071557506107158533610307565b6107315760405162461bcd60e51b81526004016103c290611b4a565b61073e8585858585610c08565b5050505050565b606081518351146107aa5760405162461bcd60e51b815260206004820152602960248201527f455243313135353a206163636f756e747320616e6420696473206c656e677468604482015268040dad2e6dac2e8c6d60bb1b60648201526084016103c2565b600083516001600160401b038111156107c5576107c56116b1565b6040519080825280602002602001820160405280156107ee578160200160208202803683370190505b50905060005b84518110156108665761083985828151811061081257610812611b24565b602002602001015185838151811061082c5761082c611b24565b602002602001015161035b565b82828151811061084b5761084b611b24565b602090810291909101015261085f81611bae565b90506107f4565b509392505050565b610876610a94565b60005b8181101561060e576108a283838381811061089657610896611b24565b9050602002013561095c565b600101610879565b6108b2610a94565b6108bc6000610df3565b565b6108c6610a94565b60005b60ff811682111561060e5782828260ff168181106108e9576108e9611b24565b90506020028101906108fb9190611bc7565b6005600061092987878760ff1681811061091757610917611b24565b90506020028101906101ed9190611bc7565b81526020019081526020016000209182610944929190611c53565b506001016108c9565b610958338383610e45565b5050565b610964610a94565b60008181526006602052604090205460ff16156109935760405162d234a760e51b815260040160405180910390fd5b600081815260066020526040808220805460ff191660011790555182917ff6745a2db3ab942587bd3204ce8dd5f4cec119b9495758e1c39591eca58fe47191a250565b6001600160a01b0385163314806109f257506109f28533610307565b610a0e5760405162461bcd60e51b81526004016103c290611b4a565b61073e8585858585610f25565b610a23610a94565b6001600160a01b038116610a885760405162461bcd60e51b815260206004820152602660248201527f4f776e61626c653a206e6577206f776e657220697320746865207a65726f206160448201526564647265737360d01b60648201526084016103c2565b610a9181610df3565b50565b6004546001600160a01b031633146108bc5760405162461bcd60e51b815260206004820181905260248201527f4f776e61626c653a2063616c6c6572206973206e6f7420746865206f776e657260448201526064016103c2565b6001600160a01b038416610b4e5760405162461bcd60e51b815260206004820152602160248201527f455243313135353a206d696e7420746f20746865207a65726f206164647265736044820152607360f81b60648201526084016103c2565b336000610b5a8561105d565b90506000610b678561105d565b9050610b78836000898585896110a8565b6000868152602081815260408083206001600160a01b038b16845290915281208054879290610ba8908490611d12565b909155505060408051878152602081018790526001600160a01b03808a1692600092918716917fc3d58168c5ae7397731d063d5bbf3d657854427343f4c083240f7aacaa2d0f62910160405180910390a46106bc83600089898989611221565b8151835114610c6a5760405162461bcd60e51b815260206004820152602860248201527f455243313135353a2069647320616e6420616d6f756e7473206c656e677468206044820152670dad2e6dac2e8c6d60c31b60648201526084016103c2565b6001600160a01b038416610c905760405162461bcd60e51b81526004016103c290611d25565b33610c9f8187878787876110a8565b60005b8451811015610d85576000858281518110610cbf57610cbf611b24565b602002602001015190506000858381518110610cdd57610cdd611b24565b602090810291909101810151600084815280835260408082206001600160a01b038e168352909352919091205490915081811015610d2d5760405162461bcd60e51b81526004016103c290611d6a565b6000838152602081815260408083206001600160a01b038e8116855292528083208585039055908b16825281208054849290610d6a908490611d12565b9250508190555050505080610d7e90611bae565b9050610ca2565b50846001600160a01b0316866001600160a01b0316826001600160a01b03167f4a39dc06d4c0dbc64b70af90fd698a233a518aa5d07e595d983b8c0526c8f7fb8787604051610dd5929190611db4565b60405180910390a4610deb81878787878761137c565b505050505050565b600480546001600160a01b038381166001600160a01b0319831681179093556040519116919082907f8be0079c531659141344cd1fd0a4f28419497f9722a3daafe3b4186f6b6457e090600090a35050565b816001600160a01b0316836001600160a01b031603610eb85760405162461bcd60e51b815260206004820152602960248201527f455243313135353a2073657474696e6720617070726f76616c20737461747573604482015268103337b91039b2b63360b91b60648201526084016103c2565b6001600160a01b03838116600081815260016020908152604080832094871680845294825291829020805460ff191686151590811790915591519182527f17307eab39ab6107e8899845ad3d59bd9653f200f220920489ca2b5937696c31910160405180910390a3505050565b6001600160a01b038416610f4b5760405162461bcd60e51b81526004016103c290611d25565b336000610f578561105d565b90506000610f648561105d565b9050610f748389898585896110a8565b6000868152602081815260408083206001600160a01b038c16845290915290205485811015610fb55760405162461bcd60e51b81526004016103c290611d6a565b6000878152602081815260408083206001600160a01b038d8116855292528083208985039055908a16825281208054889290610ff2908490611d12565b909155505060408051888152602081018890526001600160a01b03808b16928c821692918816917fc3d58168c5ae7397731d063d5bbf3d657854427343f4c083240f7aacaa2d0f62910160405180910390a4611052848a8a8a8a8a611221565b505050505050505050565b6040805160018082528183019092526060916000919060208083019080368337019050509050828160008151811061109757611097611b24565b602090810291909101015292915050565b6001600160a01b03851661112f5760005b835181101561112d578281815181106110d4576110d4611b24565b6020026020010151600360008684815181106110f2576110f2611b24565b6020026020010151815260200190815260200160002060008282546111179190611d12565b90915550611126905081611bae565b90506110b9565b505b6001600160a01b038416610deb5760005b83518110156106bc57600084828151811061115d5761115d611b24565b60200260200101519050600084838151811061117b5761117b611b24565b60200260200101519050600060036000848152602001908152602001600020549050818110156111fe5760405162461bcd60e51b815260206004820152602860248201527f455243313135353a206275726e20616d6f756e74206578636565647320746f74604482015267616c537570706c7960c01b60648201526084016103c2565b6000928352600360205260409092209103905561121a81611bae565b9050611140565b6001600160a01b0384163b15610deb5760405163f23a6e6160e01b81526001600160a01b0385169063f23a6e61906112659089908990889088908890600401611de2565b6020604051808303816000875af19250505080156112a0575060408051601f3d908101601f1916820190925261129d91810190611e27565b60015b61134c576112ac611e44565b806308c379a0036112e557506112c0611e60565b806112cb57506112e7565b8060405162461bcd60e51b81526004016103c29190611516565b505b60405162461bcd60e51b815260206004820152603460248201527f455243313135353a207472616e7366657220746f206e6f6e2d455243313135356044820152732932b1b2b4bb32b91034b6b83632b6b2b73a32b960611b60648201526084016103c2565b6001600160e01b0319811663f23a6e6160e01b146106bc5760405162461bcd60e51b81526004016103c290611ee9565b6001600160a01b0384163b15610deb5760405163bc197c8160e01b81526001600160a01b0385169063bc197c81906113c09089908990889088908890600401611f31565b6020604051808303816000875af19250505080156113fb575060408051601f3d908101601f191682019092526113f891810190611e27565b60015b611407576112ac611e44565b6001600160e01b0319811663bc197c8160e01b146106bc5760405162461bcd60e51b81526004016103c290611ee9565b80356001600160a01b038116811461144e57600080fd5b919050565b6000806040838503121561146657600080fd5b61146f83611437565b946020939093013593505050565b6001600160e01b031981168114610a9157600080fd5b6000602082840312156114a557600080fd5b81356114b08161147d565b9392505050565b6000602082840312156114c957600080fd5b5035919050565b6000815180845260005b818110156114f6576020818501810151868301820152016114da565b506000602082860101526020601f19601f83011685010191505092915050565b6020815260006114b060208301846114d0565b60008060006060848603121561153e57600080fd5b61154784611437565b95602085013595506040909401359392505050565b60008083601f84011261156e57600080fd5b5081356001600160401b0381111561158557600080fd5b6020830191508360208260051b85010111156115a057600080fd5b9250929050565b600080600080600080606087890312156115c057600080fd5b86356001600160401b03808211156115d757600080fd5b6115e38a838b0161155c565b909850965060208901359150808211156115fc57600080fd5b6116088a838b0161155c565b9096509450604089013591508082111561162157600080fd5b5061162e89828a0161155c565b979a9699509497509295939492505050565b6000806020838503121561165357600080fd5b82356001600160401b038082111561166a57600080fd5b818501915085601f83011261167e57600080fd5b81358181111561168d57600080fd5b86602082850101111561169f57600080fd5b60209290920196919550909350505050565b634e487b7160e01b600052604160045260246000fd5b601f8201601f191681016001600160401b03811182821017156116ec576116ec6116b1565b6040525050565b60006001600160401b0382111561170c5761170c6116b1565b5060051b60200190565b600082601f83011261172757600080fd5b81356020611734826116f3565b60405161174182826116c7565b83815260059390931b850182019282810191508684111561176157600080fd5b8286015b8481101561177c5780358352918301918301611765565b509695505050505050565b600082601f83011261179857600080fd5b81356001600160401b038111156117b1576117b16116b1565b6040516117c8601f8301601f1916602001826116c7565b8181528460208386010111156117dd57600080fd5b816020850160208301376000918101602001919091529392505050565b600080600080600060a0868803121561181257600080fd5b61181b86611437565b945061182960208701611437565b935060408601356001600160401b038082111561184557600080fd5b61185189838a01611716565b9450606088013591508082111561186757600080fd5b61187389838a01611716565b9350608088013591508082111561188957600080fd5b5061189688828901611787565b9150509295509295909350565b600080604083850312156118b657600080fd5b82356001600160401b03808211156118cd57600080fd5b818501915085601f8301126118e157600080fd5b813560206118ee826116f3565b6040516118fb82826116c7565b83815260059390931b850182019282810191508984111561191b57600080fd5b948201945b838610156119405761193186611437565b82529482019490820190611920565b9650508601359250508082111561195657600080fd5b5061196385828601611716565b9150509250929050565b600081518084526020808501945080840160005b8381101561199d57815187529582019590820190600101611981565b509495945050505050565b6020815260006114b0602083018461196d565b600080602083850312156119ce57600080fd5b82356001600160401b038111156119e457600080fd5b6119f08582860161155c565b90969095509350505050565b60008060408385031215611a0f57600080fd5b611a1883611437565b915060208301358015158114611a2d57600080fd5b809150509250929050565b60008060408385031215611a4b57600080fd5b611a5483611437565b9150611a6260208401611437565b90509250929050565b600080600080600060a08688031215611a8357600080fd5b611a8c86611437565b9450611a9a60208701611437565b9350604086013592506060860135915060808601356001600160401b03811115611ac357600080fd5b61189688828901611787565b600060208284031215611ae157600080fd5b6114b082611437565b600181811c90821680611afe57607f821691505b602082108103611b1e57634e487b7160e01b600052602260045260246000fd5b50919050565b634e487b7160e01b600052603260045260246000fd5b8183823760009101908152919050565b6020808252602e908201527f455243313135353a2063616c6c6572206973206e6f7420746f6b656e206f776e60408201526d195c881bdc88185c1c1c9bdd995960921b606082015260800190565b634e487b7160e01b600052601160045260246000fd5b600060018201611bc057611bc0611b98565b5060010190565b6000808335601e19843603018112611bde57600080fd5b8301803591506001600160401b03821115611bf857600080fd5b6020019150368190038213156115a057600080fd5b601f82111561060e57600081815260208120601f850160051c81016020861015611c345750805b601f850160051c820191505b81811015610deb57828155600101611c40565b6001600160401b03831115611c6a57611c6a6116b1565b611c7e83611c788354611aea565b83611c0d565b6000601f841160018114611cb25760008515611c9a5750838201355b600019600387901b1c1916600186901b17835561073e565b600083815260209020601f19861690835b82811015611ce35786850135825560209485019460019092019101611cc3565b5086821015611d005760001960f88860031b161c19848701351681555b505060018560011b0183555050505050565b808201808211156103ee576103ee611b98565b60208082526025908201527f455243313135353a207472616e7366657220746f20746865207a65726f206164604082015264647265737360d81b606082015260800190565b6020808252602a908201527f455243313135353a20696e73756666696369656e742062616c616e636520666f60408201526939103a3930b739b332b960b11b606082015260800190565b604081526000611dc7604083018561196d565b8281036020840152611dd9818561196d565b95945050505050565b6001600160a01b03868116825285166020820152604081018490526060810183905260a060808201819052600090611e1c908301846114d0565b979650505050505050565b600060208284031215611e3957600080fd5b81516114b08161147d565b600060033d1115611e5d5760046000803e5060005160e01c5b90565b600060443d1015611e6e5790565b6040516003193d81016004833e81513d6001600160401b038160248401118184111715611e9d57505050505090565b8285019150815181811115611eb55750505050505090565b843d8701016020828501011115611ecf5750505050505090565b611ede602082860101876116c7565b509095945050505050565b60208082526028908201527f455243313135353a204552433131353552656365697665722072656a656374656040820152676420746f6b656e7360c01b606082015260800190565b6001600160a01b0386811682528516602082015260a060408201819052600090611f5d9083018661196d565b8281036060840152611f6f818661196d565b90508281036080840152611f8381856114d0565b9897505050505050505056fea2646970667358221220eda2c7ad99880e481691c08a2cbb008ea61ebfd851ace6a839016ac3da3bf3b164736f6c63430008100033",
  "devdoc": {
    "kind": "dev",
    "methods": {
      "balanceOf(address,uint256)": {
        "details": "See {IERC1155-balanceOf}. Requirements: - `account` cannot be the zero address."
      },
      "balanceOfBatch(address[],uint256[])": {
        "details": "See {IERC1155-balanceOfBatch}. Requirements: - `accounts` and `ids` must have the same length."
      },
      "exists(uint256)": {
        "details": "Indicates whether any token exist with a given id, or not."
      },
      "isApprovedForAll(address,address)": {
        "details": "See {IERC1155-isApprovedForAll}."
      },
      "owner()": {
        "details": "Returns the address of the current owner."
      },
      "renounceOwnership()": {
        "details": "Leaves the contract without owner. It will not be possible to call `onlyOwner` functions anymore. Can only be called by the current owner. NOTE: Renouncing ownership will leave the contract without an owner, thereby removing any functionality that is only available to the owner."
      },
      "safeBatchTransferFrom(address,address,uint256[],uint256[],bytes)": {
        "details": "See {IERC1155-safeBatchTransferFrom}."
      },
      "safeTransferFrom(address,address,uint256,uint256,bytes)": {
        "details": "See {IERC1155-safeTransferFrom}."
      },
      "setApprovalForAll(address,bool)": {
        "details": "See {IERC1155-setApprovalForAll}."
      },
      "supportsInterface(bytes4)": {
        "details": "See {IERC165-supportsInterface}."
      },
      "totalSupply(uint256)": {
        "details": "Total amount of tokens in with a given id."
      },
      "transferOwnership(address)": {
        "details": "Transfers ownership of the contract to a new account (`newOwner`). Can only be called by the current owner."
      }
    },
    "version": 1
  },
  "userdoc": {
    "kind": "user",
    "methods": {},
    "version": 1
  },
  "storageLayout": {
    "storage": [
      {
        "astId": 138,
        "contract": "contracts/HATHackersNFT.sol:HATHackersNFT",
        "label": "_balances",
        "offset": 0,
        "slot": "0",
        "type": "t_mapping(t_uint256,t_mapping(t_address,t_uint256))"
      },
      {
        "astId": 144,
        "contract": "contracts/HATHackersNFT.sol:HATHackersNFT",
        "label": "_operatorApprovals",
        "offset": 0,
        "slot": "1",
        "type": "t_mapping(t_address,t_mapping(t_address,t_bool))"
      },
      {
        "astId": 146,
        "contract": "contracts/HATHackersNFT.sol:HATHackersNFT",
        "label": "_uri",
        "offset": 0,
        "slot": "2",
        "type": "t_string_storage"
      },
      {
        "astId": 1508,
        "contract": "contracts/HATHackersNFT.sol:HATHackersNFT",
        "label": "_totalSupply",
        "offset": 0,
        "slot": "3",
        "type": "t_mapping(t_uint256,t_uint256)"
      },
      {
        "astId": 7,
        "contract": "contracts/HATHackersNFT.sol:HATHackersNFT",
        "label": "_owner",
        "offset": 0,
        "slot": "4",
        "type": "t_address"
      },
      {
        "astId": 3123,
        "contract": "contracts/HATHackersNFT.sol:HATHackersNFT",
        "label": "uris",
        "offset": 0,
        "slot": "5",
        "type": "t_mapping(t_uint256,t_string_storage)"
      },
      {
        "astId": 3127,
        "contract": "contracts/HATHackersNFT.sol:HATHackersNFT",
        "label": "mintingStopped",
        "offset": 0,
        "slot": "6",
        "type": "t_mapping(t_uint256,t_bool)"
      }
    ],
    "types": {
      "t_address": {
        "encoding": "inplace",
        "label": "address",
        "numberOfBytes": "20"
      },
      "t_bool": {
        "encoding": "inplace",
        "label": "bool",
        "numberOfBytes": "1"
      },
      "t_mapping(t_address,t_bool)": {
        "encoding": "mapping",
        "key": "t_address",
        "label": "mapping(address => bool)",
        "numberOfBytes": "32",
        "value": "t_bool"
      },
      "t_mapping(t_address,t_mapping(t_address,t_bool))": {
        "encoding": "mapping",
        "key": "t_address",
        "label": "mapping(address => mapping(address => bool))",
        "numberOfBytes": "32",
        "value": "t_mapping(t_address,t_bool)"
      },
      "t_mapping(t_address,t_uint256)": {
        "encoding": "mapping",
        "key": "t_address",
        "label": "mapping(address => uint256)",
        "numberOfBytes": "32",
        "value": "t_uint256"
      },
      "t_mapping(t_uint256,t_bool)": {
        "encoding": "mapping",
        "key": "t_uint256",
        "label": "mapping(uint256 => bool)",
        "numberOfBytes": "32",
        "value": "t_bool"
      },
      "t_mapping(t_uint256,t_mapping(t_address,t_uint256))": {
        "encoding": "mapping",
        "key": "t_uint256",
        "label": "mapping(uint256 => mapping(address => uint256))",
        "numberOfBytes": "32",
        "value": "t_mapping(t_address,t_uint256)"
      },
      "t_mapping(t_uint256,t_string_storage)": {
        "encoding": "mapping",
        "key": "t_uint256",
        "label": "mapping(uint256 => string)",
        "numberOfBytes": "32",
        "value": "t_string_storage"
      },
      "t_mapping(t_uint256,t_uint256)": {
        "encoding": "mapping",
        "key": "t_uint256",
        "label": "mapping(uint256 => uint256)",
        "numberOfBytes": "32",
        "value": "t_uint256"
      },
      "t_string_storage": {
        "encoding": "bytes",
        "label": "string",
        "numberOfBytes": "32"
      },
      "t_uint256": {
        "encoding": "inplace",
        "label": "uint256",
        "numberOfBytes": "32"
      }
    }
  }
}