{
  "address": "0xaAd1017428f0De68124b53463d3928ecD3878b78",
  "abi": [
    {
      "inputs": [],
      "stateMutability": "nonpayable",
      "type": "constructor"
    },
    {
      "inputs": [],
      "name": "MintArrayLengthMismatch",
      "type": "error"
    },
    {
      "inputs": [],
      "name": "MintingAlreadyStopped",
      "type": "error"
    },
    {
      "inputs": [],
      "name": "MintingOfTokenStopped",
      "type": "error"
    },
    {
      "inputs": [],
      "name": "TokenDoesNotExist",
      "type": "error"
    },
    {
      "anonymous": false,
      "inputs": [
        {
          "indexed": true,
          "internalType": "address",
          "name": "account",
          "type": "address"
        },
        {
          "indexed": true,
          "internalType": "address",
          "name": "operator",
          "type": "address"
        },
        {
          "indexed": false,
          "internalType": "bool",
          "name": "approved",
          "type": "bool"
        }
      ],
      "name": "ApprovalForAll",
      "type": "event"
    },
    {
      "anonymous": false,
      "inputs": [
        {
          "indexed": true,
          "internalType": "uint256",
          "name": "_tokenId",
          "type": "uint256"
        }
      ],
      "name": "MintingStopped",
      "type": "event"
    },
    {
      "anonymous": false,
      "inputs": [
        {
          "indexed": true,
          "internalType": "address",
          "name": "previousOwner",
          "type": "address"
        },
        {
          "indexed": true,
          "internalType": "address",
          "name": "newOwner",
          "type": "address"
        }
      ],
      "name": "OwnershipTransferred",
      "type": "event"
    },
    {
      "anonymous": false,
      "inputs": [
        {
          "indexed": true,
          "internalType": "address",
          "name": "operator",
          "type": "address"
        },
        {
          "indexed": true,
          "internalType": "address",
          "name": "from",
          "type": "address"
        },
        {
          "indexed": true,
          "internalType": "address",
          "name": "to",
          "type": "address"
        },
        {
          "indexed": false,
          "internalType": "uint256[]",
          "name": "ids",
          "type": "uint256[]"
        },
        {
          "indexed": false,
          "internalType": "uint256[]",
          "name": "values",
          "type": "uint256[]"
        }
      ],
      "name": "TransferBatch",
      "type": "event"
    },
    {
      "anonymous": false,
      "inputs": [
        {
          "indexed": true,
          "internalType": "address",
          "name": "operator",
          "type": "address"
        },
        {
          "indexed": true,
          "internalType": "address",
          "name": "from",
          "type": "address"
        },
        {
          "indexed": true,
          "internalType": "address",
          "name": "to",
          "type": "address"
        },
        {
          "indexed": false,
          "internalType": "uint256",
          "name": "id",
          "type": "uint256"
        },
        {
          "indexed": false,
          "internalType": "uint256",
          "name": "value",
          "type": "uint256"
        }
      ],
      "name": "TransferSingle",
      "type": "event"
    },
    {
      "anonymous": false,
      "inputs": [
        {
          "indexed": false,
          "internalType": "string",
          "name": "value",
          "type": "string"
        },
        {
          "indexed": true,
          "internalType": "uint256",
          "name": "id",
          "type": "uint256"
        }
      ],
      "name": "URI",
      "type": "event"
    },
    {
      "inputs": [
        {
          "internalType": "address",
          "name": "account",
          "type": "address"
        },
        {
          "internalType": "uint256",
          "name": "id",
          "type": "uint256"
        }
      ],
      "name": "balanceOf",
      "outputs": [
        {
          "internalType": "uint256",
          "name": "",
          "type": "uint256"
        }
      ],
      "stateMutability": "view",
      "type": "function"
    },
    {
      "inputs": [
        {
          "internalType": "address[]",
          "name": "accounts",
          "type": "address[]"
        },
        {
          "internalType": "uint256[]",
          "name": "ids",
          "type": "uint256[]"
        }
      ],
      "name": "balanceOfBatch",
      "outputs": [
        {
          "internalType": "uint256[]",
          "name": "",
          "type": "uint256[]"
        }
      ],
      "stateMutability": "view",
      "type": "function"
    },
    {
      "inputs": [
        {
          "internalType": "string",
          "name": "_ipfsHash",
          "type": "string"
        },
        {
          "internalType": "uint8",
          "name": "_tiersCount",
          "type": "uint8"
        }
      ],
      "name": "createNFTs",
      "outputs": [],
      "stateMutability": "nonpayable",
      "type": "function"
    },
    {
      "inputs": [
        {
          "internalType": "uint256",
          "name": "id",
          "type": "uint256"
        }
      ],
      "name": "exists",
      "outputs": [
        {
          "internalType": "bool",
          "name": "",
          "type": "bool"
        }
      ],
      "stateMutability": "view",
      "type": "function"
    },
    {
      "inputs": [
        {
          "internalType": "string",
          "name": "_ipfsHash",
          "type": "string"
        },
        {
          "internalType": "uint8",
          "name": "_tier",
          "type": "uint8"
        }
      ],
      "name": "getTokenId",
      "outputs": [
        {
          "internalType": "uint256",
          "name": "",
          "type": "uint256"
        }
      ],
      "stateMutability": "pure",
      "type": "function"
    },
    {
      "inputs": [
        {
          "internalType": "address",
          "name": "account",
          "type": "address"
        },
        {
          "internalType": "address",
          "name": "operator",
          "type": "address"
        }
      ],
      "name": "isApprovedForAll",
      "outputs": [
        {
          "internalType": "bool",
          "name": "",
          "type": "bool"
        }
      ],
      "stateMutability": "view",
      "type": "function"
    },
    {
      "inputs": [
        {
          "internalType": "address",
          "name": "_recipient",
          "type": "address"
        },
        {
          "internalType": "uint256",
          "name": "_tokenId",
          "type": "uint256"
        },
        {
          "internalType": "uint256",
          "name": "_amount",
          "type": "uint256"
        }
      ],
      "name": "mint",
      "outputs": [],
      "stateMutability": "nonpayable",
      "type": "function"
    },
    {
      "inputs": [
        {
          "internalType": "address[]",
          "name": "_recipients",
          "type": "address[]"
        },
        {
          "internalType": "uint256[]",
          "name": "_tokenIds",
          "type": "uint256[]"
        },
        {
          "internalType": "uint256[]",
          "name": "_amounts",
          "type": "uint256[]"
        }
      ],
      "name": "mintMultiple",
      "outputs": [],
      "stateMutability": "nonpayable",
      "type": "function"
    },
    {
      "inputs": [
        {
          "internalType": "uint256",
          "name": "",
          "type": "uint256"
        }
      ],
      "name": "mintingStopped",
      "outputs": [
        {
          "internalType": "bool",
          "name": "",
          "type": "bool"
        }
      ],
      "stateMutability": "view",
      "type": "function"
    },
    {
      "inputs": [],
      "name": "owner",
      "outputs": [
        {
          "internalType": "address",
          "name": "",
          "type": "address"
        }
      ],
      "stateMutability": "view",
      "type": "function"
    },
    {
      "inputs": [],
      "name": "renounceOwnership",
      "outputs": [],
      "stateMutability": "nonpayable",
      "type": "function"
    },
    {
      "inputs": [
        {
          "internalType": "address",
          "name": "from",
          "type": "address"
        },
        {
          "internalType": "address",
          "name": "to",
          "type": "address"
        },
        {
          "internalType": "uint256[]",
          "name": "ids",
          "type": "uint256[]"
        },
        {
          "internalType": "uint256[]",
          "name": "amounts",
          "type": "uint256[]"
        },
        {
          "internalType": "bytes",
          "name": "data",
          "type": "bytes"
        }
      ],
      "name": "safeBatchTransferFrom",
      "outputs": [],
      "stateMutability": "nonpayable",
      "type": "function"
    },
    {
      "inputs": [
        {
          "internalType": "address",
          "name": "from",
          "type": "address"
        },
        {
          "internalType": "address",
          "name": "to",
          "type": "address"
        },
        {
          "internalType": "uint256",
          "name": "id",
          "type": "uint256"
        },
        {
          "internalType": "uint256",
          "name": "amount",
          "type": "uint256"
        },
        {
          "internalType": "bytes",
          "name": "data",
          "type": "bytes"
        }
      ],
      "name": "safeTransferFrom",
      "outputs": [],
      "stateMutability": "nonpayable",
      "type": "function"
    },
    {
      "inputs": [
        {
          "internalType": "address",
          "name": "operator",
          "type": "address"
        },
        {
          "internalType": "bool",
          "name": "approved",
          "type": "bool"
        }
      ],
      "name": "setApprovalForAll",
      "outputs": [],
      "stateMutability": "nonpayable",
      "type": "function"
    },
    {
      "inputs": [
        {
          "internalType": "uint256",
          "name": "_tokenId",
          "type": "uint256"
        }
      ],
      "name": "stopMint",
      "outputs": [],
      "stateMutability": "nonpayable",
      "type": "function"
    },
    {
      "inputs": [
        {
          "internalType": "uint256[]",
          "name": "_tokenIds",
          "type": "uint256[]"
        }
      ],
      "name": "stopMintMultiple",
      "outputs": [],
      "stateMutability": "nonpayable",
      "type": "function"
    },
    {
      "inputs": [
        {
          "internalType": "bytes4",
          "name": "interfaceId",
          "type": "bytes4"
        }
      ],
      "name": "supportsInterface",
      "outputs": [
        {
          "internalType": "bool",
          "name": "",
          "type": "bool"
        }
      ],
      "stateMutability": "view",
      "type": "function"
    },
    {
      "inputs": [
        {
          "internalType": "uint256",
          "name": "id",
          "type": "uint256"
        }
      ],
      "name": "totalSupply",
      "outputs": [
        {
          "internalType": "uint256",
          "name": "",
          "type": "uint256"
        }
      ],
      "stateMutability": "view",
      "type": "function"
    },
    {
      "inputs": [
        {
          "internalType": "address",
          "name": "newOwner",
          "type": "address"
        }
      ],
      "name": "transferOwnership",
      "outputs": [],
      "stateMutability": "nonpayable",
      "type": "function"
    },
    {
      "inputs": [
        {
          "internalType": "uint256",
          "name": "_tokenId",
          "type": "uint256"
        }
      ],
      "name": "uri",
      "outputs": [
        {
          "internalType": "string",
          "name": "",
          "type": "string"
        }
      ],
      "stateMutability": "view",
      "type": "function"
    },
    {
      "inputs": [
        {
          "internalType": "uint256",
          "name": "",
          "type": "uint256"
        }
      ],
      "name": "uris",
      "outputs": [
        {
          "internalType": "string",
          "name": "",
          "type": "string"
        }
      ],
      "stateMutability": "view",
      "type": "function"
    }
  ],
  "transactionHash": "0x30f1e1fd53361a58d84a0b46f665a32a1c4bacaf5006ca767723f550190fe01e",
  "args": [],
  "numDeployments": 1,
  "solcInputHash": "e3972719d325de114b6493abc1775147",
  "bytecode": "0x60806040523480156200001157600080fd5b506040805160208101909152600081526200002c816200003e565b50620000383362000050565b62000213565b60026200004c828262000147565b5050565b600480546001600160a01b038381166001600160a01b0319831681179093556040519116919082907f8be0079c531659141344cd1fd0a4f28419497f9722a3daafe3b4186f6b6457e090600090a35050565b634e487b7160e01b600052604160045260246000fd5b600181811c90821680620000cd57607f821691505b602082108103620000ee57634e487b7160e01b600052602260045260246000fd5b50919050565b601f8211156200014257600081815260208120601f850160051c810160208610156200011d5750805b601f850160051c820191505b818110156200013e5782815560010162000129565b5050505b505050565b81516001600160401b03811115620001635762000163620000a2565b6200017b81620001748454620000b8565b84620000f4565b602080601f831160018114620001b357600084156200019a5750858301515b600019600386901b1c1916600185901b1785556200013e565b600085815260208120601f198616915b82811015620001e457888601518255948401946001909101908401620001c3565b5085821015620002035787850151600019600388901b60f8161c191681555b5050505050600190811b01905550565b61213680620002236000396000f3fe608060405234801561001057600080fd5b50600436106101365760003560e01c8063715018a6116100b8578063b69490bc1161007c578063b69490bc146102b3578063b6eb549d146102c6578063bd85b039146102d9578063e985e9c5146102f9578063f242432a14610335578063f2fde38b1461034857600080fd5b8063715018a6146102475780638da5cb5b1461024f578063a22cb4651461026a578063af5691f61461027d578063b3f6c8b2146102a057600080fd5b80631c99aeb3116100ff5780631c99aeb3146101cc5780632eb2c2d6146101df5780634e1273f4146101f25780634f558e79146102125780636bbca0461461023457600080fd5b8062fdd58e1461013b57806301ffc9a7146101615780630e89341c146101845780631253c546146101a4578063156e29f6146101b7575b600080fd5b61014e6101493660046115b1565b61035b565b6040519081526020015b60405180910390f35b61017461016f3660046115f1565b6103f4565b6040519015158152602001610158565b610197610192366004611615565b610444565b604051610158919061167e565b6101976101b2366004611615565b6104e6565b6101ca6101c5366004611691565b610580565b005b6101ca6101da36600461170f565b610613565b6101ca6101ed3660046118f1565b6106c5565b61020561020036600461199a565b610711565b6040516101589190611a9f565b610174610220366004611615565b600090815260036020526040902054151590565b6101ca610242366004611ab2565b61083a565b6101ca610876565b6004546040516001600160a01b039091168152602001610158565b6101ca610278366004611af3565b61088a565b61017461028b366004611615565b60066020526000908152604090205460ff1681565b6101ca6102ae366004611b2f565b610899565b61014e6102c1366004611b2f565b610919565b6101ca6102d4366004611615565b610950565b61014e6102e7366004611615565b60009081526003602052604090205490565b610174610307366004611bb7565b6001600160a01b03918216600090815260016020908152604080832093909416825291909152205460ff1690565b6101ca610343366004611bea565b6109ca565b6101ca610356366004611c4e565b610a0f565b60006001600160a01b0383166103cb5760405162461bcd60e51b815260206004820152602a60248201527f455243313135353a2061646472657373207a65726f206973206e6f742061207660448201526930b634b21037bbb732b960b11b60648201526084015b60405180910390fd5b506000818152602081815260408083206001600160a01b03861684529091529020545b92915050565b60006001600160e01b03198216636cdb3d1360e11b148061042557506001600160e01b031982166303a24d0760e21b145b806103ee57506301ffc9a760e01b6001600160e01b03198316146103ee565b600081815260056020526040902080546060919061046190611c69565b80601f016020809104026020016040519081016040528092919081815260200182805461048d90611c69565b80156104da5780601f106104af576101008083540402835291602001916104da565b820191906000526020600020905b8154815290600101906020018083116104bd57829003601f168201915b50505050509050919050565b600560205260009081526040902080546104ff90611c69565b80601f016020809104026020016040519081016040528092919081815260200182805461052b90611c69565b80156105785780601f1061054d57610100808354040283529160200191610578565b820191906000526020600020905b81548152906001019060200180831161055b57829003601f168201915b505050505081565b610588610a88565b600082815260056020526040902080546105a190611c69565b90506000036105c35760405163677510db60e11b815260040160405180910390fd5b60008281526006602052604090205460ff16156105f35760405163021eeb9560e11b815260040160405180910390fd5b61060e83838360405180602001604052806000815250610ae2565b505050565b61061b610a88565b828514158061062a5750828114155b1561064857604051633757dfe560e01b815260040160405180910390fd5b60005b838110156106bc576106b487878381811061066857610668611ca3565b905060200201602081019061067d9190611c4e565b86868481811061068f5761068f611ca3565b905060200201358585858181106106a8576106a8611ca3565b90506020020135610580565b60010161064b565b50505050505050565b6001600160a01b0385163314806106e157506106e18533610307565b6106fd5760405162461bcd60e51b81526004016103c290611cb9565b61070a8585858585610bfc565b5050505050565b606081518351146107765760405162461bcd60e51b815260206004820152602960248201527f455243313135353a206163636f756e747320616e6420696473206c656e677468604482015268040dad2e6dac2e8c6d60bb1b60648201526084016103c2565b600083516001600160401b03811115610791576107916117a8565b6040519080825280602002602001820160405280156107ba578160200160208202803683370190505b50905060005b8451811015610832576108058582815181106107de576107de611ca3565b60200260200101518583815181106107f8576107f8611ca3565b602002602001015161035b565b82828151811061081757610817611ca3565b602090810291909101015261082b81611d1d565b90506107c0565b509392505050565b610842610a88565b60005b8181101561060e5761086e83838381811061086257610862611ca3565b90506020020135610950565b600101610845565b61087e610a88565b6108886000610de7565b565b610895338383610e39565b5050565b6108a1610a88565b60005b8160ff168160ff1610156109135783836108c08360ff16610f19565b6040516020016108d293929190611d36565b604051602081830303815290604052600560006108f0878786610919565b8152602001908152602001600020908161090a9190611da3565b506001016108a4565b50505050565b600083838360405160200161093093929190611e62565b60408051601f198184030181529190528051602090910120949350505050565b610958610a88565b60008181526006602052604090205460ff16156109875760405162d234a760e51b815260040160405180910390fd5b600081815260066020526040808220805460ff191660011790555182917ff6745a2db3ab942587bd3204ce8dd5f4cec119b9495758e1c39591eca58fe47191a250565b6001600160a01b0385163314806109e657506109e68533610307565b610a025760405162461bcd60e51b81526004016103c290611cb9565b61070a8585858585610fab565b610a17610a88565b6001600160a01b038116610a7c5760405162461bcd60e51b815260206004820152602660248201527f4f776e61626c653a206e6577206f776e657220697320746865207a65726f206160448201526564647265737360d01b60648201526084016103c2565b610a8581610de7565b50565b6004546001600160a01b031633146108885760405162461bcd60e51b815260206004820181905260248201527f4f776e61626c653a2063616c6c6572206973206e6f7420746865206f776e657260448201526064016103c2565b6001600160a01b038416610b425760405162461bcd60e51b815260206004820152602160248201527f455243313135353a206d696e7420746f20746865207a65726f206164647265736044820152607360f81b60648201526084016103c2565b336000610b4e856110e3565b90506000610b5b856110e3565b9050610b6c8360008985858961112e565b6000868152602081815260408083206001600160a01b038b16845290915281208054879290610b9c908490611e83565b909155505060408051878152602081018790526001600160a01b03808a1692600092918716917fc3d58168c5ae7397731d063d5bbf3d657854427343f4c083240f7aacaa2d0f62910160405180910390a46106bc836000898989896112a7565b8151835114610c5e5760405162461bcd60e51b815260206004820152602860248201527f455243313135353a2069647320616e6420616d6f756e7473206c656e677468206044820152670dad2e6dac2e8c6d60c31b60648201526084016103c2565b6001600160a01b038416610c845760405162461bcd60e51b81526004016103c290611e96565b33610c9381878787878761112e565b60005b8451811015610d79576000858281518110610cb357610cb3611ca3565b602002602001015190506000858381518110610cd157610cd1611ca3565b602090810291909101810151600084815280835260408082206001600160a01b038e168352909352919091205490915081811015610d215760405162461bcd60e51b81526004016103c290611edb565b6000838152602081815260408083206001600160a01b038e8116855292528083208585039055908b16825281208054849290610d5e908490611e83565b9250508190555050505080610d7290611d1d565b9050610c96565b50846001600160a01b0316866001600160a01b0316826001600160a01b03167f4a39dc06d4c0dbc64b70af90fd698a233a518aa5d07e595d983b8c0526c8f7fb8787604051610dc9929190611f25565b60405180910390a4610ddf818787878787611402565b505050505050565b600480546001600160a01b038381166001600160a01b0319831681179093556040519116919082907f8be0079c531659141344cd1fd0a4f28419497f9722a3daafe3b4186f6b6457e090600090a35050565b816001600160a01b0316836001600160a01b031603610eac5760405162461bcd60e51b815260206004820152602960248201527f455243313135353a2073657474696e6720617070726f76616c20737461747573604482015268103337b91039b2b63360b91b60648201526084016103c2565b6001600160a01b03838116600081815260016020908152604080832094871680845294825291829020805460ff191686151590811790915591519182527f17307eab39ab6107e8899845ad3d59bd9653f200f220920489ca2b5937696c31910160405180910390a3505050565b60606000610f26836114bd565b60010190506000816001600160401b03811115610f4557610f456117a8565b6040519080825280601f01601f191660200182016040528015610f6f576020820181803683370190505b5090508181016020015b600019016f181899199a1a9b1b9c1cb0b131b232b360811b600a86061a8153600a8504945084610f7957509392505050565b6001600160a01b038416610fd15760405162461bcd60e51b81526004016103c290611e96565b336000610fdd856110e3565b90506000610fea856110e3565b9050610ffa83898985858961112e565b6000868152602081815260408083206001600160a01b038c1684529091529020548581101561103b5760405162461bcd60e51b81526004016103c290611edb565b6000878152602081815260408083206001600160a01b038d8116855292528083208985039055908a16825281208054889290611078908490611e83565b909155505060408051888152602081018890526001600160a01b03808b16928c821692918816917fc3d58168c5ae7397731d063d5bbf3d657854427343f4c083240f7aacaa2d0f62910160405180910390a46110d8848a8a8a8a8a6112a7565b505050505050505050565b6040805160018082528183019092526060916000919060208083019080368337019050509050828160008151811061111d5761111d611ca3565b602090810291909101015292915050565b6001600160a01b0385166111b55760005b83518110156111b35782818151811061115a5761115a611ca3565b60200260200101516003600086848151811061117857611178611ca3565b60200260200101518152602001908152602001600020600082825461119d9190611e83565b909155506111ac905081611d1d565b905061113f565b505b6001600160a01b038416610ddf5760005b83518110156106bc5760008482815181106111e3576111e3611ca3565b60200260200101519050600084838151811061120157611201611ca3565b60200260200101519050600060036000848152602001908152602001600020549050818110156112845760405162461bcd60e51b815260206004820152602860248201527f455243313135353a206275726e20616d6f756e74206578636565647320746f74604482015267616c537570706c7960c01b60648201526084016103c2565b600092835260036020526040909220910390556112a081611d1d565b90506111c6565b6001600160a01b0384163b15610ddf5760405163f23a6e6160e01b81526001600160a01b0385169063f23a6e61906112eb9089908990889088908890600401611f53565b6020604051808303816000875af1925050508015611326575060408051601f3d908101601f1916820190925261132391810190611f98565b60015b6113d257611332611fb5565b806308c379a00361136b5750611346611fd1565b80611351575061136d565b8060405162461bcd60e51b81526004016103c2919061167e565b505b60405162461bcd60e51b815260206004820152603460248201527f455243313135353a207472616e7366657220746f206e6f6e2d455243313135356044820152732932b1b2b4bb32b91034b6b83632b6b2b73a32b960611b60648201526084016103c2565b6001600160e01b0319811663f23a6e6160e01b146106bc5760405162461bcd60e51b81526004016103c29061205a565b6001600160a01b0384163b15610ddf5760405163bc197c8160e01b81526001600160a01b0385169063bc197c819061144690899089908890889088906004016120a2565b6020604051808303816000875af1925050508015611481575060408051601f3d908101601f1916820190925261147e91810190611f98565b60015b61148d57611332611fb5565b6001600160e01b0319811663bc197c8160e01b146106bc5760405162461bcd60e51b81526004016103c29061205a565b60008072184f03e93ff9f4daa797ed6e38ed64bf6a1f0160401b83106114fc5772184f03e93ff9f4daa797ed6e38ed64bf6a1f0160401b830492506040015b6d04ee2d6d415b85acef81000000008310611528576d04ee2d6d415b85acef8100000000830492506020015b662386f26fc10000831061154657662386f26fc10000830492506010015b6305f5e100831061155e576305f5e100830492506008015b612710831061157257612710830492506004015b60648310611584576064830492506002015b600a83106103ee5760010192915050565b80356001600160a01b03811681146115ac57600080fd5b919050565b600080604083850312156115c457600080fd5b6115cd83611595565b946020939093013593505050565b6001600160e01b031981168114610a8557600080fd5b60006020828403121561160357600080fd5b813561160e816115db565b9392505050565b60006020828403121561162757600080fd5b5035919050565b60005b83811015611649578181015183820152602001611631565b50506000910152565b6000815180845261166a81602086016020860161162e565b601f01601f19169290920160200192915050565b60208152600061160e6020830184611652565b6000806000606084860312156116a657600080fd5b6116af84611595565b95602085013595506040909401359392505050565b60008083601f8401126116d657600080fd5b5081356001600160401b038111156116ed57600080fd5b6020830191508360208260051b850101111561170857600080fd5b9250929050565b6000806000806000806060878903121561172857600080fd5b86356001600160401b038082111561173f57600080fd5b61174b8a838b016116c4565b9098509650602089013591508082111561176457600080fd5b6117708a838b016116c4565b9096509450604089013591508082111561178957600080fd5b5061179689828a016116c4565b979a9699509497509295939492505050565b634e487b7160e01b600052604160045260246000fd5b601f8201601f191681016001600160401b03811182821017156117e3576117e36117a8565b6040525050565b60006001600160401b03821115611803576118036117a8565b5060051b60200190565b600082601f83011261181e57600080fd5b8135602061182b826117ea565b60405161183882826117be565b83815260059390931b850182019282810191508684111561185857600080fd5b8286015b84811015611873578035835291830191830161185c565b509695505050505050565b600082601f83011261188f57600080fd5b81356001600160401b038111156118a8576118a86117a8565b6040516118bf601f8301601f1916602001826117be565b8181528460208386010111156118d457600080fd5b816020850160208301376000918101602001919091529392505050565b600080600080600060a0868803121561190957600080fd5b61191286611595565b945061192060208701611595565b935060408601356001600160401b038082111561193c57600080fd5b61194889838a0161180d565b9450606088013591508082111561195e57600080fd5b61196a89838a0161180d565b9350608088013591508082111561198057600080fd5b5061198d8882890161187e565b9150509295509295909350565b600080604083850312156119ad57600080fd5b82356001600160401b03808211156119c457600080fd5b818501915085601f8301126119d857600080fd5b813560206119e5826117ea565b6040516119f282826117be565b83815260059390931b8501820192828101915089841115611a1257600080fd5b948201945b83861015611a3757611a2886611595565b82529482019490820190611a17565b96505086013592505080821115611a4d57600080fd5b50611a5a8582860161180d565b9150509250929050565b600081518084526020808501945080840160005b83811015611a9457815187529582019590820190600101611a78565b509495945050505050565b60208152600061160e6020830184611a64565b60008060208385031215611ac557600080fd5b82356001600160401b03811115611adb57600080fd5b611ae7858286016116c4565b90969095509350505050565b60008060408385031215611b0657600080fd5b611b0f83611595565b915060208301358015158114611b2457600080fd5b809150509250929050565b600080600060408486031215611b4457600080fd5b83356001600160401b0380821115611b5b57600080fd5b818601915086601f830112611b6f57600080fd5b813581811115611b7e57600080fd5b876020828501011115611b9057600080fd5b6020928301955093505084013560ff81168114611bac57600080fd5b809150509250925092565b60008060408385031215611bca57600080fd5b611bd383611595565b9150611be160208401611595565b90509250929050565b600080600080600060a08688031215611c0257600080fd5b611c0b86611595565b9450611c1960208701611595565b9350604086013592506060860135915060808601356001600160401b03811115611c4257600080fd5b61198d8882890161187e565b600060208284031215611c6057600080fd5b61160e82611595565b600181811c90821680611c7d57607f821691505b602082108103611c9d57634e487b7160e01b600052602260045260246000fd5b50919050565b634e487b7160e01b600052603260045260246000fd5b6020808252602e908201527f455243313135353a2063616c6c6572206973206e6f7420746f6b656e206f776e60408201526d195c881bdc88185c1c1c9bdd995960921b606082015260800190565b634e487b7160e01b600052601160045260246000fd5b600060018201611d2f57611d2f611d07565b5060010190565b828482376000838201600081528351611d5381836020880161162e565b0195945050505050565b601f82111561060e57600081815260208120601f850160051c81016020861015611d845750805b601f850160051c820191505b81811015610ddf57828155600101611d90565b81516001600160401b03811115611dbc57611dbc6117a8565b611dd081611dca8454611c69565b84611d5d565b602080601f831160018114611e055760008415611ded5750858301515b600019600386901b1c1916600185901b178555610ddf565b600085815260208120601f198616915b82811015611e3457888601518255948401946001909101908401611e15565b5085821015611e525787850151600019600388901b60f8161c191681555b5050505050600190811b01905550565b8284823760f89190911b6001600160f81b0319169101908152600101919050565b808201808211156103ee576103ee611d07565b60208082526025908201527f455243313135353a207472616e7366657220746f20746865207a65726f206164604082015264647265737360d81b606082015260800190565b6020808252602a908201527f455243313135353a20696e73756666696369656e742062616c616e636520666f60408201526939103a3930b739b332b960b11b606082015260800190565b604081526000611f386040830185611a64565b8281036020840152611f4a8185611a64565b95945050505050565b6001600160a01b03868116825285166020820152604081018490526060810183905260a060808201819052600090611f8d90830184611652565b979650505050505050565b600060208284031215611faa57600080fd5b815161160e816115db565b600060033d1115611fce5760046000803e5060005160e01c5b90565b600060443d1015611fdf5790565b6040516003193d81016004833e81513d6001600160401b03816024840111818411171561200e57505050505090565b82850191508151818111156120265750505050505090565b843d87010160208285010111156120405750505050505090565b61204f602082860101876117be565b509095945050505050565b60208082526028908201527f455243313135353a204552433131353552656365697665722072656a656374656040820152676420746f6b656e7360c01b606082015260800190565b6001600160a01b0386811682528516602082015260a0604082018190526000906120ce90830186611a64565b82810360608401526120e08186611a64565b905082810360808401526120f48185611652565b9897505050505050505056fea26469706673582212207cd6b150189ffbb1f397e9462fd7be38cfc899183cd875f292c77bdb83af8e0864736f6c63430008100033",
  "devdoc": {
    "kind": "dev",
    "methods": {
      "balanceOf(address,uint256)": {
        "details": "See {IERC1155-balanceOf}. Requirements: - `account` cannot be the zero address."
      },
      "balanceOfBatch(address[],uint256[])": {
        "details": "See {IERC1155-balanceOfBatch}. Requirements: - `accounts` and `ids` must have the same length."
      },
      "exists(uint256)": {
        "details": "Indicates whether any token exist with a given id, or not."
      },
      "isApprovedForAll(address,address)": {
        "details": "See {IERC1155-isApprovedForAll}."
      },
      "owner()": {
        "details": "Returns the address of the current owner."
      },
      "renounceOwnership()": {
        "details": "Leaves the contract without owner. It will not be possible to call `onlyOwner` functions anymore. Can only be called by the current owner. NOTE: Renouncing ownership will leave the contract without an owner, thereby removing any functionality that is only available to the owner."
      },
      "safeBatchTransferFrom(address,address,uint256[],uint256[],bytes)": {
        "details": "See {IERC1155-safeBatchTransferFrom}."
      },
      "safeTransferFrom(address,address,uint256,uint256,bytes)": {
        "details": "See {IERC1155-safeTransferFrom}."
      },
      "setApprovalForAll(address,bool)": {
        "details": "See {IERC1155-setApprovalForAll}."
      },
      "supportsInterface(bytes4)": {
        "details": "See {IERC165-supportsInterface}."
      },
      "totalSupply(uint256)": {
        "details": "Total amount of tokens in with a given id."
      },
      "transferOwnership(address)": {
        "details": "Transfers ownership of the contract to a new account (`newOwner`). Can only be called by the current owner."
      }
    },
    "version": 1
  },
  "userdoc": {
    "kind": "user",
    "methods": {},
    "version": 1
  },
  "storageLayout": {
    "storage": [
      {
        "astId": 5570,
        "contract": "contracts/HATHackersNFT.sol:HATHackersNFT",
        "label": "_balances",
        "offset": 0,
        "slot": "0",
        "type": "t_mapping(t_uint256,t_mapping(t_address,t_uint256))"
      },
      {
        "astId": 5576,
        "contract": "contracts/HATHackersNFT.sol:HATHackersNFT",
        "label": "_operatorApprovals",
        "offset": 0,
        "slot": "1",
        "type": "t_mapping(t_address,t_mapping(t_address,t_bool))"
      },
      {
        "astId": 5578,
        "contract": "contracts/HATHackersNFT.sol:HATHackersNFT",
        "label": "_uri",
        "offset": 0,
        "slot": "2",
        "type": "t_string_storage"
      },
      {
        "astId": 6940,
        "contract": "contracts/HATHackersNFT.sol:HATHackersNFT",
        "label": "_totalSupply",
        "offset": 0,
        "slot": "3",
        "type": "t_mapping(t_uint256,t_uint256)"
      },
      {
        "astId": 4367,
        "contract": "contracts/HATHackersNFT.sol:HATHackersNFT",
        "label": "_owner",
        "offset": 0,
        "slot": "4",
        "type": "t_address"
      },
      {
        "astId": 13205,
        "contract": "contracts/HATHackersNFT.sol:HATHackersNFT",
        "label": "uris",
        "offset": 0,
        "slot": "5",
        "type": "t_mapping(t_uint256,t_string_storage)"
      },
      {
        "astId": 13209,
        "contract": "contracts/HATHackersNFT.sol:HATHackersNFT",
        "label": "mintingStopped",
        "offset": 0,
        "slot": "6",
        "type": "t_mapping(t_uint256,t_bool)"
      }
    ],
    "types": {
      "t_address": {
        "encoding": "inplace",
        "label": "address",
        "numberOfBytes": "20"
      },
      "t_bool": {
        "encoding": "inplace",
        "label": "bool",
        "numberOfBytes": "1"
      },
      "t_mapping(t_address,t_bool)": {
        "encoding": "mapping",
        "key": "t_address",
        "label": "mapping(address => bool)",
        "numberOfBytes": "32",
        "value": "t_bool"
      },
      "t_mapping(t_address,t_mapping(t_address,t_bool))": {
        "encoding": "mapping",
        "key": "t_address",
        "label": "mapping(address => mapping(address => bool))",
        "numberOfBytes": "32",
        "value": "t_mapping(t_address,t_bool)"
      },
      "t_mapping(t_address,t_uint256)": {
        "encoding": "mapping",
        "key": "t_address",
        "label": "mapping(address => uint256)",
        "numberOfBytes": "32",
        "value": "t_uint256"
      },
      "t_mapping(t_uint256,t_bool)": {
        "encoding": "mapping",
        "key": "t_uint256",
        "label": "mapping(uint256 => bool)",
        "numberOfBytes": "32",
        "value": "t_bool"
      },
      "t_mapping(t_uint256,t_mapping(t_address,t_uint256))": {
        "encoding": "mapping",
        "key": "t_uint256",
        "label": "mapping(uint256 => mapping(address => uint256))",
        "numberOfBytes": "32",
        "value": "t_mapping(t_address,t_uint256)"
      },
      "t_mapping(t_uint256,t_string_storage)": {
        "encoding": "mapping",
        "key": "t_uint256",
        "label": "mapping(uint256 => string)",
        "numberOfBytes": "32",
        "value": "t_string_storage"
      },
      "t_mapping(t_uint256,t_uint256)": {
        "encoding": "mapping",
        "key": "t_uint256",
        "label": "mapping(uint256 => uint256)",
        "numberOfBytes": "32",
        "value": "t_uint256"
      },
      "t_string_storage": {
        "encoding": "bytes",
        "label": "string",
        "numberOfBytes": "32"
      },
      "t_uint256": {
        "encoding": "inplace",
        "label": "uint256",
        "numberOfBytes": "32"
      }
    }
  }
}