{
  "address": "0x3EA5e4b13890aF37B50c07413a5C6a4fE075E488",
  "abi": [
    {
      "inputs": [
        {
          "internalType": "uint256",
          "name": "_minDelay",
          "type": "uint256"
        },
        {
          "internalType": "address[]",
          "name": "_proposers",
          "type": "address[]"
        },
        {
          "internalType": "address[]",
          "name": "_executors",
          "type": "address[]"
        }
      ],
      "stateMutability": "nonpayable",
      "type": "constructor"
    },
    {
      "anonymous": false,
      "inputs": [
        {
          "indexed": true,
          "internalType": "bytes32",
          "name": "id",
          "type": "bytes32"
        },
        {
          "indexed": true,
          "internalType": "uint256",
          "name": "index",
          "type": "uint256"
        },
        {
          "indexed": false,
          "internalType": "address",
          "name": "target",
          "type": "address"
        },
        {
          "indexed": false,
          "internalType": "uint256",
          "name": "value",
          "type": "uint256"
        },
        {
          "indexed": false,
          "internalType": "bytes",
          "name": "data",
          "type": "bytes"
        }
      ],
      "name": "CallExecuted",
      "type": "event"
    },
    {
      "anonymous": false,
      "inputs": [
        {
          "indexed": true,
          "internalType": "bytes32",
          "name": "id",
          "type": "bytes32"
        },
        {
          "indexed": true,
          "internalType": "uint256",
          "name": "index",
          "type": "uint256"
        },
        {
          "indexed": false,
          "internalType": "address",
          "name": "target",
          "type": "address"
        },
        {
          "indexed": false,
          "internalType": "uint256",
          "name": "value",
          "type": "uint256"
        },
        {
          "indexed": false,
          "internalType": "bytes",
          "name": "data",
          "type": "bytes"
        },
        {
          "indexed": false,
          "internalType": "bytes32",
          "name": "predecessor",
          "type": "bytes32"
        },
        {
          "indexed": false,
          "internalType": "uint256",
          "name": "delay",
          "type": "uint256"
        }
      ],
      "name": "CallScheduled",
      "type": "event"
    },
    {
      "anonymous": false,
      "inputs": [
        {
          "indexed": true,
          "internalType": "bytes32",
          "name": "id",
          "type": "bytes32"
        }
      ],
      "name": "Cancelled",
      "type": "event"
    },
    {
      "anonymous": false,
      "inputs": [
        {
          "indexed": false,
          "internalType": "uint256",
          "name": "oldDuration",
          "type": "uint256"
        },
        {
          "indexed": false,
          "internalType": "uint256",
          "name": "newDuration",
          "type": "uint256"
        }
      ],
      "name": "MinDelayChange",
      "type": "event"
    },
    {
      "anonymous": false,
      "inputs": [
        {
          "indexed": true,
          "internalType": "bytes32",
          "name": "role",
          "type": "bytes32"
        },
        {
          "indexed": true,
          "internalType": "bytes32",
          "name": "previousAdminRole",
          "type": "bytes32"
        },
        {
          "indexed": true,
          "internalType": "bytes32",
          "name": "newAdminRole",
          "type": "bytes32"
        }
      ],
      "name": "RoleAdminChanged",
      "type": "event"
    },
    {
      "anonymous": false,
      "inputs": [
        {
          "indexed": true,
          "internalType": "bytes32",
          "name": "role",
          "type": "bytes32"
        },
        {
          "indexed": true,
          "internalType": "address",
          "name": "account",
          "type": "address"
        },
        {
          "indexed": true,
          "internalType": "address",
          "name": "sender",
          "type": "address"
        }
      ],
      "name": "RoleGranted",
      "type": "event"
    },
    {
      "anonymous": false,
      "inputs": [
        {
          "indexed": true,
          "internalType": "bytes32",
          "name": "role",
          "type": "bytes32"
        },
        {
          "indexed": true,
          "internalType": "address",
          "name": "account",
          "type": "address"
        },
        {
          "indexed": true,
          "internalType": "address",
          "name": "sender",
          "type": "address"
        }
      ],
      "name": "RoleRevoked",
      "type": "event"
    },
    {
      "inputs": [],
      "name": "CANCELLER_ROLE",
      "outputs": [
        {
          "internalType": "bytes32",
          "name": "",
          "type": "bytes32"
        }
      ],
      "stateMutability": "view",
      "type": "function"
    },
    {
      "inputs": [],
      "name": "DEFAULT_ADMIN_ROLE",
      "outputs": [
        {
          "internalType": "bytes32",
          "name": "",
          "type": "bytes32"
        }
      ],
      "stateMutability": "view",
      "type": "function"
    },
    {
      "inputs": [],
      "name": "EXECUTOR_ROLE",
      "outputs": [
        {
          "internalType": "bytes32",
          "name": "",
          "type": "bytes32"
        }
      ],
      "stateMutability": "view",
      "type": "function"
    },
    {
      "inputs": [],
      "name": "PROPOSER_ROLE",
      "outputs": [
        {
          "internalType": "bytes32",
          "name": "",
          "type": "bytes32"
        }
      ],
      "stateMutability": "view",
      "type": "function"
    },
    {
      "inputs": [],
      "name": "TIMELOCK_ADMIN_ROLE",
      "outputs": [
        {
          "internalType": "bytes32",
          "name": "",
          "type": "bytes32"
        }
      ],
      "stateMutability": "view",
      "type": "function"
    },
    {
      "inputs": [
        {
          "internalType": "contract HATGovernanceArbitrator",
          "name": "_arbitrator",
          "type": "address"
        },
        {
          "internalType": "contract HATVault",
          "name": "_vault",
          "type": "address"
        },
        {
          "internalType": "bytes32",
          "name": "_claimId",
          "type": "bytes32"
        }
      ],
      "name": "approveClaim",
      "outputs": [],
      "stateMutability": "nonpayable",
      "type": "function"
    },
    {
      "inputs": [
        {
          "internalType": "bytes32",
          "name": "id",
          "type": "bytes32"
        }
      ],
      "name": "cancel",
      "outputs": [],
      "stateMutability": "nonpayable",
      "type": "function"
    },
    {
      "inputs": [
        {
          "internalType": "contract HATGovernanceArbitrator",
          "name": "_arbitrator",
          "type": "address"
        },
        {
          "internalType": "contract HATVault",
          "name": "_vault",
          "type": "address"
        },
        {
          "internalType": "bytes32",
          "name": "_claimId",
          "type": "bytes32"
        }
      ],
      "name": "dismissClaim",
      "outputs": [],
      "stateMutability": "nonpayable",
      "type": "function"
    },
    {
      "inputs": [
        {
          "internalType": "address",
          "name": "target",
          "type": "address"
        },
        {
          "internalType": "uint256",
          "name": "value",
          "type": "uint256"
        },
        {
          "internalType": "bytes",
          "name": "payload",
          "type": "bytes"
        },
        {
          "internalType": "bytes32",
          "name": "predecessor",
          "type": "bytes32"
        },
        {
          "internalType": "bytes32",
          "name": "salt",
          "type": "bytes32"
        }
      ],
      "name": "execute",
      "outputs": [],
      "stateMutability": "payable",
      "type": "function"
    },
    {
      "inputs": [
        {
          "internalType": "address[]",
          "name": "targets",
          "type": "address[]"
        },
        {
          "internalType": "uint256[]",
          "name": "values",
          "type": "uint256[]"
        },
        {
          "internalType": "bytes[]",
          "name": "payloads",
          "type": "bytes[]"
        },
        {
          "internalType": "bytes32",
          "name": "predecessor",
          "type": "bytes32"
        },
        {
          "internalType": "bytes32",
          "name": "salt",
          "type": "bytes32"
        }
      ],
      "name": "executeBatch",
      "outputs": [],
      "stateMutability": "payable",
      "type": "function"
    },
    {
      "inputs": [],
      "name": "getMinDelay",
      "outputs": [
        {
          "internalType": "uint256",
          "name": "duration",
          "type": "uint256"
        }
      ],
      "stateMutability": "view",
      "type": "function"
    },
    {
      "inputs": [
        {
          "internalType": "bytes32",
          "name": "role",
          "type": "bytes32"
        }
      ],
      "name": "getRoleAdmin",
      "outputs": [
        {
          "internalType": "bytes32",
          "name": "",
          "type": "bytes32"
        }
      ],
      "stateMutability": "view",
      "type": "function"
    },
    {
      "inputs": [
        {
          "internalType": "bytes32",
          "name": "id",
          "type": "bytes32"
        }
      ],
      "name": "getTimestamp",
      "outputs": [
        {
          "internalType": "uint256",
          "name": "timestamp",
          "type": "uint256"
        }
      ],
      "stateMutability": "view",
      "type": "function"
    },
    {
      "inputs": [
        {
          "internalType": "bytes32",
          "name": "role",
          "type": "bytes32"
        },
        {
          "internalType": "address",
          "name": "account",
          "type": "address"
        }
      ],
      "name": "grantRole",
      "outputs": [],
      "stateMutability": "nonpayable",
      "type": "function"
    },
    {
      "inputs": [
        {
          "internalType": "bytes32",
          "name": "role",
          "type": "bytes32"
        },
        {
          "internalType": "address",
          "name": "account",
          "type": "address"
        }
      ],
      "name": "hasRole",
      "outputs": [
        {
          "internalType": "bool",
          "name": "",
          "type": "bool"
        }
      ],
      "stateMutability": "view",
      "type": "function"
    },
    {
      "inputs": [
        {
          "internalType": "address",
          "name": "target",
          "type": "address"
        },
        {
          "internalType": "uint256",
          "name": "value",
          "type": "uint256"
        },
        {
          "internalType": "bytes",
          "name": "data",
          "type": "bytes"
        },
        {
          "internalType": "bytes32",
          "name": "predecessor",
          "type": "bytes32"
        },
        {
          "internalType": "bytes32",
          "name": "salt",
          "type": "bytes32"
        }
      ],
      "name": "hashOperation",
      "outputs": [
        {
          "internalType": "bytes32",
          "name": "hash",
          "type": "bytes32"
        }
      ],
      "stateMutability": "pure",
      "type": "function"
    },
    {
      "inputs": [
        {
          "internalType": "address[]",
          "name": "targets",
          "type": "address[]"
        },
        {
          "internalType": "uint256[]",
          "name": "values",
          "type": "uint256[]"
        },
        {
          "internalType": "bytes[]",
          "name": "payloads",
          "type": "bytes[]"
        },
        {
          "internalType": "bytes32",
          "name": "predecessor",
          "type": "bytes32"
        },
        {
          "internalType": "bytes32",
          "name": "salt",
          "type": "bytes32"
        }
      ],
      "name": "hashOperationBatch",
      "outputs": [
        {
          "internalType": "bytes32",
          "name": "hash",
          "type": "bytes32"
        }
      ],
      "stateMutability": "pure",
      "type": "function"
    },
    {
      "inputs": [
        {
          "internalType": "bytes32",
          "name": "id",
          "type": "bytes32"
        }
      ],
      "name": "isOperation",
      "outputs": [
        {
          "internalType": "bool",
          "name": "registered",
          "type": "bool"
        }
      ],
      "stateMutability": "view",
      "type": "function"
    },
    {
      "inputs": [
        {
          "internalType": "bytes32",
          "name": "id",
          "type": "bytes32"
        }
      ],
      "name": "isOperationDone",
      "outputs": [
        {
          "internalType": "bool",
          "name": "done",
          "type": "bool"
        }
      ],
      "stateMutability": "view",
      "type": "function"
    },
    {
      "inputs": [
        {
          "internalType": "bytes32",
          "name": "id",
          "type": "bytes32"
        }
      ],
      "name": "isOperationPending",
      "outputs": [
        {
          "internalType": "bool",
          "name": "pending",
          "type": "bool"
        }
      ],
      "stateMutability": "view",
      "type": "function"
    },
    {
      "inputs": [
        {
          "internalType": "bytes32",
          "name": "id",
          "type": "bytes32"
        }
      ],
      "name": "isOperationReady",
      "outputs": [
        {
          "internalType": "bool",
          "name": "ready",
          "type": "bool"
        }
      ],
      "stateMutability": "view",
      "type": "function"
    },
    {
      "inputs": [
        {
          "internalType": "address",
          "name": "",
          "type": "address"
        },
        {
          "internalType": "address",
          "name": "",
          "type": "address"
        },
        {
          "internalType": "uint256[]",
          "name": "",
          "type": "uint256[]"
        },
        {
          "internalType": "uint256[]",
          "name": "",
          "type": "uint256[]"
        },
        {
          "internalType": "bytes",
          "name": "",
          "type": "bytes"
        }
      ],
      "name": "onERC1155BatchReceived",
      "outputs": [
        {
          "internalType": "bytes4",
          "name": "",
          "type": "bytes4"
        }
      ],
      "stateMutability": "nonpayable",
      "type": "function"
    },
    {
      "inputs": [
        {
          "internalType": "address",
          "name": "",
          "type": "address"
        },
        {
          "internalType": "address",
          "name": "",
          "type": "address"
        },
        {
          "internalType": "uint256",
          "name": "",
          "type": "uint256"
        },
        {
          "internalType": "uint256",
          "name": "",
          "type": "uint256"
        },
        {
          "internalType": "bytes",
          "name": "",
          "type": "bytes"
        }
      ],
      "name": "onERC1155Received",
      "outputs": [
        {
          "internalType": "bytes4",
          "name": "",
          "type": "bytes4"
        }
      ],
      "stateMutability": "nonpayable",
      "type": "function"
    },
    {
      "inputs": [
        {
          "internalType": "address",
          "name": "",
          "type": "address"
        },
        {
          "internalType": "address",
          "name": "",
          "type": "address"
        },
        {
          "internalType": "uint256",
          "name": "",
          "type": "uint256"
        },
        {
          "internalType": "bytes",
          "name": "",
          "type": "bytes"
        }
      ],
      "name": "onERC721Received",
      "outputs": [
        {
          "internalType": "bytes4",
          "name": "",
          "type": "bytes4"
        }
      ],
      "stateMutability": "nonpayable",
      "type": "function"
    },
    {
      "inputs": [
        {
          "internalType": "bytes32",
          "name": "role",
          "type": "bytes32"
        },
        {
          "internalType": "address",
          "name": "account",
          "type": "address"
        }
      ],
      "name": "renounceRole",
      "outputs": [],
      "stateMutability": "nonpayable",
      "type": "function"
    },
    {
      "inputs": [
        {
          "internalType": "bytes32",
          "name": "role",
          "type": "bytes32"
        },
        {
          "internalType": "address",
          "name": "account",
          "type": "address"
        }
      ],
      "name": "revokeRole",
      "outputs": [],
      "stateMutability": "nonpayable",
      "type": "function"
    },
    {
      "inputs": [
        {
          "internalType": "address",
          "name": "target",
          "type": "address"
        },
        {
          "internalType": "uint256",
          "name": "value",
          "type": "uint256"
        },
        {
          "internalType": "bytes",
          "name": "data",
          "type": "bytes"
        },
        {
          "internalType": "bytes32",
          "name": "predecessor",
          "type": "bytes32"
        },
        {
          "internalType": "bytes32",
          "name": "salt",
          "type": "bytes32"
        },
        {
          "internalType": "uint256",
          "name": "delay",
          "type": "uint256"
        }
      ],
      "name": "schedule",
      "outputs": [],
      "stateMutability": "nonpayable",
      "type": "function"
    },
    {
      "inputs": [
        {
          "internalType": "address[]",
          "name": "targets",
          "type": "address[]"
        },
        {
          "internalType": "uint256[]",
          "name": "values",
          "type": "uint256[]"
        },
        {
          "internalType": "bytes[]",
          "name": "payloads",
          "type": "bytes[]"
        },
        {
          "internalType": "bytes32",
          "name": "predecessor",
          "type": "bytes32"
        },
        {
          "internalType": "bytes32",
          "name": "salt",
          "type": "bytes32"
        },
        {
          "internalType": "uint256",
          "name": "delay",
          "type": "uint256"
        }
      ],
      "name": "scheduleBatch",
      "outputs": [],
      "stateMutability": "nonpayable",
      "type": "function"
    },
    {
      "inputs": [
        {
          "internalType": "contract HATVault",
          "name": "_vault",
          "type": "address"
        },
        {
          "internalType": "contract IRewardController",
          "name": "_rewardController",
          "type": "address"
        },
        {
          "internalType": "uint256",
          "name": "_allocPoint",
          "type": "uint256"
        }
      ],
      "name": "setAllocPoint",
      "outputs": [],
      "stateMutability": "nonpayable",
      "type": "function"
    },
    {
      "inputs": [
        {
          "internalType": "contract HATVault",
          "name": "_vault",
          "type": "address"
        },
        {
          "internalType": "address",
          "name": "_committee",
          "type": "address"
        }
      ],
      "name": "setCommittee",
      "outputs": [],
      "stateMutability": "nonpayable",
      "type": "function"
    },
    {
      "inputs": [
        {
          "internalType": "contract HATVault",
          "name": "_vault",
          "type": "address"
        },
        {
          "internalType": "bool",
          "name": "_depositPause",
          "type": "bool"
        }
      ],
      "name": "setDepositPause",
      "outputs": [],
      "stateMutability": "nonpayable",
      "type": "function"
    },
    {
      "inputs": [
        {
          "internalType": "contract HATVaultsRegistry",
          "name": "_registry",
          "type": "address"
        },
        {
          "internalType": "bool",
          "name": "_isEmergencyPaused",
          "type": "bool"
        }
      ],
      "name": "setEmergencyPaused",
      "outputs": [],
      "stateMutability": "nonpayable",
      "type": "function"
    },
    {
      "inputs": [
        {
          "internalType": "contract HATVault",
          "name": "_vault",
          "type": "address"
        },
        {
          "internalType": "string",
          "name": "_descriptionHash",
          "type": "string"
        }
      ],
      "name": "setVaultDescription",
      "outputs": [],
      "stateMutability": "nonpayable",
      "type": "function"
    },
    {
      "inputs": [
        {
          "internalType": "contract HATVault",
          "name": "_vault",
          "type": "address"
        },
        {
          "internalType": "bool",
          "name": "_visible",
          "type": "bool"
        }
      ],
      "name": "setVaultVisibility",
      "outputs": [],
      "stateMutability": "nonpayable",
      "type": "function"
    },
    {
      "inputs": [
        {
          "internalType": "bytes4",
          "name": "interfaceId",
          "type": "bytes4"
        }
      ],
      "name": "supportsInterface",
      "outputs": [
        {
          "internalType": "bool",
          "name": "",
          "type": "bool"
        }
      ],
      "stateMutability": "view",
      "type": "function"
    },
    {
      "inputs": [
        {
          "internalType": "contract HATVaultsRegistry",
          "name": "_registry",
          "type": "address"
        },
        {
          "internalType": "address",
          "name": "_asset",
          "type": "address"
        },
        {
          "internalType": "address[]",
          "name": "_beneficiaries",
          "type": "address[]"
        },
        {
          "internalType": "uint256",
          "name": "_amountOutMinimum",
          "type": "uint256"
        },
        {
          "internalType": "address",
          "name": "_routingContract",
          "type": "address"
        },
        {
          "internalType": "bytes",
          "name": "_routingPayload",
          "type": "bytes"
        }
      ],
      "name": "swapAndSend",
      "outputs": [],
      "stateMutability": "nonpayable",
      "type": "function"
    },
    {
      "inputs": [
        {
          "internalType": "uint256",
          "name": "newDelay",
          "type": "uint256"
        }
      ],
      "name": "updateDelay",
      "outputs": [],
      "stateMutability": "nonpayable",
      "type": "function"
    },
    {
      "stateMutability": "payable",
      "type": "receive"
    }
  ],
  "transactionHash": "0xebdbf29cd1143e92145473ebed8ccfe5b28a62261a18e6c916cc8e42094fb4b4",
  "args": [
    604800,
    [
      "0x640578ae752BA31d2Ad37112fc515b5238B0BdFF"
    ],
    [
      "0xfe46D9193BBCE8c590298d77b6f8dB0e619c7FF7",
      "0xe24886AC31c25B544092542aD55aa484FbBF506B",
      "0xe707ABbDA8146d2d3f3341E9B375Cb1fc78526d8",
      "0x9Fb3d86157a9e2dC2a771C297f88FA9784fa4e31",
      "0x2B6656e212f315D3C2DD477FE7EBFb3A86bb1c94",
      "0xF6aEF099e4473E08bed75E0BB1252C4cdAd96416",
      "0xd714Dd60e22BbB1cbAFD0e40dE5Cfa7bBDD3F3C8",
      "0x640578ae752BA31d2Ad37112fc515b5238B0BdFF"
    ]
  ],
  "numDeployments": 2,
  "solcInputHash": "8186de70a6a6f54b1b5e651788d825b5",
  "bytecode": "0x60806040523480156200001157600080fd5b5060405162002a6638038062002a66833981016040819052620000349162000410565b828282600062000054600080516020620029e68339815191528062000235565b6200007e60008051602062002a06833981519152600080516020620029e683398151915262000235565b620000a860008051602062002a26833981519152600080516020620029e683398151915262000235565b620000d260008051602062002a46833981519152600080516020620029e683398151915262000235565b620000ed600080516020620029e68339815191523062000280565b6001600160a01b03811615620001185762000118600080516020620029e68339815191528262000280565b60005b83518110156200019e576200016260008051602062002a068339815191528583815181106200014e576200014e62000484565b60200260200101516200028060201b60201c565b6200018b60008051602062002a468339815191528583815181106200014e576200014e62000484565b62000196816200049a565b90506200011b565b5060005b8251811015620001e857620001d560008051602062002a268339815191528483815181106200014e576200014e62000484565b620001e0816200049a565b9050620001a2565b5060028490556040805160008152602081018690527f11c24f4ead16507c69ac467fbd5e4eed5fb5c699626d2cc6d66421df253886d5910160405180910390a150505050505050620004c2565b600082815260208190526040808220600101805490849055905190918391839186917fbd79b86ffe0ab8e8776151514217cd7cacd52c909f66475c3af44e129f0b00ff9190a4505050565b6200028c828262000290565b5050565b6000828152602081815260408083206001600160a01b038516845290915290205460ff166200028c576000828152602081815260408083206001600160a01b03851684529091529020805460ff19166001179055620002ec3390565b6001600160a01b0316816001600160a01b0316837f2f8788117e7eff1d82e926ec794901d17c78024a50270940304540a733656f0d60405160405180910390a45050565b634e487b7160e01b600052604160045260246000fd5b80516001600160a01b03811681146200035e57600080fd5b919050565b600082601f8301126200037557600080fd5b815160206001600160401b038083111562000394576200039462000330565b8260051b604051601f19603f83011681018181108482111715620003bc57620003bc62000330565b604052938452858101830193838101925087851115620003db57600080fd5b83870191505b848210156200040557620003f58262000346565b83529183019190830190620003e1565b979650505050505050565b6000806000606084860312156200042657600080fd5b835160208501519093506001600160401b03808211156200044657600080fd5b620004548783880162000363565b935060408601519150808211156200046b57600080fd5b506200047a8682870162000363565b9150509250925092565b634e487b7160e01b600052603260045260246000fd5b600060018201620004bb57634e487b7160e01b600052601160045260246000fd5b5060010190565b61251480620004d26000396000f3fe60806040526004361061021e5760003560e01c80638065657f11610123578063bc197c81116100ab578063d547741f1161006f578063d547741f146106d3578063e38335e5146106f3578063f23a6e6114610706578063f27a0c9214610732578063f2e615e41461074757600080fd5b8063bc197c811461061a578063c4d252f514610646578063ca80015114610666578063cdb7613614610686578063d45c4435146106a657600080fd5b806391d14854116100f257806391d1485414610571578063a217fddf14610591578063aec1d108146105a6578063b08e51c0146105c6578063b1c5f427146105fa57600080fd5b80638065657f146104ef578063864377851461050f5780638f2a0bb01461052f5780638f61f4f51461054f57600080fd5b806324a8ae84116101a657806331d507501161017557806331d507501461044f57806336568abe1461046f5780633d2f895c1461048f578063584b153e146104af57806364d62353146104cf57600080fd5b806324a8ae84146103be578063252ca2b5146103de5780632ab0f529146103fe5780632f2ff15d1461042f57600080fd5b8063134008d3116101ed578063134008d3146102f757806313bc9f201461030a578063150b7a021461032a5780631ff550dd1461036e578063248a9ca31461038e57600080fd5b806301d5062a1461022a57806301ffc9a71461024c57806307bd0265146102815780630d3cf6fc146102c357600080fd5b3661022557005b600080fd5b34801561023657600080fd5b5061024a61024536600461189e565b610767565b005b34801561025857600080fd5b5061026c610267366004611914565b6107ea565b60405190151581526020015b60405180910390f35b34801561028d57600080fd5b506102b57fd8aa0f3194971a2a116679f7c2090f6939c8d4e01a2a8d7e41d55e5351469e6381565b604051908152602001610278565b3480156102cf57600080fd5b506102b57f5f58e3a2316349923ce3780f8d587db2d72378aed66a8261c916544fa6846ca581565b61024a61030536600461193e565b610815565b34801561031657600080fd5b5061026c6103253660046119ab565b6108ca565b34801561033657600080fd5b50610355610345366004611a81565b630a85bd0160e11b949350505050565b6040516001600160e01b03199091168152602001610278565b34801561037a57600080fd5b5061024a610389366004611b01565b6108f0565b34801561039a57600080fd5b506102b56103a93660046119ab565b60009081526020819052604090206001015490565b3480156103ca57600080fd5b5061024a6103d9366004611b36565b610969565b3480156103ea57600080fd5b5061024a6103f9366004611b01565b6109e0565b34801561040a57600080fd5b5061026c6104193660046119ab565b6000908152600160208190526040909120541490565b34801561043b57600080fd5b5061024a61044a366004611b77565b610a26565b34801561045b57600080fd5b5061026c61046a3660046119ab565b610a50565b34801561047b57600080fd5b5061024a61048a366004611b77565b610a69565b34801561049b57600080fd5b5061024a6104aa366004611b36565b610aec565b3480156104bb57600080fd5b5061026c6104ca3660046119ab565b610b38565b3480156104db57600080fd5b5061024a6104ea3660046119ab565b610b4e565b3480156104fb57600080fd5b506102b561050a36600461193e565b610bf2565b34801561051b57600080fd5b5061024a61052a366004611b36565b610c31565b34801561053b57600080fd5b5061024a61054a366004611beb565b610c7e565b34801561055b57600080fd5b506102b56000805160206124bf83398151915281565b34801561057d57600080fd5b5061026c61058c366004611b77565b610dbe565b34801561059d57600080fd5b506102b5600081565b3480156105b257600080fd5b5061024a6105c1366004611b01565b610de7565b3480156105d257600080fd5b506102b57ffd643c72710c63c0180259aba6b2d05451e3591a24e58b62239378085726f78381565b34801561060657600080fd5b506102b5610615366004611c9c565b610e99565b34801561062657600080fd5b50610355610635366004611dc3565b63bc197c8160e01b95945050505050565b34801561065257600080fd5b5061024a6106613660046119ab565b610ede565b34801561067257600080fd5b5061024a610681366004611e70565b610fb3565b34801561069257600080fd5b5061024a6106a1366004611e9e565b610ff9565b3480156106b257600080fd5b506102b56106c13660046119ab565b60009081526001602052604090205490565b3480156106df57600080fd5b5061024a6106ee366004611b77565b61103d565b61024a610701366004611c9c565b611062565b34801561071257600080fd5b50610355610721366004611f01565b63f23a6e6160e01b95945050505050565b34801561073e57600080fd5b506002546102b5565b34801561075357600080fd5b5061024a610762366004611f69565b6111ec565b6000805160206124bf83398151915261077f81611279565b600061078f898989898989610bf2565b905061079b8184611286565b6000817f4cf4410cc57040e44862ef0f45f3dd5a5e02db8eb8add648d4b0e236f1d07dca8b8b8b8b8b8a6040516107d796959493929190612044565b60405180910390a3505050505050505050565b60006001600160e01b03198216630271189760e51b148061080f575061080f82611375565b92915050565b7fd8aa0f3194971a2a116679f7c2090f6939c8d4e01a2a8d7e41d55e5351469e63610841816000610dbe565b61084f5761084f81336113aa565b600061085f888888888888610bf2565b905061086b8185611403565b6108778888888861149f565b6000817fc2617efa69bab66782fa219543714338489c4e9e178271560a91b82c3f612b588a8a8a8a6040516108af9493929190612081565b60405180910390a36108c081611572565b5050505050505050565b6000818152600160205260408120546001811180156108e95750428111155b9392505050565b6000805160206124bf83398151915261090881611279565b604051639d0ab89f60e01b815282151560048201526001600160a01b03841690639d0ab89f906024015b600060405180830381600087803b15801561094c57600080fd5b505af1158015610960573d6000803e3d6000fd5b50505050505050565b6000805160206124bf83398151915261098181611279565b6040516370b73f7960e11b81526001600160a01b0384811660048301526024820184905285169063e16e7ef2906044015b600060405180830381600087803b1580156109cc57600080fd5b505af11580156108c0573d6000803e3d6000fd5b6000805160206124bf8339815191526109f881611279565b6040516386d192e560e01b815282151560048201526001600160a01b038416906386d192e590602401610932565b600082815260208190526040902060010154610a4181611279565b610a4b83836115ab565b505050565b60008181526001602052604081205481905b1192915050565b6001600160a01b0381163314610ade5760405162461bcd60e51b815260206004820152602f60248201527f416363657373436f6e74726f6c3a2063616e206f6e6c792072656e6f756e636560448201526e103937b632b9903337b91039b2b63360891b60648201526084015b60405180910390fd5b610ae8828261162f565b5050565b6000805160206124bf833981519152610b0481611279565b60405162ac5c8360e21b81526001600160a01b038581166004830152602482018490528416906302b1720c906044016109b2565b6000818152600160208190526040822054610a62565b333014610bb15760405162461bcd60e51b815260206004820152602b60248201527f54696d656c6f636b436f6e74726f6c6c65723a2063616c6c6572206d7573742060448201526a62652074696d656c6f636b60a81b6064820152608401610ad5565b60025460408051918252602082018390527f11c24f4ead16507c69ac467fbd5e4eed5fb5c699626d2cc6d66421df253886d5910160405180910390a1600255565b6000868686868686604051602001610c0f96959493929190612044565b6040516020818303038152906040528051906020012090509695505050505050565b6000805160206124bf833981519152610c4981611279565b604051634fd5e6d760e11b81526001600160a01b03848116600483015260248201849052851690639fabcdae906044016109b2565b6000805160206124bf833981519152610c9681611279565b888714610cb55760405162461bcd60e51b8152600401610ad5906120b3565b888514610cd45760405162461bcd60e51b8152600401610ad5906120b3565b6000610ce68b8b8b8b8b8b8b8b610e99565b9050610cf28184611286565b60005b8a811015610db05780827f4cf4410cc57040e44862ef0f45f3dd5a5e02db8eb8add648d4b0e236f1d07dca8e8e85818110610d3257610d326120f6565b9050602002016020810190610d47919061210c565b8d8d86818110610d5957610d596120f6565b905060200201358c8c87818110610d7257610d726120f6565b9050602002810190610d849190612129565b8c8b604051610d9896959493929190612044565b60405180910390a3610da981612185565b9050610cf5565b505050505050505050505050565b6000918252602082815260408084206001600160a01b0393909316845291905290205460ff1690565b6000805160206124bf833981519152610dff81611279565b826001600160a01b0316637b1039996040518163ffffffff1660e01b8152600401602060405180830381865afa158015610e3d573d6000803e3d6000fd5b505050506040513d601f19601f82011682018060405250810190610e61919061219e565b6040516315d83a2160e31b81526001600160a01b0385811660048301528415156024830152919091169063aec1d10890604401610932565b60008888888888888888604051602001610eba989796959493929190612204565b60405160208183030381529060405280519060200120905098975050505050505050565b7ffd643c72710c63c0180259aba6b2d05451e3591a24e58b62239378085726f783610f0881611279565b610f1182610b38565b610f775760405162461bcd60e51b815260206004820152603160248201527f54696d656c6f636b436f6e74726f6c6c65723a206f7065726174696f6e2063616044820152701b9b9bdd0818994818d85b98d95b1b1959607a1b6064820152608401610ad5565b6000828152600160205260408082208290555183917fbaa1eb22f2a492ba1a5fea61b8df4d27c6c8b5f3971e63bb58fa14ff72eedb7091a25050565b6000805160206124bf833981519152610fcb81611279565b604051635eed720760e11b81526001600160a01b03838116600483015284169063bddae40e90602401610932565b6000805160206124bf83398151915261101181611279565b604051632905f80360e21b81526001600160a01b0384169063a417e00c90610932908590600401612320565b60008281526020819052604090206001015461105881611279565b610a4b838361162f565b7fd8aa0f3194971a2a116679f7c2090f6939c8d4e01a2a8d7e41d55e5351469e6361108e816000610dbe565b61109c5761109c81336113aa565b8786146110bb5760405162461bcd60e51b8152600401610ad5906120b3565b8784146110da5760405162461bcd60e51b8152600401610ad5906120b3565b60006110ec8a8a8a8a8a8a8a8a610e99565b90506110f88185611403565b60005b898110156111d65760008b8b83818110611117576111176120f6565b905060200201602081019061112c919061210c565b905060008a8a84818110611142576111426120f6565b9050602002013590503660008a8a86818110611160576111606120f6565b90506020028101906111729190612129565b915091506111828484848461149f565b84867fc2617efa69bab66782fa219543714338489c4e9e178271560a91b82c3f612b58868686866040516111b99493929190612081565b60405180910390a350505050806111cf90612185565b90506110fb565b506111e081611572565b50505050505050505050565b6000805160206124bf83398151915261120481611279565b60405163e2b001bf60e01b81526001600160a01b038a169063e2b001bf9061123c908b908b908b908b908b908b908b90600401612353565b600060405180830381600087803b15801561125657600080fd5b505af115801561126a573d6000803e3d6000fd5b50505050505050505050505050565b61128381336113aa565b50565b61128f82610a50565b156112f45760405162461bcd60e51b815260206004820152602f60248201527f54696d656c6f636b436f6e74726f6c6c65723a206f7065726174696f6e20616c60448201526e1c9958591e481cd8da19591d5b1959608a1b6064820152608401610ad5565b6002548110156113555760405162461bcd60e51b815260206004820152602660248201527f54696d656c6f636b436f6e74726f6c6c65723a20696e73756666696369656e746044820152652064656c617960d01b6064820152608401610ad5565b61135f81426123a6565b6000928352600160205260409092209190915550565b60006001600160e01b03198216637965db0b60e01b148061080f57506301ffc9a760e01b6001600160e01b031983161461080f565b6113b48282610dbe565b610ae8576113c181611694565b6113cc8360206116a6565b6040516020016113dd9291906123b9565b60408051601f198184030181529082905262461bcd60e51b8252610ad591600401612320565b61140c826108ca565b6114285760405162461bcd60e51b8152600401610ad59061242e565b8015806114445750600081815260016020819052604090912054145b610ae85760405162461bcd60e51b815260206004820152602660248201527f54696d656c6f636b436f6e74726f6c6c65723a206d697373696e6720646570656044820152656e64656e637960d01b6064820152608401610ad5565b6000846001600160a01b03168484846040516114bc929190612478565b60006040518083038185875af1925050503d80600081146114f9576040519150601f19603f3d011682016040523d82523d6000602084013e6114fe565b606091505b505090508061156b5760405162461bcd60e51b815260206004820152603360248201527f54696d656c6f636b436f6e74726f6c6c65723a20756e6465726c79696e6720746044820152721c985b9cd858dd1a5bdb881c995d995c9d1959606a1b6064820152608401610ad5565b5050505050565b61157b816108ca565b6115975760405162461bcd60e51b8152600401610ad59061242e565b600090815260016020819052604090912055565b6115b58282610dbe565b610ae8576000828152602081815260408083206001600160a01b03851684529091529020805460ff191660011790556115eb3390565b6001600160a01b0316816001600160a01b0316837f2f8788117e7eff1d82e926ec794901d17c78024a50270940304540a733656f0d60405160405180910390a45050565b6116398282610dbe565b15610ae8576000828152602081815260408083206001600160a01b0385168085529252808320805460ff1916905551339285917ff6391f5c32d9c69d2a47ea670b442974b53935d1edc7fd64eb21e047a839171b9190a45050565b606061080f6001600160a01b03831660145b606060006116b5836002612488565b6116c09060026123a6565b6001600160401b038111156116d7576116d76119c4565b6040519080825280601f01601f191660200182016040528015611701576020820181803683370190505b509050600360fc1b8160008151811061171c5761171c6120f6565b60200101906001600160f81b031916908160001a905350600f60fb1b8160018151811061174b5761174b6120f6565b60200101906001600160f81b031916908160001a905350600061176f846002612488565b61177a9060016123a6565b90505b60018111156117f2576f181899199a1a9b1b9c1cb0b131b232b360811b85600f16601081106117ae576117ae6120f6565b1a60f81b8282815181106117c4576117c46120f6565b60200101906001600160f81b031916908160001a90535060049490941c936117eb816124a7565b905061177d565b5083156108e95760405162461bcd60e51b815260206004820181905260248201527f537472696e67733a20686578206c656e67746820696e73756666696369656e746044820152606401610ad5565b6001600160a01b038116811461128357600080fd5b60008083601f84011261186857600080fd5b5081356001600160401b0381111561187f57600080fd5b60208301915083602082850101111561189757600080fd5b9250929050565b600080600080600080600060c0888a0312156118b957600080fd5b87356118c481611841565b96506020880135955060408801356001600160401b038111156118e657600080fd5b6118f28a828b01611856565b989b979a50986060810135976080820135975060a09091013595509350505050565b60006020828403121561192657600080fd5b81356001600160e01b0319811681146108e957600080fd5b60008060008060008060a0878903121561195757600080fd5b863561196281611841565b95506020870135945060408701356001600160401b0381111561198457600080fd5b61199089828a01611856565b979a9699509760608101359660809091013595509350505050565b6000602082840312156119bd57600080fd5b5035919050565b634e487b7160e01b600052604160045260246000fd5b604051601f8201601f191681016001600160401b0381118282101715611a0257611a026119c4565b604052919050565b60006001600160401b03831115611a2357611a236119c4565b611a36601f8401601f19166020016119da565b9050828152838383011115611a4a57600080fd5b828260208301376000602084830101529392505050565b600082601f830112611a7257600080fd5b6108e983833560208501611a0a565b60008060008060808587031215611a9757600080fd5b8435611aa281611841565b93506020850135611ab281611841565b92506040850135915060608501356001600160401b03811115611ad457600080fd5b611ae087828801611a61565b91505092959194509250565b80358015158114611afc57600080fd5b919050565b60008060408385031215611b1457600080fd5b8235611b1f81611841565b9150611b2d60208401611aec565b90509250929050565b600080600060608486031215611b4b57600080fd5b8335611b5681611841565b92506020840135611b6681611841565b929592945050506040919091013590565b60008060408385031215611b8a57600080fd5b823591506020830135611b9c81611841565b809150509250929050565b60008083601f840112611bb957600080fd5b5081356001600160401b03811115611bd057600080fd5b6020830191508360208260051b850101111561189757600080fd5b600080600080600080600080600060c08a8c031215611c0957600080fd5b89356001600160401b0380821115611c2057600080fd5b611c2c8d838e01611ba7565b909b50995060208c0135915080821115611c4557600080fd5b611c518d838e01611ba7565b909950975060408c0135915080821115611c6a57600080fd5b50611c778c828d01611ba7565b9a9d999c50979a969997986060880135976080810135975060a0013595509350505050565b60008060008060008060008060a0898b031215611cb857600080fd5b88356001600160401b0380821115611ccf57600080fd5b611cdb8c838d01611ba7565b909a50985060208b0135915080821115611cf457600080fd5b611d008c838d01611ba7565b909850965060408b0135915080821115611d1957600080fd5b50611d268b828c01611ba7565b999c989b509699959896976060870135966080013595509350505050565b600082601f830112611d5557600080fd5b813560206001600160401b03821115611d7057611d706119c4565b8160051b611d7f8282016119da565b9283528481018201928281019087851115611d9957600080fd5b83870192505b84831015611db857823582529183019190830190611d9f565b979650505050505050565b600080600080600060a08688031215611ddb57600080fd5b8535611de681611841565b94506020860135611df681611841565b935060408601356001600160401b0380821115611e1257600080fd5b611e1e89838a01611d44565b94506060880135915080821115611e3457600080fd5b611e4089838a01611d44565b93506080880135915080821115611e5657600080fd5b50611e6388828901611a61565b9150509295509295909350565b60008060408385031215611e8357600080fd5b8235611e8e81611841565b91506020830135611b9c81611841565b60008060408385031215611eb157600080fd5b8235611ebc81611841565b915060208301356001600160401b03811115611ed757600080fd5b8301601f81018513611ee857600080fd5b611ef785823560208401611a0a565b9150509250929050565b600080600080600060a08688031215611f1957600080fd5b8535611f2481611841565b94506020860135611f3481611841565b9350604086013592506060860135915060808601356001600160401b03811115611f5d57600080fd5b611e6388828901611a61565b60008060008060008060008060c0898b031215611f8557600080fd5b8835611f9081611841565b97506020890135611fa081611841565b965060408901356001600160401b0380821115611fbc57600080fd5b611fc88c838d01611ba7565b909850965060608b0135955060808b01359150611fe482611841565b90935060a08a01359080821115611ffa57600080fd5b506120078b828c01611856565b999c989b5096995094979396929594505050565b81835281816020850137506000828201602090810191909152601f909101601f19169091010190565b60018060a01b038716815285602082015260a06040820152600061206c60a08301868861201b565b60608301949094525060800152949350505050565b60018060a01b03851681528360208201526060604082015260006120a960608301848661201b565b9695505050505050565b60208082526023908201527f54696d656c6f636b436f6e74726f6c6c65723a206c656e677468206d69736d616040820152620e8c6d60eb1b606082015260800190565b634e487b7160e01b600052603260045260246000fd5b60006020828403121561211e57600080fd5b81356108e981611841565b6000808335601e1984360301811261214057600080fd5b8301803591506001600160401b0382111561215a57600080fd5b60200191503681900382131561189757600080fd5b634e487b7160e01b600052601160045260246000fd5b6000600182016121975761219761216f565b5060010190565b6000602082840312156121b057600080fd5b81516108e981611841565b8183526000602080850194508260005b858110156121f95781356121de81611841565b6001600160a01b0316875295820195908201906001016121cb565b509495945050505050565b60a08152600061221860a083018a8c6121bb565b8281036020848101919091528882526001600160fb1b0389111561223b57600080fd5b8860051b808b83850137808301925050808201818584030160408601528088825260408401905060408960051b85010191508960005b8a8110156122e057858403603f190183528135368d9003601e1901811261229757600080fd5b8c0185810190356001600160401b038111156122b257600080fd5b8036038213156122c157600080fd5b6122cc86828461201b565b955050509184019190840190600101612271565b5050506060850196909652505050608001529695505050505050565b60005b838110156123175781810151838201526020016122ff565b50506000910152565b602081526000825180602084015261233f8160408501602087016122fc565b601f01601f19169190910160400192915050565b600060018060a01b03808a16835260a0602084015261237660a08401898b6121bb565b8760408501528187166060850152838103608085015261239781868861201b565b9b9a5050505050505050505050565b8082018082111561080f5761080f61216f565b7f416363657373436f6e74726f6c3a206163636f756e74200000000000000000008152600083516123f18160178501602088016122fc565b7001034b99036b4b9b9b4b733903937b6329607d1b60179184019182015283516124228160288401602088016122fc565b01602801949350505050565b6020808252602a908201527f54696d656c6f636b436f6e74726f6c6c65723a206f7065726174696f6e206973604082015269206e6f7420726561647960b01b606082015260800190565b8183823760009101908152919050565b60008160001904831182151516156124a2576124a261216f565b500290565b6000816124b6576124b661216f565b50600019019056feb09aa5aeb3702cfd50b6b62bc4532604938f21248a27a1d5ca736082b6819cc1a26469706673582212205397d1286a924b95d6826f81745b4ec4ae7ef4a310fa50edc7588c0e4472b8bb64736f6c634300081000335f58e3a2316349923ce3780f8d587db2d72378aed66a8261c916544fa6846ca5b09aa5aeb3702cfd50b6b62bc4532604938f21248a27a1d5ca736082b6819cc1d8aa0f3194971a2a116679f7c2090f6939c8d4e01a2a8d7e41d55e5351469e63fd643c72710c63c0180259aba6b2d05451e3591a24e58b62239378085726f783",
  "devdoc": {
    "kind": "dev",
    "methods": {
      "cancel(bytes32)": {
        "details": "Cancel an operation. Requirements: - the caller must have the 'canceller' role."
      },
      "execute(address,uint256,bytes,bytes32,bytes32)": {
        "details": "Execute an (ready) operation containing a single transaction. Emits a {CallExecuted} event. Requirements: - the caller must have the 'executor' role."
      },
      "executeBatch(address[],uint256[],bytes[],bytes32,bytes32)": {
        "details": "Execute an (ready) operation containing a batch of transactions. Emits one {CallExecuted} event per transaction in the batch. Requirements: - the caller must have the 'executor' role."
      },
      "getMinDelay()": {
        "details": "Returns the minimum delay for an operation to become valid. This value can be changed by executing an operation that calls `updateDelay`."
      },
      "getRoleAdmin(bytes32)": {
        "details": "Returns the admin role that controls `role`. See {grantRole} and {revokeRole}. To change a role's admin, use {_setRoleAdmin}."
      },
      "getTimestamp(bytes32)": {
        "details": "Returns the timestamp at with an operation becomes ready (0 for unset operations, 1 for done operations)."
      },
      "grantRole(bytes32,address)": {
        "details": "Grants `role` to `account`. If `account` had not been already granted `role`, emits a {RoleGranted} event. Requirements: - the caller must have ``role``'s admin role. May emit a {RoleGranted} event."
      },
      "hasRole(bytes32,address)": {
        "details": "Returns `true` if `account` has been granted `role`."
      },
      "hashOperation(address,uint256,bytes,bytes32,bytes32)": {
        "details": "Returns the identifier of an operation containing a single transaction."
      },
      "hashOperationBatch(address[],uint256[],bytes[],bytes32,bytes32)": {
        "details": "Returns the identifier of an operation containing a batch of transactions."
      },
      "isOperation(bytes32)": {
        "details": "Returns whether an id correspond to a registered operation. This includes both Pending, Ready and Done operations."
      },
      "isOperationDone(bytes32)": {
        "details": "Returns whether an operation is done or not."
      },
      "isOperationPending(bytes32)": {
        "details": "Returns whether an operation is pending or not."
      },
      "isOperationReady(bytes32)": {
        "details": "Returns whether an operation is ready or not."
      },
      "onERC1155BatchReceived(address,address,uint256[],uint256[],bytes)": {
        "details": "See {IERC1155Receiver-onERC1155BatchReceived}."
      },
      "onERC1155Received(address,address,uint256,uint256,bytes)": {
        "details": "See {IERC1155Receiver-onERC1155Received}."
      },
      "onERC721Received(address,address,uint256,bytes)": {
        "details": "See {IERC721Receiver-onERC721Received}."
      },
      "renounceRole(bytes32,address)": {
        "details": "Revokes `role` from the calling account. Roles are often managed via {grantRole} and {revokeRole}: this function's purpose is to provide a mechanism for accounts to lose their privileges if they are compromised (such as when a trusted device is misplaced). If the calling account had been revoked `role`, emits a {RoleRevoked} event. Requirements: - the caller must be `account`. May emit a {RoleRevoked} event."
      },
      "revokeRole(bytes32,address)": {
        "details": "Revokes `role` from `account`. If `account` had been granted `role`, emits a {RoleRevoked} event. Requirements: - the caller must have ``role``'s admin role. May emit a {RoleRevoked} event."
      },
      "schedule(address,uint256,bytes,bytes32,bytes32,uint256)": {
        "details": "Schedule an operation containing a single transaction. Emits a {CallScheduled} event. Requirements: - the caller must have the 'proposer' role."
      },
      "scheduleBatch(address[],uint256[],bytes[],bytes32,bytes32,uint256)": {
        "details": "Schedule an operation containing a batch of transactions. Emits one {CallScheduled} event per transaction in the batch. Requirements: - the caller must have the 'proposer' role."
      },
      "supportsInterface(bytes4)": {
        "details": "See {IERC165-supportsInterface}."
      },
      "updateDelay(uint256)": {
        "details": "Changes the minimum timelock duration for future operations. Emits a {MinDelayChange} event. Requirements: - the caller must be the timelock itself. This can only be achieved by scheduling and later executing an operation where the timelock is the target and the data is the ABI-encoded call to this function."
      }
    },
    "version": 1
  },
  "userdoc": {
    "kind": "user",
    "methods": {},
    "version": 1
  },
  "storageLayout": {
    "storage": [
      {
        "astId": 3495,
        "contract": "contracts/HATTimelockController.sol:HATTimelockController",
        "label": "_roles",
        "offset": 0,
        "slot": "0",
        "type": "t_mapping(t_bytes32,t_struct(RoleData)3490_storage)"
      },
      {
        "astId": 4015,
        "contract": "contracts/HATTimelockController.sol:HATTimelockController",
        "label": "_timestamps",
        "offset": 0,
        "slot": "1",
        "type": "t_mapping(t_bytes32,t_uint256)"
      },
      {
        "astId": 4017,
        "contract": "contracts/HATTimelockController.sol:HATTimelockController",
        "label": "_minDelay",
        "offset": 0,
        "slot": "2",
        "type": "t_uint256"
      }
    ],
    "types": {
      "t_address": {
        "encoding": "inplace",
        "label": "address",
        "numberOfBytes": "20"
      },
      "t_bool": {
        "encoding": "inplace",
        "label": "bool",
        "numberOfBytes": "1"
      },
      "t_bytes32": {
        "encoding": "inplace",
        "label": "bytes32",
        "numberOfBytes": "32"
      },
      "t_mapping(t_address,t_bool)": {
        "encoding": "mapping",
        "key": "t_address",
        "label": "mapping(address => bool)",
        "numberOfBytes": "32",
        "value": "t_bool"
      },
      "t_mapping(t_bytes32,t_struct(RoleData)3490_storage)": {
        "encoding": "mapping",
        "key": "t_bytes32",
        "label": "mapping(bytes32 => struct AccessControl.RoleData)",
        "numberOfBytes": "32",
        "value": "t_struct(RoleData)3490_storage"
      },
      "t_mapping(t_bytes32,t_uint256)": {
        "encoding": "mapping",
        "key": "t_bytes32",
        "label": "mapping(bytes32 => uint256)",
        "numberOfBytes": "32",
        "value": "t_uint256"
      },
      "t_struct(RoleData)3490_storage": {
        "encoding": "inplace",
        "label": "struct AccessControl.RoleData",
        "members": [
          {
            "astId": 3487,
            "contract": "contracts/HATTimelockController.sol:HATTimelockController",
            "label": "members",
            "offset": 0,
            "slot": "0",
            "type": "t_mapping(t_address,t_bool)"
          },
          {
            "astId": 3489,
            "contract": "contracts/HATTimelockController.sol:HATTimelockController",
            "label": "adminRole",
            "offset": 0,
            "slot": "1",
            "type": "t_bytes32"
          }
        ],
        "numberOfBytes": "64"
      },
      "t_uint256": {
        "encoding": "inplace",
        "label": "uint256",
        "numberOfBytes": "32"
      }
    }
  }
}