{
  "address": "0x8C95B3077A9FE4df7669929478B1Da6BC7378147",
  "abi": [
    {
      "inputs": [
        {
          "internalType": "address",
          "name": "_hatVaultImplementation",
          "type": "address"
        },
        {
          "internalType": "address",
          "name": "_hatGovernance",
          "type": "address"
        },
        {
          "internalType": "address",
          "name": "_defaultArbitrator",
          "type": "address"
        },
        {
          "internalType": "address",
          "name": "_HAT",
          "type": "address"
        },
        {
          "internalType": "uint16",
          "name": "_bountyGovernanceHAT",
          "type": "uint16"
        },
        {
          "internalType": "uint16",
          "name": "_bountyHackerHATVested",
          "type": "uint16"
        },
        {
          "internalType": "contract ITokenLockFactory",
          "name": "_tokenLockFactory",
          "type": "address"
        }
      ],
      "stateMutability": "nonpayable",
      "type": "constructor"
    },
    {
      "inputs": [],
      "name": "AmountSwappedLessThanMinimum",
      "type": "error"
    },
    {
      "inputs": [],
      "name": "AmountToSwapIsZero",
      "type": "error"
    },
    {
      "inputs": [],
      "name": "ChallengePeriodTooLong",
      "type": "error"
    },
    {
      "inputs": [],
      "name": "ChallengePeriodTooShort",
      "type": "error"
    },
    {
      "inputs": [],
      "name": "ChallengeTimeOutPeriodTooLong",
      "type": "error"
    },
    {
      "inputs": [],
      "name": "ChallengeTimeOutPeriodTooShort",
      "type": "error"
    },
    {
      "inputs": [],
      "name": "ClaimFeeTransferFailed",
      "type": "error"
    },
    {
      "inputs": [],
      "name": "DelayTooShort",
      "type": "error"
    },
    {
      "inputs": [],
      "name": "HatVestingDurationSmallerThanPeriods",
      "type": "error"
    },
    {
      "inputs": [],
      "name": "HatVestingDurationTooLong",
      "type": "error"
    },
    {
      "inputs": [],
      "name": "HatVestingPeriodsCannotBeZero",
      "type": "error"
    },
    {
      "inputs": [],
      "name": "NotEnoughFeePaid",
      "type": "error"
    },
    {
      "inputs": [],
      "name": "SafetyPeriodTooLong",
      "type": "error"
    },
    {
      "inputs": [],
      "name": "SwapFailed",
      "type": "error"
    },
    {
      "inputs": [],
      "name": "TotalHatsSplitPercentageShouldBeUpToMaxHATSplit",
      "type": "error"
    },
    {
      "inputs": [],
      "name": "WithdrawPeriodTooShort",
      "type": "error"
    },
    {
      "inputs": [],
      "name": "WithdrawRequestEnabledPeriodTooLong",
      "type": "error"
    },
    {
      "inputs": [],
      "name": "WithdrawRequestEnabledPeriodTooShort",
      "type": "error"
    },
    {
      "inputs": [],
      "name": "WithdrawRequestPendingPeriodTooLong",
      "type": "error"
    },
    {
      "anonymous": false,
      "inputs": [
        {
          "indexed": true,
          "internalType": "address",
          "name": "_claimer",
          "type": "address"
        },
        {
          "indexed": false,
          "internalType": "string",
          "name": "_descriptionHash",
          "type": "string"
        }
      ],
      "name": "LogClaim",
      "type": "event"
    },
    {
      "anonymous": false,
      "inputs": [
        {
          "indexed": true,
          "internalType": "address",
          "name": "previousOwner",
          "type": "address"
        },
        {
          "indexed": true,
          "internalType": "address",
          "name": "newOwner",
          "type": "address"
        }
      ],
      "name": "OwnershipTransferred",
      "type": "event"
    },
    {
      "anonymous": false,
      "inputs": [
        {
          "indexed": false,
          "internalType": "address",
          "name": "_hatVaultImplementation",
          "type": "address"
        },
        {
          "indexed": false,
          "internalType": "address",
          "name": "_HAT",
          "type": "address"
        },
        {
          "indexed": false,
          "internalType": "address",
          "name": "_tokenLockFactory",
          "type": "address"
        },
        {
          "components": [
            {
              "internalType": "uint32",
              "name": "hatVestingDuration",
              "type": "uint32"
            },
            {
              "internalType": "uint32",
              "name": "hatVestingPeriods",
              "type": "uint32"
            },
            {
              "internalType": "uint32",
              "name": "withdrawPeriod",
              "type": "uint32"
            },
            {
              "internalType": "uint32",
              "name": "safetyPeriod",
              "type": "uint32"
            },
            {
              "internalType": "uint32",
              "name": "withdrawRequestEnablePeriod",
              "type": "uint32"
            },
            {
              "internalType": "uint32",
              "name": "withdrawRequestPendingPeriod",
              "type": "uint32"
            },
            {
              "internalType": "uint32",
              "name": "setMaxBountyDelay",
              "type": "uint32"
            },
            {
              "internalType": "uint256",
              "name": "claimFee",
              "type": "uint256"
            }
          ],
          "indexed": false,
          "internalType": "struct IHATVaultsRegistry.GeneralParameters",
          "name": "_generalParameters",
          "type": "tuple"
        },
        {
          "indexed": false,
          "internalType": "uint256",
          "name": "_bountyGovernanceHAT",
          "type": "uint256"
        },
        {
          "indexed": false,
          "internalType": "uint256",
          "name": "_bountyHackerHATVested",
          "type": "uint256"
        },
        {
          "indexed": false,
          "internalType": "address",
          "name": "_hatGovernance",
          "type": "address"
        },
        {
          "indexed": false,
          "internalType": "address",
          "name": "_defaultArbitrator",
          "type": "address"
        },
        {
          "indexed": false,
          "internalType": "uint256",
          "name": "_defaultChallengePeriod",
          "type": "uint256"
        },
        {
          "indexed": false,
          "internalType": "uint256",
          "name": "_defaultChallengeTimeOutPeriod",
          "type": "uint256"
        },
        {
          "indexed": false,
          "internalType": "bool",
          "name": "_defaultArbitratorCanChangeBounty",
          "type": "bool"
        }
      ],
      "name": "RegistryCreated",
      "type": "event"
    },
    {
      "anonymous": false,
      "inputs": [
        {
          "indexed": false,
          "internalType": "uint256",
          "name": "_fee",
          "type": "uint256"
        }
      ],
      "name": "SetClaimFee",
      "type": "event"
    },
    {
      "anonymous": false,
      "inputs": [
        {
          "indexed": true,
          "internalType": "address",
          "name": "_defaultArbitrator",
          "type": "address"
        }
      ],
      "name": "SetDefaultArbitrator",
      "type": "event"
    },
    {
      "anonymous": false,
      "inputs": [
        {
          "indexed": false,
          "internalType": "bool",
          "name": "_defaultArbitratorCanChangeBounty",
          "type": "bool"
        }
      ],
      "name": "SetDefaultArbitratorCanChangeBounty",
      "type": "event"
    },
    {
      "anonymous": false,
      "inputs": [
        {
          "indexed": false,
          "internalType": "uint256",
          "name": "_defaultChallengePeriod",
          "type": "uint256"
        }
      ],
      "name": "SetDefaultChallengePeriod",
      "type": "event"
    },
    {
      "anonymous": false,
      "inputs": [
        {
          "indexed": false,
          "internalType": "uint256",
          "name": "_defaultChallengeTimeOutPeriod",
          "type": "uint256"
        }
      ],
      "name": "SetDefaultChallengeTimeOutPeriod",
      "type": "event"
    },
    {
      "anonymous": false,
      "inputs": [
        {
          "indexed": false,
          "internalType": "uint256",
          "name": "_defaultBountyGovernanceHAT",
          "type": "uint256"
        },
        {
          "indexed": false,
          "internalType": "uint256",
          "name": "_defaultBountyHackerHATVested",
          "type": "uint256"
        }
      ],
      "name": "SetDefaultHATBountySplit",
      "type": "event"
    },
    {
      "anonymous": false,
      "inputs": [
        {
          "indexed": false,
          "internalType": "bool",
          "name": "_isEmergencyPaused",
          "type": "bool"
        }
      ],
      "name": "SetEmergencyPaused",
      "type": "event"
    },
    {
      "anonymous": false,
      "inputs": [
        {
          "indexed": true,
          "internalType": "address",
          "name": "_feeSetter",
          "type": "address"
        }
      ],
      "name": "SetFeeSetter",
      "type": "event"
    },
    {
      "anonymous": false,
      "inputs": [
        {
          "indexed": false,
          "internalType": "uint256",
          "name": "_duration",
          "type": "uint256"
        },
        {
          "indexed": false,
          "internalType": "uint256",
          "name": "_periods",
          "type": "uint256"
        }
      ],
      "name": "SetHatVestingParams",
      "type": "event"
    },
    {
      "anonymous": false,
      "inputs": [
        {
          "indexed": false,
          "internalType": "uint256",
          "name": "_delay",
          "type": "uint256"
        }
      ],
      "name": "SetMaxBountyDelay",
      "type": "event"
    },
    {
      "anonymous": false,
      "inputs": [
        {
          "indexed": true,
          "internalType": "address",
          "name": "_swapToken",
          "type": "address"
        }
      ],
      "name": "SetSwapToken",
      "type": "event"
    },
    {
      "anonymous": false,
      "inputs": [
        {
          "indexed": true,
          "internalType": "address",
          "name": "_vault",
          "type": "address"
        },
        {
          "indexed": true,
          "internalType": "bool",
          "name": "_visible",
          "type": "bool"
        }
      ],
      "name": "SetVaultVisibility",
      "type": "event"
    },
    {
      "anonymous": false,
      "inputs": [
        {
          "indexed": false,
          "internalType": "uint256",
          "name": "_withdrawRequestPendingPeriod",
          "type": "uint256"
        },
        {
          "indexed": false,
          "internalType": "uint256",
          "name": "_withdrawRequestEnablePeriod",
          "type": "uint256"
        }
      ],
      "name": "SetWithdrawRequestParams",
      "type": "event"
    },
    {
      "anonymous": false,
      "inputs": [
        {
          "indexed": false,
          "internalType": "uint256",
          "name": "_withdrawPeriod",
          "type": "uint256"
        },
        {
          "indexed": false,
          "internalType": "uint256",
          "name": "_safetyPeriod",
          "type": "uint256"
        }
      ],
      "name": "SetWithdrawSafetyPeriod",
      "type": "event"
    },
    {
      "anonymous": false,
      "inputs": [
        {
          "indexed": true,
          "internalType": "address",
          "name": "_beneficiary",
          "type": "address"
        },
        {
          "indexed": false,
          "internalType": "uint256",
          "name": "_amountSwapped",
          "type": "uint256"
        },
        {
          "indexed": false,
          "internalType": "uint256",
          "name": "_amountSent",
          "type": "uint256"
        },
        {
          "indexed": true,
          "internalType": "address",
          "name": "_tokenLock",
          "type": "address"
        }
      ],
      "name": "SwapAndSend",
      "type": "event"
    },
    {
      "anonymous": false,
      "inputs": [
        {
          "indexed": true,
          "internalType": "address",
          "name": "_vault",
          "type": "address"
        },
        {
          "components": [
            {
              "internalType": "string",
              "name": "name",
              "type": "string"
            },
            {
              "internalType": "string",
              "name": "symbol",
              "type": "string"
            },
            {
              "internalType": "contract IRewardController[]",
              "name": "rewardControllers",
              "type": "address[]"
            },
            {
              "internalType": "uint32",
              "name": "vestingDuration",
              "type": "uint32"
            },
            {
              "internalType": "uint32",
              "name": "vestingPeriods",
              "type": "uint32"
            },
            {
              "internalType": "uint16",
              "name": "maxBounty",
              "type": "uint16"
            },
            {
              "components": [
                {
                  "internalType": "uint16",
                  "name": "hackerVested",
                  "type": "uint16"
                },
                {
                  "internalType": "uint16",
                  "name": "hacker",
                  "type": "uint16"
                },
                {
                  "internalType": "uint16",
                  "name": "committee",
                  "type": "uint16"
                }
              ],
              "internalType": "struct IHATVault.BountySplit",
              "name": "bountySplit",
              "type": "tuple"
            },
            {
              "internalType": "contract IERC20",
              "name": "asset",
              "type": "address"
            },
            {
              "internalType": "address",
              "name": "owner",
              "type": "address"
            },
            {
              "internalType": "address",
              "name": "committee",
              "type": "address"
            },
            {
              "internalType": "bool",
              "name": "isPaused",
              "type": "bool"
            },
            {
              "internalType": "string",
              "name": "descriptionHash",
              "type": "string"
            }
          ],
          "indexed": false,
          "internalType": "struct IHATVault.VaultInitParams",
          "name": "_params",
          "type": "tuple"
        }
      ],
      "name": "VaultCreated",
      "type": "event"
    },
    {
      "inputs": [],
      "name": "HAT",
      "outputs": [
        {
          "internalType": "contract IERC20",
          "name": "",
          "type": "address"
        }
      ],
      "stateMutability": "view",
      "type": "function"
    },
    {
      "inputs": [],
      "name": "HUNDRED_PERCENT",
      "outputs": [
        {
          "internalType": "uint16",
          "name": "",
          "type": "uint16"
        }
      ],
      "stateMutability": "view",
      "type": "function"
    },
    {
      "inputs": [],
      "name": "MAX_HAT_SPLIT",
      "outputs": [
        {
          "internalType": "uint16",
          "name": "",
          "type": "uint16"
        }
      ],
      "stateMutability": "view",
      "type": "function"
    },
    {
      "inputs": [
        {
          "internalType": "contract IERC20",
          "name": "_asset",
          "type": "address"
        },
        {
          "internalType": "address",
          "name": "_hacker",
          "type": "address"
        },
        {
          "internalType": "uint256",
          "name": "_hackersHatReward",
          "type": "uint256"
        },
        {
          "internalType": "uint256",
          "name": "_governanceHatReward",
          "type": "uint256"
        }
      ],
      "name": "addTokensToSwap",
      "outputs": [],
      "stateMutability": "nonpayable",
      "type": "function"
    },
    {
      "inputs": [
        {
          "components": [
            {
              "internalType": "string",
              "name": "name",
              "type": "string"
            },
            {
              "internalType": "string",
              "name": "symbol",
              "type": "string"
            },
            {
              "internalType": "contract IRewardController[]",
              "name": "rewardControllers",
              "type": "address[]"
            },
            {
              "internalType": "uint32",
              "name": "vestingDuration",
              "type": "uint32"
            },
            {
              "internalType": "uint32",
              "name": "vestingPeriods",
              "type": "uint32"
            },
            {
              "internalType": "uint16",
              "name": "maxBounty",
              "type": "uint16"
            },
            {
              "components": [
                {
                  "internalType": "uint16",
                  "name": "hackerVested",
                  "type": "uint16"
                },
                {
                  "internalType": "uint16",
                  "name": "hacker",
                  "type": "uint16"
                },
                {
                  "internalType": "uint16",
                  "name": "committee",
                  "type": "uint16"
                }
              ],
              "internalType": "struct IHATVault.BountySplit",
              "name": "bountySplit",
              "type": "tuple"
            },
            {
              "internalType": "contract IERC20",
              "name": "asset",
              "type": "address"
            },
            {
              "internalType": "address",
              "name": "owner",
              "type": "address"
            },
            {
              "internalType": "address",
              "name": "committee",
              "type": "address"
            },
            {
              "internalType": "bool",
              "name": "isPaused",
              "type": "bool"
            },
            {
              "internalType": "string",
              "name": "descriptionHash",
              "type": "string"
            }
          ],
          "internalType": "struct IHATVault.VaultInitParams",
          "name": "_params",
          "type": "tuple"
        }
      ],
      "name": "createVault",
      "outputs": [
        {
          "internalType": "address",
          "name": "vault",
          "type": "address"
        }
      ],
      "stateMutability": "nonpayable",
      "type": "function"
    },
    {
      "inputs": [],
      "name": "defaultArbitrator",
      "outputs": [
        {
          "internalType": "address",
          "name": "",
          "type": "address"
        }
      ],
      "stateMutability": "view",
      "type": "function"
    },
    {
      "inputs": [],
      "name": "defaultArbitratorCanChangeBounty",
      "outputs": [
        {
          "internalType": "bool",
          "name": "",
          "type": "bool"
        }
      ],
      "stateMutability": "view",
      "type": "function"
    },
    {
      "inputs": [],
      "name": "defaultBountyGovernanceHAT",
      "outputs": [
        {
          "internalType": "uint16",
          "name": "",
          "type": "uint16"
        }
      ],
      "stateMutability": "view",
      "type": "function"
    },
    {
      "inputs": [],
      "name": "defaultBountyHackerHATVested",
      "outputs": [
        {
          "internalType": "uint16",
          "name": "",
          "type": "uint16"
        }
      ],
      "stateMutability": "view",
      "type": "function"
    },
    {
      "inputs": [],
      "name": "defaultChallengePeriod",
      "outputs": [
        {
          "internalType": "uint32",
          "name": "",
          "type": "uint32"
        }
      ],
      "stateMutability": "view",
      "type": "function"
    },
    {
      "inputs": [],
      "name": "defaultChallengeTimeOutPeriod",
      "outputs": [
        {
          "internalType": "uint32",
          "name": "",
          "type": "uint32"
        }
      ],
      "stateMutability": "view",
      "type": "function"
    },
    {
      "inputs": [],
      "name": "feeSetter",
      "outputs": [
        {
          "internalType": "address",
          "name": "",
          "type": "address"
        }
      ],
      "stateMutability": "view",
      "type": "function"
    },
    {
      "inputs": [],
      "name": "generalParameters",
      "outputs": [
        {
          "internalType": "uint32",
          "name": "hatVestingDuration",
          "type": "uint32"
        },
        {
          "internalType": "uint32",
          "name": "hatVestingPeriods",
          "type": "uint32"
        },
        {
          "internalType": "uint32",
          "name": "withdrawPeriod",
          "type": "uint32"
        },
        {
          "internalType": "uint32",
          "name": "safetyPeriod",
          "type": "uint32"
        },
        {
          "internalType": "uint32",
          "name": "withdrawRequestEnablePeriod",
          "type": "uint32"
        },
        {
          "internalType": "uint32",
          "name": "withdrawRequestPendingPeriod",
          "type": "uint32"
        },
        {
          "internalType": "uint32",
          "name": "setMaxBountyDelay",
          "type": "uint32"
        },
        {
          "internalType": "uint256",
          "name": "claimFee",
          "type": "uint256"
        }
      ],
      "stateMutability": "view",
      "type": "function"
    },
    {
      "inputs": [],
      "name": "getNumberOfVaults",
      "outputs": [
        {
          "internalType": "uint256",
          "name": "",
          "type": "uint256"
        }
      ],
      "stateMutability": "view",
      "type": "function"
    },
    {
      "inputs": [],
      "name": "getSafetyPeriod",
      "outputs": [
        {
          "internalType": "uint256",
          "name": "",
          "type": "uint256"
        }
      ],
      "stateMutability": "view",
      "type": "function"
    },
    {
      "inputs": [],
      "name": "getSetMaxBountyDelay",
      "outputs": [
        {
          "internalType": "uint256",
          "name": "",
          "type": "uint256"
        }
      ],
      "stateMutability": "view",
      "type": "function"
    },
    {
      "inputs": [],
      "name": "getWithdrawPeriod",
      "outputs": [
        {
          "internalType": "uint256",
          "name": "",
          "type": "uint256"
        }
      ],
      "stateMutability": "view",
      "type": "function"
    },
    {
      "inputs": [],
      "name": "getWithdrawRequestEnablePeriod",
      "outputs": [
        {
          "internalType": "uint256",
          "name": "",
          "type": "uint256"
        }
      ],
      "stateMutability": "view",
      "type": "function"
    },
    {
      "inputs": [],
      "name": "getWithdrawRequestPendingPeriod",
      "outputs": [
        {
          "internalType": "uint256",
          "name": "",
          "type": "uint256"
        }
      ],
      "stateMutability": "view",
      "type": "function"
    },
    {
      "inputs": [
        {
          "internalType": "address",
          "name": "",
          "type": "address"
        }
      ],
      "name": "governanceHatReward",
      "outputs": [
        {
          "internalType": "uint256",
          "name": "",
          "type": "uint256"
        }
      ],
      "stateMutability": "view",
      "type": "function"
    },
    {
      "inputs": [
        {
          "internalType": "address",
          "name": "",
          "type": "address"
        },
        {
          "internalType": "address",
          "name": "",
          "type": "address"
        }
      ],
      "name": "hackersHatReward",
      "outputs": [
        {
          "internalType": "uint256",
          "name": "",
          "type": "uint256"
        }
      ],
      "stateMutability": "view",
      "type": "function"
    },
    {
      "inputs": [],
      "name": "hatVaultImplementation",
      "outputs": [
        {
          "internalType": "address",
          "name": "",
          "type": "address"
        }
      ],
      "stateMutability": "view",
      "type": "function"
    },
    {
      "inputs": [
        {
          "internalType": "uint256",
          "name": "",
          "type": "uint256"
        }
      ],
      "name": "hatVaults",
      "outputs": [
        {
          "internalType": "address",
          "name": "",
          "type": "address"
        }
      ],
      "stateMutability": "view",
      "type": "function"
    },
    {
      "inputs": [],
      "name": "isEmergencyPaused",
      "outputs": [
        {
          "internalType": "bool",
          "name": "",
          "type": "bool"
        }
      ],
      "stateMutability": "view",
      "type": "function"
    },
    {
      "inputs": [
        {
          "internalType": "address",
          "name": "",
          "type": "address"
        }
      ],
      "name": "isVaultVisible",
      "outputs": [
        {
          "internalType": "bool",
          "name": "",
          "type": "bool"
        }
      ],
      "stateMutability": "view",
      "type": "function"
    },
    {
      "inputs": [
        {
          "internalType": "string",
          "name": "_descriptionHash",
          "type": "string"
        }
      ],
      "name": "logClaim",
      "outputs": [],
      "stateMutability": "payable",
      "type": "function"
    },
    {
      "inputs": [],
      "name": "owner",
      "outputs": [
        {
          "internalType": "address",
          "name": "",
          "type": "address"
        }
      ],
      "stateMutability": "view",
      "type": "function"
    },
    {
      "inputs": [],
      "name": "renounceOwnership",
      "outputs": [],
      "stateMutability": "nonpayable",
      "type": "function"
    },
    {
      "inputs": [
        {
          "internalType": "uint256",
          "name": "_fee",
          "type": "uint256"
        }
      ],
      "name": "setClaimFee",
      "outputs": [],
      "stateMutability": "nonpayable",
      "type": "function"
    },
    {
      "inputs": [
        {
          "internalType": "address",
          "name": "_defaultArbitrator",
          "type": "address"
        }
      ],
      "name": "setDefaultArbitrator",
      "outputs": [],
      "stateMutability": "nonpayable",
      "type": "function"
    },
    {
      "inputs": [
        {
          "internalType": "bool",
          "name": "_defaultArbitratorCanChangeBounty",
          "type": "bool"
        }
      ],
      "name": "setDefaultArbitratorCanChangeBounty",
      "outputs": [],
      "stateMutability": "nonpayable",
      "type": "function"
    },
    {
      "inputs": [
        {
          "internalType": "uint32",
          "name": "_defaultChallengePeriod",
          "type": "uint32"
        }
      ],
      "name": "setDefaultChallengePeriod",
      "outputs": [],
      "stateMutability": "nonpayable",
      "type": "function"
    },
    {
      "inputs": [
        {
          "internalType": "uint32",
          "name": "_defaultChallengeTimeOutPeriod",
          "type": "uint32"
        }
      ],
      "name": "setDefaultChallengeTimeOutPeriod",
      "outputs": [],
      "stateMutability": "nonpayable",
      "type": "function"
    },
    {
      "inputs": [
        {
          "internalType": "uint16",
          "name": "_defaultBountyGovernanceHAT",
          "type": "uint16"
        },
        {
          "internalType": "uint16",
          "name": "_defaultBountyHackerHATVested",
          "type": "uint16"
        }
      ],
      "name": "setDefaultHATBountySplit",
      "outputs": [],
      "stateMutability": "nonpayable",
      "type": "function"
    },
    {
      "inputs": [
        {
          "internalType": "bool",
          "name": "_isEmergencyPaused",
          "type": "bool"
        }
      ],
      "name": "setEmergencyPaused",
      "outputs": [],
      "stateMutability": "nonpayable",
      "type": "function"
    },
    {
      "inputs": [
        {
          "internalType": "address",
          "name": "_feeSetter",
          "type": "address"
        }
      ],
      "name": "setFeeSetter",
      "outputs": [],
      "stateMutability": "nonpayable",
      "type": "function"
    },
    {
      "inputs": [
        {
          "internalType": "uint32",
          "name": "_duration",
          "type": "uint32"
        },
        {
          "internalType": "uint32",
          "name": "_periods",
          "type": "uint32"
        }
      ],
      "name": "setHatVestingParams",
      "outputs": [],
      "stateMutability": "nonpayable",
      "type": "function"
    },
    {
      "inputs": [
        {
          "internalType": "uint32",
          "name": "_delay",
          "type": "uint32"
        }
      ],
      "name": "setMaxBountyDelay",
      "outputs": [],
      "stateMutability": "nonpayable",
      "type": "function"
    },
    {
      "inputs": [
        {
          "internalType": "address",
          "name": "_swapToken",
          "type": "address"
        }
      ],
      "name": "setSwapToken",
      "outputs": [],
      "stateMutability": "nonpayable",
      "type": "function"
    },
    {
      "inputs": [
        {
          "internalType": "address",
          "name": "_vault",
          "type": "address"
        },
        {
          "internalType": "bool",
          "name": "_visible",
          "type": "bool"
        }
      ],
      "name": "setVaultVisibility",
      "outputs": [],
      "stateMutability": "nonpayable",
      "type": "function"
    },
    {
      "inputs": [
        {
          "internalType": "uint32",
          "name": "_withdrawRequestPendingPeriod",
          "type": "uint32"
        },
        {
          "internalType": "uint32",
          "name": "_withdrawRequestEnablePeriod",
          "type": "uint32"
        }
      ],
      "name": "setWithdrawRequestParams",
      "outputs": [],
      "stateMutability": "nonpayable",
      "type": "function"
    },
    {
      "inputs": [
        {
          "internalType": "uint32",
          "name": "_withdrawPeriod",
          "type": "uint32"
        },
        {
          "internalType": "uint32",
          "name": "_safetyPeriod",
          "type": "uint32"
        }
      ],
      "name": "setWithdrawSafetyPeriod",
      "outputs": [],
      "stateMutability": "nonpayable",
      "type": "function"
    },
    {
      "inputs": [
        {
          "internalType": "address",
          "name": "_asset",
          "type": "address"
        },
        {
          "internalType": "address[]",
          "name": "_beneficiaries",
          "type": "address[]"
        },
        {
          "internalType": "uint256",
          "name": "_amountOutMinimum",
          "type": "uint256"
        },
        {
          "internalType": "address",
          "name": "_routingContract",
          "type": "address"
        },
        {
          "internalType": "bytes",
          "name": "_routingPayload",
          "type": "bytes"
        }
      ],
      "name": "swapAndSend",
      "outputs": [],
      "stateMutability": "nonpayable",
      "type": "function"
    },
    {
      "inputs": [],
      "name": "tokenLockFactory",
      "outputs": [
        {
          "internalType": "contract ITokenLockFactory",
          "name": "",
          "type": "address"
        }
      ],
      "stateMutability": "view",
      "type": "function"
    },
    {
      "inputs": [
        {
          "internalType": "address",
          "name": "newOwner",
          "type": "address"
        }
      ],
      "name": "transferOwnership",
      "outputs": [],
      "stateMutability": "nonpayable",
      "type": "function"
    },
    {
      "inputs": [
        {
          "internalType": "uint32",
          "name": "_challengePeriod",
          "type": "uint32"
        }
      ],
      "name": "validateChallengePeriod",
      "outputs": [],
      "stateMutability": "pure",
      "type": "function"
    },
    {
      "inputs": [
        {
          "internalType": "uint32",
          "name": "_challengeTimeOutPeriod",
          "type": "uint32"
        }
      ],
      "name": "validateChallengeTimeOutPeriod",
      "outputs": [],
      "stateMutability": "pure",
      "type": "function"
    },
    {
      "inputs": [
        {
          "internalType": "uint16",
          "name": "_bountyGovernanceHAT",
          "type": "uint16"
        },
        {
          "internalType": "uint16",
          "name": "_bountyHackerHATVested",
          "type": "uint16"
        }
      ],
      "name": "validateHATSplit",
      "outputs": [],
      "stateMutability": "pure",
      "type": "function"
    }
  ],
  "transactionHash": "0x9ebdcbb7a5a8c08eb8845bfe650b1945a3b8cdb943ce28519a878b4e46f2d466",
  "args": [
    "0x84eaa6F519ab101BCdcEe96910471B0179907Fd0",
    "0x363a4B7c3FfEe8c04ef11682e3e82F0ABc09f61f",
    "0xE1054ff64d1351897bFFD3dB8C70D95F8d1bd536",
    "0x07865c6E87B9F70255377e024ace6630C1Eaa37F",
    "1000",
    "500",
    "0x63AD670cC485F020a307cDA0A44A66cC02439Be6"
  ],
  "numDeployments": 1,
  "solcInputHash": "fd4586d77dddc17657824824dd77ea4c",
  "bytecode": "0x60c06040523480156200001157600080fd5b506040516200327b3803806200327b833981016040819052620000349162000435565b6200003f336200037d565b6200004a866200037d565b6001600160a01b03878116608052600780546001600160a01b0319169186169190911790556200007b8383620003cd565b806001600160a01b031660a0816001600160a01b0316815250506040518061010001604052806276a70063ffffffff168152602001605a63ffffffff168152602001619ab063ffffffff168152602001610e1063ffffffff16815260200162093a8063ffffffff16815260200162093a8063ffffffff1681526020016202a30063ffffffff1681526020016000815250600560008201518160000160006101000a81548163ffffffff021916908363ffffffff16021790555060208201518160000160046101000a81548163ffffffff021916908363ffffffff16021790555060408201518160000160086101000a81548163ffffffff021916908363ffffffff160217905550606082015181600001600c6101000a81548163ffffffff021916908363ffffffff16021790555060808201518160000160106101000a81548163ffffffff021916908363ffffffff16021790555060a08201518160000160146101000a81548163ffffffff021916908363ffffffff16021790555060c08201518160000160186101000a81548163ffffffff021916908363ffffffff16021790555060e0820151816001015590505082600860146101000a81548161ffff021916908361ffff16021790555081600860166101000a81548161ffff021916908361ffff16021790555084600960006101000a8154816001600160a01b0302191690836001600160a01b031602179055506203f480600960166101000a81548163ffffffff021916908363ffffffff160217905550622e24806009601a6101000a81548163ffffffff021916908363ffffffff1602179055506001600960146101000a81548160ff0219169083151502179055507f77d457972e962930e8a217de64210a70cd59348e32d95e7f6c7513deb5d71f92878583600587878c8c600960169054906101000a900463ffffffff166009601a9054906101000a900463ffffffff16600960149054906101000a900460ff16604051620003689b9a99989796959493929190620004d9565b60405180910390a1505050505050506200062a565b600080546001600160a01b038381166001600160a01b0319831681178455604051919092169283917f8be0079c531659141344cd1fd0a4f28419497f9722a3daafe3b4186f6b6457e09190a35050565b6107d0620003dc8284620005f9565b61ffff16111562000400576040516307af556960e21b815260040160405180910390fd5b5050565b6001600160a01b03811681146200041a57600080fd5b50565b805161ffff811681146200043057600080fd5b919050565b600080600080600080600060e0888a0312156200045157600080fd5b87516200045e8162000404565b6020890151909750620004718162000404565b6040890151909650620004848162000404565b6060890151909550620004978162000404565b9350620004a7608089016200041d565b9250620004b760a089016200041d565b915060c0880151620004c98162000404565b8091505092959891949750929550565b60006102408201905060018060a01b03808e168352808d166020840152808c16604084015250895463ffffffff8082166060850152808260201c1660808501526200053160a08501828460401c1663ffffffff169052565b6200054960c08501828460601c1663ffffffff169052565b6200056160e08501828460801c1663ffffffff169052565b6200057a6101008501828460a01c1663ffffffff169052565b620005936101208501828460c01c1663ffffffff169052565b50506001999099015461014082015261ffff978816610160820152959096166101808601526001600160a01b039384166101a0860152919092166101c084015263ffffffff9182166101e084015216610200820152901515610220909101529392505050565b61ffff8181168382160190808211156200062357634e487b7160e01b600052601160045260246000fd5b5092915050565b60805160a051612c1d6200065e6000396000818161035101526116f501526000818161041c0152610d270152612c1d6000f3fe6080604052600436106102935760003560e01c806377c9cd8c1161015a578063d3e0bc56116100c1578063ea55f18e1161007a578063ea55f18e14610907578063eeb338871461091d578063f2fde38b1461093f578063f4bde0971461095f578063f51a90e414610981578063fb9a8740146109a557600080fd5b8063d3e0bc56146107bf578063db0f267b146107d4578063db399053146107f4578063df1b1ebe14610824578063e2b001bf146108d4578063e367497d146108f457600080fd5b8063a3fe95b211610113578063a3fe95b2146106f2578063a8acd94614610712578063aec1d10814610732578063b19805af14610752578063b851b7ca14610772578063bcfdfc581461079257600080fd5b806377c9cd8c1461063257806387cf3ef414610654578063891ce467146106745780638da5cb5b1461069457806392b2fd34146106b25780639d0ab89f146106d257600080fd5b80632e75ab50116101fe5780634f9627b0116101b75780634f9627b01461058557806354492078146105a55780635dd11415146105c75780636c0d189a146105e75780636ed93dd014610607578063715018a61461061d57600080fd5b80632e75ab501461049f5780632ea7f250146104bf5780633449a865146104eb578063354d75b91461050b5780633bd495ce14610543578063403661fb1461056557600080fd5b80631a95cf06116102505780631a95cf06146103ca5780631b2cae6c146103ea57806321c0437a1461040a5780632350e92d1461043e578063250c2cd91461045e578063290d10c41461047e57600080fd5b806306c6e3b81461029857806311566d74146102d5578063116dbc931461030e57806311c2aae31461033f578063120c1a7e14610373578063165db9a9146103a8575b600080fd5b3480156102a457600080fd5b506102b86102b336600461238d565b6109c5565b6040516001600160a01b0390911681526020015b60405180910390f35b3480156102e157600080fd5b506009546102f990600160b01b900463ffffffff1681565b60405163ffffffff90911681526020016102cc565b34801561031a57600080fd5b5060095461032f90600160a01b900460ff1681565b60405190151581526020016102cc565b34801561034b57600080fd5b506102b87f000000000000000000000000000000000000000000000000000000000000000081565b34801561037f57600080fd5b5060085461039590600160b01b900461ffff1681565b60405161ffff90911681526020016102cc565b3480156103b457600080fd5b506103c86103c33660046123ba565b6109ef565b005b3480156103d657600080fd5b506103c86103e53660046123d5565b610a46565b3480156103f657600080fd5b506103c8610405366004612421565b610b23565b34801561041657600080fd5b506102b87f000000000000000000000000000000000000000000000000000000000000000081565b34801561044a57600080fd5b506103c86104593660046123d5565b610b83565b34801561046a57600080fd5b506103c86104793660046123ba565b610c7e565b34801561048a57600080fd5b5060095461032f90600160a81b900460ff1681565b3480156104ab57600080fd5b506103c86104ba36600461238d565b610ce3565b3480156104cb57600080fd5b50600554600160401b900463ffffffff165b6040519081526020016102cc565b3480156104f757600080fd5b506007546102b8906001600160a01b031681565b34801561051757600080fd5b506104dd61052636600461245e565b600360209081526000928352604080842090915290825290205481565b34801561054f57600080fd5b50600554600160a01b900463ffffffff166104dd565b34801561057157600080fd5b506102b8610580366004612497565b610d20565b34801561059157600080fd5b506103c86105a03660046123d5565b610e38565b3480156105b157600080fd5b5060085461039590600160a01b900461ffff1681565b3480156105d357600080fd5b506103c86105e23660046124d3565b610f1f565b3480156105f357600080fd5b506103c86106023660046123ba565b610fb0565b34801561061357600080fd5b5061039561271081565b34801561062957600080fd5b506103c8611036565b34801561063e57600080fd5b50600554600160c01b900463ffffffff166104dd565b34801561066057600080fd5b506008546102b8906001600160a01b031681565b34801561068057600080fd5b506103c861068f3660046123ba565b61104a565b3480156106a057600080fd5b506000546001600160a01b03166102b8565b3480156106be57600080fd5b506103c86106cd36600461252b565b61109e565b3480156106de57600080fd5b506103c86106ed366004612421565b61111e565b3480156106fe57600080fd5b506103c861070d3660046123ba565b611173565b34801561071e57600080fd5b506103c861072d366004612555565b6111d8565b34801561073e57600080fd5b506103c861074d366004612572565b61122a565b34801561075e57600080fd5b506103c861076d366004612555565b611286565b34801561077e57600080fd5b506103c861078d366004612555565b6112d8565b34801561079e57600080fd5b506104dd6107ad366004612555565b60046020526000908152604090205481565b3480156107cb57600080fd5b506001546104dd565b3480156107e057600080fd5b506009546102b8906001600160a01b031681565b34801561080057600080fd5b5061032f61080f366004612555565b60026020526000908152604090205460ff1681565b34801561083057600080fd5b506005546006546108849163ffffffff808216926401000000008304821692600160401b8104831692600160601b8204811692600160801b8304821692600160a01b8104831692600160c01b909104169088565b6040805163ffffffff998a16815297891660208901529588169587019590955292861660608601529085166080850152841660a084015290921660c082015260e0810191909152610100016102cc565b3480156108e057600080fd5b506103c86108ef3660046125e9565b61132a565b6103c86109023660046126b5565b61191e565b34801561091357600080fd5b506103956107d081565b34801561092957600080fd5b50600554600160601b900463ffffffff166104dd565b34801561094b57600080fd5b506103c861095a366004612555565b611a06565b34801561096b57600080fd5b50600554600160801b900463ffffffff166104dd565b34801561098d57600080fd5b506009546102f990600160d01b900463ffffffff1681565b3480156109b157600080fd5b506103c86109c036600461252b565b611a81565b600181815481106109d557600080fd5b6000918252602090912001546001600160a01b0316905081565b620151808163ffffffff161015610a1957604051633a50e6a160e01b815260040160405180910390fd5b620697808163ffffffff161115610a43576040516317b7efeb60e11b815260040160405180910390fd5b50565b610a4e611ab5565b610e108263ffffffff161015610a7757604051639a4e9a8d60e01b815260040160405180910390fd5b6154608163ffffffff161115610aa0576040516310c4878160e11b815260040160405180910390fd5b600580546fffffffffffffffff00000000000000001916600160401b63ffffffff85811691820263ffffffff60601b191692909217600160601b928516928302179092556040805192835260208301919091527f47c8a5b15f6172a5053bfac488642484dd38e9c0f3073c23c5d822c4cbab530991015b60405180910390a15050565b610b2b611ab5565b60098054821515600160a01b0260ff60a01b199091161790556040517f8dd94cb9d51a52430f03387ae2b623450f5bbb1201ce3d08f9dc3561f258cf4190610b7890831515815260200190565b60405180910390a150565b610b8b611ab5565b6276a7008263ffffffff161115610bb55760405163766cee2b60e01b815260040160405180910390fd5b6154608163ffffffff161015610bde57604051638750566960e01b815260040160405180910390fd5b6283d6008163ffffffff161115610c08576040516319979c0960e11b815260040160405180910390fd5b6005805467ffffffffffffffff60801b1916600160a01b63ffffffff85811691820263ffffffff60801b191692909217600160801b928516928302179092556040805192835260208301919091527f7b8aa35646b8fddc3ccaae8e1069d8c6c365e2ba2e11bb1f0018f8d01992f25b9101610b17565b610c86611ab5565b610c8f816109ef565b6009805463ffffffff60b01b1916600160b01b63ffffffff8416908102919091179091556040519081527fc14f60dbf7139b2e92ad845e95c05208c6070962e410202d3b8ae7a1378cde3590602001610b78565b610ceb611ab5565b60068190556040518181527f13fa675fefcae94b0250d92c1fec53cd08f7031592b28bf9429f840b7d25509790602001610b78565b6000610d4b7f0000000000000000000000000000000000000000000000000000000000000000611b0f565b60405163be9efac960e01b81529091506001600160a01b0382169063be9efac990610d7a908590600401612833565b600060405180830381600087803b158015610d9457600080fd5b505af1158015610da8573d6000803e3d6000fd5b50506001805480820182556000919091527fb10e2d527612073b26eecdfd717e6a320cf44b4afac2b0732d9fcbe2b7fa0cf60180546001600160a01b0319166001600160a01b0385169081179091556040519092507f87c42456973803b7e30e88a3d384868c760496c823f4eb51223d3bc094b8aa1d9150610e2b908590612833565b60405180910390a2919050565b610e40611ab5565b62ed4e008263ffffffff1610610e695760405163181b6a8d60e01b815260040160405180910390fd5b8063ffffffff16600003610e905760405163497a0fc360e01b815260040160405180910390fd5b8063ffffffff168263ffffffff161015610ebd576040516301a127dd60e51b815260040160405180910390fd5b6005805463ffffffff84811667ffffffffffffffff199092168217640100000000918516918202179092556040805191825260208201929092527fa3d5527033c65a7e5eda0ffec2fe75b8bfc358a419914452e5e29993f531136d9101610b17565b6001600160a01b03808516600090815260036020908152604080832093871683529290529081208054849290610f569084906129d8565b90915550506001600160a01b03841660009081526004602052604081208054839290610f839084906129d8565b90915550610faa90503330610f9884866129d8565b6001600160a01b038816929190611bac565b50505050565b610fb8611ab5565b6202a3008163ffffffff161015610fe25760405163514e00f160e01b815260040160405180910390fd5b6005805463ffffffff60c01b1916600160c01b63ffffffff8416908102919091179091556040519081527fc2f118f047950efbfb94865ef4fc99eedc6b5e992e4fb970552deba4fda0d8e490602001610b78565b61103e611ab5565b6110486000611c17565b565b6202a3008163ffffffff16101561107457604051630fe180cd60e01b815260040160405180910390fd5b62700f808163ffffffff161115610a435760405163599dfd5d60e11b815260040160405180910390fd5b6110a6611ab5565b6110b08282611a81565b6008805463ffffffff60a01b1916600160a01b61ffff85811691820261ffff60b01b191692909217600160b01b928516928302179092556040805192835260208301919091527f9b9cfb21b737a43af5e89fc41ea51449648ce863399879a0625210588b164e5a9101610b17565b611126611ab5565b60098054821515600160a81b0260ff60a81b199091161790556040517fa18d588b4da0466ca9a3ade6753c1cf94f4ccc599b9134045aeb55aef53293c890610b7890831515815260200190565b61117b611ab5565b6111848161104a565b6009805463ffffffff60d01b1916600160d01b63ffffffff8416908102919091179091556040519081527fe6f3ddadc73ca32beb7d9755d5a7d82ab53101c097e743fd05412e6a1ce9deb990602001610b78565b6111e0611ab5565b600980546001600160a01b0319166001600160a01b0383169081179091556040517f4664bc54da0879a6626395d3154ebb4adef21b4ced228635ce9583e86148a9a790600090a250565b611232611ab5565b6001600160a01b038216600081815260026020526040808220805460ff191685151590811790915590519092917f0f8de79a0a8e021d06491203f918550c01da39c26f2e03c5f5571c75edb7d93791a35050565b61128e611ab5565b600880546001600160a01b0319166001600160a01b0383169081179091556040517f9993507f53024702e2de1be66f6c48c8957ac708927b86b3bdf4e335f586947090600090a250565b6112e0611ab5565b600780546001600160a01b0319166001600160a01b0383169081179091556040517f611a318453985b405b2f5e92971f8c383619cf48b7bf4acf39e83ed1e111180590600090a250565b611332611ab5565b61137a60405180610100016040528060008152602001600081526020016000815260200160008152602001600081526020016060815260200160008152602001600081525090565b8567ffffffffffffffff811115611393576113936129f1565b6040519080825280602002602001820160405280156113bc578160200160208202803683370190505b5060a08201526001600160a01b03881660009081526004602052604081205460c0830181905282525b86811015611508576001600160a01b03891660009081526003602052604081209089898481811061141857611418612a07565b905060200201602081019061142d9190612555565b6001600160a01b03166001600160a01b03168152602001908152602001600020548260a00151828151811061146457611464612a07565b6020908102919091018101919091526001600160a01b038a166000908152600390915260408120818a8a8581811061149e5761149e612a07565b90506020020160208101906114b39190612555565b6001600160a01b0316815260208101919091526040016000205560a08201518051829081106114e4576114e4612a07565b6020026020010151826000018181516114fd91906129d8565b9052506001016113e5565b50805160000361152b5760405163dbe66a0f60e01b815260040160405180910390fd5b60075481516001600160a01b039091169061154b908a9088888888611c67565b60208401819052604084019190915282516115669190612a1d565b60e0830181905260c0830151835161157f929190611f3b565b608083015260c08201518251602084015161159b929091611f3b565b6001600160a01b038a166000908152600460205260408120919091555b878110156118895760006115fc8460a0015183815181106115db576115db612a07565b602002602001015185600001518660400151611f3b9092919063ffffffff16565b9050600061163a8560a00151848151811061161957611619612a07565b602002602001015186600001518760e00151611f3b9092919063ffffffff16565b9050818560600181815161164e91906129d8565b90525060a0850151805161168e91908590811061166d5761166d612a07565b602002602001015186600001518760200151611f3b9092919063ffffffff16565b6001600160a01b038d166000908152600360205260408120908d8d878181106116b9576116b9612a07565b90506020020160208101906116ce9190612555565b6001600160a01b03168152602081019190915260400160009081209190915582156117ff577f00000000000000000000000000000000000000000000000000000000000000006001600160a01b031663e95cd0518660008f8f8981811061173757611737612a07565b905060200201602081019061174c9190612555565b600554889042906117639063ffffffff16826129d8565b60055460405160e089901b6001600160e01b03191681526117a697969594939291640100000000900463ffffffff16906000908190600290600190600401612a30565b6020604051808303816000875af11580156117c5573d6000803e3d6000fd5b505050506040513d601f19601f820116820180604052508101906117e99190612ac5565b90506117ff6001600160a01b0386168285611ff0565b806001600160a01b03168c8c8681811061181b5761181b612a07565b90506020020160208101906118309190612555565b6001600160a01b03167f4f8abed31d725d1e727a30b06defad85513b99ee0d373925f63d71e099edaa308486604051611873929190918252602082015260400190565b60405180910390a38360010193505050506115b8565b50600080546001600160a01b031690506000836060015184604001516118af9190612a1d565b90506118c56001600160a01b0384168383611ff0565b608084015160408051918252602082018390526000916001600160a01b038516917f4f8abed31d725d1e727a30b06defad85513b99ee0d373925f63d71e099edaa30910160405180910390a35050505050505050505050565b60065480156119be578034101561194857604051633244470d60e01b815260040160405180910390fd5b600080546040516001600160a01b039091169034908381818185875af1925050503d8060008114611995576040519150601f19603f3d011682016040523d82523d6000602084013e61199a565b606091505b50509050806119bc5760405163684fb74f60e11b815260040160405180910390fd5b505b336001600160a01b03167f9fcc410c642f895d8e83453cc710a30c7f00e42070fb7fd399c29b24781615e884846040516119f9929190612ae2565b60405180910390a2505050565b611a0e611ab5565b6001600160a01b038116611a785760405162461bcd60e51b815260206004820152602660248201527f4f776e61626c653a206e6577206f776e657220697320746865207a65726f206160448201526564647265737360d01b60648201526084015b60405180910390fd5b610a4381611c17565b6107d0611a8e8284612af6565b61ffff161115611ab1576040516307af556960e21b815260040160405180910390fd5b5050565b6000546001600160a01b031633146110485760405162461bcd60e51b815260206004820181905260248201527f4f776e61626c653a2063616c6c6572206973206e6f7420746865206f776e65726044820152606401611a6f565b6000604051733d602d80600a3d3981f3363d3d373d3d3d363d7360601b81528260601b60148201526e5af43d82803e903d91602b57fd5bf360881b60288201526037816000f09150506001600160a01b038116611ba75760405162461bcd60e51b8152602060048201526016602482015275115490cc4c4d8dce8818dc99585d194819985a5b195960521b6044820152606401611a6f565b919050565b6040516001600160a01b0380851660248301528316604482015260648101829052610faa9085906323b872dd60e01b906084015b60408051601f198184030181529190526020810180516001600160e01b03166001600160e01b031990931692909217909152612025565b600080546001600160a01b038381166001600160a01b0319831681178455604051919092169283917f8be0079c531659141344cd1fd0a4f28419497f9722a3daafe3b4186f6b6457e09190a35050565b60075460009081906001600160a01b03908116908916819003611c91578760009250925050611f30565b611ca56001600160a01b038a16878a6120f7565b6040516370a0823160e01b81523060048201526000906001600160a01b038316906370a0823190602401602060405180830381865afa158015611cec573d6000803e3d6000fd5b505050506040513d601f19601f82011682018060405250810190611d109190612b18565b6040516370a0823160e01b81523060048201529091506000906001600160a01b038c16906370a0823190602401602060405180830381865afa158015611d5a573d6000803e3d6000fd5b505050506040513d601f19601f82011682018060405250810190611d7e9190612b18565b90506000886001600160a01b03168888604051611d9c929190612b31565b6000604051808303816000865af19150503d8060008114611dd9576040519150601f19603f3d011682016040523d82523d6000602084013e611dde565b606091505b5050905080611e005760405163081ceff360e41b815260040160405180910390fd5b6040516370a0823160e01b815230600482015283906001600160a01b038616906370a0823190602401602060405180830381865afa158015611e46573d6000803e3d6000fd5b505050506040513d601f19601f82011682018060405250810190611e6a9190612b18565b611e749190612a1d565b6040516370a0823160e01b81523060048201529096506001600160a01b038d16906370a0823190602401602060405180830381865afa158015611ebb573d6000803e3d6000fd5b505050506040513d601f19601f82011682018060405250810190611edf9190612b18565b611ee99083612a1d565b611ef3908c612a1d565b945089861015611f1657604051638a866e2560e01b815260040160405180910390fd5b611f2b6001600160a01b038d168a60006120f7565b505050505b965096945050505050565b6000808060001985870985870292508281108382030391505080600003611f7557838281611f6b57611f6b612b41565b0492505050611fe9565b808411611f8157600080fd5b600084868809851960019081018716968790049682860381900495909211909303600082900391909104909201919091029190911760038402600290811880860282030280860282030280860282030280860282030280860282030280860290910302029150505b9392505050565b6040516001600160a01b03831660248201526044810182905261202090849063a9059cbb60e01b90606401611be0565b505050565b600061207a826040518060400160405280602081526020017f5361666545524332303a206c6f772d6c6576656c2063616c6c206661696c6564815250856001600160a01b031661220c9092919063ffffffff16565b80519091501561202057808060200190518101906120989190612b57565b6120205760405162461bcd60e51b815260206004820152602a60248201527f5361666545524332303a204552433230206f7065726174696f6e20646964206e6044820152691bdd081cdd58d8d9595960b21b6064820152608401611a6f565b8015806121715750604051636eb1769f60e11b81523060048201526001600160a01b03838116602483015284169063dd62ed3e90604401602060405180830381865afa15801561214b573d6000803e3d6000fd5b505050506040513d601f19601f8201168201806040525081019061216f9190612b18565b155b6121dc5760405162461bcd60e51b815260206004820152603660248201527f5361666545524332303a20617070726f76652066726f6d206e6f6e2d7a65726f60448201527520746f206e6f6e2d7a65726f20616c6c6f77616e636560501b6064820152608401611a6f565b6040516001600160a01b03831660248201526044810182905261202090849063095ea7b360e01b90606401611be0565b606061221b8484600085612223565b949350505050565b6060824710156122845760405162461bcd60e51b815260206004820152602660248201527f416464726573733a20696e73756666696369656e742062616c616e636520666f6044820152651c8818d85b1b60d21b6064820152608401611a6f565b6001600160a01b0385163b6122db5760405162461bcd60e51b815260206004820152601d60248201527f416464726573733a2063616c6c20746f206e6f6e2d636f6e74726163740000006044820152606401611a6f565b600080866001600160a01b031685876040516122f79190612b98565b60006040518083038185875af1925050503d8060008114612334576040519150601f19603f3d011682016040523d82523d6000602084013e612339565b606091505b5091509150612349828286612354565b979650505050505050565b60608315612363575081611fe9565b8251156123735782518084602001fd5b8160405162461bcd60e51b8152600401611a6f9190612bb4565b60006020828403121561239f57600080fd5b5035919050565b803563ffffffff81168114611ba757600080fd5b6000602082840312156123cc57600080fd5b611fe9826123a6565b600080604083850312156123e857600080fd5b6123f1836123a6565b91506123ff602084016123a6565b90509250929050565b8015158114610a4357600080fd5b8035611ba781612408565b60006020828403121561243357600080fd5b8135611fe981612408565b6001600160a01b0381168114610a4357600080fd5b8035611ba78161243e565b6000806040838503121561247157600080fd5b823561247c8161243e565b9150602083013561248c8161243e565b809150509250929050565b6000602082840312156124a957600080fd5b813567ffffffffffffffff8111156124c057600080fd5b82016101c08185031215611fe957600080fd5b600080600080608085870312156124e957600080fd5b84356124f48161243e565b935060208501356125048161243e565b93969395505050506040820135916060013590565b803561ffff81168114611ba757600080fd5b6000806040838503121561253e57600080fd5b61254783612519565b91506123ff60208401612519565b60006020828403121561256757600080fd5b8135611fe98161243e565b6000806040838503121561258557600080fd5b82356125908161243e565b9150602083013561248c81612408565b60008083601f8401126125b257600080fd5b50813567ffffffffffffffff8111156125ca57600080fd5b6020830191508360208285010111156125e257600080fd5b9250929050565b600080600080600080600060a0888a03121561260457600080fd5b873561260f8161243e565b9650602088013567ffffffffffffffff8082111561262c57600080fd5b818a0191508a601f83011261264057600080fd5b81358181111561264f57600080fd5b8b60208260051b850101111561266457600080fd5b602083019850965060408a0135955061267f60608b01612453565b945060808a013591508082111561269557600080fd5b506126a28a828b016125a0565b989b979a50959850939692959293505050565b600080602083850312156126c857600080fd5b823567ffffffffffffffff8111156126df57600080fd5b6126eb858286016125a0565b90969095509350505050565b6000808335601e1984360301811261270e57600080fd5b830160208101925035905067ffffffffffffffff81111561272e57600080fd5b8036038213156125e257600080fd5b81835281816020850137506000828201602090810191909152601f909101601f19169091010190565b6000808335601e1984360301811261277d57600080fd5b830160208101925035905067ffffffffffffffff81111561279d57600080fd5b8060051b36038213156125e257600080fd5b8183526000602080850194508260005b858110156127ed5781356127d28161243e565b6001600160a01b0316875295820195908201906001016127bf565b509495945050505050565b61ffff8061280583612519565b1683528061281560208401612519565b1660208401528061282860408401612519565b166040840152505050565b60208152600061284383846126f7565b6101c080602086015261285b6101e08601838561273d565b925061286a60208701876126f7565b9250601f198087860301604088015261288485858461273d565b94506128936040890189612766565b94509150808786030160608801526128ac8585846127af565b94506128ba606089016123a6565b63ffffffff8116608089015293506128d4608089016123a6565b63ffffffff811660a089015293506128ee60a08901612519565b61ffff811660c0890152935061290a60e0880160c08a016127f8565b6129176101208901612453565b93506101409150612932828801856001600160a01b03169052565b61293d828901612453565b93506101609150612958828801856001600160a01b03169052565b612963828901612453565b9350610180915061297e828801856001600160a01b03169052565b612989828901612416565b93506101a0915061299d8288018515159052565b6129a9828901896126f7565b945091508087860301838801525061234984848361273d565b634e487b7160e01b600052601160045260246000fd5b808201808211156129eb576129eb6129c2565b92915050565b634e487b7160e01b600052604160045260246000fd5b634e487b7160e01b600052603260045260246000fd5b818103818111156129eb576129eb6129c2565b6001600160a01b038c811682528b811660208301528a166040820152606081018990526080810188905260a0810187905263ffffffff861660c082015260e081018590526101008101849052610160810160038410612a9f57634e487b7160e01b600052602160045260246000fd5b83610120830152612ab561014083018415159052565b9c9b505050505050505050505050565b600060208284031215612ad757600080fd5b8151611fe98161243e565b60208152600061221b60208301848661273d565b61ffff818116838216019080821115612b1157612b116129c2565b5092915050565b600060208284031215612b2a57600080fd5b5051919050565b8183823760009101908152919050565b634e487b7160e01b600052601260045260246000fd5b600060208284031215612b6957600080fd5b8151611fe981612408565b60005b83811015612b8f578181015183820152602001612b77565b50506000910152565b60008251612baa818460208701612b74565b9190910192915050565b6020815260008251806020840152612bd3816040850160208701612b74565b601f01601f1916919091016040019291505056fea2646970667358221220d13b2e8c8554a417359d62d29ec775c86fe1a74301a2a1557d9d6e76d606a31b64736f6c63430008100033",
  "devdoc": {
    "author": "Hats.finance",
    "details": "New hats.finance vaults should be created through a call to {createVault} so that they are linked to the registry",
    "kind": "dev",
    "methods": {
      "constructor": {
        "params": {
          "_HAT": "the HAT token address",
          "_bountyGovernanceHAT": "The default percentage of a claim's total bounty to be swapped for HAT and sent to the governance",
          "_bountyHackerHATVested": "The default percentage of a claim's total bounty to be swapped for HAT and sent to a vesting contract for the hacker   _bountyGovernanceHAT + _bountyHackerHATVested must be less    than `HUNDRED_PERCENT`.",
          "_hatGovernance": "The governance address.",
          "_hatVaultImplementation": "The hat vault implementation address.",
          "_tokenLockFactory": "Address of the token lock factory to be used to create a vesting contract for the approved claim reporter."
        }
      },
      "owner()": {
        "details": "Returns the address of the current owner."
      },
      "renounceOwnership()": {
        "details": "Leaves the contract without owner. It will not be possible to call `onlyOwner` functions anymore. Can only be called by the current owner. NOTE: Renouncing ownership will leave the contract without an owner, thereby removing any functionality that is only available to the owner."
      },
      "transferOwnership(address)": {
        "details": "Transfers ownership of the contract to a new account (`newOwner`). Can only be called by the current owner."
      }
    },
    "title": "Registry to deploy Hats.finance vaults and manage shared parameters",
    "version": 1
  },
  "userdoc": {
    "errors": {
      "AmountSwappedLessThanMinimum()": [
        {
          "notice": "Raised on {swapAndSend} if the amount that was recieved in the swap was less than the minimum amount specified"
        }
      ],
      "AmountToSwapIsZero()": [
        {
          "notice": "Raised on {swapAndSend} if the amount to swap is zero"
        }
      ],
      "ChallengePeriodTooLong()": [
        {
          "notice": "Raised on {setDefaultChallengePeriod} if the challenge period  to be set is longer than 5 days"
        }
      ],
      "ChallengePeriodTooShort()": [
        {
          "notice": "Raised on {setDefaultChallengePeriod} if the challenge period  to be set is shorter than 1 day"
        }
      ],
      "ChallengeTimeOutPeriodTooLong()": [
        {
          "notice": "Raised on {setDefaultChallengeTimeOutPeriod} if the challenge timeout period to be set is longer than 85 days"
        }
      ],
      "ChallengeTimeOutPeriodTooShort()": [
        {
          "notice": "Raised on {setDefaultChallengeTimeOutPeriod} if the challenge timeout period to be set is shorter than 1 day"
        }
      ],
      "ClaimFeeTransferFailed()": [
        {
          "notice": "Raised on {LogClaim} if the transfer of the claim fee failed"
        }
      ],
      "DelayTooShort()": [
        {
          "notice": "Raised on {setMaxBountyDelay} if the max bounty to be set is shorter than 2 days"
        }
      ],
      "HatVestingDurationSmallerThanPeriods()": [
        {
          "notice": "Raised on {setHatVestingParams} if the vesting duration is  smaller than the vesting periods"
        }
      ],
      "HatVestingDurationTooLong()": [
        {
          "notice": "Raised on {setHatVestingParams} if the vesting duration to be set is longer than 180 days"
        }
      ],
      "HatVestingPeriodsCannotBeZero()": [
        {
          "notice": "Raised on {setHatVestingParams} if the vesting periods to be set is 0"
        }
      ],
      "NotEnoughFeePaid()": [
        {
          "notice": "Raised on {LogClaim} if the transaction was not sent with the amount of ETH specified as {generalParameters.claimFee}"
        }
      ],
      "SafetyPeriodTooLong()": [
        {
          "notice": "Raised on {setWithdrawSafetyPeriod} if the safety period to be set is longer than 6 hours"
        }
      ],
      "SwapFailed()": [
        {
          "notice": "Raised on {swapAndSend} if the swap was not successful"
        }
      ],
      "TotalHatsSplitPercentageShouldBeUpToMaxHATSplit()": [
        {
          "notice": "Raised on {setDefaultHATBountySplit} if the split to be set is greater than 20% (defined as 2000)"
        }
      ],
      "WithdrawPeriodTooShort()": [
        {
          "notice": "Raised on {setWithdrawSafetyPeriod} if the withdraw period to be set is shorter than 1 hour"
        }
      ],
      "WithdrawRequestEnabledPeriodTooLong()": [
        {
          "notice": "Raised on {setWithdrawRequestParams} if the withdraw request enabled period to be set is longer than 100 days"
        }
      ],
      "WithdrawRequestEnabledPeriodTooShort()": [
        {
          "notice": "Raised on {setWithdrawRequestParams} if the withdraw request enabled period to be set is shorter than 6 hours"
        }
      ],
      "WithdrawRequestPendingPeriodTooLong()": [
        {
          "notice": "Raised on {setWithdrawRequestParams} if the withdraw request pending period to be set is shorter than 3 months"
        }
      ]
    },
    "events": {
      "LogClaim(address,string)": {
        "notice": "Emitted when a claim is logged"
      },
      "RegistryCreated(address,address,address,(uint32,uint32,uint32,uint32,uint32,uint32,uint32,uint256),uint256,uint256,address,address,uint256,uint256,bool)": {
        "notice": "Emitted on deployment of the registry"
      },
      "SetClaimFee(uint256)": {
        "notice": "Emitted when a new fee for logging a claim for a bounty is set"
      },
      "SetDefaultArbitrator(address)": {
        "notice": "Emitted when a new default arbitrator is set"
      },
      "SetDefaultArbitratorCanChangeBounty(bool)": {
        "notice": "Emitted when the default arbitrator can change bounty is set"
      },
      "SetDefaultChallengePeriod(uint256)": {
        "notice": "Emitted when a new default challenge period is set"
      },
      "SetDefaultChallengeTimeOutPeriod(uint256)": {
        "notice": "Emitted when a new default challenge timeout period is set"
      },
      "SetDefaultHATBountySplit(uint256,uint256)": {
        "notice": "Emitted when a new default HAT bounty split is set"
      },
      "SetEmergencyPaused(bool)": {
        "notice": "Emitted when the system is put into emergency pause/unpause"
      },
      "SetFeeSetter(address)": {
        "notice": "Emitted when a new fee setter is set"
      },
      "SetHatVestingParams(uint256,uint256)": {
        "notice": "Emitted when new HAT vesting parameters are set"
      },
      "SetMaxBountyDelay(uint256)": {
        "notice": "Emitted when a new timelock delay for setting the max bounty is set"
      },
      "SetSwapToken(address)": {
        "notice": "Emitted when a new swap token is set"
      },
      "SetVaultVisibility(address,bool)": {
        "notice": "Emitted when the UI visibility of a vault is changed"
      },
      "SetWithdrawRequestParams(uint256,uint256)": {
        "notice": "Emitted when new withdraw request time limits are set"
      },
      "SetWithdrawSafetyPeriod(uint256,uint256)": {
        "notice": "Emitted when new durations are set for withdraw period and safety period"
      },
      "SwapAndSend(address,uint256,uint256,address)": {
        "notice": "Emitted when a swap of vault tokens to HAT tokens is done and the HATS tokens are sent to beneficiary through vesting contract"
      }
    },
    "kind": "user",
    "methods": {
      "addTokensToSwap(address,address,uint256,uint256)": {
        "notice": "See {IHATVaultsRegistry-addTokensToSwap}. "
      },
      "constructor": {
        "notice": "initialize -"
      },
      "createVault((string,string,address[],uint32,uint32,uint16,(uint16,uint16,uint16),address,address,address,bool,string))": {
        "notice": "See {IHATVaultsRegistry-createVault}. "
      },
      "getNumberOfVaults()": {
        "notice": "See {IHATVaultsRegistry-getNumberOfVaults}. "
      },
      "getSafetyPeriod()": {
        "notice": "See {IHATVaultsRegistry-getSafetyPeriod}. "
      },
      "getSetMaxBountyDelay()": {
        "notice": "See {IHATVaultsRegistry-getSetMaxBountyDelay}. "
      },
      "getWithdrawPeriod()": {
        "notice": "See {IHATVaultsRegistry-getWithdrawPeriod}. "
      },
      "getWithdrawRequestEnablePeriod()": {
        "notice": "See {IHATVaultsRegistry-getWithdrawRequestEnablePeriod}. "
      },
      "getWithdrawRequestPendingPeriod()": {
        "notice": "See {IHATVaultsRegistry-getWithdrawRequestPendingPeriod}. "
      },
      "logClaim(string)": {
        "notice": "See {IHATVaultsRegistry-logClaim}. "
      },
      "setClaimFee(uint256)": {
        "notice": "See {IHATVaultsRegistry-setClaimFee}. "
      },
      "setDefaultArbitrator(address)": {
        "notice": "See {IHATVaultsRegistry-setDefaultArbitrator}. "
      },
      "setDefaultArbitratorCanChangeBounty(bool)": {
        "notice": "See {IHATVaultsRegistry-setDefaultArbitratorCanChangeBounty}. "
      },
      "setDefaultChallengePeriod(uint32)": {
        "notice": "See {IHATVaultsRegistry-setDefaultChallengePeriod}. "
      },
      "setDefaultChallengeTimeOutPeriod(uint32)": {
        "notice": "See {IHATVaultsRegistry-setDefaultChallengeTimeOutPeriod}. "
      },
      "setDefaultHATBountySplit(uint16,uint16)": {
        "notice": "See {IHATVaultsRegistry-setDefaultHATBountySplit}. "
      },
      "setEmergencyPaused(bool)": {
        "notice": "See {IHATVaultsRegistry-setEmergencyPaused}. "
      },
      "setFeeSetter(address)": {
        "notice": "See {IHATVaultsRegistry-setFeeSetter}. "
      },
      "setHatVestingParams(uint32,uint32)": {
        "notice": "See {IHATVaultsRegistry-setHatVestingParams}. "
      },
      "setMaxBountyDelay(uint32)": {
        "notice": "See {IHATVaultsRegistry-setMaxBountyDelay}. "
      },
      "setSwapToken(address)": {
        "notice": "See {IHATVaultsRegistry-setSwapToken}. "
      },
      "setVaultVisibility(address,bool)": {
        "notice": "See {IHATVaultsRegistry-setVaultVisibility}. "
      },
      "setWithdrawRequestParams(uint32,uint32)": {
        "notice": "See {IHATVaultsRegistry-setWithdrawRequestParams}. "
      },
      "setWithdrawSafetyPeriod(uint32,uint32)": {
        "notice": "See {IHATVaultsRegistry-setWithdrawSafetyPeriod}. "
      },
      "swapAndSend(address,address[],uint256,address,bytes)": {
        "notice": "See {IHATVaultsRegistry-swapAndSend}. "
      },
      "validateChallengePeriod(uint32)": {
        "notice": "See {IHATVaultsRegistry-validateChallengePeriod}. "
      },
      "validateChallengeTimeOutPeriod(uint32)": {
        "notice": "See {IHATVaultsRegistry-validateChallengeTimeOutPeriod}. "
      },
      "validateHATSplit(uint16,uint16)": {
        "notice": "See {IHATVaultsRegistry-validateHATSplit}. "
      }
    },
    "notice": "Hats.finance is a proactive bounty protocol for white hat hackers and security experts, where projects, community members, and stakeholders incentivize protocol security and responsible disclosure. Hats create scalable vaults using the projects own token. The value of the bounty increases with the success of the token and project. The owner of the registry has the permission to set time limits and bounty parameters and change vaults' info, and to set the other registry roles - fee setter and arbitrator. The arbitrator can challenge submitted claims for bounty payouts made by vaults' committees, approve them with a different bounty percentage or dismiss them. The fee setter can set the fee on withdrawals on all vaults. This project is open-source and can be found at: https://github.com/hats-finance/hats-contracts",
    "version": 1
  },
  "storageLayout": {
    "storage": [
      {
        "astId": 3327,
        "contract": "contracts/HATVaultsRegistry.sol:HATVaultsRegistry",
        "label": "_owner",
        "offset": 0,
        "slot": "0",
        "type": "t_address"
      },
      {
        "astId": 14973,
        "contract": "contracts/HATVaultsRegistry.sol:HATVaultsRegistry",
        "label": "hatVaults",
        "offset": 0,
        "slot": "1",
        "type": "t_array(t_address)dyn_storage"
      },
      {
        "astId": 14977,
        "contract": "contracts/HATVaultsRegistry.sol:HATVaultsRegistry",
        "label": "isVaultVisible",
        "offset": 0,
        "slot": "2",
        "type": "t_mapping(t_address,t_bool)"
      },
      {
        "astId": 14983,
        "contract": "contracts/HATVaultsRegistry.sol:HATVaultsRegistry",
        "label": "hackersHatReward",
        "offset": 0,
        "slot": "3",
        "type": "t_mapping(t_address,t_mapping(t_address,t_uint256))"
      },
      {
        "astId": 14987,
        "contract": "contracts/HATVaultsRegistry.sol:HATVaultsRegistry",
        "label": "governanceHatReward",
        "offset": 0,
        "slot": "4",
        "type": "t_mapping(t_address,t_uint256)"
      },
      {
        "astId": 14990,
        "contract": "contracts/HATVaultsRegistry.sol:HATVaultsRegistry",
        "label": "generalParameters",
        "offset": 0,
        "slot": "5",
        "type": "t_struct(GeneralParameters)17776_storage"
      },
      {
        "astId": 14996,
        "contract": "contracts/HATVaultsRegistry.sol:HATVaultsRegistry",
        "label": "HAT",
        "offset": 0,
        "slot": "7",
        "type": "t_contract(IERC20)6560"
      },
      {
        "astId": 14998,
        "contract": "contracts/HATVaultsRegistry.sol:HATVaultsRegistry",
        "label": "feeSetter",
        "offset": 0,
        "slot": "8",
        "type": "t_address"
      },
      {
        "astId": 15000,
        "contract": "contracts/HATVaultsRegistry.sol:HATVaultsRegistry",
        "label": "defaultBountyGovernanceHAT",
        "offset": 20,
        "slot": "8",
        "type": "t_uint16"
      },
      {
        "astId": 15002,
        "contract": "contracts/HATVaultsRegistry.sol:HATVaultsRegistry",
        "label": "defaultBountyHackerHATVested",
        "offset": 22,
        "slot": "8",
        "type": "t_uint16"
      },
      {
        "astId": 15004,
        "contract": "contracts/HATVaultsRegistry.sol:HATVaultsRegistry",
        "label": "defaultArbitrator",
        "offset": 0,
        "slot": "9",
        "type": "t_address"
      },
      {
        "astId": 15006,
        "contract": "contracts/HATVaultsRegistry.sol:HATVaultsRegistry",
        "label": "defaultArbitratorCanChangeBounty",
        "offset": 20,
        "slot": "9",
        "type": "t_bool"
      },
      {
        "astId": 15008,
        "contract": "contracts/HATVaultsRegistry.sol:HATVaultsRegistry",
        "label": "isEmergencyPaused",
        "offset": 21,
        "slot": "9",
        "type": "t_bool"
      },
      {
        "astId": 15010,
        "contract": "contracts/HATVaultsRegistry.sol:HATVaultsRegistry",
        "label": "defaultChallengePeriod",
        "offset": 22,
        "slot": "9",
        "type": "t_uint32"
      },
      {
        "astId": 15012,
        "contract": "contracts/HATVaultsRegistry.sol:HATVaultsRegistry",
        "label": "defaultChallengeTimeOutPeriod",
        "offset": 26,
        "slot": "9",
        "type": "t_uint32"
      }
    ],
    "types": {
      "t_address": {
        "encoding": "inplace",
        "label": "address",
        "numberOfBytes": "20"
      },
      "t_array(t_address)dyn_storage": {
        "base": "t_address",
        "encoding": "dynamic_array",
        "label": "address[]",
        "numberOfBytes": "32"
      },
      "t_bool": {
        "encoding": "inplace",
        "label": "bool",
        "numberOfBytes": "1"
      },
      "t_contract(IERC20)6560": {
        "encoding": "inplace",
        "label": "contract IERC20",
        "numberOfBytes": "20"
      },
      "t_mapping(t_address,t_bool)": {
        "encoding": "mapping",
        "key": "t_address",
        "label": "mapping(address => bool)",
        "numberOfBytes": "32",
        "value": "t_bool"
      },
      "t_mapping(t_address,t_mapping(t_address,t_uint256))": {
        "encoding": "mapping",
        "key": "t_address",
        "label": "mapping(address => mapping(address => uint256))",
        "numberOfBytes": "32",
        "value": "t_mapping(t_address,t_uint256)"
      },
      "t_mapping(t_address,t_uint256)": {
        "encoding": "mapping",
        "key": "t_address",
        "label": "mapping(address => uint256)",
        "numberOfBytes": "32",
        "value": "t_uint256"
      },
      "t_struct(GeneralParameters)17776_storage": {
        "encoding": "inplace",
        "label": "struct IHATVaultsRegistry.GeneralParameters",
        "members": [
          {
            "astId": 17761,
            "contract": "contracts/HATVaultsRegistry.sol:HATVaultsRegistry",
            "label": "hatVestingDuration",
            "offset": 0,
            "slot": "0",
            "type": "t_uint32"
          },
          {
            "astId": 17763,
            "contract": "contracts/HATVaultsRegistry.sol:HATVaultsRegistry",
            "label": "hatVestingPeriods",
            "offset": 4,
            "slot": "0",
            "type": "t_uint32"
          },
          {
            "astId": 17765,
            "contract": "contracts/HATVaultsRegistry.sol:HATVaultsRegistry",
            "label": "withdrawPeriod",
            "offset": 8,
            "slot": "0",
            "type": "t_uint32"
          },
          {
            "astId": 17767,
            "contract": "contracts/HATVaultsRegistry.sol:HATVaultsRegistry",
            "label": "safetyPeriod",
            "offset": 12,
            "slot": "0",
            "type": "t_uint32"
          },
          {
            "astId": 17769,
            "contract": "contracts/HATVaultsRegistry.sol:HATVaultsRegistry",
            "label": "withdrawRequestEnablePeriod",
            "offset": 16,
            "slot": "0",
            "type": "t_uint32"
          },
          {
            "astId": 17771,
            "contract": "contracts/HATVaultsRegistry.sol:HATVaultsRegistry",
            "label": "withdrawRequestPendingPeriod",
            "offset": 20,
            "slot": "0",
            "type": "t_uint32"
          },
          {
            "astId": 17773,
            "contract": "contracts/HATVaultsRegistry.sol:HATVaultsRegistry",
            "label": "setMaxBountyDelay",
            "offset": 24,
            "slot": "0",
            "type": "t_uint32"
          },
          {
            "astId": 17775,
            "contract": "contracts/HATVaultsRegistry.sol:HATVaultsRegistry",
            "label": "claimFee",
            "offset": 0,
            "slot": "1",
            "type": "t_uint256"
          }
        ],
        "numberOfBytes": "64"
      },
      "t_uint16": {
        "encoding": "inplace",
        "label": "uint16",
        "numberOfBytes": "2"
      },
      "t_uint256": {
        "encoding": "inplace",
        "label": "uint256",
        "numberOfBytes": "32"
      },
      "t_uint32": {
        "encoding": "inplace",
        "label": "uint32",
        "numberOfBytes": "4"
      }
    }
  }
}